:100000000C947A010C94CB370C94FC370C942D385B
:100010000C945E380C948F380C94C0380C94F138E2
:100020000C9422390C94A7010C94A7010C94A701FD
:100030000C94A7010C94A7010C94A7010C94A701A0
:100040000C94A7010C94A7010C94A7010C94A70190
:100050000C94A7010C9410330C94A7010C94533901
:100060000C94A7010C940B3D0C94373E0C94A70103
:100070000C94A7010C94A7010C94A7010C94A70160
:100080000C94A7010C94A7010C94A7010C94A70150
:100090000C94473D0C946B3E0C94A7010C948B156B
:1000A0000C94A7010C94A7010C94A7010C94A70130
:1000B0000C94A7010C94A7010C94A7010C94A70120
:1000C0000C94A7010C94A7010C94A7010C94833DF8
:1000D0000C949F3E0C94A7010C94BF3D0C94D33E0E
:1000E0000C94A70107634236B79BD8A71A39685604
:1000F00018AEBAAB558C1D3CB7CC5763BD6DEDFD4A
:10010000753EF6177231BF000000803F0800000006
:10011000BE922449123EABAAAA2ABECDCCCC4C3EFC
:1001200000000080BEABAAAAAA3E00000000BF00EB
:100130000000803F0000000000084178D3BB4387E7
:10014000D1133D190E3CC3BD4282AD2B3E68EC82FB
:1001500076BED98FE1A93E4C80EFFFBE01C4FF7F80
:100160003F000000000056533130353320666F7574
:100170006E6400436F756C646E27742066696E64EC
:10018000205653313035332C20646F20796F752021
:10019000686176652074686520726967687420708C
:1001A000696E7320646566696E65643F007C3C3EE1
:1001B0005E2B3D3F2F5B5D3B2C2A225C001F1C1FEA
:1001C0001E1F1E1F1F1E1F1E1F00002100240027B0
:1001D000002A002D00300033000101000004010757
:1001E000010A0100002200250028002B002E00310A
:1001F00000340002010000050108010B010000208D
:10020000002300260029002C002F003200000100EE
:100210000003010601090105050505070508080891
:1002200008020202020A0A08080404040401010187
:10023000010101010103030303030303030407078F
:10024000070C0C0C0C0C0C0C0C020202020606062D
:1002500006060606060B0B0B0B0B0B0B0B01021015
:1002600020200808102040102040800201020108D0
:100270000402010102040810204080804020100880
:1002800004020180040201804020100804020108D9
:100290000402010102040810204080010204081039
:1002A0002040800000090A02080B0C0D0706030419
:1002B000010000000000000000000000000000003D
:1002C000000000000000000000000000000000111D
:1002D000100F0000000000000000000000000000FF
:1002E000000000000000000000008A052714AD187F
:1002F0001440830511241FBECFEFD1E2DEBFCDBF76
:1003000000E00CBF1BE0A0E0B2E0E0E0FFE800E0AE
:100310000BBF02C007900D92AC32B107D9F71BBEDC
:1003200012E1ACE2BBE001C01D92A33FB107E1F7CF
:1003300012E0C2EFD2E004C02297FE010E943847CB
:10034000CA3ED107C9F70E944A410C9473470C94E6
:100350000000A0E0B0E0EFEAF1E00C944447EC01CB
:10036000A880B980CA80DB80A114B104C104D10483
:1003700041F484E2A82E89EDB82E8BE5C82E87E0E3
:10038000D82EC601B5012DE133EF41E050E00E94C7
:100390001B4727EA31E440E050E00E94CE467B0153
:1003A0008C01C601B5012DE133EF41E050E00E9420
:1003B0001B47CA01B9012CEE34EF4FEF5FEF0E94EB
:1003C000CE466E0D7F1D801F911F97FF04C06150A8
:1003D000704080409048688379838A839B839B0127
:1003E000AC015F77B901CA01CDB7DEB7EAE00C9482
:1003F00060470E94A90108958CEB9AE00E94A90130
:1004000008956093BC0A7093BD0A8093BE0A9093CE
:10041000BF0A0895FB01DC0104C08D910190801991
:1004200021F441505040C8F7881B990B0895FC01F6
:100430008191861721F08823D9F79927089531975C
:10044000CF010895FB01DC014150504048F001907C
:100450000D920020C9F701C01D9241505040E0F7B5
:1004600008950F931F93CF93DF938C01EB016115D8
:10047000710581F0DC011F96ED91FC91509730974A
:1004800031F0CE011D966D917C911E971995F80162
:10049000D687C587DF91CF911F910F910895DF9384
:1004A000CF93CDB7DEB72D970FB6F894DEBF0FBE52
:1004B000CDBFE091B60BF091B70B9E012F5F3F4F80
:1004C000AF018DE0DA010D90AD01D9010D929D01D2
:1004D0008150C1F780910A0D90910B0D8F319105DC
:1004E00089F18032910524F44E9709F044C035C05B
:1004F0008032910519F18197F1F5A885B98510979A
:1005000059F0CE0101961C969C938E931B97A78160
:10051000B085109761F40FC02091BA0B3091BB0BDE
:100520002115310541F1CF01F901199524C01C961F
:10053000FC93EE931B976781708519C089EA9BE055
:10054000BC0117C0A581B681109721F01C96FC93C1
:10055000EE931B97658176810AC0A185B2851097BD
:1005600021F01C96FC93EE931B976185728589EAB6
:100570009BE00E94310210920B0D10920A0D2D96F5
:100580000FB6F894DEBF0FBECDBFCF91DF910895B7
:1005900083E090E09093060D8093050D0895EF920F
:1005A0000F938130910509F09EC26F5F7F4F09F074
:1005B000A7C28CE29BE00E94B82D8EE29BE060E037
:1005C0000E94833489E49BE069E04AE028E003E08C
:1005D00034E0E32E0E943C338EE89BE00E947417C7
:1005E00080E092E09093AA0B8093A90B1092AB0B42
:1005F0001092B30B1092B20B1092B10B1092B00B81
:100600001092AF0B1092AE0B1092AD0B1092AC0B80
:1006100089EA9BE09093B70B8093B60B84EF96E04A
:100620009093B90B8093B80B89EC9AE09093BB0B35
:100630008093BA0B89E092E09093BD0B8093BC0B42
:100640001092BE0B1092C60B1092C50B1092C40BE9
:100650001092C30B1092C20B1092C10B1092C00BE0
:100660001092BF0B8CE192E09093CA0B8093C90B60
:100670001092CB0B1092D30B1092D20B1092D10B85
:100680001092D00B1092CF0B1092CE0B1092CD0B7C
:100690001092CC0B89E292E09093D70B8093D60B0B
:1006A0001092D80B1092E00B1092DF0B1092DE0B21
:1006B0001092DD0B1092DC0B1092DB0B1092DA0B18
:1006C0001092D90B87E392E09093E40B8093E30BB5
:1006D0001092E50B1092ED0B1092EC0B1092EB0BBD
:1006E0001092EA0B1092E90B1092E80B1092E70BB4
:1006F0001092E60B84E492E09093F10B8093F00B60
:100700001092F20B1092FA0B1092F90B1092F80B58
:100710001092F70B1092F60B1092F50B1092F40B4F
:100720001092F30B82E592E09093FE0B8093FD0B09
:100730001092FF0B1092070C1092060C1092050CF1
:100740001092040C1092030C1092020C1092010CE7
:100750001092000C83E692E090930B0C80930A0CAD
:1007600010920C0C1092140C1092130C1092120C8C
:100770001092110C1092100C10920F0C10920E0C83
:1007800010920D0C85E792E09093180C8093170C53
:100790001092190C1092210C1092200C10921F0C28
:1007A00010921E0C10921D0C10921C0C10921B0C1F
:1007B00010921A0C84E892E09093250C8093240CFC
:1007C0001092260C10922E0C10922D0C10922C0CC4
:1007D00010922B0C10922A0C1092290C1092280CBB
:1007E0001092270C84E992E09093320C8093310CA4
:1007F0001092330C10923B0C10923A0C1092390C60
:100800001092380C1092370C1092360C1092350C56
:100810001092340C89EA92E090933F0C80933E0C46
:100820001092400C1092480C1092470C1092460CFB
:100830001092450C1092440C1092430C1092420CF2
:100840001092410C82EB92E090934C0C80934B0CF5
:1008500010924D0C1092550C1092540C1092530C97
:100860001092520C1092510C1092500C10924F0C8E
:1008700010924E0C8DEB92E09093590C8093580C93
:1008800010925A0C1092620C1092610C1092600C33
:1008900010925F0C10925E0C10925D0C10925C0C2A
:1008A00010925B0C87EC92E09093660C8093650C41
:1008B0001092670C10926F0C10926E0C10926D0CCF
:1008C00010926C0C10926B0C10926A0C1092690CC6
:1008D0001092680C89ED92E09093730C8093720CE7
:1008E0001092740C10927C0C10927B0C10927A0C6B
:1008F0001092790C1092780C1092770C1092760C62
:100900001092750C85EE92E09093800C80937F0C92
:100910001092810C1092890C1092880C1092870C06
:100920001092860C1092850C1092840C1092830CFD
:100930001092820C80EF92E090938D0C80938C0C3F
:1009400010928E0C1092960C1092950C1092940CA2
:100950001092930C1092920C1092910C1092900C99
:1009600010928F0C8DEF92E090939A0C8093990CDB
:1009700010929B0C1092A30C1092A20C1092A10C3E
:100980001092A00C10929F0C10929E0C10929D0C35
:1009900010929C0C8BE093E09093A70C8093A60C94
:1009A0001092A80C1092B00C1092AF0C1092AE0CDA
:1009B0001092AD0C1092AC0C1092AB0C1092AA0CD1
:1009C0001092A90C89E193E09093B40C8093B30C3E
:1009D0001092B50C1092BD0C1092BC0C1092BB0C76
:1009E0001092BA0C1092B90C1092B80C1092B70C6D
:1009F0001092B60C8CE293E09093C10C8093C00CE3
:100A00001092C20C1092CA0C1092C90C1092C80C11
:100A10001092C70C1092C60C1092C50C1092C40C08
:100A20001092C30C8BE393E09093CE0C8093CD0C8B
:100A30001092CF0C1092D70C1092D60C1092D50CAD
:100A40001092D40C1092D30C1092D20C1092D10CA4
:100A50001092D00C8AE493E09093DB0C8093DA0C34
:100A60001092DC0C1092E40C1092E30C1092E20C49
:100A70001092E10C1092E00C1092DF0C1092DE0C40
:100A80001092DD0C89E593E09093E80C8093E70CDD
:100A90001092E90C1092F10C1092F00C1092EF0CE5
:100AA0001092EE0C1092ED0C1092EC0C1092EB0CDC
:100AB0001092EA0C8EE593E09093F50C8093F40C81
:100AC0001092F60C1092FE0C1092FD0C1092FC0C81
:100AD0001092FB0C1092FA0C1092F90C1092F80C78
:100AE0001092F70C0DC0892B59F46F5F7F4F41F4C2
:100AF0008EE89BE00E94871781E79BE00E948717A2
:100B00000F91EF90089580E090E06FEF7FEF0E94EB
:100B1000CF02089581E090E06FEF7FEF0E94CF0257
:100B20000895CF92DF92EF92FF920F931F93CF938E
:100B3000DF9381E20E94633BEC0180910C0D909168
:100B40000D0DC817D90751F00E949B396093140D01
:100B50007093150D8093160D9093170D0E949B397D
:100B60002091140D3091150D4091160D5091170DD7
:100B7000621B730B840B950B2091C90A3091CA0A32
:100B80004091CB0A5091CC0A2617370748075907DE
:100B900018F0CC24DD240BC00E949B396093140D07
:100BA0007093150D8093160D9093170D6E01D093D1
:100BB0000D0DC0930C0D80E20E94633BEC0180910F
:100BC0000E0D90910F0DC817D90751F00E949B3957
:100BD0006093180D7093190D80931A0D90931B0D4F
:100BE0000E949B392091180D3091190D40911A0DDA
:100BF00050911B0D621B730B840B950B2091C90A3E
:100C00003091CA0A4091CB0A5091CC0A2617370777
:100C10004807590718F0EE24FF240BC00E949B39A7
:100C20006093180D7093190D80931A0D90931B0DFE
:100C30007E01D0930F0DC0930E0D8FE10E94633B98
:100C4000EC018091120D9091130DC817D90751F046
:100C50000E949B396093200D7093210D8093220D8B
:100C60009093230D0E949B392091200D3091210DEE
:100C70004091220D5091230D621B730B840B950B39
:100C80002091C90A3091CA0A4091CB0A5091CC0AEE
:100C9000261737074807590718F000E010E00BC087
:100CA0000E949B396093200D7093210D8093220D3B
:100CB0009093230D8E01D093130DC093120D8EE1EE
:100CC0000E94633BEC018091100D9091110DC817AB
:100CD000D90751F00E949B3960931C0D70931D0D34
:100CE00080931E0D90931F0D0E949B3920911C0D27
:100CF00030911D0D40911E0D50911F0D621B730B05
:100D0000840B950B2091C90A3091CA0A4091CB0AF5
:100D10005091CC0A261737074807590718F080E08A
:100D200090E00BC00E949B3960931C0D70931D0DC9
:100D300080931E0D90931F0DCE01D093110DC09383
:100D4000100D21E0C216D10419F481E290E011C027
:100D500021E0E216F10419F480E290E00AC00130CB
:100D6000110519F48FE190E004C0019739F48EE188
:100D700090E090930B0D80930A0D04C010920B0D20
:100D800010920A0DDF91CF911F910F91FF90EF907C
:100D9000DF90CF900895EF92FF920F931F934EE252
:100DA000E42E4BE0F42EC70160E040E00E942336C1
:100DB00001E713E0C701B8010E942343C701B8014E
:100DC0000E942343C701B8010E942343C701B80111
:100DD0000E942343C70160E040E00E9423361F9138
:100DE0000F91FF90EF9008950F931F93DF93CF9390
:100DF000CDB7DEB72D970FB6F894DEBF0FBECDBFCF
:100E0000DE011196FC018DE001900D928150E1F719
:100E100009811A818EE29BE060E042E00E94233665
:100E2000A091A90BB091AA0BF80105C031968C9145
:100E3000981729F4119690819923C1F7DFC082E0B9
:100E40000930180729F48EE29BE066E873E0DCC005
:100E500082E00C31180729F48EE29BE06BE973E025
:100E6000D3C082E00932180729F48EE29BE060EBE0
:100E700073E0CAC082E00733180729F48EE29BE0D2
:100E800065EC73E0C1C082E00434180729F48EE2F7
:100E90009BE06AED73E0B8C082E00235180729F4E0
:100EA0008EE29BE06FEE73E0AFC082E0033618077E
:100EB00029F48EE29BE064E074E0A6C082E005378E
:100EC000180729F48EE29BE069E174E09DC082E09E
:100ED0000438180729F48EE29BE06EE274E094C0B7
:100EE00082E00439180721F48EE29BE0B8018CC03F
:100EF00082E0093A180729F48EE29BE063E474E08B
:100F000083C082E0023B180729F48EE29BE068E58B
:100F100074E07AC082E00D3B180729F48EE29BE072
:100F20006DE674E071C082E0073C180729F48EE298
:100F30009BE062E874E068C082E0093D180729F48C
:100F40008EE29BE067E974E05FC082E0053E18072F
:100F500029F48EE29BE06CEA74E056C082E0003F28
:100F6000180729F48EE29BE061EC74E04DC082E04A
:100F70000D3F180729F48EE29BE066ED74E044C053
:100F800083E00B30180729F48EE29BE06BEE74E0EF
:100F90003BC083E00931180729F48EE29BE060E052
:100FA00075E032C083E00C32180729F48EE29BE032
:100FB00065E175E029C083E00B33180729F48EE260
:100FC0009BE06AE275E020C083E00A34180729F448
:100FD0008EE29BE06FE375E017C083E009351807E8
:100FE00029F48EE29BE064E575E00EC00E551340D7
:100FF00069F48EE29BE069E675E006C00E94CB06CC
:101000008EE29BE06EE775E00E9423432D960FB6BB
:10101000F894DEBF0FBECDBFCF91DF911F910F912E
:1010200008950E94CB068EE29BE060E041E00E94C2
:1010300023368EE29BE063E975E00E94234389EA50
:101040009BE09093C00B8093BF0B8CEB9BE0909345
:10105000B10B8093B00B8091C70B9091C80B892B7B
:1010600041F48091B40B9091B50B9093C80B809391
:10107000C70B8CEB9BE090933B0C80933A0C81E385
:101080009CE09093C20B8093C10B80913C0C90919B
:101090003D0C892B41F48091C70B9091C80B909324
:1010A0003D0C80933C0C81E39CE09093CA0C8093B0
:1010B000C90C80EC9CE09093370C8093360C8091A7
:1010C000CB0C9091CC0C892B41F480913C0C9091ED
:1010D0003D0C9093CC0C8093CB0C80EC9CE09093D7
:1010E000F10C8093F00C87EE9CE09093C60C8093FB
:1010F000C50C8091F20C9091F30C892B41F48091F6
:10110000CB0C9091CC0C9093F30C8093F20C8CEB65
:101110009BE09093CD0B8093CC0B89EC9BE090935C
:10112000C40B8093C30B8091D40B9091D50B892B6A
:1011300041F48091C70B9091C80B9093D50B80938D
:10114000D40B89EC9BE09093E00B8093DF0B86ED52
:101150009BE09093CF0B8093CE0B8091E10B90910D
:10116000E20B892B41F48091D40B9091D50B909395
:10117000E20B8093E10B86ED9BE09093ED0B809367
:10118000EC0B83EE9BE09093DC0B8093DB0B809168
:10119000EE0B9091EF0B892B41F48091E10B909134
:1011A000E20B9093EF0B8093EE0B83EE9BE090931A
:1011B000FA0B8093F90B80EF9BE09093E90B8093FF
:1011C000E80B8091FB0B9091FC0B892B41F48091F3
:1011D000EE0B9091EF0B9093FC0B8093FB0B80EF49
:1011E0009BE09093070C8093060C8DEF9BE090930F
:1011F000F60B8093F50B8091080C9091090C892BCC
:1012000041F48091FB0B9091FC0B9093090C80931F
:10121000080C8DEF9BE09093140C8093130C8AE0E4
:101220009CE09093030C8093020C8091150C90919C
:10123000160C892B41F48091080C9091090C909325
:10124000160C8093150C8AE09CE09093210C8093FF
:10125000200C87E19CE09093100C80930F0C809100
:10126000220C9091230C892B41F48091150C9091C4
:10127000160C9093230C8093220C87E19CE09093B2
:101280002E0C80932D0C84E29CE090931D0C809397
:101290001C0C80912F0C9091300C892B41F4809183
:1012A000220C9091230C9093300C80932F0C81E3AF
:1012B0009CE09093420C8093410C8EE39CE09093D1
:1012C000390C8093380C8091490C90914A0C892BF1
:1012D00041F480913C0C90913D0C90934A0C80938A
:1012E000490C8EE39CE09093550C8093540C8BE456
:1012F0009CE09093440C8093430C8091560C909109
:10130000570C892B41F48091490C90914A0C909391
:10131000570C8093560C8BE49CE09093620C809366
:10132000610C88E59CE09093510C8093500C809167
:10133000630C9091640C892B41F48091560C909130
:10134000570C9093640C8093630C88E59CE0909319
:101350006F0C80936E0C85E69CE090935E0C8093FE
:101360005D0C8091700C9091710C892B41F48091EF
:10137000630C9091640C9093710C8093700C85E6D3
:101380009CE090937C0C80937B0C82E79CE0909394
:101390006B0C80936A0C80917D0C90917E0C892B54
:1013A00041F48091700C9091710C90937E0C80931D
:1013B0007D0C82E79CE09093890C8093880C8FE7EA
:1013C0009CE09093780C8093770C80918A0C90919C
:1013D0008B0C892B41F480917D0C90917E0C909325
:1013E0008B0C80938A0C8FE79CE09093960C8093F3
:1013F000950C8CE89CE09093850C8093840C8091F4
:10140000970C9091980C892B41F480918A0C9091C3
:101410008B0C9093980C8093970C8CE89CE09093A5
:10142000A30C8093A20C89E99CE09093920C80938A
:10143000910C8091A40C9091A50C892B41F4809182
:10144000970C9091980C9093A50C8093A40C89E92B
:101450009CE09093B00C8093AF0C86EA9CE0909354
:101460009F0C80939E0C8091B10C9091B20C892BB3
:1014700041F48091A40C9091A50C9093B20C8093B0
:10148000B10C86EA9CE09093BD0C8093BC0C83EB7E
:101490009CE09093AC0C8093AB0C8091BE0C90912F
:1014A000BF0C892B41F48091B10C9091B20C9093B8
:1014B000BF0C8093BE0C80EC9CE09093D10C809389
:1014C000D00C8DEC9CE09093C80C8093C70C80915D
:1014D000D80C9091D90C892B41F48091CB0C909130
:1014E000CC0C9093D90C8093D80C8DEC9CE090930D
:1014F000E40C8093E30C8AED9CE09093D30C8093F2
:10150000D20C8091E50C9091E60C892B41F48091EE
:10151000D80C9091D90C9093E60C8093E50C87EE53
:101520009CE09093F80C8093F70C84EF9CE09093F0
:10153000EF0C8093EE0C8091FF0C9091000D892BA5
:1015400041F48091F20C9091F30C9093000D8093F4
:10155000FF0C89EA9BE0BC010E94310260E273E06B
:1015600080E090E00E94153A8EE29BE060E043E06C
:101570000E9423368EE29BE064EA75E00E942343DA
:1015800064EF71E080E090E00E94153A0E94CB0683
:1015900008950F93CF93DF93EC010E94CB068EE268
:1015A0009BE060E040E00E9423368EE29BE067ED26
:1015B00075E00E9423438EE29BE060E041E00E94E0
:1015C0002336688179818EE29BE00E94234368EB99
:1015D0007BE080E090E00E94153A89EA9BE0BC0144
:1015E0000E943102888199818E55934071F487E67B
:1015F00090E169EE75E00E94264385E090E09093CB
:10160000060D8093050D0E94CB06888199818D5F20
:10161000924079F58DE261E00E94303B84EE9DE0DE
:101620000E94D01884EE9DE064E04FEF2FEF0FEFA3
:101630000E94161B87E690E160E176E004C087E631
:1016400090E166E276E00E94264389E49BE06CE349
:1016500076E00E94EE32882391F38DE260E00E94F2
:10166000303B85E090E09093060D8093050D0E943D
:10167000CB06888199818B50934071F58DE261E0B2
:101680000E94303B84EE9DE00E94D01884EE9DE0E5
:1016900064E04FEF2FEF0FEF0E94161B87E690E1FB
:1016A00069E476E00E94264389E49BE06FE576E0FA
:1016B0000E94853268EB7BE080E090E00E94153A62
:1016C0008DE260E00E94303B85E090E09093060D53
:1016D0008093050D0E94CB068881998189519340A2
:1016E00071F58DE261E00E94303B84EE9DE00E9446
:1016F000D01884EE9DE064E04FEF2FEF0FEF0E94D3
:10170000161B87E690E16CE676E00E94264389E4AA
:101710009BE067E876E00E94853268EB7BE080E042
:1017200090E00E94153A8DE260E00E94303B85E037
:1017300090E09093060D8093050D0E94CB06888162
:1017400099818D5B9240D1F483E090E09093020DFB
:101750008093010D87E690E164E976E00E942643DC
:1017600068EE73E080E090E00E94153A85E090E03A
:101770009093060D8093050D0E94CB068881998178
:10178000875C9240D1F484E090E09093020D8093C6
:10179000010D87E690E16FEA76E00E94264368EE4D
:1017A00073E080E090E00E94153A85E090E090932D
:1017B000060D8093050D0E94CB06DF91CF910F910E
:1017C00008950E94CB068EE29BE060E041E00E941B
:1017D00023368EE29BE06EEC76E00E94234389E4A0
:1017E0009BE00E943B32882339F487E690E163E76F
:1017F00071E00E94CE41FFCF87E690E166E671E09E
:101800000E94CE4189E49BE062E042E00E944431C4
:1018100089E49BE065E00E94623389E49BE06CE32D
:1018200076E00E94853260E273E080E090E00E9402
:10183000153A8EE29BE060E043E00E9423368EE2A0
:101840009BE064EA75E00E94234308950F93DF93C1
:10185000CF93CDB7DEB76B970FB6F894DEBF0FBE50
:10186000CDBF0E94CB068EE29BE060E041E00E948B
:1018700023368EE29BE060EE76E00E94234387E60B
:1018800090E16CEE76E00E94234384EE9DE065E3F8
:101890004FEF2FEF0FEF0E94161B882339F487E6D6
:1018A00090E164E077E00E942643FFCF87E690E175
:1018B00060E277E00E942643CE01019664EE7DE06F
:1018C00042E357E023E10E94F1198B819C819093C0
:1018D000910B8093900B8D819E81AF81B885809311
:1018E000920B9093930BA093940BB093950B8985D7
:1018F0009A85AB85BC858093960B9093970BA093AC
:10190000980BB093990BAAE9BBE0FE013D968DE0E0
:1019100001900D928150E1F78A8D9B8D9093A80BD9
:101920008093A70BCE0101960E9487178EE89BE05B
:101930000E94C917882339F487E690E16EE377E0C7
:101940000E942643FFCF60E273E080E090E00E94B7
:10195000153A8EE29BE060E043E00E9423368EE27F
:101960009BE064EA75E00E9423436B960FB6F894FF
:10197000DEBF0FBECDBFCF91DF910F910895EF92E3
:10198000FF920F931F9357E6E52E50E1F52EC70106
:1019900068E577E00E9423430EE21BE0C80164E1A2
:1019A00044E020E00E9467360E94CB06C80163E74E
:1019B00077E00E942343C70164EA75E00E94264352
:1019C0001F910F91FF90EF900895DF93CF930F92A7
:1019D000CDB7DEB787E690E163E877E00E94234366
:1019E0000E94CB068EE29BE060E041E00E9423363D
:1019F0008EE29BE060EA77E00E9423438CE29BE06A
:101A00000E948E308CE29BE0BE016F5F7F4F0E9490
:101A1000192E882399F087E690E162EB77E00E9427
:101A2000234387E690E1698140E150E00E949F42B4
:101A300087E690E165EC77E00E9426431092070D5F
:101A400087E690E166ED77E00E9426438CE29BE01A
:101A50006091070D42E028E03DE00E94352F87E6C7
:101A600090E164EE77E00E9426438CE29BE00E94C6
:101A70004F2F64E670E080E090E00E94153A8CE21F
:101A80009BE061E045E00E94F92E882331F087E673
:101A900090E16FEE77E00E9426438CE29BE06CE2DF
:101AA00071E040ED57E00E94D92E882331F087E69F
:101AB00090E165E178E00E94264360E273E080E017
:101AC00090E00E94153A87E690E164EA75E00E9492
:101AD00026438EE29BE060E043E00E9423368EE2E4
:101AE0009BE064EA75E00E9423430F90CF91DF9161
:101AF0000895CF92DF92EF92FF920F931F9377E6B4
:101B0000C72E70E1D72EC60162E478E00E9423431D
:101B10000E94CB066EE2E62E6BE0F62EC70160E077
:101B200041E00E942336C70167E578E00E94234325
:101B300085E361E00E947D3A86E161E00E947D3AA2
:101B40008EE160E00E947D3A8FE160E00E947D3A84
:101B500080E260E00E947D3A81E260E00E947D3A8E
:101B600082E260E00E947D3A82E060E00E947D3A7D
:101B700082E160E00E947D3A88E261E00E947D3A65
:101B800089E261E00E947D3A8CE060E00E947D3A4B
:101B90008DE261E00E947D3A85E361E00E947D3A3A
:101BA00060E273E080E090E00E94153A04EA15E0FC
:101BB000C601B8010E942643C70160E043E00E94CD
:101BC0002336C701B8010E9423431F910F91FF9054
:101BD000EF90DF90CF900895CF92DF92EF92FF9237
:101BE0000F931F93DF93CF93CDB7DEB768970FB6F0
:101BF000F894DEBF0FBECDBF87E690E169E678E0DE
:101C00000E9423430E94CB068EE29BE060E041E00D
:101C10000E9423368EE29BE069E878E00E9423432D
:101C20000E94E12C0E94E32C2B8B3C8B4D8B5E8B16
:101C30006F8B788FDE011196FE01739686E001901E
:101C40000D928150E1F7E7E0CE2ED12CCC0EDD1EB7
:101C5000C6016EE978E04AEA58E00E94EB2BCE011B
:101C600001960E94872C7B018C01C6010E94872C63
:101C7000E616F7060807190768F48E01035F1F4F81
:101C8000C8016EE978E04AEA58E00E94EB2BC801EF
:101C90000E94652D60E273E080E090E00E94153ABA
:101CA00087E690E164EA75E00E9426438EE29BE0BD
:101CB00060E043E00E9423368EE29BE064EA75E038
:101CC0000E94234368960FB6F894DEBF0FBECDBFC7
:101CD000CF91DF911F910F91FF90EF90DF90CF9008
:101CE00008950F931F93082F803414F00FE302C060
:101CF00087FD00E087E690E163EB78E00E942343F4
:101D0000112707FD109587E690E1B8014AE050E001
:101D10000E9404438AE69DE06BE470E00E94ED13AC
:101D20008AE69DE0602F0E946F148AE69DE00E9483
:101D3000B21490E0882309F491E0892F1F910F914C
:101D400008958091C00A0E94710E882331F487E6BD
:101D500090E166EC78E00E94264386E161E00E9413
:101D6000303B60ED77E080E090E00E94153A86E13C
:101D700060E00E94303B8DE260E00E94303B0895BD
:101D80000F931F93682F0AE61DE0C8010E94E3131A
:101D9000C8016FE60E946F14C8010E94B2141F911F
:101DA0000F910895DF92EF92FF920F931F93382FB8
:101DB000F62EE42ED22E0AE61DE0C801632F0E9403
:101DC000E313C80160E70E946F14C8016F2D0E94E1
:101DD0006F14C8016E2D0E946F14C8016D2D0E94F2
:101DE0006F14C8010E94B2141F910F91FF90EF90E1
:101DF000DF900895DF92EF92FF920F931F93382F99
:101E0000F62EE42ED22E0AE61DE0C801632F0E94B2
:101E1000E313C80163E60E946F14C8016F2D0E948E
:101E20006F14C8016E2D0E946F14C8016D2D0E94A1
:101E30006F14C8010E94B2141F910F91FF90EF9090
:101E4000DF9008950F931F93CF93DF9387E690E180
:101E50006FEE78E00E9426430E94CB068EE29BE064
:101E600060E041E00E9423368EE29BE065E179E08C
:101E70000E94234389E361E00E947D3A88E361E0A8
:101E80000E947D3A89E361E00E94303B88E360E094
:101E90000E94303B64E670E080E090E00E94153ADA
:101EA0008AE69DE00E94C71401EC1AE0C0E0D0E091
:101EB00087E690E166E279E00E942343219687E677
:101EC00090E1BE014AE050E00E9404438EE29BE0B4
:101ED00060E042E00E9423368EE29BE066E279E019
:101EE0000E9423438EE29BE0BE014AE050E00E9444
:101EF000F142F801808162E140E020E00E94D20ED0
:101F000060ED77E080E090E00E94153AF801808172
:101F10000E94C00EF80181918F0160E040E020E056
:101F20000E94FA0EC830D10519F668EC70E080E026
:101F300090E00E94153A8EE29BE06BE279E00E940D
:101F4000234387E690E165E379E00E942643DF9131
:101F5000CF911F910F9108954F925F926F927F9250
:101F60008F929F92AF92BF92CF92DF92EF92FF92A9
:101F70000F931F93DF93CF93CDB7DEB7CA54D040F2
:101F80000FB6F894DEBF0FBECDBF8091050D9091C6
:101F9000060D8430910509F434C1853091053CF477
:101FA0008230910581F0039709F0CDC307C18630D7
:101FB000910509F41EC2863091050CF427C10797DC
:101FC00009F0C1C30BC30E94E32CDE01AB5BBF4F22
:101FD0002C93FE01EA5BFF4F3083FE01E95BFF4F6C
:101FE0004083FE01E85BFF4F5083FE01E75BFF4F3C
:101FF0006083FE01E65BFF4F70839E01275F3F4FCA
:10200000FD0186E00190D9010D929D018150D1F72B
:10201000BE84CD84DC84EB84FA8409858EE29BE067
:1020200060E00E945A3687E690E16DE879E00E9410
:10203000234310E00053184F87E690E1B8014AE0CF
:1020400050E00E94714287E690E16FE20E94A64153
:1020500087E690E16F2D4AE050E00E949F4287E6BC
:1020600090E16FE20E94A64187E690E16E2D4AE082
:1020700050E00E949F4287E690E160E20E94A64104
:1020800087E690E16D2D4AE050E00E949F4287E68E
:1020900090E16AE30E94A64187E690E16C2D4AE058
:1020A00050E00E949F4287E690E16AE30E94A641C9
:1020B00087E690E16B2D4AE050E00E949F428EE25D
:1020C0009BE060E041E00E9423368EE29BE0B80195
:1020D0004AE050E00E9471428EE29BE06FE20E9473
:1020E000A6418EE29BE06F2D4AE050E00E949F42A5
:1020F0008EE29BE06FE20E94A6418EE29BE06E2D95
:102100004AE050E00E949F428EE29BE060E20E9423
:10211000A6418EE29BE06D2D4AE050E00E949F4276
:102120008EE29BE06AE30E94A6418EE29BE06C2D6A
:102130004AE050E00E949F428EE29BE06AE30E94E8
:10214000A6418EE29BE06B2D4AE050E00E949F4248
:102150008CE29BE0BE016D5F7F4FAE014F5F5F4F32
:102160000E946A2E882309F187E690E164EA79E00B
:102170000E9423436B817C8187E690E14AE050E036
:102180000E9482424091080D5091090D2B813C81A3
:1021900009811A818CE29BE06091070DB5E0EB2E7E
:1021A000F12CEC0EFD1E0E94542F8B819C818C52D1
:1021B000914008F0C8C286E090E0C1C287E690E195
:1021C0006DEA79E00E9426438CE29BE00E94B92DE3
:1021D00084E00E949F370E94CB068EE29BE061E084
:1021E0000E945A368EE29BE060E040E00E94233677
:1021F0008EE29BE06EE775E00E94234384E090E06E
:102200009EC20E9491050E944F029DC287E690E106
:102210006EED79E00E9426430E94E32CDE01AB5B69
:10222000BF4F2C93FE01EA5BFF4F3083FE01E95B59
:10223000FF4F4083FE01E85BFF4F5083FE01E75BE9
:10224000FF4F6083FE01E65BFF4F70839E01275FB7
:102250003F4FFD0186E00190D9010D929D01815013
:10226000D1F784EE9DE00E94D01884EE9DE065E3F6
:102270004FEF2FEF0FEF0E94161BCE010F9664EE6B
:102280007DE042E357E023E10E94F11989899A89B0
:102290009093910B8093900B8B899C89AD89BE891B
:1022A0008093920B9093930BA093940BB093950B08
:1022B0008F89988DA98DBA8D8093960B9093970BEB
:1022C000A093980BB093990BAAE9BBE0FE017B9613
:1022D0008DE001900D928150E1F788A599A590932A
:1022E000A80B8093A70BCE010F960E9487176985D4
:1022F00070E06053784F8EE89BE04AE050E00E9427
:1023000071428EE89BE06FE20E94A6418EE89BE05E
:102310006A854AE050E00E949F428EE89BE06FE2AF
:102320000E94A6418EE89BE06B854AE050E00E9447
:102330009F428EE89BE060E20E94A6418EE89BE00F
:102340006C854AE050E00E949F428EE89BE06AE381
:102350000E94A6418EE89BE06D854AE050E00E9415
:102360009F428EE89BE06AE30E94A6418EE89BE0D4
:102370006E854AE050E00E949F428EE89BE061E05B
:102380007AE00E9423438EE89BE06CE17AE00E94B1
:1023900023436091010D7091020D8EE89BE04AE0AD
:1023A00050E00E94F1428EE89BE06CE17AE00E94EE
:1023B00023436091030D7091040D8EE89BE04AE089
:1023C00050E00E9404438EE89BE00E94E8178EE8EC
:1023D0009BE00E94D61784EE9DE00E94D01884E016
:1023E00068EC72E041E050E00E94233782E090E028
:1023F000A6C187E690E16EE17AE00E9426430E9442
:10240000E32CDE01AB5BBF4F2C93FE01EA5BFF4F79
:102410003083FE01E95BFF4F4083FE01E85BFF4F25
:102420005083FE01E75BFF4F6083FE01E65BFF4FD9
:1024300070839E01275F3F4FFD0186E00190D90127
:102440000D929D018150D1F784EE9DE00E94D0183D
:1024500084EE9DE065E34FEF2FEF0FEF0E94161B18
:10246000CE018A9664EE7DE042E357E023E10E94CC
:10247000F1198CA59DA59093910B8093900B8EA53F
:102480009FA5A8A9B9A98093920B9093930BA093B1
:10249000940BB093950B8AA99BA9ACA9BDA9809375
:1024A000960B9093970BA093980BB093990BAAE976
:1024B000BBE0FE01F6968DE001900D928150E1F7B0
:1024C000FE01ED5BFF4F808191819093A80B80937B
:1024D000A70BCE018A960E948717698570E060532A
:1024E000784F8EE89BE04AE050E00E9471428EE80F
:1024F0009BE06FE20E94A6418EE89BE06A854AE07D
:1025000050E00E949F428EE89BE06FE20E94A6414D
:102510008EE89BE06B854AE050E00E949F428EE887
:102520009BE060E20E94A6418EE89BE06C854AE059
:1025300050E00E949F428EE89BE06AE30E94A64121
:102540008EE89BE06D854AE050E00E949F428EE855
:102550009BE06AE30E94A6418EE89BE06E854AE01C
:1025600050E00E949F428EE89BE066E77AE00E947E
:1025700023438EE89BE061E07AE00E9423438EE8EB
:102580009BE06CE17AE00E9423436091010D709121
:10259000020D8EE89BE04AE050E00E94F1428EE896
:1025A0009BE06CE17AE00E9423436091030D7091FF
:1025B000040D8EE89BE04AE050E00E9404438EE860
:1025C0009BE00E94E8178EE89BE00E94D61784EEFD
:1025D0009DE00E94D01887E090E0B1C084E068ECF4
:1025E00072E041E050E00E94233787E690E16BE91A
:1025F0007AE00E94264360E070E080E090E023E112
:1026000030E040E050E00E9462435B016C01809149
:10261000010D9091020D83309105D9F08130910523
:1026200031F4ADE0AA2EB12CC12CD12C17C08230D0
:10263000910579F0049791F460E070E080E090E01B
:1026400023E130E040E050E00E9462435B016C0116
:1026500005C0F5E0AF2EB12CC12CD12C60E070E0AC
:1026600080E090E02BE030E040E050E00E946243E8
:102670002B0164EF71E080E090E020ED37E040E076
:1026800050E00E9462433B014C018CE00E94633B9E
:10269000019749F560E070E080E090E022E330E0EF
:1026A00040E050E00E9462436A307105E4F461E06A
:1026B00070E080E090E02CED35E040E050E00E94DA
:1026C00062437B018C0186E161E00E94303B002780
:1026D000F7FC0095102FC801B7010E94153A86E15A
:1026E00060E00E94303B82010F53154FF80180815A
:1026F0006A2D40E020E00E94D20EC401B3010E9486
:10270000153AD8018C910E94C00EF801808160E0DA
:1027100040E020E00E94FA0E8CE29BE0BE016F5F79
:102720007F4FAE014D5F5F4F0E946A2E882359F0A4
:1027300089819A818D52914030F085E090E09093AC
:10274000060D8093050DC65BDF4F0FB6F894DEBF14
:102750000FBECDBFCF91DF911F910F91FF90EF90F2
:10276000DF90CF90BF90AF909F908F907F906F90B1
:102770005F904F90089587E690E140E05BE460E071
:1027800070E00E94073F0E94BF0C0E94EC0D0E9467
:10279000220F0E94790D0E94E50C0E94260C0E94D7
:1027A000E10B0E9411080E94A10E84E068EC72E027
:1027B00041E050E00E94233782E090E09093060DC4
:1027C0008093050D089581E08093690D6093460D17
:1027D0001092670D1092680D089581E08093690D45
:1027E0006093460D1092670D1092680D0895209128
:1027F000450D30E08091440D281B3109C901089531
:102800004091440D8091450D481718F02FEF3FEF90
:102810000AC0E42FF0E0EC5DF24F8081282F30E019
:102820004F5F4093440DC9010895E091440D80919C
:10283000450DE81718F0EFEFFFEF06C0F0E0EC5D94
:10284000F24F8081E82FF0E0CF01089508951092B3
:102850006D0D10926C0D88EE93E0A0E0B0E08093D7
:102860006E0D90936F0DA093700DB093710D8BED65
:102870009AE090936B0D80936A0D0895CF92DF924A
:10288000EF92FF920F931F93CF93DF937C016B0125
:102890008A018091690D8823A1F0C0E0D0E00DC0CD
:1028A000D701ED91FC91D601AC0FBD1F0190F081D5
:1028B000E02DC7016C9119952196C017D10780F3BF
:1028C00004C0CB01642F0E947015C801DF91CF9125
:1028D0001F910F91FF90EF90DF90CF900895DF93BD
:1028E000CF930F92CDB7DEB7FC0169838091690D5C
:1028F0008823C9F08091680D803238F081E090E043
:102900009383828320E030E015C08091670DE82F2B
:10291000F0E0E95BF24F998190838F5F8093670DC0
:102920008093680D05C0CE01019661E00E9470158C
:1029300021E030E0C9010F90CF91DF9108950F930E
:10294000062F8091460D67E47DE04091680D21E0FF
:102950000E941B151092670D1092680D1092690D60
:102960000F91089561E00E949F140895413208F08C
:1029700040E2862F64E27DE00E94D2141092440D62
:102980008093450D089521E00E94B6140895109299
:10299000440D1092450D1092670D1092680D0E9423
:1029A00020170895382F413210F040E042C0809146
:1029B000760D8823E1F791E09093760D2093780DC2
:1029C0008FEF8093E30D10929E0D415040939F0D29
:1029D0004F5F9093770D8091770D330F832B80930A
:1029E000770D8091790D813041F41092790D8091AD
:1029F000770D8093BB0085EC01C085EE8093BC0011
:102A00008091760D8130E1F380919E0D841710F452
:102A100040919E0D20E030E00AC0FB01E20FF31F61
:102A2000D901A258B24F8C9180832F5F3F4F24175A
:102A3000A0F3842F08950F931F93582F122F413224
:102A400010F081E04AC08091760D8823E1F782E0A2
:102A50008093760D0093780D8FEF8093E30D1092A5
:102A60009E0D40939F0DAEE7BDE0FB0102C081913A
:102A70008D938E2F861B8417D0F31092770D809143
:102A8000770D550F852B8093770D8091790D8130CF
:102A900041F41092790D8091770D8093BB0085EC05
:102AA00001C085EE8093BC00112321F08091760D4A
:102AB0008230E1F38091E30D8F3F11F480E00DC08F
:102AC0008091E30D803211F482E007C08091E30D24
:102AD000803311F084E001C083E01F910F910895CD
:102AE000482F613210F081E008958091760D843096
:102AF00011F082E008956093C10DA0EABDE0842F3B
:102B00009C01F90102C081918D938E2F841B861741
:102B1000D0F380E008951F920F920FB60F920BB67C
:102B20000F9211242F933F934F935F936F937F9353
:102B30008F939F93AF93BF93EF93FF938091B900CF
:102B400090E0887F90708036910509F4F2C081365C
:102B50009105CCF58832910509F47BC08932910545
:102B6000B4F48031910509F46FC0813191053CF4D2
:102B7000009709F447C1089709F04FC165C0883133
:102B8000910509F466C0809709F047C182C080347E
:102B9000910509F4A4C08134910544F48033910572
:102BA00009F482C0C89709F038C189C08035910501
:102BB00009F489C08835910509F496C088349105D7
:102BC00009F02BC1AEC08839910509F413C18939C8
:102BD0009105ECF48837910509F4ABC0893791056C
:102BE0004CF48836910509F4A4C08037910509F0AA
:102BF00014C19FC08838910509F4FCC08039910543
:102C000009F49DC08038910509F007C198C0803B48
:102C1000910509F4C6C0813B91054CF4803A9105B9
:102C200009F49FC0883A910509F0F7C0BAC0803C0A
:102C3000910509F4E3C0883C910509F4DFC0883BA5
:102C4000910509F0EAC0C2C08091770D8093BB0066
:102C5000CFC090919E0D80919F0D981768F4909130
:102C60009E0DE92FF0E0E258F24F80818093BB0087
:102C70009F5F90939E0DBCC08091780D882309F4CE
:102C80004BC085ED8093BC008091BC0084FDFCCFDF
:102C9000C2C080E28093E30D85ED8093BC008091FB
:102CA000BC0084FDFCCFB7C080E38093E30D85EDCD
:102CB0008093BC008091BC0084FDFCCFACC088E355
:102CC0008093E30D9BC080919E0D9091BB00E82FF7
:102CD000F0E0E258F24F90838F5F80939E0D9091C9
:102CE0009E0D80919F0D82C080919E0D9091BB00A2
:102CF000E82FF0E0E258F24F90838F5F80939E0DB3
:102D00008091780D882341F085ED8093BC008091FF
:102D1000BC0084FDFCCF7FC081E08093790D84EA04
:102D20006EC085ED8093BC008091BC0084FDFCCF1B
:102D300072C083E08093760D1092E20D59C08091AD
:102D4000E20D803208F056C08091E20D9091BB00F8
:102D5000E82FF0E0EE53F24F90838F5F8093E20D07
:102D600047C08091E20D803230F4E091E20DF0E056
:102D7000EE53F24F108285ED8093BC008091BC0031
:102D800084FDFCCF1092760D6091E20DE0917C0DF8
:102D9000F0917D0D82EC9DE070E019951092E20DAE
:102DA0002DC084E08093760D1092C00D1092C10D5D
:102DB000E0917A0DF0917B0D19958091C10D8823DA
:102DC00029F481E08093C10D1092A00D9091C00D67
:102DD000E92FF0E0E056F24F80818093BB009F5FC7
:102DE0009093C00D9091C00D8091C10D981710F473
:102DF00085EC01C085E88093BC000FC085EC809312
:102E0000BC0009C01092E30D85ED8093BC00809159
:102E1000BC0084FDFCCF1092760DFF91EF91BF9125
:102E2000AF919F918F917F916F915F914F913F9162
:102E30002F910F900BBE0F900FBE0F901F90189503
:102E40001092760D81E08093780D1092790D84E1D7
:102E500061E00E94303B85E161E00E94303BE9EB9C
:102E6000F0E080818E7F808380818D7F808388E405
:102E70008093B80085E48093BC000895882319F4FA
:102E80008CB5806202C08CB58F7D8CBD08959CB5D9
:102E9000937F982B9CBD08952CB5382F33702C7FD1
:102EA000322B3CBD2DB590E09595879595958795EE
:102EB00081702E7F822B8DBD089585E361E00E9495
:102EC000303B85E361E00E947D3A8CB580618CBD2A
:102ED0008CB580648CBD84E361E00E947D3A83E31D
:102EE00061E00E947D3A0895FC011382128288EE0F
:102EF00093E0A0E0B0E084839583A683B7838BEE54
:102F00009AE091838083128E118E14860895FC01BD
:102F10008BEE9AE0918380830895DF93CF930F9295
:102F2000CDB7DEB7FC016983A081B18112962D91E6
:102F30003C911397BE016F5F7F4F41E050E0F90174
:102F400019950F90CF91DF910895DC015996ED917D
:102F5000FC915A97309719F420E030E018C023898B
:102F600034894589568982859385A485B585281B32
:102F7000390B4A0B5B0B2030B0E83B07B0E04B0746
:102F8000B0E05B0720F02FEF3FE740E050E0C901E1
:102F90000895DC015996ED91FC915A97309711F400
:102FA00080E008958581811181E00895CF93DF93BA
:102FB000EC01898D9A8D009741F00E947E20898DC9
:102FC0009A8D0E94723C1A8E198EDF91CF910895CE
:102FD000FC01818D928D009711F00E94342008959C
:102FE000FC01818D928D009719F420E030E003C040
:102FF0000E9455219C01C9010895DF93CF930F9240
:10300000CDB7DEB7FC01818D928D009749F0BE01EE
:103010006F5F7F4F41E050E00E945521019719F00A
:103020002FEF3FEF03C08981282F30E0C9010F90B7
:10303000CF91DF910895EF92FF920F931F93DF934B
:10304000CF930F92CDB7DEB77C01DC0159968D91FD
:103050009C915A97009719F400E010E01FC0BE0140
:103060006F5F7F4F41E050E00E945521019719F0BA
:103070000FEF1FEF13C08981082F10E0D701599679
:10308000ED91FC915A974285538564857585415031
:10309000504060407040CF010E946E1FC8010F90E9
:1030A000CF91DF911F910F91FF90EF900895CF93F3
:1030B000DF93EC01E98DFA8D309761F01382128273
:1030C000CF010E949A239C01E98DFA8D8281938120
:1030D000892B31F081E090E09B838A8320E030E00F
:1030E000C901DF91CF910895EF92FF920F931F9343
:1030F000CF93DF93EC01F62EE72E8A011B821A8212
:1031000088EE93E0A0E0B0E08C839D83AE83BF8324
:103110008BEE9AE0998388838DE190E00E94D53B05
:103120009A8F898F009791F0DC018F2D9E2D9C0145
:10313000F9018DE101900D928150E1F7CE010C96DD
:10314000B8014CE050E00E942202188EDF91CF912E
:103150001F910F91FF90EF9008951092E90D10923A
:10316000EA0D1092ED0D1092EF0D82E090E0A0E0DC
:10317000B0E08093F10D9093F20DA093F30DB09316
:10318000F40D1092080E1092120E1092110E8BEF89
:103190009AE09093100E80930F0E1092140E0895E3
:1031A0008B960E947E2008952F923F924F925F92BD
:1031B0006F927F928F929F92AF92BF92CF92DF9247
:1031C000EF92FF920F931F93DF93CF93CDB7DEB7AC
:1031D000C754D0400FB6F894DEBF0FBECDBF582EF7
:1031E000492EFB013A01190185A596A5998B888B7B
:1031F0002BEF3AE03F872E8787A58A8B80A98B8BA0
:1032000081A992A9A3A9B4A98C8B9D8BAE8BBF8BEE
:1032100085A996A9A7A9B0AD888F998FAA8FBB8FD2
:1032200081AD92ADA3ADB4AD8C8F9D8FAE8FBF8FAE
:1032300085AD88A3FE9681919191A191B19189A3C9
:103240009AA3ABA3BCA381919191A191B1918DA3BC
:103250009EA3AFA3B8A7808191819AA789A71EA634
:103260001DA63CA72BA718AA7A018E01025F1F4F4B
:103270003BE2A32EB12CAC0EBD1E4E010894811C66
:10328000911C35C0D7018C918F3221F40894E11C38
:10329000F11C2DC0422F4E194D3008F04CE0C42EC9
:1032A000DD24C401B701A6010E942202F401EC0D45
:1032B000FD1D1082C5010E947E20C501B801A40138
:1032C00021E00E94C625882351F4E52DF42D1382B8
:1032D00012828BEF9AE091838083158266C0EC0C9A
:1032E000FD1CC8010E947E20C50158018C01C70148
:1032F0006FE270E00E9417029C01009719F6E61831
:10330000F708F101F182E082E52DF42DD801129643
:103310008D919C911397938382838BEF9AE0918395
:10332000808314968C911497848315968C911597AD
:10333000858316962D913D914D915C911997268329
:103340003783408751871A962D913D914D915C911D
:103350001D9722873387448755871E962D913D916F
:103360004D915C91519726873787408B518B5296B0
:103370008C915297828B53962D913D914D915C91FA
:103380005697238B348B458B568B57962D913D91B9
:103390004D915C915A97278B308F418F528F5B965E
:1033A0008D919C915C97948F838F852D942DC95B13
:1033B000DF4F0FB6F894DEBF0FBECDBFCF91DF91C8
:1033C0001F910F91FF90EF90DF90CF90BF90AF9043
:1033D0009F908F907F906F905F904F903F902F9035
:1033E00008959F92AF92BF92CF92DF92EF92FF9299
:1033F0000F931F93DF93CF93CDB7DEB7C657D0405F
:103400000FB6F894DEBF0FBECDBFC82E992E8A012D
:10341000D22E43E0A42EB12CAC0EBD1EC501A801D6
:103420009E012F5F3F4F0E94D418E980FA80E00E82
:10343000F11EF70180814BEF5AE02885882309F0BF
:103440003FC08D819E819BA38AA359A348A38F81EE
:103450008CA32DA389859A85AB85BC858EA39FA35C
:10346000A8A7B9A78D859E85AF85B8898AA79BA790
:10347000ACA7BDA789899A89AB89BC898EA79FA76C
:10348000A8ABB9AB8D898AAB8E899F89A88DB98D80
:103490008BAB9CABADABBEAB8A8D9B8DAC8DBD8D2C
:1034A0008FAB98AFA9AFBAAF8E8D9F8D9CAF8BAF0E
:1034B0008C2D992DBE01605E7F4F4AEB5AE09FC074
:1034C000FE01FF96118210825EAF4DAFFE01EE5BF2
:1034D000FF4F10822223A9F02250CE01CD96223038
:1034E00048F46FE07EE0A7012D2D0E94C6258823B9
:1034F00081F407C0B501A7012D2D0E94C6258823A0
:1035000029F48C2D992D0E9474177BC0C5010E944F
:103510007E20F6E0DF2259F0FE01E05BFF4F4081A4
:10352000518162817381CE01CD960E946E1F9E01F2
:10353000265A3F4FFE01FF9680819181F9019383C6
:1035400082838BEF9AE091838083FE01EF5BFF4FD4
:103550008081F9018483FE01EE5BFF4F8081F901D8
:103560008583FE01ED5BFF4F80819181A281B38154
:10357000F90186839783A087B187FE01E95BFF4F3E
:1035800080819181A281B381F90182879387A48789
:10359000B587FE01E55BFF4F80819181A281B381F8
:1035A000F90186879787A08BB18BFE01E15BFF4F06
:1035B0008081F901828BFE01E05BFF4F8081918168
:1035C000A281B381F901838B948BA58BB68BFE010D
:1035D000EC5AFF4F80819181A281B381F901878BE1
:1035E000908FA18FB28FFE01E85AFF4F80819181A9
:1035F000F901948F838F8C2D992DB901A7010E9419
:1036000074188C2D992DCA58DF4F0FB6F894DEBF71
:103610000FBECDBFCF91DF911F910F91FF90EF9023
:10362000DF90CF90BF90AF909F900895EF920F934F
:103630001F93CF93DF93EC01362F542F722FE02E80
:1036400061E0432F252F072F0E94091E8823D1F008
:103650008E01035F1F4FC801BE0141E00E94672732
:10366000882339F4C801BE0140E00E9467278823FF
:1036700049F0CE018B96B8010E94B422882319F03C
:1036800081E001C080E0DF91CF911F910F91EF9019
:103690000895382F80912E0E8F3F31F43EBD0DB42A
:1036A00007FEFDCF8EB50895F894A0912F0EB0912E
:1036B000300E5091310E252F2095E091320EF09171
:1036C000330E4091340E642F609590E08C918223EC
:1036D0008C9337FF03C08081842B02C080818623B6
:1036E00080838C91852B8C939F5F983011F0330FE2
:1036F000EDCF00000000000000008C9128232C93E7
:103700007894089580912E0E8F3F31F48EBD0DB4C4
:1037100007FEFDCF2EB530C0F894E091320EF09147
:10372000330E80819091340E892B8083E0912F0E8F
:10373000F091300E6091310EA091350EB091360EA1
:103740008091370E482F50E0762F709530E020E0C2
:103750008081862B8083220F8C9190E08423952397
:10376000892B09F02160808187238083000000007D
:103770003F5F383069F77894822F08950F931F9335
:10378000CF93DF938B010E949B39EB010E94821B38
:103790008F3F11F481E008C00E949B396C1B7D0BA8
:1037A0006017710798F380E0DF91CF911F910F911F
:1037B0000895FC01673020F086E1858380E008955C
:1037C0006330B9F0643028F4613069F0623070F42D
:1037D00007C06530A1F0653078F06630A9F412C0FA
:1037E00084E090E011C080E090E00EC085E090E0C1
:1037F0000BC081E090E008C086E090E005C082E068
:1038000090E002C083E090E00E944C1781E00895B0
:10381000FC01848160E00E94303B0895FC018481BA
:1038200061E00E94303B0895CF92DF92EF92FF92C9
:103830000F931F93CF93DF937C016A01FC01848572
:10384000882319F40FEF1FEF30C000E010E040E0D4
:1038500050E0212F332727FD3A95F601E40FF51F9D
:10386000808190E0282739273070C901F4E09595D0
:103870008795FA95E1F782279327102F00270827CD
:1038800019279C01322F22273295307F02271327D8
:1038900025E0880F991F2A95E1F7082719274F5F20
:1038A0005F4FF2E040305F07A1F6862F0E94491B70
:1038B000C0E0D0E0F601EC0FFD1F80810E94491BA3
:1038C000219682E0C030D807A9F7812F992787FD7C
:1038D0009A950E94491B802F0E94491B0E94821BBF
:1038E000F70182878F71853011F481E007C081E193
:1038F000F7018583C7010E940E1C80E0DF91CF9104
:103900001F910F91FF90EF90DF90CF9008950F934C
:103910001F93CF93DF93EC010E949B398B0109C069
:103920000E949B39601B710B6D52714010F08FE04B
:103930000AC00E94821B8A878F3F91F38E3F11F449
:1039400081E006C08DE08D83CE010E940E1C80E0D8
:10395000DF91CF911F910F910895CF93DF93EC01E9
:103960008E81882319F40FC00E94821B8F81988555
:10397000019698878F83019782509240A8F3CE01D9
:103980000E940E1C1E82DF91CF910895DF92EF926C
:10399000FF920F931F93CF93DF93EC01D62E790103
:1039A0008A010E94AD1CCE010E94081CCE016CE26F
:1039B00071E00E94BE1B8D2D80640E94491B812FE7
:1039C0009927AA27BB270E94491BC801AA27BB2702
:1039D0000E94491BBB27A12F902F8F2D0E94491BAE
:1039E0008E2D0E94491BDD2011F485E906C088E078
:1039F000D81611F487E801C08FEF0E94491B10E030
:103A00000E94821B8A8787FF02C01150C9F7DF918D
:103A1000CF911F910F91FF90EF90DF900895CF927B
:103A2000DF92EF92FF920F931F93CF93DF93EC01FE
:103A30007A018B016901411551056105710511F488
:103A400082E133C08B85833039F039E0EE0CFF1C06
:103A5000001F111F3A95D1F7CE0168E1A801970127
:103A60000E94C61C882311F084E01FC0CE016EEFB7
:103A7000A6010E94141C8823C9F0CE0168E572E0FB
:103A80000E94BE1B882311F485E10FC0CE016DE0BA
:103A900020E030E040E050E00E94C61C882321F482
:103AA0000E94821B882379F084E18D83CE010E94DD
:103AB0000E1C80E0DF91CF911F910F91FF90EF904E
:103AC000DF90CF900895CE010E940E1C81E0F2CFCE
:103AD0006F927F928F929F92AF92BF92CF92DF921E
:103AE000EF92FF920F931F93CF93DF93EC015A0154
:103AF0006B01390148010115110509F46AC0C801BB
:103B0000820F931F8150924008F05EC08E818823FF
:103B100071F088819981AA81BB81481759076A078A
:103B20007B0729F48F8198856816790650F5A8825D
:103B3000B982CA82DB828B85833039F0E9E0AA0C36
:103B4000BB1CCC1CDD1CEA95D1F7CE0161E1A601BE
:103B500095010E94C61C882319F083E08D8334C030
:103B6000CE010E94871C882379F118861F8281E08C
:103B70008E8307C00E94821B8F819885019698874B
:103B80008F838F81988586159705A0F300E010E05C
:103B900008C00E94821BF701E00FF11F80830F5FB6
:103BA0001F4F08151905A8F32F813885280D391DD9
:103BB00038872F838985882319F02050324048F0B8
:103BC000CE010E94AD1C05C0CE010E940E1C80E0FB
:103BD00001C081E0DF91CF911F910F91FF90EF9095
:103BE000DF90CF90BF90AF909F908F907F906F901D
:103BF0000895EF92FF920F931F93790120E030E038
:103C000000E012E00E94681D1F910F91FF90EF905D
:103C10000895BF92CF92DF92EF92FF920F931F937E
:103C2000CF93DF93EC01B62E1E2D1B8619861E82C4
:103C30001D821C864C832093380E0093390EE0922F
:103C40002E0E0E949B396B018C8161E00E947D3AAF
:103C5000CE010E940E1C1F3F09F462C08091390EF4
:103C600060E00E947D3A8091380E61E00E947D3ACA
:103C700080912E0E61E00E947D3AE0912E0E2E2F53
:103C8000332727FD3095F901E95EFD4FE491F0E01F
:103C9000EE0FFF1FED51FE4F859194919093300EE2
:103CA00080932F0E235A3D4FF90184918093310E5A
:103CB000E091380E2E2F332727FD3095F901E95E6C
:103CC000FD4FE491F0E0EE0FFF1FED51FE4F8591A7
:103CD00094919093330E8093320E235A3D4FF90105
:103CE00084918093340EE091390E2E2F332727FDD7
:103CF0003095F901E95EFD4FE491F0E0EE0FFF1F12
:103D0000E350FE4F859194919093360E8093350E3B
:103D1000235A3D4FF90184918093370E10E006C07D
:103D20000E945D1783E00E944C17F8CF8FEF0E942E
:103D3000491B1F5F1A30D1F7CE010E94081C09C031
:103D40000E949B396C197D09615D774010F081E01C
:103D50005AC0CE0160E020E030E040E050E00E9438
:103D6000C61C182F8A87813059F7CE0168E02AEAED
:103D700031E040E050E00E94C61C82FF02C01B8779
:103D80000DC010E00E94821B8A871F5F1430D1F79C
:103D90008A3A11F082E037C082E08B878B858230CF
:103DA00021F0EE24FF2487010FC0E12CF12C012D1E
:103DB000F0E41F2F09C00E949B396C197D09615DD9
:103DC000774010F088E01FC0CE0167E320E030E0CC
:103DD00040E050E00E94C61CCE0169E2A8019701B4
:103DE0000E94C61C8A87882331F78B858230F1F4C4
:103DF000CE016AE320E030E040E050E00E94C61CC3
:103E0000882339F086E08D83CE010E940E1C80E06D
:103E10001AC00E94821B807C803C11F483E08B8757
:103E20000E94821B0E94821B0E94821BCE010E9464
:103E30000E1C80912E0E8F3F11F081E004C0CE0148
:103E40006B2D0E94D91BDF91CF911F910F91FF9095
:103E5000EF90DF90CF90BF900895CF93DF93EC0168
:103E6000DB0180E090E020E2FD01E80FF91F2083F4
:103E700001968B309105C1F757E040E021C02E320A
:103E800019F08DEA91E007C05A3019F15AE048E084
:103E900017C03217F1F0FC01019634913323C9F7B2
:103EA0005417B8F02132A8F02F3798F4822F81569A
:103EB0008A3108F42052FD01E40FF11D20834F5F89
:103EC00029912223E1F690E08C91803219F091E063
:103ED00001C090E0892FDF91CF9108956F927F927A
:103EE0008F929F92AF92BF92CF92DF92EF92FF920A
:103EF0000F931F93CF93DF93EC017A018B012D81F8
:103F0000222309F480C08B899C89AD89BE898417DE
:103F10009507A607B70708F476C085C0E114F10439
:103F20000105110549F41E821F82188619861A861A
:103F30001B861C861D8665C02A853B854C855D8554
:103F4000EB8DFC8D858590E00996215030404040F6
:103F5000504039014A01082E04C096948794779402
:103F600067940A94D2F72F5F3F4F4F4F5F4F0894EB
:103F7000E108F108010911095701680104C0D6944C
:103F8000C794B794A7948A95D2F70894E11CF11CC2
:103F9000011D111DA614B704C804D90428F0211569
:103FA00031054105510549F48F89988DA98DBA8D48
:103FB0008E839F83A887B98716C0A618B708C8083C
:103FC000D90811C04E815F81688579858B8D9C8D64
:103FD00094010E9448290894A108B108C108D10899
:103FE000882331F410C086E0882E912C8C0E9D1E03
:103FF000A114B104C104D10429F7EA86FB860C8719
:104000001D8781E001C080E0DF91CF911F910F916A
:10401000FF90EF90DF90CF90BF90AF909F908F90E8
:104020007F906F900895223009F078CFE6CFCF933C
:10403000DF93EC01462F6E857F85888999890E94E0
:104040002C27882319F420E030E00AC08A89282F21
:1040500030E095E0220F331F9A95E1F7245C314F51
:10406000C901DF91CF9108950F931F93CF93DF93F1
:104070008C01FC0185818823D9F1848187FF35C0BB
:10408000C80161E00E941720EC01009789F1F80156
:104090008581823040F483899489A589B6898C8F83
:1040A0009D8FAE8FBF8FF8018789908D9B8F8A8FF0
:1040B0008789908DA18DB28DCD01AA27BB279D8BBD
:1040C0008C8BE0913A0EF0913B0E309751F0BE018F
:1040D0006A5E7F4FCE0148961995888D998D9B8B8E
:1040E0008A8BF80184818F7784830E94CD2601C05A
:1040F00080E0DF91CF911F910F910895CF93DF93CF
:10410000EC010E943420882311F01D8281E0DF91B0
:10411000CF9108956F927F928F929F92AF92BF92AC
:10412000CF92DF92EF92FF920F931F93DF93CF9383
:1041300000D00F92CDB7DEB77C015A016B01DC01D4
:1041400015968C911597813009F08FC014968C913B
:1041500081FF8BC09EC00097A105B10511F481E0DD
:1041600085C0F7016284738484849584C701B60195
:10417000A5010E946E1F882309F477C0D7015B96C2
:104180008D919C915C97A114B104C104D10489F470
:1041900057964D915D916D917C915A970E94BB29E4
:1041A000882309F462C0F701178A108E118E128ECF
:1041B0003DC0D70116964D915D916D917C911997F7
:1041C0009E012F5F3F4F0E944829882309F44DC06C
:1041D000D7015B96ED91FC915C9749815A816B8187
:1041E0007C818789803129F088EF9FEFAFEFBFE0B6
:1041F00004C088EF9FEFA0E0B0E0481759076A07B6
:104200007B07A0F4CF010E94BB29882371F1F7013D
:104210004681578160857185838D948D0FEF1FEFE7
:104220002FEF3FE00E94AC288823F9F0D701539686
:10423000AD92BD92CD92DC92569714968C911497C4
:10424000806814968C93C7010E943420882369F0FB
:10425000B601A5016A147B048C049D0410F4B4011A
:10426000A301C7010E946E1F01C080E00F900F9054
:104270000F900F90CF91DF911F910F91FF90EF90D2
:10428000DF90CF90BF90AF909F908F907F906F9076
:104290000895F70183899489A589B68984179507BC
:1042A000A607B70708F057CFE0CF2F923F924F9263
:1042B0005F926F927F928F929F92AF92BF92CF92B6
:1042C000DF92EF92FF920F931F93CF93DF93EC0156
:1042D0002A018D81882309F4C6C08C8180FFC3C068
:1042E000D8C025014E185F084B0176E0272E312CEF
:1042F0002C0E3D1E3201B1C02A853B854C855D8563
:104300006FEFA62E61E0B62EA222B3228D81790135
:104310008A0199E016950795F794E7949A95D1F755
:10432000EB8DFC8D823049F4428D538D648D758DFB
:104330004E0D5F1D601F711F3FC0D480DA94DE20D8
:10434000A114B104D9F4DD20C9F4211531054105CA
:10435000510549F48F89988DA98DBA8D8E839F83DD
:10436000A887B9870BC04E815F8168857985CF01A9
:1043700091010E944829882309F475C0EB8DFC8DBA
:104380004E815F8168857985425050406040704021
:10439000058404C0440F551F661F771F0A94D2F787
:1043A00086859785A089B189480F591F6A1F7B1F91
:1043B0004D0D511D611D711D80E092E08A199B0910
:1043C00063018615970508F46C018C8186FD06C093
:1043D00080E0C81682E0D80609F073C08091CD0A4B
:1043E0009091CE0AA091CF0AB091D00A48175907F0
:1043F0006A077B0709F465C080913C1090913D10DD
:104400009501860174010E94681D882361F18C0C5E
:104410009D1C12C09501245C314FA9014C0D5D1DFE
:10442000D401F90102C081918D93E417F507D9F702
:10443000E21BF30B8E0E9F1E960140E050E08A8532
:104440009B85AC85BD85820F931FA41FB51F8A87EE
:104450009B87AC87BD876C187D086114710409F0D7
:104460004BCFA20102C04FEF5FEFCA01DF91CF91A6
:104470001F910F91FF90EF90DF90CF90BF90AF9082
:104480009F908F907F906F905F904F903F902F9074
:104490000895AB88BC88CD88DE88EA84FB840C85CF
:1044A0001D859A0140E050E0D601C5018E199F0993
:1044B000A00BB10B82179307A407B50708F411CF1F
:1044C00013CFCB01BA0140E00E942C27882309F0CA
:1044D000A1CFC9CFCF92DF92EF92FF920F931F939C
:1044E000DF93CF930F92CDB7DEB76C01FC018581CE
:1044F000823070F0E284F38404851585C601BE0124
:104500006F5F7F4F41E050E00E945521019769F0B5
:1045100020E030E0C9010F90CF91DF911F910F9102
:10452000FF90EF90DF90CF900895F60182859385FC
:10453000A485B5854F96A11DB11D82879387A48759
:10454000B587F5E016950795F794E794FA95D1F7B6
:104550008E2D8F70282F30E0E5E0220F331FEA9573
:10456000E1F7245C314FD6CF0F931F93CF93DF93A6
:10457000EC018B018D81882309F041C0FB01878903
:104580008031B1F482E08D831F8A188E198E1A8EC5
:10459000808D918DA0E0B0E045E0880F991FAA1FA3
:1045A000BB1F4A95D1F78B8B9C8BAD8BBE8B15C0F7
:1045B000803229F583E08D83FB01428D538D648D1C
:1045C000758D4F8B588F698F7A8F9E012D5E3F4F6F
:1045D000C8010E94142A882391F01C8F0B8F81E060
:1045E0008C831E821F82188619861A861B861C865B
:1045F0001D861E861F86188A198A1A8A01C080E0C5
:10460000DF91CF911F910F9108951F93CF93DF9367
:10461000EC01142FE62FF0E075E0EE0FFF1F7A9506
:10462000E1F7E45CF14F8385817121F0842F82747E
:1046300009F054C06A8B8091CD0A9091CE0AA09166
:10464000CF0AB091D00A8E879F87A88BB98B8489B7
:104650009589A0E0B0E0BC0155274427828D938D59
:10466000A0E0B0E0482B592B6A2B7B2B4F8B588F47
:10467000698F7A8F838590E088719070009751F4EC
:10468000848D958DA68DB78D8B8B9C8BAD8BBE8BC2
:1046900081E00CC0409711F59E012D5E3F4F8B8D40
:1046A0009C8D0E94142A8823C9F084E08D83812F79
:1046B0008F708C831E821F82188619861A861B862D
:1046C0001C861D8616FD02C081E009C0CE0140E0B7
:1046D00050E060E070E00E948A2001C080E0DF913D
:1046E000CF911F910895CF93DF93EC019C012A5F36
:1046F0003F4F8B8D9C8D41E050E060E070E00E9468
:10470000832A8823A1F08F89988DA98DBA8D00976F
:10471000A105B10559F48E819F81A885B9858F8B3C
:10472000988FA98FBA8F8C8180688C8381E0DF910C
:10473000CF9108952F923F924F925F927F928F92E6
:104740009F92AF92BF92CF92DF92EF92FF920F9320
:104750001F93DF93CF9300D000D0CDB7DEB76C01AD
:10476000162F072F5E834D83DC0115968C911597CC
:10477000813009F070C114968C9181FF6CC18EC19B
:10478000F601438954896589768982859385A48554
:10479000B58584179507A607B70731F0C6010E94B3
:1047A0006E1F882309F457C1812F902F9C01290186
:1047B0002D803E8017C1D6015B96ED91FC915C97F0
:1047C000DA01C90119E0B695A795979587951A95CD
:1047D000D1F774807A9478227FEF872E71E0972E3C
:1047E00082229322772009F04EC08114910409F0AF
:1047F0004AC0D60116964D915D916D917C911997A5
:10480000411551056105710581F457968D919D9172
:104810000D90BC91A02D0097A105B10549F1F601BD
:1048200086839783A087B1872EC0CF019E012F5F1B
:104830003F4F0E944829882309F414C129813A81F5
:104840004B815C81D6015B96ED91FC915C978789E9
:10485000803129F088EF9FEFAFEFBFE004C088EF11
:104860009FEFA0E0B0E0281739074A075B0730F058
:10487000C6010E947323882331F4EDC0F60126831C
:1048800037834087518780E092E088199909510168
:104890008215930508F45C01D6015B96ED91FC91BD
:1048A0005C971696ED90FD900D911C9119978EEFE7
:1048B0009FEFAFEFBFEFE80EF91E0A1F1B1F058425
:1048C00004C0EE0CFF1C001F111F0A94D2F786854E
:1048D0009785A089B189E80EF91E0A1F1B1FE70CF6
:1048E000F11C011D111D90E0A91692E0B90651F5C9
:1048F0008091CD0A9091CE0AA091CF0AB091D00AB2
:104900008E159F05A007B10761F48FEF9FEFAFEF02
:10491000BFEF8093CD0A9093CE0AA093CF0AB093B5
:10492000D00A80913C1090913D10B801A7019201EE
:104930000E940F1D882309F48EC0A0E0B2E04A0E49
:104940005B1E3EC08114910409F5F6012285338572
:104950004485558583899489A589B689281739079F
:104960004A075B0798F00E94CD26882309F473C09C
:10497000E092CD0AF092CE0A0093CF0A1093D00AAB
:1049800080913E10816080933E1008C0C801B7013D
:1049900041E00E942C27882309F45DC09401245C27
:1049A000314FA9014A0D5B1DD201F90102C08D9161
:1049B0008193E417F507D9F7E21BF30B4E0E5F1E48
:1049C0002A183B08950140E050E0F6018285938566
:1049D000A485B585820F931FA41FB51F8287938777
:1049E000A487B587D6011A962D913D914D915C9182
:1049F0001D972114310409F0DECE53968D919D91BF
:104A00000D90BC91A02D82179307A407B50748F419
:104A1000F601238B348B458B568B8481806884838D
:104A200011C080913A0E90913B0E892B59F08D81E7
:104A30009E81892B39F0D60114968C911497806849
:104A400014968C93F601848183FF0EC0C6010E94E8
:104A50003420882349F481E090E0D60113969C939A
:104A60008E9312971E821D828D819E8126960FB68F
:104A7000F894DEBF0FBECDBFCF91DF911F910F9194
:104A8000FF90EF90DF90CF90BF90AF909F908F906E
:104A90007F905F904F903F902F90089582FD70CE51
:104AA00083CEDF93CF930F92CDB7DEB76983BE017C
:104AB0006F5F7F4F41E050E00E949A230F90CF91AB
:104AC000DF910895DF92EF92FF920F931F93CF93A0
:104AD000DF93EC010E947323882309F44EC0EB8D11
:104AE000FC8DEE80FF80088519858EEF9FEFAFEF7C
:104AF000BFEFE80EF91E0A1F1B1F058404C0EE0C51
:104B0000FF1C001F111F0A94D2F786859785A08984
:104B1000B189E80EF91E0A1F1B1FD4800894E10812
:104B2000F108010911090BC0C801B7016D0D711D14
:104B3000811D911D0E9408278823F9F0DA94DD2059
:104B400099F7EB8DFC8D20E032E040E050E00584E9
:104B500004C0220F331F441F551F0A94D2F78B89BC
:104B60009C89AD89BE89820F931FA41FB51F8B8BB3
:104B70009C8BAD8BBE8B81E001C080E0DF91CF913B
:104B80001F910F91FF90EF90DF9008956F927F92A9
:104B90008F929F92AF92BF92CF92DF92EF92FF924D
:104BA0000F931F93DF93CF93CDB7DEB72B970FB63D
:104BB000F894DEBF0FBECDBF5C016B01822EDC011D
:104BC00015968C91882309F0D2C0CA018E010F5F1F
:104BD0001F4FB8010E942D1F882309F4C8C0F60199
:104BE000838D948DD5015C969C938E935B971682F2
:104BF000178210861186D6011A961D921D921D925B
:104C00001C921D979924380141C0C6010E946A2256
:104C1000FC01009709F4ABC085E016950795F79461
:104C2000E7948A95D1F71E2D1F708081882311F09B
:104C3000853ED1F4992091F4D50152961C93529758
:104C40002091CD0A3091CE0A4091CF0A5091D00ADE
:104C50001E962D933D934D935C93519780818823AD
:104C600099F49924939421C0C301BF014BE050E013
:104C70000E940A02009751F4882D8073803309F452
:104C800076C0C501612F6FC099249394F601E28428
:104C9000F3840485158583899489A589B689E816E6
:104CA000F9060A071B0708F4B0CF882D82718231FC
:104CB00009F05DC0992041F0C50161E00E94172014
:104CC0008C01009789F453C0D60115968C918230DF
:104CD00009F44DC0C6010E946225882309F447C02B
:104CE000F501128A0CE31EE080E2D8011D928A953C
:104CF000E9F7D801FE0131968BE001900D928150C9
:104D0000E1F7E0913A0EF0913B0E309739F0B8019F
:104D1000625F7F4FC8014096199509C081E298E211
:104D2000F801918B808B80E098E097878687D80187
:104D300050968D919C91519753969C938E93529738
:104D400059969C938E9358971E968D919C911F9780
:104D500057969C938E9356970E94CD26882339F0C0
:104D6000C501F5016289482D0E94052301C080E03C
:104D70002B960FB6F894DEBF0FBECDBFCF91DF915B
:104D80001F910F91FF90EF90DF90CF90BF90AF9069
:104D90009F908F907F906F90089580913E10882310
:104DA00099F14091CD0A5091CE0A6091CF0A70914D
:104DB000D00A80913C1090913D102CE33EE00E947F
:104DC0000F1D882319F140913F10509140106091C0
:104DD000411070914210411551056105710591F026
:104DE00080913C1090913D102CE33EE00E940F1DFD
:104DF000882361F010923F101092401010924110E1
:104E00001092421010923E1081E0089580E00895C3
:104E1000EF92FF920F931F937B018C010E94CD268E
:104E20008823A9F0ECE3FEE0119280E1EC33F8076F
:104E3000D9F7E092CD0AF092CE0A0093CF0A1093F0
:104E4000D00A80913E10816080933E1081E01F91D6
:104E50000F91FF90EF900895DF92EF92FF920F93E2
:104E60001F937B018C01D42E8091CD0A9091CE0AA4
:104E7000A091CF0AB091D00A8E159F05A007B10767
:104E8000C1F00E94CD268823D9F080913C109091EA
:104E90003D10B801A7012CE33EE00E94F91D8823D4
:104EA00079F0E092CD0AF092CE0A0093CF0A1093E7
:104EB000D00A80913E108D2980933E1081E001C080
:104EC00080E01F910F91FF90EF90DF9008958F92F7
:104ED0009F92AF92BF92CF92DF92EF92FF920F9389
:104EE0001F93CF93DF936C01142F70933D10609349
:104EF0003C10442321F488249924540140C04530B7
:104F000008F01CC160E070E080E090E040E00E94AA
:104F10002C27882309F412C1C12FD0E02197FE016C
:104F200074E0EE0FFF1F7A95E1F7E45CF14FE25475
:104F3000FE4F8081EE5BF14090E08F779070892B7F
:104F400009F0FCC0E653FE4F80819181A281B381BC
:104F500084369105A105B10508F4F0C064E0CC0FDA
:104F6000DD1F6A95E1F7CE5FDF4E88809980AA80C9
:104F7000BB8081149104A104B10409F4DFC0C50110
:104F8000B40140E00E942C27882309F4D7C0809107
:104F9000470E9091480E8050924009F0CFC020916A
:104FA0004C0E222309F4CAC080914A0E90914B0EF8
:104FB000892B09F4C3C08091490E882309F4BEC02F
:104FC000F601228B8091490E8483158661E070E0A2
:104FD00007C04F5FF60145874150483008F0AEC02A
:104FE000F6014585848190E09B01042E02C0220FCA
:104FF000331F0A94E2F78217930759F72091520E54
:105000003091530E2115310519F040E050E008C0F1
:105010002091600E3091610E4091620E5091630EAE
:10502000F6012583368347835087E0904A0EF0903F
:105030004B0E00E010E0E80CF91C0A1D1B1DE38A72
:10504000F48A058B168B80914D0E90914E0E918FA8
:10505000808F60914C0E70E080E090E00E94CE4620
:105060006E0D7F1D801F911FF601628F738F848FDD
:10507000958F20914D0E30914E0E55E0220F331F2B
:105080005A95E1F721503E4F232F3327269540E0D4
:1050900050E0260F371F481F591F26873787408B40
:1050A000518B80914F0E9091500E009719F0A0E017
:1050B000B0E008C080915C0E90915D0EA0915E0EF4
:1050C000B0915F0E85017401E21AF30A040B150B0F
:1050D000A8019701280F391F4A1F5B1FF60105849D
:1050E00004C056954795379527950A94D2F721879E
:1050F000328743875487253FFFE03F07F0E04F07A3
:10510000F0E05F0710F48CE006C0255F3F4F4040A1
:10511000504028F480E1F601878B81E010C0809137
:10512000680E9091690EA0916A0EB0916B0EF60117
:10513000828F938FA48FB58F80E2EECF80E0DF91D6
:10514000CF911F910F91FF90EF90DF90CF90BF9084
:10515000AF909F908F9008954F925F926F927F9241
:105160008F929F92AF92BF92CF92DF92EF92FF9277
:105170000F931F93CF93DF93EC016A017B0128010A
:105180003901423051056105710508F46FC0898508
:105190009A85AB85BC850196A11DB11D8417950725
:1051A000A607B70708F462C02B893C894D895E8940
:1051B0008F89803129F499278F2D7E2D6D2D09C07F
:1051C000C701B60117E096958795779567951A956B
:1051D000D1F74B015C01820E931EA41EB51E809177
:1051E000CD0A9091CE0AA091CF0AB091D00A88162C
:1051F0009906AA06BB0639F0C501B40140E00E9439
:105200002C27882399F18F89803149F4F601F070B9
:10521000EE0FFF1FE45CF14F518240820DC0F6019A
:10522000EF77F070EE0FFF1FEE0FFF1FE45CF14F02
:10523000408251826282738280913E1081608093AD
:105240003E108A89823080F08D819E81AF81B88541
:10525000880E991EAA1EBB1E80923F10909240108D
:10526000A0924110B092421081E001C080E0DF9135
:10527000CF911F910F91FF90EF90DF90CF90BF9053
:10528000AF909F908F907F906F905F904F90089518
:10529000CF92DF92EF92FF920F931F93CF93DF9302
:1052A000EC017A018B01690189859A85AB85BC8502
:1052B0000196A11DB11D84179507A607B70708F42D
:1052C00050C02B893C894D895E898F89803129F4B2
:1052D0009927812F702F6F2D09C0C801B701E7E012
:1052E0009695879577956795EA95D1F7260F371F9D
:1052F000481F591F8091CD0A9091CE0AA091CF0AE4
:10530000B091D00A281739074A075B0739F0CA015C
:10531000B90140E00E942C27882319F18F89803140
:1053200059F4F701F070EE0FFF1FE45CF14F80813C
:105330009181A0E0B0E00EC0F701EF77F070EE0FC2
:10534000FF1FEE0FFF1FE45CF14F80819181A2816E
:10535000B381BF70F60180839183A283B38381E020
:1053600001C080E0DF91CF911F910F91FF90EF90EE
:10537000DF90CF900895AF92BF92CF92DF92EF92DD
:10538000FF920F931F93DF93CF9300D00F92CDB76F
:10539000DEB76C017A018B0182E090E0A0E0B0E022
:1053A000F60180839183A283B3835E010894A11CDC
:1053B000B11CC601B801A70195010E9448298823A4
:1053C00019F1C601B801A70100E010E020E030E0CB
:1053D0000E94AC288823C1F0E980FA800B811C81EF
:1053E000F6018789803129F088EF9FEFAFEFBFE0AA
:1053F00004C088EF9FEFA0E0B0E0E816F9060A07C6
:105400001B07B8F281E001C080E00F900F900F9071
:105410000F90CF91DF911F910F91FF90EF90DF9050
:10542000CF90BF90AF9008954F925F926F927F920E
:105430008F929F92AF92BF92CF92DF92EF92FF92A4
:105440000F931F93DF93CF9300D00F92CDB7DEB7AA
:105450006C0149835A836B837C833901EE24FF24DA
:1054600087012E010894411C511C812CA2E09A2E28
:10547000A12CB12C49815A816B817C81C60192019A
:105480000E944829882351F1D501C401F601058401
:1054900004C0880F991FAA1FBB1F0A94D2F7E80EF9
:1054A000F91E0A1F1B1F29813A814B815C81878964
:1054B000803129F088EF9FEFAFEFBFE004C088EFA5
:1054C0009FEFA0E0B0E0281739074A075B0790F28A
:1054D000F301E082F1820283138381E00F900F9049
:1054E0000F900F90CF91DF911F910F91FF90EF9050
:1054F000DF90CF90BF90AF909F908F907F906F90F4
:105500005F904F9008952F923F924F925F926F92CB
:105510007F928F929F92AF92BF92CF92DF92EF9243
:10552000FF920F931F93DF93CF93CDB7DEB72F97E3
:105530000FB6F894DEBF0FBECDBF1C014A875B8754
:105540006C877D873F872E87D9010D911D912D9105
:105550003C91011511052105310549F0480159011A
:105560000894811C911CA11CB11C198610C0FC015F
:1055700080809180A280B38019868A859B85AC85C6
:10558000BD850197A105B10511F491E09987D1017D
:1055900019968D919D910D90BC91A02D0196A11D04
:1055A000B11D8D839E83AF83B88775016401442448
:1055B000552432018E010F5F1F4FF10181859285C5
:1055C000A385B485481659066A067B0608F090C084
:1055D0008D819E81AF81B8858C159D05AE05BF0577
:1055E00050F482E0882E912CA12CB12CB2E0CB2E6D
:1055F000D12CE12CF12CC101B701A60198010E9428
:105600004829882309F474C089819A81AB81BC81BF
:10561000A70196012F5F3F4F4F4F5F4F0097A105A6
:10562000B10519F049015A010DC0281939094A0973
:105630005B098A859B85AC85BD85281739074A0794
:105640005B0759F00894411C511C611C711C0894A3
:10565000C11CD11CE11CF11CB0CFC101A601B701D6
:105660000FEF1FEF2FEF3FE00E94AC28882399F443
:105670003FC02601370108944108510861087108AC
:10568000C101B301A201970186010E94AC288823C1
:1056900079F1730162018C149D04AE04BF0448F3D8
:1056A000AE85BF854D915D916D917C914115510500
:1056B0006105710539F0C101950184010E94AC2892
:1056C0008823B1F0EE85FF8580829182A282B38229
:1056D000F985FF2359F00894811C911CA11CB11C71
:1056E000D1018D929D92AD92BC92139781E001C041
:1056F00080E02F960FB6F894DEBF0FBECDBFCF91DE
:10570000DF911F910F91FF90EF90DF90CF90BF90AE
:10571000AF909F908F907F906F905F904F903F9051
:105720002F900895DC0187E0A03DB80710F0A05D40
:10573000B74050E02DEB31E091E007C0F9018491D2
:10574000480F511D9F5F2F5F3F4F9617B8F363308F
:1057500038F0CD0183709070892B11F44F5F5F4F4B
:105760008DE691E0A89F9001A99F300DB89F300D64
:105770001124215030401396B695A795B695A7955C
:105780002A0F3B1F240F351FC9010895CF92EF92B6
:105790000F93FC0187E0603D780710F0605D774073
:1057A00060834D3008F04CE04183203208F02FE157
:1057B0002283083108F007E103838E2D8D3308F032
:1057C0008CE384838C2D8D3308F08CE385830F91DB
:1057D000EF90CF900895CF93DF93FC01DB01EB01B5
:1057E000299619968C91199780538A3008F080E099
:1057F000298120533AE0839FC0011124280F208380
:105800008C918A34A9F08B343CF48434D9F18634F9
:10581000F9F08134C9F51EC08E3491F18F341CF437
:105820008D3491F520C08F3449F1833569F524C05A
:1058300011968C911197813611F481E024C0129653
:105840008C9112978E3611F486E01DC087E01BC044
:1058500082E019C012968C911297823711F088E07D
:1058600012C084E010C012968C911297823711F00A
:1058700085E009C083E007C089E005C0318304C02A
:105880008BE001C08CE08183ED01249614966C912D
:1058900060536A3008F060E0298120538AE0689FF5
:1058A000C0011124280F2283DA019C9190539A3071
:1058B00008F090E0EA01298120538AE0989FC00116
:1058C0001124280F2383DA0113969B8190539A3079
:1058D00008F090E011962C9120538AE0989FC00127
:1058E0001124280F2483DA011696EA014E814053D1
:1058F0004A3008F040E011962C9120538AE0489FEE
:10590000C0011124280F2583DF91CF9108950F93B3
:105910001F938C01FC01808190E0618142810E9493
:10592000922BA0E0B0E0BC01CD0128E130E040E0E6
:1059300050E00E94CE46F8012381620F711D811D47
:10594000911D2CE330E040E050E00E94CE46F8018B
:105950002481620F711D811D911D2CE330E040E018
:1059600050E00E94CE469B01AC01F8018581280FD2
:10597000311D411D511D20583C4B4249574CB90126
:10598000CA011F910F910895282F30E094E03595BA
:1059900027959A95E1F74AEF5FEFB901649F90016F
:1059A000659F300D749F300D1124820F0895282FAC
:1059B0006AE00E94ED4696E0899FC0011124820FA3
:1059C000089581E00895AF92BF92CF92EF92FF9237
:1059D0000F931F93DF93CF93CDB7DEB72C970FB6FE
:1059E000F894DEBF0FBECDBF8AE69DE068E670E0AA
:1059F0000E94ED138AE69DE060E00E946F148AE643
:105A00009DE00E94B2148AE69DE068E670E047E0FF
:105A100050E00E94C3148AE69DE00E9400148F7734
:105A20000E94C42CC82E8AE69DE00E9400140E94A9
:105A3000C42CE82E8AE69DE00E9400140E94C42C2B
:105A4000082F8AE69DE00E9400148AE69DE00E94ED
:105A500000140E94C42CF82E8AE69DE00E940014D7
:105A60000E94C42C182F8AE69DE00E9400140E9418
:105A7000C42C682F70E06053784F5E010894A11C1D
:105A8000B11CC501412F2F2D0E94C62BDE01179698
:105A9000F50186E001900D928150E1F72F81388564
:105AA00049855A856B857C8590E02C960FB6F894D5
:105AB000DEBF0FBECDBFCF91DF911F910F91FF9041
:105AC000EF90CF90BF90AF900895EF92FF920F9319
:105AD0001F937C010AE61DE0C80168E670E00E94A1
