:100000000C947A010C94B3380C94E4380C941539A0
:100010000C9446390C9477390C94A8390C94D9393E
:100020000C940A3A0C94A7010C94A7010C94A70114
:100030000C94A7010C94A7010C94A7010C94A701A0
:100040000C94A7010C94A7010C94A7010C94A70190
:100050000C94A7010C94F8330C94A7010C943B3A30
:100060000C94A7010C94F33D0C941F3F0C94A70132
:100070000C94A7010C94A7010C94A7010C94A70160
:100080000C94A7010C94A7010C94A7010C94A70150
:100090000C942F3E0C94533F0C94A7010C947316B0
:1000A0000C94A7010C94A7010C94A7010C94A70130
:1000B0000C94A7010C94A7010C94A7010C94A70120
:1000C0000C94A7010C94A7010C94A7010C946B3E0F
:1000D0000C94873F0C94A7010C94A73E0C94BB3F53
:1000E0000C94A70107634236B79BD8A71A39685604
:1000F00018AEBAAB558C1D3CB7CC5763BD6DEDFD4A
:10010000753EF6177231BF000000803F0800000006
:10011000BE922449123EABAAAA2ABECDCCCC4C3EFC
:1001200000000080BEABAAAAAA3E00000000BF00EB
:100130000000803F0000000000084178D3BB4387E7
:10014000D1133D190E3CC3BD4282AD2B3E68EC82FB
:1001500076BED98FE1A93E4C80EFFFBE01C4FF7F80
:100160003F000000000056533130353320666F7574
:100170006E6400436F756C646E27742066696E64EC
:10018000205653313035332C20646F20796F752021
:10019000686176652074686520726967687420708C
:1001A000696E7320646566696E65643F007C3C3EE1
:1001B0005E2B3D3F2F5B5D3B2C2A225C001F1C1FEA
:1001C0001E1F1E1F1F1E1F1E1F00002100240027B0
:1001D000002A002D00300033000101000004010757
:1001E000010A0100002200250028002B002E00310A
:1001F00000340002010000050108010B010000208D
:10020000002300260029002C002F003200000100EE
:100210000003010601090105050505070508080891
:1002200008020202020A0A08080404040401010187
:10023000010101010103030303030303030407078F
:10024000070C0C0C0C0C0C0C0C020202020606062D
:1002500006060606060B0B0B0B0B0B0B0B01021015
:1002600020200808102040102040800201020108D0
:100270000402010102040810204080804020100880
:1002800004020180040201804020100804020108D9
:100290000402010102040810204080010204081039
:1002A0002040800000090A02080B0C0D0706030419
:1002B000010000000000000000000000000000003D
:1002C000000000000000000000000000000000111D
:1002D000100F0000000000000000000000000000FF
:1002E000000000000000000000008A050F159519AD
:1002F000FC40830511241FBECFEFD1E2DEBFCDBF8E
:1003000000E00CBF1BE0A0E0B2E0E0EDF0E900E0AF
:100310000BBF02C007900D92A238B107D9F71BBEE0
:1003200013E1A2E8BBE001C01D92AE34B107E1F7D2
:1003300012E0C2EFD2E004C02297FE010E942048E2
:10034000CA3ED107C9F70E9432420C945B480C9414
:100350000000A0E0B0E0EFEAF1E00C942C48EC01E2
:10036000A880B980CA80DB80A114B104C104D10483
:1003700041F484E2A82E89EDB82E8BE5C82E87E0E3
:10038000D82EC601B5012DE133EF41E050E00E94C7
:10039000034827EA31E440E050E00E94B6477B0181
:1003A0008C01C601B5012DE133EF41E050E00E9420
:1003B0000348CA01B9012CEE34EF4FEF5FEF0E9402
:1003C000B6476E0D7F1D801F911F97FF04C06150BF
:1003D000704080409048688379838A839B839B0127
:1003E000AC015F77B901CA01CDB7DEB7EAE00C9482
:1003F00048480E94A90108958EE09BE00E94A9014F
:10040000089560930E0B70930F0B8093100B9093D5
:10041000110B0895FB01DC0104C08D91019080193E
:1004200021F441505040C8F7881B990B0895FC01F6
:100430008191861721F08823D9F79927089531975C
:10044000CF010895FB01DC014150504048F001907C
:100450000D920020C9F701C01D9241505040E0F7B5
:1004600008950F931F93CF93DF938C01EB016115D8
:10047000710581F0DC011F96ED91FC91509730974A
:1004800031F0CE011D966D917C911E971995F80162
:10049000D687C587DF91CF911F910F910895DF9384
:1004A000CF93CDB7DEB72D970FB6F894DEBF0FBE52
:1004B000CDBFE0910C0CF0910D0C9E012F5F3F4FD2
:1004C000AF018DE0DA010D90AD01D9010D929D01D2
:1004D0008150C1F78091600D9091610D8F31910530
:1004E00089F18032910524F44E9709F044C035C05B
:1004F0008032910519F18197F1F5A885B98510979A
:1005000059F0CE0101961C969C938E931B97A78160
:10051000B085109761F40FC02091100C3091110C30
:100520002115310541F1CF01F901199524C01C961F
:10053000FC93EE931B976781708519C08FEF9BE04A
:10054000BC0117C0A581B681109721F01C96FC93C1
:10055000EE931B97658176810AC0A185B2851097BD
:1005600021F01C96FC93EE931B97618572858FEFAB
:100570009BE00E9431021092610D1092600D2D9649
:100580000FB6F894DEBF0FBECDBFCF91DF910895B7
:1005900083E090E090935C0D80935B0D0895EF9263
:1005A0000F938130910509F09EC26F5F7F4F09F074
:1005B000A7C282E89BE00E94A02E84E89BE060E056
:1005C0000E946B358FE99BE069E04AE028E003E098
:1005D00034E0E32E0E94243484EE9BE00E945C18F9
:1005E00080E092E09093000C8093FF0B1092010C3E
:1005F0001092090C1092080C1092070C1092060C25
:100600001092050C1092040C1092030C1092020C24
:100610008FEF9BE090930D0C80930C0C84EF96E091
:1006200090930F0C80930E0C82E19BE09093110C41
:100630008093100C89E092E09093130C8093120C3D
:100640001092140C10921C0C10921B0C10921A0C8D
:100650001092190C1092180C1092170C1092160C84
:100660001092150C8CE192E09093200C80931F0C5B
:100670001092210C1092290C1092280C1092270C29
:100680001092260C1092250C1092240C1092230C20
:100690001092220C89E292E090932D0C80932C0C06
:1006A00010922E0C1092360C1092350C1092340CC5
:1006B0001092330C1092320C1092310C1092300CBC
:1006C00010922F0C87E392E090933A0C8093390CB0
:1006D00010923B0C1092430C1092420C1092410C61
:1006E0001092400C10923F0C10923E0C10923D0C58
:1006F00010923C0C84E492E09093470C8093460C5B
:100700001092480C1092500C10924F0C10924E0CFC
:1007100010924D0C10924C0C10924B0C10924A0CF3
:100720001092490C82E592E09093540C8093530C04
:100730001092550C10925D0C10925C0C10925B0C98
:1007400010925A0C1092590C1092580C1092570C8F
:100750001092560C83E692E09093610C8093600CAB
:100760001092620C10926A0C1092690C1092680C34
:100770001092670C1092660C1092650C1092640C2B
:100780001092630C85E792E090936E0C80936D0C51
:1007900010926F0C1092770C1092760C1092750CD0
:1007A0001092740C1092730C1092720C1092710CC7
:1007B0001092700C84E892E090937B0C80937A0CFA
:1007C00010927C0C1092840C1092830C1092820C6C
:1007D0001092810C1092800C10927F0C10927E0C63
:1007E00010927D0C84E992E09093880C8093870CA2
:1007F0001092890C1092910C1092900C10928F0C08
:1008000010928E0C10928D0C10928C0C10928B0CFE
:1008100010928A0C89EA92E09093950C8093940C44
:100820001092960C10929E0C10929D0C10929C0CA3
:1008300010929B0C10929A0C1092990C1092980C9A
:100840001092970C82EB92E09093A20C8093A10CF3
:100850001092A30C1092AB0C1092AA0C1092A90C3F
:100860001092A80C1092A70C1092A60C1092A50C36
:100870001092A40C8DEB92E09093AF0C8093AE0C91
:100880001092B00C1092B80C1092B70C1092B60CDB
:100890001092B50C1092B40C1092B30C1092B20CD2
:1008A0001092B10C87EC92E09093BC0C8093BB0C3F
:1008B0001092BD0C1092C50C1092C40C1092C30C77
:1008C0001092C20C1092C10C1092C00C1092BF0C6E
:1008D0001092BE0C89ED92E09093C90C8093C80CE5
:1008E0001092CA0C1092D20C1092D10C1092D00C13
:1008F0001092CF0C1092CE0C1092CD0C1092CC0C0A
:100900001092CB0C85EE92E09093D60C8093D50C90
:100910001092D70C1092DF0C1092DE0C1092DD0CAE
:100920001092DC0C1092DB0C1092DA0C1092D90CA5
:100930001092D80C80EF92E09093E30C8093E20C3D
:100940001092E40C1092EC0C1092EB0C1092EA0C4A
:100950001092E90C1092E80C1092E70C1092E60C41
:100960001092E50C8DEF92E09093F00C8093EF0CD9
:100970001092F10C1092F90C1092F80C1092F70CE6
:100980001092F60C1092F50C1092F40C1092F30CDD
:100990001092F20C8BE093E09093FD0C8093FC0C92
:1009A0001092FE0C1092060D1092050D1092040D7F
:1009B0001092030D1092020D1092010D1092000D75
:1009C0001092FF0C89E193E090930A0D8093090D3A
:1009D00010920B0D1092130D1092120D1092110D1A
:1009E0001092100D10920F0D10920E0D10920D0D11
:1009F00010920C0D8CE293E09093170D8093160DDE
:100A00001092180D1092200D10921F0D10921E0DB5
:100A100010921D0D10921C0D10921B0D10921A0DAC
:100A20001092190D8BE393E09093240D8093230D86
:100A30001092250D10922D0D10922C0D10922B0D51
:100A400010922A0D1092290D1092280D1092270D48
:100A50001092260D8AE493E09093310D8093300D2F
:100A60001092320D10923A0D1092390D1092380DED
:100A70001092370D1092360D1092350D1092340DE4
:100A80001092330D89E593E090933E0D80933D0DD8
:100A900010923F0D1092470D1092460D1092450D89
:100AA0001092440D1092430D1092420D1092410D80
:100AB0001092400D8EE593E090934B0D80934A0D7C
:100AC00010924C0D1092540D1092530D1092520D25
:100AD0001092510D1092500D10924F0D10924E0D1C
:100AE00010924D0D0DC0892B59F46F5F7F4F41F46B
:100AF00084EE9BE00E946F1887EC9BE00E946F18C9
:100B00000F91EF90089580E090E06FEF7FEF0E94EB
:100B1000CF02089581E090E06FEF7FEF0E94CF0257
:100B20000895CF92DF92EF92FF920F931F93CF938E
:100B3000DF9381E20E944B3CEC018091620D909129
:100B4000630DC817D90751F00E94833A60936A0D6C
:100B500070936B0D80936C0D90936D0D0E94833A92
:100B600020916A0D30916B0D40916C0D50916D0D7F
:100B7000621B730B840B950B20911B0B30911C0B8C
:100B800040911D0B50911E0B261737074807590738
:100B900018F0CC24DD240BC00E94833A60936A0DC8
:100BA00070936B0D80936C0D90936D0D6E01D093CF
:100BB000630DC093620D80E20E944B3CEC0180917A
:100BC000640D9091650DC817D90751F00E94833AC2
:100BD00060936E0D70936F0D8093700D9093710DF7
:100BE0000E94833A20916E0D30916F0D4091700DEF
:100BF0005091710D621B730B840B950B20911B0B95
:100C000030911C0B40911D0B50911E0B261737077E
:100C10004807590718F0EE24FF240BC00E94833ABE
:100C200060936E0D70936F0D8093700D9093710DA6
:100C30007E01D093650DC093640D8FE10E944B3C03
:100C4000EC018091680D9091690DC817D90751F09A
:100C50000E94833A6093760D7093770D8093780DA0
:100C60009093790D0E94833A2091760D3091770D03
:100C70004091780D5091790D621B730B840B950B8D
:100C800020911B0B30911C0B40911D0B50911E0BA2
:100C9000261737074807590718F000E010E00BC087
:100CA0000E94833A6093760D7093770D8093780D50
:100CB0009093790D8E01D093690DC093680D8EE1EC
:100CC0000E944B3CEC018091660D9091670DC81716
:100CD000D90751F00E94833A6093720D7093730D9F
:100CE0008093740D9093750D0E94833A2091720D3C
:100CF0003091730D4091740D5091750D621B730B03
:100D0000840B950B20911B0B30911C0B40911D0BFC
:100D100050911E0B261737074807590718F080E037
:100D200090E00BC00E94833A6093720D7093730D34
:100D30008093740D9093750DCE01D093670DC09381
:100D4000660D21E0C216D10419F481E290E011C0D1
:100D500021E0E216F10419F480E290E00AC00130CB
:100D6000110519F48FE190E004C0019739F48EE188
:100D700090E09093610D8093600D04C01092610D1E
:100D80001092600DDF91CF911F910F91FF90EF9026
:100D9000DF90CF900895EF92FF920F931F9344E856
:100DA000E42E4BE0F42EC70160E040E00E940B37D8
:100DB00001E713E0C701B8010E940B44C701B80165
:100DC0000E940B44C701B8010E940B44C701B8013F
:100DD0000E940B44C70160E040E00E940B371F9166
:100DE0000F91FF90EF9008950F931F93DF93CF9390
:100DF000CDB7DEB72D970FB6F894DEBF0FBECDBFCF
:100E0000DE011196FC018DE001900D928150E1F719
:100E100009811A8184E89BE060E042E00E940B3780
:100E2000A091FF0BB091000CF80105C031968C9198
:100E3000981729F4119690819923C1F7DFC082E0B9
:100E40000930180729F484E89BE066E873E0DCC009
:100E500082E00C31180729F484E89BE06BE973E029
:100E6000D3C082E00932180729F484E89BE060EBE4
:100E700073E0CAC082E00733180729F484E89BE0D6
:100E800065EC73E0C1C082E00434180729F484E8FB
:100E90009BE06AED73E0B8C082E00235180729F4E0
:100EA00084E89BE06FEE73E0AFC082E00336180782
:100EB00029F484E89BE064E074E0A6C082E0053792
:100EC000180729F484E89BE069E174E09DC082E0A2
:100ED0000438180729F484E89BE06EE274E094C0BB
:100EE00082E00439180721F484E89BE0B8018CC043
:100EF00082E0093A180729F484E89BE063E474E08F
:100F000083C082E0023B180729F484E89BE068E58F
:100F100074E07AC082E00D3B180729F484E89BE076
:100F20006DE674E071C082E0073C180729F484E89C
:100F30009BE062E874E068C082E0093D180729F48C
:100F400084E89BE067E974E05FC082E0053E180733
:100F500029F484E89BE06CEA74E056C082E0003F2C
:100F6000180729F484E89BE061EC74E04DC082E04E
:100F70000D3F180729F484E89BE066ED74E044C057
:100F800083E00B30180729F484E89BE06BEE74E0F3
:100F90003BC083E00931180729F484E89BE060E056
:100FA00075E032C083E00C32180729F484E89BE036
:100FB00065E175E029C083E00B33180729F484E864
:100FC0009BE06AE275E020C083E00A34180729F448
:100FD00084E89BE06FE375E017C083E009351807EC
:100FE00029F484E89BE064E575E00EC00E551340DB
:100FF00069F484E89BE069E675E006C00E94CB06D0
:1010000084E89BE06EE775E00E940B442D960FB6D6
:10101000F894DEBF0FBECDBFCF91DF911F910F912E
:1010200008950E94CB0684E89BE060E041E00E94C6
:101030000B3784E89BE063E975E00E940B448FEF77
:101040009BE09093160C8093150C82E19CE09093AA
:10105000070C8093060C80911D0C90911E0C892B1F
:1010600041F480910A0C90910B0C90931E0C80938C
:101070001D0C82E19CE09093910C8093900C87E88A
:101080009CE09093180C8093170C8091920C909197
:10109000930C892B41F480911D0C90911E0C909320
:1010A000930C8093920C87E89CE09093200D8093A2
:1010B0001F0D86E19DE090938D0C80938C0C8091A8
:1010C000210D9091220D892B41F48091920C9091E9
:1010D000930C9093220D8093210D86E19DE09093D7
:1010E000470D8093460D8DE39DE090931C0D8093FA
:1010F0001B0D8091480D9091490D892B41F48091F1
:10110000210D9091220D9093490D8093480D82E11D
:101110009CE09093230C8093220C8FE19CE09093B1
:101120001A0C8093190C80912A0C90912B0C892B0E
:1011300041F480911D0C90911E0C90932B0C809388
:101140002A0C8FE19CE09093360C8093350C8CE256
:101150009CE09093250C8093240C8091370C909107
:10116000380C892B41F480912A0C90912B0C909390
:10117000380C8093370C8CE29CE09093430C809366
:10118000420C89E39CE09093320C8093310C809167
:10119000440C9091450C892B41F48091370C90912F
:1011A000380C9093450C8093440C89E39CE0909319
:1011B000500C80934F0C86E49CE090933F0C8093FE
:1011C0003E0C8091510C9091520C892B41F48091EE
:1011D000440C9091450C9093520C8093510C86E4F2
:1011E0009CE090935D0C80935C0C83E59CE0909375
:1011F0004C0C80934B0C80915E0C90915F0C892B72
:1012000041F48091510C9091520C90935F0C80931B
:101210005E0C83E59CE090936A0C8093690C80E6F9
:101220009CE09093590C8093580C80916B0C90919A
:101230006C0C892B41F480915E0C90915F0C909323
:101240006C0C80936B0C80E69CE09093770C809301
:10125000760C8DE69CE09093660C8093650C8091F3
:10126000780C9091790C892B41F480916B0C9091C2
:101270006C0C9093790C8093780C8DE69CE09093A5
:10128000840C8093830C8AE79CE09093730C80938A
:10129000720C8091850C9091860C892B41F4809181
:1012A000780C9091790C9093860C8093850C87E84C
:1012B0009CE09093980C8093970C84E99CE0909329
:1012C0008F0C80938E0C80919F0C9091A00C892B99
:1012D00041F48091920C9091930C9093A00C809388
:1012E0009F0C84E99CE09093AB0C8093AA0C81EA5C
:1012F0009CE090939A0C8093990C8091AC0C909107
:10130000AD0C892B41F480919F0C9091A00C90938F
:10131000AD0C8093AC0C81EA9CE09093B80C809368
:10132000B70C8EEA9CE09093A70C8093A60C80915A
:10133000B90C9091BA0C892B41F48091AC0C90912E
:10134000AD0C9093BA0C8093B90C8EEA9CE090930C
:10135000C50C8093C40C8BEB9CE09093B40C8093F1
:10136000B30C8091C60C9091C70C892B41F48091ED
:10137000B90C9091BA0C9093C70C8093C60C8BEB70
:101380009CE09093D20C8093D10C88EC9CE09093DD
:10139000C10C8093C00C8091D30C9091D40C892BFC
:1013A00041F48091C60C9091C70C9093D40C80931B
:1013B000D30C88EC9CE09093DF0C8093DE0C85EDE1
:1013C0009CE09093CE0C8093CD0C8091E00C90919A
:1013D000E10C892B41F48091D30C9091D40C909323
:1013E000E10C8093E00C85ED9CE09093EC0C8093F5
:1013F000EB0C82EE9CE09093DB0C8093DA0C8091F6
:10140000ED0C9091EE0C892B41F48091E00C9091C1
:10141000E10C9093EE0C8093ED0C82EE9CE09093A7
:10142000F90C8093F80C8FEE9CE09093E80C80937D
:10143000E70C8091FA0C9091FB0C892B41F4809180
:10144000ED0C9091EE0C9093FB0C8093FA0C8FEEC8
:101450009CE09093060D8093050D8CEF9CE090939B
:10146000F50C8093F40C8091070D9091080D892B59
:1014700041F48091FA0C9091FB0C9093080D8093AD
:10148000070D8CEF9CE09093130D8093120D89E073
:101490009DE09093020D8093010D8091140D909129
:1014A000150D892B41F48091070D9091080D9093B3
:1014B000150D8093140D86E19DE09093270D809388
:1014C000260D83E29DE090931E0D80931D0D80916B
:1014D0002E0D90912F0D892B41F48091210D90912B
:1014E000220D90932F0D80932E0D83E29DE090931B
:1014F0003A0D8093390D80E39DE09093290D809300
:10150000280D80913B0D90913C0D892B41F48091E9
:101510002E0D90912F0D90933C0D80933B0D8DE3FC
:101520009DE090934E0D80934D0D8AE49DE0909345
:10153000450D8093440D8091550D9091560D892B4A
:1015400041F48091480D9091490D9093560D8093F0
:10155000550D8FEF9BE0BC010E94310260E273E009
:1015600080E090E00E94FD3A84E89BE060E043E088
:101570000E940B3784E89BE064EA75E00E940B440C
:1015800064EF71E080E090E00E94FD3A0E94CB069B
:101590000895CF93DF930E94CB0682EC90E16DEA31
:1015A00075E00E940B4484E89BE060E043E00E9409
:1015B0000B3784E89BE061EC75E00E940B44C0E0CF
:1015C000D0E082EC90E163ED75E00E940B4468EEA0
:1015D00073E080E090E00E94FD3A2196C530D1058D
:1015E00081F782EC90E165ED75E00E940E4482EC9B
:1015F00090E16BED75E00E940E4484E89BE060E0B2
:1016000043E00E940B3784E89BE069EE75E00E949E
:101610000B4462E370E080E090E00E94FD3ADF91CD
:10162000CF9108950F93CF93DF93EC010E94CB06E7
:1016300084E89BE060E040E00E940B3784E89BE098
:101640006BEF75E00E940B4484E89BE060E041E0B2
:101650000E940B376881798184E89BE00E940B44EB
:1016600068EB7BE080E090E00E94FD3A8FEF9BE02A
:10167000BC010E943102888199818E55934071F49A
:1016800082EC90E16DE076E00E940E4485E090E00F
:1016900090935C0D80935B0D0E94CB0688819981AD
:1016A0008D5F924079F58DE261E00E94183C8FE3F6
:1016B0009EE00E94B8198FE39EE064E04FEF2FEFA9
:1016C0000FEF0E94FE1B82EC90E164E376E004C021
:1016D00082EC90E16AE476E00E940E448FE99BE0A0
:1016E00060E676E00E94D633882391F38DE260E0D5
:1016F0000E94183C85E090E090935C0D80935B0D18
:101700000E94CB06888199818B50934071F58DE2C0
:1017100061E00E94183C8FE39EE00E94B8198FE3BD
:101720009EE064E04FEF2FEF0FEF0E94FE1B82EC74
:1017300090E16DE676E00E940E448FE99BE063E85D
:1017400076E00E946D3368EB7BE080E090E00E94E1
:10175000FD3A8DE260E00E94183C85E090E09093B5
:101760005C0D80935B0D0E94CB0688819981895125
:10177000934071F58DE261E00E94183C8FE39EE09A
:101780000E94B8198FE39EE064E04FEF2FEF0FEF58
:101790000E94FE1B82EC90E160E976E00E940E441C
:1017A0008FE99BE06BEA76E00E946D3368EB7BE0AB
:1017B00080E090E00E94FD3A8DE260E00E94183CDB
:1017C00085E090E090935C0D80935B0D0E94CB06CA
:1017D000888199818D5B9240D1F483E090E0909371
:1017E000580D8093570D82EC90E168EB76E00E94F3
:1017F0000E4468EE73E080E090E00E94FD3A85E0E0
:1018000090E090935C0D80935B0D0E94CB068881E5
:101810009981875C9240D1F484E090E09093580DD8
:101820008093570D82EC90E163ED76E00E940E44C8
:1018300068EE73E080E090E00E94FD3A85E090E081
:1018400090935C0D80935B0D0E94CB06DF91CF914E
:101850000F9108950E94CB0684E89BE060E041E090
:101860000E940B3784E89BE062EF76E00E940B4415
:101870008FE99BE00E942333882339F482EC90E1C6
:1018800063E771E00E94B642FFCF82EC90E166E62A
:1018900071E00E94B6428FE99BE062E042E00E9464
:1018A0002C328FE99BE065E00E944A348FE99BE08F
:1018B00060E676E00E946D3360E273E080E090E0E5
:1018C0000E94FD3A84E89BE060E043E00E940B3711
:1018D00084E89BE064EA75E00E940B4408950F934E
:1018E000DF93CF93CDB7DEB76B970FB6F894DEBF1B
:1018F0000FBECDBF0E94CB0684E89BE060E041E0D4
:101900000E940B3784E89BE064E077E00E940B4480
:1019100082EC90E160E177E00E940B448FE39EE06F
:1019200065E34FEF2FEF0FEF0E94FE1B882339F482
:1019300082EC90E168E277E00E940E44FFCF82ECF7
:1019400090E164E477E00E940E44CE0101966FE3DB
:101950007EE046E557E023E10E94D91A8B819C8105
:101960009093E70B8093E60B8D819E81AF81B885C4
:101970008093E80B9093E90BA093EA0BB093EB0BE9
:1019800089859A85AB85BC858093EC0B9093ED0B94
:10199000A093EE0BB093EF0BA0EFBBE0FE013D96E2
:1019A0008DE001900D928150E1F78A8D9B8D90938F
:1019B000FE0B8093FD0BCE0101960E946F1884EE02
:1019C0009BE00E94B118882339F482EC90E162E632
:1019D00077E00E940E44FFCF60E273E080E090E089
:1019E0000E94FD3A84E89BE060E043E00E940B37F0
:1019F00084E89BE064EA75E00E940B446B960FB6A6
:101A0000F894DEBF0FBECDBFCF91DF910F91089547
:101A1000EF92FF920F931F9352ECE52E50E1F52EBB
:101A2000C7016CE777E00E940B4404E81BE0C801A3
:101A300064E144E020E00E944F370E94CB06C801D9
:101A400067E977E00E940B44C70164EA75E00E94F1
:101A50000E441F910F91FF90EF900895DF93CF9365
:101A60000F92CDB7DEB782EC90E167EA77E00E9493
:101A70000B440E94CB0684E89BE060E041E00E94BA
:101A80000B3784E89BE064EC77E00E940B4482E82B
:101A90009BE00E94763182E89BE0BE016F5F7F4F42
:101AA0000E94012F882399F082EC90E166ED77E0A7
:101AB0000E940B4482EC90E1698140E150E00E9479
:101AC000874382EC90E169EE77E00E940E44109229
:101AD0005D0D82EC90E16AEF77E00E940E4482E8AF
:101AE0009BE060915D0D42E02EE53DE00E941D30DF
:101AF00082EC90E168E078E00E940E4482E89BE08E
:101B00000E94373064E670E080E090E00E94FD3A89
:101B100082E89BE061E045E00E94E12F882331F0FC
:101B200082EC90E163E178E00E940E4482E89BE061
:101B30006CE271E040ED57E00E94C12F882331F044
:101B400082EC90E169E378E00E940E4460E273E089
:101B500080E090E00E94FD3A82EC90E164EA75E05A
:101B60000E940E4484E89BE060E043E00E940B3753
:101B700084E89BE064EA75E00E940B440F90CF91EB
:101B8000DF910895CF92DF92EF92FF920F931F9310
:101B900072ECC72E70E1D72EC60166E678E00E948F
:101BA0000B440E94CB0664E8E62E6BE0F62EC701DC
:101BB00060E041E00E940B37C7016BE778E00E94CC
:101BC0000B4485E361E00E94653B86E161E00E9491
:101BD000653B8EE160E00E94653B8FE160E00E9422
:101BE000653B80E260E00E94653B81E260E00E942C
:101BF000653B82E260E00E94653B82E060E00E941B
:101C0000653B82E160E00E94653B88E261E00E9402
:101C1000653B89E261E00E94653B8CE060E00E94E8
:101C2000653B8DE261E00E94653B85E361E00E94D7
:101C3000653B60E273E080E090E00E94FD3A04EAD8
:101C400015E0C601B8010E940E44C70160E043E000
:101C50000E940B37C701B8010E940B441F910F91DE
:101C6000FF90EF90DF90CF900895CF92DF92EF92A8
:101C7000FF920F931F93DF93CF93CDB7DEB7689793
:101C80000FB6F894DEBF0FBECDBF82EC90E16DE8D9
:101C900078E00E940B440E94CB0684E89BE060E061
:101CA00041E00E940B3784E89BE06DEA78E00E94F7
:101CB0000B440E94C92D0E94CB2D2B8B3C8B4D8B4E
:101CC0005E8B6F8B788FDE011196FE01739686E036
:101CD00001900D928150E1F7E7E0CE2ED12CCC0E91
:101CE000DD1EC60162EC78E04EEC58E00E94D32C79
:101CF000CE0101960E946F2D7B018C01C6010E94CE
:101D00006F2DE616F7060807190768F48E01035FC2
:101D10001F4FC80162EC78E04EEC58E00E94D32CD3
:101D2000C8010E944D2E60E273E080E090E00E94C6
:101D3000FD3A82EC90E164EA75E00E940E4484E88A
:101D40009BE060E043E00E940B3784E89BE064EA9C
:101D500075E00E940B4468960FB6F894DEBF0FBE84
:101D6000CDBFCF91DF911F910F91FF90EF90DF904A
:101D7000CF9008950F931F93082F803414F00FE332
:101D800002C087FD00E082EC90E167ED78E00E9400
:101D90000B44112707FD109582EC90E1B8014AE051
:101DA00050E00E94EC4385EC9DE06BE470E00E9403
:101DB000D51485EC9DE0602F0E94571585EC9DE0C1
:101DC0000E949A1590E0882309F491E0892F1F91D1
:101DD0000F9108958091120B0E94BA0E882331F45E
:101DE00082EC90E16AEE78E00E940E4486E161E0C8
:101DF0000E94183C60ED77E080E090E00E94FD3AA0
:101E000086E160E00E94183C8DE260E00E94183C90
:101E100008950F931F93682F05EC1DE0C8010E94E1
:101E2000CB14C8016FE60E945715C8010E949A158D
:101E30001F910F910895DF92EF92FF920F931F93DE
:101E4000382FF62EE42ED22E05EC1DE0C801632FAC
:101E50000E94CB14C80160E70E945715C8016F2D7E
:101E60000E945715C8016E2D0E945715C8016D2D8F
:101E70000E945715C8010E949A151F910F91FF905B
:101E8000EF90DF900895DF92EF92FF920F931F93F0
:101E9000382FF62EE42ED22E05EC1DE0C801632F5C
:101EA0000E94CB14C80163E60E945715C8016F2D2C
:101EB0000E945715C8016E2D0E945715C8016D2D3F
:101EC0000E945715C8010E949A151F910F91FF900B
:101ED000EF90DF9008950F931F93CF93DF9382ECE1
:101EE00090E163E179E00E940E440E94CB0684E811
:101EF0009BE060E041E00E940B3784E89BE069E3EF
:101F000079E00E940B4489E361E00E94653B88E32D
:101F100061E00E94653B89E361E00E94183C88E330
:101F200060E00E94183C64E670E080E090E00E946F
:101F3000FD3A85EC9DE00E94AF1503E11BE0C0E097
:101F4000D0E082EC90E16AE479E00E940B442196B3
:101F500082EC90E1BE014AE050E00E94EC4384E84C
:101F60009BE060E042E00E940B3784E89BE06AE47B
:101F700079E00E940B4484E89BE0BE014AE050E017
:101F80000E94D943F801808162E140E020E00E9494
:101F90001B0F60ED77E080E090E00E94FD3AF801D1
:101FA00080810E94090FF80181918F0160E040E07B
:101FB00020E00E94430FC830D10519F668EC70E0AC
:101FC00080E090E00E94FD3A84E89BE06FE479E0D5
:101FD0000E940B4482EC90E169E579E00E940E4496
:101FE000DF91CF911F910F9108954F925F926F9261
:101FF0007F928F929F92AF92BF92CF92DF92EF9299
:10200000FF920F931F93DF93CF93CDB7DEB7CA54E0
:10201000D0400FB6F894DEBF0FBECDBF80915B0DF0
:1020200090915C0D8430910509F434C1853091059F
:102030003CF48230910581F0039709F06AC407C12E
:102040008630910509F41EC2863091050CF427C133
:10205000079709F05EC40BC30E94CB2DDE01AB5B7A
:10206000BF4F2C93FE01EA5BFF4F3083FE01E95B1B
:10207000FF4F4083FE01E85BFF4F5083FE01E75BAB
:10208000FF4F6083FE01E65BFF4F70839E01275F79
:102090003F4FFD0186E00190D9010D929D018150D5
:1020A000D1F7BE84CD84DC84EB84FA84098584E88E
:1020B0009BE060E00E94423782EC90E161EB79E0C6
:1020C0000E940B4410E00053184F82EC90E1B801DD
:1020D0004AE050E00E94594382EC90E16FE20E9496
:1020E0008E4282EC90E16F2D4AE050E00E948743DF
:1020F00082EC90E16FE20E948E4282EC90E16E2DC4
:102100004AE050E00E94874382EC90E160E20E9446
:102110008E4282EC90E16D2D4AE050E00E948743B0
:1021200082EC90E16AE30E948E4282EC90E16C2D99
:102130004AE050E00E94874382EC90E16AE30E940B
:102140008E4282EC90E16B2D4AE050E00E94874382
:1021500084E89BE060E041E00E940B3784E89BE06C
:10216000B8014AE050E00E94594384E89BE06FE2E6
:102170000E948E4284E89BE06F2D4AE050E00E946E
:10218000874384E89BE06FE20E948E4284E89BE0F4
:102190006E2D4AE050E00E94874384E89BE060E2B5
:1021A0000E948E4284E89BE06D2D4AE050E00E9440
:1021B000874384E89BE06AE30E948E4284E89BE0C8
:1021C0006C2D4AE050E00E94874384E89BE06AE37C
:1021D0000E948E4284E89BE06B2D4AE050E00E9412
:1021E000874382E89BE0BE016D5F7F4FAE014F5F8A
:1021F0005F4F0E94522F882309F182EC90E168EC36
:1022000079E00E940B446B817C8182EC90E14AE092
:1022100050E00E946A4340915E0D50915F0D2B810A
:102220003C8109811A8182E89BE060915D0DB5E0F7
:10223000EB2EF12CEC0EFD1E0E943C308B819C811C
:102240008C52914008F065C386E090E05EC382EC5A
:1022500090E161ED79E00E940E4482E89BE00E94EB
:10226000A12E84E00E9487380E94CB0684E89BE080
:1022700061E00E94423784E89BE060E040E00E9419
:102280000B3784E89BE06EE775E00E940B4484E026
:1022900090E03BC30E9491050E944F023AC382EC3A
:1022A00090E162E07AE00E940E440E94CB2DDE01B4
:1022B000AB5BBF4F2C93FE01EA5BFF4F3083FE0107
:1022C000E95BFF4F4083FE01E85BFF4F5083FE0157
:1022D000E75BFF4F6083FE01E65BFF4F70839E016B
:1022E000275F3F4FFD0186E00190D9010D929D01CE
:1022F0008150D1F78FE39EE00E94B8198FE39EE0F2
:1023000065E34FEF2FEF0FEF0E94FE1BCE010F96FC
:102310006FE37EE046E557E023E10E94D91A898900
:102320009A899093E70B8093E60B8B899C89AD8902
:10233000BE898093E80B9093E90BA093EA0BB093CE
:10234000EB0B8F89988DA98DBA8D8093EC0B9093B0
:10235000ED0BA093EE0BB093EF0BA0EFBBE0FE01F3
:102360007B968DE001900D928150E1F788A599A5AB
:102370009093FE0B8093FD0BCE010F960E946F1879
:10238000698570E06053784F84EE9BE04AE050E04E
:102390000E94594384EE9BE06FE20E948E4284EEDD
:1023A0009BE06A854AE050E00E94874384EE9BE010
:1023B0006FE20E948E4284EE9BE06B854AE050E023
:1023C0000E94874384EE9BE060E20E948E4284EE8E
:1023D0009BE06C854AE050E00E94874384EE9BE0DE
:1023E0006AE30E948E4284EE9BE06D854AE050E0F5
:1023F0000E94874384EE9BE06AE30E948E4284EE53
:102400009BE06E854AE050E00E94874384EE9BE0AB
:1024100065E27AE00E940B4484EE9BE060E47AE09F
:102420000E940B446091570D7091580D84EE9BE013
:102430004AE050E00E94D94384EE9BE060E47AE0F9
:102440000E940B446091590D70915A0D84EE9BE0EF
:102450004AE050E00E94EC4384EE9BE00E94D018DA
:1024600084EE9BE00E94BE188FE39EE00E94B819A4
:1024700084E068EC72E041E050E00E940B3882E0BA
:1024800090E043C282EC90E162E47AE00E940E4464
:102490000E94CB2DDE01AB5BBF4F2C93FE01EA5BAC
:1024A000FF4F3083FE01E95BFF4F4083FE01E85B95
:1024B000FF4F5083FE01E75BFF4F6083FE01E65B49
:1024C000FF4F70839E01275F3F4FFD0186E0019023
:1024D000D9010D929D018150D1F78FE39EE00E94BA
:1024E000B8198FE39EE065E34FEF2FEF0FEF0E94E7
:1024F000FE1BCE018A966FE37EE046E557E023E1BE
:102500000E94D91A8CA59DA59093E70B8093E60BAA
:102510008EA59FA5A8A9B9A98093E80B9093E90B74
:10252000A093EA0BB093EB0B8AA99BA9ACA9BDA918
:102530008093EC0B9093ED0BA093EE0BB093EF0B0D
:10254000A0EFBBE0FE01F6968DE001900D92815068
:10255000E1F7FE01ED5BFF4F808191819093FE0BCF
:102560008093FD0BCE018A960E946F18698570E0FA
:102570006053784F84EE9BE04AE050E00E9459435C
:1025800084EE9BE06FE20E948E4284EE9BE06A85BF
:102590004AE050E00E94874384EE9BE06FE20E9495
:1025A0008E4284EE9BE06B854AE050E00E948743B8
:1025B00084EE9BE060E20E948E4284EE9BE06C859C
:1025C0004AE050E00E94874384EE9BE06AE30E9469
:1025D0008E4284EE9BE06D854AE050E00E94874386
:1025E00084EE9BE06AE30E948E4284EE9BE06E855F
:1025F0004AE050E00E94874384EE9BE06AE97AE07B
:102600000E940B4484EE9BE065E27AE00E940B445A
:1026100084EE9BE060E47AE00E940B446091570DE9
:102620007091580D84EE9BE04AE050E00E94D9433F
:1026300084EE9BE060E47AE00E940B446091590DC7
:1026400070915A0D84EE9BE04AE050E00E94EC430A
:1026500084EE9BE00E94D01884EE9BE00E94BE189E
:102660008FE39EE00E94B81987E090E04EC184E0BD
:1026700068EC72E041E050E00E940B3882EC90E19F
:102680006FEB7AE00E940E4460E070E080E090E042
:1026900023E130E040E050E00E944A445B016C01DD
:1026A0008091570D9091580D83309105D9F081306C
:1026B000910531F4ADE0AA2EB12CC12CD12C17C05C
:1026C0008230910579F0049791F460E070E080E049
:1026D00090E023E130E040E050E00E944A445B019A
:1026E0006C0105C0F5E0AF2EB12CC12CD12C60E0FF
:1026F00070E080E090E02BE030E040E050E00E94AD
:102700004A442B0164EF71E080E090E020ED37E077
:1027100040E050E00E944A443B014C018CE00E94A2
:102720004B3C019749F560E070E080E090E022E3E7
:1027300030E040E050E00E944A446A307105E4F421
:1027400061E070E080E090E02CED35E040E050E0AA
:102750000E944A447B018C0186E161E00E94183CA2
:102760000027F7FC0095102FC801B7010E94FD3A21
:1027700086E160E00E94183C88E20E944B3C019791
:1027800089F58091230B882351F11092230B82EC61
:1027900090E16EED7AE00E940E4482EC90E162EEF0
:1027A0007AE00E940B440E94833A28EE33E040E036
:1027B00050E00E94E14782EC90E1BA01A9012AE0D1
:1027C00030E00E944A4382EC90E166EF7AE00E949A
:1027D0000E4462E370E080E090E00E94FD3A81E008
:1027E00080937E0D88E20E944B3C892B09F061C0EA
:1027F00080917E0D882361F00E94833A60937A0D68
:1028000070937B0D80937C0D90937D0D10927E0DC7
:102810008091230B882309F04CC00E94833A2091B9
:102820007A0D30917B0D40917C0D50917D0D621B96
:10283000730B840B950B20911F0B3091200B409153
:10284000210B5091220B261737074807590788F5A7
:1028500081E08093230B82EC90E16BEF7AE00E94A1
:102860000B440E94833A20911F0B3091200B409122
:10287000210B5091220B621B730B840B950B28EEDE
:1028800033E040E050E00E94E14782EC90E1BA0181
:10289000A9012AE030E00E944A4382EC90E166EF11
:1028A0007AE00E940E4462E370E080E090E00E94D3
:1028B000FD3A82010D5E144FF80180816A2D40E0DF
:1028C00020E00E941B0FC401B3010E94FD3AD80111
:1028D0008C910E94090FF801808160E040E020E0C7
:1028E0000E94430F82E89BE0BE016F5F7F4FAE0105
:1028F0004D5F5F4F0E94522F882359F089819A8142
:102900008D52914030F085E090E090935C0D809383
:102910005B0DC65BDF4F0FB6F894DEBF0FBECDBFB9
:10292000CF91DF911F910F91FF90EF90DF90CF90AB
:10293000BF90AF909F908F907F906F905F904F90DF
:10294000089582EC90E140E05BE460E070E00E947A
:10295000EF3F0E94080D0E94350E0E946B0F0E94EF
:10296000C20D0E94C90A0E942E0D0E946F0C0E9487
:102970002A0C0E9411080E94EA0E84E068EC72E0C2
:1029800041E050E00E940B3882E090E090935C0DB3
:1029900080935B0D089581E08093C40D6093A10D39
:1029A0001092C20D1092C30D089581E08093C40D62
:1029B0006093A10D1092C20D1092C30D0895209145
:1029C000A00D30E080919F0D281B3109C9010895A9
:1029D00040919F0D8091A00D481718F02FEF3FEF09
:1029E0000AC0E42FF0E0E158F24F8081282F30E058
:1029F0004F5F40939F0DC9010895E0919F0D809115
:102A0000A00DE81718F0EFEFFFEF06C0F0E0E15877
:102A1000F24F8081E82FF0E0CF01089508951092E1
:102A2000C80D1092C70D88EE93E0A0E0B0E080934F
:102A3000C90D9093CA0DA093CB0DB093CC0D82E33A
:102A40009BE09093C60D8093C50D0895CF92DF92C1
:102A5000EF92FF920F931F93CF93DF937C016B0153
:102A60008A018091C40D8823A1F0C0E0D0E00DC0A0
:102A7000D701ED91FC91D601AC0FBD1F0190F08103
:102A8000E02DC7016C9119952196C017D10780F3ED
:102A900004C0CB01642F0E945816C801DF91CF916A
:102AA0001F910F91FF90EF90DF90CF900895DF93EB
:102AB000CF930F92CDB7DEB7FC0169838091C40D2F
:102AC0008823C9F08091C30D803238F081E090E016
:102AD0009383828320E030E015C08091C20DE82FFF
:102AE000F0E0EE55F24F998190838F5F8093C20D95
:102AF0008093C30D05C0CE01019661E00E94581677
:102B000021E030E0C9010F90CF91DF9108950F933C
:102B1000062F8091A10D62EA7DE04091C30D21E076
:102B20000E9403161092C20D1092C30D1092C40D94
:102B30000F91089561E00E9487150895413208F0D1
:102B400040E2862F6FE77DE00E94BA1510929F0D3C
:102B50008093A00D089521E00E949E150895109283
:102B60009F0D1092A00D1092C20D1092C30D0E94E5
:102B700008180895382F413210F040E042C080918B
:102B8000D10D8823E1F791E09093D10D2093D30DDF
:102B90008FEF80933E0E1092F90D41504093FA0D45
:102BA0004F5F9093D20D8091D20D330F832B809382
:102BB000D20D8091D40D813041F41092D40D8091CA
:102BC000D20D8093BB0085EC01C085EE8093BC00E4
:102BD0008091D10D8130E1F38091F90D841710F4CB
:102BE0004091F90D20E030E00AC0FB01E20FF31F35
:102BF000D901A752B24F8C9180832F5F3F4F24178A
:102C0000A0F3842F08950F931F93582F122F413252
:102C100010F081E04AC08091D10D8823E1F782E075
:102C20008093D10D0093D30D8FEF80933E0E1092C1
:102C3000F90D4093FA0DA9EDBDE0FB0102C08191B1
:102C40008D938E2F861B8417D0F31092D20D809116
:102C5000D20D550F852B8093D20D8091D40D8130EC
:102C600041F41092D40D8091D20D8093BB0085EC7D
:102C700001C085EE8093BC00112321F08091D10D1D
:102C80008230E1F380913E0E8F3F11F480E00DC061
:102C900080913E0E803211F482E007C080913E0E9A
:102CA000803311F084E001C083E01F910F910895FB
:102CB000482F613210F081E008958091D10D843069
:102CC00011F082E0089560931C0EABEFBDE0842FFD
:102CD0009C01F90102C081918D938E2F841B861770
:102CE000D0F380E008951F920F920FB60F920BB6AB
:102CF0000F9211242F933F934F935F936F937F9382
:102D00008F939F93AF93BF93EF93FF938091B900FD
:102D100090E0887F90708036910509F4F2C081368A
:102D20009105CCF58832910509F47BC08932910573
:102D3000B4F48031910509F46FC0813191053CF400
:102D4000009709F447C1089709F04FC165C0883161
:102D5000910509F466C0809709F047C182C08034AC
:102D6000910509F4A4C08134910544F480339105A0
:102D700009F482C0C89709F038C189C0803591052F
:102D800009F489C08835910509F496C08834910505
:102D900009F02BC1AEC08839910509F413C18939F6
:102DA0009105ECF48837910509F4ABC0893791059A
:102DB0004CF48836910509F4A4C08037910509F0D8
:102DC00014C19FC08838910509F4FCC08039910571
:102DD00009F49DC08038910509F007C198C0803B77
:102DE000910509F4C6C0813B91054CF4803A9105E8
:102DF00009F49FC0883A910509F0F7C0BAC0803C39
:102E0000910509F4E3C0883C910509F4DFC0883BD3
:102E1000910509F0EAC0C2C08091D20D8093BB0039
:102E2000CFC09091F90D8091FA0D981768F49091A8
:102E3000F90DE92FF0E0E752F24F80818093BB005B
:102E40009F5F9093F90DBCC08091D30D882309F446
:102E50004BC085ED8093BC008091BC0084FDFCCF0D
:102E6000C2C080E280933E0E85ED8093BC008091CD
:102E7000BC0084FDFCCFB7C080E380933E0E85ED9F
:102E80008093BC008091BC0084FDFCCFACC088E383
:102E900080933E0E9BC08091F90D9091BB00E82F6E
:102EA000F0E0E752F24F90838F5F8093F90D90919D
:102EB000F90D8091FA0D82C08091F90D9091BB00BF
:102EC000E82FF0E0E752F24F90838F5F8093F90D87
:102ED0008091D30D882341F085ED8093BC008091D3
:102EE000BC0084FDFCCF7FC081E08093D40D84EAD8
:102EF0006EC085ED8093BC008091BC0084FDFCCF4A
:102F000072C083E08093D10D10923D0E59C0809124
:102F10003D0E803208F056C080913D0E9091BB006E
:102F2000E82FF0E0E35EF14F90838F5F80933D0EDA
:102F300047C080913D0E803230F4E0913D0EF0E0CC
:102F4000E35EF14F108285ED8093BC008091BC0060
:102F500084FDFCCF1092D10D60913D0EE091D70D14
:102F6000F091D80D8DE19EE070E0199510923D0E24
:102F70002DC084E08093D10D10921B0E10921C0E78
:102F8000E091D50DF091D60D199580911C0E8823F6
:102F900029F481E080931C0E1092FB0D90911B0E82
:102FA000E92FF0E0E550F24F80818093BB009F5FF6
:102FB00090931B0E90911B0E80911C0E981710F48D
:102FC00085EC01C085E88093BC000FC085EC809340
:102FD000BC0009C010923E0E85ED8093BC0080912C
:102FE000BC0084FDFCCF1092D10DFF91EF91BF91F9
:102FF000AF919F918F917F916F915F914F913F9191
:103000002F910F900BBE0F900FBE0F901F90189531
:103010001092D10D81E08093D30D1092D40D84E1F4
:1030200061E00E94183C85E161E00E94183CE9EBF8
:10303000F0E080818E7F808380818D7F808388E433
:103040008093B80085E48093BC000895882319F428
:103050008CB5806202C08CB58F7D8CBD08959CB507
:10306000937F982B9CBD08952CB5382F33702C7FFF
:10307000322B3CBD2DB590E095958795959587951C
:1030800081702E7F822B8DBD089585E361E00E94C3
:10309000183C85E361E00E94653B8CB580618CBD86
:1030A0008CB580648CBD84E361E00E94653B83E362
:1030B00061E00E94653B0895FC011382128288EE54
:1030C00093E0A0E0B0E084839583A683B78382E495
:1030D0009BE091838083128E118E14860895FC01EB
:1030E00082E49BE0918380830895DF93CF930F92D6
:1030F000CDB7DEB7FC016983A081B18112962D9115
:103100003C911397BE016F5F7F4F41E050E0F901A2
:1031100019950F90CF91DF910895DC015996ED91AB
:10312000FC915A97309719F420E030E018C02389B9
:1031300034894589568982859385A485B585281B60
:10314000390B4A0B5B0B2030B0E83B07B0E04B0774
:10315000B0E05B0720F02FEF3FE740E050E0C9010F
:103160000895DC015996ED91FC915A97309711F42E
:1031700080E008958581811181E00895CF93DF93E8
:10318000EC01898D9A8D009741F00E946621898D0E
:103190009A8D0E945A3D1A8E198EDF91CF91089513
:1031A000FC01818D928D009711F00E941C210895E1
:1031B000FC01818D928D009719F420E030E003C06E
:1031C0000E943D229C01C9010895DF93CF930F9285
:1031D000CDB7DEB7FC01818D928D009749F0BE011D
:1031E0006F5F7F4F41E050E00E943D22019719F050
:1031F0002FEF3FEF03C08981282F30E0C9010F90E6
:10320000CF91DF910895EF92FF920F931F93DF9379
:10321000CF930F92CDB7DEB77C01DC0159968D912B
:103220009C915A97009719F400E010E01FC0BE016E
:103230006F5F7F4F41E050E00E943D22019719F0FF
:103240000FEF1FEF13C08981082F10E0D7015996A7
:10325000ED91FC915A97428553856485758541505F
:10326000504060407040CF010E945620C8010F902E
:10327000CF91DF911F910F91FF90EF900895CF9321
:10328000DF93EC01E98DFA8D309761F013821282A1
:10329000CF010E9482249C01E98DFA8D8281938165
:1032A000892B31F081E090E09B838A8320E030E03D
:1032B000C901DF91CF910895EF92FF920F931F9371
:1032C000CF93DF93EC01F62EE72E8A011B821A8240
:1032D00088EE93E0A0E0B0E08C839D83AE83BF8353
:1032E00082E49BE0998388838DE190E00E94BD3C5D
:1032F0009A8F898F009791F0DC018F2D9E2D9C0174
:10330000F9018DE101900D928150E1F7CE010C960B
:10331000B8014CE050E00E942202188EDF91CF915C
:103320001F910F91FF90EF9008951092440E10920C
:10333000450E1092480E10924A0E82E090E0A0E0F6
:10334000B0E080934C0E90934D0EA0934E0EB09330
:103350004F0E1092630E10926D0E10926C0E82E55D
:103360009BE090936B0E80936A0E10926F0E0895FF
:103370008B960E94662108952F923F924F925F9202
:103380006F927F928F929F92AF92BF92CF92DF9275
:10339000EF92FF920F931F93DF93CF93CDB7DEB7DA
:1033A000C754D0400FB6F894DEBF0FBECDBF582E25
:1033B000492EFB013A01190185A596A5998B888BA9
:1033C00022E53BE03F872E8787A58A8B80A98B8BE0
:1033D00081A992A9A3A9B4A98C8B9D8BAE8BBF8B1D
:1033E00085A996A9A7A9B0AD888F998FAA8FBB8F01
:1033F00081AD92ADA3ADB4AD8C8F9D8FAE8FBF8FDD
:1034000085AD88A3FE9681919191A191B19189A3F7
:103410009AA3ABA3BCA381919191A191B1918DA3EA
:103420009EA3AFA3B8A7808191819AA789A71EA662
:103430001DA63CA72BA718AA7A018E01025F1F4F79
:103440003BE2A32EB12CAC0EBD1E4E010894811C94
:10345000911C35C0D7018C918F3221F40894E11C66
:10346000F11C2DC0422F4E194D3008F04CE0C42EF7
:10347000DD24C401B701A6010E942202F401EC0D73
:10348000FD1D1082C5010E946621C501B801A4017D
:1034900021E00E94AE26882351F4E52DF42D1382FD
:1034A000128282E59BE091838083158266C0EC0CDA
:1034B000FD1CC8010E946621C50158018C01C7018D
:1034C0006FE270E00E9417029C01009719F6E6185F
:1034D000F708F101F182E082E52DF42DD801129672
:1034E0008D919C9113979383828382E59BE09183D6
:1034F000808314968C911497848315968C911597DC
:10350000858316962D913D914D915C911997268357
:103510003783408751871A962D913D914D915C914B
:103520001D9722873387448755871E962D913D919D
:103530004D915C91519726873787408B518B5296DE
:103540008C915297828B53962D913D914D915C9128
:103550005697238B348B458B568B57962D913D91E7
:103560004D915C915A97278B308F418F528F5B968C
:103570008D919C915C97948F838F852D942DC95B41
:10358000DF4F0FB6F894DEBF0FBECDBFCF91DF91F6
:103590001F910F91FF90EF90DF90CF90BF90AF9071
:1035A0009F908F907F906F905F904F903F902F9063
:1035B00008959F92AF92BF92CF92DF92EF92FF92C7
:1035C0000F931F93DF93CF93CDB7DEB7C657D0408D
:1035D0000FB6F894DEBF0FBECDBFC82E992E8A015C
:1035E000D22E43E0A42EB12CAC0EBD1EC501A80105
:1035F0009E012F5F3F4F0E94BC19E980FA80E00EC8
:10360000F11EF701808142E55BE02885882309F0FF
:103610003FC08D819E819BA38AA359A348A38F811C
:103620008CA32DA389859A85AB85BC858EA39FA38A
:10363000A8A7B9A78D859E85AF85B8898AA79BA7BE
:10364000ACA7BDA789899A89AB89BC898EA79FA79A
:10365000A8ABB9AB8D898AAB8E899F89A88DB98DAE
:103660008BAB9CABADABBEAB8A8D9B8DAC8DBD8D5A
:103670008FAB98AFA9AFBAAF8E8D9F8D9CAF8BAF3C
:103680008C2D992DBE01605E7F4F4CE05BE09FC0AA
:10369000FE01FF96118210825EAF4DAFFE01EE5B20
:1036A000FF4F10822223A9F02250CE01CD96223066
:1036B00048F46AE67EE0A7012D2D0E94AE268823FD
:1036C00081F407C0B501A7012D2D0E94AE268823E5
:1036D00029F48C2D992D0E945C187BC0C5010E9495
:1036E0006621F6E0DF2259F0FE01E05BFF4F4081EA
:1036F000518162817381CE01CD960E9456209E0138
:10370000265A3F4FFE01FF9680819181F9019383F4
:10371000828382E59BE091838083FE01EF5BFF4F14
:103720008081F9018483FE01EE5BFF4F8081F90106
:103730008583FE01ED5BFF4F80819181A281B38182
:10374000F90186839783A087B187FE01E95BFF4F6C
:1037500080819181A281B381F90182879387A487B7
:10376000B587FE01E55BFF4F80819181A281B38126
:10377000F90186879787A08BB18BFE01E15BFF4F34
:103780008081F901828BFE01E05BFF4F8081918196
:10379000A281B381F901838B948BA58BB68BFE013B
:1037A000EC5AFF4F80819181A281B381F901878B0F
:1037B000908FA18FB28FFE01E85AFF4F80819181D7
:1037C000F901948F838F8C2D992DB901A7010E9447
:1037D0005C198C2D992DCA58DF4F0FB6F894DEBFB7
:1037E0000FBECDBFCF91DF911F910F91FF90EF9052
:1037F000DF90CF90BF90AF909F900895EF920F937E
:103800001F93CF93DF93EC01362F542F722FE02EAE
:1038100061E0432F252F072F0E94F11E8823D1F04E
:103820008E01035F1F4FC801BE0141E00E944F2877
:10383000882339F4C801BE0140E00E944F28882344
:1038400049F0CE018B96B8010E949C23882319F081
:1038500081E001C080E0DF91CF911F910F91EF9047
:103860000895382F8091890E8F3F31F43EBD0DB4FD
:1038700007FEFDCF8EB50895F894A0918A0EB09101
:103880008B0E50918C0E252F2095E0918D0EF0918E
:103890008E0E40918F0E642F609590E08C91822364
:1038A0008C9337FF03C08081842B02C080818623E4
:1038B00080838C91852B8C939F5F983011F0330F10
:1038C000EDCF00000000000000008C9128232C9315
:1038D000789408958091890E8F3F31F48EBD0DB498
:1038E00007FEFDCF2EB530C0F894E0918D0EF0911B
:1038F0008E0E808190918F0E892B8083E0918A0EAD
:10390000F0918B0E60918C0EA091900EB091910E63
:103910008091920E482F50E0762F709530E020E095
:103920008081862B8083220F8C9190E084239523C5
:10393000892B09F0216080818723808300000000AB
:103940003F5F383069F77894822F08950F931F9363
:10395000CF93DF938B010E94833AEB010E946A1C94
:103960008F3F11F481E008C00E94833A6C1B7D0BED
:103970006017710798F380E0DF91CF911F910F914D
:103980000895FC01673020F086E1858380E008958A
:103990006330B9F0643028F4613069F0623070F45B
:1039A00007C06530A1F0653078F06630A9F412C028
:1039B00084E090E011C080E090E00EC085E090E0EF
:1039C0000BC081E090E008C086E090E005C082E096
:1039D00090E002C083E090E00E94341881E00895F6
:1039E000FC01848160E00E94183C0895FC01848100
:1039F00061E00E94183C0895CF92DF92EF92FF920F
:103A00000F931F93CF93DF937C016A01FC018485A0
:103A1000882319F40FEF1FEF30C000E010E040E002
:103A200050E0212F332727FD3A95F601E40FF51FCB
:103A3000808190E0282739273070C901F4E09595FE
:103A40008795FA95E1F782279327102F00270827FB
:103A500019279C01322F22273295307F0227132706
:103A600025E0880F991F2A95E1F7082719274F5F4E
:103A70005F4FF2E040305F07A1F6862F0E94311CB5
:103A8000C0E0D0E0F601EC0FFD1F80810E94311CE8
:103A9000219682E0C030D807A9F7812F992787FDAA
:103AA0009A950E94311C802F0E94311C0E946A1C32
:103AB000F70182878F71853011F481E007C081E1C1
:103AC000F7018583C7010E94F61C80E0DF91CF914A
:103AD0001F910F91FF90EF90DF90CF9008950F937B
:103AE0001F93CF93DF93EC010E94833A8B0109C0AF
:103AF0000E94833A601B710B6D52714010F08FE091
:103B00000AC00E946A1C8A878F3F91F38E3F11F48E
:103B100081E006C08DE08D83CE010E94F61C80E01E
:103B2000DF91CF911F910F910895CF93DF93EC0117
:103B30008E81882319F40FC00E946A1C8F8198859A
:103B4000019698878F83019782509240A8F3CE0107
:103B50000E94F61C1E82DF91CF910895DF92EF92B2
:103B6000FF920F931F93CF93DF93EC01D62E790131
:103B70008A010E94951DCE010E94F01CCE016CE2CC
:103B800071E00E94A61C8D2D80640E94311C812F43
:103B90009927AA27BB270E94311CC801AA27BB2747
:103BA0000E94311CBB27A12F902F8F2D0E94311C0A
:103BB0008E2D0E94311CDD2011F485E906C088E0BD
:103BC000D81611F487E801C08FEF0E94311C10E075
:103BD0000E946A1C8A8787FF02C01150C9F7DF91D3
:103BE000CF911F910F91FF90EF90DF900895CF92AA
:103BF000DF92EF92FF920F931F93CF93DF93EC012D
:103C00007A018B016901411551056105710511F4B6
:103C100082E133C08B85833039F039E0EE0CFF1C34
:103C2000001F111F3A95D1F7CE0168E1A801970155
:103C30000E94AE1D882311F084E01FC0CE016EEFFC
:103C4000A6010E94FC1C8823C9F0CE0168E572E041
:103C50000E94A61C882311F485E10FC0CE016DE0FF
:103C600020E030E040E050E00E94AE1D882321F4C7
:103C70000E946A1C882379F084E18D83CE010E9422
:103C8000F61C80E0DF91CF911F910F91FF90EF9094
:103C9000DF90CF900895CE010E94F61C81E0F2CF14
:103CA0006F927F928F929F92AF92BF92CF92DF924C
:103CB000EF92FF920F931F93CF93DF93EC015A0182
:103CC0006B01390148010115110509F46AC0C801E9
:103CD000820F931F8150924008F05EC08E8188232E
:103CE00071F088819981AA81BB81481759076A07B9
:103CF0007B0729F48F8198856816790650F5A8828C
:103D0000B982CA82DB828B85833039F0E9E0AA0C64
:103D1000BB1CCC1CDD1CEA95D1F7CE0161E1A601EC
:103D200095010E94AE1D882319F083E08D8334C075
:103D3000CE010E946F1D882379F118861F8281E0D1
:103D40008E8307C00E946A1C8F8198850196988790
:103D50008F838F81988586159705A0F300E010E08A
:103D600008C00E946A1CF701E00FF11F80830F5FFB
:103D70001F4F08151905A8F32F813885280D391D07
:103D800038872F838985882319F02050324048F0E6
:103D9000CE010E94951D05C0CE010E94F61C80E058
:103DA00001C081E0DF91CF911F910F91FF90EF90C3
:103DB000DF90CF90BF90AF909F908F907F906F904B
:103DC0000895EF92FF920F931F93790120E030E066
:103DD00000E012E00E94501E1F910F91FF90EF90A3
:103DE0000895BF92CF92DF92EF92FF920F931F93AD
:103DF000CF93DF93EC01B62E1E2D1B8619861E82F3
:103E00001D821C864C832093930E0093940EE092A7
:103E1000890E0E94833A6B018C8161E00E94653BB0
:103E2000CE010E94F61C1F3F09F462C08091940EDF
:103E300060E00E94653B8091930E61E00E94653BCB
:103E40008091890E61E00E94653BE091890E2E2FE2
:103E5000332727FD3095F901E95EFD4FE491F0E04D
:103E6000EE0FFF1FED51FE4F8591949190938B0EB5
:103E700080938A0E235A3D4FF901849180938C0ED2
:103E8000E091930E2E2F332727FD3095F901E95E3F
:103E9000FD4FE491F0E0EE0FFF1FED51FE4F8591D5
:103EA000949190938E0E80938D0E235A3D4FF9017D
:103EB000849180938F0EE091940E2E2F332727FD4F
:103EC0003095F901E95EFD4FE491F0E0EE0FFF1F40
:103ED000E350FE4F859194919093910E8093900EB4
:103EE000235A3D4FF90184918093920E10E006C051
:103EF0000E94451883E00E943418F8CF8FEF0E948B
:103F0000311C1F5F1A30D1F7CE010E94F01C09C08E
:103F10000E94833A6C197D09615D774010F081E061
:103F20005AC0CE0160E020E030E040E050E00E9466
:103F3000AE1D182F8A87813059F7CE0168E02AEA32
:103F400031E040E050E00E94AE1D82FF02C01B87BE
:103F50000DC010E00E946A1C8A871F5F1430D1F7E1
:103F60008A3A11F082E037C082E08B878B858230FD
:103F700021F0EE24FF2487010FC0E12CF12C012D4C
:103F8000F0E41F2F09C00E94833A6C197D09615D1E
:103F9000774010F088E01FC0CE0167E320E030E0FA
:103FA00040E050E00E94AE1DCE0169E2A8019701F9
:103FB0000E94AE1D8A87882331F78B858230F1F409
:103FC000CE016AE320E030E040E050E00E94AE1D08
:103FD000882339F086E08D83CE010E94F61C80E0B4
:103FE0001AC00E946A1C807C803C11F483E08B879D
:103FF0000E946A1C0E946A1C0E946A1CCE010E94D8
:10400000F61C8091890E8F3F11F081E004C0CE0133
:104010006B2D0E94C11CDF91CF911F910F91FF90DA
:10402000EF90DF90CF90BF900895CF93DF93EC0196
:10403000DB0180E090E020E2FD01E80FF91F208322
:1040400001968B309105C1F757E040E021C02E3238
:1040500019F08DEA91E007C05A3019F15AE048E0B2
:1040600017C03217F1F0FC01019634913323C9F7E0
:104070005417B8F02132A8F02F3798F4822F8156C8
:104080008A3108F42052FD01E40FF11D20834F5FB7
:1040900029912223E1F690E08C91803219F091E091
:1040A00001C090E0892FDF91CF9108956F927F92A8
:1040B0008F929F92AF92BF92CF92DF92EF92FF9238
:1040C0000F931F93CF93DF93EC017A018B012D8126
:1040D000222309F480C08B899C89AD89BE8984170D
:1040E0009507A607B70708F476C085C0E114F10468
:1040F0000105110549F41E821F82188619861A8649
:104100001B861C861D8665C02A853B854C855D8582
:10411000EB8DFC8D858590E0099621503040404024
:10412000504039014A01082E04C096948794779430
:1041300067940A94D2F72F5F3F4F4F4F5F4F089419
:10414000E108F108010911095701680104C0D6947A
:10415000C794B794A7948A95D2F70894E11CF11CF0
:10416000011D111DA614B704C804D90428F0211597
:1041700031054105510549F48F89988DA98DBA8D76
:104180008E839F83A887B98716C0A618B708C8086A
:10419000D90811C04E815F81688579858B8D9C8D92
:1041A00094010E94302A0894A108B108C108D108DE
:1041B000882331F410C086E0882E912C8C0E9D1E31
:1041C000A114B104C104D10429F7EA86FB860C8747
:1041D0001D8781E001C080E0DF91CF911F910F9199
:1041E000FF90EF90DF90CF90BF90AF909F908F9017
:1041F0007F906F900895223009F078CFE6CFCF936B
:10420000DF93EC01462F6E857F85888999890E940E
:104210001428882319F420E030E00AC08A89282F66
:1042200030E095E0220F331F9A95E1F72956314F80
:10423000C901DF91CF9108950F931F93CF93DF931F
:104240008C01FC0185818823D9F1848187FF35C0E9
:10425000C80161E00E94FF20EC01009789F1F8019C
:104260008581823040F483899489A589B6898C8FB1
:104270009D8FAE8FBF8FF8018789908D9B8F8A8F1E
:104280008789908DA18DB28DCD01AA27BB279D8BEB
:104290008C8BE091950EF091960E309751F0BE0107
:1042A0006A5E7F4FCE0148961995888D998D9B8BBC
:1042B0008A8BF80184818F7784830E94B52701C09F
:1042C00080E0DF91CF911F910F910895CF93DF93FD
:1042D000EC010E941C21882311F01D8281E0DF91F6
:1042E000CF9108956F927F928F929F92AF92BF92DB
:1042F000CF92DF92EF92FF920F931F93DF93CF93B2
:1043000000D00F92CDB7DEB77C015A016B01DC0102
:1043100015968C911597813009F08FC014968C9169
:1043200081FF8BC09EC00097A105B10511F481E00B
:1043300085C0F7016284738484849584C701B601C3
:10434000A5010E945620882309F477C0D7015B9607
:104350008D919C915C97A114B104C104D10489F49E
:1043600057964D915D916D917C915A970E94A32A29
:10437000882309F462C0F701178A108E118E128EFD
:104380003DC0D70116964D915D916D917C91199725
:104390009E012F5F3F4F0E94302A882309F44DC0B1
:1043A000D7015B96ED91FC915C9749815A816B81B5
:1043B0007C818789803129F088EF9FEFAFEFBFE0E4
:1043C00004C088EF9FEFA0E0B0E0481759076A07E4
:1043D0007B07A0F4CF010E94A32A882371F1F70183
:1043E0004681578160857185838D948D0FEF1FEF16
:1043F0002FEF3FE00E9494298823F9F0D7015396CC
:10440000AD92BD92CD92DC92569714968C911497F2
:10441000806814968C93C7010E941C21882369F040
:10442000B601A5016A147B048C049D0410F4B40148
:10443000A301C7010E94562001C080E00F900F9099
:104440000F900F90CF91DF911F910F91FF90EF9000
:10445000DF90CF90BF90AF909F908F907F906F90A4
:104460000895F70183899489A589B68984179507EA
:10447000A607B70708F057CFE0CF2F923F924F9291
:104480005F926F927F928F929F92AF92BF92CF92E4
:10449000DF92EF92FF920F931F93CF93DF93EC0184
:1044A0002A018D81882309F4C6C08C8180FFC3C096
:1044B000D8C025014E185F084B0176E0272E312C1D
:1044C0002C0E3D1E3201B1C02A853B854C855D8591
:1044D0006FEFA62E61E0B62EA222B3228D81790164
:1044E0008A0199E016950795F794E7949A95D1F784
:1044F000EB8DFC8D823049F4428D538D648D758D2A
:104500004E0D5F1D601F711F3FC0D480DA94DE2006
:10451000A114B104D9F4DD20C9F4211531054105F8
:10452000510549F48F89988DA98DBA8D8E839F830B
:10453000A887B9870BC04E815F8168857985CF01D7
:1045400091010E94302A882309F475C0EB8DFC8DFF
:104550004E815F816885798542505040604070404F
:10456000058404C0440F551F661F771F0A94D2F7B5
:1045700086859785A089B189480F591F6A1F7B1FBF
:104580004D0D511D611D711D80E092E08A199B093E
:1045900063018615970508F46C018C8186FD06C0C1
:1045A00080E0C81682E0D80609F073C08091240B21
:1045B0009091250BA091260BB091270B4817590716
:1045C0006A077B0709F465C0809197109091981055
:1045D0009501860174010E94501E882361F18C0CA4
:1045E0009D1C12C095012956314FA9014C0D5D1D2E
:1045F000D401F90102C081918D93E417F507D9F731
:10460000E21BF30B8E0E9F1E960140E050E08A8560
:104610009B85AC85BD85820F931FA41FB51F8A871C
:104620009B87AC87BD876C187D086114710409F005
:104630004BCFA20102C04FEF5FEFCA01DF91CF91D4
:104640001F910F91FF90EF90DF90CF90BF90AF90B0
:104650009F908F907F906F905F904F903F902F90A2
:104660000895AB88BC88CD88DE88EA84FB840C85FD
:104670001D859A0140E050E0D601C5018E199F09C1
:10468000A00BB10B82179307A407B50708F411CF4D
:1046900013CFCB01BA0140E00E941428882309F00F
:1046A000A1CFC9CFCF92DF92EF92FF920F931F93CA
:1046B000DF93CF930F92CDB7DEB76C01FC018581FC
:1046C000823070F0E284F38404851585C601BE0152
:1046D0006F5F7F4F41E050E00E943D22019769F0FB
:1046E00020E030E0C9010F90CF91DF911F910F9131
:1046F000FF90EF90DF90CF900895F601828593852B
:10470000A485B5854F96A11DB11D82879387A48787
:10471000B587F5E016950795F794E794FA95D1F7E4
:104720008E2D8F70282F30E0E5E0220F331FEA95A1
:10473000E1F72956314FD6CF0F931F93CF93DF93D5
:10474000EC018B018D81882309F041C0FB01878931
:104750008031B1F482E08D831F8A188E198E1A8EF3
:10476000808D918DA0E0B0E045E0880F991FAA1FD1
:10477000BB1F4A95D1F78B8B9C8BAD8BBE8B15C025
:10478000803229F583E08D83FB01428D538D648D4A
:10479000758D4F8B588F698F7A8F9E012D5E3F4F9D
:1047A000C8010E94FC2A882391F01C8F0B8F81E0A6
:1047B0008C831E821F82188619861A861B861C8689
:1047C0001D861E861F86188A198A1A8A01C080E0F3
:1047D000DF91CF911F910F9108951F93CF93DF9396
:1047E000EC01142FE62FF0E075E0EE0FFF1F7A9535
:1047F000E1F7E956F14F8385817121F0842F8274AE
:1048000009F054C06A8B8091240B9091250BA091E4
:10481000260BB091270B8E879F87A88BB98B848935
:104820009589A0E0B0E0BC0155274427828D938D87
:10483000A0E0B0E0482B592B6A2B7B2B4F8B588F75
:10484000698F7A8F838590E088719070009751F41A
:10485000848D958DA68DB78D8B8B9C8BAD8BBE8BF0
:1048600081E00CC0409711F59E012D5E3F4F8B8D6E
:104870009C8D0E94FC2A8823C9F084E08D83812FBF
:104880008F708C831E821F82188619861A861B865B
:104890001C861D8616FD02C081E009C0CE0140E0E5
:1048A00050E060E070E00E94722101C080E0DF9182
:1048B000CF911F910895CF93DF93EC019C012A5F64
:1048C0003F4F8B8D9C8D41E050E060E070E00E9496
:1048D0006B2B8823A1F08F89988DA98DBA8D0097B5
:1048E000A105B10559F48E819F81A885B9858F8B6B
:1048F000988FA98FBA8F8C8180688C8381E0DF913B
:10490000CF9108952F923F924F925F927F928F9214
:104910009F92AF92BF92CF92DF92EF92FF920F934E
:104920001F93DF93CF9300D000D0CDB7DEB76C01DB
:10493000162F072F5E834D83DC0115968C911597FA
:10494000813009F070C114968C9181FF6CC18EC1C9
:10495000F601438954896589768982859385A48582
:10496000B58584179507A607B70731F0C6010E94E1
:104970005620882309F457C1812F902F9C012901CB
:104980002D803E8017C1D6015B96ED91FC915C971E
:10499000DA01C90119E0B695A795979587951A95FB
:1049A000D1F774807A9478227FEF872E71E0972E6A
:1049B00082229322772009F04EC08114910409F0DD
:1049C0004AC0D60116964D915D916D917C911997D3
:1049D000411551056105710581F457968D919D91A1
:1049E0000D90BC91A02D0097A105B10549F1F601EC
:1049F00086839783A087B1872EC0CF019E012F5F4A
:104A00003F4F0E94302A882309F414C129813A813A
:104A10004B815C81D6015B96ED91FC915C97878917
:104A2000803129F088EF9FEFAFEFBFE004C088EF3F
:104A30009FEFA0E0B0E0281739074A075B0730F086
:104A4000C6010E945B24882331F4EDC0F601268361
:104A500037834087518780E092E088199909510196
:104A60008215930508F45C01D6015B96ED91FC91EB
:104A70005C971696ED90FD900D911C9119978EEF15
:104A80009FEFAFEFBFEFE80EF91E0A1F1B1F058453
:104A900004C0EE0CFF1C001F111F0A94D2F786857C
:104AA0009785A089B189E80EF91E0A1F1B1FE70C24
:104AB000F11C011D111D90E0A91692E0B90651F5F7
:104AC0008091240B9091250BA091260BB091270B80
:104AD0008E159F05A007B10761F48FEF9FEFAFEF31
:104AE000BFEF8093240B9093250BA093260BB093DC
:104AF000270B8091971090919810B801A70192010F
:104B00000E94F71D882309F48EC0A0E0B2E04A0E8F
:104B10005B1E3EC08114910409F5F60122853385A0
:104B20004485558583899489A589B68928173907CD
:104B30004A075B0798F00E94B527882309F473C0E1
:104B4000E092240BF092250B0093260B1093270B79
:104B50008091991081608093991008C0C801B701B5
:104B600041E00E941428882309F45DC0940129566D
:104B7000314FA9014A0D5B1DD201F90102C08D918F
:104B80008193E417F507D9F7E21BF30B4E0E5F1E76
:104B90002A183B08950140E050E0F6018285938594
:104BA000A485B585820F931FA41FB51F82879387A5
:104BB000A487B587D6011A962D913D914D915C91B0
:104BC0001D972114310409F0DECE53968D919D91ED
:104BD0000D90BC91A02D82179307A407B50748F448
:104BE000F601238B348B458B568B848180688483BC
:104BF00011C08091950E9091960E892B59F08D8160
:104C00009E81892B39F0D60114968C911497806877
:104C100014968C93F601848183FF0EC0C6010E9416
:104C20001C21882349F481E090E0D60113969C93DF
:104C30008E9312971E821D828D819E8126960FB6BD
:104C4000F894DEBF0FBECDBFCF91DF911F910F91C2
:104C5000FF90EF90DF90CF90BF90AF909F908F909C
:104C60007F905F904F903F902F90089582FD70CE7F
:104C700083CEDF93CF930F92CDB7DEB76983BE01AA
:104C80006F5F7F4F41E050E00E9482240F90CF91F0
:104C9000DF910895DF92EF92FF920F931F93CF93CE
:104CA000DF93EC010E945B24882309F44EC0EB8D56
:104CB000FC8DEE80FF80088519858EEF9FEFAFEFAA
:104CC000BFEFE80EF91E0A1F1B1F058404C0EE0C7F
:104CD000FF1C001F111F0A94D2F786859785A089B3
:104CE000B189E80EF91E0A1F1B1FD4800894E10841
:104CF000F108010911090BC0C801B7016D0D711D43
:104D0000811D911D0E94F0278823F9F0DA94DD209F
:104D100099F7EB8DFC8D20E032E040E050E0058417
:104D200004C0220F331F441F551F0A94D2F78B89EA
:104D30009C89AD89BE89820F931FA41FB51F8B8BE1
:104D40009C8BAD8BBE8B81E001C080E0DF91CF9169
:104D50001F910F91FF90EF90DF9008956F927F92D7
:104D60008F929F92AF92BF92CF92DF92EF92FF927B
:104D70000F931F93DF93CF93CDB7DEB72B970FB66B
:104D8000F894DEBF0FBECDBF5C016B01822EDC014B
:104D900015968C91882309F0D2C0CA018E010F5F4D
:104DA0001F4FB8010E941520882309F4C8C0F601DE
:104DB000838D948DD5015C969C938E935B97168220
:104DC000178210861186D6011A961D921D921D9289
:104DD0001C921D979924380141C0C6010E9452239C
:104DE000FC01009709F4ABC085E016950795F79490
:104DF000E7948A95D1F71E2D1F708081882311F0CA
:104E0000853ED1F4992091F4D50152961C93529786
:104E10002091240B3091250B4091260B5091270BAC
:104E20001E962D933D934D935C93519780818823DB
:104E300099F49924939421C0C301BF014BE050E041
:104E40000E940A02009751F4882D8073803309F480
:104E500076C0C501612F6FC099249394F601E28456
:104E6000F3840485158583899489A589B689E81614
:104E7000F9060A071B0708F4B0CF882D827182312A
:104E800009F05DC0992041F0C50161E00E94FF205A
:104E90008C01009789F453C0D60115968C9182300D
:104EA00009F44DC0C6010E944A26882309F447C070
:104EB000F501128A07E91EE080E2D8011D928A9569
:104EC000E9F7D801FE0131968BE001900D928150F7
:104ED000E1F7E091950EF091960E309739F0B80118
:104EE000625F7F4FC8014096199509C081E298E240
:104EF000F801918B808B80E098E097878687D801B6
:104F000050968D919C91519753969C938E93529766
:104F100059969C938E9358971E968D919C911F97AE
:104F200057969C938E9356970E94B527882339F005
:104F3000C501F5016289482D0E94ED2301C080E082
:104F40002B960FB6F894DEBF0FBECDBFCF91DF9189
:104F50001F910F91FF90EF90DF90CF90BF90AF9097
:104F60009F908F907F906F900895809199108823E3
:104F700099F14091240B5091250B6091260B709173
:104F8000270B809197109091981027E93EE00E949E
:104F9000F71D882319F140919A1050919B10609150
:104FA0009C1070919D10411551056105710591F09E
:104FB000809197109091981027E93EE00E94F71D8C
:104FC000882361F010929A1010929B1010929C10FE
:104FD00010929D101092991081E0089580E008953C
:104FE000EF92FF920F931F937B018C010E94B527D4
:104FF0008823A9F0E7E9FEE0119280E1E739F8079C
:10500000D9F7E092240BF092250B0093260B109316
:10501000270B8091991081608093991081E01F91F6
:105020000F91FF90EF900895DF92EF92FF920F9310
:105030001F937B018C01D42E8091240B9091250B22
:10504000A091260BB091270B8E159F05A007B107E5
:10505000C1F00E94B5278823D9F0809197109091D4
:105060009810B801A70127E93EE00E94E11E8823BD
:1050700079F0E092240BF092250B0093260B10930D
:10508000270B809199108D298093991081E001C0A0
:1050900080E01F910F91FF90EF90DF9008958F9225
:1050A0009F92AF92BF92CF92DF92EF92FF920F93B7
:1050B0001F93CF93DF936C01142F7093981060931C
:1050C0009710442321F488249924540140C045308A
:1050D00008F01CC160E070E080E090E040E00E94D9
:1050E0001428882309F412C1C12FD0E02197FE01B2
:1050F00074E0EE0FFF1F7A95E1F7E956F14FE254A5
:10510000FE4F8081EE5BF14090E08F779070892BAD
:1051100009F0FCC0E653FE4F80819181A281B381EA
:1051200084369105A105B10508F4F0C064E0CC0F08
:10513000DD1F6A95E1F7C35ADF4E88809980AA8007
:10514000BB8081149104A104B10409F4DFC0C5013E
:10515000B40140E00E941428882309F4D7C080914C
:10516000A20E9091A30E8050924009F0CFC02091E2
:10517000A70E222309F4CAC08091A50E9091A60E15
:10518000892B09F4C3C08091A40E882309F4BEC002
:10519000F601228B8091A40E8483158661E070E075
:1051A00007C04F5FF60145874150483008F0AEC058
:1051B000F6014585848190E09B01042E02C0220FF8
:1051C000331F0A94E2F78217930759F72091AD0E27
:1051D0003091AE0E2115310519F040E050E008C0C5
:1051E0002091BB0E3091BC0E4091BD0E5091BE0E71
:1051F000F6012583368347835087E090A50EF09013
:10520000A60E00E010E0E80CF91C0A1D1B1DE38A45
:10521000F48A058B168B8091A80E9091A90E918F20
:10522000808F6091A70E70E080E090E00E94B6470A
:105230006E0D7F1D801F911FF601628F738F848F0B
:10524000958F2091A80E3091A90E55E0220F331FA3
:105250005A95E1F721503E4F232F3327269540E002
:1052600050E0260F371F481F591F26873787408B6E
:10527000518B8091AA0E9091AB0E009719F0A0E08F
:10528000B0E008C08091B70E9091B80EA091B90E11
:10529000B091BA0E85017401E21AF30A040B150BE2
:1052A000A8019701280F391F4A1F5B1FF6010584CB
:1052B00004C056954795379527950A94D2F72187CC
:1052C000328743875487253FFFE03F07F0E04F07D1
:1052D000F0E05F0710F48CE006C0255F3F4F4040D0
:1052E000504028F480E1F601878B81E010C0809166
:1052F000C30E9091C40EA091C50EB091C60EF601DA
:10530000828F938FA48FB58F80E2EECF80E0DF9104
:10531000CF911F910F91FF90EF90DF90CF90BF90B2
:10532000AF909F908F9008954F925F926F927F926F
:105330008F929F92AF92BF92CF92DF92EF92FF92A5
:105340000F931F93CF93DF93EC016A017B01280138
:105350003901423051056105710508F46FC0898536
:105360009A85AB85BC850196A11DB11D8417950753
:10537000A607B70708F462C02B893C894D895E896E
:105380008F89803129F499278F2D7E2D6D2D09C0AD
:10539000C701B60117E096958795779567951A9599
:1053A000D1F74B015C01820E931EA41EB51E8091A5
:1053B000240B9091250BA091260BB091270B8816FA
:1053C0009906AA06BB0639F0C501B40140E00E9467
:1053D0001428882399F18F89803149F4F601F070FF
:1053E000EE0FFF1FE956F14F518240820DC0F601CA
:1053F000EF77F070EE0FFF1FEE0FFF1FE956F14F32
:105400004082518262827382809199108160809380
:1054100099108A89823080F08D819E81AF81B88514
:10542000880E991EAA1EBB1E80929A1090929B1005
:10543000A0929C10B0929D1081E001C080E0DF91AD
:10544000CF911F910F91FF90EF90DF90CF90BF9081
:10545000AF909F908F907F906F905F904F90089546
:10546000CF92DF92EF92FF920F931F93CF93DF9330
:10547000EC017A018B01690189859A85AB85BC8530
:105480000196A11DB11D84179507A607B70708F45B
:1054900050C02B893C894D895E898F89803129F4E0
:1054A0009927812F702F6F2D09C0C801B701E7E040
:1054B0009695879577956795EA95D1F7260F371FCB
:1054C000481F591F8091240B9091250BA091260B0A
:1054D000B091270B281739074A075B0739F0CA0133
:1054E000B90140E00E941428882319F18F89803186
:1054F00059F4F701F070EE0FFF1FE956F14F80816C
:105500009181A0E0B0E00EC0F701EF77F070EE0FF0
:10551000FF1FEE0FFF1FE956F14F80819181A2819D
:10552000B381BF70F60180839183A283B38381E04E
:1055300001C080E0DF91CF911F910F91FF90EF901C
:10554000DF90CF900895AF92BF92CF92DF92EF920B
:10555000FF920F931F93DF93CF9300D00F92CDB79D
:10556000DEB76C017A018B0182E090E0A0E0B0E050
:10557000F60180839183A283B3835E010894A11C0A
:10558000B11CC601B801A70195010E94302A8823E9
:1055900019F1C601B801A70100E010E020E030E0F9
:1055A0000E9494298823C1F0E980FA800B811C8134
:1055B000F6018789803129F088EF9FEFAFEFBFE0D8
:1055C00004C088EF9FEFA0E0B0E0E816F9060A07F4
:1055D0001B07B8F281E001C080E00F900F900F90A0
:1055E0000F90CF91DF911F910F91FF90EF90DF907F
:1055F000CF90BF90AF9008954F925F926F927F923D
:105600008F929F92AF92BF92CF92DF92EF92FF92D2
:105610000F931F93DF93CF9300D00F92CDB7DEB7D8
:105620006C0149835A836B837C833901EE24FF2408
:1056300087012E010894411C511C812CA2E09A2E56
:10564000A12CB12C49815A816B817C81C6019201C8
:105650000E94302A882351F1D501C401F601058446
:1056600004C0880F991FAA1FBB1F0A94D2F7E80E27
:10567000F91E0A1F1B1F29813A814B815C81878992
:10568000803129F088EF9FEFAFEFBFE004C088EFD3
:105690009FEFA0E0B0E0281739074A075B0790F2B8
:1056A000F301E082F1820283138381E00F900F9077
:1056B0000F900F90CF91DF911F910F91FF90EF907E
:1056C000DF90CF90BF90AF909F908F907F906F9022
:1056D0005F904F9008952F923F924F925F926F92FA
:1056E0007F928F929F92AF92BF92CF92DF92EF9272
:1056F000FF920F931F93DF93CF93CDB7DEB72F9712
:105700000FB6F894DEBF0FBECDBF1C014A875B8782
:105710006C877D873F872E87D9010D911D912D9133
:105720003C91011511052105310549F04801590148
:105730000894811C911CA11CB11C198610C0FC018D
:1057400080809180A280B38019868A859B85AC85F4
:10575000BD850197A105B10511F491E09987D101AB
:1057600019968D919D910D90BC91A02D0196A11D32
:10577000B11D8D839E83AF83B88775016401442476
:10578000552432018E010F5F1F4FF10181859285F3
:10579000A385B485481659066A067B0608F090C0B2
:1057A0008D819E81AF81B8858C159D05AE05BF05A5
:1057B00050F482E0882E912CA12CB12CB2E0CB2E9B
:1057C000D12CE12CF12CC101B701A60198010E9456
:1057D000302A882309F474C089819A81AB81BC8105
:1057E000A70196012F5F3F4F4F4F5F4F0097A105D5
:1057F000B10519F049015A010DC0281939094A09A2
:105800005B098A859B85AC85BD85281739074A07C2
:105810005B0759F00894411C511C611C711C0894D1
:10582000C11CD11CE11CF11CB0CFC101A601B70104
:105830000FEF1FEF2FEF3FE00E949429882399F488
:105840003FC02601370108944108510861087108DA
:10585000C101B301A201970186010E949429882306
:1058600079F1730162018C149D04AE04BF0448F306
:10587000AE85BF854D915D916D917C91411551052E
:105880006105710539F0C101950184010E949429D7
:105890008823B1F0EE85FF8580829182A282B38257
:1058A000F985FF2359F00894811C911CA11CB11C9F
:1058B000D1018D929D92AD92BC92139781E001C06F
:1058C00080E02F960FB6F894DEBF0FBECDBFCF910C
:1058D000DF911F910F91FF90EF90DF90CF90BF90DD
:1058E000AF909F908F907F906F905F904F903F9080
:1058F0002F900895DC0187E0A03DB80710F0A05D6F
:10590000B74050E02DEB31E091E007C0F901849100
:10591000480F511D9F5F2F5F3F4F9617B8F36330BD
:1059200038F0CD0183709070892B11F44F5F5F4F79
:105930008DE691E0A89F9001A99F300DB89F300D92
:105940001124215030401396B695A795B695A7958A
:105950002A0F3B1F240F351FC9010895CF92EF92E4
:105960000F93FC0187E0603D780710F0605D7740A1
:1059700060834D3008F04CE04183203208F02FE185
:105980002283083108F007E103838E2D8D3308F060
:105990008CE384838C2D8D3308F08CE385830F9109
:1059A000EF90CF900895CF93DF93FC01DB01EB01E3
:1059B000299619968C91199780538A3008F080E0C7
:1059C000298120533AE0839FC0011124280F2083AE
:1059D0008C918A34A9F08B343CF48434D9F1863428
:1059E000F9F08134C9F51EC08E3491F18F341CF466
:1059F0008D3491F520C08F3449F1833569F524C089
:105A000011968C911197813611F481E024C0129681
:105A10008C9112978E3611F486E01DC087E01BC072
:105A200082E019C012968C911297823711F088E0AB
:105A300012C084E010C012968C911297823711F038
:105A400085E009C083E007C089E005C0318304C058
:105A50008BE001C08CE08183ED01249614966C915B
:105A600060536A3008F060E0298120538AE0689F23
:105A7000C0011124280F2283DA019C9190539A309F
:105A800008F090E0EA01298120538AE0989FC00144
:105A90001124280F2383DA0113969B8190539A30A7
:105AA00008F090E011962C9120538AE0989FC00155
:105AB0001124280F2483DA011696EA014E814053FF
:105AC0004A3008F040E011962C9120538AE0489F1C
:105AD000C0011124280F2583DF91CF9108950F93E2
