:100000000C947A010C94B0370C94E1370C941238AC
:100010000C9443380C9474380C94A5380C94D6384E
:100020000C9407390C94A7010C94A7010C94A70118
:100030000C94A7010C94A7010C94A7010C94A701A0
:100040000C94A7010C94A7010C94A7010C94A70190
:100050000C94A7010C94F5320C94A7010C94383938
:100060000C94A7010C94F03C0C941C3E0C94A7013A
:100070000C94A7010C94A7010C94A7010C94A70160
:100080000C94A7010C94A7010C94A7010C94A70150
:100090000C942C3D0C94503E0C94A7010C948B15A1
:1000A0000C94A7010C94A7010C94A7010C94A70130
:1000B0000C94A7010C94A7010C94A7010C94A70120
:1000C0000C94A7010C94A7010C94A7010C94683D13
:1000D0000C94843E0C94A7010C94A43D0C94B83E5F
:1000E0000C94A70107634236B79BD8A71A39685604
:1000F00018AEBAAB558C1D3CB7CC5763BD6DEDFD4A
:10010000753EF6177231BF000000803F0800000006
:10011000BE922449123EABAAAA2ABECDCCCC4C3EFC
:1001200000000080BEABAAAAAA3E00000000BF00EB
:100130000000803F0000000000084178D3BB4387E7
:10014000D1133D190E3CC3BD4282AD2B3E68EC82FB
:1001500076BED98FE1A93E4C80EFFFBE01C4FF7F80
:100160003F000000000056533130353320666F7574
:100170006E6400436F756C646E27742066696E64EC
:10018000205653313035332C20646F20796F752021
:10019000686176652074686520726967687420708C
:1001A000696E7320646566696E65643F007C3C3EE1
:1001B0005E2B3D3F2F5B5D3B2C2A225C001F1C1FEA
:1001C0001E1F1E1F1F1E1F1E1F00002100240027B0
:1001D000002A002D00300033000101000004010757
:1001E000010A0100002200250028002B002E00310A
:1001F00000340002010000050108010B010000208D
:10020000002300260029002C002F003200000100EE
:100210000003010601090105050505070508080891
:1002200008020202020A0A08080404040401010187
:10023000010101010103030303030303030407078F
:10024000070C0C0C0C0C0C0C0C020202020606062D
:1002500006060606060B0B0B0B0B0B0B0B01021015
:1002600020200808102040102040800201020108D0
:100270000402010102040810204080804020100880
:1002800004020180040201804020100804020108D9
:100290000402010102040810204080010204081039
:1002A0002040800000090A02080B0C0D0706030419
:1002B000010000000000000000000000000000003D
:1002C000000000000000000000000000000000111D
:1002D000100F0000000000000000000000000000FF
:1002E000000000000000000000008A052714AD187F
:1002F000F93F830511241FBECFEFD1E2DEBFCDBF92
:1003000000E00CBF1BE0A0E0B2E0EAECFEE800E099
:100310000BBF02C007900D92A831B107D9F71BBEE1
:1003200012E1A8E1BBE001C01D92AF3DB107E1F7CA
:1003300012E0C2EFD2E004C02297FE010E941D47E6
:10034000CA3ED107C9F70E942F410C9458470C941C
:100350000000A0E0B0E0EFEAF1E00C942947EC01E6
:10036000A880B980CA80DB80A114B104C104D10483
:1003700041F484E2A82E89EDB82E8BE5C82E87E0E3
:10038000D82EC601B5012DE133EF41E050E00E94C7
:10039000004727EA31E440E050E00E94B3467B0189
:1003A0008C01C601B5012DE133EF41E050E00E9420
:1003B0000047CA01B9012CEE34EF4FEF5FEF0E9406
:1003C000B3466E0D7F1D801F911F97FF04C06150C3
:1003D000704080409048688379838A839B839B0127
:1003E000AC015F77B901CA01CDB7DEB7EAE00C9482
:1003F00045470E94A901089586EA9AE00E94A90152
:1004000008956093A60A7093A70A8093A80A909310
:10041000A90A0895FB01DC0104C08D9101908019A7
:1004200021F441505040C8F7881B990B0895FC01F6
:100430008191861721F08823D9F79927089531975C
:10044000CF010895FB01DC014150504048F001907C
:100450000D920020C9F701C01D9241505040E0F7B5
:1004600008950F931F93CF93DF938C01EB016115D8
:10047000710581F0DC011F96ED91FC91509730974A
:1004800031F0CE011D966D917C911E971995F80162
:10049000D687C587DF91CF911F910F910895DF9384
:1004A000CF93CDB7DEB72D970FB6F894DEBF0FBE52
:1004B000CDBFE091A20BF091A30B9E012F5F3F4FA8
:1004C000AF018DE0DA010D90AD01D9010D929D01D2
:1004D0008150C1F78091F60C9091F70C8F31910506
:1004E00089F18032910524F44E9709F044C035C05B
:1004F0008032910519F18197F1F5A885B98510979A
:1005000059F0CE0101961C969C938E931B97A78160
:10051000B085109761F40FC02091A60B3091A70B06
:100520002115310541F1CF01F901199524C01C961F
:10053000FC93EE931B976781708519C085E99BE05A
:10054000BC0117C0A581B681109721F01C96FC93C1
:10055000EE931B97658176810AC0A185B2851097BD
:1005600021F01C96FC93EE931B976185728585E9BB
:100570009BE00E9431021092F70C1092F60C2D961F
:100580000FB6F894DEBF0FBECDBFCF91DF910895B7
:1005900083E090E09093F20C8093F10C0895EF9239
:1005A0000F938130910509F09EC26F5F7F4F09F074
:1005B000A7C288E19BE00E94B82D8AE19BE060E041
:1005C0000E94683485E39BE069E04AE028E003E0AC
:1005D00034E0E32E0E9421338AE79BE00E947417E7
:1005E00080E092E09093960B8093950B1092970B7E
:1005F00010929F0B10929E0B10929D0B10929C0BD1
:1006000010929B0B10929A0B1092990B1092980BD0
:1006100085E99BE09093A30B8093A20B84EF96E077
:100620009093A50B8093A40B89EC9AE09093A70B71
:100630008093A60B89E092E09093A90B8093A80B7E
:100640001092AA0B1092B20B1092B10B1092B00B39
:100650001092AF0B1092AE0B1092AD0B1092AC0B30
:100660001092AB0B8CE192E09093B60B8093B50B9C
:100670001092B70B1092BF0B1092BE0B1092BD0BD5
:100680001092BC0B1092BB0B1092BA0B1092B90BCC
:100690001092B80B89E292E09093C30B8093C20B47
:1006A0001092C40B1092CC0B1092CB0B1092CA0B71
:1006B0001092C90B1092C80B1092C70B1092C60B68
:1006C0001092C50B87E392E09093D00B8093CF0BF1
:1006D0001092D10B1092D90B1092D80B1092D70B0D
:1006E0001092D60B1092D50B1092D40B1092D30B04
:1006F0001092D20B84E492E09093DD0B8093DC0B9C
:100700001092DE0B1092E60B1092E50B1092E40BA8
:100710001092E30B1092E20B1092E10B1092E00B9F
:100720001092DF0B82E592E09093EA0B8093E90B45
:100730001092EB0B1092F30B1092F20B1092F10B44
:100740001092F00B1092EF0B1092EE0B1092ED0B3B
:100750001092EC0B83E692E09093F70B8093F60BEC
:100760001092F80B1092000C1092FF0B1092FE0BDF
:100770001092FD0B1092FC0B1092FB0B1092FA0BD7
:100780001092F90B85E792E09093040C8093030C90
:100790001092050C10920D0C10920C0C10920B0C78
:1007A00010920A0C1092090C1092080C1092070C6F
:1007B0001092060C84E892E09093110C8093100C38
:1007C0001092120C10921A0C1092190C1092180C14
:1007D0001092170C1092160C1092150C1092140C0B
:1007E0001092130C84E992E090931E0C80931D0CE0
:1007F00010921F0C1092270C1092260C1092250CB0
:100800001092240C1092230C1092220C1092210CA6
:100810001092200C89EA92E090932B0C80932A0C82
:1008200010922C0C1092340C1092330C1092320C4B
:100830001092310C1092300C10922F0C10922E0C42
:1008400010922D0C82EB92E09093380C8093370C31
:100850001092390C1092410C1092400C10923F0CE7
:1008600010923E0C10923D0C10923C0C10923B0CDE
:1008700010923A0C8DEB92E09093450C8093440CCF
:100880001092460C10924E0C10924D0C10924C0C83
:1008900010924B0C10924A0C1092490C1092480C7A
:1008A0001092470C87EC92E09093520C8093510C7D
:1008B0001092530C10925B0C10925A0C1092590C1F
:1008C0001092580C1092570C1092560C1092550C16
:1008D0001092540C89ED92E090935F0C80935E0C23
:1008E0001092600C1092680C1092670C1092660CBB
:1008F0001092650C1092640C1092630C1092620CB2
:100900001092610C85EE92E090936C0C80936B0CCE
:1009100010926D0C1092750C1092740C1092730C56
:100920001092720C1092710C1092700C10926F0C4D
:1009300010926E0C80EF92E09093790C8093780C7B
:1009400010927A0C1092820C1092810C1092800CF2
:1009500010927F0C10927E0C10927D0C10927C0CE9
:1009600010927B0C8DEF92E09093860C8093850C17
:100970001092870C10928F0C10928E0C10928D0C8E
:1009800010928C0C10928B0C10928A0C1092890C85
:100990001092880C8BE093E09093930C8093920CD0
:1009A0001092940C10929C0C10929B0C10929A0C2A
:1009B0001092990C1092980C1092970C1092960C21
:1009C0001092950C89E193E09093A00C80939F0C7A
:1009D0001092A10C1092A90C1092A80C1092A70CC6
:1009E0001092A60C1092A50C1092A40C1092A30CBD
:1009F0001092A20C8CE293E09093AD0C8093AC0C1F
:100A00001092AE0C1092B60C1092B50C1092B40C61
:100A10001092B30C1092B20C1092B10C1092B00C58
:100A20001092AF0C8BE393E09093BA0C8093B90CC7
:100A30001092BB0C1092C30C1092C20C1092C10CFD
:100A40001092C00C1092BF0C1092BE0C1092BD0CF4
:100A50001092BC0C8AE493E09093C70C8093C60C70
:100A60001092C80C1092D00C1092CF0C1092CE0C99
:100A70001092CD0C1092CC0C1092CB0C1092CA0C90
:100A80001092C90C89E593E09093D40C8093D30C19
:100A90001092D50C1092DD0C1092DC0C1092DB0C35
:100AA0001092DA0C1092D90C1092D80C1092D70C2C
:100AB0001092D60C8EE593E09093E10C8093E00CBD
:100AC0001092E20C1092EA0C1092E90C1092E80CD1
:100AD0001092E70C1092E60C1092E50C1092E40CC8
:100AE0001092E30C0DC0892B59F46F5F7F4F41F4D6
:100AF0008AE79BE00E9487178DE59BE00E9487179D
:100B00000F91EF90089580E090E06FEF7FEF0E94EB
:100B1000CF02089581E090E06FEF7FEF0E94CF0257
:100B20000895CF92DF92EF92FF920F931F93CF938E
:100B3000DF9381E20E94483BEC018091F80C909198
:100B4000F90CC817D90751F00E9480396093000D45
:100B50007093010D8093020D9093030D0E948039D4
:100B60002091000D3091010D4091020D5091030D27
:100B7000621B730B840B950B2091B60A3091B70A58
:100B80004091B80A5091B90A261737074807590704
:100B900018F0CC24DD240BC00E9480396093000D36
:100BA0007093010D8093020D9093030D6E01D0930D
:100BB000F90CC093F80C80E20E94483BEC01809154
:100BC000FA0C9091FB0CC817D90751F00E9480399C
:100BD0006093040D7093050D8093060D9093070D9F
:100BE0000E9480392091040D3091050D4091060D31
:100BF0005091070D621B730B840B950B2091B60A65
:100C00003091B70A4091B80A5091B90A26173707B0
:100C10004807590718F0EE24FF240BC00E948039C2
:100C20006093040D7093050D8093060D9093070D4E
:100C30007E01D093FB0CC093FA0C8FE10E94483BDD
:100C4000EC018091FE0C9091FF0CC817D90751F070
:100C50000E94803960930C0D70930D0D80930E0DE2
:100C600090930F0D0E94803920910C0D30910D0D45
:100C700040910E0D50910F0D621B730B840B950B61
:100C80002091B60A3091B70A4091B80A5091B90A3A
:100C9000261737074807590718F000E010E00BC087
:100CA0000E94803960930C0D70930D0D80930E0D92
:100CB00090930F0D8E01D093FF0CC093FE0C8EE12C
:100CC0000E94483BEC018091FC0C9091FD0CC817F0
:100CD000D90751F00E9480396093080D7093090D77
:100CE00080930A0D90930B0D0E9480392091080D7E
:100CF0003091090D40910A0D50910B0D621B730B41
:100D0000840B950B2091B60A3091B70A4091B80A2E
:100D10005091B90A261737074807590718F080E09D
:100D200090E00BC00E9480396093080D7093090D0C
:100D300080930A0D90930B0DCE01D093FD0CC093C0
:100D4000FC0C21E0C216D10419F481E290E011C03C
:100D500021E0E216F10419F480E290E00AC00130CB
:100D6000110519F48FE190E004C0019739F48EE188
:100D700090E09093F70C8093F60C04C01092F70C5F
:100D80001092F60CDF91CF911F910F91FF90EF9091
:100D9000DF90CF900895EF92FF920F931F934AE157
:100DA000E42E4BE0F42EC70160E040E00E940836DC
:100DB00001E713E0C701B8010E940843C701B80169
:100DC0000E940843C701B8010E940843C701B80147
:100DD0000E940843C70160E040E00E9408361F916E
:100DE0000F91FF90EF9008950F931F93DF93CF9390
:100DF000CDB7DEB72D970FB6F894DEBF0FBECDBFCF
:100E0000DE011196FC018DE001900D928150E1F719
:100E100009811A818AE19BE060E042E00E94083685
:100E2000A091950BB091960BF80105C031968C916D
:100E3000981729F4119690819923C1F7DFC082E0B9
:100E40000930180729F48AE19BE066E873E0DCC00A
:100E500082E00C31180729F48AE19BE06BE973E02A
:100E6000D3C082E00932180729F48AE19BE060EBE5
:100E700073E0CAC082E00733180729F48AE19BE0D7
:100E800065EC73E0C1C082E00434180729F48AE1FC
:100E90009BE06AED73E0B8C082E00235180729F4E0
:100EA0008AE19BE06FEE73E0AFC082E00336180783
:100EB00029F48AE19BE064E074E0A6C082E0053793
:100EC000180729F48AE19BE069E174E09DC082E0A3
:100ED0000438180729F48AE19BE06EE274E094C0BC
:100EE00082E00439180721F48AE19BE0B8018CC044
:100EF00082E0093A180729F48AE19BE063E474E090
:100F000083C082E0023B180729F48AE19BE068E590
:100F100074E07AC082E00D3B180729F48AE19BE077
:100F20006DE674E071C082E0073C180729F48AE19D
:100F30009BE062E874E068C082E0093D180729F48C
:100F40008AE19BE067E974E05FC082E0053E180734
:100F500029F48AE19BE06CEA74E056C082E0003F2D
:100F6000180729F48AE19BE061EC74E04DC082E04F
:100F70000D3F180729F48AE19BE066ED74E044C058
:100F800083E00B30180729F48AE19BE06BEE74E0F4
:100F90003BC083E00931180729F48AE19BE060E057
:100FA00075E032C083E00C32180729F48AE19BE037
:100FB00065E175E029C083E00B33180729F48AE165
:100FC0009BE06AE275E020C083E00A34180729F448
:100FD0008AE19BE06FE375E017C083E009351807ED
:100FE00029F48AE19BE064E575E00EC00E551340DC
:100FF00069F48AE19BE069E675E006C00E94CB06D1
:101000008AE19BE06EE775E00E9408432D960FB6DB
:10101000F894DEBF0FBECDBFCF91DF911F910F912E
:1010200008950E94CB068AE19BE060E041E00E94C7
:1010300008368AE19BE063E975E00E94084385E990
:101040009BE09093AC0B8093AB0B88EA9BE0909372
:101050009D0B80939C0B8091B30B9091B40B892BCB
:1010600041F48091A00B9091A10B9093B40B8093CD
:10107000B30B88EA9BE09093270C8093260C8DE1BC
:101080009CE09093AE0B8093AD0B8091280C9091D7
:10109000290C892B41F48091B30B9091B40B909360
:1010A000290C8093280C8DE19CE09093B60C8093E2
:1010B000B50C8CEA9CE09093230C8093220C8091D9
:1010C000B70C9091B80C892B41F48091280C909129
:1010D000290C9093B80C8093B70C8CEA9CE0909309
:1010E000DD0C8093DC0C83ED9CE09093B20C80933C
:1010F000B10C8091DE0C9091DF0C892B41F4809132
:10110000B70C9091B80C9093DF0C8093DE0C88EABA
:101110009BE09093B90B8093B80B85EB9BE0909389
:10112000B00B8093AF0B8091C00B9091C10B892BBA
:1011300041F48091B30B9091B40B9093C10B8093C9
:10114000C00B85EB9BE09093CC0B8093CB0B82EC98
:101150009BE09093BB0B8093BA0B8091CD0B909149
:10116000CE0B892B41F48091C00B9091C10B9093D1
:10117000CE0B8093CD0B82EC9BE09093D90B8093A8
:10118000D80B8FEC9BE09093C80B8093C70B80919A
:10119000DA0B9091DB0B892B41F48091CD0B909170
:1011A000CE0B9093DB0B8093DA0B8FEC9BE090934C
:1011B000E60B8093E50B8CED9BE09093D50B809331
:1011C000D40B8091E70B9091E80B892B41F480912F
:1011D000DA0B9091DB0B9093E80B8093E70B8CED8F
:1011E0009BE09093F30B8093F20B89EE9BE090933E
:1011F000E20B8093E10B8091F40B9091F50B892B1E
:1012000041F48091E70B9091E80B9093F50B80935C
:10121000F40B89EE9BE09093000C8093FF0B86EF1C
:101220009BE09093EF0B8093EE0B8091010C9091DB
:10123000020C892B41F48091F40B9091F50B909363
:10124000020C8093010C86EF9BE090930D0C809331
:101250000C0C83E09CE09093FC0B8093FB0B809143
:101260000E0C90910F0C892B41F48091010C909100
:10127000020C90930F0C80930E0C83E09CE09093F3
:101280001A0C8093190C80E19CE09093090C8093D8
:10129000080C80911B0C90911C0C892B41F48091BF
:1012A0000E0C90910F0C90931C0C80931B0C8DE1F5
:1012B0009CE090932E0C80932D0C8AE29CE09093FE
:1012C000250C8093240C8091350C9091360C892B41
:1012D00041F48091280C9091290C9093360C8093C6
:1012E000350C8AE29CE09093410C8093400C87E39C
:1012F0009CE09093300C80932F0C8091420C909145
:10130000430C892B41F48091350C9091360C9093CD
:10131000430C8093420C87E39CE090934E0C8093A7
:101320004D0C84E49CE090933D0C80933C0C8091A8
:101330004F0C9091500C892B41F48091420C90916C
:10134000430C9093500C80934F0C84E49CE090935A
:101350005B0C80935A0C81E59CE090934A0C80933F
:10136000490C80915C0C90915D0C892B41F480912B
:101370004F0C9091500C90935D0C80935C0C81E528
:101380009CE09093680C8093670C8EE59CE09093B2
:10139000570C8093560C8091690C90916A0C892BA4
:1013A00041F480915C0C90915D0C90936A0C809359
:1013B000690C8EE59CE09093750C8093740C8BE621
:1013C0009CE09093640C8093630C8091760C9091D8
:1013D000770C892B41F48091690C90916A0C909361
:1013E000770C8093760C8BE69CE09093820C809334
:1013F000810C88E79CE09093710C8093700C809135
:10140000830C9091840C892B41F48091760C9091FF
:10141000770C9093840C8093830C88E79CE09093E6
:101420008F0C80938E0C85E89CE090937E0C8093CB
:101430007D0C8091900C9091910C892B41F48091BE
:10144000830C9091840C9093910C8093900C85E880
:101450009CE090939C0C80939B0C82E99CE0909381
:101460008B0C80938A0C80919D0C90919E0C892B03
:1014700041F48091900C9091910C90939E0C8093EC
:101480009D0C82E99CE09093A90C8093A80C8FE9B5
:101490009CE09093980C8093970C8091AA0C90916B
:1014A000AB0C892B41F480919D0C90919E0C9093F4
:1014B000AB0C8093AA0C8CEA9CE09093BD0C8093BB
:1014C000BC0C89EB9CE09093B40C8093B30C80919E
:1014D000C40C9091C50C892B41F48091B70C90916C
:1014E000B80C9093C50C8093C40C89EB9CE090934E
:1014F000D00C8093CF0C86EC9CE09093BF0C809333
:10150000BE0C8091D10C9091D20C892B41F480912A
:10151000C40C9091C50C9093D20C8093D10C83EDA8
:101520009CE09093E40C8093E30C80EE9CE090931D
:10153000DB0C8093DA0C8091EB0C9091EC0C892BF6
:1015400041F48091DE0C9091DF0C9093EC0C809331
:10155000EB0C85E99BE0BC010E94310260E273E084
:1015600080E090E00E94FA398AE19BE060E043E08D
:101570000E9408368AE19BE064EA75E00E94084315
:1015800064EF71E080E090E00E94FA390E94CB069F
:1015900008950F93CF93DF93EC010E94CB068AE16D
:1015A0009BE060E040E00E9408368AE19BE067ED46
:1015B00075E00E9408438AE19BE060E041E00E9400
:1015C0000836688179818AE19BE00E94084368EBD4
:1015D0007BE080E090E00E94FA3985E99BE0BC0165
:1015E0000E943102888199818E55934071F483E580
:1015F00090E169EE75E00E940B4385E090E09093E6
:10160000F20C8093F10C0E94CB06888199818D5F4A
:10161000924069F58DE261E00E94153B80ED9DE00E
:101620000E94D01880ED9DE064E04FEF2FEF0FEFA8
:101630000E94161B83E590E160E176E00E940B4377
:1016400085E39BE066E276E00E9485328091780B2C
:10165000882309F0B1C08DE260E00E94153B85E06F
:1016600090E09093F20C8093F10C0E94CB0688815D
:1016700099818B50934071F58DE261E00E94153B9A
:1016800080ED9DE00E94D01880ED9DE064E04FEF7A
:101690002FEF0FEF0E94161B83E590E163E376E0E6
:1016A0000E940B4385E39BE069E476E00E9485326B
:1016B00068EB7BE080E090E00E94FA398DE260E028
:1016C0000E94153B85E090E09093F20C8093F10C22
:1016D0000E94CB06888199818951934071F58DE2F2
:1016E00061E00E94153B80ED9DE00E94D01880EDE6
:1016F0009DE064E04FEF2FEF0FEF0E94161B83E594
:1017000090E166E576E00E940B4385E39BE061E7AC
:1017100076E00E94853268EB7BE080E090E00E94FA
:10172000FA398DE260E00E94153B85E090E09093ED
:10173000F20C8093F10C0E94CB06888199818D5B1D
:101740009240D1F483E090E09093EE0C8093ED0C06
:1017500083E590E16EE776E00E940B4368EE73E06C
:1017600080E090E00E94FA3985E090E09093F20CDE
:101770008093F10C0E94CB0688819981875C92400E
:10178000E1F484E090E09093EE0C8093ED0C83E51F
:1017900090E169E976E00E940B4368EE73E080E037
:1017A00090E00E94FA3985E090E09093F20C8093EB
:1017B000F10C0E94CB0601C0FFCFDF91CF910F91BA
:1017C00008950E94CB068AE19BE060E041E00E9420
:1017D00008368AE19BE068EB76E00E94084385E3E7
:1017E0009BE00E943B32882339F483E590E163E774
:1017F00071E00E94B341FFCF83E590E166E671E0BE
:101800000E94B34185E39BE062E042E00E944431E4
:1018100085E39BE065E00E94473385E39BE066E259
:1018200076E00E94853260E273E080E090E00E9402
:10183000FA398AE19BE060E043E00E9408368AE1E1
:101840009BE064EA75E00E94084308950F93DF93DC
:10185000CF93CDB7DEB76B970FB6F894DEBF0FBE50
:10186000CDBF0E94CB068AE19BE060E041E00E9490
:1018700008368AE19BE06AEC76E00E94084383E543
:1018800090E166ED76E00E94084380ED9DE065E31F
:101890004FEF2FEF0FEF0E94161B882339F483E5DB
:1018A00090E16EEE76E00E940B43FFCF83E590E17E
:1018B0006AE077E00E940B43CE01019660ED7DE087
:1018C0004CE157E023E10E94F1198B819C819093B8
:1018D0007D0B80937C0B8D819E81AF81B885809339
:1018E0007E0B90937F0BA093800BB093810B898527
:1018F0009A85AB85BC858093820B9093830BA093D4
:10190000840BB093850BA6E8BBE0FE013D968DE00D
:1019100001900D928150E1F78A8D9B8D9093940BED
:101920008093930BCE0101960E9487178AE79BE074
:101930000E94C917882339F483E590E168E277E0D3
:101940000E940B43FFCF60E273E080E090E00E94D2
:10195000FA398AE19BE060E043E00E9408368AE1C0
:101960009BE064EA75E00E9408436B960FB6F8941A
:10197000DEBF0FBECDBFCF91DF910F910895EF92E3
:10198000FF920F931F9353E5E52E50E1F52EC7010B
:1019900062E477E00E9408430AE11BE0C80164E1C9
:1019A00044E020E00E944C360E94CB06C8016DE561
:1019B00077E00E940843C70164EA75E00E940B4388
:1019C0001F910F91FF90EF900895DF93CF930F92A7
:1019D000CDB7DEB783E590E16DE677E00E9408437E
:1019E0000E94CB068AE19BE060E041E00E9408365D
:1019F0008AE19BE06AE877E00E94084388E19BE087
:101A00000E948E3088E19BE0BE016F5F7F4F0E9495
:101A1000192E882399F083E590E16CE977E00E9424
:101A2000084383E590E1698140E150E00E948442EF
:101A300083E590E16FEA77E00E940B431092F30C8C
:101A400083E590E160EC77E00E940B4388E19BE046
:101A50006091F30C42E024EF3CE00E94352F83E5D7
:101A600090E16EEC77E00E940B4388E19BE00E94DE
:101A70004F2F64E670E080E090E00E94FA3988E140
:101A80009BE061E045E00E94F92E882331F083E578
:101A900090E169ED77E00E940B4388E19BE06CE206
:101AA00071E040ED57E00E94D92E882331F083E5A4
:101AB00090E16FEF77E00E940B4360E273E080E01B
:101AC00090E00E94FA3983E590E164EA75E00E94B3
:101AD0000B438AE19BE060E043E00E9408368AE124
:101AE0009BE064EA75E00E9408430F90CF91DF917C
:101AF0000895CF92DF92EF92FF920F931F9373E5B9
:101B0000C72E70E1D72EC6016CE278E00E94084330
:101B10000E94CB066AE1E62E6BE0F62EC70160E07C
:101B200041E00E940836C70161E478E00E94084362
:101B300085E361E00E94623A86E161E00E94623AD8
:101B40008EE160E00E94623A8FE160E00E94623ABA
:101B500080E260E00E94623A81E260E00E94623AC4
:101B600082E260E00E94623A82E060E00E94623AB3
:101B700082E160E00E94623A88E261E00E94623A9B
:101B800089E261E00E94623A8CE060E00E94623A81
:101B90008DE261E00E94623A85E361E00E94623A70
:101BA00060E273E080E090E00E94FA3904EA15E018
:101BB000C601B8010E940B43C70160E043E00E94E8
:101BC0000836C701B8010E9408431F910F91FF908A
:101BD000EF90DF90CF900895CF92DF92EF92FF9237
:101BE0000F931F93DF93CF93CDB7DEB768970FB6F0
:101BF000F894DEBF0FBECDBF83E590E163E578E0EA
:101C00000E9408430E94CB068AE19BE060E041E02D
:101C10000E9408368AE19BE063E778E00E9408436F
:101C20000E94E12C0E94E32C2B8B3C8B4D8B5E8B16
:101C30006F8B788FDE011196FE01739686E001901E
:101C40000D928150E1F7E7E0CE2ED12CCC0EDD1EB7
:101C5000C60168E878E044E958E00E94EB2BCE0129
:101C600001960E94872C7B018C01C6010E94872C63
:101C7000E616F7060807190768F48E01035F1F4F81
:101C8000C80168E878E044E958E00E94EB2BC801FD
:101C90000E94652D60E273E080E090E00E94FA39D6
:101CA00083E590E164EA75E00E940B438AE19BE0E2
:101CB00060E043E00E9408368AE19BE064EA75E058
:101CC0000E94084368960FB6F894DEBF0FBECDBFE2
:101CD000CF91DF911F910F91FF90EF90DF90CF9008
:101CE00008950F931F93082F803414F00FE302C060
:101CF00087FD00E083E590E16DE978E00E9408430C
:101D0000112707FD109583E590E1B8014AE050E006
:101D10000E94E94286E59DE06BE470E00E94ED13CD
:101D200086E59DE0602F0E946F1486E59DE00E948D
:101D3000B21490E0882309F491E0892F1F910F914C
:101D400008958091AA0A0E94710E882331F483E5D8
:101D500090E160EB78E00E940B4386E161E00E9435
:101D6000153B60ED77E080E090E00E94FA3986E173
:101D700060E00E94153B8DE260E00E94153B0895F3
:101D80000F931F93682F06E51DE0C8010E94E3131F
:101D9000C8016FE60E946F14C8010E94B2141F911F
:101DA0000F910895DF92EF92FF920F931F93382FB8
:101DB000F62EE42ED22E06E51DE0C801632F0E9408
:101DC000E313C80160E70E946F14C8016F2D0E94E1
:101DD0006F14C8016E2D0E946F14C8016D2D0E94F2
:101DE0006F14C8010E94B2141F910F91FF90EF90E1
:101DF000DF900895DF92EF92FF920F931F93382F99
:101E0000F62EE42ED22E06E51DE0C801632F0E94B7
:101E1000E313C80163E60E946F14C8016F2D0E948E
:101E20006F14C8016E2D0E946F14C8016D2D0E94A1
:101E30006F14C8010E94B2141F910F91FF90EF9090
:101E4000DF9008950F931F93CF93DF9383E590E185
:101E500069ED78E00E940B430E94CB068AE19BE08B
:101E600060E041E00E9408368AE19BE06FEF78E095
:101E70000E94084389E361E00E94623A88E361E0DE
:101E80000E94623A89E361E00E94153B88E360E0CA
:101E90000E94153B64E670E080E090E00E94FA3911
:101EA00086E59DE00E94C7140BEA1AE0C0E0D0E08E
:101EB00083E590E160E179E00E940843219683E5A3
:101EC00090E1BE014AE050E00E94E9428AE19BE0D5
:101ED00060E042E00E9408368AE19BE060E179E040
:101EE0000E9408438AE19BE0BE014AE050E00E9464
:101EF000D642F801808162E140E020E00E94D20EEB
:101F000060ED77E080E090E00E94FA39F80180818E
:101F10000E94C00EF80181918F0160E040E020E056
:101F20000E94FA0ECB30D10519F668EC70E080E023
:101F300090E00E94FA398AE19BE065E179E00E9435
:101F4000084383E590E16FE179E00E940B43DF9164
:101F5000CF911F910F9108954F925F926F927F9250
:101F60008F929F92AF92BF92CF92DF92EF92FF92A9
:101F70000F931F93DF93CF93CDB7DEB7CA54D040F2
:101F80000FB6F894DEBF0FBECDBF8091F10C9091DB
:101F9000F20C8430910509F434C1853091053CF48C
:101FA0008230910581F0039709F0CDC307C18630D7
:101FB000910509F41EC2863091050CF427C10797DC
:101FC00009F0C1C30BC30E94E32CDE01AB5BBF4F22
:101FD0002C93FE01EA5BFF4F3083FE01E95BFF4F6C
:101FE0004083FE01E85BFF4F5083FE01E75BFF4F3C
:101FF0006083FE01E65BFF4F70839E01275F3F4FCA
:10200000FD0186E00190D9010D929D018150D1F72B
:10201000BE84CD84DC84EB84FA8409858AE19BE06C
:1020200060E00E943F3683E590E167E779E00E9437
:10203000084310E00053184F83E590E1B8014AE0EF
:1020400050E00E94564283E590E16FE20E948B418E
:1020500083E590E16F2D4AE050E00E94844283E5E1
:1020600090E16FE20E948B4183E590E16E2D4AE0A2
:1020700050E00E94844283E590E160E20E948B413F
:1020800083E590E16D2D4AE050E00E94844283E5B3
:1020900090E16AE30E948B4183E590E16C2D4AE078
:1020A00050E00E94844283E590E16AE30E948B4104
:1020B00083E590E16B2D4AE050E00E9484428AE182
:1020C0009BE060E041E00E9408368AE19BE0B801B5
:1020D0004AE050E00E9456428AE19BE06FE20E9493
:1020E0008B418AE19BE06F2D4AE050E00E948442E0
:1020F0008AE19BE06FE20E948B418AE19BE06E2DBA
:102100004AE050E00E9484428AE19BE060E20E9443
:102110008B418AE19BE06D2D4AE050E00E948442B1
:102120008AE19BE06AE30E948B418AE19BE06C2D8F
:102130004AE050E00E9484428AE19BE06AE30E9408
:102140008B418AE19BE06B2D4AE050E00E94844283
:1021500088E19BE0BE016D5F7F4FAE014F5F5F4F37
:102160000E946A2E882309F183E590E16EE879E008
:102170000E9408436B817C8183E590E14AE050E056
:102180000E9467424091F40C5091F50C2B813C81E8
:1021900009811A8188E19BE06091F30CB5E0EB2E98
:1021A000F12CEC0EFD1E0E94542F8B819C818C52D1
:1021B000914008F0C8C286E090E0C1C283E590E19A
:1021C00067E979E00E940B4388E19BE00E94B92D0A
:1021D00084E00E9484370E94CB068AE19BE061E0A4
:1021E0000E943F368AE19BE060E040E00E940836B2
:1021F0008AE19BE06EE775E00E94084384E090E08E
:102200009EC20E9491050E944F029DC283E590E10B
:1022100068EC79E00E940B430E94E32CDE01AB5B8B
:10222000BF4F2C93FE01EA5BFF4F3083FE01E95B59
:10223000FF4F4083FE01E85BFF4F5083FE01E75BE9
:10224000FF4F6083FE01E65BFF4F70839E01275FB7
:102250003F4FFD0186E00190D9010D929D01815013
:10226000D1F780ED9DE00E94D01880ED9DE065E300
:102270004FEF2FEF0FEF0E94161BCE010F9660ED70
:102280007DE04CE157E023E10E94F11989899A89A8
:1022900090937D0B80937C0B8B899C89AD89BE8943
:1022A00080937E0B90937F0BA093800BB093810B58
:1022B0008F89988DA98DBA8D8093820B9093830B13
:1022C000A093840BB093850BA6E8BBE0FE017B9640
:1022D0008DE001900D928150E1F788A599A590932A
:1022E000940B8093930BCE010F960E9487176985FC
:1022F00070E06053784F8AE79BE04AE050E00E942C
:1023000056428AE79BE06FE20E948B418AE79BE09E
:102310006A854AE050E00E9484428AE79BE06FE2CF
:102320000E948B418AE79BE06B854AE050E00E9467
:1023300084428AE79BE060E20E948B418AE79BE04F
:102340006C854AE050E00E9484428AE79BE06AE3A1
:102350000E948B418AE79BE06D854AE050E00E9435
:1023600084428AE79BE06AE30E948B418AE79BE014
:102370006E854AE050E00E9484428AE79BE06BEE63
:1023800079E00E9408438AE79BE066E07AE00E94D9
:1023900008436091ED0C7091EE0C8AE79BE04AE0F7
:1023A00050E00E94D6428AE79BE066E07AE00E9415
:1023B00008436091EF0C7091F00C8AE79BE04AE0D3
:1023C00050E00E94E9428AE79BE00E94E8178AE712
:1023D0009BE00E94D61780ED9DE00E94D01884E01B
:1023E00068EC72E041E050E00E94083782E090E043
:1023F000A6C183E590E168E07AE00E940B430E9469
:10240000E32CDE01AB5BBF4F2C93FE01EA5BFF4F79
:102410003083FE01E95BFF4F4083FE01E85BFF4F25
:102420005083FE01E75BFF4F6083FE01E65BFF4FD9
:1024300070839E01275F3F4FFD0186E00190D90127
:102440000D929D018150D1F780ED9DE00E94D01842
:1024500080ED9DE065E34FEF2FEF0FEF0E94161B1D
:10246000CE018A9660ED7DE04CE157E023E10E94C9
:10247000F1198CA59DA590937D0B80937C0B8EA567
:102480009FA5A8A9B9A980937E0B90937F0BA093D9
:10249000800BB093810B8AA99BA9ACA9BDA980939D
:1024A000820B9093830BA093840BB093850BA6E8CB
:1024B000BBE0FE01F6968DE001900D928150E1F7B0
:1024C000FE01ED5BFF4F808191819093940B80938F
:1024D000930BCE018A960E948717698570E060533E
:1024E000784F8AE79BE04AE050E00E9456428AE734
:1024F0009BE06FE20E948B418AE79BE06A854AE09D
:1025000050E00E9484428AE79BE06FE20E948B4188
:102510008AE79BE06B854AE050E00E9484428AE7AC
:102520009BE060E20E948B418AE79BE06C854AE079
:1025300050E00E9484428AE79BE06AE30E948B415C
:102540008AE79BE06D854AE050E00E9484428AE77A
:102550009BE06AE30E948B418AE79BE06E854AE03C
:1025600050E00E9484428AE79BE060E67AE00E94A5
:1025700008438AE79BE06BEE79E00E9408438AE714
:102580009BE066E07AE00E9408436091ED0C709158
:10259000EE0C8AE79BE04AE050E00E94D6428AE7D0
:1025A0009BE066E07AE00E9408436091EF0C709136
:1025B000F00C8AE79BE04AE050E00E94E9428AE79B
:1025C0009BE00E94E8178AE79BE00E94D61780ED07
:1025D0009DE00E94D01887E090E0B1C084E068ECF4
:1025E00072E041E050E00E94083783E590E165E841
:1025F0007AE00E940B4360E070E080E090E023E12D
:1026000030E040E050E00E9447435B016C01809164
:10261000ED0C9091EE0C83309105D9F0813091054D
:1026200031F4ADE0AA2EB12CC12CD12C17C08230D0
:10263000910579F0049791F460E070E080E090E01B
:1026400023E130E040E050E00E9447435B016C0131
:1026500005C0F5E0AF2EB12CC12CD12C60E070E0AC
:1026600080E090E02BE030E040E050E00E94474303
:102670002B0164EF71E080E090E020ED37E040E076
:1026800050E00E9447433B014C018CE00E94483BD4
:10269000019749F560E070E080E090E022E330E0EF
:1026A00040E050E00E9447436A307105E4F461E085
:1026B00070E080E090E02CED35E040E050E00E94DA
:1026C00047437B018C0186E161E00E94153B0027B6
:1026D000F7FC0095102FC801B7010E94FA3986E176
:1026E00060E00E94153B82010555154FF80180817D
:1026F0006A2D40E020E00E94D20EC401B3010E9486
:10270000FA39D8018C910E94C00EF801808160E0F6
:1027100040E020E00E94FA0E88E19BE0BE016F5F7E
:102720007F4FAE014D5F5F4F0E946A2E882359F0A4
:1027300089819A818D52914030F085E090E09093AC
:10274000F20C8093F10CC65BDF4F0FB6F894DEBF3E
:102750000FBECDBFCF91DF911F910F91FF90EF90F2
:10276000DF90CF90BF90AF909F908F907F906F90B1
:102770005F904F90089583E590E140E05BE460E076
:1027800070E00E94EC3E0E94BF0C0E94EC0D0E9483
:10279000220F0E94790D0E94E50C0E94260C0E94D7
:1027A000E10B0E9411080E94A10E84E068EC72E027
:1027B00041E050E00E94083782E090E09093F20CF4
:1027C0008093F10C089581E08093550D6093320D54
:1027D0001092530D1092540D089581E08093550D81
:1027E0006093320D1092530D1092540D0895209164
:1027F000310D30E08091300D281B3109C901089559
:102800004091300D8091310D481718F02FEF3FEFB8
:102810000AC0E42FF0E0E05FF24F8081282F30E023
:102820004F5F4093300DC9010895E091300D8091C4
:10283000310DE81718F0EFEFFFEF06C0F0E0E05FB2
:10284000F24F8081E82FF0E0CF01089508951092B3
:10285000590D1092580D88EE93E0A0E0B0E08093FF
:102860005A0D90935B0DA0935C0DB0935D0D88ECB9
:102870009AE09093570D8093560D0895CF92DF9272
:10288000EF92FF920F931F93CF93DF937C016B0125
:102890008A018091550D8823A1F0C0E0D0E00DC0E1
:1028A000D701ED91FC91D601AC0FBD1F0190F081D5
:1028B000E02DC7016C9119952196C017D10780F3BF
:1028C00004C0CB01642F0E947015C801DF91CF9125
:1028D0001F910F91FF90EF90DF90CF900895DF93BD
:1028E000CF930F92CDB7DEB7FC0169838091550D70
:1028F0008823C9F08091540D803238F081E090E057
:102900009383828320E030E015C08091530DE82F3F
:10291000F0E0ED5CF24F998190838F5F8093530DCF
:102920008093540D05C0CE01019661E00E947015A0
:1029300021E030E0C9010F90CF91DF9108950F930E
:10294000062F8091320D63E37DE04091540D21E02C
:102950000E941B151092530D1092540D1092550D9C
:102960000F91089561E00E949F140895413208F08C
:1029700040E2862F60E17DE00E94D2141092300D7B
:102980008093310D089521E00E94B61408951092AD
:10299000300D1092310D1092530D1092540D0E9473
:1029A00020170895382F413210F040E042C0809146
:1029B000620D8823E1F791E09093620D2093640DFE
:1029C0008FEF8093CF0D10928A0D415040938B0D65
:1029D0004F5F9093630D8091630D330F832B809332
:1029E000630D8091650D813041F41092650D8091E9
:1029F000630D8093BB0085EC01C085EE8093BC0025
:102A00008091620D8130E1F380918A0D841710F47A
:102A100040918A0D20E030E00AC0FB01E20FF31F75
:102A2000D901A659B24F8C9180832F5F3F4F241755
:102A3000A0F3842F08950F931F93582F122F413224
:102A400010F081E04AC08091620D8823E1F782E0B6
:102A50008093620D0093640D8FEF8093CF0D1092E1
:102A60008A0D40938B0DAAE6BDE0FB0102C0819167
:102A70008D938E2F861B8417D0F31092630D809157
:102A8000630D550F852B8093630D8091650D81300B
:102A900041F41092650D8091630D8093BB0085EC2D
:102AA00001C085EE8093BC00112321F08091620D5E
:102AB0008230E1F38091CF0D8F3F11F480E00DC0A3
:102AC0008091CF0D803211F482E007C08091CF0D4C
:102AD000803311F084E001C083E01F910F910895CD
:102AE000482F613210F081E008958091620D8430AA
:102AF00011F082E008956093AD0DACE8BDE0842F45
:102B00009C01F90102C081918D938E2F841B861741
:102B1000D0F380E008951F920F920FB60F920BB67C
:102B20000F9211242F933F934F935F936F937F9353
:102B30008F939F93AF93BF93EF93FF938091B900CF
:102B400090E0887F90708036910509F4F2C081365C
:102B50009105CCF58832910509F47BC08932910545
:102B6000B4F48031910509F46FC0813191053CF4D2
:102B7000009709F447C1089709F04FC165C0883133
:102B8000910509F466C0809709F047C182C080347E
:102B9000910509F4A4C08134910544F48033910572
:102BA00009F482C0C89709F038C189C08035910501
:102BB00009F489C08835910509F496C088349105D7
:102BC00009F02BC1AEC08839910509F413C18939C8
:102BD0009105ECF48837910509F4ABC0893791056C
:102BE0004CF48836910509F4A4C08037910509F0AA
:102BF00014C19FC08838910509F4FCC08039910543
:102C000009F49DC08038910509F007C198C0803B48
:102C1000910509F4C6C0813B91054CF4803A9105B9
:102C200009F49FC0883A910509F0F7C0BAC0803C0A
:102C3000910509F4E3C0883C910509F4DFC0883BA5
:102C4000910509F0EAC0C2C08091630D8093BB007A
:102C5000CFC090918A0D80918B0D981768F4909158
:102C60008A0DE92FF0E0E659F24F80818093BB0096
:102C70009F5F90938A0DBCC08091640D882309F4F6
:102C80004BC085ED8093BC008091BC0084FDFCCFDF
:102C9000C2C080E28093CF0D85ED8093BC0080910F
:102CA000BC0084FDFCCFB7C080E38093CF0D85EDE1
:102CB0008093BC008091BC0084FDFCCFACC088E355
:102CC0008093CF0D9BC080918A0D9091BB00E82F1F
:102CD000F0E0E659F24F90838F5F80938A0D9091D8
:102CE0008A0D80918B0D82C080918A0D9091BB00DE
:102CF000E82FF0E0E659F24F90838F5F80938A0DC2
:102D00008091640D882341F085ED8093BC00809113
:102D1000BC0084FDFCCF7FC081E08093650D84EA18
:102D20006EC085ED8093BC008091BC0084FDFCCF1B
:102D300072C083E08093620D1092CE0D59C08091D5
:102D4000CE0D803208F056C08091CE0D9091BB0020
:102D5000E82FF0E0E255F24F90838F5F8093CE0D25
:102D600047C08091CE0D803230F4E091CE0DF0E07E
:102D7000E255F24F108285ED8093BC008091BC003B
:102D800084FDFCCF1092620D6091CE0DE091680D34
:102D9000F091690D8EEA9DE070E019951092CE0DCC
:102DA0002DC084E08093620D1092AC0D1092AD0D99
:102DB000E091660DF091670D19958091AD0D882316
:102DC00029F481E08093AD0D10928C0D9091AC0DA3
:102DD000E92FF0E0E457F24F80818093BB009F5FC2
:102DE0009093AC0D9091AC0D8091AD0D981710F4AF
:102DF00085EC01C085E88093BC000FC085EC809312
:102E0000BC0009C01092CF0D85ED8093BC0080916D
:102E1000BC0084FDFCCF1092620DFF91EF91BF9139
:102E2000AF919F918F917F916F915F914F913F9162
:102E30002F910F900BBE0F900FBE0F901F90189503
:102E40001092620D81E08093640D1092650D84E113
:102E500061E00E94153B85E161E00E94153BE9EBD2
:102E6000F0E080818E7F808380818D7F808388E405
:102E70008093B80085E48093BC000895882319F4FA
:102E80008CB5806202C08CB58F7D8CBD08959CB5D9
:102E9000937F982B9CBD08952CB5382F33702C7FD1
:102EA000322B3CBD2DB590E09595879595958795EE
:102EB00081702E7F822B8DBD089585E361E00E9495
:102EC000153B85E361E00E94623A8CB580618CBD60
:102ED0008CB580648CBD84E361E00E94623A83E338
:102EE00061E00E94623A0895FC011382128288EE2A
:102EF00093E0A0E0B0E084839583A683B78388ED58
:102F00009AE091838083128E118E14860895FC01BD
:102F100088ED9AE0918380830895DF93CF930F9299
:102F2000CDB7DEB7FC016983A081B18112962D91E6
:102F30003C911397BE016F5F7F4F41E050E0F90174
:102F400019950F90CF91DF910895DC015996ED917D
:102F5000FC915A97309719F420E030E018C023898B
:102F600034894589568982859385A485B585281B32
:102F7000390B4A0B5B0B2030B0E83B07B0E04B0746
:102F8000B0E05B0720F02FEF3FE740E050E0C901E1
:102F90000895DC015996ED91FC915A97309711F400
:102FA00080E008958581811181E00895CF93DF93BA
:102FB000EC01898D9A8D009741F00E947E20898DC9
:102FC0009A8D0E94573C1A8E198EDF91CF910895E9
:102FD000FC01818D928D009711F00E94342008959C
:102FE000FC01818D928D009719F420E030E003C040
:102FF0000E9455219C01C9010895DF93CF930F9240
:10300000CDB7DEB7FC01818D928D009749F0BE01EE
:103010006F5F7F4F41E050E00E945521019719F00A
:103020002FEF3FEF03C08981282F30E0C9010F90B7
:10303000CF91DF910895EF92FF920F931F93DF934B
:10304000CF930F92CDB7DEB77C01DC0159968D91FD
:103050009C915A97009719F400E010E01FC0BE0140
:103060006F5F7F4F41E050E00E945521019719F0BA
:103070000FEF1FEF13C08981082F10E0D701599679
:10308000ED91FC915A974285538564857585415031
:10309000504060407040CF010E946E1FC8010F90E9
:1030A000CF91DF911F910F91FF90EF900895CF93F3
:1030B000DF93EC01E98DFA8D309761F01382128273
:1030C000CF010E949A239C01E98DFA8D8281938120
:1030D000892B31F081E090E09B838A8320E030E00F
:1030E000C901DF91CF910895EF92FF920F931F9343
:1030F000CF93DF93EC01F62EE72E8A011B821A8212
:1031000088EE93E0A0E0B0E08C839D83AE83BF8324
:1031100088ED9AE0998388838DE190E00E94BA3B24
:103120009A8F898F009791F0DC018F2D9E2D9C0145
:10313000F9018DE101900D928150E1F7CE010C96DD
:10314000B8014CE050E00E942202188EDF91CF912E
:103150001F910F91FF90EF9008951092D50D10924E
:10316000D60D1092D90D1092DB0D82E090E0A0E018
:10317000B0E08093DD0D9093DE0DA093DF0DB09352
:10318000E00D1092F40D1092FE0D1092FD0D88EEE0
:103190009AE09093FC0D8093FB0D1092000E089521
:1031A0008B960E947E2008952F923F924F925F92BD
:1031B0006F927F928F929F92AF92BF92CF92DF9247
:1031C000EF92FF920F931F93DF93CF93CDB7DEB7AC
:1031D000C754D0400FB6F894DEBF0FBECDBF582EF7
:1031E000492EFB013A01190185A596A5998B888B7B
:1031F00028EE3AE03F872E8787A58A8B80A98B8BA4
:1032000081A992A9A3A9B4A98C8B9D8BAE8BBF8BEE
:1032100085A996A9A7A9B0AD888F998FAA8FBB8FD2
:1032200081AD92ADA3ADB4AD8C8F9D8FAE8FBF8FAE
:1032300085AD88A3FE9681919191A191B19189A3C9
:103240009AA3ABA3BCA381919191A191B1918DA3BC
:103250009EA3AFA3B8A7808191819AA789A71EA634
:103260001DA63CA72BA718AA7A018E01025F1F4F4B
:103270003BE2A32EB12CAC0EBD1E4E010894811C66
:10328000911C35C0D7018C918F3221F40894E11C38
:10329000F11C2DC0422F4E194D3008F04CE0C42EC9
:1032A000DD24C401B701A6010E942202F401EC0D45
:1032B000FD1D1082C5010E947E20C501B801A40138
:1032C00021E00E94C625882351F4E52DF42D1382B8
:1032D000128288EE9AE091838083158266C0EC0C9E
:1032E000FD1CC8010E947E20C50158018C01C70148
:1032F0006FE270E00E9417029C01009719F6E61831
:10330000F708F101F182E082E52DF42DD801129643
:103310008D919C9113979383828388EE9AE0918399
:10332000808314968C911497848315968C911597AD
:10333000858316962D913D914D915C911997268329
:103340003783408751871A962D913D914D915C911D
:103350001D9722873387448755871E962D913D916F
:103360004D915C91519726873787408B518B5296B0
:103370008C915297828B53962D913D914D915C91FA
:103380005697238B348B458B568B57962D913D91B9
:103390004D915C915A97278B308F418F528F5B965E
:1033A0008D919C915C97948F838F852D942DC95B13
:1033B000DF4F0FB6F894DEBF0FBECDBFCF91DF91C8
:1033C0001F910F91FF90EF90DF90CF90BF90AF9043
:1033D0009F908F907F906F905F904F903F902F9035
:1033E00008959F92AF92BF92CF92DF92EF92FF9299
:1033F0000F931F93DF93CF93CDB7DEB7C657D0405F
:103400000FB6F894DEBF0FBECDBFC82E992E8A012D
:10341000D22E43E0A42EB12CAC0EBD1EC501A801D6
:103420009E012F5F3F4F0E94D418E980FA80E00E82
:10343000F11EF701808148EE5AE02885882309F0C3
:103440003FC08D819E819BA38AA359A348A38F81EE
:103450008CA32DA389859A85AB85BC858EA39FA35C
:10346000A8A7B9A78D859E85AF85B8898AA79BA790
:10347000ACA7BDA789899A89AB89BC898EA79FA76C
:10348000A8ABB9AB8D898AAB8E899F89A88DB98D80
:103490008BAB9CABADABBEAB8A8D9B8DAC8DBD8D2C
:1034A0008FAB98AFA9AFBAAF8E8D9F8D9CAF8BAF0E
:1034B0008C2D992DBE01605E7F4F44EA5AE09FC07B
:1034C000FE01FF96118210825EAF4DAFFE01EE5BF2
:1034D000FF4F10822223A9F02250CE01CD96223038
:1034E00048F46BEF7DE0A7012D2D0E94C6258823AF
:1034F00081F407C0B501A7012D2D0E94C6258823A0
:1035000029F48C2D992D0E9474177BC0C5010E944F
:103510007E20F6E0DF2259F0FE01E05BFF4F4081A4
:10352000518162817381CE01CD960E946E1F9E01F2
:10353000265A3F4FFE01FF9680819181F9019383C6
:10354000828388EE9AE091838083FE01EF5BFF4FD8
:103550008081F9018483FE01EE5BFF4F8081F901D8
:103560008583FE01ED5BFF4F80819181A281B38154
:10357000F90186839783A087B187FE01E95BFF4F3E
:1035800080819181A281B381F90182879387A48789
:10359000B587FE01E55BFF4F80819181A281B381F8
:1035A000F90186879787A08BB18BFE01E15BFF4F06
:1035B0008081F901828BFE01E05BFF4F8081918168
:1035C000A281B381F901838B948BA58BB68BFE010D
:1035D000EC5AFF4F80819181A281B381F901878BE1
:1035E000908FA18FB28FFE01E85AFF4F80819181A9
:1035F000F901948F838F8C2D992DB901A7010E9419
:1036000074188C2D992DCA58DF4F0FB6F894DEBF71
:103610000FBECDBFCF91DF911F910F91FF90EF9023
:10362000DF90CF90BF90AF909F900895EF920F934F
:103630001F93CF93DF93EC01362F542F722FE02E80
:1036400061E0432F252F072F0E94091E8823D1F008
:103650008E01035F1F4FC801BE0141E00E94672732
:10366000882339F4C801BE0140E00E9467278823FF
:1036700049F0CE018B96B8010E94B422882319F03C
:1036800081E001C080E0DF91CF911F910F91EF9019
:103690000895382F80911A0E8F3F31F43EBD0DB43E
:1036A00007FEFDCF8EB50895F894A0911B0EB09142
:1036B0001C0E50911D0E252F2095E0911E0EF091AD
:1036C0001F0E4091200E642F609590E08C91822314
:1036D0008C9337FF03C08081842B02C080818623B6
:1036E00080838C91852B8C939F5F983011F0330FE2
:1036F000EDCF00000000000000008C9128232C93E7
:103700007894089580911A0E8F3F31F48EBD0DB4D8
:1037100007FEFDCF2EB530C0F894E0911E0EF0915B
:103720001F0E80819091200E892B8083E0911B0ECB
:10373000F0911C0E60911D0EA091210EB091220EF1
:103740008091230E482F50E0762F709530E020E0D6
:103750008081862B8083220F8C9190E08423952397
:10376000892B09F02160808187238083000000007D
:103770003F5F383069F77894822F08950F931F9335
:10378000CF93DF938B010E948039EB010E94821B53
:103790008F3F11F481E008C00E9480396C1B7D0BC3
:1037A0006017710798F380E0DF91CF911F910F911F
:1037B0000895FC01673020F086E1858380E008955C
:1037C0006330B9F0643028F4613069F0623070F42D
:1037D00007C06530A1F0653078F06630A9F412C0FA
:1037E00084E090E011C080E090E00EC085E090E0C1
:1037F0000BC081E090E008C086E090E005C082E068
:1038000090E002C083E090E00E944C1781E00895B0
:10381000FC01848160E00E94153B0895FC018481D5
:1038200061E00E94153B0895CF92DF92EF92FF92E4
:103830000F931F93CF93DF937C016A01FC01848572
:10384000882319F40FEF1FEF30C000E010E040E0D4
:1038500050E0212F332727FD3A95F601E40FF51F9D
:10386000808190E0282739273070C901F4E09595D0
:103870008795FA95E1F782279327102F00270827CD
:1038800019279C01322F22273295307F02271327D8
:1038900025E0880F991F2A95E1F7082719274F5F20
:1038A0005F4FF2E040305F07A1F6862F0E94491B70
:1038B000C0E0D0E0F601EC0FFD1F80810E94491BA3
:1038C000219682E0C030D807A9F7812F992787FD7C
:1038D0009A950E94491B802F0E94491B0E94821BBF
:1038E000F70182878F71853011F481E007C081E193
:1038F000F7018583C7010E940E1C80E0DF91CF9104
:103900001F910F91FF90EF90DF90CF9008950F934C
:103910001F93CF93DF93EC010E9480398B0109C084
:103920000E948039601B710B6D52714010F08FE066
:103930000AC00E94821B8A878F3F91F38E3F11F449
:1039400081E006C08DE08D83CE010E940E1C80E0D8
:10395000DF91CF911F910F910895CF93DF93EC01E9
:103960008E81882319F40FC00E94821B8F81988555
:10397000019698878F83019782509240A8F3CE01D9
:103980000E940E1C1E82DF91CF910895DF92EF926C
:10399000FF920F931F93CF93DF93EC01D62E790103
:1039A0008A010E94AD1CCE010E94081CCE016CE26F
:1039B00071E00E94BE1B8D2D80640E94491B812FE7
:1039C0009927AA27BB270E94491BC801AA27BB2702
:1039D0000E94491BBB27A12F902F8F2D0E94491BAE
:1039E0008E2D0E94491BDD2011F485E906C088E078
:1039F000D81611F487E801C08FEF0E94491B10E030
:103A00000E94821B8A8787FF02C01150C9F7DF918D
:103A1000CF911F910F91FF90EF90DF900895CF927B
:103A2000DF92EF92FF920F931F93CF93DF93EC01FE
:103A30007A018B016901411551056105710511F488
:103A400082E133C08B85833039F039E0EE0CFF1C06
:103A5000001F111F3A95D1F7CE0168E1A801970127
:103A60000E94C61C882311F084E01FC0CE016EEFB7
:103A7000A6010E94141C8823C9F0CE0168E572E0FB
:103A80000E94BE1B882311F485E10FC0CE016DE0BA
:103A900020E030E040E050E00E94C61C882321F482
:103AA0000E94821B882379F084E18D83CE010E94DD
:103AB0000E1C80E0DF91CF911F910F91FF90EF904E
:103AC000DF90CF900895CE010E940E1C81E0F2CFCE
:103AD0006F927F928F929F92AF92BF92CF92DF921E
:103AE000EF92FF920F931F93CF93DF93EC015A0154
:103AF0006B01390148010115110509F46AC0C801BB
:103B0000820F931F8150924008F05EC08E818823FF
:103B100071F088819981AA81BB81481759076A078A
:103B20007B0729F48F8198856816790650F5A8825D
:103B3000B982CA82DB828B85833039F0E9E0AA0C36
:103B4000BB1CCC1CDD1CEA95D1F7CE0161E1A601BE
:103B500095010E94C61C882319F083E08D8334C030
:103B6000CE010E94871C882379F118861F8281E08C
:103B70008E8307C00E94821B8F819885019698874B
:103B80008F838F81988586159705A0F300E010E05C
:103B900008C00E94821BF701E00FF11F80830F5FB6
:103BA0001F4F08151905A8F32F813885280D391DD9
:103BB00038872F838985882319F02050324048F0B8
:103BC000CE010E94AD1C05C0CE010E940E1C80E0FB
:103BD00001C081E0DF91CF911F910F91FF90EF9095
:103BE000DF90CF90BF90AF909F908F907F906F901D
:103BF0000895EF92FF920F931F93790120E030E038
:103C000000E012E00E94681D1F910F91FF90EF905D
:103C10000895BF92CF92DF92EF92FF920F931F937E
:103C2000CF93DF93EC01B62E1E2D1B8619861E82C4
:103C30001D821C864C832093240E0093250EE09257
:103C40001A0E0E9480396B018C8161E00E94623AF9
:103C5000CE010E940E1C1F3F09F462C08091250E08
:103C600060E00E94623A8091240E61E00E94623A14
:103C700080911A0E61E00E94623AE0911A0E2E2F96
:103C8000332727FD3095F901E95EFD4FE491F0E01F
:103C9000EE0FFF1FED51FE4F8591949190931C0EF6
:103CA00080931B0E235A3D4FF901849180931D0E82
:103CB000E091240E2E2F332727FD3095F901E95E80
:103CC000FD4FE491F0E0EE0FFF1FED51FE4F8591A7
:103CD000949190931F0E80931E0E235A3D4FF9012D
:103CE00084918093200EE091250E2E2F332727FDFF
:103CF0003095F901E95EFD4FE491F0E0EE0FFF1F12
:103D0000E350FE4F859194919093220E8093210E63
:103D1000235A3D4FF90184918093230E10E006C091
:103D20000E945D1783E00E944C17F8CF8FEF0E942E
:103D3000491B1F5F1A30D1F7CE010E94081C09C031
:103D40000E9480396C197D09615D774010F081E037
:103D50005AC0CE0160E020E030E040E050E00E9438
:103D6000C61C182F8A87813059F7CE0168E02AEAED
:103D700031E040E050E00E94C61C82FF02C01B8779
:103D80000DC010E00E94821B8A871F5F1430D1F79C
:103D90008A3A11F082E037C082E08B878B858230CF
:103DA00021F0EE24FF2487010FC0E12CF12C012D1E
:103DB000F0E41F2F09C00E9480396C197D09615DF4
:103DC000774010F088E01FC0CE0167E320E030E0CC
:103DD00040E050E00E94C61CCE0169E2A8019701B4
:103DE0000E94C61C8A87882331F78B858230F1F4C4
:103DF000CE016AE320E030E040E050E00E94C61CC3
:103E0000882339F086E08D83CE010E940E1C80E06D
:103E10001AC00E94821B807C803C11F483E08B8757
:103E20000E94821B0E94821B0E94821BCE010E9464
:103E30000E1C80911A0E8F3F11F081E004C0CE015C
:103E40006B2D0E94D91BDF91CF911F910F91FF9095
:103E5000EF90DF90CF90BF900895CF93DF93EC0168
:103E6000DB0180E090E020E2FD01E80FF91F2083F4
:103E700001968B309105C1F757E040E021C02E320A
:103E800019F08DEA91E007C05A3019F15AE048E084
:103E900017C03217F1F0FC01019634913323C9F7B2
:103EA0005417B8F02132A8F02F3798F4822F81569A
:103EB0008A3108F42052FD01E40FF11D20834F5F89
:103EC00029912223E1F690E08C91803219F091E063
:103ED00001C090E0892FDF91CF9108956F927F927A
:103EE0008F929F92AF92BF92CF92DF92EF92FF920A
:103EF0000F931F93CF93DF93EC017A018B012D81F8
:103F0000222309F480C08B899C89AD89BE898417DE
:103F10009507A607B70708F476C085C0E114F10439
:103F20000105110549F41E821F82188619861A861A
:103F30001B861C861D8665C02A853B854C855D8554
:103F4000EB8DFC8D858590E00996215030404040F6
:103F5000504039014A01082E04C096948794779402
:103F600067940A94D2F72F5F3F4F4F4F5F4F0894EB
:103F7000E108F108010911095701680104C0D6944C
:103F8000C794B794A7948A95D2F70894E11CF11CC2
:103F9000011D111DA614B704C804D90428F0211569
:103FA00031054105510549F48F89988DA98DBA8D48
:103FB0008E839F83A887B98716C0A618B708C8083C
:103FC000D90811C04E815F81688579858B8D9C8D64
:103FD00094010E9448290894A108B108C108D10899
:103FE000882331F410C086E0882E912C8C0E9D1E03
:103FF000A114B104C104D10429F7EA86FB860C8719
:104000001D8781E001C080E0DF91CF911F910F916A
:10401000FF90EF90DF90CF90BF90AF909F908F90E8
:104020007F906F900895223009F078CFE6CFCF933C
:10403000DF93EC01462F6E857F85888999890E94E0
:104040002C27882319F420E030E00AC08A89282F21
:1040500030E095E0220F331F9A95E1F7285D314F4C
:10406000C901DF91CF9108950F931F93CF93DF93F1
:104070008C01FC0185818823D9F1848187FF35C0BB
:10408000C80161E00E941720EC01009789F1F80156
:104090008581823040F483899489A589B6898C8F83
:1040A0009D8FAE8FBF8FF8018789908D9B8F8A8FF0
:1040B0008789908DA18DB28DCD01AA27BB279D8BBD
:1040C0008C8BE091260EF091270E309751F0BE01B7
:1040D0006A5E7F4FCE0148961995888D998D9B8B8E
:1040E0008A8BF80184818F7784830E94CD2601C05A
:1040F00080E0DF91CF911F910F910895CF93DF93CF
:10410000EC010E943420882311F01D8281E0DF91B0
:10411000CF9108956F927F928F929F92AF92BF92AC
:10412000CF92DF92EF92FF920F931F93DF93CF9383
:1041300000D00F92CDB7DEB77C015A016B01DC01D4
:1041400015968C911597813009F08FC014968C913B
:1041500081FF8BC09EC00097A105B10511F481E0DD
:1041600085C0F7016284738484849584C701B60195
:10417000A5010E946E1F882309F477C0D7015B96C2
:104180008D919C915C97A114B104C104D10489F470
:1041900057964D915D916D917C915A970E94BB29E4
:1041A000882309F462C0F701178A108E118E128ECF
:1041B0003DC0D70116964D915D916D917C911997F7
:1041C0009E012F5F3F4F0E944829882309F44DC06C
:1041D000D7015B96ED91FC915C9749815A816B8187
:1041E0007C818789803129F088EF9FEFAFEFBFE0B6
:1041F00004C088EF9FEFA0E0B0E0481759076A07B6
:104200007B07A0F4CF010E94BB29882371F1F7013D
:104210004681578160857185838D948D0FEF1FEFE7
:104220002FEF3FE00E94AC288823F9F0D701539686
:10423000AD92BD92CD92DC92569714968C911497C4
:10424000806814968C93C7010E943420882369F0FB
:10425000B601A5016A147B048C049D0410F4B4011A
:10426000A301C7010E946E1F01C080E00F900F9054
:104270000F900F90CF91DF911F910F91FF90EF90D2
:10428000DF90CF90BF90AF909F908F907F906F9076
:104290000895F70183899489A589B68984179507BC
:1042A000A607B70708F057CFE0CF2F923F924F9263
:1042B0005F926F927F928F929F92AF92BF92CF92B6
:1042C000DF92EF92FF920F931F93CF93DF93EC0156
:1042D0002A018D81882309F4C6C08C8180FFC3C068
:1042E000D8C025014E185F084B0176E0272E312CEF
:1042F0002C0E3D1E3201B1C02A853B854C855D8563
:104300006FEFA62E61E0B62EA222B3228D81790135
:104310008A0199E016950795F794E7949A95D1F755
:10432000EB8DFC8D823049F4428D538D648D758DFB
:104330004E0D5F1D601F711F3FC0D480DA94DE20D8
:10434000A114B104D9F4DD20C9F4211531054105CA
:10435000510549F48F89988DA98DBA8D8E839F83DD
:10436000A887B9870BC04E815F8168857985CF01A9
:1043700091010E944829882309F475C0EB8DFC8DBA
:104380004E815F8168857985425050406040704021
:10439000058404C0440F551F661F771F0A94D2F787
:1043A00086859785A089B189480F591F6A1F7B1F91
:1043B0004D0D511D611D711D80E092E08A199B0910
:1043C00063018615970508F46C018C8186FD06C093
:1043D00080E0C81682E0D80609F073C08091BA0A5E
:1043E0009091BB0AA091BC0AB091BD0A4817590729
:1043F0006A077B0709F465C0809128109091291005
:104400009501860174010E94681D882361F18C0C5E
:104410009D1C12C09501285D314FA9014C0D5D1DF9
:10442000D401F90102C081918D93E417F507D9F702
:10443000E21BF30B8E0E9F1E960140E050E08A8532
:104440009B85AC85BD85820F931FA41FB51F8A87EE
:104450009B87AC87BD876C187D086114710409F0D7
:104460004BCFA20102C04FEF5FEFCA01DF91CF91A6
:104470001F910F91FF90EF90DF90CF90BF90AF9082
:104480009F908F907F906F905F904F903F902F9074
:104490000895AB88BC88CD88DE88EA84FB840C85CF
:1044A0001D859A0140E050E0D601C5018E199F0993
:1044B000A00BB10B82179307A407B50708F411CF1F
:1044C00013CFCB01BA0140E00E942C27882309F0CA
:1044D000A1CFC9CFCF92DF92EF92FF920F931F939C
:1044E000DF93CF930F92CDB7DEB76C01FC018581CE
:1044F000823070F0E284F38404851585C601BE0124
:104500006F5F7F4F41E050E00E945521019769F0B5
:1045100020E030E0C9010F90CF91DF911F910F9102
:10452000FF90EF90DF90CF900895F60182859385FC
:10453000A485B5854F96A11DB11D82879387A48759
:10454000B587F5E016950795F794E794FA95D1F7B6
:104550008E2D8F70282F30E0E5E0220F331FEA9573
:10456000E1F7285D314FD6CF0F931F93CF93DF93A1
:10457000EC018B018D81882309F041C0FB01878903
:104580008031B1F482E08D831F8A188E198E1A8EC5
:10459000808D918DA0E0B0E045E0880F991FAA1FA3
:1045A000BB1F4A95D1F78B8B9C8BAD8BBE8B15C0F7
:1045B000803229F583E08D83FB01428D538D648D1C
:1045C000758D4F8B588F698F7A8F9E012D5E3F4F6F
:1045D000C8010E94142A882391F01C8F0B8F81E060
:1045E0008C831E821F82188619861A861B861C865B
:1045F0001D861E861F86188A198A1A8A01C080E0C5
:10460000DF91CF911F910F9108951F93CF93DF9367
:10461000EC01142FE62FF0E075E0EE0FFF1F7A9506
:10462000E1F7E85DF14F8385817121F0842F827479
:1046300009F054C06A8B8091BA0A9091BB0AA0918C
:10464000BC0AB091BD0A8E879F87A88BB98B8489DD
:104650009589A0E0B0E0BC0155274427828D938D59
:10466000A0E0B0E0482B592B6A2B7B2B4F8B588F47
:10467000698F7A8F838590E088719070009751F4EC
:10468000848D958DA68DB78D8B8B9C8BAD8BBE8BC2
:1046900081E00CC0409711F59E012D5E3F4F8B8D40
:1046A0009C8D0E94142A8823C9F084E08D83812F79
:1046B0008F708C831E821F82188619861A861B862D
:1046C0001C861D8616FD02C081E009C0CE0140E0B7
:1046D00050E060E070E00E948A2001C080E0DF913D
:1046E000CF911F910895CF93DF93EC019C012A5F36
:1046F0003F4F8B8D9C8D41E050E060E070E00E9468
:10470000832A8823A1F08F89988DA98DBA8D00976F
:10471000A105B10559F48E819F81A885B9858F8B3C
:10472000988FA98FBA8F8C8180688C8381E0DF910C
:10473000CF9108952F923F924F925F927F928F92E6
:104740009F92AF92BF92CF92DF92EF92FF920F9320
:104750001F93DF93CF9300D000D0CDB7DEB76C01AD
:10476000162F072F5E834D83DC0115968C911597CC
:10477000813009F070C114968C9181FF6CC18EC19B
:10478000F601438954896589768982859385A48554
:10479000B58584179507A607B70731F0C6010E94B3
:1047A0006E1F882309F457C1812F902F9C01290186
:1047B0002D803E8017C1D6015B96ED91FC915C97F0
:1047C000DA01C90119E0B695A795979587951A95CD
:1047D000D1F774807A9478227FEF872E71E0972E3C
:1047E00082229322772009F04EC08114910409F0AF
:1047F0004AC0D60116964D915D916D917C911997A5
:10480000411551056105710581F457968D919D9172
:104810000D90BC91A02D0097A105B10549F1F601BD
:1048200086839783A087B1872EC0CF019E012F5F1B
:104830003F4F0E944829882309F414C129813A81F5
:104840004B815C81D6015B96ED91FC915C978789E9
:10485000803129F088EF9FEFAFEFBFE004C088EF11
:104860009FEFA0E0B0E0281739074A075B0730F058
:10487000C6010E947323882331F4EDC0F60126831C
:1048800037834087518780E092E088199909510168
:104890008215930508F45C01D6015B96ED91FC91BD
:1048A0005C971696ED90FD900D911C9119978EEFE7
:1048B0009FEFAFEFBFEFE80EF91E0A1F1B1F058425
:1048C00004C0EE0CFF1C001F111F0A94D2F786854E
:1048D0009785A089B189E80EF91E0A1F1B1FE70CF6
:1048E000F11C011D111D90E0A91692E0B90651F5C9
:1048F0008091BA0A9091BB0AA091BC0AB091BD0AFE
:104900008E159F05A007B10761F48FEF9FEFAFEF02
:10491000BFEF8093BA0A9093BB0AA093BC0AB093EE
:10492000BD0A8091281090912910B801A701920129
:104930000E940F1D882309F48EC0A0E0B2E04A0E49
:104940005B1E3EC08114910409F5F6012285338572
:104950004485558583899489A589B689281739079F
:104960004A075B0798F00E94CD26882309F473C09C
:10497000E092BA0AF092BB0A0093BC0A1093BD0AF7
:1049800080912A10816080932A1008C0C801B70165
:1049900041E00E942C27882309F45DC09401285D22
:1049A000314FA9014A0D5B1DD201F90102C08D9161
:1049B0008193E417F507D9F7E21BF30B4E0E5F1E48
:1049C0002A183B08950140E050E0F6018285938566
:1049D000A485B585820F931FA41FB51F8287938777
:1049E000A487B587D6011A962D913D914D915C9182
:1049F0001D972114310409F0DECE53968D919D91BF
:104A00000D90BC91A02D82179307A407B50748F419
:104A1000F601238B348B458B568B8481806884838D
:104A200011C08091260E9091270E892B59F08D810F
:104A30009E81892B39F0D60114968C911497806849
:104A400014968C93F601848183FF0EC0C6010E94E8
:104A50003420882349F481E090E0D60113969C939A
:104A60008E9312971E821D828D819E8126960FB68F
:104A7000F894DEBF0FBECDBFCF91DF911F910F9194
:104A8000FF90EF90DF90CF90BF90AF909F908F906E
:104A90007F905F904F903F902F90089582FD70CE51
:104AA00083CEDF93CF930F92CDB7DEB76983BE017C
:104AB0006F5F7F4F41E050E00E949A230F90CF91AB
:104AC000DF910895DF92EF92FF920F931F93CF93A0
:104AD000DF93EC010E947323882309F44EC0EB8D11
:104AE000FC8DEE80FF80088519858EEF9FEFAFEF7C
:104AF000BFEFE80EF91E0A1F1B1F058404C0EE0C51
:104B0000FF1C001F111F0A94D2F786859785A08984
:104B1000B189E80EF91E0A1F1B1FD4800894E10812
:104B2000F108010911090BC0C801B7016D0D711D14
:104B3000811D911D0E9408278823F9F0DA94DD2059
:104B400099F7EB8DFC8D20E032E040E050E00584E9
:104B500004C0220F331F441F551F0A94D2F78B89BC
:104B60009C89AD89BE89820F931FA41FB51F8B8BB3
:104B70009C8BAD8BBE8B81E001C080E0DF91CF913B
:104B80001F910F91FF90EF90DF9008956F927F92A9
:104B90008F929F92AF92BF92CF92DF92EF92FF924D
:104BA0000F931F93DF93CF93CDB7DEB72B970FB63D
:104BB000F894DEBF0FBECDBF5C016B01822EDC011D
:104BC00015968C91882309F0D2C0CA018E010F5F1F
:104BD0001F4FB8010E942D1F882309F4C8C0F60199
:104BE000838D948DD5015C969C938E935B971682F2
:104BF000178210861186D6011A961D921D921D925B
:104C00001C921D979924380141C0C6010E946A2256
:104C1000FC01009709F4ABC085E016950795F79461
:104C2000E7948A95D1F71E2D1F708081882311F09B
:104C3000853ED1F4992091F4D50152961C93529758
:104C40002091BA0A3091BB0A4091BC0A5091BD0A2A
:104C50001E962D933D934D935C93519780818823AD
:104C600099F49924939421C0C301BF014BE050E013
:104C70000E940A02009751F4882D8073803309F452
:104C800076C0C501612F6FC099249394F601E28428
:104C9000F3840485158583899489A589B689E816E6
:104CA000F9060A071B0708F4B0CF882D82718231FC
:104CB00009F05DC0992041F0C50161E00E94172014
:104CC0008C01009789F453C0D60115968C918230DF
:104CD00009F44DC0C6010E946225882309F447C02B
:104CE000F501128A08E21EE080E2D8011D928A9541
:104CF000E9F7D801FE0131968BE001900D928150C9
:104D0000E1F7E091260EF091270E309739F0B801C7
:104D1000625F7F4FC8014096199509C081E298E211
:104D2000F801918B808B80E098E097878687D80187
:104D300050968D919C91519753969C938E93529738
:104D400059969C938E9358971E968D919C911F9780
:104D500057969C938E9356970E94CD26882339F0C0
:104D6000C501F5016289482D0E94052301C080E03C
:104D70002B960FB6F894DEBF0FBECDBFCF91DF915B
:104D80001F910F91FF90EF90DF90CF90BF90AF9069
:104D90009F908F907F906F90089580912A10882324
:104DA00099F14091BA0A5091BB0A6091BC0A709186
:104DB000BD0A809128109091291028E23EE00E94BF
:104DC0000F1D882319F140912B1050912C106091E8
:104DD0002D1070912E10411551056105710591F04E
:104DE000809128109091291028E23EE00E940F1D2A
:104DF000882361F010922B1010922C1010922D101D
:104E000010922E1010922A1081E0089580E00895EB
:104E1000EF92FF920F931F937B018C010E94CD268E
:104E20008823A9F0E8E2FEE0119280E1E832F80779
:104E3000D9F7E092BA0AF092BB0A0093BC0A109329
:104E4000BD0A80912A10816080932A1081E01F9111
:104E50000F91FF90EF900895DF92EF92FF920F93E2
:104E60001F937B018C01D42E8091BA0A9091BB0ACA
:104E7000A091BC0AB091BD0A8E159F05A007B1078D
:104E8000C1F00E94CD268823D9F0809128109091FE
:104E90002910B801A70128E23EE00E94F91D8823ED
:104EA00079F0E092BA0AF092BB0A0093BC0A109320
:104EB000BD0A80912A108D2980932A1081E001C0BB
:104EC00080E01F910F91FF90EF90DF9008958F92F7
:104ED0009F92AF92BF92CF92DF92EF92FF920F9389
:104EE0001F93CF93DF936C01142F7093291060935D
:104EF0002810442321F488249924540140C04530CB
:104F000008F01CC160E070E080E090E040E00E94AA
:104F10002C27882309F412C1C12FD0E02197FE016C
:104F200074E0EE0FFF1F7A95E1F7E85DF14FE25470
:104F3000FE4F8081EE5BF14090E08F779070892B7F
:104F400009F0FCC0E653FE4F80819181A281B381BC
:104F500084369105A105B10508F4F0C064E0CC0FDA
:104F6000DD1F6A95E1F7C251D04F88809980AA80F1
:104F7000BB8081149104A104B10409F4DFC0C50110
:104F8000B40140E00E942C27882309F4D7C0809107
:104F9000330E9091340E8050924009F0CFC0209192
:104FA000380E222309F4CAC08091360E9091370E34
:104FB000892B09F4C3C08091350E882309F4BEC043
:104FC000F601228B8091350E8483158661E070E0B6
:104FD00007C04F5FF60145874150483008F0AEC02A
:104FE000F6014585848190E09B01042E02C0220FCA
:104FF000331F0A94E2F78217930759F720913E0E68
:1050000030913F0E2115310519F040E050E008C005
:1050100020914C0E30914D0E40914E0E50914F0EFE
:10502000F6012583368347835087E090360EF09053
:10503000370E00E010E0E80CF91C0A1D1B1DE38A86
:10504000F48A058B168B8091390E90913A0E918FD0
:10505000808F6091380E70E080E090E00E94B3464F
:105060006E0D7F1D801F911FF601628F738F848FDD
:10507000958F2091390E30913A0E55E0220F331F53
:105080005A95E1F721503E4F232F3327269540E0D4
:1050900050E0260F371F481F591F26873787408B40
:1050A000518B80913B0E90913C0E009719F0A0E03F
:1050B000B0E008C08091480E9091490EA0914A0E30
:1050C000B0914B0E85017401E21AF30A040B150B23
:1050D000A8019701280F391F4A1F5B1FF60105849D
:1050E00004C056954795379527950A94D2F721879E
:1050F000328743875487253FFFE03F07F0E04F07A3
:10510000F0E05F0710F48CE006C0255F3F4F4040A1
:10511000504028F480E1F601878B81E010C0809137
:10512000540E9091550EA091560EB091570EF60167
:10513000828F938FA48FB58F80E2EECF80E0DF91D6
:10514000CF911F910F91FF90EF90DF90CF90BF9084
:10515000AF909F908F9008954F925F926F927F9241
:105160008F929F92AF92BF92CF92DF92EF92FF9277
:105170000F931F93CF93DF93EC016A017B0128010A
:105180003901423051056105710508F46FC0898508
:105190009A85AB85BC850196A11DB11D8417950725
:1051A000A607B70708F462C02B893C894D895E8940
:1051B0008F89803129F499278F2D7E2D6D2D09C07F
:1051C000C701B60117E096958795779567951A956B
:1051D000D1F74B015C01820E931EA41EB51E809177
:1051E000BA0A9091BB0AA091BC0AB091BD0A881678
:1051F0009906AA06BB0639F0C501B40140E00E9439
:105200002C27882399F18F89803149F4F601F070B9
:10521000EE0FFF1FE85DF14F518240820DC0F60195
:10522000EF77F070EE0FFF1FEE0FFF1FE85DF14FFD
:10523000408251826282738280912A1081608093C1
:105240002A108A89823080F08D819E81AF81B88555
:10525000880E991EAA1EBB1E80922B1090922C10B5
:10526000A0922D10B0922E1081E001C080E0DF915D
:10527000CF911F910F91FF90EF90DF90CF90BF9053
:10528000AF909F908F907F906F905F904F90089518
:10529000CF92DF92EF92FF920F931F93CF93DF9302
:1052A000EC017A018B01690189859A85AB85BC8502
:1052B0000196A11DB11D84179507A607B70708F42D
:1052C00050C02B893C894D895E898F89803129F4B2
:1052D0009927812F702F6F2D09C0C801B701E7E012
:1052E0009695879577956795EA95D1F7260F371F9D
:1052F000481F591F8091BA0A9091BB0AA091BC0A1D
:10530000B091BD0A281739074A075B0739F0CA016F
:10531000B90140E00E942C27882319F18F89803140
:1053200059F4F701F070EE0FFF1FE85DF14F808137
:105330009181A0E0B0E00EC0F701EF77F070EE0FC2
:10534000FF1FEE0FFF1FE85DF14F80819181A28169
:10535000B381BF70F60180839183A283B38381E020
:1053600001C080E0DF91CF911F910F91FF90EF90EE
:10537000DF90CF900895AF92BF92CF92DF92EF92DD
:10538000FF920F931F93DF93CF9300D00F92CDB76F
:10539000DEB76C017A018B0182E090E0A0E0B0E022
:1053A000F60180839183A283B3835E010894A11CDC
:1053B000B11CC601B801A70195010E9448298823A4
:1053C00019F1C601B801A70100E010E020E030E0CB
:1053D0000E94AC288823C1F0E980FA800B811C81EF
:1053E000F6018789803129F088EF9FEFAFEFBFE0AA
:1053F00004C088EF9FEFA0E0B0E0E816F9060A07C6
:105400001B07B8F281E001C080E00F900F900F9071
:105410000F90CF91DF911F910F91FF90EF90DF9050
:10542000CF90BF90AF9008954F925F926F927F920E
:105430008F929F92AF92BF92CF92DF92EF92FF92A4
:105440000F931F93DF93CF9300D00F92CDB7DEB7AA
:105450006C0149835A836B837C833901EE24FF24DA
:1054600087012E010894411C511C812CA2E09A2E28
:10547000A12CB12C49815A816B817C81C60192019A
:105480000E944829882351F1D501C401F601058401
:1054900004C0880F991FAA1FBB1F0A94D2F7E80EF9
:1054A000F91E0A1F1B1F29813A814B815C81878964
:1054B000803129F088EF9FEFAFEFBFE004C088EFA5
:1054C0009FEFA0E0B0E0281739074A075B0790F28A
:1054D000F301E082F1820283138381E00F900F9049
:1054E0000F900F90CF91DF911F910F91FF90EF9050
:1054F000DF90CF90BF90AF909F908F907F906F90F4
:105500005F904F9008952F923F924F925F926F92CB
:105510007F928F929F92AF92BF92CF92DF92EF9243
:10552000FF920F931F93DF93CF93CDB7DEB72F97E3
:105530000FB6F894DEBF0FBECDBF1C014A875B8754
:105540006C877D873F872E87D9010D911D912D9105
:105550003C91011511052105310549F0480159011A
:105560000894811C911CA11CB11C198610C0FC015F
:1055700080809180A280B38019868A859B85AC85C6
:10558000BD850197A105B10511F491E09987D1017D
:1055900019968D919D910D90BC91A02D0196A11D04
:1055A000B11D8D839E83AF83B88775016401442448
:1055B000552432018E010F5F1F4FF10181859285C5
:1055C000A385B485481659066A067B0608F090C084
:1055D0008D819E81AF81B8858C159D05AE05BF0577
:1055E00050F482E0882E912CA12CB12CB2E0CB2E6D
:1055F000D12CE12CF12CC101B701A60198010E9428
:105600004829882309F474C089819A81AB81BC81BF
:10561000A70196012F5F3F4F4F4F5F4F0097A105A6
:10562000B10519F049015A010DC0281939094A0973
:105630005B098A859B85AC85BD85281739074A0794
:105640005B0759F00894411C511C611C711C0894A3
:10565000C11CD11CE11CF11CB0CFC101A601B701D6
:105660000FEF1FEF2FEF3FE00E94AC28882399F443
:105670003FC02601370108944108510861087108AC
:10568000C101B301A201970186010E94AC288823C1
:1056900079F1730162018C149D04AE04BF0448F3D8
:1056A000AE85BF854D915D916D917C914115510500
:1056B0006105710539F0C101950184010E94AC2892
:1056C0008823B1F0EE85FF8580829182A282B38229
:1056D000F985FF2359F00894811C911CA11CB11C71
:1056E000D1018D929D92AD92BC92139781E001C041
:1056F00080E02F960FB6F894DEBF0FBECDBFCF91DE
:10570000DF911F910F91FF90EF90DF90CF90BF90AE
:10571000AF909F908F907F906F905F904F903F9051
:105720002F900895DC0187E0A03DB80710F0A05D40
:10573000B74050E02DEB31E091E007C0F9018491D2
:10574000480F511D9F5F2F5F3F4F9617B8F363308F
:1057500038F0CD0183709070892B11F44F5F5F4F4B
:105760008DE691E0A89F9001A99F300DB89F300D64
:105770001124215030401396B695A795B695A7955C
:105780002A0F3B1F240F351FC9010895CF92EF92B6
:105790000F93FC0187E0603D780710F0605D774073
:1057A00060834D3008F04CE04183203208F02FE157
:1057B0002283083108F007E103838E2D8D3308F032
:1057C0008CE384838C2D8D3308F08CE385830F91DB
:1057D000EF90CF900895CF93DF93FC01DB01EB01B5
:1057E000299619968C91199780538A3008F080E099
:1057F000298120533AE0839FC0011124280F208380
:105800008C918A34A9F08B343CF48434D9F18634F9
:10581000F9F08134C9F51EC08E3491F18F341CF437
:105820008D3491F520C08F3449F1833569F524C05A
:1058300011968C911197813611F481E024C0129653
:105840008C9112978E3611F486E01DC087E01BC044
:1058500082E019C012968C911297823711F088E07D
:1058600012C084E010C012968C911297823711F00A
:1058700085E009C083E007C089E005C0318304C02A
:105880008BE001C08CE08183ED01249614966C912D
:1058900060536A3008F060E0298120538AE0689FF5
:1058A000C0011124280F2283DA019C9190539A3071
:1058B00008F090E0EA01298120538AE0989FC00116
:1058C0001124280F2383DA0113969B8190539A3079
:1058D00008F090E011962C9120538AE0989FC00127
:1058E0001124280F2483DA011696EA014E814053D1
:1058F0004A3008F040E011962C9120538AE0489FEE
:10590000C0011124280F2583DF91CF9108950F93B3
:105910001F938C01FC01808190E0618142810E9493
:10592000922BA0E0B0E0BC01CD0128E130E040E0E6
:1059300050E00E94B346F8012381620F711D811D62
:10594000911D2CE330E040E050E00E94B346F801A6
:105950002481620F711D811D911D2CE330E040E018
:1059600050E00E94B3469B01AC01F8018581280FED
:10597000311D411D511D20583C4B4249574CB90126
:10598000CA011F910F910895282F30E094E03595BA
:1059900027959A95E1F74AEF5FEFB901649F90016F
:1059A000659F300D749F300D1124820F0895282FAC
:1059B0006AE00E94D24696E0899FC0011124820FBE
:1059C000089581E00895AF92BF92CF92EF92FF9237
:1059D0000F931F93DF93CF93CDB7DEB72C970FB6FE
:1059E000F894DEBF0FBECDBF86E59DE068E670E0AF
:1059F0000E94ED1386E59DE060E00E946F1486E54D
:105A00009DE00E94B21486E59DE068E670E047E004
:105A100050E00E94C31486E59DE00E9400148F7739
:105A20000E94C42CC82E86E59DE00E9400140E94AE
:105A3000C42CE82E86E59DE00E9400140E94C42C30
:105A4000082F86E59DE00E94001486E59DE00E94F7
:105A500000140E94C42CF82E86E59DE00E940014DC
:105A60000E94C42C182F86E59DE00E9400140E941D
:105A7000C42C682F70E06053784F5E010894A11C1D
:105A8000B11CC501412F2F2D0E94C62BDE01179698
:105A9000F50186E001900D928150E1F72F81388564
:105AA00049855A856B857C8590E02C960FB6F894D5
:105AB000DEBF0FBECDBFCF91DF911F910F91FF9041
:105AC000EF90CF90BF90AF900895EF92FF920F9319
:105AD0001F937C0106E51DE0C80168E670E00E94A6
