:100000000C947A010C94923B0C94C33B0C94F43BFB
:100010000C94253C0C94563C0C94873C0C94B83CB6
:100020000C94E93C0C94A7010C94A7010C94A70133
:100030000C94A7010C94A7010C94A7010C94A701A0
:100040000C94A7010C94A7010C94A7010C94A70190
:100050000C94A7010C94D7360C94A7010C941A3D6C
:100060000C94A7010C94D2400C94FE410C94A7016F
:100070000C94A7010C94A7010C94A7010C94A70160
:100080000C94A7010C94A7010C94A7010C94A70150
:100090000C940E410C9432420C94A7010C9452190A
:1000A0000C94A7010C94A7010C94A7010C94A70130
:1000B0000C94A7010C94A7010C94A7010C94A70120
:1000C0000C94A7010C94A7010C94A7010C944A412D
:1000D0000C9466420C94A7010C9486410C949A42AD
:1000E0000C94A70107634236B79BD8A71A39685604
:1000F00018AEBAAB558C1D3CB7CC5763BD6DEDFD4A
:10010000753EF6177231BF000000803F0800000006
:10011000BE922449123EABAAAA2ABECDCCCC4C3EFC
:1001200000000080BEABAAAAAA3E00000000BF00EB
:100130000000803F0000000000084178D3BB4387E7
:10014000D1133D190E3CC3BD4282AD2B3E68EC82FB
:1001500076BED98FE1A93E4C80EFFFBE01C4FF7F80
:100160003F000000000056533130353320666F7574
:100170006E6400436F756C646E27742066696E64EC
:10018000205653313035332C20646F20796F752021
:10019000686176652074686520726967687420708C
:1001A000696E7320646566696E65643F007C3C3EE1
:1001B0005E2B3D3F2F5B5D3B2C2A225C001F1C1FEA
:1001C0001E1F1E1F1F1E1F1E1F00002100240027B0
:1001D000002A002D00300033000101000004010757
:1001E000010A0100002200250028002B002E00310A
:1001F00000340002010000050108010B010000208D
:10020000002300260029002C002F003200000100EE
:100210000003010601090105050505070508080891
:1002200008020202020A0A08080404040401010187
:10023000010101010103030303030303030407078F
:10024000070C0C0C0C0C0C0C0C020202020606062D
:1002500006060606060B0B0B0B0B0B0B0B01021015
:1002600020200808102040102040800201020108D0
:100270000402010102040810204080804020100880
:1002800004020180040201804020100804020108D9
:100290000402010102040810204080010204081039
:1002A0002040800000090A02080B0C0D0706030419
:1002B000010000000000000000000000000000003D
:1002C000000000000000000000000000000000111D
:1002D000100F0000000000000000000000000000FF
:1002E000000000000000000000008A05EE17741CEA
:1002F000DB43830511241FBECFEFD1E2DEBFCDBFAC
:1003000000E00CBF1CE0A0E0B2E0EEE8F6E900E09F
:100310000BBF02C007900D92AA3BB107D9F71BBED5
:1003200014E1AAEBBCE001C01D92AA38B107E1F7C5
:1003300012E0C2EFD2E004C02297FE010E94FF4A01
:10034000CA3ED107C9F70E9411450C943A4B0C9450
:100350000000A0E0B0E0EFEAF1E00C940B4BEC0100
:10036000A880B980CA80DB80A114B104C104D10483
:1003700041F484E2A82E89EDB82E8BE5C82E87E0E3
:10038000D82EC601B5012DE133EF41E050E00E94C7
:10039000E24A27EA31E440E050E00E94954A7B01BE
:1003A0008C01C601B5012DE133EF41E050E00E9420
:1003B000E24ACA01B9012CEE34EF4FEF5FEF0E9421
:1003C000954A6E0D7F1D801F911F97FF04C06150DD
:1003D000704080409048688379838A839B839B0127
:1003E000AC015F77B901CA01CDB7DEB7EAE00C9482
:1003F000274B0E94A901089585E49CE00E94A90171
:1004000008956093450C7093460C8093470C90932D
:10041000480C0895FB01DC0104C08D910190801906
:1004200021F441505040C8F7881B990B0895FC01F6
:100430008191861721F08823D9F79927089531975C
:10044000CF010895FB01DC014150504048F001907C
:100450000D920020C9F701C01D9241505040E0F7B5
:1004600008950F931F93CF93DF938C01EB016115D8
:10047000710581F0DC011F96ED91FC91509730974A
:1004800031F0CE011D966D917C911E971995F80162
:10049000D687C587DF91CF911F910F910895DF9384
:1004A000CF93CDB7DEB72D970FB6F894DEBF0FBE52
:1004B000CDBFE091440DF091450D9E012F5F3F4F60
:1004C000AF018DE0DA010D90AD01D9010D929D01D2
:1004D0008150C1F780919C0E90919D0E8F319105B6
:1004E00089F18032910524F44E9709F044C035C05B
:1004F0008032910519F18197F1F5A885B98510979A
:1005000059F0CE0101961C969C938E931B97A78160
:10051000B085109761F40FC02091480D3091490DBE
:100520002115310541F1CF01F901199524C01C961F
:10053000FC93EE931B976781708519C087E39DE05C
:10054000BC0117C0A581B681109721F01C96FC93C1
:10055000EE931B97658176810AC0A185B2851097BD
:1005600021F01C96FC93EE931B976185728587E3BF
:100570009DE00E94310210929D0E10929C0E2D96CD
:100580000FB6F894DEBF0FBECDBFCF91DF910895B7
:1005900083E090E09093980E8093970E0895EF92E9
:1005A0000F938130910509F09EC26F5F7F4F09F074
:1005B000A7C28AEB9CE00E947F318CEB9CE060E05C
:1005C0000E944A3887ED9CE069E04AE028E003E0B9
:1005D00034E0E32E0E9403378CE19DE00E943B1B38
:1005E00080E092E09093380D8093370D1092390D92
:1005F0001092410D1092400D10923F0D10923E0D41
:1006000010923D0D10923C0D10923B0D10923A0D40
:1006100087E39DE09093450D8093440D84EF96E031
:100620009093470D8093460D82E19BE09093490D96
:100630008093480D89E092E090934B0D80934A0D92
:1006400010924C0D1092540D1092530D1092520DA9
:100650001092510D1092500D10924F0D10924E0DA0
:1006600010924D0D8CE192E09093580D8093570DB0
:100670001092590D1092610D1092600D10925F0D45
:1006800010925E0D10925D0D10925C0D10925B0D3C
:1006900010925A0D89E292E09093650D8093640D5B
:1006A0001092660D10926E0D10926D0D10926C0DE1
:1006B00010926B0D10926A0D1092690D1092680DD8
:1006C0001092670D87E392E09093720D8093710D05
:1006D0001092730D10927B0D10927A0D1092790D7D
:1006E0001092780D1092770D1092760D1092750D74
:1006F0001092740D84E492E090937F0D80937E0DB0
:100700001092800D1092880D1092870D1092860D18
:100710001092850D1092840D1092830D1092820D0F
:100720001092810D82E592E090938C0D80938B0D59
:1007300010928D0D1092950D1092940D1092930DB4
:100740001092920D1092910D1092900D10928F0DAB
:1007500010928E0D83E692E09093990D8093980D00
:1007600010929A0D1092A20D1092A10D1092A00D50
:1007700010929F0D10929E0D10929D0D10929C0D47
:1007800010929B0D85E792E09093A60D8093A50DA6
:100790001092A70D1092AF0D1092AE0D1092AD0DEC
:1007A0001092AC0D1092AB0D1092AA0D1092A90DE3
:1007B0001092A80D84E892E09093B30D8093B20D4F
:1007C0001092B40D1092BC0D1092BB0D1092BA0D88
:1007D0001092B90D1092B80D1092B70D1092B60D7F
:1007E0001092B50D84E992E09093C00D8093BF0DF7
:1007F0001092C10D1092C90D1092C80D1092C70D24
:100800001092C60D1092C50D1092C40D1092C30D1A
:100810001092C20D89EA92E09093CD0D8093CC0D99
:100820001092CE0D1092D60D1092D50D1092D40DBF
:100830001092D30D1092D20D1092D10D1092D00DB6
:100840001092CF0D82EB92E09093DA0D8093D90D48
:100850001092DB0D1092E30D1092E20D1092E10D5B
:100860001092E00D1092DF0D1092DE0D1092DD0D52
:100870001092DC0D8DEB92E09093E70D8093E60DE6
:100880001092E80D1092F00D1092EF0D1092EE0DF7
:100890001092ED0D1092EC0D1092EB0D1092EA0DEE
:1008A0001092E90D87EC92E09093F40D8093F30D94
:1008B0001092F50D1092FD0D1092FC0D1092FB0D93
:1008C0001092FA0D1092F90D1092F80D1092F70D8A
:1008D0001092F60D89ED92E09093010E8093000E38
:1008E0001092020E10920A0E1092090E1092080E2B
:1008F0001092070E1092060E1092050E1092040E22
:100900001092030E85EE92E090930E0E80930D0EE2
:1009100010920F0E1092170E1092160E1092150EC6
:100920001092140E1092130E1092120E1092110EBD
:100930001092100E80EF92E090931B0E80931A0E8F
:1009400010921C0E1092240E1092230E1092220E62
:100950001092210E1092200E10921F0E10921E0E59
:1009600010921D0E8DEF92E09093280E8093270E2B
:100970001092290E1092310E1092300E10922F0EFE
:1009800010922E0E10922D0E10922C0E10922B0EF5
:1009900010922A0E8BE093E09093350E8093340EE4
:1009A0001092360E10923E0E10923D0E10923C0E9A
:1009B00010923B0E10923A0E1092390E1092380E91
:1009C0001092370E89E193E09093420E8093410E8E
:1009D0001092430E10924B0E10924A0E1092490E36
:1009E0001092480E1092470E1092460E1092450E2D
:1009F0001092440E8CE293E090934F0E80934E0E33
:100A00001092500E1092580E1092570E1092560ED1
:100A10001092550E1092540E1092530E1092520EC8
:100A20001092510E8BE393E090935C0E80935B0EDB
:100A300010925D0E1092650E1092640E1092630E6D
:100A40001092620E1092610E1092600E10925F0E64
:100A500010925E0E8AE493E09093690E8093680E84
:100A600010926A0E1092720E1092710E1092700E09
:100A700010926F0E10926E0E10926D0E10926C0E00
:100A800010926B0E89E593E09093760E8093750E2D
:100A90001092770E10927F0E10927E0E10927D0EA5
:100AA00010927C0E10927B0E10927A0E1092790E9C
:100AB0001092780E8EE593E09093830E8093820ED1
:100AC0001092840E10928C0E10928B0E10928A0E41
:100AD0001092890E1092880E1092870E1092860E38
:100AE0001092850E0DC0892B59F46F5F7F4F41F432
:100AF0008CE19DE00E944E1B8FEF9CE00E944E1BFC
:100B00000F91EF90089580E090E06FEF7FEF0E94EB
:100B1000CF02089581E090E06FEF7FEF0E94CF0257
:100B20000895CF92DF92EF92FF920F931F93CF938E
:100B3000DF9381E20E942A3FEC0180919E0E90910A
:100B40009F0EC817D90751F00E94623D6093A60E10
:100B50007093A70E8093A80E9093A90E0E94623DF9
:100B60002091A60E3091A70E4091A80E5091A90E8B
:100B7000621B730B840B950B2091520C3091530C1C
:100B80004091540C5091550C2617370748075907C8
:100B900018F0CC24DD240BC00E94623D6093A60EA9
:100BA0007093A70E8093A80E9093A90E6E01D09318
:100BB0009F0EC0939E0E80E20E942A3FEC0180911E
:100BC000A00E9091A10EC817D90751F00E94623D66
:100BD0006093AA0E7093AB0E8093AC0E9093AD0E03
:100BE0000E94623D2091AA0E3091AB0E4091AC0E56
:100BF0005091AD0E621B730B840B950B2091520C20
:100C00003091530C4091540C5091550C26173707D6
:100C10004807590718F0EE24FF240BC00E94623DDC
:100C20006093AA0E7093AB0E8093AC0E9093AD0EB2
:100C30007E01D093A10EC093A00E8FE10E942A3FA7
:100C4000EC018091A40E9091A50EC817D90751F020
:100C50000E94623D6093B20E7093B30E8093B40E07
:100C60009093B50E0E94623D2091B20E3091B30E6A
:100C70004091B40E5091B50E621B730B840B950B13
:100C80002091520C3091530C4091540C5091550CC2
:100C9000261737074807590718F000E010E00BC087
:100CA0000E94623D6093B20E7093B30E8093B40EB7
:100CB0009093B50E8E01D093A50EC093A40E8EE135
:100CC0000E942A3FEC018091A20E9091A30EC817BA
:100CD000D90751F00E94623D6093AE0E7093AF0E43
:100CE0008093B00E9093B10E0E94623D2091AE0EA3
:100CF0003091AF0E4091B00E5091B10E621B730B4C
:100D0000840B950B2091520C3091530C4091540C54
:100D10005091550C261737074807590718F080E0FF
:100D200090E00BC00E94623D6093AE0E7093AF0ED8
:100D30008093B00E9093B10ECE01D093A30EC093CA
:100D4000A20E21E0C216D10419F481E290E011C094
:100D500021E0E216F10419F480E290E00AC00130CB
:100D6000110519F48FE190E004C0019739F48EE188
:100D700090E090939D0E80939C0E04C010929D0E67
:100D800010929C0EDF91CF911F910F91FF90EF90E9
:100D9000DF90CF900895EF92FF920F931F934CEB4B
:100DA000E42E4CE0F42EC70160E040E00E94EA39F6
:100DB00001E713E0C701B8010E94EA46C701B80184
:100DC0000E94EA46C701B8010E94EA46C701B8017D
:100DD0000E94EA46C70160E040E00E94EA391F91A4
:100DE0000F91FF90EF9008950F931F93DF93CF9390
:100DF000CDB7DEB72D970FB6F894DEBF0FBECDBFCF
:100E0000DE011196FC018DE001900D928150E1F719
:100E100009811A818CEB9CE060E042E00E94EA3993
:100E2000A091370DB091380DF80105C031968C9125
:100E3000981729F4119690819923C1F7DFC082E0B9
:100E40000930180729F48CEB9CE066E873E0DCC0FD
:100E500082E00C31180729F48CEB9CE06BE973E01D
:100E6000D3C082E00932180729F48CEB9CE060EBD8
:100E700073E0CAC082E00733180729F48CEB9CE0CA
:100E800065EC73E0C1C082E00434180729F48CEBF0
:100E90009CE06AED73E0B8C082E00235180729F4DF
:100EA0008CEB9CE06FEE73E0AFC082E00336180776
:100EB00029F48CEB9CE064E074E0A6C082E0053786
:100EC000180729F48CEB9CE069E174E09DC082E096
:100ED0000438180729F48CEB9CE06EE274E094C0AF
:100EE00082E00439180721F48CEB9CE0B8018CC037
:100EF00082E0093A180729F48CEB9CE063E474E083
:100F000083C082E0023B180729F48CEB9CE068E583
:100F100074E07AC082E00D3B180729F48CEB9CE06A
:100F20006DE674E071C082E0073C180729F48CEB91
:100F30009CE062E874E068C082E0093D180729F48B
:100F40008CEB9CE067E974E05FC082E0053E180727
:100F500029F48CEB9CE06CEA74E056C082E0003F20
:100F6000180729F48CEB9CE061EC74E04DC082E042
:100F70000D3F180729F48CEB9CE066ED74E044C04B
:100F800083E00B30180729F48CEB9CE06BEE74E0E7
:100F90003BC083E00931180729F48CEB9CE060E04A
:100FA00075E032C083E00C32180729F48CEB9CE02A
:100FB00065E175E029C083E00B33180729F48CEB59
:100FC0009CE06AE275E020C083E00A34180729F447
:100FD0008CEB9CE06FE375E017C083E009351807E0
:100FE00029F48CEB9CE064E575E00EC00E551340CF
:100FF00069F48CEB9CE069E675E006C00E94CB06C4
:101000008CEB9CE06EE775E00E94EA462D960FB6E9
:10101000F894DEBF0FBECDBFCF91DF911F910F912E
:1010200008950E94CB068CEB9CE060E041E00E94BA
:10103000EA398CEB9CE063E975E00E94EA4687E3BD
:101040009DE090934E0D80934D0D8AE49DE090932A
:101050003F0D80933E0D8091550D9091560D892B3B
:1010600041F48091420D9091430D9093560D8093E1
:10107000550D8AE49DE09093C90D8093C80D8FEBC8
:101080009DE09093500D80934F0D8091CA0D9091EB
:10109000CB0D892B41F48091550D9091560D909375
:1010A000CB0D8093CA0D8FEB9DE09093580E8093EB
:1010B000570E8EE49EE09093C50D8093C40D8091F1
:1010C000590E90915A0E892B41F48091CA0D90913E
:1010D000CB0D90935A0E8093590E8EE49EE0909320
:1010E0007F0E80937E0E85E79EE09093540E809352
:1010F000530E8091800E9091810E892B41F4809146
:10110000590E90915A0E9093810E8093800E8AE42E
:101110009DE090935B0D80935A0D87E59DE0909341
:10112000520D8093510D8091620D9091630D892B2A
:1011300041F48091550D9091560D9093630D8093DD
:10114000620D87E59DE090936E0D80936D0D84E6B2
:101150009DE090935D0D80935C0D80916F0D90915B
:10116000700D892B41F48091620D9091630D9093E5
:10117000700D80936F0D84E69DE090937B0D8093BE
:101180007A0D81E79DE090936A0D8093690D8091BF
:101190007C0D90917D0D892B41F480916F0D909184
:1011A000700D90937D0D80937C0D81E79DE0909371
:1011B000880D8093870D8EE79DE09093770D809347
:1011C000760D8091890D90918A0D892B41F4809143
:1011D0007C0D90917D0D90938A0D8093890D8EE703
:1011E0009DE09093950D8093940D8BE89DE09093F6
:1011F000840D8093830D8091960D9091970D892B8E
:1012000041F48091890D90918A0D9093970D809370
:10121000960D8BE89DE09093A20D8093A10D88E937
:101220009DE09093910D8093900D8091A30D9091EE
:10123000A40D892B41F48091960D9091970D909378
:10124000A40D8093A30D88E99DE09093AF0D80934A
:10125000AE0D85EA9DE090939E0D80939D0D80914B
:10126000B00D9091B10D892B41F48091A30D909117
:10127000A40D9093B10D8093B00D85EA9DE09093FD
:10128000BC0D8093BB0D82EB9DE09093AB0D8093E2
:10129000AA0D8091BD0D9091BE0D892B41F48091D6
:1012A000B00D9091B10D9093BE0D8093BD0D8FEB5D
:1012B0009DE09093D00D8093CF0D8CEC9DE09093AA
:1012C000C70D8093C60D8091D70D9091D80D892BB5
:1012D00041F48091CA0D9091CB0D9093D80D8093DD
:1012E000D70D8CEC9DE09093E30D8093E20D89ED9A
:1012F0009DE09093D20D8093D10D8091E40D90915B
:10130000E50D892B41F48091D70D9091D80D9093E4
:10131000E50D8093E40D89ED9DE09093F00D8093B1
:10132000EF0D86EE9DE09093DF0D8093DE0D8091B2
:10133000F10D9091F20D892B41F48091E40D909183
:10134000E50D9093F20D8093F10D86EE9DE0909364
:10135000FD0D8093FC0D83EF9DE09093EC0D809349
:10136000EB0D8091FE0D9091FF0D892B41F4809142
:10137000F10D9091F20D9093FF0D8093FE0D83EF90
:101380009DE090930A0E8093090E80E09EE090937A
:10139000F90D8093F80D80910B0E90910C0E892B16
:1013A00041F48091FE0D9091FF0D90930C0E80936F
:1013B0000B0E80E09EE09093170E8093160E8DE04A
:1013C0009EE09093060E8093050E8091180E9091EA
:1013D000190E892B41F480910B0E90910C0E909375
:1013E000190E8093180E8DE09EE09093240E80934A
:1013F000230E8AE19EE09093130E8093120E80914B
:10140000250E9091260E892B41F48091180E909113
:10141000190E9093260E8093250E8AE19EE09093FC
:10142000310E8093300E87E29EE09093200E8093E1
:101430001F0E8091320E9091330E892B41F48091D2
:10144000250E9091260E9093330E8093320E87E2F4
:101450009EE090933E0E80933D0E84E39EE0909339
:101460002D0E80932C0E80913F0E9091400E892B73
:1014700041F48091320E9091330E9093400E809300
:101480003F0E84E39EE090934B0E80934A0E81E4DE
:101490009EE090933A0E8093390E80914C0E90917D
:1014A0004D0E892B41F480913F0E9091400E909308
:1014B0004D0E80934C0E8EE49EE090935F0E8093D1
:1014C0005E0E8BE59EE09093560E8093550E8091B4
:1014D000660E9091670E892B41F48091590E909180
:1014E0005A0E9093670E8093660E8BE59EE0909364
:1014F000720E8093710E88E69EE09093610E809349
:10150000600E8091730E9091740E892B41F480913E
:10151000660E9091670E9093740E8093730E85E71C
:101520009EE09093860E8093850E82E89EE09093D5
:101530007D0E80937C0E80918D0E90918E0E892B66
:1015400041F48091800E9091810E90938E0E809345
:101550008D0E87E39DE0BC010E94310260E273E0E2
:1015600080E090E00E94DC3D8CEB9CE060E043E09A
:101570000E94EA398CEB9CE064EA75E00E94EA463E
:1015800064EF71E080E090E00E94DC3D0E94CB06B9
:101590000895CF93DF930E94CB068EEF91E16DEA21
:1015A00075E00E94EA468CEB9CE060E043E00E941C
:1015B000EA398CEB9CE061EC75E00E94EA46C0E001
:1015C000D0E08EEF91E163ED75E00E94EA4668EEAF
:1015D00073E080E090E00E94DC3D2196C530D105AB
:1015E00081F78EEF91E165ED75E00E94ED468EEF9B
:1015F00091E16BED75E00E94ED468CEB9CE060E0C4
:1016000043E00E94EA398CEB9CE069EE75E00E94B1
:10161000EA4662E370E080E090E00E94DC3DDF910A
:10162000CF9108950F93CF93DF93EC010E94CB06E7
:101630008CEB9CE060E040E00E94EA398CEB9CE09F
:101640006BEF75E00E94EA468CEB9CE060E041E0C5
:101650000E94EA39688179818CEB9CE00E94EA461D
:1016600068EB7BE080E090E00E94DC3D87E39DE05A
:10167000BC010E943102888199818E55934071F49A
:101680008EEF91E16DE076E00E94ED4685E090E01E
:101690009093980E8093970E0E94CB068881998133
:1016A0008D5F924079F58DE261E00E94F73E8BE715
:1016B0009FE00E94971C8BE79FE064E04FEF2FEFC5
:1016C0000FEF0E94DD1E8EEF91E164E376E004C02F
:1016D0008EEF91E16AE476E00E94ED4687ED9CE0B2
:1016E00060E676E00E94B536882391F38DE260E0F3
:1016F0000E94F73E85E090E09093980E8093970EBD
:101700000E94CB06888199818C51924099F48EEF8A
:1017100091E16DE676E00E94ED461092910E81E037
:101720008093920E85E090E09093980E8093970EB0
:101730000E94CB06888199818B50934071F58DE290
:1017400061E00E94F73E8BE79FE00E94971C8BE7C9
:101750009FE064E04FEF2FEF0FEF0E94DD1E8EEF52
:1017600091E161E876E00E94ED4687ED9CE067E953
:1017700076E00E944C3668EB7BE080E090E00E94CF
:10178000DC3D8DE260E00E94F73E85E090E09093C2
:10179000980E8093970E0E94CB068881998189517B
:1017A000934071F58DE261E00E94F73E8BE79FE088
:1017B0000E94971C8BE79FE064E04FEF2FEF0FEF45
:1017C0000E94DD1E8EEF91E164EA76E00E94ED4614
:1017D00087ED9CE06FEB76E00E944C3668EB7BE097
:1017E00080E090E00E94DC3D8DE260E00E94F73EE8
:1017F00085E090E09093980E8093970E0E94CB0620
:1018000088819981895A9240D1F481E090E0909347
:10181000940E8093930E8EEF91E16CEC76E00E9433
:10182000ED4668EE73E080E090E00E94DC3D85E0EC
:1018300090E09093980E8093970E0E94CB0688813B
:101840009981825B9240D1F482E090E09093940E73
:101850008093930E8EEF91E166EE76E00E94ED4666
:1018600068EE73E080E090E00E94DC3D85E090E06F
:101870009093980E8093970E0E94CB068881998151
:101880008D5B9240D1F483E090E09093940E80932E
:10189000930E8EEF91E162E077E00E94ED4668EEF4
:1018A00073E080E090E00E94DC3D85E090E0909362
:1018B000980E8093970E0E94CB0688819981875C51
:1018C0009240D1F484E090E09093940E8093930E34
:1018D0008EEF91E16DE177E00E94ED4668EE73E0F6
:1018E00080E090E00E94DC3D85E090E09093980ECF
:1018F0008093970E0E94CB068881998187539240EE
:10190000B9F481E080938F0E8EEF91E16CE377E084
:101910000E94ED4668EE73E080E090E00E94DC3DBE
:1019200085E090E09093980E8093970E0E94CB06EE
:101930008881998184549240B1F410928F0E8EEF79
:1019400091E161E577E00E94ED4668EE73E080E0AA
:1019500090E00E94DC3D85E090E09093980E8093AB
:10196000970E0E94CB0688819981895D9240D1F4BF
:1019700080ED97E09093960E8093950E8EEF91E117
:1019800067E677E00E94ED4668EE73E080E090E065
:101990000E94DC3D85E090E09093980E8093970E36
:1019A0000E94CB0688819981855E9240D1F480EABD
:1019B0009FE09093960E8093950E8EEF91E16AE8EA
:1019C00077E00E94ED4668EE73E080E090E00E94D0
:1019D000DC3D85E090E09093980E8093970E0E94F6
:1019E000CB0688819981805F924011F564E670E0B2
:1019F00080E090E020E737E140E050E00E94294796
:101A00007093960E6093950E8EEF91E16DEA77E0FC
:101A10000E94ED4668EE73E080E090E00E94DC3DBD
:101A200085E090E09093980E8093970E0E94CB06ED
:101A3000DF91CF910F9108950E94CB068CEB9CE033
:101A400060E041E00E94EA398CEB9CE06FED77E0CA
:101A50000E94EA4687ED9CE00E940236882339F412
:101A60008EEF91E163E771E00E949545FFCF8EEF25
:101A700091E166E671E00E94954587ED9CE062E0A9
:101A800042E00E940B3587ED9CE065E00E9429371B
:101A900087ED9CE060E676E00E944C3660E273E001
:101AA00080E090E00E94DC3D8CEB9CE060E043E055
:101AB0000E94EA398CEB9CE064EA75E00E94EA46F9
:101AC00008950F93DF93CF93CDB7DEB76B970FB623
:101AD000F894DEBF0FBECDBF0E94CB068CEB9CE01E
:101AE00060E041E00E94EA398CEB9CE061EF77E036
:101AF0000E94EA468EEF91E16DEF77E00E94EA46A0
:101B00008BE79FE065E34FEF2FEF0FEF0E94DD1EA5
:101B1000882339F48EEF91E165E178E00E94ED468B
:101B2000FFCF8EEF91E161E378E00E94ED46CE01B8
:101B300001966BE77FE043E458E023E10E94B81D83
:101B40008B819C8190931F0D80931E0D8D819E81B2
:101B5000AF81B8858093200D9093210DA093220D25
:101B6000B093230D89859A85AB85BC858093240D20
:101B70009093250DA093260DB093270DA8E2BDE00C
:101B8000FE013D968DE001900D928150E1F78A8D26
:101B90009B8D9093360D8093350DCE0101960E945A
:101BA0004E1B8CE19DE00E94901B882339F48EEF40
:101BB00091E16FE478E00E94ED46FFCF60E273E0D0
:101BC00080E090E00E94DC3D8CEB9CE060E043E034
:101BD0000E94EA398CEB9CE064EA75E00E94EA46D8
:101BE0006B960FB6F894DEBF0FBECDBFCF91DF91DD
:101BF0000F910895EF92FF920F931F935EEFE52EE2
:101C000051E1F52EC70169E678E00E94EA460CEB47
:101C10001CE0C80164E144E020E00E942E3A0E94EA
:101C2000CB06C80164E878E00E94EA46C70164EA8E
:101C300075E00E94ED461F910F91FF90EF9008957F
:101C4000DF93CF930F92CDB7DEB78EEF91E164E9CA
:101C500078E00E94EA460E94CB068CEB9CE060E0B4
:101C600041E00E94EA398CEB9CE061EB78E00E9455
:101C7000EA468AEB9CE00E9455348AEB9CE0BE0168
:101C80006F5F7F4F0E94E031882399F08EEF91E1E2
:101C900063EC78E00E94EA468EEF91E1698140E1D1
:101CA00050E00E9466468EEF91E166ED78E00E947A
:101CB000ED461092990E8EEF91E167EE78E00E946A
:101CC000ED468AEB9CE06091990E42E02AE93EE005
:101CD0000E94FC328EEF91E165EF78E00E94ED46C4
:101CE0008AEB9CE00E94163364E670E080E090E0AE
:101CF0000E94DC3D8AEB9CE061E045E00E94C0323E
:101D0000882331F08EEF91E160E079E00E94ED46AA
:101D10008AEB9CE06CE271E040ED57E00E94A0325B
:101D2000882331F08EEF91E166E279E00E94ED4682
:101D300060E273E080E090E00E94DC3D8EEF91E194
:101D400064EA75E00E94ED468CEB9CE060E043E0C5
:101D50000E94EA398CEB9CE064EA75E00E94EA4656
:101D60000F90CF91DF910895CF92DF92EF92FF9283
:101D70000F931F937EEFC72E71E1D72EC60163E547
:101D800079E00E94EA460E94CB066CEBE62E6CE0FE
:101D9000F62EC70160E041E00E94EA39C70168E61B
:101DA00079E00E94EA4685E361E00E94443E86E1D4
:101DB00061E00E94443E8EE160E00E94443E8FE17B
:101DC00060E00E94443E80E260E00E94443E81E286
:101DD00060E00E94443E82E260E00E94443E82E075
:101DE00060E00E94443E82E160E00E94443E86E062
:101DF00060E00E94443E82E060E00E94443E8CE04D
:101E000060E00E94443E8DE261E00E94443E85E332
:101E100061E00E94443E60E273E080E090E00E9456
:101E2000DC3D04EA15E0C601B8010E94ED46C70199
:101E300060E043E00E94EA39C701B8010E94EA4627
:101E40001F910F91FF90EF90DF90CF900895CF9268
:101E5000DF92EF92FF920F931F93DF93CF93CDB753
:101E6000DEB768970FB6F894DEBF0FBECDBF8EEF1A
:101E700091E16AE779E00E94EA460E94CB068CEB8A
:101E80009CE060E041E00E94EA398CEB9CE06AE96A
:101E900079E00E94EA460E94A8300E94AA302B8B6B
:101EA0003C8B4D8B5E8B6F8B788FDE011196FE0124
:101EB000739686E001900D928150E1F7E7E0CE2E17
:101EC000D12CCC0EDD1EC6016FEA79E04BEB59E058
:101ED0000E94B22FCE0101960E944E307B018C01F0
:101EE000C6010E944E30E616F7060807190768F487
:101EF0008E01035F1F4FC8016FEA79E04BEB59E099
:101F00000E94B22FC8010E942C3160E273E080E091
:101F100090E00E94DC3D8EEF91E164EA75E00E9462
:101F2000ED468CEB9CE060E043E00E94EA398CEBEC
:101F30009CE064EA75E00E94EA4668960FB6F89461
:101F4000DEBF0FBECDBFCF91DF911F910F91FF90EC
:101F5000EF90DF90CF9008950F931F93082F803458
:101F600014F00FE302C087FD00E08EEF91E164EC16
:101F700079E00E94EA46112707FD10958EEF91E166
:101F8000B8014AE050E00E94CB4681E09FE06BE45C
:101F900070E00E94B41781E09FE0602F0E94361825
:101FA00081E09FE00E94791890E0882309F491E095
:101FB000892F1F910F9108958091490C0E94AC0FB9
:101FC000882331F48EEF91E167ED79E00E94ED46D0
:101FD00080918F0E813091F486E161E00E94F73E9E
:101FE00060ED77E080E090E00E94DC3D86E160E01B
:101FF0000E94F73E8DE260E00E94F73E08950F9345
:102000001F93682F01E01FE0C8010E94AA17C801B2
:102010006FE60E943618C8010E9479181F910F912F
:102020000895DF92EF92FF920F931F93382FF62EB1
:10203000E42ED22E01E01FE0C801632F0E94AA17F0
:10204000C80160E70E943618C8016F2D0E9436183B
:10205000C8016E2D0E943618C8016D2D0E943618D9
:10206000C8010E9479181F910F91FF90EF90DF90A7
:102070000895DF92EF92FF920F931F93382FF62E61
:10208000E42ED22E01E01FE0C801632F0E94AA17A0
:10209000C80163E60E943618C8016F2D0E943618E9
:1020A000C8016E2D0E943618C8016D2D0E94361889
:1020B000C8010E9479181F910F91FF90EF90DF9057
:1020C00008950F931F93CF93DF938EEF91E160E01C
:1020D0007AE00E94ED460E94CB068CEB9CE060E02B
:1020E00041E00E94EA398CEB9CE066E27AE00E94D3
:1020F000EA4689E361E00E94443E88E361E00E9491
:10210000443E89E361E00E94F73E88E360E00E947C
:10211000F73E64E670E080E090E00E94DC3D81E004
:102120009FE00E948E180AE41CE0C0E0D0E08EEF31
:1021300091E167E37AE00E94EA4621968EEF91E111
:10214000BE014AE050E00E94CB468CEB9CE060E090
:1021500042E00E94EA398CEB9CE067E37AE00E945F
:10216000EA468CEB9CE0BE014AE050E00E94B84693
:10217000F801808162E140E020E00E94111060EDF2
:1021800077E080E090E00E94DC3DF80180810E94D1
:10219000FF0FF80181918F0160E040E020E00E9494
:1021A0003910C830D10519F668EC70E080E090E095
:1021B0000E94DC3D8CEB9CE06CE37AE00E94EA46F6
:1021C0008EEF91E166E47AE00E94ED46DF91CF91D7
:1021D0001F910F9108954F925F926F927F928F920D
:1021E0009F92AF92BF92CF92DF92EF92FF920F93A6
:1021F0001F93DF93CF93CDB7DEB7CA54D0400FB64D
:10220000F894DEBF0FBECDBF8091970E9091980ECF
:102210008430910509F434C1853091053CF4823055
:10222000910581F0039709F04AC607C186309105F0
:1022300009F41EC2863091050CF427C1079709F0F6
:102240003EC60BC30E94AA30DE01AB5BBF4F2C938E
:10225000FE01EA5BFF4F3083FE01E95BFF4F4083E5
:10226000FE01E85BFF4F5083FE01E75BFF4F608399
:10227000FE01E65BFF4F70839E01275F3F4FFD012C
:1022800086E00190D9010D929D018150D1F7BE8465
:10229000CD84DC84EB84FA8409858CEB9CE060E0DF
:1022A0000E94213A8EEF91E16EE97AE00E94EA46BF
:1022B00010E00053184F8EEF91E1B8014AE050E072
:1022C0000E9438468EEF91E16FE20E946D458EEFDD
:1022D00091E16F2D4AE050E00E9466468EEF91E159
:1022E0006FE20E946D458EEF91E16E2D4AE050E065
:1022F0000E9466468EEF91E160E20E946D458EEF8E
:1023000091E16D2D4AE050E00E9466468EEF91E12A
:102310006AE30E946D458EEF91E16C2D4AE050E03A
:102320000E9466468EEF91E16AE30E946D458EEF52
:1023300091E16B2D4AE050E00E9466468CEB9CE0F8
:1023400060E041E00E94EA398CEB9CE0B8014AE091
:1023500050E00E9438468CEB9CE06FE20E946D4595
:102360008CEB9CE06F2D4AE050E00E9466468CEBBF
:102370009CE06FE20E946D458CEB9CE06E2D4AE084
:1023800050E00E9466468CEB9CE060E20E946D4546
:102390008CEB9CE06D2D4AE050E00E9466468CEB91
:1023A0009CE06AE30E946D458CEB9CE06C2D4AE05A
:1023B00050E00E9466468CEB9CE06AE30E946D450B
:1023C0008CEB9CE06B2D4AE050E00E9466468AEB65
:1023D0009CE0BE016D5F7F4FAE014F5F5F4F0E947B
:1023E0003132882309F18EEF91E165EB7AE00E94AA
:1023F000EA466B817C818EEF91E14AE050E00E94D9
:10240000494640919A0E50919B0E2B813C81098147
:102410001A818AEB9CE06091990E75E0E72EF12C11
:10242000EC0EFD1E0E941B338B819C818C529140CF
:1024300008F045C586E090E03EC58EEF91E16EEB79
:102440007AE00E94ED468AEB9CE00E94803184E0B5
:102450000E94663B0E94CB068CEB9CE061E00E94F0
:10246000213A8CEB9CE060E040E00E94EA398CEB82
:102470009CE06EE775E00E94EA4684E090E01BC5B0
:102480000E9491050E944F021AC58EEF91E16FEEF6
:102490007AE00E94ED460E94AA30DE01AB5BBF4F9E
:1024A0002C93FE01EA5BFF4F3083FE01E95BFF4F97
:1024B0004083FE01E85BFF4F5083FE01E75BFF4F67
:1024C0006083FE01E65BFF4F70839E01275F3F4FF5
:1024D000FD0186E00190D9010D929D018150D1F757
:1024E0008BE79FE00E94971C8BE79FE065E34FEF2F
:1024F0002FEF0FEF0E94DD1ECE010F966BE77FE0FE
:1025000043E458E023E10E94B81D89899A89909399
:102510001F0D80931E0D8B899C89AD89BE89809388
:10252000200D9093210DA093220DB093230D8F8940
:10253000988DA98DBA8D8093240D9093250DA0932D
:10254000260DB093270DA8E2BDE0FE017B968DE03D
:1025500001900D928150E1F788A599A59093360DD1
:102560008093350DCE010F960E944E1B698570E059
:102570006053784F8CE19DE04AE050E00E9438467D
:102580008CE19DE06FE20E946D458CE19DE06A85E3
:102590004AE050E00E9466468CE19DE06FE20E94B6
:1025A0006D458CE19DE06B854AE050E00E946646F7
:1025B0008CE19DE060E20E946D458CE19DE06C85C0
:1025C0004AE050E00E9466468CE19DE06AE30E948A
:1025D0006D458CE19DE06D854AE050E00E946646C5
:1025E0008CE19DE06AE30E946D458CE19DE06E8583
:1025F0004AE050E00E9466468CE19DE062E17BE0AB
:102600000E94EA468CE19DE06DE27BE00E94EA4692
:102610006091930E7091940E8CE19DE04AE050E041
:102620000E94B8468CE19DE06DE27BE00E94EA46A4
:102630006091950E7091960E8CE19DE04AE050E01D
:102640000E94CB468CE19DE00E94AF1B8CE19DE097
:102650000E949D1B8BE79FE00E94971C84E068EC22
:1026600072E041E050E00E94EA3A82E090E023C448
:102670008EEF91E16FE27BE00E94ED460E94AA306E
:10268000DE01AB5BBF4F2C93FE01EA5BFF4F308353
:10269000FE01E95BFF4F4083FE01E85BFF4F508383
:1026A000FE01E75BFF4F6083FE01E65BFF4F708337
:1026B0009E01275F3F4FFD0186E00190D9010D92F9
:1026C0009D018150D1F78BE79FE00E94971C8BE71B
:1026D0009FE065E34FEF2FEF0FEF0E94DD1ECE016D
:1026E0008A966BE77FE043E458E023E10E94B81D3F
:1026F0008CA59DA590931F0D80931E0D8EA59FA563
:10270000A8A9B9A98093200D9093210DA093220D23
:10271000B093230D8AA99BA9ACA9BDA98093240DD0
:102720009093250DA093260DB093270DA8E2BDE050
:10273000FE01F6968DE001900D928150E1F7FE01C9
:10274000ED5BFF4F808191819093360D8093350D25
:10275000CE018A960E944E1B698570E06053784FC7
:102760008CE19DE04AE050E00E9438468CE19DE01B
:102770006FE20E946D458CE19DE06A854AE050E081
:102780000E9466468CE19DE06FE20E946D458CE1FF
:102790009DE06B854AE050E00E9466468CE19DE03A
:1027A00060E20E946D458CE19DE06C854AE050E05E
:1027B0000E9466468CE19DE06AE30E946D458CE1D3
:1027C0009DE06D854AE050E00E9466468CE19DE008
:1027D0006AE30E946D458CE19DE06E854AE050E021
:1027E0000E9466468CE19DE067E87BE00E94EA4635
:1027F0008CE19DE062E17BE00E94EA468CE19DE095
:102800006DE27BE00E94EA466091930E7091940E17
:102810008CE19DE04AE050E00E94B8468CE19DE0EA
:102820006DE27BE00E94EA466091950E7091960EF3
:102830008CE19DE04AE050E00E94CB468CE19DE0B7
:102840000E94AF1B8CE19DE00E949D1B8BE79FE0E7
:102850000E94971C87E090E02EC384E068EC72E051
:1028600041E050E00E94EA3A8EEF91E16CEA7BE0B1
:102870000E94ED4660E070E080E090E023E130E00F
:1028800040E050E00E9429475B016C018091930E6B
:102890009091940E8330910531F4B5E0AB2EB12CBC
:1028A000C12CD12C20C08130910531F4A3E0AA2E97
:1028B000B12CC12CD12C17C08230910531F4F4E039
:1028C000AF2EB12CC12CD12C0EC0049761F460E066
:1028D00070E080E090E023E130E040E050E00E94D2
:1028E00029475B016C0160E070E080E090E02BE044
:1028F00030E040E050E00E9429472B0164EF71E096
:1029000080E090E020ED37E040E050E00E94294771
:102910003B014C018CE00E942A3F80918F0E813058
:1029200049F560E070E080E090E022E330E040E0D4
:1029300050E00E9429476A307105E4F461E070E0DC
:1029400080E090E02CED35E040E050E00E94294727
:102950007B018C0186E161E00E94F73E0027F7FCD5
:102960000095102FC801B7010E94DC3D86E160E0B0
:102970000E94F73E86E00E942A3F019709F083C03B
:1029800080915A0C882309F47BC010925A0C8EEF68
:1029900091E16BEC7BE00E94ED468EEF91E16FECF4
:1029A0007BE00E94EA460E94623D28EE33E040E070
:1029B00050E00E94C04A8EEF91E1BA01A9012AE0DD
:1029C00030E00E9429468EEF91E163EE7BE00E94A9
:1029D000ED4662E370E080E090E00E94DC3D8CEB2D
:1029E0009CE061E00E94213A0E94CB068CEB9CE0C7
:1029F00060E042E00E94EA398CEB9CE068EE7BE00C
:102A00000E94EA468091910E813019F58DE261E0D5
:102A10000E94F73E8BE79FE00E94971C8BE79FE0A8
:102A200064E04FEF2FEF0FEF0E94DD1E8EEF91E17C
:102A300064E376E004C08EEF91E16AE476E00E9400
:102A4000ED4687ED9CE060E676E00E94B53688238F
:102A500091F38091510C62E140E020E00E9411105E
:102A600060ED77E080E090E00E94DC3D8DE260E088
:102A70000E94F73E85E090E09093980E8093970E29
:102A800081E08093BA0E86E00E942A3F892B09F0EC
:102A9000ADC08091BA0E882361F00E94623D6093C0
:102AA000B60E7093B70E8093B80E9093B90E109235
:102AB000BA0E80915A0C882309F098C00E94623D9A
:102AC0002091B60E3091B70E4091B80E5091B90ECC
:102AD000621B730B840B950B2091560C3091570C95
:102AE0004091580C5091590C261737074807590741
:102AF00008F07CC081E080935A0C8EEF91E16AEF80
:102B00007BE00E94EA460E94623D2091560C309183
:102B1000570C4091580C5091590C621B730B840B4D
:102B2000950B28EE33E040E050E00E94C04A8EEF63
:102B300091E1BA01A9012AE030E00E9429468EEF16
:102B400091E163EE7BE00E94ED4662E370E080E09D
:102B500090E00E94DC3D0E94CB068CEB9CE061E0A3
:102B60000E94213A8CEB9CE060E041E00E94EA394F
:102B70008CEB9CE06DE07CE00E94EA460E94623DA6
:102B80002091560C3091570C4091580C5091590C93
:102B9000621B730B840B950B28EE33E040E050E092
:102BA0000E94C04A8CEB9CE0BA01A9012AE030E007
:102BB0000E9429468CEB9CE060E042E00E94EA39EA
:102BC0008091510C0E94FF0F8091510C60E040E019
:102BD00020E00E94391068EE73E080E090E00E94EF
:102BE000DC3D8CEB9CE060E00E94213A82E00E9498
:102BF0002A3F019709F08BC080915A0C882309F471
:102C000083C010925A0C8EEF91E16BEC7BE00E9436
:102C1000ED468EEF91E16FEC7BE00E94EA460E9468
:102C2000623D28EE33E040E050E00E94C04A8EEF63
:102C300091E1BA01A9012AE030E00E9429468EEF15
:102C400091E163EE7BE00E94ED4662E370E080E09C
:102C500090E00E94DC3D8CEB9CE061E00E94213A18
:102C60000E94CB068CEB9CE060E042E00E94EA39D7
:102C70008CEB9CE06EE17CE00E94EA468091900E35
:102C8000813009F041C08091510C62E140E020E0C8
:102C90000E9411108DE261E00E94F73E8BE79FE0F9
:102CA0000E94971C8BE79FE064E04FEF2FEF0FEF40
:102CB0000E94DD1E8EEF91E164E376E004C08EEFAA
:102CC00091E16AE476E00E94ED4687ED9CE060E6E3
:102CD00076E00E94B536882391F38DE260E00E9491
:102CE000F73E85E090E09093980E8093970E0E94B7
:102CF000CB068091510C0E94FF0F8091510C60E037
:102D000040E020E00E94391081E08093BA0E82E01A
:102D10000E942A3F892B09F0A2C08091BA0E882315
:102D200061F00E94623D6093B60E7093B70E80937F
:102D3000B80E9093B90E1092BA0E80915A0C882357
:102D400009F08DC00E94623D2091B60E3091B70E01
:102D50004091B80E5091B90E621B730B840B950B0A
:102D60002091560C3091570C4091580C5091590CB1
:102D7000261737074807590708F071C081E080938C
:102D80005A0C8EEF91E160E37CE00E94EA460E94DB
:102D9000623D2091560C3091570C4091580C509147
:102DA000590C621B730B840B950B28EE33E040E04B
:102DB00050E00E94C04A8EEF91E1BA01A9012AE0D9
:102DC00030E00E9429468EEF91E163EE7BE00E94A5
:102DD000ED4662E370E080E090E00E94DC3D0E94FE
:102DE000CB068CEB9CE061E00E94213A8CEB9CE0EE
:102DF00060E041E00E94EA398CEB9CE06DE07CE011
:102E00000E94EA460E94623D2091560C3091570C78
:102E10004091580C5091590C621B730B840B950B0D
:102E200028EE33E040E050E00E94C04A8CEB9CE08A
:102E3000BA01A9012AE030E00E9429468CEB9CE00F
:102E400060E042E00E94EA3968EE73E080E090E0E2
:102E50000E94DC3D8CEB9CE060E00E94213A820104
:102E6000065B134FF80180816A2D40E020E00E944C
:102E70001110C401B3010E94DC3DD8018C910E9465
:102E8000FF0FF801808160E040E020E00E943910EF
:102E90008AEB9CE0BE016F5F7F4FAE014D5F5F4FDD
:102EA0000E943132882359F089819A818D52914054
:102EB00030F085E090E09093980E8093970EC65B7B
:102EC000DF4F0FB6F894DEBF0FBECDBFCF91DF91BD
:102ED0001F910F91FF90EF90DF90CF90BF90AF9038
:102EE0009F908F907F906F905F904F9008958EEF9E
:102EF00091E140E05BE460E070E00E94CE4281E05E
:102F00008093900E1092910E8093920E10928F0EDD
:102F10000E94FA0D0E94270F0E9461100E94B40EB9
:102F20000E94C90A0E94200E0E94610D0E941C0D81
:102F30000E9411080E94DC0F84E068EC72E041E01E
:102F400050E00E94EA3A82E090E09093980E8093DD
:102F5000970E089581E08093000F6093DD0E10922C
:102F6000FE0E1092FF0E089581E08093000F609393
:102F7000DD0E1092FE0E1092FF0E08952091DC0ED1
:102F800030E08091DB0E281B3109C9010895409182
:102F9000DB0E8091DC0E481718F02FEF3FEF0AC0D0
:102FA000E42FF0E0E554F14F8081282F30E04F5FAF
:102FB0004093DB0EC9010895E091DB0E8091DC0E99
:102FC000E81718F0EFEFFFEF06C0F0E0E554F14F1F
:102FD0008081E82FF0E0CF01089508951092040F4A
:102FE0001092030F88EE93E0A0E0B0E08093050F0D
:102FF0009093060FA093070FB093080F89E69CE00B
:103000009093020F8093010F0895CF92DF92EF9279
:10301000FF920F931F93CF93DF937C016B018A0183
:103020008091000F8823A1F0C0E0D0E00DC0D7014F
:10303000ED91FC91D601AC0FBD1F0190F081E02D08
:10304000C7016C9119952196C017D10780F304C070
:10305000CB01642F0E943719C801DF91CF911F91D6
:103060000F91FF90EF90DF90CF900895DF93CF9373
:103070000F92CDB7DEB7FC0169838091000F8823E2
:10308000C9F08091FF0E803238F081E090E09383A8
:10309000828320E030E015C08091FE0EE82FF0E042
:1030A000E252F14F998190838F5F8093FE0E80935F
:1030B000FF0E05C0CE01019661E00E94371921E0A4
:1030C00030E0C9010F90CF91DF9108950F93062F43
:1030D0008091DD0E6EED7EE04091FF0E21E00E94BA
:1030E000E2181092FE0E1092FF0E1092000F0F9138
:1030F000089561E00E9466180895413208F040E2A8
:10310000862F6BEB7EE00E9499181092DB0E809365
:10311000DC0E089521E00E947D1808951092DB0EC8
:103120001092DC0E1092FE0E1092FF0E0E94E71A13
:103130000895382F413210F040E042C080910D0FC9
:103140008823E1F791E090930D0F20930F0F8FEFFD
:1031500080937A0F1092350F41504093360F4F5F96
:1031600090930E0F80910E0F330F832B80930E0FD1
:103170008091100F813041F41092100F80910E0F4A
:103180008093BB0085EC01C085EE8093BC008091EC
:103190000D0F8130E1F38091350F841710F44091C9
:1031A000350F20E030E00AC0FB01E20FF31FD90128
:1031B000AB5EB04F8C9180832F5F3F4F2417A0F3FD
:1031C000842F08950F931F93582F122F413210F020
:1031D00081E04AC080910D0F8823E1F782E080935F
:1031E0000D0F00930F0F8FEF80937A0F1092350F12
:1031F0004093360FA5E1BFE0FB0102C081918D93A2
:103200008E2F861B8417D0F310920E0F80910E0F15
:10321000550F852B80930E0F8091100F813041F454
:103220001092100F80910E0F8093BB0085EC01C0AF
:1032300085EE8093BC00112321F080910D0F823028
:10324000E1F380917A0F8F3F11F480E00DC08091FF
:103250007A0F803211F482E007C080917A0F8033B8
:1032600011F084E001C083E01F910F910895482F71
:10327000613210F081E0089580910D0F843011F0DB
:1032800082E008956093580FA7E3BFE0842F9C016C
:10329000F90102C081918D938E2F841B8617D0F384
:1032A00080E008951F920F920FB60F920BB60F9207
:1032B00011242F933F934F935F936F937F938F933B
:1032C0009F93AF93BF93EF93FF938091B90090E0EA
:1032D000887F90708036910509F4F2C0813691059F
:1032E000CCF58832910509F47BC089329105B4F49C
:1032F0008031910509F46FC0813191053CF400974C
:1033000009F447C1089709F04FC165C0883191059C
:1033100009F466C0809709F047C182C080349105E6
:1033200009F4A4C08134910544F48033910509F473
:1033300082C0C89709F038C189C08035910509F469
:1033400089C08835910509F496C08834910509F043
:103350002BC1AEC08839910509F413C18939910593
:10336000ECF48837910509F4ABC0893791054CF42A
:103370008836910509F4A4C08037910509F014C17D
:103380009FC08838910509F4FCC08039910509F483
:103390009DC08038910509F007C198C0803B910518
:1033A00009F4C6C0813B91054CF4803A910509F4BB
:1033B0009FC0883A910509F0F7C0BAC0803C9105DA
:1033C00009F4E3C0883C910509F4DFC0883B91050E
:1033D00009F0EAC0C2C080910E0F8093BB00CFC03D
:1033E0009091350F8091360F981768F49091350FB2
:1033F000E92FF0E0EB5EF04F80818093BB009F5F90
:103400009093350FBCC080910F0F882309F44BC0F7
:1034100085ED8093BC008091BC0084FDFCCFC2C0D0
:1034200080E280937A0F85ED8093BC008091BC0090
:1034300084FDFCCFB7C080E380937A0F85ED809345
:10344000BC008091BC0084FDFCCFACC088E38093BD
:103450007A0F9BC08091350F9091BB00E82FF0E070
:10346000EB5EF04F90838F5F8093350F9091350F17
:103470008091360F82C08091350F9091BB00E82F6C
:10348000F0E0EB5EF04F90838F5F8093350F80917B
:103490000F0F882341F085ED8093BC008091BC0024
:1034A00084FDFCCF7FC081E08093100F84EA6EC062
:1034B00085ED8093BC008091BC0084FDFCCF72C080
:1034C00083E080930D0F1092790F59C08091790F8E
:1034D000803208F056C08091790F9091BB00E82FA0
:1034E000F0E0E75AF04F90838F5F8093790F47C0E9
:1034F0008091790F803230F4E091790FF0E0E75A53
:10350000F04F108285ED8093BC008091BC0084FD5B
:10351000FCCF10920D0F6091790FE091130FF09195
:10352000140F89E59FE070E019951092790F2DC076
:1035300084E080930D0F1092570F1092580FE09176
:10354000110FF091120F19958091580F882329F4CB
:1035500081E08093580F1092370F9091570FE92F09
:10356000F0E0E95CF04F80818093BB009F5F909317
:10357000570F9091570F8091580F981710F485ECC2
:1035800001C085E88093BC000FC085EC8093BC002F
:1035900009C010927A0F85ED8093BC008091BC0029
:1035A00084FDFCCF10920D0FFF91EF91BF91AF9171
:1035B0009F918F917F916F915F914F913F912F914B
:1035C0000F900BBE0F900FBE0F901F90189510928A
:1035D0000D0F81E080930F0F1092100F84E161E0D6
:1035E0000E94F73E85E161E00E94F73EE9EBF0E0E2
:1035F00080818E7F808380818D7F808388E480932B
:10360000B80085E48093BC000895882319F48CB534
:10361000806202C08CB58F7D8CBD08959CB5937F70
:10362000982B9CBD08952CB5382F33702C7F322BEE
:103630003CBD2DB590E095958795959587958170C2
:103640002E7F822B8DBD089585E361E00E94F73EB9
:1036500085E361E00E94443E8CB580618CBD8CB5F1
:1036600080648CBD84E361E00E94443E83E361E0BA
:103670000E94443E0895FC011382128288EE93E07A
:10368000A0E0B0E084839583A683B78389E79CE0BC
:1036900091838083128E118E14860895FC0189E730
:1036A0009CE0918380830895DF93CF930F92CDB7F1
:1036B000DEB7FC016983A081B18112962D913C9106
:1036C0001397BE016F5F7F4F41E050E0F9011995FC
:1036D0000F90CF91DF910895DC015996ED91FC9107
:1036E0005A97309719F420E030E018C023893489C4
:1036F0004589568982859385A485B585281B390B14
:103700004A0B5B0B2030B0E83B07B0E04B07B0E062
:103710005B0720F02FEF3FE740E050E0C90108953C
:10372000DC015996ED91FC915A97309711F480E0A5
:1037300008958581811181E00895CF93DF93EC0195
:10374000898D9A8D009741F00E944524898D9A8D2C
:103750000E9439401A8E198EDF91CF910895FC0195
:10376000818D928D009711F00E94FB230895FC013A
:10377000818D928D009719F420E030E003C00E9403
:103780001C259C01C9010895DF93CF930F92CDB7FB
:10379000DEB7FC01818D928D009749F0BE016F5F0D
:1037A0007F4F41E050E00E941C25019719F02FEF58
:1037B0003FEF03C08981282F30E0C9010F90CF91DE
:1037C000DF910895EF92FF920F931F93DF93CF93B2
:1037D0000F92CDB7DEB77C01DC0159968D919C919B
:1037E0005A97009719F400E010E01FC0BE016F5F08
:1037F0007F4F41E050E00E941C25019719F00FEF28
:103800001FEF13C08981082F10E0D7015996ED9161
:10381000FC915A9742855385648575854150504087
:1038200060407040CF010E943523C8010F90CF91B6
:10383000DF911F910F91FF90EF900895CF93DF9349
:10384000EC01E98DFA8D309761F013821282CF017D
:103850000E9461279C01E98DFA8D82819381892BD9
:1038600031F081E090E09B838A8320E030E0C90161
:10387000DF91CF910895EF92FF920F931F93CF9313
:10388000DF93EC01F62EE72E8A011B821A8288EE66
:1038900093E0A0E0B0E08C839D83AE83BF8389E793
:1038A0009CE0998388838DE190E00E949C3F9A8FF1
:1038B000898F009791F0DC018F2D9E2D9C01F901DD
:1038C0008DE101900D928150E1F7CE010C96B80187
:1038D0004CE050E00E942202188EDF91CF911F91A0
:1038E0000F91FF90EF9008951092800F1092810F2A
:1038F0001092840F1092860F82E090E0A0E0B0E07A
:103900008093880F9093890FA0938A0FB0938B0FA9
:1039100010929F0F1092A90F1092A80F89E89CE0B7
:103920009093A70F8093A60F1092AB0F08958B96DC
:103930000E94452408952F923F924F925F926F927A
:103940007F928F929F92AF92BF92CF92DF92EF922F
:10395000FF920F931F93DF93CF93CDB7DEB7C7547A
:10396000D0400FB6F894DEBF0FBECDBF582E492E03
:10397000FB013A01190185A596A5998B888B29E849
:103980003CE03F872E8787A58A8B80A98B8B81A9F6
:1039900092A9A3A9B4A98C8B9D8BAE8BBF8B85A953
:1039A00096A9A7A9B0AD888F998FAA8FBB8F81AD3B
:1039B00092ADA3ADB4AD8C8F9D8FAE8FBF8F85AD13
:1039C00088A3FE9681919191A191B19189A39AA327
:1039D000ABA3BCA381919191A191B1918DA39EA321
:1039E000AFA3B8A7808191819AA789A71EA61DA61B
:1039F0003CA72BA718AA7A018E01025F1F4F3BE25A
:103A0000A32EB12CAC0EBD1E4E010894811C911C3E
:103A100035C0D7018C918F3221F40894E11CF11C40
:103A20002DC0422F4E194D3008F04CE0C42EDD243D
:103A3000C401B701A6010E942202F401EC0DFD1D94
:103A40001082C5010E944524C501B801A40121E0EE
:103A50000E948D29882351F4E52DF42D13821282C2
:103A600089E89CE091838083158266C0EC0CFD1C84
:103A7000C8010E944524C50158018C01C7016FE2AD
:103A800070E00E9417029C01009719F6E618F708EB
:103A9000F101F182E082E52DF42DD80112968D918D
:103AA0009C9113979383828389E89CE09183808320
:103AB00014968C911497848315968C911597858311
:103AC00016962D913D914D915C91199726833783E0
:103AD000408751871A962D913D914D915C911D978C
:103AE00022873387448755871E962D913D914D91AE
:103AF0005C91519726873787408B518B52968C91DA
:103B00005297828B53962D913D914D915C91569792
:103B1000238B348B458B568B57962D913D914D9130
:103B20005C915A97278B308F418F528F5B968D9186
:103B30009C915C97948F838F852D942DC95BDF4F6B
:103B40000FB6F894DEBF0FBECDBFCF91DF911F91AE
:103B50000F91FF90EF90DF90CF90BF90AF909F902C
:103B60008F907F906F905F904F903F902F9008952F
:103B70009F92AF92BF92CF92DF92EF92FF920F93FC
:103B80001F93DF93CF93CDB7DEB7C657D0400FB6A4
:103B9000F894DEBF0FBECDBFC82E992E8A01D22E5B
:103BA00043E0A42EB12CAC0EBD1EC501A8019E01A0
:103BB0002F5F3F4F0E949B1CE980FA80E00EF11EB0
:103BC000F701808149E85CE02885882309F03FC03F
:103BD0008D819E819BA38AA359A348A38F818CA327
:103BE0002DA389859A85AB85BC858EA39FA3A8A7A5
:103BF000B9A78D859E85AF85B8898AA79BA7ACA7F5
:103C0000BDA789899A89AB89BC898EA79FA7A8ABD4
:103C1000B9AB8D898AAB8E899F89A88DB98D8BAB05
:103C20009CABADABBEAB8A8D9B8DAC8DBD8D8FAB90
:103C300098AFA9AFBAAF8E8D9F8D9CAF8BAF8C2DF7
:103C4000992DBE01605E7F4F43E45CE09FC0FE01A2
:103C5000FF96118210825EAF4DAFFE01EE5BFF4F0B
:103C600010822223A9F02250CE01CD96223048F4B2
:103C700066EA7FE0A7012D2D0E948D29882381F41B
:103C800007C0B501A7012D2D0E948D29882329F495
:103C90008C2D992D0E943B1B7BC0C5010E944524A1
:103CA000F6E0DF2259F0FE01E05BFF4F40815181D9
:103CB00062817381CE01CD960E9435239E01265AE2
:103CC0003F4FFE01FF9680819181F90193838283AA
:103CD00089E89CE091838083FE01EF5BFF4F808148
:103CE000F9018483FE01EE5BFF4F8081F90185833A
:103CF000FE01ED5BFF4F80819181A281B381F901CB
:103D000086839783A087B187FE01E95BFF4F80819F
:103D10009181A281B381F90182879387A487B587B6
:103D2000FE01E55BFF4F80819181A281B381F901A2
:103D300086879787A08BB18BFE01E15BFF4F808167
:103D4000F901828BFE01E05BFF4F80819181A281AE
:103D5000B381F901838B948BA58BB68BFE01EC5A52
:103D6000FF4F80819181A281B381F901878B908F70
:103D7000A18FB28FFE01E85AFF4F80819181F90136
:103D8000948F838F8C2D992DB901A7010E943B1C24
:103D90008C2D992DCA58DF4F0FB6F894DEBF0FBE99
:103DA000CDBFCF91DF911F910F91FF90EF90DF90EA
:103DB000CF90BF90AF909F900895EF920F931F9375
:103DC000CF93DF93EC01362F542F722FE02E61E05A
:103DD000432F252F072F0E94D0218823D1F08E0159
:103DE000035F1F4FC801BE0141E00E942E2B8823B4
:103DF00039F4C801BE0140E00E942E2B882349F00F
:103E0000CE018B96B8010E947B26882319F081E0B1
:103E100001C080E0DF91CF911F910F91EF90089545
:103E2000382F8091C50F8F3F31F43EBD0DB407FE92
:103E3000FDCF8EB50895F894A091C60FB091C70F2D
:103E40005091C80F252F2095E091C90FF091CA0F0E
:103E50004091CB0F642F609590E08C9182238C93DE
:103E600037FF03C08081842B02C08081862380833A
:103E70008C91852B8C939F5F983011F0330FEDCF91
:103E800000000000000000008C9128232C937894FF
:103E900008958091C50F8F3F31F48EBD0DB407FE9C
:103EA000FDCF2EB530C0F894E091C90FF091CA0F44
:103EB00080819091CB0F892B8083E091C60FF09188
:103EC000C70F6091C80FA091CC0FB091CD0F80911A
:103ED000CE0F482F50E0762F709530E020E08081A3
:103EE000862B8083220F8C9190E084239523892B4D
:103EF00009F02160808187238083000000003F5FFC
:103F0000383069F77894822F08950F931F93CF93D9
:103F1000DF938B010E94623DEB010E94491F8F3F9E
:103F200011F481E008C00E94623D6C1B7D0B60179C
:103F3000710798F380E0DF91CF911F910F91089561
:103F4000FC01673020F086E1858380E008956330CE
:103F5000B9F0643028F4613069F0623070F407C061
:103F60006530A1F0653078F06630A9F412C084E0C5
:103F700090E011C080E090E00EC085E090E00BC0C2
:103F800081E090E008C086E090E005C082E090E02B
:103F900002C083E090E00E94131B81E00895FC01C1
:103FA000848160E00E94F73E0895FC01848161E015
:103FB0000E94F73E0895CF92DF92EF92FF920F9307
:103FC0001F93CF93DF937C016A01FC0184858823D2
:103FD00019F40FEF1FEF30C000E010E040E050E0B8
:103FE000212F332727FD3A95F601E40FF51F808135
:103FF00090E0282739273070C901F4E0959587951E
:10400000FA95E1F782279327102F00270827192711
:104010009C01322F22273295307F0227132725E07B
:10402000880F991F2A95E1F7082719274F5F5F4FDF
:10403000F2E040305F07A1F6862F0E94101FC0E01B
:10404000D0E0F601EC0FFD1F80810E94101F219629
:1040500082E0C030D807A9F7812F992787FD9A956C
:104060000E94101F802F0E94101F0E94491FF701FD
:1040700082878F71853011F481E007C081E1F701FB
:104080008583C7010E94D51F80E0DF91CF911F91EA
:104090000F91FF90EF90DF90CF9008950F931F93B3
:1040A000CF93DF93EC010E94623D8B0109C00E9417
:1040B000623D601B710B6D52714010F08FE00AC0C1
:1040C0000E94491F8A878F3F91F38E3F11F481E050
:1040D00006C08DE08D83CE010E94D51F80E0DF9168
:1040E000CF911F910F910895CF93DF93EC018E81B3
:1040F000882319F40FC00E94491F8F81988501966B
:1041000098878F83019782509240A8F3CE010E9436
:10411000D51F1E82DF91CF910895DF92EF92FF921B
:104120000F931F93CF93DF93EC01D62E79018A0171
:104130000E947420CE010E94CF1FCE016CE271E07C
:104140000E94851F8D2D80640E94101F812F99274A
:10415000AA27BB270E94101FC801AA27BB270E94BD
:10416000101FBB27A12F902F8F2D0E94101F8E2D67
:104170000E94101FDD2011F485E906C088E0D816E2
:1041800011F487E801C08FEF0E94101F10E00E9419
:10419000491F8A8787FF02C01150C9F7DF91CF916D
:1041A0001F910F91FF90EF90DF900895CF92DF92D3
:1041B000EF92FF920F931F93CF93DF93EC017A015D
:1041C0008B016901411551056105710511F482E109
:1041D00033C08B85833039F039E0EE0CFF1C001FB3
:1041E000111F3A95D1F7CE0168E1A80197010E940D
:1041F0008D20882311F084E01FC0CE016EEFA60150
:104200000E94DB1F8823C9F0CE0168E572E00E949E
:10421000851F882311F485E10FC0CE016DE020E0F9
:1042200030E040E050E00E948D20882321F40E947D
:10423000491F882379F084E18D83CE010E94D51F28
:1042400080E0DF91CF911F910F91FF90EF90DF9071
:10425000CF900895CE010E94D51F81E0F2CF6F92DA
:104260007F928F929F92AF92BF92CF92DF92EF9206
:10427000FF920F931F93CF93DF93EC015A016B01D1
:10428000390148010115110509F46AC0C801820FFE
:10429000931F8150924008F05EC08E81882371F098
:1042A00088819981AA81BB81481759076A077B07D2
:1042B00029F48F8198856816790650F5A882B9820D
:1042C000CA82DB828B85833039F0E9E0AA0CBB1C03
:1042D000CC1CDD1CEA95D1F7CE0161E1A601950168
:1042E0000E948D20882319F083E08D8334C0CE0195
:1042F0000E944E20882379F118861F8281E08E83E8
:1043000007C00E94491F8F819885019698878F83E7
:104310008F81988586159705A0F300E010E008C00E
:104320000E94491FF701E00FF11F80830F5F1F4FAD
:1043300008151905A8F32F813885280D391D3887F0
:104340002F838985882319F02050324048F0CE0110
:104350000E94742005C0CE010E94D51F80E001C0DC
:1043600081E0DF91CF911F910F91FF90EF90DF904F
:10437000CF90BF90AF909F908F907F906F90089557
:10438000EF92FF920F931F93790120E030E000E05D
:1043900012E00E942F211F910F91FF90EF9008953E
:1043A000BF92CF92DF92EF92FF920F931F93CF9322
:1043B000DF93EC01B62E1E2D1B8619861E821D82F0
:1043C0001C864C832093CF0F0093D00FE092C50F33
:1043D0000E94623D6B018C8161E00E94443ECE01EF
:1043E0000E94D51F1F3F09F462C08091D00F60E08A
:1043F0000E94443E8091CF0F61E00E94443E809134
:10440000C50F61E00E94443EE091C50F2E2F332777
:1044100027FD3095F901E95EFD4FE491F0E0EE0FE4
:10442000FF1FED51FE4F859194919093C70F80939C
:10443000C60F235A3D4FF90184918093C80FE09134
:10444000CF0F2E2F332727FD3095F901E95EFD4F61
:10445000E491F0E0EE0FFF1FED51FE4F8591949136
:104460009093CA0F8093C90F235A3D4FF90184914D
:104470008093CB0FE091D00F2E2F332727FD30955F
:10448000F901E95EFD4FE491F0E0EE0FFF1FE3500C
:10449000FE4F859194919093CD0F8093CC0F235A2A
:1044A0003D4FF90184918093CE0F10E006C00E9429
:1044B000241B83E00E94131BF8CF8FEF0E94101F74
:1044C0001F5F1A30D1F7CE010E94CF1F09C00E9492
:1044D000623D6C197D09615D774010F081E05AC042
:1044E000CE0160E020E030E040E050E00E948D200E
:1044F000182F8A87813059F7CE0168E02AEA31E027
:1045000040E050E00E948D2082FF02C01B870DC05A
:1045100010E00E94491F8A871F5F1430D1F78A3A42
:1045200011F082E037C082E08B878B85823021F0EA
:10453000EE24FF2487010FC0E12CF12C012DF0E4C3
:104540001F2F09C00E94623D6C197D09615D774093
:1045500010F088E01FC0CE0167E320E030E040E0CB
:1045600050E00E948D20CE0169E2A80197010E94CF
:104570008D208A87882331F78B858230F1F4CE0134
:104580006AE320E030E040E050E00E948D20882384
:1045900039F086E08D83CE010E94D51F80E01AC0DD
:1045A0000E94491F807C803C11F483E08B870E942D
:1045B000491F0E94491F0E94491FCE010E94D51F1A
:1045C0008091C50F8F3F11F081E004C0CE016B2DAB
:1045D0000E94A01FDF91CF911F910F91FF90EF904C
:1045E000DF90CF90BF900895CF93DF93EC01DB0174
:1045F00080E090E020E2FD01E80FF91F20830196A2
:104600008B309105C1F757E040E021C02E3219F000
:104610008DEA91E007C05A3019F15AE048E017C01E
:104620003217F1F0FC01019634913323C9F7541786
:10463000B8F02132A8F02F3798F4822F81568A31B2
:1046400008F42052FD01E40FF11D20834F5F2991F2
:104650002223E1F690E08C91803219F091E001C0C4
:1046600090E0892FDF91CF9108956F927F928F9282
:104670009F92AF92BF92CF92DF92EF92FF920F93F1
:104680001F93CF93DF93EC017A018B012D812223BD
:1046900009F480C08B899C89AD89BE8984179507F0
:1046A000A607B70708F476C085C0E114F104010538
:1046B000110549F41E821F82188619861A861B86E8
:1046C0001C861D8665C02A853B854C855D85EB8DE6
:1046D000FC8D858590E00996215030404040504047
:1046E00039014A01082E04C0969487947794679400
:1046F0000A94D2F72F5F3F4F4F4F5F4F0894E10866
:10470000F108010911095701680104C0D694C79442
:10471000B794A7948A95D2F70894E11CF11C011D67
:10472000111DA614B704C804D90428F021153105B9
:104730004105510549F48F89988DA98DBA8D8E83D5
:104740009F83A887B98716C0A618B708C808D908D4
:1047500011C04E815F81688579858B8D9C8D940118
:104760000E940F2D0894A108B108C108D108882320
:1047700031F410C086E0882E912C8C0E9D1EA11461
:10478000B104C104D10429F7EA86FB860C871D8792
:1047900081E001C080E0DF91CF911F910F91FF90E8
:1047A000EF90DF90CF90BF90AF909F908F907F90D1
:1047B0006F900895223009F078CFE6CFCF93DF9342
:1047C000EC01462F6E857F85888999890E94F32A9E
:1047D000882319F420E030E00AC08A89282F30E0CD
:1047E00095E0220F331F9A95E1F72D52304FC90102
:1047F000DF91CF9108950F931F93CF93DF938C0197
:10480000FC0185818823D9F1848187FF35C0C801E7
:1048100061E00E94DE23EC01009789F1F8018581B7
:10482000823040F483899489A589B6898C8F9D8FC5
:10483000AE8FBF8FF8018789908D9B8F8A8F878974
:10484000908DA18DB28DCD01AA27BB279D8B8C8B1E
:10485000E091D10FF091D20F309751F0BE016A5E16
:104860007F4FCE0148961995888D998D9B8B8A8BA9
:10487000F80184818F7784830E94942A01C080E0AC
:10488000DF91CF911F910F910895CF93DF93EC01AA
:104890000E94FB23882311F01D8281E0DF91CF91DC
:1048A00008956F927F928F929F92AF92BF92CF9214
:1048B000DF92EF92FF920F931F93DF93CF9300D07D
:1048C0000F92CDB7DEB77C015A016B01DC01159662
:1048D0008C911597813009F08FC014968C9181FFCF
:1048E0008BC09EC00097A105B10511F481E085C081
:1048F000F7016284738484849584C701B601A5019D
:104900000E943523882309F477C0D7015B968D91E7
:104910009C915C97A114B104C104D10489F4579609
:104920004D915D916D917C915A970E94822D8823C3
:1049300009F462C0F701178A108E118E128E3DC0E5
:10494000D70116964D915D916D917C9119979E01BD
:104950002F5F3F4F0E940F2D882309F44DC0D701D0
:104960005B96ED91FC915C9749815A816B817C81CA
:104970008789803129F088EF9FEFAFEFBFE004C057
:1049800088EF9FEFA0E0B0E0481759076A077B0760
:10499000A0F4CF010E94822D882371F1F701468196
:1049A000578160857185838D948D0FEF1FEF2FEFF9
:1049B0003FE00E94732C8823F9F0D7015396AD9203
:1049C000BD92CD92DC92569714968C911497806884
:1049D00014968C93C7010E94FB23882369F0B601CB
:1049E000A5016A147B048C049D0410F4B401A30196
:1049F000C7010E94352301C080E00F900F900F90F7
:104A00000F90CF91DF911F910F91FF90EF90DF906A
:104A1000CF90BF90AF909F908F907F906F900895B0
:104A2000F70183899489A589B68984179507A60714
:104A3000B70708F057CFE0CF2F923F924F925F9287
:104A40006F927F928F929F92AF92BF92CF92DF929E
:104A5000EF92FF920F931F93CF93DF93EC012A0104
:104A60008D81882309F4C6C08C8180FFC3C0D8C063
:104A700025014E185F084B0176E0272E312C2C0EB5
:104A80003D1E3201B1C02A853B854C855D856FEFA7
:104A9000A62E61E0B62EA222B3228D8179018A0171
:104AA00099E016950795F794E7949A95D1F7EB8DD1
:104AB000FC8D823049F4428D538D648D758D4E0D81
:104AC0005F1D601F711F3FC0D480DA94DE20A114E7
:104AD000B104D9F4DD20C9F4211531054105510592
:104AE00049F48F89988DA98DBA8D8E839F83A8876D
:104AF000B9870BC04E815F8168857985CF019101AF
:104B00000E940F2D882309F475C0EB8DFC8D4E811A
:104B10005F816885798542505040604070400584CF
:104B200004C0440F551F661F771F0A94D2F786856D
:104B30009785A089B189480F591F6A1F7B1F4D0DAA
:104B4000511D611D711D80E092E08A199B0963016E
:104B50008615970508F46C018C8186FD06C080E0FF
:104B6000C81682E0D80609F073C080915B0C909162
:104B70005C0CA0915D0CB0915E0C481759076A0758
:104B80007B0709F465C08091D3119091D4119501F0
:104B9000860174010E942F21882361F18C0C9D1CD9
:104BA00012C095012D52304FA9014C0D5D1DD4014D
:104BB000F90102C081918D93E417F507D9F7E21B43
:104BC000F30B8E0E9F1E960140E050E08A859B8578
:104BD000AC85BD85820F931FA41FB51F8A879B8755
:104BE000AC87BD876C187D086114710409F04BCF48
:104BF000A20102C04FEF5FEFCA01DF91CF911F9179
:104C00000F91FF90EF90DF90CF90BF90AF909F906B
:104C10008F907F906F905F904F903F902F9008956E
:104C2000AB88BC88CD88DE88EA84FB840C851D8532
:104C30009A0140E050E0D601C5018E199F09A00BF2
:104C4000B10B82179307A407B50708F411CF13CF50
:104C5000CB01BA0140E00E94F32A882309F0A1CFDA
:104C6000C9CFCF92DF92EF92FF920F931F93DF9302
:104C7000CF930F92CDB7DEB76C01FC0185818230F6
:104C800070F0E284F38404851585C601BE016F5F70
:104C90007F4F41E050E00E941C25019769F020E021
:104CA00030E0C9010F90CF91DF911F910F91FF90DC
:104CB000EF90DF90CF900895F60182859385A485CB
:104CC000B5854F96A11DB11D82879387A487B587AF
:104CD000F5E016950795F794E794FA95D1F78E2DA0
:104CE0008F70282F30E0E5E0220F331FEA95E1F7BF
:104CF0002D52304FD6CF0F931F93CF93DF93EC01FC
:104D00008B018D81882309F041C0FB0187898031A7
:104D1000B1F482E08D831F8A188E198E1A8E808DD1
:104D2000918DA0E0B0E045E0880F991FAA1FBB1F3E
:104D30004A95D1F78B8B9C8BAD8BBE8B15C0803287
:104D400029F583E08D83FB01428D538D648D758D34
:104D50004F8B588F698F7A8F9E012D5E3F4FC80110
:104D60000E94DB2D882391F01C8F0B8F81E08C83B8
:104D70001E821F82188619861A861B861C861D862F
:104D80001E861F86188A198A1A8A01C080E0DF9160
:104D9000CF911F910F9108951F93CF93DF93EC0153
:104DA000142FE62FF0E075E0EE0FFF1F7A95E1F784
:104DB000ED52F04F8385817121F0842F827409F0C8
:104DC00054C06A8B80915B0C90915C0CA0915D0C3F
:104DD000B0915E0C8E879F87A88BB98B848995894B
:104DE000A0E0B0E0BC0155274427828D938DA0E060
:104DF000B0E0482B592B6A2B7B2B4F8B588F698F38
:104E00007A8F838590E088719070009751F4848D3B
:104E1000958DA68DB78D8B8B9C8BAD8BBE8B81E0DA
:104E20000CC0409711F59E012D5E3F4F8B8D9C8DE0
:104E30000E94DB2D8823C9F084E08D83812F8F7041
:104E40008C831E821F82188619861A861B861C86F2
:104E50001D8616FD02C081E009C0CE0140E050E091
:104E600060E070E00E94512401C080E0DF91CF91AA
:104E70001F910895CF93DF93EC019C012A5F3F4F70
:104E80008B8D9C8D41E050E060E070E00E944A2EE6
:104E90008823A1F08F89988DA98DBA8D0097A105DF
:104EA000B10559F48E819F81A885B9858F8B988F24
:104EB000A98FBA8F8C8180688C8381E0DF91CF913C
:104EC00008952F923F924F925F927F928F929F927E
:104ED000AF92BF92CF92DF92EF92FF920F931F9308
:104EE000DF93CF9300D000D0CDB7DEB76C01162F83
:104EF000072F5E834D83DC0115968C9115978130C9
:104F000009F070C114968C9181FF6CC18EC1F601BD
:104F1000438954896589768982859385A485B58579
:104F200084179507A607B70731F0C6010E943523FD
:104F3000882309F457C1812F902F9C0129012D80CE
:104F40003E8017C1D6015B96ED91FC915C97DA012A
:104F5000C90119E0B695A795979587951A95D1F748
:104F600074807A9478227FEF872E71E0972E8222C8
:104F70009322772009F04EC08114910409F04AC0B1
:104F8000D60116964D915D916D917C9119974115C1
:104F900051056105710581F457968D919D910D9094
:104FA000BC91A02D0097A105B10549F1F6018683BA
:104FB0009783A087B1872EC0CF019E012F5F3F4FFF
:104FC0000E940F2D882309F414C129813A814B8155
:104FD0005C81D6015B96ED91FC915C97878980316D
:104FE00029F088EF9FEFAFEFBFE004C088EF9FEF9D
:104FF000A0E0B0E0281739074A075B0730F0C60188
:105000000E943A27882331F4EDC0F60126833783C6
:105010004087518780E092E08819990951018215F3
:10502000930508F45C01D6015B96ED91FC915C97C9
:105030001696ED90FD900D911C9119978EEF9FEFB4
:10504000AFEFBFEFE80EF91E0A1F1B1F058404C057
:10505000EE0CFF1C001F111F0A94D2F7868597855E
:10506000A089B189E80EF91E0A1F1B1FE70CF11C6D
:10507000011D111D90E0A91692E0B90651F580912D
:105080005B0C90915C0CA0915D0CB0915E0C8E1548
:105090009F05A007B10761F48FEF9FEFAFEFBFEF60
:1050A00080935B0C90935C0CA0935D0CB0935E0CB2
:1050B0008091D3119091D411B801A70192010E945F
:1050C000D620882309F48EC0A0E0B2E04A0E5B1E11
:1050D0003EC08114910409F5F6012285338544858B
:1050E000558583899489A589B689281739074A0780
:1050F0005B0798F00E94942A882309F473C0E09219
:105100005B0CF0925C0C00935D0C10935E0C809134
:10511000D51181608093D51108C0C801B70141E065
:105120000E94F32A882309F45DC094012D52304F68
:10513000A9014A0D5B1DD201F90102C08D91819335
:10514000E417F507D9F7E21BF30B4E0E5F1E2A1882
:105150003B08950140E050E0F60182859385A485E7
:10516000B585820F931FA41FB51F82879387A487DD
:10517000B587D6011A962D913D914D915C911D9761
:105180002114310409F0DECE53968D919D910D903E
:10519000BC91A02D82179307A407B50748F4F60128
:1051A000238B348B458B568B84818068848311C01C
:1051B0008091D10F9091D20F892B59F08D819E81D2
:1051C000892B39F0D60114968C9114978068149627
:1051D0008C93F601848183FF0EC0C6010E94FB23DD
:1051E000882349F481E090E0D60113969C938E9336
:1051F00012971E821D828D819E8126960FB6F8948D
:10520000DEBF0FBECDBFCF91DF911F910F91FF90F9
:10521000EF90DF90CF90BF90AF909F908F907F9056
:105220005F904F903F902F90089582FD70CE83CE77
:10523000DF93CF930F92CDB7DEB76983BE016F5F67
:105240007F4F41E050E00E9461270F90CF91DF91A6
:105250000895DF92EF92FF920F931F93CF93DF9306
:10526000EC010E943A27882309F44EC0EB8DFC8D97
:10527000EE80FF80088519858EEF9FEFAFEFBFEFBF
:10528000E80EF91E0A1F1B1F058404C0EE0CFF1C4C
:10529000001F111F0A94D2F786859785A089B189CE
:1052A000E80EF91E0A1F1B1FD4800894E108F108BC
:1052B000010911090BC0C801B7016D0D711D811DD8
:1052C000911D0E94CF2A8823F9F0DA94DD2099F706
:1052D000EB8DFC8D20E032E040E050E0058404C01E
:1052E000220F331F441F551F0A94D2F78B899C89C4
:1052F000AD89BE89820F931FA41FB51F8B8B9C8B1A
:10530000AD8BBE8B81E001C080E0DF91CF911F911A
:105310000F91FF90EF90DF9008956F927F928F92A0
:105320009F92AF92BF92CF92DF92EF92FF920F9334
:105330001F93DF93CF93CDB7DEB72B970FB6F894BB
:10534000DEBF0FBECDBF5C016B01822EDC01159666
:105350008C91882309F0D2C0CA018E010F5F1F4FC4
:10536000B8010E94F422882309F4C8C0F601838D95
:10537000948DD5015C969C938E935B9716821782D1
:1053800010861186D6011A961D921D921D921C92AE
:105390001D979924380141C0C6010E943126FC01A5
:1053A000009709F4ABC085E016950795F794E7944C
:1053B0008A95D1F71E2D1F708081882311F0853EBC
:1053C000D1F4992091F4D50152961C9352972091D3
:1053D0005B0C30915C0C40915D0C50915E0C1E9604
:1053E0002D933D934D935C9351978081882399F43D
:1053F0009924939421C0C301BF014BE050E00E9467
:105400000A02009751F4882D8073803309F476C026
:10541000C501612F6FC099249394F601E284F3844F
:105420000485158583899489A589B689E816F906C6
:105430000A071B0708F4B0CF882D8271823109F06A
:105440005DC0992041F0C50161E00E94DE238C011E
:10545000009789F453C0D60115968C91823009F4D7
:105460004DC0C6010E942929882309F447C0F501CF
:10547000128A03ED1FE080E2D8011D928A95E9F7B8
:10548000D801FE0131968BE001900D928150E1F739
:10549000E091D10FF091D20F309739F0B801625FEF
:1054A0007F4FC8014096199509C081E298E2F80142
:1054B000918B808B80E098E097878687D801509603
:1054C0008D919C91519753969C938E935297599698
:1054D0009C938E9358971E968D919C911F975796EB
:1054E0009C938E9356970E94942A882339F0C50185
:1054F000F5016289482D0E94CC2601C080E02B96E0
:105500000FB6F894DEBF0FBECDBFCF91DF911F91D4
:105510000F91FF90EF90DF90CF90BF90AF909F9052
:105520008F907F906F9008958091D511882399F185
:1055300040915B0C50915C0C60915D0C70915E0C25
:105540008091D3119091D41123ED3FE00E94D62099
:10555000882319F14091D6115091D7116091D8113B
:105560007091D911411551056105710591F0809136
:10557000D3119091D41123ED3FE00E94D6208823CF
:1055800061F01092D6111092D7111092D81110928A
:10559000D9111092D51181E0089580E00895EF921D
:1055A000FF920F931F937B018C010E94942A882302
:1055B000A9F0E3EDFFE0119281E1E33DF807D9F7AF
:1055C000E0925B0CF0925C0C00935D0C10935E0C0F
:1055D0008091D51181608093D51181E01F910F9149
:1055E000FF90EF900895DF92EF92FF920F931F9339
:1055F0007B018C01D42E80915B0C90915C0CA0916E
:105600005D0CB0915E0C8E159F05A007B107C1F02F
:105610000E94942A8823D9F08091D3119091D411BB
:10562000B801A70123ED3FE00E94C021882379F053
:10563000E0925B0CF0925C0C00935D0C10935E0C9E
:105640008091D5118D298093D51181E001C080E032
:105650001F910F91FF90EF90DF9008958F929F928E
:10566000AF92BF92CF92DF92EF92FF920F931F9370
:10567000CF93DF936C01142F7093D4116093D311E7
:10568000442321F488249924540140C0453008F073
:105690001CC160E070E080E090E040E00E94F32AEE
:1056A000882309F412C1C12FD0E02197FE0174E0D4
:1056B000EE0FFF1F7A95E1F7ED52F04FE254FE4FE7
:1056C0008081EE5BF14090E08F779070892B09F03C
:1056D000FCC0E653FE4F80819181A281B381843664
:1056E0009105A105B10508F4F0C064E0CC0FDD1F01
:1056F0006A95E1F7C756DE4E88809980AA80BB8004
:1057000081149104A104B10409F4DFC0C501B401FE
:1057100040E00E94F32A882309F4D7C08091DE0F6D
:105720009091DF0F8050924009F0CFC02091E30F9D
:10573000222309F4CAC08091E10F9091E20F892BD6
:1057400009F4C3C08091E00F882309F4BEC0F601BC
:10575000228B8091E00F8483158661E070E007C0A2
:105760004F5FF60145874150483008F0AEC0F60162
:105770004585848190E09B01042E02C0220F331FD7
:105780000A94E2F78217930759F72091E90F3091B5
:10579000EA0F2115310519F040E050E008C02091D2
:1057A000F70F3091F80F4091F90F5091FA0FF60171
:1057B0002583368347835087E090E10FF090E20F16
:1057C00000E010E0E80CF91C0A1D1B1DE38AF48AB6
:1057D000058B168B8091E40F9091E50F918F808F50
:1057E0006091E30F70E080E090E00E94954A6E0DBA
:1057F0007F1D801F911FF601628F738F848F958F9D
:105800002091E40F3091E50F55E0220F331F5A9598
:10581000E1F721503E4F232F3327269540E050E0FB
:10582000260F371F481F591F26873787408B518BFC
:105830008091E60F9091E70F009719F0A0E0B0E09B
:1058400008C08091F30F9091F40FA091F50FB091E3
:10585000F60F85017401E21AF30A040B150BA80177
:105860009701280F391F4A1F5B1FF601058404C0EA
:1058700056954795379527950A94D2F72187328711
:1058800043875487253FFFE03F07F0E04F07F0E0F4
:105890005F0710F48CE006C0255F3F4F404050404A
:1058A00028F480E1F601878B81E010C08091FF0F22
:1058B00090910010A0910110B0910210F601828F1A
:1058C000938FA48FB58F80E2EECF80E0DF91CF91F0
:1058D0001F910F91FF90EF90DF90CF90BF90AF900E
:1058E0009F908F9008954F925F926F927F928F92C8
:1058F0009F92AF92BF92CF92DF92EF92FF920F935F
:105900001F93CF93DF93EC016A017B0128013901DA
:10591000423051056105710508F46FC089859A858B
:10592000AB85BC850196A11DB11D84179507A607FF
:10593000B70708F462C02B893C894D895E898F893D
:10594000803129F499278F2D7E2D6D2D09C0C70137
:10595000B60117E096958795779567951A95D1F7D3
:105960004B015C01820E931EA41EB51E80915B0C40
:1059700090915C0CA0915D0CB0915E0C881699061C
:10598000AA06BB0639F0C501B40140E00E94F32A23
:10599000882399F18F89803149F4F601F070EE0F78
:1059A000FF1FED52F04F518240820DC0F601EF779C
:1059B000F070EE0FFF1FEE0FFF1FED52F04F408211
:1059C0005182628273828091D51181608093D5115A
:1059D0008A89823080F08D819E81AF81B885880E62
:1059E000991EAA1EBB1E8092D6119092D711A0922A
:1059F000D811B092D91181E001C080E0DF91CF9140
:105A00001F910F91FF90EF90DF90CF90BF90AF90DC
:105A10009F908F907F906F905F904F900895CF925E
:105A2000DF92EF92FF920F931F93CF93DF93EC01DE
:105A30007A018B01690189859A85AB85BC850196C0
:105A4000A11DB11D84179507A607B70708F450C01C
:105A50002B893C894D895E898F89803129F499276A
:105A6000812F702F6F2D09C0C801B701E7E096950F
:105A7000879577956795EA95D1F7260F371F481FC9
:105A8000591F80915B0C90915C0CA0915D0CB091C2
:105A90005E0C281739074A075B0739F0CA01B901BC
:105AA00040E00E94F32A882319F18F89803159F44C
:105AB000F701F070EE0FFF1FED52F04F80819181E2
:105AC000A0E0B0E00EC0F701EF77F070EE0FFF1F1F
:105AD000EE0FFF1FED52F04F80819181A281B381C3
