:100000000C947A010C94FA390C942B3A0C945C3AC7
:100010000C948D3A0C94BE3A0C94EF3A0C94203B1D
:100020000C94513B0C94A7010C94A7010C94A701CC
:100030000C94A7010C94A7010C94A7010C94A701A0
:100040000C94A7010C94A7010C94A7010C94A70190
:100050000C94A7010C943F350C94A7010C94823B9F
:100060000C94A7010C943A3F0C9466400C94A701A1
:100070000C94A7010C94A7010C94A7010C94A70160
:100080000C94A7010C94A7010C94A7010C94A70150
:100090000C94763F0C949A400C94A7010C94BA17D8
:1000A0000C94A7010C94A7010C94A7010C94A70130
:1000B0000C94A7010C94A7010C94A7010C94A70120
:1000C0000C94A7010C94A7010C94A7010C94B23FC7
:1000D0000C94CE400C94A7010C94EE3F0C9402417A
:1000E0000C94A70107634236B79BD8A71A39685604
:1000F00018AEBAAB558C1D3CB7CC5763BD6DEDFD4A
:10010000753EF6177231BF000000803F0800000006
:10011000BE922449123EABAAAA2ABECDCCCC4C3EFC
:1001200000000080BEABAAAAAA3E00000000BF00EB
:100130000000803F0000000000084178D3BB4387E7
:10014000D1133D190E3CC3BD4282AD2B3E68EC82FB
:1001500076BED98FE1A93E4C80EFFFBE01C4FF7F80
:100160003F000000000056533130353320666F7574
:100170006E6400436F756C646E27742066696E64EC
:10018000205653313035332C20646F20796F752021
:10019000686176652074686520726967687420708C
:1001A000696E7320646566696E65643F007C3C3EE1
:1001B0005E2B3D3F2F5B5D3B2C2A225C001F1C1FEA
:1001C0001E1F1E1F1F1E1F1E1F00002100240027B0
:1001D000002A002D00300033000101000004010757
:1001E000010A0100002200250028002B002E00310A
:1001F00000340002010000050108010B010000208D
:10020000002300260029002C002F003200000100EE
:100210000003010601090105050505070508080891
:1002200008020202020A0A08080404040401010187
:10023000010101010103030303030303030407078F
:10024000070C0C0C0C0C0C0C0C020202020606062D
:1002500006060606060B0B0B0B0B0B0B0B01021015
:1002600020200808102040102040800201020108D0
:100270000402010102040810204080804020100880
:1002800004020180040201804020100804020108D9
:100290000402010102040810204080010204081039
:1002A0002040800000090A02080B0C0D0706030419
:1002B000010000000000000000000000000000003D
:1002C000000000000000000000000000000000111D
:1002D000100F0000000000000000000000000000FF
:1002E000000000000000000000008A055616DC1A1D
:1002F0004342830511241FBECFEFD1E2DEBFCDBF45
:1003000000E00CBF1BE0A0E0B2E0EEE5F3E900E0A6
:100310000BBF02C007900D92A63AB107D9F71BBEDA
:1003200013E1A6EABBE001C01D92A237B107E1F7D5
:1003300012E0C2EFD2E004C02297FE010E9467499A
:10034000CA3ED107C9F70E9479430C94A2490C9484
:100350000000A0E0B0E0EFEAF1E00C947349EC019A
:10036000A880B980CA80DB80A114B104C104D10483
:1003700041F484E2A82E89EDB82E8BE5C82E87E0E3
:10038000D82EC601B5012DE133EF41E050E00E94C7
:100390004A4927EA31E440E050E00E94FD487B01F1
:1003A0008C01C601B5012DE133EF41E050E00E9420
:1003B0004A49CA01B9012CEE34EF4FEF5FEF0E94BA
:1003C000FD486E0D7F1D801F911F97FF04C0615077
:1003D000704080409048688379838A839B839B0127
:1003E000AC015F77B901CA01CDB7DEB7EAE00C9482
:1003F0008F490E94A901089582E39BE00E94A90110
:1004000008956093320B7093330B8093340B909369
:10041000350B0895FB01DC0104C08D91019080191A
:1004200021F441505040C8F7881B990B0895FC01F6
:100430008191861721F08823D9F79927089531975C
:10044000CF010895FB01DC014150504048F001907C
:100450000D920020C9F701C01D9241505040E0F7B5
:1004600008950F931F93CF93DF938C01EB016115D8
:10047000710581F0DC011F96ED91FC91509730974A
:1004800031F0CE011D966D917C911E971995F80162
:10049000D687C587DF91CF911F910F910895DF9384
:1004A000CF93CDB7DEB72D970FB6F894DEBF0FBE52
:1004B000CDBFE091300CF091310C9E012F5F3F4F8A
:1004C000AF018DE0DA010D90AD01D9010D929D01D2
:1004D0008150C1F78091840D9091850D8F319105E8
:1004E00089F18032910524F44E9709F044C035C05B
:1004F0008032910519F18197F1F5A885B98510979A
:1005000059F0CE0101961C969C938E931B97A78160
:10051000B085109761F40FC02091340C3091350CE8
:100520002115310541F1CF01F901199524C01C961F
:10053000FC93EE931B976781708519C083E29CE062
:10054000BC0117C0A581B681109721F01C96FC93C1
:10055000EE931B97658176810AC0A185B2851097BD
:1005600021F01C96FC93EE931B976185728583E2C4
:100570009CE00E9431021092850D1092840D2D9600
:100580000FB6F894DEBF0FBECDBFCF91DF910895B7
:1005900083E090E09093800D80937F0D0895EF921B
:1005A0000F938130910509F09EC26F5F7F4F09F074
:1005B000A7C286EA9BE00E94E72F88EA9BE060E002
:1005C0000E94B23683EC9BE069E04AE028E003E059
:1005D00034E0E32E0E946B3588E09CE00E94A31972
:1005E00080E092E09093240C8093230C1092250CD1
:1005F00010922D0C10922C0C10922B0C10922A0C95
:100600001092290C1092280C1092270C1092260C94
:1006100083E29CE09093310C8093300C84EF96E061
:100620009093330C8093320C82E19BE09093350CD5
:100630008093340C89E092E09093370C8093360CD1
:100640001092380C1092400C10923F0C10923E0CFD
:1006500010923D0C10923C0C10923B0C10923A0CF4
:100660001092390C8CE192E09093440C8093430CEF
:100670001092450C10924D0C10924C0C10924B0C99
:1006800010924A0C1092490C1092480C1092470C90
:100690001092460C89E292E09093510C8093500C9A
:1006A0001092520C10925A0C1092590C1092580C35
:1006B0001092570C1092560C1092550C1092540C2C
:1006C0001092530C87E392E090935E0C80935D0C44
:1006D00010925F0C1092670C1092660C1092650CD1
:1006E0001092640C1092630C1092620C1092610CC8
:1006F0001092600C84E492E090936B0C80936A0CEF
:1007000010926C0C1092740C1092730C1092720C6C
:100710001092710C1092700C10926F0C10926E0C63
:1007200010926D0C82E592E09093780C8093770C98
:100730001092790C1092810C1092800C10927F0C08
:1007400010927E0C10927D0C10927C0C10927B0CFF
:1007500010927A0C83E692E09093850C8093840C3F
:100760001092860C10928E0C10928D0C10928C0CA4
:1007700010928B0C10928A0C1092890C1092880C9B
:100780001092870C85E792E09093920C8093910CE5
:100790001092930C10929B0C10929A0C1092990C40
:1007A0001092980C1092970C1092960C1092950C37
:1007B0001092940C84E892E090939F0C80939E0C8E
:1007C0001092A00C1092A80C1092A70C1092A60CDC
:1007D0001092A50C1092A40C1092A30C1092A20CD3
:1007E0001092A10C84E992E09093AC0C8093AB0C36
:1007F0001092AD0C1092B50C1092B40C1092B30C78
:100800001092B20C1092B10C1092B00C1092AF0C6E
:100810001092AE0C89EA92E09093B90C8093B80CD8
:100820001092BA0C1092C20C1092C10C1092C00C13
:100830001092BF0C1092BE0C1092BD0C1092BC0C0A
:100840001092BB0C82EB92E09093C60C8093C50C87
:100850001092C70C1092CF0C1092CE0C1092CD0CAF
:100860001092CC0C1092CB0C1092CA0C1092C90CA6
:100870001092C80C8DEB92E09093D30C8093D20C25
:100880001092D40C1092DC0C1092DB0C1092DA0C4B
:100890001092D90C1092D80C1092D70C1092D60C42
:1008A0001092D50C87EC92E09093E00C8093DF0CD3
:1008B0001092E10C1092E90C1092E80C1092E70CE7
:1008C0001092E60C1092E50C1092E40C1092E30CDE
:1008D0001092E20C89ED92E09093ED0C8093EC0C79
:1008E0001092EE0C1092F60C1092F50C1092F40C83
:1008F0001092F30C1092F20C1092F10C1092F00C7A
:100900001092EF0C85EE92E09093FA0C8093F90C24
:100910001092FB0C1092030D1092020D1092010D1B
:100920001092000D1092FF0C1092FE0C1092FD0C14
:100930001092FC0C80EF92E09093070D8093060DCF
:100940001092080D1092100D10920F0D10920E0DB6
:1009500010920D0D10920C0D10920B0D10920A0DAD
:100960001092090D8DEF92E09093140D8093130D6A
:100970001092150D10921D0D10921C0D10921B0D52
:1009800010921A0D1092190D1092180D1092170D49
:100990001092160D8BE093E09093210D8093200D23
:1009A0001092220D10922A0D1092290D1092280DEE
:1009B0001092270D1092260D1092250D1092240DE5
:1009C0001092230D89E193E090932E0D80932D0DCD
:1009D00010922F0D1092370D1092360D1092350D8A
:1009E0001092340D1092330D1092320D1092310D81
:1009F0001092300D8CE293E090933B0D80933A0D72
:100A000010923C0D1092440D1092430D1092420D25
:100A10001092410D1092400D10923F0D10923E0D1C
:100A200010923D0D8BE393E09093480D8093470D1A
:100A30001092490D1092510D1092500D10924F0DC1
:100A400010924E0D10924D0D10924C0D10924B0DB8
:100A500010924A0D8AE493E09093550D8093540DC3
:100A60001092560D10925E0D10925D0D10925C0D5D
:100A700010925B0D10925A0D1092590D1092580D54
:100A80001092570D89E593E09093620D8093610D6C
:100A90001092630D10926B0D10926A0D1092690DF9
:100AA0001092680D1092670D1092660D1092650DF0
:100AB0001092640D8EE593E090936F0D80936E0D10
:100AC0001092700D1092780D1092770D1092760D95
:100AD0001092750D1092740D1092730D1092720D8C
:100AE0001092710D0DC0892B59F46F5F7F4F41F447
:100AF00088E09CE00E94B6198BEE9BE00E94B6193C
:100B00000F91EF90089580E090E06FEF7FEF0E94EB
:100B1000CF02089581E090E06FEF7FEF0E94CF0257
:100B20000895CF92DF92EF92FF920F931F93CF938E
:100B3000DF9381E20E94923DEC018091860D9091BD
:100B4000870DC817D90751F00E94CA3B60938E0DDC
:100B500070938F0D8093900D9093910D0E94CA3BDE
:100B600020918E0D30918F0D4091900D5091910DEF
:100B7000621B730B840B950B20913F0B3091400B44
:100B80004091410B5091420B2617370748075907F0
:100B900018F0CC24DD240BC00E94CA3B60938E0D5C
:100BA00070938F0D8093900D9093910D6E01D09363
:100BB000870DC093860D80E20E94923DEC018091EA
:100BC000880D9091890DC817D90751F00E94CA3B32
:100BD0006093920D7093930D8093940D9093950D67
:100BE0000E94CA3B2091920D3091930D4091940D3B
:100BF0005091950D621B730B840B950B20913F0B4D
:100C00003091400B4091410B5091420B2617370712
:100C10004807590718F0EE24FF240BC00E94CA3B76
:100C20006093920D7093930D8093940D9093950D16
:100C30007E01D093890DC093880D8FE10E94923D73
:100C4000EC0180918C0D90918D0DC817D90751F052
:100C50000E94CA3B60939A0D70939B0D80939C0DEC
:100C600090939D0D0E94CA3B20919A0D30919B0D4F
:100C700040919C0D50919D0D621B730B840B950B45
:100C800020913F0B3091400B4091410B5091420B12
:100C9000261737074807590718F000E010E00BC087
:100CA0000E94CA3B60939A0D70939B0D80939C0D9C
:100CB00090939D0D8E01D0938D0DC0938C0D8EE180
:100CC0000E94923DEC0180918A0D90918B0DC81786
:100CD000D90751F00E94CA3B6093960D7093970D0F
:100CE0008093980D9093990D0E94CA3B2091960D88
:100CF0003091970D4091980D5091990D621B730B97
:100D0000840B950B20913F0B3091400B4091410B90
:100D10005091420B261737074807590718F080E013
:100D200090E00BC00E94CA3B6093960D7093970DA4
:100D30008093980D9093990DCE01D0938B0DC09315
:100D40008A0D21E0C216D10419F481E290E011C0AD
:100D500021E0E216F10419F480E290E00AC00130CB
:100D6000110519F48FE190E004C0019739F48EE188
:100D700090E09093850D8093840D04C01092850DB2
:100D80001092840DDF91CF911F910F91FF90EF9002
:100D9000DF90CF900895EF92FF920F931F9348EA50
:100DA000E42E4BE0F42EC70160E040E00E94523890
:100DB00001E713E0C701B8010E945245C701B8011D
:100DC0000E945245C701B8010E945245C701B801AF
:100DD0000E945245C70160E040E00E9452381F91D6
:100DE0000F91FF90EF9008950F931F93DF93CF9390
:100DF000CDB7DEB72D970FB6F894DEBF0FBECDBFCF
:100E0000DE011196FC018DE001900D928150E1F719
:100E100009811A8188EA9BE060E042E00E94523832
:100E2000A091230CB091240CF80105C031968C914F
:100E3000981729F4119690819923C1F7DFC082E0B9
:100E40000930180729F488EA9BE066E873E0DCC003
:100E500082E00C31180729F488EA9BE06BE973E023
:100E6000D3C082E00932180729F488EA9BE060EBDE
:100E700073E0CAC082E00733180729F488EA9BE0D0
:100E800065EC73E0C1C082E00434180729F488EAF5
:100E90009BE06AED73E0B8C082E00235180729F4E0
:100EA00088EA9BE06FEE73E0AFC082E0033618077C
:100EB00029F488EA9BE064E074E0A6C082E005378C
:100EC000180729F488EA9BE069E174E09DC082E09C
:100ED0000438180729F488EA9BE06EE274E094C0B5
:100EE00082E00439180721F488EA9BE0B8018CC03D
:100EF00082E0093A180729F488EA9BE063E474E089
:100F000083C082E0023B180729F488EA9BE068E589
:100F100074E07AC082E00D3B180729F488EA9BE070
:100F20006DE674E071C082E0073C180729F488EA96
:100F30009BE062E874E068C082E0093D180729F48C
:100F400088EA9BE067E974E05FC082E0053E18072D
:100F500029F488EA9BE06CEA74E056C082E0003F26
:100F6000180729F488EA9BE061EC74E04DC082E048
:100F70000D3F180729F488EA9BE066ED74E044C051
:100F800083E00B30180729F488EA9BE06BEE74E0ED
:100F90003BC083E00931180729F488EA9BE060E050
:100FA00075E032C083E00C32180729F488EA9BE030
:100FB00065E175E029C083E00B33180729F488EA5E
:100FC0009BE06AE275E020C083E00A34180729F448
:100FD00088EA9BE06FE375E017C083E009351807E6
:100FE00029F488EA9BE064E575E00EC00E551340D5
:100FF00069F488EA9BE069E675E006C00E94CB06CA
:1010000088EA9BE06EE775E00E9452452D960FB688
:10101000F894DEBF0FBECDBFCF91DF911F910F912E
:1010200008950E94CB0688EA9BE060E041E00E94C0
:10103000523888EA9BE063E975E00E94524583E2FA
:101040009CE090933A0C8093390C86E39CE090935B
:101050002B0C80932A0C8091410C9091420C892B8F
:1010600041F480912E0C90912F0C9093420C809320
:10107000410C86E39CE09093B50C8093B40C8BEA12
:101080009CE090933C0C80933B0C8091B60C90912B
:10109000B70C892B41F48091410C9091420C9093B4
:1010A000B70C8093B60C8BEA9CE09093440D809330
:1010B000430D8AE39DE09093B10C8093B00C809136
:1010C000450D9091460D892B41F48091B60C90917D
:1010D000B70C9093460D8093450D8AE39DE0909365
:1010E0006B0D80936A0D81E69DE09093400D809397
:1010F0003F0D80916C0D90916D0D892B41F4809185
:10110000450D9091460D90936D0D80936C0D86E387
:101110009CE09093470C8093460C83E49CE0909372
:101120003E0C80933D0C80914E0C90914F0C892B7E
:1011300041F48091410C9091420C90934F0C80931C
:101140004E0C83E49CE090935A0C8093590C80E5FC
:101150009CE09093490C8093480C80915B0C90919B
:101160005C0C892B41F480914E0C90914F0C909324
:101170005C0C80935B0C80E59CE09093670C809303
:10118000660C8DE59CE09093560C8093550C8091F5
:10119000680C9091690C892B41F480915B0C9091C3
:1011A0005C0C9093690C8093680C8DE59CE09093A7
:1011B000740C8093730C8AE69CE09093630C80938C
:1011C000620C8091750C9091760C892B41F4809182
:1011D000680C9091690C9093760C8093750C8AE65C
:1011E0009CE09093810C8093800C87E79CE0909327
:1011F000700C80936F0C8091820C9091830C892BE2
:1012000041F48091750C9091760C9093830C8093AF
:10121000820C87E79CE090938E0C80938D0C84E881
:101220009CE090937D0C80937C0C80918F0C90912E
:10123000900C892B41F48091820C9091830C9093B7
:10124000900C80938F0C84E89CE090939B0C80938F
:101250009A0C81E99CE090938A0C8093890C809190
:101260009C0C90919D0C892B41F480918F0C909156
:10127000900C90939D0C80939C0C81E99CE0909342
:10128000A80C8093A70C8EE99CE09093970C809318
:10129000960C8091A90C9091AA0C892B41F4809115
:1012A0009C0C90919D0C9093AA0C8093A90C8BEAB6
:1012B0009CE09093BC0C8093BB0C88EB9CE09093DB
:1012C000B30C8093B20C8091C30C9091C40C892B09
:1012D00041F48091B60C9091B70C9093C40C80931C
:1012E000C30C88EB9CE09093CF0C8093CE0C85ECE4
:1012F0009CE09093BE0C8093BD0C8091D00C90919B
:10130000D10C892B41F48091C30C9091C40C909323
:10131000D10C8093D00C85EC9CE09093DC0C8093F6
:10132000DB0C82ED9CE09093CB0C8093CA0C8091F7
:10133000DD0C9091DE0C892B41F48091D00C9091C2
:10134000D10C9093DE0C8093DD0C82ED9CE09093A9
:10135000E90C8093E80C8FED9CE09093D80C80937F
:10136000D70C8091EA0C9091EB0C892B41F4809181
:10137000DD0C9091DE0C9093EB0C8093EA0C8FEDDA
:101380009CE09093F60C8093F50C8CEE9CE090938F
:10139000E50C8093E40C8091F70C9091F80C892B6C
:1013A00041F48091EA0C9091EB0C9093F80C8093AF
:1013B000F70C8CEE9CE09093030D8093020D89EF67
:1013C0009CE09093F20C8093F10C8091040D90912D
:1013D000050D892B41F48091F70C9091F80C9093B6
:1013E000050D8093040D89EF9CE09093100D809380
:1013F0000F0D86E09DE09093FF0C8093FE0C809192
:10140000110D9091120D892B41F48091040D909152
:10141000050D9093120D8093110D86E09DE0909341
:101420001D0D80931C0D83E19DE090930C0D809326
:101430000B0D80911E0D90911F0D892B41F4809111
:10144000110D9091120D90931F0D80931E0D83E14D
:101450009DE090932A0D8093290D80E29DE090936A
:10146000190D8093180D80912B0D90912C0D892BC7
:1014700041F480911E0D90911F0D90932C0D80933F
:101480002B0D80E29DE09093370D8093360D8DE219
:101490009DE09093260D8093250D8091380D9091BD
:1014A000390D892B41F480912B0D90912C0D909347
:1014B000390D8093380D8AE39DE090934B0D809316
:1014C0004A0D87E49DE09093420D8093410D8091F9
:1014D000520D9091530D892B41F48091450D9091BF
:1014E000460D9093530D8093520D87E49DE09093A9
:1014F0005E0D80935D0D84E59DE090934D0D80938E
:101500004C0D80915F0D9091600D892B41F480917D
:10151000520D9091530D9093600D80935F0D81E675
:101520009DE09093720D8093710D8EE69DE09093F7
:10153000690D8093680D8091790D90917A0D892BBA
:1015400041F480916C0D90916D0D90937A0D809384
:10155000790D83E29CE0BC010E94310260E273E0FD
:1015600080E090E00E94443C88EA9BE060E043E039
:101570000E94523888EA9BE064EA75E00E94524576
:1015800064EF71E080E090E00E94443C0E94CB0652
:101590000895CF93DF930E94CB0686EE90E16DEA2B
:1015A00075E00E94524588EA9BE060E043E00E94BB
:1015B000523888EA9BE061EC75E00E945245C0E039
:1015C000D0E086EE90E163ED75E00E94524568EE52
:1015D00073E080E090E00E94443C2196C530D10544
:1015E00081F786EE90E165ED75E00E94554586EE47
:1015F00090E16BED75E00E94554588EA9BE060E064
:1016000043E00E94523888EA9BE069EE75E00E9450
:10161000524562E370E080E090E00E94443CDF913C
:10162000CF9108950F93CF93DF93EC010E94CB06E7
:1016300088EA9BE060E040E00E94523888EA9BE044
:101640006BEF75E00E94524588EA9BE060E041E064
:101650000E9452386881798188EA9BE00E94524555
:1016600068EB7BE080E090E00E94443C83E29CE0F9
:10167000BC010E943102888199818E55934071F49A
:1016800086EE90E16DE076E00E94554585E090E0C1
:101690009093800D80937F0D0E94CB068881998165
:1016A0008D5F924079F58DE261E00E945F3D83E6B7
:1016B0009EE00E94FF1A83E69EE064E04FEF2FEF6A
:1016C0000FEF0E94451D86EE90E164E376E004C0D2
:1016D00086EE90E16AE476E00E94554583EC9BE05B
:1016E00060E676E00E941D35882391F38DE260E08C
:1016F0000E945F3D85E090E09093800D80937F0D88
:101700000E94CB06888199818B50934071F58DE2C0
:1017100061E00E945F3D83E69EE00E94FF1A83E63F
:101720009EE064E04FEF2FEF0FEF0E94451D86EE25
:1017300090E16DE676E00E94554583EC9BE063E81E
:1017400076E00E94B43468EB7BE080E090E00E9499
:10175000443C8DE260E00E945F3D85E090E0909324
:10176000800D80937F0D0E94CB06888199818951DD
:10177000934071F58DE261E00E945F3D83E69EE05B
:101780000E94FF1A83E69EE064E04FEF2FEF0FEF19
:101790000E94451D86EE90E160E976E00E94554585
:1017A00083EC9BE06BEA76E00E94B43468EB7BE06C
:1017B00080E090E00E94443C8DE260E00E945F3D4A
:1017C00085E090E09093800D80937F0D0E94CB0682
:1017D000888199818D5B9240D1F483E090E0909371
:1017E0007C0D80937B0D86EE90E168EB76E00E94A5
:1017F000554568EE73E080E090E00E94443C85E04F
:1018000090E09093800D80937F0D0E94CB0688819D
:101810009981875C9240D1F484E090E090937C0DB4
:1018200080937B0D86EE90E163ED76E00E94554556
:1018300068EE73E080E090E00E94443C85E090E038
:101840009093800D80937F0D0E94CB06DF91CF9106
:101850000F9108950E94CB0688EA9BE060E041E08A
:101860000E94523888EA9BE062EF76E00E9452457F
:1018700083EC9BE00E946A34882339F486EE90E181
:1018800063E771E00E94FD43FFCF86EE90E166E6DC
:1018900071E00E94FD4383EC9BE062E042E00E9425
:1018A000733383EC9BE065E00E94913583EC9BE011
:1018B00060E676E00E94B43460E273E080E090E09D
:1018C0000E94443C88EA9BE060E043E00E9452387A
:1018D00088EA9BE064EA75E00E94524508950F9300
:1018E000DF93CF93CDB7DEB76B970FB6F894DEBF1B
:1018F0000FBECDBF0E94CB0688EA9BE060E041E0CE
:101900000E94523888EA9BE064E077E00E945245EA
:1019100086EE90E160E177E00E94524583E69EE02A
:1019200065E34FEF2FEF0FEF0E94451D882339F439
:1019300086EE90E168E277E00E945545FFCF86EEA3
:1019400090E164E477E00E945545CE01019663E69C
:101950007EE046E557E023E10E94201C8B819C81BC
:1019600090930B0C80930A0C8D819E81AF81B8857A
:1019700080930C0C90930D0CA0930E0CB0930F0C55
:1019800089859A85AB85BC858093100C9093110C4A
:10199000A093120CB093130CA4E1BCE0FE013D96A1
:1019A0008DE001900D928150E1F78A8D9B8D90938F
:1019B000220C8093210CCE0101960E94B61988E07A
:1019C0009CE00E94F819882339F486EE90E162E6E3
:1019D00077E00E945545FFCF60E273E080E090E041
:1019E0000E94443C88EA9BE060E043E00E94523859
:1019F00088EA9BE064EA75E00E9452456B960FB658
:101A0000F894DEBF0FBECDBFCF91DF910F91089547
:101A1000EF92FF920F931F9356EEE52E50E1F52EB5
:101A2000C7016CE777E00E94524508EA1BE0C80155
:101A300064E144E020E00E9496380E94CB06C80191
:101A400067E977E00E945245C70164EA75E00E94A9
:101A500055451F910F91FF90EF900895DF93CF931D
:101A60000F92CDB7DEB786EE90E167EA77E00E948D
:101A700052450E94CB0688EA9BE060E041E00E946C
:101A8000523888EA9BE064EC77E00E94524586EA8F
:101A90009BE00E94BD3286EA9BE0BE016F5F7F4FF4
:101AA0000E944830882399F086EE90E166ED77E059
:101AB0000E94524586EE90E1698140E150E00E942B
:101AC000CE4486EE90E169EE77E00E945545109293
:101AD000810D86EE90E16AEF77E00E94554586EA37
:101AE0009BE06091810D42E022E83DE00E9464317C
:101AF00086EE90E168E078E00E94554586EA9BE03A
:101B00000E947E3164E670E080E090E00E94443CF8
:101B100086EA9BE061E045E00E942831882331F0AD
:101B200086EE90E163E178E00E94554586EA9BE00D
:101B30006CE271E040ED57E00E940831882331F0FB
:101B400086EE90E169E378E00E94554560E273E03B
:101B500080E090E00E94443C86EE90E164EA75E00B
:101B60000E94554588EA9BE060E043E00E945238BD
:101B700088EA9BE064EA75E00E9452450F90CF919D
:101B8000DF910895CF92DF92EF92FF920F931F9310
:101B900076EEC72E70E1D72EC60166E678E00E9489
:101BA00052450E94CB0668EAE62E6BE0F62EC7018E
:101BB00060E041E00E945238C7016BE778E00E9484
:101BC000524585E361E00E94AC3C86E161E00E9401
:101BD000AC3C8EE160E00E94AC3C8FE160E00E9492
:101BE000AC3C80E260E00E94AC3C81E260E00E949C
:101BF000AC3C82E260E00E94AC3C82E060E00E948B
:101C0000AC3C82E160E00E94AC3C86E060E00E9477
:101C1000AC3C82E060E00E94AC3C8CE060E00E9462
:101C2000AC3C8DE261E00E94AC3C85E361E00E9447
:101C3000AC3C60E273E080E090E00E94443C04EA47
:101C400015E0C601B8010E945545C70160E043E0B8
:101C50000E945238C701B8010E9452451F910F914E
:101C6000FF90EF90DF90CF900895CF92DF92EF92A8
:101C7000FF920F931F93DF93CF93CDB7DEB7689793
:101C80000FB6F894DEBF0FBECDBF86EE90E16DE8D3
:101C900078E00E9452450E94CB0688EA9BE060E013
:101CA00041E00E94523888EA9BE06DEA78E00E94A9
:101CB00052450E94102F0E94122F2B8B3C8B4D8B74
:101CC0005E8B6F8B788FDE011196FE01739686E036
:101CD00001900D928150E1F7E7E0CE2ED12CCC0E91
:101CE000DD1EC60162EC78E04EEC58E00E941A2E30
:101CF000CE0101960E94B62E7B018C01C6010E9486
:101D0000B62EE616F7060807190768F48E01035F7A
:101D10001F4FC80162EC78E04EEC58E00E941A2E8A
:101D2000C8010E94942F60E273E080E090E00E947E
:101D3000443C86EE90E164EA75E00E94554588EAED
:101D40009BE060E043E00E94523888EA9BE064EA4E
:101D500075E00E94524568960FB6F894DEBF0FBE3C
:101D6000CDBFCF91DF911F910F91FF90EF90DF904A
:101D7000CF9008950F931F93082F803414F00FE332
:101D800002C087FD00E086EE90E167ED78E00E94FA
:101D90005245112707FD109586EE90E1B8014AE003
:101DA00050E00E94334589EE9DE06BE470E00E94B4
:101DB0001C1689EE9DE0602F0E949E1689EE9DE024
:101DC0000E94E11690E0882309F491E0892F1F9189
:101DD0000F9108958091360B0E94BA0E882331F43A
:101DE00086EE90E16AEE78E00E94554586E161E07A
:101DF0000E945F3D60ED77E080E090E00E94443C0F
:101E000086E160E00E945F3D8DE260E00E945F3D00
:101E100008950F931F93682F09EE1DE0C8010E94DB
:101E20001216C8016FE60E949E16C8010E94E116B4
:101E30001F910F910895DF92EF92FF920F931F93DE
:101E4000382FF62EE42ED22E09EE1DE0C801632FA6
:101E50000E941216C80160E70E949E16C8016F2DED
:101E60000E949E16C8016E2D0E949E16C8016D2DFF
:101E70000E949E16C8010E94E1161F910F91FF90CB
:101E8000EF90DF900895DF92EF92FF920F931F93F0
:101E9000382FF62EE42ED22E09EE1DE0C801632F56
:101EA0000E941216C80163E60E949E16C8016F2D9B
:101EB0000E949E16C8016E2D0E949E16C8016D2DAF
:101EC0000E949E16C8010E94E1161F910F91FF907B
:101ED000EF90DF9008950F931F93CF93DF9386EEDB
:101EE00090E163E179E00E9455450E94CB0688EAC3
:101EF0009BE060E041E00E94523888EA9BE069E3A1
:101F000079E00E94524589E361E00E94AC3C88E39D
:101F100061E00E94AC3C89E361E00E945F3D88E3A0
:101F200060E00E945F3D64E670E080E090E00E9427
:101F3000443C89EE9DE00E94F61607E31BE0C0E0FA
:101F4000D0E086EE90E16AE479E00E945245219665
:101F500086EE90E1BE014AE050E00E94334588EAF7
:101F60009BE060E042E00E94523888EA9BE06AE42D
:101F700079E00E94524588EA9BE0BE014AE050E0C9
:101F80000E942045F801808162E140E020E00E944B
:101F90001B0F60ED77E080E090E00E94443CF80188
:101FA00080810E94090FF80181918F0160E040E07B
:101FB00020E00E94430FC830D10519F668EC70E0AC
:101FC00080E090E00E94443C88EA9BE06FE479E086
:101FD0000E94524586EE90E169E579E00E94554500
:101FE000DF91CF911F910F9108954F925F926F9261
:101FF0007F928F929F92AF92BF92CF92DF92EF9299
:10200000FF920F931F93DF93CF93CDB7DEB7CA54E0
:10201000D0400FB6F894DEBF0FBECDBF80917F0DCC
:102020009091800D8430910509F434C1853091057B
:102030003CF48230910581F0039709F0B1C507C1E6
:102040008630910509F41EC2863091050CF427C133
:10205000079709F0A5C50BC30E94122FDE01AB5BE9
:10206000BF4F2C93FE01EA5BFF4F3083FE01E95B1B
:10207000FF4F4083FE01E85BFF4F5083FE01E75BAB
:10208000FF4F6083FE01E65BFF4F70839E01275F79
:102090003F4FFD0186E00190D9010D929D018150D5
:1020A000D1F7BE84CD84DC84EB84FA84098588EA88
:1020B0009BE060E00E94893886EE90E161EB79E078
:1020C0000E94524510E00053184F86EE90E1B8018F
:1020D0004AE050E00E94A04486EE90E16FE20E9448
:1020E000D54386EE90E16F2D4AE050E00E94CE4449
:1020F00086EE90E16FE20E94D54386EE90E16E2D70
:102100004AE050E00E94CE4486EE90E160E20E94F8
:10211000D54386EE90E16D2D4AE050E00E94CE441A
:1021200086EE90E16AE30E94D54386EE90E16C2D45
:102130004AE050E00E94CE4486EE90E16AE30E94BD
:10214000D54386EE90E16B2D4AE050E00E94CE44EC
:1021500088EA9BE060E041E00E94523888EA9BE018
:10216000B8014AE050E00E94A04488EA9BE06FE298
:102170000E94D54388EA9BE06F2D4AE050E00E9420
:10218000CE4488EA9BE06FE20E94D54388EA9BE058
:102190006E2D4AE050E00E94CE4488EA9BE060E267
:1021A0000E94D54388EA9BE06D2D4AE050E00E94F2
:1021B000CE4488EA9BE06AE30E94D54388EA9BE02C
:1021C0006C2D4AE050E00E94CE4488EA9BE06AE32E
:1021D0000E94D54388EA9BE06B2D4AE050E00E94C4
:1021E000CE4486EA9BE0BE016D5F7F4FAE014F5F3C
:1021F0005F4F0E949930882309F186EE90E168ECE8
:1022000079E00E9452456B817C8186EE90E14AE044
:1022100050E00E94B1444091820D5091830D2B817A
:102220003C8109811A8186EA9BE06091810DB5E0CD
:10223000EB2EF12CEC0EFD1E0E9483318B819C81D4
:102240008C52914008F0ACC486E090E0A5C486EEC4
:1022500090E161ED79E00E94554586EA9BE00E949D
:10226000E82F84E00E94CE390E94CB0688EA9BE0EA
:1022700061E00E94893888EA9BE060E040E00E94CB
:10228000523888EA9BE06EE775E00E94524584E090
:1022900090E082C40E9491050E944F0281C486EEA4
:1022A00090E162E07AE00E9455450E94122FDE0123
:1022B000AB5BBF4F2C93FE01EA5BFF4F3083FE0107
:1022C000E95BFF4F4083FE01E85BFF4F5083FE0157
:1022D000E75BFF4F6083FE01E65BFF4F70839E016B
:1022E000275F3F4FFD0186E00190D9010D929D01CE
:1022F0008150D1F783E69EE00E94FF1A83E69EE0BC
:1023000065E34FEF2FEF0FEF0E94451DCE010F96B3
:1023100063E67EE046E557E023E10E94201C8989C0
:102320009A8990930B0C80930A0C8B899C89AD89B8
:10233000BE8980930C0C90930D0CA0930E0CB0935F
:102340000F0C8F89988DA98DBA8D8093100C909366
:10235000110CA093120CB093130CA4E1BCE0FE018D
:102360007B968DE001900D928150E1F788A599A5AB
:102370009093220C8093210CCE010F960E94B619E7
:10238000698570E06053784F88E09CE04AE050E057
:102390000E94A04488E09CE06FE20E94D54388E060
:1023A0009CE06A854AE050E00E94CE4488E09CE0D0
:1023B0006FE20E94D54388E09CE06B854AE050E0E4
:1023C0000E94CE4488E09CE060E20E94D54388E011
:1023D0009CE06C854AE050E00E94CE4488E09CE09E
:1023E0006AE30E94D54388E09CE06D854AE050E0B6
:1023F0000E94CE4488E09CE06AE30E94D54388E0D6
:102400009CE06E854AE050E00E94CE4488E09CE06B
:1024100065E27AE00E94524588E09CE060E47AE060
:102420000E94524560917B0D70917C0D88E09CE08C
:102430004AE050E00E94204588E09CE060E47AE0B9
:102440000E94524560917D0D70917E0D88E09CE068
:102450004AE050E00E94334588E09CE00E94171A51
:1024600088E09CE00E94051A83E69EE00E94FF1A25
:1024700084E068EC72E041E050E00E94523982E072
:1024800090E08AC386EE90E162E47AE00E945545CE
:102490000E94122FDE01AB5BBF4F2C93FE01EA5B63
:1024A000FF4F3083FE01E95BFF4F4083FE01E85B95
:1024B000FF4F5083FE01E75BFF4F6083FE01E65B49
:1024C000FF4F70839E01275F3F4FFD0186E0019023
:1024D000D9010D929D018150D1F783E69EE00E94C3
:1024E000FF1A83E69EE065E34FEF2FEF0FEF0E94A8
:1024F000451DCE018A9663E67EE046E557E023E17E
:102500000E94201C8CA59DA590930B0C80930A0C17
:102510008EA59FA5A8A9B9A980930C0C90930D0C2A
:10252000A0930E0CB0930F0C8AA99BA9ACA9BDA9CE
:102530008093100C9093110CA093120CB093130C79
:10254000A4E1BCE0FE01F6968DE001900D92815071
:10255000E1F7FE01ED5BFF4F808191819093220CAA
:102560008093210CCE018A960E94B619698570E08D
:102570006053784F88E09CE04AE050E00E94A0441D
:1025800088E09CE06FE20E94D54388E09CE06A8589
:102590004AE050E00E94CE4488E09CE06FE20E9456
:1025A000D54388E09CE06B854AE050E00E94CE4431
:1025B00088E09CE060E20E94D54388E09CE06C8566
:1025C0004AE050E00E94CE4488E09CE06AE30E942A
:1025D000D54388E09CE06D854AE050E00E94CE44FF
:1025E00088E09CE06AE30E94D54388E09CE06E8529
:1025F0004AE050E00E94CE4488E09CE06AE97AE03C
:102600000E94524588E09CE065E27AE00E945245D3
:1026100088E09CE060E47AE00E94524560917B0D86
:1026200070917C0D88E09CE04AE050E00E942045DB
:1026300088E09CE060E47AE00E94524560917D0D64
:1026400070917E0D88E09CE04AE050E00E943345A6
:1026500088E09CE00E94171A88E09CE00E94051A1E
:1026600083E69EE00E94FF1A87E090E095C284E036
:1026700068EC72E041E050E00E94523986EE90E151
:102680006FEB7AE00E94554560E070E080E090E0FA
:1026900023E130E040E050E00E9491455B016C0195
:1026A00080917B0D90917C0D83309105D9F0813024
:1026B000910531F4ADE0AA2EB12CC12CD12C17C05C
:1026C0008230910579F0049791F460E070E080E049
:1026D00090E023E130E040E050E00E9491455B0152
:1026E0006C0105C0F5E0AF2EB12CC12CD12C60E0FF
:1026F00070E080E090E02BE030E040E050E00E94AD
:1027000091452B0164EF71E080E090E020ED37E02F
:1027100040E050E00E9491453B014C018CE00E945A
:10272000923D019749F560E070E080E090E022E39F
:1027300030E040E050E00E9491456A307105E4F4D9
:1027400061E070E080E090E02CED35E040E050E0AA
:102750000E9491457B018C0186E161E00E945F3D12
:102760000027F7FC0095102FC801B7010E94443CD8
:1027700086E160E00E945F3D86E00E94923D019705
:1027800009F044C08091470B8823E9F11092470B70
:1027900086EE90E16EED7AE00E94554586EE90E17E
:1027A00062EE7AE00E9452450E94CA3B28EE33E076
:1027B00040E050E00E94284986EE90E1BA01A9016C
:1027C0002AE030E00E94914486EE90E166EF7AE0E4
:1027D0000E94554562E370E080E090E00E94443C36
:1027E00088EA9BE061E00E9489380E94CB0688EA73
:1027F0009BE060E042E00E94523888EA9BE06BEF89
:102800007AE00E94524581E08093A20D86E00E940A
:10281000923D892B09F0A2C08091A20D882361F01E
:102820000E94CA3B60939E0D70939F0D8093A00DF4
:102830009093A10D1092A20D8091470B882309F06F
:102840008DC00E94CA3B20919E0D30919F0D4091FA
:10285000A00D5091A10D621B730B840B950B209161
:10286000430B3091440B4091450B5091460B26177A
:1028700037074807590708F071C081E08093470B7C
:1028800086EE90E16DE07BE00E9452450E94CA3BDB
:102890002091430B3091440B4091450B5091460BD6
:1028A000621B730B840B950B28EE33E040E050E085
:1028B0000E94284986EE90E1BA01A9012AE030E0A1
:1028C0000E94914486EE90E166EF7AE00E945545C1
:1028D00062E370E080E090E00E94443C0E94CB06FE
:1028E00088EA9BE061E00E94893888EA9BE060E02A
:1028F00041E00E94523888EA9BE06DE07BE00E9454
:1029000052450E94CA3B2091430B3091440B4091A9
:10291000450B5091460B621B730B840B950B28EEF5
:1029200033E040E050E00E94284988EA9BE0BA0189
:10293000A9012AE030E00E94914488EA9BE060E02F
:1029400042E00E94523868EE73E080E090E00E941E
:10295000443C88EA9BE060E00E94893882E00E9463
:10296000923D019709F044C08091470B8823E9F11B
:102970001092470B86EE90E16EED7AE00E9455458D
:1029800086EE90E162EE7AE00E9452450E94CA3BD8
:1029900028EE33E040E050E00E94284986EE90E1C6
:1029A000BA01A9012AE030E00E94914486EE90E14C
:1029B00066EF7AE00E94554562E370E080E090E0C7
:1029C0000E94443C88EA9BE061E00E9489380E94B2
:1029D000CB0688EA9BE060E042E00E94523888EA39
:1029E0009BE06EE17BE00E94524581E08093A20D66
:1029F00082E00E94923D892B09F0A2C08091A20D35
:102A0000882361F00E94CA3B60939E0D70939F0DD6
:102A10008093A00D9093A10D1092A20D8091470B71
:102A2000882309F08DC00E94CA3B20919E0D3091F1
:102A30009F0D4091A00D5091A10D621B730B840B53
:102A4000950B2091430B3091440B4091450B5091D5
:102A5000460B261737074807590708F071C081E071
:102A60008093470B86EE90E16DE07BE00E9452453B
:102A70000E94CA3B2091430B3091440B4091450B7F
:102A80005091460B621B730B840B950B28EE33E0C1
:102A900040E050E00E94284986EE90E1BA01A90189
:102AA0002AE030E00E94914486EE90E166EF7AE001
:102AB0000E94554562E370E080E090E00E94443C53
:102AC0000E94CB0688EA9BE061E00E94893888EA90
:102AD0009BE060E041E00E94523888EA9BE06DE0B4
:102AE0007BE00E9452450E94CA3B2091430B3091EB
:102AF000440B4091450B5091460B621B730B840BAA
:102B0000950B28EE33E040E050E00E94284988EA27
:102B10009BE0BA01A9012AE030E00E94914488EAD2
:102B20009BE060E042E00E94523868EE73E080E093
:102B300090E00E94443C88EA9BE060E00E94893873
:102B40008201095C144FF80180816A2D40E020E089
:102B50000E941B0FC401B3010E94443CD8018C9118
:102B60000E94090FF801808160E040E020E00E94AF
:102B7000430F86EA9BE0BE016F5F7F4FAE014D5F62
:102B80005F4F0E949930882359F089819A818D5234
:102B9000914030F085E090E09093800D80937F0D20
:102BA000C65BDF4F0FB6F894DEBF0FBECDBFCF912F
:102BB000DF911F910F91FF90EF90DF90CF90BF902A
:102BC000AF909F908F907F906F905F904F900895FF
:102BD00086EE90E140E05BE460E070E00E94364108
:102BE0000E94080D0E94350E0E946B0F0E94C20DBC
:102BF0000E94C90A0E942E0D0E946F0C0E942A0C8E
:102C00000E9411080E94EA0E84E068EC72E041E044
:102C100050E00E94523982E090E09093800D8093C2
:102C20007F0D089581E08093E80D6093C50D1092AB
:102C3000E60D1092E70D089581E08093E80D609312
:102C4000C50D1092E60D1092E70D08952091C40D68
:102C500030E08091C30D281B3109C90108954091CE
:102C6000C30D8091C40D481718F02FEF3FEF0AC035
:102C7000E42FF0E0ED55F24F8081282F30E04F5FD8
:102C80004093C30DC9010895E091C30D8091C40D17
:102C9000E81718F0EFEFFFEF06C0F0E0ED55F24F48
:102CA0008081E82FF0E0CF01089508951092EC0D97
:102CB0001092EB0D88EE93E0A0E0B0E08093ED0D74
:102CC0009093EE0DA093EF0DB093F00D86E59BE091
:102CD0009093EA0D8093E90D0895CF92DF92EF92E1
:102CE000FF920F931F93CF93DF937C016B018A01B7
:102CF0008091E80D8823A1F0C0E0D0E00DC0D7019D
:102D0000ED91FC91D601AC0FBD1F0190F081E02D3B
:102D1000C7016C9119952196C017D10780F304C0A3
:102D2000CB01642F0E949F17C801DF91CF911F91A3
:102D30000F91FF90EF90DF90CF900895DF93CF93A6
:102D40000F92CDB7DEB7FC0169838091E80D88232F
:102D5000C9F08091E70D803238F081E090E09383F4
:102D6000828320E030E015C08091E60DE82FF0E08E
:102D7000EA53F24F998190838F5F8093E60D8093A1
:102D8000E70D05C0CE01019661E00E949F1721E08A
:102D900030E0C9010F90CF91DF9108950F93062F76
:102DA0008091C50D66EC7DE04091E70D21E00E9429
:102DB0004A171092E60D1092E70D1092E80D0F9150
:102DC000089561E00E94CE160895413208F040E275
:102DD000862F63EA7DE00E9401171092C30D809355
:102DE000C40D089521E00E94E51608951092C30DC8
:102DF0001092C40D1092E60D1092E70D0E944F192B
:102E00000895382F413210F040E042C08091F50D16
:102E10008823E1F791E09093F50D2093F70D8FEF64
:102E20008093620E10921D0E415040931E0E4F5F14
:102E30009093F60D8091F60D330F832B8093F60D52
:102E40008091F80D813041F41092F80D8091F60DCB
:102E50008093BB0085EC01C085EE8093BC0080911F
:102E6000F50D8130E1F380911D0E841710F440912F
:102E70001D0E20E030E00AC0FB01E20FF31FD90174
:102E8000A350B24F8C9180832F5F3F4F2417A0F344
:102E9000842F08950F931F93582F122F413210F053
:102EA00081E04AC08091F50D8823E1F782E08093AC
:102EB000F50D0093F70D8FEF8093620E10921D0EAB
:102EC00040931E0EADEFBDE0FB0102C081918D93DA
:102ED0008E2F861B8417D0F31092F60D8091F60D7D
:102EE000550F852B8093F60D8091F80D813041F4BC
:102EF0001092F80D8091F60D8093BB0085EC01C017
:102F000085EE8093BC00112321F08091F50D823075
:102F1000E1F38091620E8F3F11F480E00DC080914B
:102F2000620E803211F482E007C08091620E80331D
:102F300011F084E001C083E01F910F910895482FA4
:102F4000613210F081E008958091F50D843011F028
:102F500082E008956093400EAFE1BEE0842F9C01B3
:102F6000F90102C081918D938E2F841B8617D0F3B7
:102F700080E008951F920F920FB60F920BB60F923A
:102F800011242F933F934F935F936F937F938F936E
:102F90009F93AF93BF93EF93FF938091B90090E01D
:102FA000887F90708036910509F4F2C081369105D2
:102FB000CCF58832910509F47BC089329105B4F4CF
:102FC0008031910509F46FC0813191053CF400977F
:102FD00009F447C1089709F04FC165C088319105D0
:102FE00009F466C0809709F047C182C0803491051A
:102FF00009F4A4C08134910544F48033910509F4A7
:1030000082C0C89709F038C189C08035910509F49C
:1030100089C08835910509F496C08834910509F076
:103020002BC1AEC08839910509F413C189399105C6
:10303000ECF48837910509F4ABC0893791054CF45D
:103040008836910509F4A4C08037910509F014C1B0
:103050009FC08838910509F4FCC08039910509F4B6
:103060009DC08038910509F007C198C0803B91054B
:1030700009F4C6C0813B91054CF4803A910509F4EE
:103080009FC0883A910509F0F7C0BAC0803C91050D
:1030900009F4E3C0883C910509F4DFC0883B910541
:1030A00009F0EAC0C2C08091F60D8093BB00CFC08A
:1030B00090911D0E80911E0E981768F490911D0E30
:1030C000E92FF0E0E350F24F80818093BB009F5FD7
:1030D00090931D0EBCC08091F70D882309F44BC05E
:1030E00085ED8093BC008091BC0084FDFCCFC2C004
:1030F00080E28093620E85ED8093BC008091BC00DD
:1031000084FDFCCFB7C080E38093620E85ED809391
:10311000BC008091BC0084FDFCCFACC088E38093F0
:10312000620E9BC080911D0E9091BB00E82FF0E0D5
:10313000E350F24F90838F5F80931D0E90911D0E90
:1031400080911E0E82C080911D0E9091BB00E82FD1
:10315000F0E0E350F24F90838F5F80931D0E8091DB
:10316000F70D882341F085ED8093BC008091BC0071
:1031700084FDFCCF7FC081E08093F80D84EA6EC0AF
:1031800085ED8093BC008091BC0084FDFCCF72C0B3
:1031900083E08093F50D1092610E59C08091610E0D
:1031A000803208F056C08091610E9091BB00E82FEC
:1031B000F0E0EF5BF14F90838F5F8093610E47C02B
:1031C0008091610E803230F4E091610EF0E0EF5BAF
:1031D000F14F108285ED8093BC008091BC0084FD8E
:1031E000FCCF1092F50D6091610EE091FB0DF09116
:1031F000FC0D81E49EE070E019951092610E2DC0E7
:1032000084E08093F50D10923F0E1092400EE091F5
:10321000F90DF091FA0D19958091400E882329F44B
:1032200081E08093400E10921F0E90913F0EE92F87
:10323000F0E0E15EF14F80818093BB009F5F90934F
:103240003F0E90913F0E8091400E981710F485EC40
:1032500001C085E88093BC000FC085EC8093BC0062
:1032600009C01092620E85ED8093BC008091BC0075
:1032700084FDFCCF1092F50DFF91EF91BF91AF91BE
:103280009F918F917F916F915F914F913F912F917E
:103290000F900BBE0F900FBE0F901F9018951092BD
:1032A000F50D81E08093F70D1092F80D84E161E057
:1032B0000E945F3D85E161E00E945F3DE9EBF0E047
:1032C00080818E7F808380818D7F808388E480935E
:1032D000B80085E48093BC000895882319F48CB568
:1032E000806202C08CB58F7D8CBD08959CB5937FA4
:1032F000982B9CBD08952CB5382F33702C7F322B22
:103300003CBD2DB590E095958795959587958170F5
:103310002E7F822B8DBD089585E361E00E945F3D85
:1033200085E361E00E94AC3C8CB580618CBD8CB5BE
:1033300080648CBD84E361E00E94AC3C83E361E087
:103340000E94AC3C0895FC011382128288EE93E047
:10335000A0E0B0E084839583A683B78386E69BE0F4
:1033600091838083128E118E14860895FC0186E667
:103370009BE0918380830895DF93CF930F92CDB725
:10338000DEB7FC016983A081B18112962D913C9139
:103390001397BE016F5F7F4F41E050E0F90119952F
:1033A0000F90CF91DF910895DC015996ED91FC913A
:1033B0005A97309719F420E030E018C023893489F7
:1033C0004589568982859385A485B585281B390B47
:1033D0004A0B5B0B2030B0E83B07B0E04B07B0E096
:1033E0005B0720F02FEF3FE740E050E0C901089570
:1033F000DC015996ED91FC915A97309711F480E0D9
:1034000008958581811181E00895CF93DF93EC01C8
:10341000898D9A8D009741F00E94AD22898D9A8DF9
:103420000E94A13E1A8E198EDF91CF910895FC0162
:10343000818D928D009711F00E9463220895FC0106
:10344000818D928D009719F420E030E003C00E9436
:1034500084239C01C9010895DF93CF930F92CDB7C8
:10346000DEB7FC01818D928D009749F0BE016F5F40
:103470007F4F41E050E00E948423019719F02FEF25
:103480003FEF03C08981282F30E0C9010F90CF9111
:10349000DF910895EF92FF920F931F93DF93CF93E5
:1034A0000F92CDB7DEB77C01DC0159968D919C91CE
:1034B0005A97009719F400E010E01FC0BE016F5F3B
:1034C0007F4F41E050E00E948423019719F00FEFF5
:1034D0001FEF13C08981082F10E0D7015996ED9195
:1034E000FC915A97428553856485758541505040BB
:1034F00060407040CF010E949D21C8010F90CF9184
:10350000DF911F910F91FF90EF900895CF93DF937C
:10351000EC01E98DFA8D309761F013821282CF01B0
:103520000E94C9259C01E98DFA8D82819381892BA6
:1035300031F081E090E09B838A8320E030E0C90194
:10354000DF91CF910895EF92FF920F931F93CF9346
:10355000DF93EC01F62EE72E8A011B821A8288EE99
:1035600093E0A0E0B0E08C839D83AE83BF8386E6CA
:103570009BE0998388838DE190E00E94043E9A8FBE
:10358000898F009791F0DC018F2D9E2D9C01F90110
:103590008DE101900D928150E1F7CE010C96B801BA
:1035A0004CE050E00E942202188EDF91CF911F91D3
:1035B0000F91FF90EF9008951092680E1092690E8F
:1035C00010926C0E10926E0E82E090E0A0E0B0E0DF
:1035D0008093700E9093710EA093720EB093730E41
:1035E0001092870E1092910E1092900E86E79BE03B
:1035F00090938F0E80938E0E1092930E08958B965B
:103600000E94AD2208952F923F924F925F926F9247
:103610007F928F929F92AF92BF92CF92DF92EF9262
:10362000FF920F931F93DF93CF93CDB7DEB7C754AD
:10363000D0400FB6F894DEBF0FBECDBF582E492E36
:10364000FB013A01190185A596A5998B888B26E780
:103650003BE03F872E8787A58A8B80A98B8B81A92A
:1036600092A9A3A9B4A98C8B9D8BAE8BBF8B85A986
:1036700096A9A7A9B0AD888F998FAA8FBB8F81AD6E
:1036800092ADA3ADB4AD8C8F9D8FAE8FBF8F85AD46
:1036900088A3FE9681919191A191B19189A39AA35A
:1036A000ABA3BCA381919191A191B1918DA39EA354
:1036B000AFA3B8A7808191819AA789A71EA61DA64E
:1036C0003CA72BA718AA7A018E01025F1F4F3BE28D
:1036D000A32EB12CAC0EBD1E4E010894811C911C72
:1036E00035C0D7018C918F3221F40894E11CF11C74
:1036F0002DC0422F4E194D3008F04CE0C42EDD2471
:10370000C401B701A6010E942202F401EC0DFD1DC7
:103710001082C5010E94AD22C501B801A40121E0BB
:103720000E94F527882351F4E52DF42D138212828F
:1037300086E79BE091838083158266C0EC0CFD1CBC
:10374000C8010E94AD22C50158018C01C7016FE27A
:1037500070E00E9417029C01009719F6E618F7081E
:10376000F101F182E082E52DF42DD80112968D91C0
:103770009C9113979383828386E79BE09183808358
:1037800014968C911497848315968C911597858344
:1037900016962D913D914D915C9119972683378313
:1037A000408751871A962D913D914D915C911D97BF
:1037B00022873387448755871E962D913D914D91E1
:1037C0005C91519726873787408B518B52968C910D
:1037D0005297828B53962D913D914D915C915697C6
:1037E000238B348B458B568B57962D913D914D9164
:1037F0005C915A97278B308F418F528F5B968D91BA
:103800009C915C97948F838F852D942DC95BDF4F9E
:103810000FB6F894DEBF0FBECDBFCF91DF911F91E1
:103820000F91FF90EF90DF90CF90BF90AF909F905F
:103830008F907F906F905F904F903F902F90089562
:103840009F92AF92BF92CF92DF92EF92FF920F932F
:103850001F93DF93CF93CDB7DEB7C657D0400FB6D7
:10386000F894DEBF0FBECDBFC82E992E8A01D22E8E
:1038700043E0A42EB12CAC0EBD1EC501A8019E01D3
:103880002F5F3F4F0E94031BE980FA80E00EF11E7C
:10389000F701808146E75BE02885882309F03FC077
:1038A0008D819E819BA38AA359A348A38F818CA35A
:1038B0002DA389859A85AB85BC858EA39FA3A8A7D8
:1038C000B9A78D859E85AF85B8898AA79BA7ACA728
:1038D000BDA789899A89AB89BC898EA79FA7A8AB08
:1038E000B9AB8D898AAB8E899F89A88DB98D8BAB39
:1038F0009CABADABBEAB8A8D9B8DAC8DBD8D8FABC4
:1039000098AFA9AFBAAF8E8D9F8D9CAF8BAF8C2D2A
:10391000992DBE01605E7F4F40E35BE09FC0FE01DA
:10392000FF96118210825EAF4DAFFE01EE5BFF4F3E
:1039300010822223A9F02250CE01CD96223048F4E5
:103940006EE87EE0A7012D2D0E94F527882381F4E3
:1039500007C0B501A7012D2D0E94F527882329F462
:103960008C2D992D0E94A3197BC0C5010E94AD2208
:10397000F6E0DF2259F0FE01E05BFF4F408151810C
:1039800062817381CE01CD960E949D219E01265AAF
:103990003F4FFE01FF9680819181F90193838283DD
:1039A00086E79BE091838083FE01EF5BFF4F808180
:1039B000F9018483FE01EE5BFF4F8081F90185836D
:1039C000FE01ED5BFF4F80819181A281B381F901FE
:1039D00086839783A087B187FE01E95BFF4F8081D3
:1039E0009181A281B381F90182879387A487B587EA
:1039F000FE01E55BFF4F80819181A281B381F901D6
:103A000086879787A08BB18BFE01E15BFF4F80819A
:103A1000F901828BFE01E05BFF4F80819181A281E1
:103A2000B381F901838B948BA58BB68BFE01EC5A85
:103A3000FF4F80819181A281B381F901878B908FA3
:103A4000A18FB28FFE01E85AFF4F80819181F90169
:103A5000948F838F8C2D992DB901A7010E94A31AF1
:103A60008C2D992DCA58DF4F0FB6F894DEBF0FBECC
:103A7000CDBFCF91DF911F910F91FF90EF90DF901D
:103A8000CF90BF90AF909F900895EF920F931F93A8
:103A9000CF93DF93EC01362F542F722FE02E61E08D
:103AA000432F252F072F0E9438208823D1F08E0125
:103AB000035F1F4FC801BE0141E00E949629882381
:103AC00039F4C801BE0140E00E949629882349F0DC
:103AD000CE018B96B8010E94E324882319F081E07F
:103AE00001C080E0DF91CF911F910F91EF90089579
:103AF000382F8091AD0E8F3F31F43EBD0DB407FEDF
:103B0000FDCF8EB50895F894A091AE0EB091AF0E92
:103B10005091B00E252F2095E091B10EF091B20E8C
:103B20004091B30E642F609590E08C9182238C932A
:103B300037FF03C08081842B02C08081862380836D
:103B40008C91852B8C939F5F983011F0330FEDCFC4
:103B500000000000000000008C9128232C93789432
:103B600008958091AD0E8F3F31F48EBD0DB407FEE8
:103B7000FDCF2EB530C0F894E091B10EF091B20EA9
:103B800080819091B30E892B8083E091AE0EF091ED
:103B9000AF0E6091B00EA091B40EB091B50E8091B1
:103BA000B60E482F50E0762F709530E020E08081EF
:103BB000862B8083220F8C9190E084239523892B80
:103BC00009F02160808187238083000000003F5F2F
:103BD000383069F77894822F08950F931F93CF930D
:103BE000DF938B010E94CA3BEB010E94B11D8F3F06
:103BF00011F481E008C00E94CA3B6C1B7D0B60176A
:103C0000710798F380E0DF91CF911F910F91089594
:103C1000FC01673020F086E1858380E00895633001
:103C2000B9F0643028F4613069F0623070F407C094
:103C30006530A1F0653078F06630A9F412C084E0F8
:103C400090E011C080E090E00EC085E090E00BC0F5
:103C500081E090E008C086E090E005C082E090E05E
:103C600002C083E090E00E947B1981E00895FC018E
:103C7000848160E00E945F3D0895FC01848161E0E1
:103C80000E945F3D0895CF92DF92EF92FF920F93D3
:103C90001F93CF93DF937C016A01FC018485882305
:103CA00019F40FEF1FEF30C000E010E040E050E0EB
:103CB000212F332727FD3A95F601E40FF51F808168
:103CC00090E0282739273070C901F4E09595879551
:103CD000FA95E1F782279327102F00270827192745
:103CE0009C01322F22273295307F0227132725E0AF
:103CF000880F991F2A95E1F7082719274F5F5F4F13
:103D0000F2E040305F07A1F6862F0E94781DC0E0E8
:103D1000D0E0F601EC0FFD1F80810E94781D2196F6
:103D200082E0C030D807A9F7812F992787FD9A959F
:103D30000E94781D802F0E94781D0E94B11DF701FE
:103D400082878F71853011F481E007C081E1F7012E
:103D50008583C7010E943D1E80E0DF91CF911F91B6
:103D60000F91FF90EF90DF90CF9008950F931F93E6
:103D7000CF93DF93EC010E94CA3B8B0109C00E94E4
:103D8000CA3B601B710B6D52714010F08FE00AC08E
:103D90000E94B11D8A878F3F91F38E3F11F481E01D
:103DA00006C08DE08D83CE010E943D1E80E0DF9134
:103DB000CF911F910F910895CF93DF93EC018E81E6
:103DC000882319F40FC00E94B11D8F819885019638
:103DD00098878F83019782509240A8F3CE010E946A
:103DE0003D1E1E82DF91CF910895DF92EF92FF92E8
:103DF0000F931F93CF93DF93EC01D62E79018A01A5
:103E00000E94DC1ECE010E94371ECE016CE271E0E2
:103E10000E94ED1D8D2D80640E94781D812F9927B1
:103E2000AA27BB270E94781DC801AA27BB270E948A
:103E3000781DBB27A12F902F8F2D0E94781D8E2DCE
:103E40000E94781DDD2011F485E906C088E0D816AF
:103E500011F487E801C08FEF0E94781D10E00E94E6
:103E6000B11D8A8787FF02C01150C9F7DF91CF913A
:103E70001F910F91FF90EF90DF900895CF92DF9206
:103E8000EF92FF920F931F93CF93DF93EC017A0190
:103E90008B016901411551056105710511F482E13C
:103EA00033C08B85833039F039E0EE0CFF1C001FE6
:103EB000111F3A95D1F7CE0168E1A80197010E9440
:103EC000F51E882311F084E01FC0CE016EEFA6011D
:103ED0000E94431E8823C9F0CE0168E572E00E946B
:103EE000ED1D882311F485E10FC0CE016DE020E0C7
:103EF00030E040E050E00E94F51E882321F40E944B
:103F0000B11D882379F084E18D83CE010E943D1E8E
:103F100080E0DF91CF911F910F91FF90EF90DF90A4
:103F2000CF900895CE010E943D1E81E0F2CF6F92A6
:103F30007F928F929F92AF92BF92CF92DF92EF9239
:103F4000FF920F931F93CF93DF93EC015A016B0104
:103F5000390148010115110509F46AC0C801820F31
:103F6000931F8150924008F05EC08E81882371F0CB
:103F700088819981AA81BB81481759076A077B0705
:103F800029F48F8198856816790650F5A882B98240
:103F9000CA82DB828B85833039F0E9E0AA0CBB1C36
:103FA000CC1CDD1CEA95D1F7CE0161E1A60195019B
:103FB0000E94F51E882319F083E08D8334C0CE0162
:103FC0000E94B61E882379F118861F8281E08E83B5
:103FD00007C00E94B11D8F819885019698878F83B5
:103FE0008F81988586159705A0F300E010E008C042
:103FF0000E94B11DF701E00FF11F80830F5F1F4F7B
:1040000008151905A8F32F813885280D391D388723
:104010002F838985882319F02050324048F0CE0143
:104020000E94DC1E05C0CE010E943D1E80E001C042
:1040300081E0DF91CF911F910F91FF90EF90DF9082
:10404000CF90BF90AF909F908F907F906F9008958A
:10405000EF92FF920F931F93790120E030E000E090
:1040600012E00E94971F1F910F91FF90EF9008950B
:10407000BF92CF92DF92EF92FF920F931F93CF9355
:10408000DF93EC01B62E1E2D1B8619861E821D8223
:104090001C864C832093B70E0093B80EE092AD0EB1
:1040A0000E94CA3B6B018C8161E00E94AC3CCE0156
:1040B0000E943D1E1F3F09F462C08091B80E60E06F
:1040C0000E94AC3C8091B70E61E00E94AC3C8091B4
:1040D000AD0E61E00E94AC3CE091AD0E2E2F332777
:1040E00027FD3095F901E95EFD4FE491F0E0EE0F18
:1040F000FF1FED51FE4F859194919093AF0E8093E9
:10410000AE0E235A3D4FF90184918093B00EE09199
:10411000B70E2E2F332727FD3095F901E95EFD4FAD
:10412000E491F0E0EE0FFF1FED51FE4F8591949169
:104130009093B20E8093B10E235A3D4FF9018491B2
:104140008093B30EE091B80E2E2F332727FD3095C4
:10415000F901E95EFD4FE491F0E0EE0FFF1FE3503F
:10416000FE4F859194919093B50E8093B40E235A8F
:104170003D4FF90184918093B60E10E006C00E9475
:104180008C1983E00E947B19F8CF8FEF0E94781D75
:104190001F5F1A30D1F7CE010E94371E09C00E945E
:1041A000CA3B6C197D09615D774010F081E05AC00F
:1041B000CE0160E020E030E040E050E00E94F51EDB
:1041C000182F8A87813059F7CE0168E02AEA31E05A
:1041D00040E050E00E94F51E82FF02C01B870DC028
:1041E00010E00E94B11D8A871F5F1430D1F78A3A10
:1041F00011F082E037C082E08B878B85823021F01E
:10420000EE24FF2487010FC0E12CF12C012DF0E4F6
:104210001F2F09C00E94CA3B6C197D09615D774060
:1042200010F088E01FC0CE0167E320E030E040E0FE
:1042300050E00E94F51ECE0169E2A80197010E949C
:10424000F51E8A87882331F78B858230F1F4CE0101
:104250006AE320E030E040E050E00E94F51E882351
:1042600039F086E08D83CE010E943D1E80E01AC0A9
:104270000E94B11D807C803C11F483E08B870E94FA
:10428000B11D0E94B11D0E94B11DCE010E943D1EB4
:104290008091AD0E8F3F11F081E004C0CE016B2DF7
:1042A0000E94081EDF91CF911F910F91FF90EF9018
:1042B000DF90CF90BF900895CF93DF93EC01DB01A7
:1042C00080E090E020E2FD01E80FF91F20830196D5
:1042D0008B309105C1F757E040E021C02E3219F034
:1042E0008DEA91E007C05A3019F15AE048E017C052
:1042F0003217F1F0FC01019634913323C9F75417BA
:10430000B8F02132A8F02F3798F4822F81568A31E5
:1043100008F42052FD01E40FF11D20834F5F299125
:104320002223E1F690E08C91803219F091E001C0F7
:1043300090E0892FDF91CF9108956F927F928F92B5
:104340009F92AF92BF92CF92DF92EF92FF920F9324
:104350001F93CF93DF93EC017A018B012D812223F0
:1043600009F480C08B899C89AD89BE898417950723
:10437000A607B70708F476C085C0E114F10401056B
:10438000110549F41E821F82188619861A861B861B
:104390001C861D8665C02A853B854C855D85EB8D19
:1043A000FC8D858590E0099621503040404050407A
:1043B00039014A01082E04C0969487947794679433
:1043C0000A94D2F72F5F3F4F4F4F5F4F0894E10899
:1043D000F108010911095701680104C0D694C79476
:1043E000B794A7948A95D2F70894E11CF11C011D9B
:1043F000111DA614B704C804D90428F021153105ED
:104400004105510549F48F89988DA98DBA8D8E8308
:104410009F83A887B98716C0A618B708C808D90807
:1044200011C04E815F81688579858B8D9C8D94014B
:104430000E94772B0894A108B108C108D1088823ED
:1044400031F410C086E0882E912C8C0E9D1EA11494
:10445000B104C104D10429F7EA86FB860C871D87C5
:1044600081E001C080E0DF91CF911F910F91FF901B
:10447000EF90DF90CF90BF90AF909F908F907F9004
:104480006F900895223009F078CFE6CFCF93DF9375
:10449000EC01462F6E857F85888999890E945B296A
:1044A000882319F420E030E00AC08A89282F30E000
:1044B00095E0220F331F9A95E1F72554314FC9013A
:1044C000DF91CF9108950F931F93CF93DF938C01CA
:1044D000FC0185818823D9F1848187FF35C0C8011B
:1044E00061E00E944622EC01009789F1F801858184
:1044F000823040F483899489A589B6898C8F9D8FF9
:10450000AE8FBF8FF8018789908D9B8F8A8F8789A7
:10451000908DA18DB28DCD01AA27BB279D8B8C8B51
:10452000E091B90EF091BA0E309751F0BE016A5E7B
:104530007F4FCE0148961995888D998D9B8B8A8BDC
:10454000F80184818F7784830E94FC2801C080E079
:10455000DF91CF911F910F910895CF93DF93EC01DD
:104560000E946322882311F01D8281E0DF91CF91A8
:1045700008956F927F928F929F92AF92BF92CF9247
:10458000DF92EF92FF920F931F93DF93CF9300D0B0
:104590000F92CDB7DEB77C015A016B01DC01159695
:1045A0008C911597813009F08FC014968C9181FF02
:1045B0008BC09EC00097A105B10511F481E085C0B4
:1045C000F7016284738484849584C701B601A501D0
:1045D0000E949D21882309F477C0D7015B968D91B5
:1045E0009C915C97A114B104C104D10489F457963D
:1045F0004D915D916D917C915A970E94EA2B882391
:1046000009F462C0F701178A108E118E128E3DC018
:10461000D70116964D915D916D917C9119979E01F0
:104620002F5F3F4F0E94772B882309F44DC0D7019D
:104630005B96ED91FC915C9749815A816B817C81FD
:104640008789803129F088EF9FEFAFEFBFE004C08A
:1046500088EF9FEFA0E0B0E0481759076A077B0793
:10466000A0F4CF010E94EA2B882371F1F701468163
:10467000578160857185838D948D0FEF1FEF2FEF2C
:104680003FE00E94DB2A8823F9F0D7015396AD92D0
:10469000BD92CD92DC92569714968C9114978068B7
:1046A00014968C93C7010E946322882369F0B60197
:1046B000A5016A147B048C049D0410F4B401A301C9
:1046C000C7010E949D2101C080E00F900F900F90C4
:1046D0000F90CF91DF911F910F91FF90EF90DF909E
:1046E000CF90BF90AF909F908F907F906F900895E4
:1046F000F70183899489A589B68984179507A60748
:10470000B70708F057CFE0CF2F923F924F925F92BA
:104710006F927F928F929F92AF92BF92CF92DF92D1
:10472000EF92FF920F931F93CF93DF93EC012A0137
:104730008D81882309F4C6C08C8180FFC3C0D8C096
:1047400025014E185F084B0176E0272E312C2C0EE8
:104750003D1E3201B1C02A853B854C855D856FEFDA
:10476000A62E61E0B62EA222B3228D8179018A01A4
:1047700099E016950795F794E7949A95D1F7EB8D04
:10478000FC8D823049F4428D538D648D758D4E0DB4
:104790005F1D601F711F3FC0D480DA94DE20A1141A
:1047A000B104D9F4DD20C9F42115310541055105C5
:1047B00049F48F89988DA98DBA8D8E839F83A887A0
:1047C000B9870BC04E815F8168857985CF019101E2
:1047D0000E94772B882309F475C0EB8DFC8D4E81E8
:1047E0005F81688579854250504060407040058403
:1047F00004C0440F551F661F771F0A94D2F78685A1
:104800009785A089B189480F591F6A1F7B1F4D0DDD
:10481000511D611D711D80E092E08A199B096301A1
:104820008615970508F46C018C8186FD06C080E032
:10483000C81682E0D80609F073C08091480B9091A9
:10484000490BA0914A0BB0914B0B481759076A07C7
:104850007B0709F465C08091BB109091BC10950155
:10486000860174010E94971F882361F18C0C9D1CA6
:1048700012C095012554314FA9014C0D5D1DD40185
:10488000F90102C081918D93E417F507D9F7E21B76
:10489000F30B8E0E9F1E960140E050E08A859B85AB
:1048A000AC85BD85820F931FA41FB51F8A879B8788
:1048B000AC87BD876C187D086114710409F04BCF7B
:1048C000A20102C04FEF5FEFCA01DF91CF911F91AC
:1048D0000F91FF90EF90DF90CF90BF90AF909F909F
:1048E0008F907F906F905F904F903F902F900895A2
:1048F000AB88BC88CD88DE88EA84FB840C851D8566
:104900009A0140E050E0D601C5018E199F09A00B25
:10491000B10B82179307A407B50708F411CF13CF83
:10492000CB01BA0140E00E945B29882309F0A1CFA6
:10493000C9CFCF92DF92EF92FF920F931F93DF9335
:10494000CF930F92CDB7DEB76C01FC018581823029
:1049500070F0E284F38404851585C601BE016F5FA3
:104960007F4F41E050E00E948423019769F020E0EE
:1049700030E0C9010F90CF91DF911F910F91FF900F
:10498000EF90DF90CF900895F60182859385A485FE
:10499000B5854F96A11DB11D82879387A487B587E2
:1049A000F5E016950795F794E794FA95D1F78E2DD3
:1049B0008F70282F30E0E5E0220F331FEA95E1F7F2
:1049C0002554314FD6CF0F931F93CF93DF93EC0134
:1049D0008B018D81882309F041C0FB0187898031DB
:1049E000B1F482E08D831F8A188E198E1A8E808D05
:1049F000918DA0E0B0E045E0880F991FAA1FBB1F72
:104A00004A95D1F78B8B9C8BAD8BBE8B15C08032BA
:104A100029F583E08D83FB01428D538D648D758D67
:104A20004F8B588F698F7A8F9E012D5E3F4FC80143
:104A30000E94432C882391F01C8F0B8F81E08C8384
:104A40001E821F82188619861A861B861C861D8662
:104A50001E861F86188A198A1A8A01C080E0DF9193
:104A6000CF911F910F9108951F93CF93DF93EC0186
:104A7000142FE62FF0E075E0EE0FFF1F7A95E1F7B7
:104A8000E554F14F8385817121F0842F827409F000
:104A900054C06A8B8091480B9091490BA0914A0BAE
:104AA000B0914B0B8E879F87A88BB98B8489958992
:104AB000A0E0B0E0BC0155274427828D938DA0E093
:104AC000B0E0482B592B6A2B7B2B4F8B588F698F6B
:104AD0007A8F838590E088719070009751F4848D6F
:104AE000958DA68DB78D8B8B9C8BAD8BBE8B81E00E
:104AF0000CC0409711F59E012D5E3F4F8B8D9C8D14
:104B00000E94432C8823C9F084E08D83812F8F700D
:104B10008C831E821F82188619861A861B861C8625
:104B20001D8616FD02C081E009C0CE0140E050E0C4
:104B300060E070E00E94B92201C080E0DF91CF9177
:104B40001F910895CF93DF93EC019C012A5F3F4FA3
:104B50008B8D9C8D41E050E060E070E00E94B22CB3
:104B60008823A1F08F89988DA98DBA8D0097A10512
:104B7000B10559F48E819F81A885B9858F8B988F57
:104B8000A98FBA8F8C8180688C8381E0DF91CF916F
:104B900008952F923F924F925F927F928F929F92B1
:104BA000AF92BF92CF92DF92EF92FF920F931F933B
:104BB000DF93CF9300D000D0CDB7DEB76C01162FB6
:104BC000072F5E834D83DC0115968C9115978130FC
:104BD00009F070C114968C9181FF6CC18EC1F601F1
:104BE000438954896589768982859385A485B585AD
:104BF00084179507A607B70731F0C6010E949D21CB
:104C0000882309F457C1812F902F9C0129012D8001
:104C10003E8017C1D6015B96ED91FC915C97DA015D
:104C2000C90119E0B695A795979587951A95D1F77B
:104C300074807A9478227FEF872E71E0972E8222FB
:104C40009322772009F04EC08114910409F04AC0E4
:104C5000D60116964D915D916D917C9119974115F4
:104C600051056105710581F457968D919D910D90C7
:104C7000BC91A02D0097A105B10549F1F6018683ED
:104C80009783A087B1872EC0CF019E012F5F3F4F32
:104C90000E94772B882309F414C129813A814B8122
:104CA0005C81D6015B96ED91FC915C9787898031A0
:104CB00029F088EF9FEFAFEFBFE004C088EF9FEFD0
:104CC000A0E0B0E0281739074A075B0730F0C601BB
:104CD0000E94A225882331F4EDC0F6012683378394
:104CE0004087518780E092E0881999095101821527
:104CF000930508F45C01D6015B96ED91FC915C97FD
:104D00001696ED90FD900D911C9119978EEF9FEFE7
:104D1000AFEFBFEFE80EF91E0A1F1B1F058404C08A
:104D2000EE0CFF1C001F111F0A94D2F78685978591
:104D3000A089B189E80EF91E0A1F1B1FE70CF11CA0
:104D4000011D111D90E0A91692E0B90651F5809160
:104D5000480B9091490BA0914A0BB0914B0B8E15CB
:104D60009F05A007B10761F48FEF9FEFAFEFBFEF93
:104D70008093480B9093490BA0934A0BB0934B0B35
:104D80008091BB109091BC10B801A70192010E94C4
:104D90003E1F882309F48EC0A0E0B2E04A0E5B1EDD
:104DA0003EC08114910409F5F601228533854485BE
:104DB000558583899489A589B689281739074A07B3
:104DC0005B0798F00E94FC28882309F473C0E092E6
:104DD000480BF092490B00934A0B10934B0B8091B8
:104DE000BD1081608093BD1008C0C801B70141E0CB
:104DF0000E945B29882309F45DC094012554314F3A
:104E0000A9014A0D5B1DD201F90102C08D91819368
:104E1000E417F507D9F7E21BF30B4E0E5F1E2A18B5
:104E20003B08950140E050E0F60182859385A4851A
:104E3000B585820F931FA41FB51F82879387A48710
:104E4000B587D6011A962D913D914D915C911D9794
:104E50002114310409F0DECE53968D919D910D9071
:104E6000BC91A02D82179307A407B50748F4F6015B
:104E7000238B348B458B568B84818068848311C04F
:104E80008091B90E9091BA0E892B59F08D819E8137
:104E9000892B39F0D60114968C911497806814965A
:104EA0008C93F601848183FF0EC0C6010E946322A9
:104EB000882349F481E090E0D60113969C938E9369
:104EC00012971E821D828D819E8126960FB6F894C0
:104ED000DEBF0FBECDBFCF91DF911F910F91FF902D
:104EE000EF90DF90CF90BF90AF909F908F907F908A
:104EF0005F904F903F902F90089582FD70CE83CEAB
:104F0000DF93CF930F92CDB7DEB76983BE016F5F9A
:104F10007F4F41E050E00E94C9250F90CF91DF9173
:104F20000895DF92EF92FF920F931F93CF93DF9339
:104F3000EC010E94A225882309F44EC0EB8DFC8D64
:104F4000EE80FF80088519858EEF9FEFAFEFBFEFF2
:104F5000E80EF91E0A1F1B1F058404C0EE0CFF1C7F
:104F6000001F111F0A94D2F786859785A089B18901
:104F7000E80EF91E0A1F1B1FD4800894E108F108EF
:104F8000010911090BC0C801B7016D0D711D811D0B
:104F9000911D0E9437298823F9F0DA94DD2099F7D2
:104FA000EB8DFC8D20E032E040E050E0058404C051
:104FB000220F331F441F551F0A94D2F78B899C89F7
:104FC000AD89BE89820F931FA41FB51F8B8B9C8B4D
:104FD000AD8BBE8B81E001C080E0DF91CF911F914E
:104FE0000F91FF90EF90DF9008956F927F928F92D4
:104FF0009F92AF92BF92CF92DF92EF92FF920F9368
:105000001F93DF93CF93CDB7DEB72B970FB6F894EE
:10501000DEBF0FBECDBF5C016B01822EDC01159699
:105020008C91882309F0D2C0CA018E010F5F1F4FF7
:10503000B8010E945C21882309F4C8C0F601838D61
:10504000948DD5015C969C938E935B971682178204
:1050500010861186D6011A961D921D921D921C92E1
:105060001D979924380141C0C6010E949924FC0172
:10507000009709F4ABC085E016950795F794E7947F
:105080008A95D1F71E2D1F708081882311F0853EEF
:10509000D1F4992091F4D50152961C935297209106
:1050A000480B3091490B40914A0B50914B0B1E9687
:1050B0002D933D934D935C9351978081882399F470
:1050C0009924939421C0C301BF014BE050E00E949A
:1050D0000A02009751F4882D8073803309F476C05A
:1050E000C501612F6FC099249394F601E284F38483
:1050F0000485158583899489A589B689E816F906FA
:105100000A071B0708F4B0CF882D8271823109F09D
:105110005DC0992041F0C50161E00E9446228C01EA
:10512000009789F453C0D60115968C91823009F40A
:105130004DC0C6010E949127882309F447C0F5019C
:10514000128A0BEB1EE080E2D8011D928A95E9F7E6
:10515000D801FE0131968BE001900D928150E1F76C
:10516000E091B90EF091BA0E309739F0B801625F54
:105170007F4FC8014096199509C081E298E2F80175
:10518000918B808B80E098E097878687D801509636
:105190008D919C91519753969C938E9352975996CB
:1051A0009C938E9358971E968D919C911F9757961E
:1051B0009C938E9356970E94FC28882339F0C50152
:1051C000F5016289482D0E94342501C080E02B96AC
:1051D0000FB6F894DEBF0FBECDBFCF91DF911F9108
:1051E0000F91FF90EF90DF90CF90BF90AF909F9086
:1051F0008F907F906F9008958091BD10882399F1D2
:105200004091480B5091490B60914A0B70914B0BA8
:105210008091BB109091BC102BEB3EE00E943E1F92
:10522000882319F14091BE105091BF106091C010B9
:105230007091C110411551056105710591F0809182
:10524000BB109091BC102BEB3EE00E943E1F8823C8
:1052500061F01092BE101092BF101092C010109208
:10526000C1101092BD1081E0089580E00895EF9282
:10527000FF920F931F937B018C010E94FC288823CF
:10528000A9F0EBEBFEE0119280E1EB3BF807D9F7D8
:10529000E092480BF092490B00934A0B10934B0B92
:1052A0008091BD1081608093BD1081E01F910F91AE
:1052B000FF90EF900895DF92EF92FF920F931F936C
:1052C0007B018C01D42E8091480B9091490BA091C9
:1052D0004A0BB0914B0B8E159F05A007B107C1F08B
:1052E0000E94FC288823D9F08091BB109091BC10BB
:1052F000B801A7012BEB3EE00E942820882379F01B
:10530000E092480BF092490B00934A0B10934B0B21
:105310008091BD108D298093BD1081E001C080E097
:105320001F910F91FF90EF90DF9008958F929F92C1
:10533000AF92BF92CF92DF92EF92FF920F931F93A3
:10534000CF93DF936C01142F7093BC106093BB104C
:10535000442321F488249924540140C0453008F0A6
:105360001CC160E070E080E090E040E00E945B29BA
:10537000882309F412C1C12FD0E02197FE0174E007
:10538000EE0FFF1F7A95E1F7E554F14FE254FE4F1F
:105390008081EE5BF14090E08F779070892B09F06F
:1053A000FCC0E653FE4F80819181A281B381843697
:1053B0009105A105B10508F4F0C064E0CC0FDD1F34
:1053C0006A95E1F7CF57DF4E88809980AA80BB802D
:1053D00081149104A104B10409F4DFC0C501B40132
:1053E00040E00E945B29882309F4D7C08091C60E53
:1053F0009091C70E8050924009F0CFC02091CB0E03
:10540000222309F4CAC08091C90E9091CA0E892B3B
:1054100009F4C3C08091C80E882309F4BEC0F60108
:10542000228B8091C80E8483158661E070E007C0EE
:105430004F5FF60145874150483008F0AEC0F60195
:105440004585848190E09B01042E02C0220F331F0A
:105450000A94E2F78217930759F72091D10E309101
:10546000D20E2115310519F040E050E008C020911E
:10547000DF0E3091E00E4091E10E5091E20EF60108
:105480002583368347835087E090C90EF090CA0E7B
:1054900000E010E0E80CF91C0A1D1B1DE38AF48AE9
:1054A000058B168B8091CC0E9091CD0E918F808FB5
:1054B0006091CB0E70E080E090E00E94FD486E0DA0
:1054C0007F1D801F911FF601628F738F848F958FD0
:1054D0002091CC0E3091CD0E55E0220F331F5A95FE
:1054E000E1F721503E4F232F3327269540E050E02F
:1054F000260F371F481F591F26873787408B518B30
:105500008091CE0E9091CF0E009719F0A0E0B0E000
:1055100008C08091DB0E9091DC0EA091DD0EB09161
:10552000DE0E85017401E21AF30A040B150BA801C3
:105530009701280F391F4A1F5B1FF601058404C01D
:1055400056954795379527950A94D2F72187328744
:1055500043875487253FFFE03F07F0E04F07F0E027
:105560005F0710F48CE006C0255F3F4F404050407D
:1055700028F480E1F601878B81E010C08091E70E6E
:105580009091E80EA091E90EB091EA0EF601828F9B
:10559000938FA48FB58F80E2EECF80E0DF91CF9123
:1055A0001F910F91FF90EF90DF90CF90BF90AF9041
:1055B0009F908F9008954F925F926F927F928F92FB
:1055C0009F92AF92BF92CF92DF92EF92FF920F9392
:1055D0001F93CF93DF93EC016A017B01280139010E
:1055E000423051056105710508F46FC089859A85BF
:1055F000AB85BC850196A11DB11D84179507A60733
:10560000B70708F462C02B893C894D895E898F8970
:10561000803129F499278F2D7E2D6D2D09C0C7016A
:10562000B60117E096958795779567951A95D1F706
:105630004B015C01820E931EA41EB51E8091480B87
:105640009091490BA0914A0BB0914B0B881699068B
:10565000AA06BB0639F0C501B40140E00E945B29EF
:10566000882399F18F89803149F4F601F070EE0FAB
:10567000FF1FE554F14F518240820DC0F601EF77D4
:10568000F070EE0FFF1FEE0FFF1FE554F14F408249
:105690005182628273828091BD1081608093BD10BF
:1056A0008A89823080F08D819E81AF81B885880E95
:1056B000991EAA1EBB1E8092BE109092BF10A0928F
:1056C000C010B092C11081E001C080E0DF91CF91A5
:1056D0001F910F91FF90EF90DF90CF90BF90AF9010
:1056E0009F908F907F906F905F904F900895CF9292
:1056F000DF92EF92FF920F931F93CF93DF93EC0112
:105700007A018B01690189859A85AB85BC850196F3
:10571000A11DB11D84179507A607B70708F450C04F
:105720002B893C894D895E898F89803129F499279D
:10573000812F702F6F2D09C0C801B701E7E0969542
:10574000879577956795EA95D1F7260F371F481FFC
:10575000591F8091480B9091490BA0914A0BB09131
:105760004B0B281739074A075B0739F0CA01B90103
:1057700040E00E945B29882319F18F89803159F418
:10578000F701F070EE0FFF1FE554F14F808191811A
:10579000A0E0B0E00EC0F701EF77F070EE0FFF1F52
:1057A000EE0FFF1FE554F14F80819181A281B381FB
:1057B000BF70F60180839183A283B38381E001C02F
:1057C00080E0DF91CF911F910F91FF90EF90DF90DC
:1057D000CF900895AF92BF92CF92DF92EF92FF9257
:1057E0000F931F93DF93CF9300D00F92CDB7DEB707
:1057F0006C017A018B0182E090E0A0E0B0E0F6015C
:1058000080839183A283B3835E010894A11CB11CA1
:10581000C601B801A70195010E94772B882319F1D1
:10582000C601B801A70100E010E020E030E00E94CE
:10583000DB2A8823C1F0E980FA800B811C81F60104
:105840008789803129F088EF9FEFAFEFBFE004C078
:1058500088EF9FEFA0E0B0E0E816F9060A071B0703
:10586000B8F281E001C080E00F900F900F900F9090
:10587000CF91DF911F910F91FF90EF90DF90CF902C
:10588000BF90AF9008954F925F926F927F928F92E8
:105890009F92AF92BF92CF92DF92EF92FF920F93BF
:1058A0001F93DF93CF9300D00F92CDB7DEB76C017B
:1058B00049835A836B837C833901EE24FF2487015B
:1058C0002E010894411C511C812CA2E09A2EA12C7F
:1058D000B12C49815A816B817C81C60192010E9461
:1058E000772B882351F1D501C401F601058404C04A
:1058F000880F991FAA1FBB1F0A94D2F7E80EF91E42
:105900000A1F1B1F29813A814B815C818789803165
:1059100029F088EF9FEFAFEFBFE004C088EF9FEF63
:10592000A0E0B0E0281739074A075B0790F2F301BF
:10593000E082F1820283138381E00F900F900F9039
:105940000F90CF91DF911F910F91FF90EF90DF901B
:10595000CF90BF90AF909F908F907F906F905F900F
:105960004F9008952F923F924F925F926F927F9245
:105970008F929F92AF92BF92CF92DF92EF92FF925F
:105980000F931F93DF93CF93CDB7DEB72F970FB64B
:10599000F894DEBF0FBECDBF1C014A875B876C87C2
:1059A0007D873F872E87D9010D911D912D913C91C7
:1059B000011511052105310549F0480159010894E7
:1059C000811C911CA11CB11C198610C0FC01808097
:1059D0009180A280B38019868A859B85AC85BD8520
:1059E0000197A105B10511F491E09987D1011996AC
:1059F0008D919D910D90BC91A02D0196A11DB11D81
:105A00008D839E83AF83B887750164014424552438
:105A100032018E010F5F1F4FF10181859285A385B1
:105A2000B485481659066A067B0608F090C08D8139
:105A30009E81AF81B8858C159D05AE05BF0550F4DC
:105A400082E0882E912CA12CB12CB2E0CB2ED12C4F
:105A5000E12CF12CC101B701A60198010E94772B1E
:105A6000882309F474C089819A81AB81BC81A70124
:105A700096012F5F3F4F4F4F5F4F0097A105B10534
:105A800019F049015A010DC0281939094A095B0961
:105A90008A859B85AC85BD85281739074A075B0732
:105AA00059F00894411C511C611C711C0894C11CC4
:105AB000D11CE11CF11CB0CFC101A601B7010FEF51
:105AC0001FEF2FEF3FE00E94DB2A882399F43FC0AD
:105AD0002601370108944108510861087108C10185
