:100000000C947A010C940F3C0C94403C0C94713C81
:100010000C94A23C0C94D33C0C94043D0C94353DC0
:100020000C94663D0C94A7010C94A7010C94A701B5
:100030000C94A7010C94A7010C94A7010C94A701A0
:100040000C94A7010C94A7010C94A7010C94A70190
:100050000C94A7010C9454370C94A7010C94973D71
:100060000C94A7010C944F410C947B420C94A70173
:100070000C94A7010C94A7010C94A7010C94A70160
:100080000C94A7010C94A7010C94A7010C94A70150
:100090000C948B410C94AF420C94A7010C94CF1993
:1000A0000C94A7010C94A7010C94A7010C94A70130
:1000B0000C94A7010C94A7010C94A7010C94A70120
:1000C0000C94A7010C94A7010C94A7010C94C741B0
:1000D0000C94E3420C94A7010C9403420C94174334
:1000E0000C94A70107634236B79BD8A71A39685604
:1000F00018AEBAAB558C1D3CB7CC5763BD6DEDFD4A
:10010000753EF6177231BF000000803F0800000006
:10011000BE922449123EABAAAA2ABECDCCCC4C3EFC
:1001200000000080BEABAAAAAA3E00000000BF00EB
:100130000000803F0000000000084178D3BB4387E7
:10014000D1133D190E3CC3BD4282AD2B3E68EC82FB
:1001500076BED98FE1A93E4C80EFFFBE01C4FF7F80
:100160003F000000000056533130353320666F7574
:100170006E6400436F756C646E27742066696E64EC
:10018000205653313035332C20646F20796F752021
:10019000686176652074686520726967687420708C
:1001A000696E7320646566696E65643F007C3C3EE1
:1001B0005E2B3D3F2F5B5D3B2C2A225C001F1C1FEA
:1001C0001E1F1E1F1F1E1F1E1F00002100240027B0
:1001D000002A002D00300033000101000004010757
:1001E000010A0100002200250028002B002E00310A
:1001F00000340002010000050108010B010000208D
:10020000002300260029002C002F003200000100EE
:100210000003010601090105050505070508080891
:1002200008020202020A0A08080404040401010187
:10023000010101010103030303030303030407078F
:10024000070C0C0C0C0C0C0C0C020202020606062D
:1002500006060606060B0B0B0B0B0B0B0B01021015
:1002600020200808102040102040800201020108D0
:100270000402010102040810204080804020100880
:1002800004020180040201804020100804020108D9
:100290000402010102040810204080010204081039
:1002A0002040800000090A02080B0C0D0706030419
:1002B000010000000000000000000000000000003D
:1002C000000000000000000000000000000000111D
:1002D000100F0000000000000000000000000000FF
:1002E000000000000000000000008A056B18F11CEF
:1002F0005844830511241FBECFEFD1E2DEBFCDBF2E
:1003000000E00CBF1CE0A0E0B2E0E8E8F7E900E0A4
:100310000BBF02C007900D92AA3DB107D9F71BBED3
:1003200014E1AAEDBCE001C01D92AA3AB107E1F7C1
:1003300012E0C2EFD2E004C02297FE010E947C4B83
:10034000CA3ED107C9F70E948E450C94B74B0C9456
:100350000000A0E0B0E0EFEAF1E00C94884BEC0183
:10036000A880B980CA80DB80A114B104C104D10483
:1003700041F484E2A82E89EDB82E8BE5C82E87E0E3
:10038000D82EC601B5012DE133EF41E050E00E94C7
:100390005F4B27EA31E440E050E00E94124B7B01C2
:1003A0008C01C601B5012DE133EF41E050E00E9420
:1003B0005F4BCA01B9012CEE34EF4FEF5FEF0E94A3
:1003C000124B6E0D7F1D801F911F97FF04C061505F
:1003D000704080409048688379838A839B839B0127
:1003E000AC015F77B901CA01CDB7DEB7EAE00C9482
:1003F000A44B0E94A901089586E69CE00E94A901F1
:1004000008956093660C7093670C8093680C9093CA
:10041000690C0895FB01DC0104C08D9101908019E5
:1004200021F441505040C8F7881B990B0895FC01F6
:100430008191861721F08823D9F79927089531975C
:10044000CF010895FB01DC014150504048F001907C
:100450000D920020C9F701C01D9241505040E0F7B5
:1004600008950F931F93CF93DF938C01EB016115D8
:10047000710581F0DC011F96ED91FC91509730974A
:1004800031F0CE011D966D917C911E971995F80162
:10049000D687C587DF91CF911F910F910895DF9384
:1004A000CF93CDB7DEB72D970FB6F894DEBF0FBE52
:1004B000CDBFE091640DF091650D9E012F5F3F4F20
:1004C000AF018DE0DA010D90AD01D9010D929D01D2
:1004D0008150C1F78091BC0E9091BD0E8F31910576
:1004E00089F18032910524F44E9709F044C035C05B
:1004F0008032910519F18197F1F5A885B98510979A
:1005000059F0CE0101961C969C938E931B97A78160
:10051000B085109761F40FC02091680D3091690D7E
:100520002115310541F1CF01F901199524C01C961F
:10053000FC93EE931B976781708519C087E59DE05A
:10054000BC0117C0A581B681109721F01C96FC93C1
:10055000EE931B97658176810AC0A185B2851097BD
:1005600021F01C96FC93EE931B976185728587E5BD
:100570009DE00E9431021092BD0E1092BC0E2D968D
:100580000FB6F894DEBF0FBECDBFCF91DF910895B7
:1005900083E090E09093B80E8093B70E0895EF92A9
:1005A0000F938130910509F09EC26F5F7F4F09F074
:1005B000A7C28AED9CE00E94FC318CED9CE060E0DB
:1005C0000E94C73887EF9CE069E04AE028E003E03A
:1005D00034E0E32E0E9480378CE39DE00E94B81B3C
:1005E00080E092E09093580D8093570D1092590D32
:1005F0001092610D1092600D10925F0D10925E0DC1
:1006000010925D0D10925C0D10925B0D10925A0DC0
:1006100087E59DE09093650D8093640D84EF96E0EF
:100620009093670D8093660D82E19BE09093690D36
:100630008093680D89E092E090936B0D80936A0D32
:1006400010926C0D1092740D1092730D1092720D29
:100650001092710D1092700D10926F0D10926E0D20
:1006600010926D0D8CE192E09093780D8093770D50
:100670001092790D1092810D1092800D10927F0DC5
:1006800010927E0D10927D0D10927C0D10927B0DBC
:1006900010927A0D8EE292E09093850D8093840DF6
:1006A0001092860D10928E0D10928D0D10928C0D61
:1006B00010928B0D10928A0D1092890D1092880D58
:1006C0001092870D81E492E09093920D8093910DAA
:1006D0001092930D10929B0D10929A0D1092990DFD
:1006E0001092980D1092970D1092960D1092950DF4
:1006F0001092940D83E592E090939F0D80939E0D50
:100700001092A00D1092A80D1092A70D1092A60D98
:100710001092A50D1092A40D1092A30D1092A20D8F
:100720001092A10D86E692E09093AC0D8093AB0DF4
:100730001092AD0D1092B50D1092B40D1092B30D34
:100740001092B20D1092B10D1092B00D1092AF0D2B
:100750001092AE0D83E792E09093B90D8093B80D9F
:100760001092BA0D1092C20D1092C10D1092C00DD0
:100770001092BF0D1092BE0D1092BD0D1092BC0DC7
:100780001092BB0D81E892E09093C60D8093C50D49
:100790001092C70D1092CF0D1092CE0D1092CD0D6C
:1007A0001092CC0D1092CB0D1092CA0D1092C90D63
:1007B0001092C80D82E992E09093D30D8093D20DF0
:1007C0001092D40D1092DC0D1092DB0D1092DA0D08
:1007D0001092D90D1092D80D1092D70D1092D60DFF
:1007E0001092D50D84EA92E09093E00D8093DF0D96
:1007F0001092E10D1092E90D1092E80D1092E70DA4
:100800001092E60D1092E50D1092E40D1092E30D9A
:100810001092E20D89EB92E09093ED0D8093EC0D38
:100820001092EE0D1092F60D1092F50D1092F40D3F
:100830001092F30D1092F20D1092F10D1092F00D36
:100840001092EF0D82EC92E09093FA0D8093F90DE7
:100850001092FB0D1092030E1092020E1092010ED8
:100860001092000E1092FF0D1092FE0D1092FD0DD1
:100870001092FC0D8DEC92E09093070E8093060E83
:100880001092080E1092100E10920F0E10920E0E73
:1008900010920D0E10920C0E10920B0E10920A0E6A
:1008A0001092090E87ED92E09093140E8093130E30
:1008B0001092150E10921D0E10921C0E10921B0E0F
:1008C00010921A0E1092190E1092180E1092170E06
:1008D0001092160E89EE92E09093210E8093200ED6
:1008E0001092220E10922A0E1092290E1092280EAB
:1008F0001092270E1092260E1092250E1092240EA2
:100900001092230E85EF92E090932E0E80932D0E81
:1009100010922F0E1092370E1092360E1092350E46
:100920001092340E1092330E1092320E1092310E3D
:100930001092300E80E093E090933B0E80933A0E3D
:1009400010923C0E1092440E1092430E1092420EE2
:100950001092410E1092400E10923F0E10923E0ED9
:1009600010923D0E8DE093E09093480E8093470ED9
:100970001092490E1092510E1092500E10924F0E7E
:1009800010924E0E10924D0E10924C0E10924B0E75
:1009900010924A0E8BE193E09093550E8093540E83
:1009A0001092560E10925E0E10925D0E10925C0E1A
:1009B00010925B0E10925A0E1092590E1092580E11
:1009C0001092570E89E293E09093620E8093610E2D
:1009D0001092630E10926B0E10926A0E1092690EB6
:1009E0001092680E1092670E1092660E1092650EAD
:1009F0001092640E8CE393E090936F0E80936E0ED2
:100A00001092700E1092780E1092770E1092760E51
:100A10001092750E1092740E1092730E1092720E48
:100A20001092710E8BE493E090937C0E80937B0E7A
:100A300010927D0E1092850E1092840E1092830EED
:100A40001092820E1092810E1092800E10927F0EE4
:100A500010927E0E8AE593E09093890E8093880E23
:100A600010928A0E1092920E1092910E1092900E89
:100A700010928F0E10928E0E10928D0E10928C0E80
:100A800010928B0E89E693E09093960E8093950ECC
:100A90001092970E10929F0E10929E0E10929D0E25
:100AA00010929C0E10929B0E10929A0E1092990E1C
:100AB0001092980E8EE693E09093A30E8093A20E70
:100AC0001092A40E1092AC0E1092AB0E1092AA0EC1
:100AD0001092A90E1092A80E1092A70E1092A60EB8
:100AE0001092A50E0DC0892B59F46F5F7F4F41F412
:100AF0008CE39DE00E94CB1B8FE19DE00E94CB1B0D
:100B00000F91EF90089580E090E06FEF7FEF0E94EB
:100B1000CF02089581E090E06FEF7FEF0E94CF0257
:100B20000895CF92DF92EF92FF920F931F93CF938E
:100B3000DF9381E20E94A73FEC018091BE0E90916D
:100B4000BF0EC817D90751F00E94DF3D6093C60E53
:100B50007093C70E8093C80E9093C90E0E94DF3D1C
:100B60002091C60E3091C70E4091C80E5091C90E0B
:100B7000621B730B840B950B2091730C3091740CDA
:100B80004091750C5091760C261737074807590786
:100B900018F0CC24DD240BC00E94DF3D6093C60E0C
:100BA0007093C70E8093C80E9093C90E6E01D093B8
:100BB000BF0EC093BE0E80E20E94A73FEC01809161
:100BC000C00E9091C10EC817D90751F00E94DF3DA9
:100BD0006093CA0E7093CB0E8093CC0E9093CD0E83
:100BE0000E94DF3D2091CA0E3091CB0E4091CC0E79
:100BF0005091CD0E621B730B840B950B2091730CDF
:100C00003091740C4091750C5091760C2617370773
:100C10004807590718F0EE24FF240BC00E94DF3D5F
:100C20006093CA0E7093CB0E8093CC0E9093CD0E32
:100C30007E01D093C10EC093C00E8FE10E94A73FEA
:100C4000EC018091C40E9091C50EC817D90751F0E0
:100C50000E94DF3D6093D20E7093D30E8093D40E2A
:100C60009093D50E0E94DF3D2091D20E3091D30E8D
:100C70004091D40E5091D50E621B730B840B950BD3
:100C80002091730C3091740C4091750C5091760C3E
:100C9000261737074807590718F000E010E00BC087
:100CA0000E94DF3D6093D20E7093D30E8093D40EDA
:100CB0009093D50E8E01D093C50EC093C40E8EE1D5
:100CC0000E94A73FEC018091C20E9091C30EC817FD
:100CD000D90751F00E94DF3D6093CE0E7093CF0E86
:100CE0008093D00E9093D10E0E94DF3D2091CE0EC6
:100CF0003091CF0E4091D00E5091D10E621B730BEC
:100D0000840B950B2091730C3091740C4091750CF1
:100D10005091760C261737074807590718F080E0DE
:100D200090E00BC00E94DF3D6093CE0E7093CF0E1B
:100D30008093D00E9093D10ECE01D093C30EC0936A
:100D4000C20E21E0C216D10419F481E290E011C074
:100D500021E0E216F10419F480E290E00AC00130CB
:100D6000110519F48FE190E004C0019739F48EE188
:100D700090E09093BD0E8093BC0E04C01092BD0E07
:100D80001092BC0EDF91CF911F910F91FF90EF90C9
:100D9000DF90CF900895EF92FF920F931F934CED49
:100DA000E42E4CE0F42EC70160E040E00E94673A78
:100DB00001E813E0C701B8010E946747C701B80105
:100DC0000E946747C701B8010E946747C701B80181
:100DD0000E946747C70160E040E00E94673A1F91A8
:100DE0000F91FF90EF9008950F931F93DF93CF9390
:100DF000CDB7DEB72D970FB6F894DEBF0FBECDBFCF
:100E0000DE011196FC018DE001900D928150E1F719
:100E100009811A818CED9CE060E042E00E94673A13
:100E2000A091570DB091580DF80105C031968C91E5
:100E3000981729F4119690819923C1F7DFC082E0B9
:100E40000930180729F48CED9CE066E973E0DCC0FA
:100E500082E00C31180729F48CED9CE06BEA73E01A
:100E6000D3C082E00E32180729F48CED9CE060ECD0
:100E700073E0CAC082E00134180729F48CED9CE0CD
:100E800065ED73E0C1C082E00335180729F48CEDED
:100E90009CE06BEE73E0B8C082E00636180729F4D8
:100EA0008CED9CE061E074E0AFC082E0033718078E
:100EB00029F48CED9CE067E174E0A6C082E0013883
:100EC000180729F48CED9CE06DE274E09DC082E08F
:100ED0000239180729F48CED9CE062E474E094C0B8
:100EE00082E0043A180721F48CED9CE0B8018CC034
:100EF00082E0093B180729F48CED9CE067E574E07B
:100F000083C082E0023C180729F48CED9CE06CE67B
:100F100074E07AC082E00D3C180729F48CED9CE067
:100F200061E874E071C082E0073D180729F48CED98
:100F30009CE066E974E068C082E0093E180729F485
:100F40008CED9CE06BEA74E05FC082E0053F18071F
:100F500029F48CED9CE060EC74E056C083E0003036
:100F6000180729F48CED9CE065ED74E04DC083E03A
:100F70000D30180729F48CED9CE06AEE74E044C053
:100F800083E00B31180729F48CED9CE06FEF74E0DF
:100F90003BC083E00932180729F48CED9CE064E142
:100FA00075E032C083E00C33180729F48CED9CE027
:100FB00069E275E029C083E00B34180729F48CED51
:100FC0009CE06EE375E020C083E00A35180729F441
:100FD0008CED9CE063E575E017C083E009361807E7
:100FE00029F48CED9CE068E675E00EC00E561340C7
:100FF00069F48CED9CE06DE775E006C00E94CB06BD
:101000008CED9CE062E975E00E9467472D960FB673
:10101000F894DEBF0FBECDBFCF91DF911F910F912E
:1010200008950E94CB068CED9CE060E041E00E94B8
:10103000673A8CED9CE067EA75E00E94674787E5B8
:101040009DE090936E0D80936D0D8AE69DE09093E8
:101050005F0D80935E0D8091750D9091760D892BBB
:1010600041F48091620D9091630D9093760D809381
:10107000750D8AE69DE09093E90D8093E80D8FED64
:101080009DE09093700D80936F0D8091EA0D90918B
:10109000EB0D892B41F48091750D9091760D909315
:1010A000EB0D8093EA0D8FED9DE09093780E809389
:1010B000770E8EE69EE09093E50D8093E40D80918F
:1010C000790E90917A0E892B41F48091EA0D9091DE
:1010D000EB0D90937A0E8093790E8EE69EE09093BE
:1010E0009F0E80939E0E85E99EE09093740E8093F0
:1010F000730E8091A00E9091A10E892B41F48091E6
:10110000790E90917A0E9093A10E8093A00E8AE6AC
:101110009DE090937B0D80937A0D87E79DE09093FF
:10112000720D8093710D8091820D9091830D892BAA
:1011300041F48091750D9091760D9093830D80937D
:10114000820D87E79DE090938E0D80938D0D84E84E
:101150009DE090937D0D80937C0D80918F0D9091FB
:10116000900D892B41F48091820D9091830D909385
:10117000900D80938F0D84E89DE090939B0D80935C
:101180009A0D81E99DE090938A0D8093890D80915D
:101190009C0D90919D0D892B41F480918F0D909124
:1011A000900D90939D0D80939C0D81E99DE090930F
:1011B000A80D8093A70D8EE99DE09093970D8093E5
:1011C000960D8091A90D9091AA0D892B41F48091E3
:1011D0009C0D90919D0D9093AA0D8093A90D8EE981
:1011E0009DE09093B50D8093B40D8BEA9DE09093B4
:1011F000A40D8093A30D8091B60D9091B70D892B0E
:1012000041F48091A90D9091AA0D9093B70D809310
:10121000B60D8BEA9DE09093C20D8093C10D88EBD3
:101220009DE09093B10D8093B00D8091C30D90918E
:10123000C40D892B41F48091B60D9091B70D909318
:10124000C40D8093C30D88EB9DE09093CF0D8093E8
:10125000CE0D85EC9DE09093BE0D8093BD0D8091E9
:10126000D00D9091D10D892B41F48091C30D9091B7
:10127000C40D9093D10D8093D00D85EC9DE090939B
:10128000DC0D8093DB0D82ED9DE09093CB0D809380
:10129000CA0D8091DD0D9091DE0D892B41F4809176
:1012A000D00D9091D10D9093DE0D8093DD0D8FEDDB
:1012B0009DE09093F00D8093EF0D8CEE9DE0909368
:1012C000E70D8093E60D8091F70D9091F80D892B35
:1012D00041F48091EA0D9091EB0D9093F80D80937D
:1012E000F70D8CEE9DE09093030E8093020E89EF34
:1012F0009DE09093F20D8093F10D8091040E9091FA
:10130000050E892B41F48091F70D9091F80D909383
:10131000050E8093040E89EF9DE09093100E80934C
:101320000F0E86E09EE09093FF0D8093FE0D80915E
:10133000110E9091120E892B41F48091040E909120
:10134000050E9093120E8093110E86E09EE090930E
:101350001D0E80931C0E83E19EE090930C0E8093F3
:101360000B0E80911E0E90911F0E892B41F48091DF
:10137000110E9091120E90931F0E80931E0E83E11A
:101380009EE090932A0E8093290E80E29EE0909337
:10139000190E8093180E80912B0E90912C0E892B94
:1013A00041F480911E0E90911F0E90932C0E80930D
:1013B0002B0E80E29EE09093370E8093360E8DE2E6
:1013C0009EE09093260E8093250E8091380E90918A
:1013D000390E892B41F480912B0E90912C0E909315
:1013E000390E8093380E8DE29EE09093440E8093E8
:1013F000430E8AE39EE09093330E8093320E8091E9
:10140000450E9091460E892B41F48091380E9091B3
:10141000390E9093460E8093450E8AE39EE090939A
:10142000510E8093500E87E49EE09093400E80937F
:101430003F0E8091520E9091530E892B41F4809172
:10144000450E9091460E9093530E8093520E87E472
:101450009EE090935E0E80935D0E84E59EE09093F7
:101460004D0E80934C0E80915F0E9091600E892BF3
:1014700041F48091520E9091530E9093600E8093A0
:101480005F0E84E59EE090936B0E80936A0E81E67A
:101490009EE090935A0E8093590E80916C0E90911D
:1014A0006D0E892B41F480915F0E9091600E9093A8
:1014B0006D0E80936C0E8EE69EE090937F0E80936F
:1014C0007E0E8BE79EE09093760E8093750E809152
:1014D000860E9091870E892B41F48091790E909120
:1014E0007A0E9093870E8093860E8BE79EE0909302
:1014F000920E8093910E88E89EE09093810E8093E7
:10150000800E8091930E9091940E892B41F48091DE
:10151000860E9091870E9093940E8093930E85E99A
:101520009EE09093A60E8093A50E82EA9EE0909393
:101530009D0E80939C0E8091AD0E9091AE0E892BE6
:1015400041F48091A00E9091A10E9093AE0E8093E5
:10155000AD0E87E59DE0BC010E94310260E273E0C0
:1015600080E090E00E94593E8CED9CE060E043E01A
:101570000E94673A8CED9CE068EB75E00E9467473B
:1015800064EF71E080E090E00E94593E0E94CB063B
:101590000895CF93DF930E94CB068EE192E161EC38
:1015A00075E00E9467478CED9CE060E043E00E949C
:1015B000673A8CED9CE065ED75E00E946747C0E0FE
:1015C000D0E08EE192E167EE75E00E94674768EE39
:1015D00073E080E090E00E94593E2196C530D1052D
:1015E00081F78EE192E169EE75E00E946A478EE133
:1015F00092E16FEE75E00E946A478CED9CE060E03E
:1016000043E00E94673A8CED9CE06DEF75E00E942C
:10161000674762E370E080E090E00E94593EDF910E
:10162000CF9108950F93CF93DF93EC010E94CB06E7
:101630008CED9CE060E040E00E94673A8CED9CE01D
:101640006FE076E00E9467478CED9CE060E041E04F
:101650000E94673A688179818CED9CE00E9467471F
:1016600068EB7BE080E090E00E94593E87E59DE0DA
:10167000BC010E943102888199818E56934071F499
:101680008EE192E161E276E00E946A4785E090E0B7
:101690009093B80E8093B70E0E94CB0688819981F3
:1016A0008D50934079F58DE261E00E94743F8BE9A3
:1016B0009FE00E94141D8BE99FE064E04FEF2FEF45
:1016C0000FEF0E945A1F8EE192E168E476E004C0B9
:1016D0008EE192E16EE576E00E946A4787EF9CE03A
:1016E00064E776E00E943237882391F38DE260E070
:1016F0000E94743F85E090E09093B80E8093B70EFF
:101700000E94CB06888199818158964099F48EE198
:1017100092E16EE876E00E946A471092B10E81E095
:101720008093B20E85E090E09093B80E8093B70E50
:101730000E94CB066881798182E06C31780779F468
:101740008EE192E10E946A4781E08093B10E85E0CC
:1017500090E09093B80E8093B70E0E94CB066881FC
:10176000798122E06E32720771F48EE192E10E947B
:101770006A471092B10E85E090E09093B80E809386
:10178000B70E0E94CB066881798182E061347807C8
:1017900079F48EE192E10E946A4781E08093B20E73
:1017A00085E090E09093B80E8093B70E0E94CB0630
:1017B0006881798122E06335720779F48EE192E1E4
:1017C0000E946A4781E08093B20E85E090E090939A
:1017D000B80E8093B70E0E94CB06888199818B51F9
:1017E000934079F58DE261E00E94743F8BE99FE0C0
:1017F0000E94141D8BE99FE064E04FEF2FEF0FEF85
:101800000E945A1F8EE192E162EA76E004C08EE106
:1018100092E16EE576E00E946A4787EF9CE068EB14
:1018200076E00E943237882391F38DE260E00E94D7
:10183000743F85E090E09093B80E8093B70E0E94BD
:10184000CB06888199818952934079F58DE261E0D8
:101850000E94743F8BE99FE00E94141D8BE99FE07A
:1018600064E04FEF2FEF0FEF0E945A1F8EE192E1DD
:1018700065EC76E004C08EE192E16EE576E00E94D0
:101880006A4787EF9CE060EE76E00E94323788235B
:1018900091F38DE260E00E94743F85E090E09093C8
:1018A000B80E8093B70E0E94CB0688819981895B20
:1018B0009240D1F481E090E09093B40E8093B30E07
:1018C0008EE192E16DEE76E00E946A4768EE73E089
:1018D00080E090E00E94593E85E090E09093B80E41
:1018E0008093B70E0E94CB0688819981825C9240DA
:1018F000D1F482E090E09093B40E8093B30E8EE129
:1019000092E167E077E00E946A4768EE73E080E06A
:1019100090E00E94593E85E090E09093B80E80934D
:10192000B70E0E94CB06888199818D5C9240D1F4DC
:1019300083E090E09093B40E8093B30E8EE192E139
:1019400063E277E00E946A4768EE73E080E090E02F
:101950000E94593E85E090E09093B80E8093B70EB8
:101960000E94CB0688819981875D9240D1F484E002
:1019700090E09093B40E8093B30E8EE192E16EE30B
:1019800077E00E946A4768EE73E080E090E00E9492
:10199000593E85E090E09093B80E8093B70E0E9478
:1019A000CB068881998186569240B9F481E0809374
:1019B000AF0E8EE192E16DE577E00E946A4768EE36
:1019C00073E080E090E00E94593E85E090E09093C3
:1019D000B80E8093B70E0E94CB06888199818357F9
:1019E0009240B1F41092AF0E8EE192E162E777E09F
:1019F0000E946A4768EE73E080E090E00E94593EE2
:101A000085E090E09093B80E8093B70E0E94CB06CD
:101A100088819981895E924061F580ED97E090938D
:101A2000B60E8093B50E8EE192E168E877E00E94F1
:101A30006A4768EE73E080E090E00E94593E85E0DE
:101A400090E09093B80E8093B70E0E94CB0686E18B
:101A500061E00E94743F6091B50E7091B60E8827C8
:101A600077FD8095982F0E94593E86E160E00E94A4
:101A7000743F88819981855F924061F580EA9FE09B
:101A80009093B60E8093B50E8EE192E16BEA77E00B
:101A90000E946A4768EE73E080E090E00E94593E41
:101AA00085E090E09093B80E8093B70E0E94CB062D
:101AB00086E161E00E94743F6091B50E7091B60EB0
:101AC000882777FD8095982F0E94593E86E160E037
:101AD0000E94743F8881998180509340A1F564E60B
:101AE00070E080E090E020E737E140E050E00E94C5
:101AF000A6477093B60E6093B50E8EE192E16EEC40
:101B000077E00E946A4768EE73E080E090E00E9410
:101B1000593E85E090E09093B80E8093B70E0E94F6
:101B2000CB0686E161E00E94743F6091B50E709132
:101B3000B60E882777FD8095982F0E94593E86E142
:101B400060E00E94743FDF91CF910F9108950E9451
:101B5000CB068CED9CE060E041E00E94673A8CEDA2
:101B60009CE060E078E00E94674787EF9CE00E947D
:101B70007F36882339F48EE192E163E771E00E94B9
:101B80001246FFCF8EE192E166E671E00E941246B6
:101B900087EF9CE062E042E00E94883587EF9CE09E
:101BA00065E00E94A63787EF9CE064E776E00E943C
:101BB000C93660E273E080E090E00E94593E8CED0F
:101BC0009CE060E043E00E94673A8CED9CE068EBAB
:101BD00075E00E94674708950F93DF93CF93CDB7C9
:101BE000DEB76B970FB6F894DEBF0FBECDBF0E9475
:101BF000CB068CED9CE060E041E00E94673A8CED02
:101C00009CE062E178E00E9467478EE192E16EE13C
:101C100078E00E9467478BE99FE065E34FEF2FEF85
:101C20000FEF0E945A1F882339F48EE192E166E398
:101C300078E00E946A47FFCF8EE192E162E578E0AA
:101C40000E946A47CE0101966BE97FE044E658E0C6
:101C500023E10E94351E8B819C8190933F0D8093E0
:101C60003E0D8D819E81AF81B8858093400D90930C
:101C7000410DA093420DB093430D89859A85AB85A4
:101C8000BC858093440D9093450DA093460DB09371
:101C9000470DA8E4BDE0FE013D968DE001900D9258
:101CA0008150E1F78A8D9B8D9093560D8093550D51
:101CB000CE0101960E94CB1B8CE39DE00E940D1C7F
:101CC000882339F48EE192E160E778E00E946A4768
:101CD000FFCF60E273E080E090E00E94593E8CED1F
:101CE0009CE060E043E00E94673A8CED9CE068EB8A
:101CF00075E00E9467476B960FB6F894DEBF0FBE83
:101D0000CDBFCF91DF910F910895EF92FF920F9386
:101D10001F935EE1E52E52E1F52EC7016AE878E0F7
:101D20000E9467470CED1CE0C80164E144E020E03C
:101D30000E94AB3A0E94CB06C80165EA78E00E9497
:101D40006747C70168EB75E00E946A471F910F91D2
:101D5000FF90EF900895DF93CF930F92CDB7DEB74A
:101D60008EE192E165EB78E00E9467470E94CB0626
:101D70008CED9CE060E041E00E94673A8CED9CE0D5
:101D800062ED78E00E9467478AED9CE00E94D234C1
:101D90008AED9CE0BE016F5F7F4F0E945D32882319
:101DA00099F08EE192E164EE78E00E9467478EE15F
:101DB00092E1698140E150E00E94E3468EE192E1C8
:101DC00067EF78E00E946A471092B90E8EE192E1C7
:101DD00068E079E00E946A478AED9CE06091B90E64
:101DE00042E02AEB3EE00E9479338EE192E166E127
:101DF00079E00E946A478AED9CE00E94933364E692
:101E000070E080E090E00E94593E8AED9CE061E045
:101E100045E00E943D33882331F08EE192E161E29A
:101E200079E00E946A478AED9CE06CE271E040ED47
:101E300057E00E941D33882331F08EE192E167E480
:101E400079E00E946A4760E273E080E090E00E94DF
:101E5000593E8EE192E168EB75E00E946A478CED95
:101E60009CE060E043E00E94673A8CED9CE068EB08
:101E700075E00E9467470F90CF91DF910895CF9250
:101E8000DF92EF92FF920F931F937EE1C72E72E1D4
:101E9000D72EC60164E779E00E9467470E94CB060F
:101EA0006CEDE62E6CE0F62EC70160E041E00E948A
:101EB000673AC70169E879E00E94674785E361E016
:101EC0000E94C13E86E161E00E94C13E8EE160E079
:101ED0000E94C13E8FE160E00E94C13E80E260E06E
:101EE0000E94C13E81E260E00E94C13E82E260E069
:101EF0000E94C13E82E060E00E94C13E82E160E05B
:101F00000E94C13E86E060E00E94C13E82E060E047
:101F10000E94C13E8CE060E00E94C13E8DE261E023
:101F20000E94C13E85E361E00E94C13E60E273E031
:101F300080E090E00E94593E08EB15E0C601B80130
:101F40000E946A47C70160E043E00E94673AC70108
:101F5000B8010E9467471F910F91FF90EF90DF90AB
:101F6000CF900895CF92DF92EF92FF920F931F933D
:101F7000DF93CF93CDB7DEB768970FB6F894DEBF87
:101F80000FBECDBF8EE192E16BE979E00E94674719
:101F90000E94CB068CED9CE060E041E00E94673A35
:101FA0008CED9CE06BEB79E00E9467470E94253145
:101FB0000E9427312B8B3C8B4D8B5E8B6F8B788FE8
:101FC000DE011196FE01739686E001900D9281501C
:101FD000E1F7E7E0CE2ED12CCC0EDD1EC60160ED80
:101FE00079E04CED59E00E942F30CE0101960E941D
:101FF000CB307B018C01C6010E94CB30E616F70680
:102000000807190768F48E01035F1F4FC80160EDD0
:1020100079E04CED59E00E942F30C8010E94A931AF
:1020200060E273E080E090E00E94593E8EE192E130
:1020300068EB75E00E946A478CED9CE060E043E04D
:102040000E94673A8CED9CE068EB75E00E94674760
:1020500068960FB6F894DEBF0FBECDBFCF91DF916B
:102060001F910F91FF90EF90DF90CF9008950F9305
:102070001F93082F803414F00FE302C087FD00E0A7
:102080008EE192E165EE79E00E946747112707FD36
:1020900010958EE192E1B8014AE050E00E94484775
:1020A00081E29FE06BE470E00E94311881E29FE0E2
:1020B000602F0E94B31881E29FE00E94F61890E022
:1020C000882309F491E0892F1F910F910895809141
:1020D0006A0C0E943710882331F48EE192E168EF98
:1020E00079E00E946A478091AF0E813091F486E1D9
:1020F00061E00E94743F60ED77E080E090E00E9434
:10210000593E86E160E00E94743F8DE260E00E94EB
:10211000743F08950F931F93682F01E21FE0C801D9
:102120000E942718C8016FE60E94B318C8010E94D8
:10213000F6181F910F910895DF92EF92FF920F937F
:102140001F93382FF62EE42ED22E01E21FE0C80195
:10215000632F0E942718C80160E70E94B318C801C6
:102160006F2D0E94B318C8016E2D0E94B318C801CC
:102170006D2D0E94B318C8010E94F6181F910F918F
:10218000FF90EF90DF900895DF92EF92FF920F9310
:102190001F93382FF62EE42ED22E01E21FE0C80145
:1021A000632F0E942718C80163E60E94B318C80174
:1021B0006F2D0E94B318C8016E2D0E94B318C8017C
:1021C0006D2D0E94B318C8010E94F6181F910F913F
:1021D000FF90EF90DF9008950F931F93CF93DF93BD
:1021E0008EE192E161E27AE00E946A470E94CB06AA
:1021F0008CED9CE060E041E00E94673A8CED9CE051
:1022000067E47AE00E94674789E361E00E94C13E8B
:1022100088E361E00E94C13E89E361E00E94743F6F
:1022200088E360E00E94743F64E670E080E090E044
:102230000E94593E81E29FE00E940B190BE61CE0D0
:10224000C0E0D0E08EE192E168E57AE00E94674765
:1022500021968EE192E1BE014AE050E00E9448479B
:102260008CED9CE060E042E00E94673A8CED9CE0DF
:1022700068E57AE00E9467478CED9CE0BE014AE089
:1022800050E00E943547F801808162E140E020E0A3
:102290000E949C1060ED77E080E090E00E94593E43
:1022A000F80180810E948A10F80181918F0160E01D
:1022B00040E020E00E94C410C830D10519F668EC57
:1022C00070E080E090E00E94593E8CED9CE06DE56E
:1022D0007AE00E9467478EE192E167E67AE00E9429
:1022E0006A47DF91CF911F910F9108956F927F926E
:1022F0008F929F92AF92BF92CF92DF92EF92FF9216
:102300000F931F93DF93CF93CDB7DEB7CA54D0405E
:102310000FB6F894DEBF0FBECDBF8091B70E90917F
:10232000B80E8430910509F434C1853091053CF430
:102330008230910581F0039709F040C607C18630CD
:10234000910509F41EC2863091050CF427C1079748
:1023500009F034C60BC30E942731DE01AB5BBF4FCF
:102360002C93FE01EA5BFF4F3083FE01E95BFF4FD8
:102370004083FE01E85BFF4F5083FE01E75BFF4FA8
:102380006083FE01E65BFF4F70839E01275F3F4F36
:10239000FD0186E00190D9010D929D018150D1F798
:1023A000BE84CD84DC84EB84FA8409858CED9CE0CA
:1023B00060E00E949E3A8EE192E16FEB7AE00E942B
:1023C000674710E00053184F8EE192E1B8014AE0F0
:1023D00050E00E94B5468EE192E16FE20E94EA452C
:1023E0008EE192E16F2D4AE050E00E94E3468EE1DB
:1023F00092E16FE20E94EA458EE192E16E2D4AE0A1
:1024000050E00E94E3468EE192E160E20E94EA45DC
:102410008EE192E16D2D4AE050E00E94E3468EE1AC
:1024200092E16AE30E94EA458EE192E16C2D4AE076
:1024300050E00E94E3468EE192E16AE30E94EA45A1
:102440008EE192E16B2D4AE050E00E94E3468CED74
:102450009CE060E041E00E94673A8CED9CE0B801AE
:102460004AE050E00E94B5468CED9CE06FE20E948D
:10247000EA458CED9CE06F2D4AE050E00E94E34677
:102480008CED9CE06FE20E94EA458CED9CE06E2DA5
:102490004AE050E00E94E3468CED9CE060E20E943E
:1024A000EA458CED9CE06D2D4AE050E00E94E34649
:1024B0008CED9CE06AE30E94EA458CED9CE06C2D7B
:1024C0004AE050E00E94E3468CED9CE06AE30E9403
:1024D000EA458CED9CE06B2D4AE050E00E94E3461B
:1024E0008AED9CE0BE016D5F7F4FAE014F5F5F4F95
:1024F0000E94AE32882309F18EE192E166ED7AE026
:102500000E9467476B817C818EE192E14AE050E056
:102510000E94C6464091BA0E5091BB0E2B813C8161
:1025200009811A818AED9CE06091B90E75E0E72E71
:10253000F12CEC0EFD1E0E9498338B819C818C52F5
:10254000914008F03BC586E090E034C58EE192E111
:102550006FED7AE00E946A478AED9CE00E94FD31AF
:1025600084E00E94E33B0E94CB068CED9CE061E09E
:102570000E949E3A8CED9CE060E040E00E94673A49
:102580008CED9CE062E975E00E94674784E090E092
:1025900011C50E9491050E944F0210C58EE192E183
:1025A00060E17BE00E946A470E942731DE01AB5B5D
:1025B000BF4F2C93FE01EA5BFF4F3083FE01E95BC6
:1025C000FF4F4083FE01E85BFF4F5083FE01E75B56
:1025D000FF4F6083FE01E65BFF4F70839E01275F24
:1025E0003F4FFD0186E00190D9010D929D01815080
:1025F000D1F78BE99FE00E94141D8BE99FE065E312
:102600004FEF2FEF0FEF0E945A1FCE010F966BE98D
:102610007FE044E658E023E10E94351E89899A89CB
:1026200090933F0D80933E0D8B899C89AD89BE8927
:102630008093400D9093410DA093420DB093430DB4
:102640008F89988DA98DBA8D8093440D9093450DF7
:10265000A093460DB093470DA8E4BDE0FE017B9624
:102660008DE001900D928150E1F788A599A5909396
:10267000560D8093550DCE010F960E94CB1B698598
:1026800070E06053784F8CE39DE04AE050E00E9498
:10269000B5468CE39DE06FE20E94EA458CE39DE045
:1026A0006A854AE050E00E94E3468CE39DE06FE2D9
:1026B0000E94EA458CE39DE06B854AE050E00E9471
:1026C000E3468CE39DE060E20E94EA458CE39DE0F6
:1026D0006C854AE050E00E94E3468CE39DE06AE3AB
:1026E0000E94EA458CE39DE06D854AE050E00E943F
:1026F000E3468CE39DE06AE30E94EA458CE39DE0BB
:102700006E854AE050E00E94E3468CE39DE063E37F
:102710007BE00E9467478CE39DE06EE47BE00E94D3
:1027200067476091B30E7091B40E8CE39DE04AE070
:1027300050E00E9435478CE39DE06EE47BE00E9410
:1027400067476091B50E7091B60E8CE39DE04AE04C
:1027500050E00E9448478CE39DE00E942C1C8CE3D3
:102760009DE00E941A1C8BE99FE00E94141D84E0EA
:1027700068EC72E041E050E00E94673B82E090E04C
:1027800019C48EE192E160E57BE00E946A470E94F5
:102790002731DE01AB5BBF4F2C93FE01EA5BFF4F9D
:1027A0003083FE01E95BFF4F4083FE01E85BFF4F92
:1027B0005083FE01E75BFF4F6083FE01E65BFF4F46
:1027C00070839E01275F3F4FFD0186E00190D90194
:1027D0000D929D018150D1F78BE99FE00E94141D5D
:1027E0008BE99FE065E34FEF2FEF0FEF0E945A1F39
:1027F000CE018A966BE97FE044E658E023E10E942F
:10280000351E8CA59DA590933F0D80933E0D8EA502
:102810009FA5A8A9B9A98093400D9093410DA093BD
:10282000420DB093430D8AA99BA9ACA9BDA9809381
:10283000440D9093450DA093460DB093470DA8E429
:10284000BDE0FE01F6968DE001900D928150E1F71A
:10285000FE01ED5BFF4F808191819093560D809337
:10286000550DCE018A960E94CB1B698570E060539E
:10287000784F8CE39DE04AE050E00E94B5468CE33F
:102880009DE06FE20E94EA458CE39DE06A854AE0A4
:1028900050E00E94E3468CE39DE06FE20E94EA452F
:1028A0008CE39DE06B854AE050E00E94E3468CE3B8
:1028B0009DE060E20E94EA458CE39DE06C854AE081
:1028C00050E00E94E3468CE39DE06AE30E94EA4503
:1028D0008CE39DE06D854AE050E00E94E3468CE386
:1028E0009DE06AE30E94EA458CE39DE06E854AE044
:1028F00050E00E94E3468CE39DE068EA7BE00E94A2
:1029000067478CE39DE063E37BE00E9467478CE3CD
:102910009DE06EE47BE00E9467476091B30E70918A
:10292000B40E8CE39DE04AE050E00E9435478CE312
:102930009DE06EE47BE00E9467476091B50E709168
:10294000B60E8CE39DE04AE050E00E9448478CE3DD
:102950009DE00E942C1C8CE39DE00E941A1C8BE9D8
:102960009FE00E94141D87E090E024C384E068EC9F
:1029700072E041E050E00E94673B8EE192E16DEC35
:102980007BE00E946A4760E070E080E090E023E135
:1029900030E040E050E00E94A6476B017C0180914E
:1029A000B30E9091B40E8330910531F4B5E0CB2E87
:1029B000D12CE12CF12C20C08130910531F4A3E021
:1029C000CA2ED12CE12CF12C17C08230910531F4A4
:1029D000F4E0CF2ED12CE12CF12C0EC0049761F441
:1029E00060E070E080E090E023E130E040E050E023
:1029F0000E94A6476B017C0160E070E080E090E0FF
:102A00002BE030E040E050E00E94A6473B0164EF3D
:102A100071E080E090E020ED37E040E050E00E947F
:102A2000A6474B015C018CE00E94A73F8091AF0E4E
:102A30008130F9F460E070E080E090E022E330E083
:102A400040E050E00E94A6476A30710594F486E1A8
:102A500061E00E94743F6091B50E7091B60E8827B8
:102A600077FD8095982F0E94593E86E160E00E9494
:102A7000743F86E00E94A73F019709F083C08091D0
:102A80007B0C882309F47BC010927B0C8EE192E1D1
:102A90006CEE7BE00E946A478EE192E160EF7BE0A2
:102AA0000E9467470E94DF3D28EE33E040E050E09F
:102AB0000E943D4B8EE192E1BA01A9012AE030E08B
:102AC0000E94A6468EE192E164E07CE00E946A47A3
:102AD00062E370E080E090E00E94593E8CED9CE063
:102AE00061E00E949E3A0E94CB068CED9CE060E083
:102AF00042E00E94673A8CED9CE069E07CE00E9435
:102B000067478091B10E813019F58DE261E00E9436
:102B1000743F8BE99FE00E94141D8BE99FE064E005
:102B20004FEF2FEF0FEF0E945A1F8EE192E168E402
:102B300076E004C08EE192E16EE576E00E946A479D
:102B400087EF9CE064E776E00E943237882391F3B8
:102B50008091720C62E140E020E00E949C1060EDE8
:102B600077E080E090E00E94593E8DE260E00E94B4
:102B7000743F85E090E09093B80E8093B70E81E0AB
:102B80008093DA0E86E00E94A73F892B09F0ADC042
:102B90008091DA0E882361F00E94DF3D6093D60EAB
:102BA0007093D70E8093D80E9093D90E1092DA0EB0
:102BB00080917B0C882309F098C00E94DF3D209112
:102BC000D60E3091D70E4091D80E5091D90E621B7F
:102BD000730B840B950B2091770C3091780C4091FE
:102BE000790C50917A0C261737074807590708F0D7
:102BF0007CC081E080937B0C8EE192E16BE17CE014
:102C00000E9467470E94DF3D2091770C3091780C3D
:102C10004091790C50917A0C621B730B840B950BCD
:102C200028EE33E040E050E00E943D4B8EE192E11F
:102C3000BA01A9012AE030E00E94A6468EE192E1A5
:102C400064E07CE00E946A4762E370E080E090E02C
:102C50000E94593E0E94CB068CED9CE061E00E94F0
:102C60009E3A8CED9CE060E041E00E94673A8CED7A
:102C70009CE06EE27CE00E9467470E94DF3D20916D
:102C8000770C3091780C4091790C50917A0C621B42
:102C9000730B840B950B28EE33E040E050E00E946C
:102CA0003D4B8CED9CE0BA01A9012AE030E00E9486
:102CB000A6468CED9CE060E042E00E94673A80917D
:102CC000720C0E948A108091720C60E040E020E05B
:102CD0000E94C41068EE73E080E090E00E94593ECC
:102CE0008CED9CE060E00E949E3A82E00E94A73F4B
:102CF000019709F08BC080917B0C882309F483C075
:102D000010927B0C8EE192E16CEE7BE00E946A47B0
:102D10008EE192E160EF7BE00E9467470E94DF3D19
:102D200028EE33E040E050E00E943D4B8EE192E11E
:102D3000BA01A9012AE030E00E94A6468EE192E1A4
:102D400064E07CE00E946A4762E370E080E090E02B
:102D50000E94593E8CED9CE061E00E949E3A0E94E8
:102D6000CB068CED9CE060E042E00E94673A8CED7F
:102D70009CE06FE37CE00E9467478091B00E813059
:102D800009F041C08091720C62E140E020E00E94B5
:102D90009C108DE261E00E94743F8BE99FE00E94ED
:102DA000141D8BE99FE064E04FEF2FEF0FEF0E94BF
:102DB0005A1F8EE192E168E476E004C08EE192E170
:102DC0006EE576E00E946A4787EF9CE064E776E074
:102DD0000E943237882391F38DE260E00E94743FB5
:102DE00085E090E09093B80E8093B70E0E94CB06DA
:102DF0008091720C0E948A108091720C60E040E019
:102E000020E00E94C41081E08093DA0E82E00E94EC
:102E1000A73F892B09F0A2C08091DA0E882361F0C8
:102E20000E94DF3D6093D60E7093D70E8093D80E2C
:102E30009093D90E1092DA0E80917B0C882309F0C2
:102E40008DC00E94DF3D2091D60E3091D70E40916B
:102E5000D80E5091D90E621B730B840B950B2091E9
:102E6000770C3091780C4091790C50917A0C2617A0
:102E700037074807590708F071C081E080937B0C41
:102E80008EE192E161E57CE00E9467470E94DF3DB0
:102E90002091770C3091780C4091790C50917A0CFC
:102EA000621B730B840B950B28EE33E040E050E07F
:102EB0000E943D4B8EE192E1BA01A9012AE030E087
:102EC0000E94A6468EE192E164E07CE00E946A479F
:102ED00062E370E080E090E00E94593E0E94CB06E1
:102EE0008CED9CE061E00E949E3A8CED9CE060E0FD
:102EF00041E00E94673A8CED9CE06EE27CE00E942B
:102F000067470E94DF3D2091770C3091780C40910B
:102F1000790C50917A0C621B730B840B950B28EE85
:102F200033E040E050E00E943D4B8CED9CE0BA0164
:102F3000A9012AE030E00E94A6468CED9CE060E00A
:102F400042E00E94673A68EE73E080E090E00E9401
:102F5000593E8CED9CE060E00E949E3A8301055949
:102F6000134FF80180816C2D40E020E00E949C10FE
:102F7000C501B4010E94593ED8018C910E948A106B
:102F8000F801808160E040E020E00E94C4108AEDFA
:102F90009CE0BE016F5F7F4FAE014D5F5F4F0E94AF
:102FA000AE32882359F089819A818D52914030F058
:102FB00085E090E09093B80E8093B70EC65BDF4F2C
:102FC0000FB6F894DEBF0FBECDBFCF91DF911F913A
:102FD0000F91FF90EF90DF90CF90BF90AF909F90B8
:102FE0008F907F906F9008958EE192E140E05BE4D6
:102FF00060E070E00E944B4381E08093B00E10923D
:10300000B10E8093B20E1092AF0E0E94850E0E94F8
:10301000B20F0E94EC100E943F0F0E94C90A0E944A
:10302000AB0E0E94EC0D0E94A70D0E9411080E9499
:10303000671084E068EC72E041E050E00E94673B7A
:1030400082E090E09093B80E8093B70E089581E0EF
:103050008093200F6093FD0E10921E0F10921F0F91
:10306000089581E08093200F6093FD0E10921E0F53
:1030700010921F0F08952091FC0E30E08091FB0EFE
:10308000281B3109C90108954091FB0E8091FC0E67
:10309000481718F02FEF3FEF0AC0E42FF0E0E55299
:1030A000F14F8081282F30E04F5F4093FB0EC90124
:1030B0000895E091FB0E8091FC0EE81718F0EFEFF9
:1030C000FFEF06C0F0E0E552F14F8081E82FF0E01D
:1030D000CF01089508951092240F1092230F88EEC7
:1030E00093E0A0E0B0E08093250F9093260FA0938B
:1030F000270FB093280F8AE89CE09093220F8093CB
:10310000210F0895CF92DF92EF92FF920F931F93BA
:10311000CF93DF937C016B018A018091200F88237C
:10312000A1F0C0E0D0E00DC0D701ED91FC91D60137
:10313000AC0FBD1F0190F081E02DC7016C91199576
:103140002196C017D10780F304C0CB01642F0E94E1
:10315000B419C801DF91CF911F910F91FF90EF90AB
:10316000DF90CF900895DF93CF930F92CDB7DEB766
:10317000FC0169838091200F8823C9F080911F0F83
:10318000803238F081E090E09383828320E030E069
:1031900015C080911E0FE82FF0E0E250F14F9981A9
:1031A00090838F5F80931E0F80931F0F05C0CE0109
:1031B000019661E00E94B41921E030E0C9010F904E
:1031C000CF91DF9108950F93062F8091FD0E6EEF42
:1031D0007EE040911F0F21E00E945F1910921E0FA8
:1031E00010921F0F1092200F0F91089561E00E941E
:1031F000E3180895413208F040E2862F6BED7EE03F
:103200000E9416191092FB0E8093FC0E089521E087
:103210000E94FA1808951092FB0E1092FC0E109264
:103220001E0F10921F0F0E94641B0895382F413209
:1032300010F040E042C080912D0F8823E1F791E02B
:1032400090932D0F20932F0F8FEF80939A0F109252
:10325000550F41504093560F4F5F90932E0F809122
:103260002E0F330F832B80932E0F8091300F8130E0
:1032700041F41092300F80912E0F8093BB0085ECAB
:1032800001C085EE8093BC0080912D0F8130E1F369
:103290008091550F841710F44091550F20E030E0D5
:1032A0000AC0FB01E20FF31FD901AB5CB04F8C9158
:1032B00080832F5F3F4F2417A0F3842F08950F932F
:1032C0001F93582F122F413210F081E04AC0809195
:1032D0002D0F8823E1F782E080932D0F00932F0FAD
:1032E0008FEF80939A0F1092550F4093560FA5E3DE
:1032F000BFE0FB0102C081918D938E2F861B841746
:10330000D0F310922E0F80912E0F550F852B8093A6
:103310002E0F8091300F813041F41092300F809148
:103320002E0F8093BB0085EC01C085EE8093BC001E
:10333000112321F080912D0F8230E1F380919A0FBB
:103340008F3F11F480E00DC080919A0F803211F40C
:1033500082E007C080919A0F803311F084E001C0B1
:1033600083E01F910F910895482F613210F081E0A2
:10337000089580912D0F843011F082E008956093BC
:10338000780FA7E5BFE0842F9C01F90102C081916D
:103390008D938E2F841B8617D0F380E008951F92A3
:1033A0000F920FB60F920BB60F9211242F933F93EB
:1033B0004F935F936F937F938F939F93AF93BF933D
:1033C000EF93FF938091B90090E0887F90708036F2
:1033D000910509F4F2C081369105CCF5883291054A
:1033E00009F47BC089329105B4F48031910509F468
:1033F0006FC0813191053CF4009709F447C10897EB
:1034000009F04FC165C08831910509F466C0809705
:1034100009F047C182C08034910509F4A4C0813409
:10342000910544F48033910509F482C0C89709F0EE
:1034300038C189C08035910509F489C08835910566
:1034400009F496C08834910509F02BC1AEC08839C3
:10345000910509F413C189399105ECF48837910578
:1034600009F4ABC0893791054CF48836910509F40D
:10347000A4C08037910509F014C19FC08838910518
:1034800009F4FCC08039910509F49DC0803891058C
:1034900009F007C198C0803B910509F4C6C0813B83
:1034A00091054CF4803A910509F49FC0883A910542
:1034B00009F0F7C0BAC0803C910509F4E3C0883C2C
:1034C000910509F4DFC0883B910509F0EAC0C2C04C
:1034D00080912E0F8093BB00CFC09091550F8091AB
:1034E000560F981768F49091550FE92FF0E0EB5CB8
:1034F000F04F80818093BB009F5F9093550FBCC0BD
:1035000080912F0F882309F44BC085ED8093BC0078
:103510008091BC0084FDFCCFC2C080E280939A0FF2
:1035200085ED8093BC008091BC0084FDFCCFB7C0CA
:1035300080E380939A0F85ED8093BC008091BC005E
:1035400084FDFCCFACC088E380939A0F9BC0809130
:10355000550F9091BB00E82FF0E0EB5CF04F9083AB
:103560008F5F8093550F9091550F8091560F82C0B9
:103570008091550F9091BB00E82FF0E0EB5CF04F8D
:1035800090838F5F8093550F80912F0F882341F098
:1035900085ED8093BC008091BC0084FDFCCF7FC092
:1035A00081E08093300F84EA6EC085ED8093BC008B
:1035B0008091BC0084FDFCCF72C083E080932D0F0E
:1035C0001092990F59C08091990F803208F056C01F
:1035D0008091990F9091BB00E82FF0E0E758F04FF1
:1035E00090838F5F8093990F47C08091990F8032AD
:1035F00030F4E091990FF0E0E758F04F108285ED3C
:103600008093BC008091BC0084FDFCCF10922D0FF4
:103610006091990FE091330FF091340F89E79FE0AB
:1036200070E019951092990F2DC084E080932D0FB2
:103630001092770F1092780FE091310FF091320FC6
:1036400019958091780F882329F481E08093780F71
:103650001092570F9091770FE92FF0E0E95AF04F51
:1036600080818093BB009F5F9093770F9091770F3D
:103670008091780F981710F485EC01C085E880934D
:10368000BC000FC085EC8093BC0009C010929A0F5B
:1036900085ED8093BC008091BC0084FDFCCF10922E
:1036A0002D0FFF91EF91BF91AF919F918F917F91DE
:1036B0006F915F914F913F912F910F900BBE0F90A3
:1036C0000FBE0F901F90189510922D0F81E08093E0
:1036D0002F0F1092300F84E161E00E94743F85E16A
:1036E00061E00E94743FE9EBF0E080818E7F80838F
:1036F00080818D7F808388E48093B80085E4809307
:10370000BC000895882319F48CB5806202C08CB582
:103710008F7D8CBD08959CB5937F982B9CBD08959B
:103720002CB5382F33702C7F322B3CBD2DB590E05B
:10373000959587959595879581702E7F822B8DBD68
:10374000089585E361E00E94743F85E361E00E9493
:10375000C13E8CB580618CBD8CB580648CBD84E32A
:1037600061E00E94C13E83E361E00E94C13E089592
:10377000FC011382128288EE93E0A0E0B0E0848323
:103780009583A683B7838AE99CE091838083128E18
:10379000118E14860895FC018AE99CE09183808350
:1037A0000895DF93CF930F92CDB7DEB7FC01698305
:1037B000A081B18112962D913C911397BE016F5F4C
:1037C0007F4F41E050E0F90119950F90CF91DF91C3
:1037D0000895DC015996ED91FC915A97309719F4B0
:1037E00020E030E018C023893489458956898285D4
:1037F0009385A485B585281B390B4A0B5B0B2030BC
:10380000B0E83B07B0E04B07B0E05B0720F02FEFDC
:103810003FE740E050E0C9010895DC015996ED9181
:10382000FC915A97309711F480E0089585818111B9
:1038300081E00895CF93DF93EC01898D9A8D0097F5
:1038400041F00E94C224898D9A8D0E94B6401A8E42
:10385000198EDF91CF910895FC01818D928D009793
:1038600011F00E9478240895FC01818D928D0097BB
:1038700019F420E030E003C00E9499259C01C901A1
:103880000895DF93CF930F92CDB7DEB7FC01818D02
:10389000928D009749F0BE016F5F7F4F41E050E08D
:1038A0000E949925019719F02FEF3FEF03C08981FE
:1038B000282F30E0C9010F90CF91DF910895EF924A
:1038C000FF920F931F93DF93CF930F92CDB7DEB785
:1038D0007C01DC0159968D919C915A97009719F4BF
:1038E00000E010E01FC0BE016F5F7F4F41E050E07D
:1038F0000E949925019719F00FEF1FEF13C08981DE
:10390000082F10E0D7015996ED91FC915A97428506
:103910005385648575854150504060407040CF01AB
:103920000E94B223C8010F90CF91DF911F910F9198
:10393000FF90EF900895CF93DF93EC01E98DFA8D1E
:10394000309761F013821282CF010E94DE279C0122
:10395000E98DFA8D82819381892B31F081E090E0AD
:103960009B838A8320E030E0C901DF91CF910895E5
:10397000EF92FF920F931F93CF93DF93EC01F62EFC
:10398000E72E8A011B821A8288EE93E0A0E0B0E065
:103990008C839D83AE83BF838AE99CE0998388836F
:1039A0008DE190E00E9419409A8F898F009791F0E5
:1039B000DC018F2D9E2D9C01F9018DE101900D926E
:1039C0008150E1F7CE010C96B8014CE050E00E9426
:1039D0002202188EDF91CF911F910F91FF90EF90EF
:1039E00008951092A00F1092A10F1092A40F1092A0
:1039F000A60F82E090E0A0E0B0E08093A80F909343
:103A0000A90FA093AA0FB093AB0F1092BF0F109203
:103A1000C90F1092C80F8AEA9CE09093C70F809359
:103A2000C60F1092CB0F08958B960E94C224089562
:103A30002F923F924F925F926F927F928F929F92BE
:103A4000AF92BF92CF92DF92EF92FF920F931F93AC
:103A5000DF93CF93CDB7DEB7C754D0400FB6F894FD
:103A6000DEBF0FBECDBF582E492EFB013A01190112
:103A700085A596A5998B888B2AEA3CE03F872E87FF
:103A800087A58A8B80A98B8B81A992A9A3A9B4A9A8
:103A90008C8B9D8BAE8BBF8B85A996A9A7A9B0AD4A
:103AA000888F998FAA8FBB8F81AD92ADA3ADB4AD36
:103AB0008C8F9D8FAE8FBF8F85AD88A3FE96819131
:103AC0009191A191B19189A39AA3ABA3BCA3819138
:103AD0009191A191B1918DA39EA3AFA3B8A780812D
:103AE00091819AA789A71EA61DA63CA72BA718AA55
:103AF0007A018E01025F1F4F3BE2A32EB12CAC0E68
:103B0000BD1E4E010894811C911C35C0D7018C91BB
:103B10008F3221F40894E11CF11C2DC0422F4E1964
:103B20004D3008F04CE0C42EDD24C401B701A601DD
:103B30000E942202F401EC0DFD1D1082C5010E94BD
:103B4000C224C501B801A40121E00E940A2A8823E9
:103B500051F4E52DF42D138212828AEA9CE09183C0
:103B60008083158266C0EC0CFD1CC8010E94C22433
:103B7000C50158018C01C7016FE270E00E94170275
:103B80009C01009719F6E618F708F101F182E0822E
:103B9000E52DF42DD80112968D919C911397938366
:103BA00082838AEA9CE09183808314968C91149797
:103BB000848315968C911597858316962D913D914A
:103BC0004D915C91199726833783408751871A96C8
:103BD0002D913D914D915C911D97228733874487AC
:103BE00055871E962D913D914D915C915197268759
:103BF0003787408B518B52968C915297828B53967C
:103C00002D913D914D915C915697238B348B458B33
:103C1000568B57962D913D914D915C915A97278BDC
:103C2000308F418F528F5B968D919C915C97948FD2
:103C3000838F852D942DC95BDF4F0FB6F894DEBFBF
:103C40000FBECDBFCF91DF911F910F91FF90EF90ED
:103C5000DF90CF90BF90AF909F908F907F906F90AC
:103C60005F904F903F902F9008959F92AF92BF9298
:103C7000CF92DF92EF92FF920F931F93DF93CF9338
:103C8000CDB7DEB7C657D0400FB6F894DEBF0FBE33
:103C9000CDBFC82E992E8A01D22E43E0A42EB12C7E
:103CA000AC0EBD1EC501A8019E012F5F3F4F0E94B3
:103CB000181DE980FA80E00EF11EF70180814AEAC2
:103CC0005CE02885882309F03FC08D819E819BA3FD
:103CD0008AA359A348A38F818CA32DA389859A8594
:103CE000AB85BC858EA39FA3A8A7B9A78D859E850C
:103CF000AF85B8898AA79BA7ACA7BDA789899A89F0
:103D0000AB89BC898EA79FA7A8ABB9AB8D898AABBD
:103D10008E899F89A88DB98D8BAB9CABADABBEABAB
:103D20008A8D9B8DAC8DBD8D8FAB98AFA9AFBAAF8F
:103D30008E8D9F8D9CAF8BAF8C2D992DBE01605EBB
:103D40007F4F44E65CE09FC0FE01FF961182108227
:103D50005EAF4DAFFE01EE5BFF4F10822223A9F054
:103D60002250CE01CD96223048F466EC7FE0A701C8
:103D70002D2D0E940A2A882381F407C0B501A701CE
:103D80002D2D0E940A2A882329F48C2D992D0E941A
:103D9000B81B7BC0C5010E94C224F6E0DF2259F0A7
:103DA000FE01E05BFF4F4081518162817381CE0152
:103DB000CD960E94B2239E01265A3F4FFE01FF96E8
:103DC00080819181F901938382838AEA9CE09183C7
:103DD0008083FE01EF5BFF4F8081F9018483FE0148
:103DE000EE5BFF4F8081F9018583FE01ED5BFF4FA4
:103DF00080819181A281B381F90186839783A08715
:103E0000B187FE01E95BFF4F80819181A281B3817F
:103E1000F90182879387A487B587FE01E55BFF4F91
:103E200080819181A281B381F90186879787A08BD8
:103E3000B18BFE01E15BFF4F8081F901828BFE01B6
:103E4000E05BFF4F80819181A281B381F901838B77
:103E5000948BA58BB68BFE01EC5AFF4F808191812C
:103E6000A281B381F901878B908FA18FB28FFE0160
:103E7000E85AFF4F80819181F901948F838F8C2DB7
:103E8000992DB901A7010E94B81C8C2D992DCA58F3
:103E9000DF4F0FB6F894DEBF0FBECDBFCF91DF91DD
:103EA0001F910F91FF90EF90DF90CF90BF90AF9058
:103EB0009F900895EF920F931F93CF93DF93EC01A0
:103EC000362F542F722FE02E61E0432F252F072F1E
:103ED0000E944D228823D1F08E01035F1F4FC8013D
:103EE000BE0141E00E94AB2B882339F4C801BE011A
:103EF00040E00E94AB2B882349F0CE018B96B8019D
:103F00000E94F826882319F081E001C080E0DF914B
:103F1000CF911F910F91EF900895382F8091E50F69
:103F20008F3F31F43EBD0DB407FEFDCF8EB5089531
:103F3000F894A091E60FB091E70F5091E80F252F6C
:103F40002095E091E90FF091EA0F4091EB0F642F7B
:103F5000609590E08C9182238C9337FF03C0808121
:103F6000842B02C08081862380838C91852B8C9347
:103F70009F5F983011F0330FEDCF0000000000007C
:103F800000008C9128232C93789408958091E50F5C
:103F90008F3F31F48EBD0DB407FEFDCF2EB530C07E
:103FA000F894E091E90FF091EA0F80819091EB0F86
:103FB000892B8083E091E60FF091E70F6091E80F85
:103FC000A091EC0FB091ED0F8091EE0F482F50E0D3
:103FD000762F709530E020E08081862B8083220F41
:103FE0008C9190E084239523892B09F021608081B6
:103FF00087238083000000003F5F383069F77894A2
:10400000822F08950F931F93CF93DF938B010E940C
:10401000DF3DEB010E94C61F8F3F11F481E008C015
:104020000E94DF3D6C1B7D0B6017710798F380E0E9
:10403000DF91CF911F910F910895FC01673020F01F
:1040400086E1858380E008956330B9F0643028F418
:10405000613069F0623070F407C06530A1F06530FE
:1040600078F06630A9F412C084E090E011C080E0DE
:1040700090E00EC085E090E00BC081E090E008C0C9
:1040800086E090E005C082E090E002C083E090E02E
:104090000E94901B81E00895FC01848160E00E94F1
:1040A000743F0895FC01848161E00E94743F08958B
:1040B000CF92DF92EF92FF920F931F93CF93DF93F4
:1040C0007C016A01FC018485882319F40FEF1FEF3E
:1040D00030C000E010E040E050E0212F332727FD02
:1040E0003A95F601E40FF51F808190E028273927E3
:1040F0003070C901F4E095958795FA95E1F782272C
:104100009327102F0027082719279C01322F2227D9
:104110003295307F0227132725E0880F991F2A95B3
:10412000E1F7082719274F5F5F4FF2E040305F0744
:10413000A1F6862F0E948D1FC0E0D0E0F601EC0FA3
:10414000FD1F80810E948D1F219682E0C030D8071C
:10415000A9F7812F992787FD9A950E948D1F802F9F
:104160000E948D1F0E94C61FF70182878F718530C4
:1041700011F481E007C081E1F7018583C7010E9446
:10418000522080E0DF91CF911F910F91FF90EF902F
:10419000DF90CF9008950F931F93CF93DF93EC019F
:1041A0000E94DF3D8B0109C00E94DF3D601B710B47
:1041B0006D52714010F08FE00AC00E94C61F8A87BE
:1041C0008F3F91F38E3F11F481E006C08DE08D8327
:1041D000CE010E94522080E0DF91CF911F910F917C
:1041E0000895CF93DF93EC018E81882319F40FC0DB
:1041F0000E94C61F8F819885019698878F830197AB
:1042000082509240A8F3CE010E9452201E82DF917C
:10421000CF910895DF92EF92FF920F931F93CF9368
:10422000DF93EC01D62E79018A010E94F120CE01A4
:104230000E944C20CE016CE271E00E9402208D2D84
:1042400080640E948D1F812F9927AA27BB270E9477
:104250008D1FC801AA27BB270E948D1FBB27A12F36
:10426000902F8F2D0E948D1F8E2D0E948D1FDD207F
:1042700011F485E906C088E0D81611F487E801C07A
:104280008FEF0E948D1F10E00E94C61F8A8787FF54
:1042900002C01150C9F7DF91CF911F910F91FF908C
:1042A000EF90DF900895CF92DF92EF92FF920F93FD
:1042B0001F93CF93DF93EC017A018B0169014115C4
:1042C00051056105710511F482E133C08B8583309E
:1042D00039F039E0EE0CFF1C001F111F3A95D1F7A1
:1042E000CE0168E1A80197010E940A21882311F0FC
:1042F00084E01FC0CE016EEFA6010E9458208823E3
:10430000C9F0CE0168E572E00E940220882311F412
:1043100085E10FC0CE016DE020E030E040E050E0EC
:104320000E940A21882321F40E94C61F882379F065
:1043300084E18D83CE010E94522080E0DF91CF91F5
:104340001F910F91FF90EF90DF90CF900895CE01D5
:104350000E94522081E0F2CF6F927F928F929F92C3
:10436000AF92BF92CF92DF92EF92FF920F931F9383
:10437000CF93DF93EC015A016B013901480101151C
:10438000110509F46AC0C801820F931F8150924041
:1043900008F05EC08E81882371F088819981AA819E
:1043A000BB81481759076A077B0729F48F819885D5
:1043B0006816790650F5A882B982CA82DB828B859D
:1043C000833039F0E9E0AA0CBB1CCC1CDD1CEA955B
:1043D000D1F7CE0161E1A60195010E940A2188234F
:1043E00019F083E08D8334C0CE010E94CB20882356
:1043F00079F118861F8281E08E8307C00E94C61F54
:104400008F819885019698878F838F8198858615EF
:104410009705A0F300E010E008C00E94C61FF70156
:10442000E00FF11F80830F5F1F4F08151905A8F3D8
:104430002F813885280D391D38872F83898588235A
:1044400019F02050324048F0CE010E94F12005C002
:10445000CE010E94522080E001C081E0DF91CF9127
:104460001F910F91FF90EF90DF90CF90BF90AF9092
:104470009F908F907F906F900895EF92FF920F938F
:104480001F93790120E030E000E012E00E94AC21AF
:104490001F910F91FF90EF900895BF92CF92DF92FE
:1044A000EF92FF920F931F93CF93DF93EC01B62E01
:1044B0001E2D1B8619861E821D821C864C8320930E
:1044C000EF0F0093F00FE092E50F0E94DF3D6B01CC
:1044D0008C8161E00E94C13ECE010E9452201F3FAC
:1044E00009F462C08091F00F60E00E94C13E8091AB
:1044F000EF0F61E00E94C13E8091E50F61E00E94F4
:10450000C13EE091E50F2E2F332727FD3095F901AD
:10451000E95EFD4FE491F0E0EE0FFF1FED51FE4F1D
:10452000859194919093E70F8093E60F235A3D4F26
:10453000F90184918093E80FE091EF0F2E2F33273C
:1045400027FD3095F901E95EFD4FE491F0E0EE0FB3
:10455000FF1FED51FE4F859194919093EA0F809348
:10456000E90F235A3D4FF90184918093EB0FE091BD
:10457000F00F2E2F332727FD3095F901E95EFD4F0F
:10458000E491F0E0EE0FFF1FE350FE4F8591949110
:104590009093ED0F8093EC0F235A3D4FF9018491D6
:1045A0008093EE0F10E006C00E94A11B83E00E94E2
:1045B000901BF8CF8FEF0E948D1F1F5F1A30D1F72D
:1045C000CE010E944C2009C00E94DF3D6C197D097C
:1045D000615D774010F081E05AC0CE0160E020E0DC
:1045E00030E040E050E00E940A21182F8A87813095
:1045F00059F7CE0168E02AEA31E040E050E00E943D
:104600000A2182FF02C01B870DC010E00E94C61F56
:104610008A871F5F1430D1F78A3A11F082E037C0E1
:1046200082E08B878B85823021F0EE24FF24870186
:104630000FC0E12CF12C012DF0E41F2F09C00E94C6
:10464000DF3D6C197D09615D774010F088E01FC087
:10465000CE0167E320E030E040E050E00E940A2114
:10466000CE0169E2A80197010E940A218A87882366
:1046700031F78B858230F1F4CE016AE320E030E03F
:1046800040E050E00E940A21882339F086E08D83C3
:10469000CE010E94522080E01AC00E94C61F807C7A
:1046A000803C11F483E08B870E94C61F0E94C61FC6
:1046B0000E94C61FCE010E9452208091E50F8F3FBD
:1046C00011F081E004C0CE016B2D0E941D20DF910E
:1046D000CF911F910F91FF90EF90DF90CF90BF90FF
:1046E0000895CF93DF93EC01DB0180E090E020E2BE
:1046F000FD01E80FF91F208301968B309105C1F76A
:1047000057E040E021C02E3219F08DEA91E007C059
:104710005A3019F15AE048E017C03217F1F0FC01A5
:10472000019634913323C9F75417B8F02132A8F019
:104730002F3798F4822F81568A3108F42052FD01D8
:10474000E40FF11D20834F5F29912223E1F690E0D1
:104750008C91803219F091E001C090E0892FDF91B7
:10476000CF9108956F927F928F929F92AF92BF9256
:10477000CF92DF92EF92FF920F931F93CF93DF932D
:10478000EC017A018B012D81222309F480C08B89F1
:104790009C89AD89BE8984179507A607B70708F4D9
:1047A00076C085C0E114F1040105110549F41E82AB
:1047B0001F82188619861A861B861C861D8665C070
:1047C0002A853B854C855D85EB8DFC8D858590E04C
:1047D0000996215030404040504039014A01082E8E
:1047E00004C096948794779467940A94D2F72F5FC5
:1047F0003F4F4F4F5F4F0894E108F108010911093D
:104800005701680104C0D694C794B794A7948A95B9
:10481000D2F70894E11CF11C011D111DA614B70468
:10482000C804D90428F0211531054105510549F482
:104830008F89988DA98DBA8D8E839F83A887B9871C
:1048400016C0A618B708C808D90811C04E815F81E4
:10485000688579858B8D9C8D94010E948C2D0894A0
:10486000A108B108C108D108882331F410C086E03E
:10487000882E912C8C0E9D1EA114B104C104D1046C
:1048800029F7EA86FB860C871D8781E001C080E05E
:10489000DF91CF911F910F91FF90EF90DF90CF901C
:1048A000BF90AF909F908F907F906F90089522302F
:1048B00009F078CFE6CFCF93DF93EC01462F6E85DA
:1048C0007F85888999890E94702B882319F420E0BC
:1048D00030E00AC08A89282F30E095E0220F331F8C
:1048E0009A95E1F72D50304FC901DF91CF9108958E
:1048F0000F931F93CF93DF938C01FC018581882355
:10490000D9F1848187FF35C0C80161E00E945B2432
:10491000EC01009789F1F8018581823040F48389A8
:104920009489A589B6898C8F9D8FAE8FBF8FF80132
:104930008789908D9B8F8A8F8789908DA18DB28D6D
:10494000CD01AA27BB279D8B8C8BE091F10FF091B5
:10495000F20F309751F0BE016A5E7F4FCE0148964C
:104960001995888D998D9B8B8A8BF80184818F771F
:1049700084830E94112B01C080E0DF91CF911F91B1
:104980000F910895CF93DF93EC010E947824882340
:1049900011F01D8281E0DF91CF9108956F927F9297
:1049A0008F929F92AF92BF92CF92DF92EF92FF923F
:1049B0000F931F93DF93CF9300D00F92CDB7DEB745
:1049C0007C015A016B01DC0115968C9115978130A1
:1049D00009F08FC014968C9181FF8BC09EC0009708
:1049E000A105B10511F481E085C0F70162847384EB
:1049F00084849584C701B601A5010E94B22388234F
:104A000009F477C0D7015B968D919C915C97A114B6
:104A1000B104C104D10489F457964D915D916D9113
:104A20007C915A970E94FF2D882309F462C0F701F8
:104A3000178A108E118E128E3DC0D70116964D9199
:104A40005D916D917C9119979E012F5F3F4F0E9460
:104A50008C2D882309F44DC0D7015B96ED91FC9114
:104A60005C9749815A816B817C818789803129F0EB
:104A700088EF9FEFAFEFBFE004C088EF9FEFA0E0AB
:104A8000B0E0481759076A077B07A0F4CF010E94DE
:104A9000FF2D882371F1F70146815781608571856B
:104AA000838D948D0FEF1FEF2FEF3FE00E94F02CCE
:104AB0008823F9F0D7015396AD92BD92CD92DC9246
:104AC000569714968C911497806814968C93C7010E
:104AD0000E947824882369F0B601A5016A147B043A
:104AE0008C049D0410F4B401A301C7010E94B223F9
:104AF00001C080E00F900F900F900F90CF91DF9149
:104B00001F910F91FF90EF90DF90CF90BF90AF90EB
:104B10009F908F907F906F900895F701838994897B
:104B2000A589B68984179507A607B70708F057CF58
:104B3000E0CF2F923F924F925F926F927F928F922F
:104B40009F92AF92BF92CF92DF92EF92FF920F931C
:104B50001F93CF93DF93EC012A018D81882309F401
:104B6000C6C08C8180FFC3C0D8C025014E185F0825
:104B70004B0176E0272E312C2C0E3D1E3201B1C0A8
:104B80002A853B854C855D856FEFA62E61E0B62EAC
:104B9000A222B3228D8179018A0199E016950795A9
:104BA000F794E7949A95D1F7EB8DFC8D823049F418
:104BB000428D538D648D758D4E0D5F1D601F711F6D
:104BC0003FC0D480DA94DE20A114B104D9F4DD20F2
:104BD000C9F4211531054105510549F48F89988D96
:104BE000A98DBA8D8E839F83A887B9870BC04E810C
:104BF0005F8168857985CF0191010E948C2D882382
:104C000009F475C0EB8DFC8D4E815F8168857985D7
:104C10004250504060407040058404C0440F551F0E
:104C2000661F771F0A94D2F786859785A089B18978
:104C3000480F591F6A1F7B1F4D0D511D611D711DAE
:104C400080E092E08A199B0963018615970508F4B4
:104C50006C018C8186FD06C080E0C81682E0D80613
:104C600009F073C080917C0C90917D0CA0917E0C1A
:104C7000B0917F0C481759076A077B0709F465C094
:104C80008091F3119091F4119501860174010E94B5
:104C9000AC21882361F18C0C9D1C12C095012D5014
:104CA000304FA9014C0D5D1DD401F90102C0819165
:104CB0008D93E417F507D9F7E21BF30B8E0E9F1EB9
:104CC000960140E050E08A859B85AC85BD85820FCA
:104CD000931FA41FB51F8A879B87AC87BD876C185D
:104CE0007D086114710409F04BCFA20102C04FEF9F
:104CF0005FEFCA01DF91CF911F910F91FF90EF906D
:104D0000DF90CF90BF90AF909F908F907F906F90EB
:104D10005F904F903F902F900895AB88BC88CD88CE
:104D2000DE88EA84FB840C851D859A0140E050E012
:104D3000D601C5018E199F09A00BB10B82179307ED
:104D4000A407B50708F411CF13CFCB01BA0140E097
:104D50000E94702B882309F0A1CFC9CFCF92DF9298
:104D6000EF92FF920F931F93DF93CF930F92CDB7E4
:104D7000DEB76C01FC018581823070F0E284F3843F
:104D800004851585C601BE016F5F7F4F41E050E08D
:104D90000E949925019769F020E030E0C9010F9049
:104DA000CF91DF911F910F91FF90EF90DF90CF9007
:104DB0000895F60182859385A485B5854F96A11D3A
:104DC000B11D82879387A487B587F5E0169507956F
:104DD000F794E794FA95D1F78E2D8F70282F30E055
:104DE000E5E0220F331FEA95E1F72D50304FD6CF83
:104DF0000F931F93CF93DF93EC018B018D81882359
:104E000009F041C0FB0187898031B1F482E08D83D4
:104E10001F8A188E198E1A8E808D918DA0E0B0E0B9
:104E200045E0880F991FAA1FBB1F4A95D1F78B8BAE
:104E30009C8BAD8BBE8B15C0803229F583E08D83B2
:104E4000FB01428D538D648D758D4F8B588F698F0B
:104E50007A8F9E012D5E3F4FC8010E94582E8823F5
:104E600091F01C8F0B8F81E08C831E821F8218862D
:104E700019861A861B861C861D861E861F86188A22
:104E8000198A1A8A01C080E0DF91CF911F910F919A
:104E900008951F93CF93DF93EC01142FE62FF0E0DA
:104EA00075E0EE0FFF1F7A95E1F7ED50F04F838527
:104EB000817121F0842F827409F054C06A8B809133
:104EC0007C0C90917D0CA0917E0CB0917F0C8E8714
:104ED0009F87A88BB98B84899589A0E0B0E0BC013D
:104EE00055274427828D938DA0E0B0E0482B592BA5
:104EF0006A2B7B2B4F8B588F698F7A8F838590E03D
:104F000088719070009751F4848D958DA68DB78D22
:104F10008B8B9C8BAD8BBE8B81E00CC0409711F5C9
:104F20009E012D5E3F4F8B8D9C8D0E94582E8823B5
:104F3000C9F084E08D83812F8F708C831E821F8245
:104F4000188619861A861B861C861D8616FD02C0C9
:104F500081E009C0CE0140E050E060E070E00E94D6
:104F6000CE2401C080E0DF91CF911F910895CF93AF
:104F7000DF93EC019C012A5F3F4F8B8D9C8D41E0BC
:104F800050E060E070E00E94C72E8823A1F08F8976
:104F9000988DA98DBA8D0097A105B10559F48E8120
:104FA0009F81A885B9858F8B988FA98FBA8F8C81A7
:104FB00080688C8381E0DF91CF9108952F923F929A
:104FC0004F925F927F928F929F92AF92BF92CF92B9
:104FD000DF92EF92FF920F931F93DF93CF9300D056
:104FE00000D0CDB7DEB76C01162F072F5E834D833F
:104FF000DC0115968C911597813009F070C11496DB
:105000008C9181FF6CC18EC1F601438954896589F9
:10501000768982859385A485B58584179507A6072B
:10502000B70731F0C6010E94B223882309F457C1A3
:10503000812F902F9C0129012D803E8017C1D60120
:105040005B96ED91FC915C97DA01C90119E0B69588
:10505000A795979587951A95D1F774807A947822B9
:105060007FEF872E71E0972E82229322772009F01E
:105070004EC08114910409F04AC0D60116964D9194
:105080005D916D917C9119974115510561057105EF
:1050900081F457968D919D910D90BC91A02D009714
:1050A000A105B10549F1F60186839783A087B187F1
:1050B0002EC0CF019E012F5F3F4F0E948C2D882371
:1050C00009F414C129813A814B815C81D6015B9638
:1050D000ED91FC915C978789803129F088EF9FEFF3
:1050E000AFEFBFE004C088EF9FEFA0E0B0E028176B
:1050F00039074A075B0730F0C6010E94B7278823AB
:1051000031F4EDC0F601268337834087518780E074
:1051100092E08819990951018215930508F45C0100
:10512000D6015B96ED91FC915C971696ED90FD9003
:105130000D911C9119978EEF9FEFAFEFBFEFE80E27
:10514000F91E0A1F1B1F058404C0EE0CFF1C001F64
:10515000111F0A94D2F786859785A089B189E80E38
:10516000F91E0A1F1B1FE70CF11C011D111D90E009
:10517000A91692E0B90651F580917C0C90917D0CB6
:10518000A0917E0CB0917F0C8E159F05A007B107F2
:1051900061F48FEF9FEFAFEFBFEF80937C0C9093A4
:1051A0007D0CA0937E0CB0937F0C8091F3119091B5
:1051B000F411B801A70192010E945321882309F438
:1051C0008EC0A0E0B2E04A0E5B1E3EC08114910486
:1051D00009F5F601228533854485558583899489AF
:1051E000A589B689281739074A075B0798F00E94F6
:1051F000112B882309F473C0E0927C0CF0927D0C93
:1052000000937E0C10937F0C8091F5118160809348
:10521000F51108C0C801B70141E00E94702B882336
:1052200009F45DC094012D50304FA9014A0D5B1D5A
:10523000D201F90102C08D918193E417F507D9F7E6
:10524000E21BF30B4E0E5F1E2A183B08950140E04F
:1052500050E0F60182859385A485B585820F931F62
:10526000A41FB51F82879387A487B587D6011A9696
:105270002D913D914D915C911D972114310409F0C0
:10528000DECE53968D919D910D90BC91A02D8217ED
:105290009307A407B50748F4F601238B348B458B9D
:1052A000568B84818068848311C08091F10F909126
:1052B000F20F892B59F08D819E81892B39F0D6010F
:1052C00014968C911497806814968C93F6018481BF
:1052D00083FF0EC0C6010E947824882349F481E030
:1052E00090E0D60113969C938E9312971E821D8296
:1052F0008D819E8126960FB6F894DEBF0FBECDBF7E
:10530000CF91DF911F910F91FF90EF90DF90CF90A1
:10531000BF90AF909F908F907F905F904F903F9005
:105320002F90089582FD70CE83CEDF93CF930F929E
:10533000CDB7DEB76983BE016F5F7F4F41E050E0BC
:105340000E94DE270F90CF91DF910895DF92EF92B8
:10535000FF920F931F93CF93DF93EC010E94B72727
:10536000882309F44EC0EB8DFC8DEE80FF8008850C
:1053700019858EEF9FEFAFEFBFEFE80EF91E0A1F02
:105380001B1F058404C0EE0CFF1C001F111F0A9494
:10539000D2F786859785A089B189E80EF91E0A1F84
:1053A0001B1FD4800894E108F108010911090BC002
:1053B000C801B7016D0D711D811D911D0E944C2BFF
:1053C0008823F9F0DA94DD2099F7EB8DFC8D20E04D
:1053D00032E040E050E0058404C0220F331F441F38
:1053E000551F0A94D2F78B899C89AD89BE89820F9B
:1053F000931FA41FB51F8B8B9C8BAD8BBE8B81E045
:1054000001C080E0DF91CF911F910F91FF90EF904D
:10541000DF9008956F927F928F929F92AF92BF928A
:10542000CF92DF92EF92FF920F931F93DF93CF9370
:10543000CDB7DEB72B970FB6F894DEBF0FBECDBF4A
:105440005C016B01822EDC0115968C91882309F09A
:10545000D2C0CA018E010F5F1F4FB8010E94712395
:10546000882309F4C8C0F601838D948DD5015C961C
:105470009C938E935B971682178210861186D601B5
:105480001A961D921D921D921C921D979924380107
:1054900041C0C6010E94AE26FC01009709F4ABC0D2
:1054A00085E016950795F794E7948A95D1F71E2D18
:1054B0001F708081882311F0853ED1F4992091F4EA
:1054C000D50152961C93529720917C0C30917D0C03
:1054D00040917E0C50917F0C1E962D933D934D93E1
:1054E0005C9351978081882399F49924939421C0E7
:1054F000C301BF014BE050E00E940A02009751F443
:10550000882D8073803309F476C0C501612F6FC088
:1055100099249394F601E284F384048515858389A4
:105520009489A589B689E816F9060A071B0708F4C5
:10553000B0CF882D8271823109F05DC0992041F091
:10554000C50161E00E945B248C01009789F453C07F
:10555000D60115968C91823009F44DC0C6010E9487
:10556000A629882309F447C0F501128A03EF1FE03A
:1055700080E2D8011D928A95E9F7D801FE013196A3
:105580008BE001900D928150E1F7E091F10FF091E5
:10559000F20F309739F0B801625F7F4FC801409633
:1055A000199509C081E298E2F801918B808B80E027
:1055B00098E097878687D80150968D919C91519756
:1055C00053969C938E93529759969C938E9358978B
:1055D0001E968D919C911F9757969C938E935697EC
:1055E0000E94112B882339F0C501F5016289482DED
:1055F0000E94492701C080E02B960FB6F894DEBFC9
:105600000FBECDBFCF91DF911F910F91FF90EF9013
:10561000DF90CF90BF90AF909F908F907F906F90D2
:1056200008958091F511882399F140917C0C509157
:105630007D0C60917E0C70917F0C8091F3119091A4
:10564000F41123EF3FE00E945321882319F1409188
:10565000F6115091F7116091F8117091F9114115FF
:1056600051056105710591F08091F3119091F4114C
:1056700023EF3FE00E945321882361F01092F6113E
:105680001092F7111092F8111092F9111092F51171
:1056900081E0089580E00895EF92FF920F931F93A9
:1056A0007B018C010E94112B8823A9F0E3EFFFE01E
:1056B000119281E1E33FF807D9F7E0927C0CF09278
:1056C0007D0C00937E0C10937F0C8091F51181600E
:1056D0008093F51181E01F910F91FF90EF90089555
:1056E000DF92EF92FF920F931F937B018C01D42ED8
:1056F00080917C0C90917D0CA0917E0CB0917F0CE0
:105700008E159F05A007B107C1F00E94112B8823B9
:10571000D9F08091F3119091F411B801A70123EF12
:105720003FE00E943D22882379F0E0927C0CF092C9
:105730007D0C00937E0C10937F0C8091F5118D29C8
:105740008093F51181E001C080E01F910F91FF90DF
:10575000EF90DF9008958F929F92AF92BF92CF9279
:10576000DF92EF92FF920F931F93CF93DF936C0121
:10577000142F7093F4116093F311442321F48824BF
:105780009924540140C0453008F01CC160E070E02D
:1057900080E090E040E00E94702B882309F412C161
:1057A000C12FD0E02197FE0174E0EE0FFF1F7A9524
:1057B000E1F7ED50F04FE254FE4F8081EE5BF14097
:1057C00090E08F779070892B09F0FCC0E653FE4F74
:1057D00080819181A281B38184369105A105B105B3
:1057E00008F4F0C064E0CC0FDD1F6A95E1F7C75400
:1057F000DE4E88809980AA80BB8081149104A10428
:10580000B10409F4DFC0C501B40140E00E94702B6F
:10581000882309F4D7C08091FE0F9091FF0F80502C
:10582000924009F0CFC020910310222309F4CAC08E
:105830008091011090910210892B09F4C3C08091CE
:105840000010882309F4BEC0F601228B809100105D
:105850008483158661E070E007C04F5FF6014587DD
:105860004150483008F0AEC0F6014585848190E093
:105870009B01042E02C0220F331F0A94E2F7821705
:10588000930759F72091091030910A10211531051D
:1058900019F040E050E008C0209117103091181026
:1058A0004091191050911A10F601258336834783D1
:1058B0005087E0900110F090021000E010E0E80C3A
:1058C000F91C0A1D1B1DE38AF48A058B168B809137
:1058D000041090910510918F808F6091031070E0FB
:1058E00080E090E00E94124B6E0D7F1D801F911F83
:1058F000F601628F738F848F958F20910410309101
:10590000051055E0220F331F5A95E1F721503E4F05
:10591000232F3327269540E050E0260F371F481FDE
:10592000591F26873787408B518B809106109091A5
:105930000710009719F0A0E0B0E008C080911310A4
:1059400090911410A0911510B0911610850174015A
:10595000E21AF30A040B150BA8019701280F391F4F
:105960004A1F5B1FF601058404C05695479537957D
:1059700027950A94D2F72187328743875487253F9A
:10598000FFE03F07F0E04F07F0E05F0710F48CE026
:1059900006C0255F3F4F4040504028F480E1F601AB
:1059A000878B81E010C080911F1090912010A091F2
:1059B0002110B0912210F601828F938FA48FB58FA2
:1059C00080E2EECF80E0DF91CF911F910F91FF90A9
:1059D000EF90DF90CF90BF90AF909F908F90089501
:1059E0004F925F926F927F928F929F92AF92BF92EF
:1059F000CF92DF92EF92FF920F931F93CF93DF939B
:105A0000EC016A017B012801390142305105610531
:105A1000710508F46FC089859A85AB85BC850196B0
:105A2000A11DB11D84179507A607B70708F462C02A
:105A30002B893C894D895E898F89803129F499278A
:105A40008F2D7E2D6D2D09C0C701B60117E09695EB
:105A50008795779567951A95D1F74B015C01820E72
:105A6000931EA41EB51E80917C0C90917D0CA0917C
:105A70007E0CB0917F0C88169906AA06BB0639F0F9
:105A8000C501B40140E00E94702B882399F18F89F1
:105A9000803149F4F601F070EE0FFF1FED50F04F2A
:105AA000518240820DC0F601EF77F070EE0FFF1FBC
:105AB000EE0FFF1FED50F04F4082518262827382E1
:105AC0008091F51181608093F5118A89823080F090
:105AD0008D819E81AF81B885880E991EAA1EBB1E3E
