:100000000C947A010C949A3A0C94CB3A0C94FC3AE6
:100010000C942D3B0C945E3B0C948F3B0C94C03B9A
:100020000C94F13B0C94A7010C94A7010C94A7012C
:100030000C94A7010C94A7010C94A7010C94A701A0
:100040000C94A7010C94A7010C94A7010C94A70190
:100050000C94A7010C94DF350C94A7010C94223C5E
:100060000C94A7010C94DA3F0C9406410C94A70160
:100070000C94A7010C94A7010C94A7010C94A70160
:100080000C94A7010C94A7010C94A7010C94A70150
:100090000C9416400C943A410C94A7010C945A18F5
:1000A0000C94A7010C94A7010C94A7010C94A70130
:1000B0000C94A7010C94A7010C94A7010C94A70120
:1000C0000C94A7010C94A7010C94A7010C94524026
:1000D0000C946E410C94A7010C948E400C94A24198
:1000E0000C94A70107634236B79BD8A71A39685604
:1000F00018AEBAAB558C1D3CB7CC5763BD6DEDFD4A
:10010000753EF6177231BF000000803F0800000006
:10011000BE922449123EABAAAA2ABECDCCCC4C3EFC
:1001200000000080BEABAAAAAA3E00000000BF00EB
:100130000000803F0000000000084178D3BB4387E7
:10014000D1133D190E3CC3BD4282AD2B3E68EC82FB
:1001500076BED98FE1A93E4C80EFFFBE01C4FF7F80
:100160003F000000000056533130353320666F7574
:100170006E6400436F756C646E27742066696E64EC
:10018000205653313035332C20646F20796F752021
:10019000686176652074686520726967687420708C
:1001A000696E7320646566696E65643F007C3C3EE1
:1001B0005E2B3D3F2F5B5D3B2C2A225C001F1C1FEA
:1001C0001E1F1E1F1F1E1F1E1F00002100240027B0
:1001D000002A002D00300033000101000004010757
:1001E000010A0100002200250028002B002E00310A
:1001F00000340002010000050108010B010000208D
:10020000002300260029002C002F003200000100EE
:100210000003010601090105050505070508080891
:1002200008020202020A0A08080404040401010187
:10023000010101010103030303030303030407078F
:10024000070C0C0C0C0C0C0C0C020202020606062D
:1002500006060606060B0B0B0B0B0B0B0B01021015
:1002600020200808102040102040800201020108D0
:100270000402010102040810204080804020100880
:1002800004020180040201804020100804020108D9
:100290000402010102040810204080010204081039
:1002A0002040800000090A02080B0C0D0706030419
:1002B000010000000000000000000000000000003D
:1002C000000000000000000000000000000000111D
:1002D000100F0000000000000000000000000000FF
:1002E000000000000000000000008A05F6167C1BDC
:1002F000E342830511241FBECFEFD1E2DEBFCDBFA5
:1003000000E00CBF1BE0A0E0B2E0EEE9F4E900E0A1
:100310000BBF02C007900D92AC3CB107D9F71BBED2
:1003200013E1ACECBBE001C01D92AC39B107E1F7C1
:1003300012E0C2EFD2E004C02297FE010E94074AF9
:10034000CA3ED107C9F70E9419440C94424A0C9442
:100350000000A0E0B0E0EFEAF1E00C94134AEC01F9
:10036000A880B980CA80DB80A114B104C104D10483
:1003700041F484E2A82E89EDB82E8BE5C82E87E0E3
:10038000D82EC601B5012DE133EF41E050E00E94C7
:10039000EA4927EA31E440E050E00E949D497B01B0
:1003A0008C01C601B5012DE133EF41E050E00E9420
:1003B000EA49CA01B9012CEE34EF4FEF5FEF0E941A
:1003C0009D496E0D7F1D801F911F97FF04C06150D6
:1003D000704080409048688379838A839B839B0127
:1003E000AC015F77B901CA01CDB7DEB7EAE00C9482
:1003F0002F4A0E94A901089588E59BE00E94A90167
:1004000008956093580B7093590B80935A0B9093F7
:100410005B0B0895FB01DC0104C08D9101908019F4
:1004200021F441505040C8F7881B990B0895FC01F6
:100430008191861721F08823D9F79927089531975C
:10044000CF010895FB01DC014150504048F001907C
:100450000D920020C9F701C01D9241505040E0F7B5
:1004600008950F931F93CF93DF938C01EB016115D8
:10047000710581F0DC011F96ED91FC91509730974A
:1004800031F0CE011D966D917C911E971995F80162
:10049000D687C587DF91CF911F910F910895DF9384
:1004A000CF93CDB7DEB72D970FB6F894DEBF0FBE52
:1004B000CDBFE091560CF091570C9E012F5F3F4F3E
:1004C000AF018DE0DA010D90AD01D9010D929D01D2
:1004D0008150C1F78091AE0D9091AF0D8F31910594
:1004E00089F18032910524F44E9709F044C035C05B
:1004F0008032910519F18197F1F5A885B98510979A
:1005000059F0CE0101961C969C938E931B97A78160
:10051000B085109761F40FC020915A0C30915B0C9C
:100520002115310541F1CF01F901199524C01C961F
:10053000FC93EE931B976781708519C089E49CE05A
:10054000BC0117C0A581B681109721F01C96FC93C1
:10055000EE931B97658176810AC0A185B2851097BD
:1005600021F01C96FC93EE931B976185728589E4BC
:100570009CE00E9431021092AF0D1092AE0D2D96AC
:100580000FB6F894DEBF0FBECDBFCF91DF910895B7
:1005900083E090E09093AA0D8093A90D0895EF92C7
:1005A0000F938130910509F09EC26F5F7F4F09F074
:1005B000A7C28CEC9BE00E9487308EEC9BE060E051
:1005C0000E94523789EE9BE069E04AE028E003E0B0
:1005D00034E0E32E0E940B368EE29CE00E94431A28
:1005E00080E092E090934A0C8093490C10924B0C5F
:1005F0001092530C1092520C1092510C1092500CFD
:1006000010924F0C10924E0C10924D0C10924C0CFC
:1006100089E49CE09093570C8093560C84EF96E00D
:100620009093590C8093580C82E19BE090935B0C63
:1006300080935A0C89E092E090935D0C80935C0C5F
:1006400010925E0C1092660C1092650C1092640C65
:100650001092630C1092620C1092610C1092600C5C
:1006600010925F0C8CE192E090936A0C8093690C7D
:1006700010926B0C1092730C1092720C1092710C01
:100680001092700C10926F0C10926E0C10926D0CF8
:1006900010926C0C89E292E09093770C8093760C28
:1006A0001092780C1092800C10927F0C10927E0C9D
:1006B00010927D0C10927C0C10927B0C10927A0C94
:1006C0001092790C87E392E09093840C8093830CD2
:1006D0001092850C10928D0C10928C0C10928B0C39
:1006E00010928A0C1092890C1092880C1092870C30
:1006F0001092860C84E492E09093910C8093900C7D
:100700001092920C10929A0C1092990C1092980CD4
:100710001092970C1092960C1092950C1092940CCB
:100720001092930C82E592E090939E0C80939D0C26
:1007300010929F0C1092A70C1092A60C1092A50C70
:100740001092A40C1092A30C1092A20C1092A10C67
:100750001092A00C83E692E09093AB0C8093AA0CCD
:100760001092AC0C1092B40C1092B30C1092B20C0C
:100770001092B10C1092B00C1092AF0C1092AE0C03
:100780001092AD0C85E792E09093B80C8093B70C73
:100790001092B90C1092C10C1092C00C1092BF0CA8
:1007A0001092BE0C1092BD0C1092BC0C1092BB0C9F
:1007B0001092BA0C84E892E09093C50C8093C40C1C
:1007C0001092C60C1092CE0C1092CD0C1092CC0C44
:1007D0001092CB0C1092CA0C1092C90C1092C80C3B
:1007E0001092C70C84E992E09093D20C8093D10CC4
:1007F0001092D30C1092DB0C1092DA0C1092D90CE0
:100800001092D80C1092D70C1092D60C1092D50CD6
:100810001092D40C89EA92E09093DF0C8093DE0C66
:100820001092E00C1092E80C1092E70C1092E60C7B
:100830001092E50C1092E40C1092E30C1092E20C72
:100840001092E10C82EB92E09093EC0C8093EB0C15
:100850001092ED0C1092F50C1092F40C1092F30C17
:100860001092F20C1092F10C1092F00C1092EF0C0E
:100870001092EE0C8DEB92E09093F90C8093F80CB3
:100880001092FA0C1092020D1092010D1092000DB0
:100890001092FF0C1092FE0C1092FD0C1092FC0CAA
:1008A0001092FB0C87EC92E09093060D8093050D5F
:1008B0001092070D10920F0D10920E0D10920D0D4B
:1008C00010920C0D10920B0D10920A0D1092090D42
:1008D0001092080D89ED92E09093130D8093120D04
:1008E0001092140D10921C0D10921B0D10921A0DE7
:1008F0001092190D1092180D1092170D1092160DDE
:100900001092150D85EE92E09093200D80931F0DAF
:100910001092210D1092290D1092280D1092270D82
:100920001092260D1092250D1092240D1092230D79
:100930001092220D80EF92E090932D0D80932C0D5C
:1009400010922E0D1092360D1092350D1092340D1E
:100950001092330D1092320D1092310D1092300D15
:1009600010922F0D8DEF92E090933A0D8093390DF8
:1009700010923B0D1092430D1092420D1092410DBA
:100980001092400D10923F0D10923E0D10923D0DB1
:1009900010923C0D8BE093E09093470D8093460DB1
:1009A0001092480D1092500D10924F0D10924E0D56
:1009B00010924D0D10924C0D10924B0D10924A0D4D
:1009C0001092490D89E193E09093540D8093530D5B
:1009D0001092550D10925D0D10925C0D10925B0DF2
:1009E00010925A0D1092590D1092580D1092570DE9
:1009F0001092560D8CE293E09093610D8093600D00
:100A00001092620D10926A0D1092690D1092680D8D
:100A10001092670D1092660D1092650D1092640D84
:100A20001092630D8BE393E090936E0D80936D0DA8
:100A300010926F0D1092770D1092760D1092750D29
:100A40001092740D1092730D1092720D1092710D20
:100A50001092700D8AE493E090937B0D80937A0D51
:100A600010927C0D1092840D1092830D1092820DC5
:100A70001092810D1092800D10927F0D10927E0DBC
:100A800010927D0D89E593E09093880D8093870DFA
:100A90001092890D1092910D1092900D10928F0D61
:100AA00010928E0D10928D0D10928C0D10928B0D58
:100AB00010928A0D8EE593E09093950D8093940D9E
:100AC0001092960D10929E0D10929D0D10929C0DFD
:100AD00010929B0D10929A0D1092990D1092980DF4
:100AE0001092970D0DC0892B59F46F5F7F4F41F421
:100AF0008EE29CE00E94561A81E19CE00E94561A08
:100B00000F91EF90089580E090E06FEF7FEF0E94EB
:100B1000CF02089581E090E06FEF7FEF0E94CF0257
:100B20000895CF92DF92EF92FF920F931F93CF938E
:100B3000DF9381E20E94323EEC018091B00D9091F2
:100B4000B10DC817D90751F00E946A3C6093B80DE7
:100B50007093B90D8093BA0D9093BB0D0E946A3CBF
:100B60002091B80D3091B90D4091BA0D5091BB0D47
:100B7000621B730B840B950B2091650B3091660BF8
:100B80004091670B5091680B2617370748075907A4
:100B900018F0CC24DD240BC00E946A3C6093B80D91
:100BA0007093B90D8093BA0D9093BB0D6E01D093E5
:100BB000B10DC093B00D80E20E94323EEC018091F5
:100BC000B20D9091B30DC817D90751F00E946A3C3D
:100BD0006093BC0D7093BD0D8093BE0D9093BF0DBF
:100BE0000E946A3C2091BC0D3091BD0D4091BE0D1C
:100BF0005091BF0D621B730B840B950B2091650BFD
:100C00003091660B4091670B5091680B26173707A0
:100C10004807590718F0EE24FF240BC00E946A3CD5
:100C20006093BC0D7093BD0D8093BE0D9093BF0D6E
:100C30007E01D093B30DC093B20D8FE10E94323E7E
:100C4000EC018091B60D9091B70DC817D90751F0FE
:100C50000E946A3C6093C40D7093C50D8093C60DCD
:100C60009093C70D0E946A3C2091C40D3091C50D30
:100C70004091C60D5091C70D621B730B840B950BF1
:100C80002091650B3091660B4091670B5091680B7A
:100C9000261737074807590718F000E010E00BC087
:100CA0000E946A3C6093C40D7093C50D8093C60D7D
:100CB0009093C70D8E01D093B70DC093B60D8EE102
:100CC0000E94323EEC018091B40D9091B50DC81791
:100CD000D90751F00E946A3C6093C00D7093C10D1A
:100CE0008093C20D9093C30D0E946A3C2091C00D69
:100CF0003091C10D4091C20D5091C30D621B730B19
:100D0000840B950B2091650B3091660B4091670B1E
:100D10005091680B261737074807590718F080E0ED
:100D200090E00BC00E946A3C6093C00D7093C10DAF
:100D30008093C20D9093C30DCE01D093B50DC09397
:100D4000B40D21E0C216D10419F481E290E011C083
:100D500021E0E216F10419F480E290E00AC00130CB
:100D6000110519F48FE190E004C0019739F48EE188
:100D700090E09093AF0D8093AE0D04C01092AF0D34
:100D80001092AE0DDF91CF911F910F91FF90EF90D8
:100D9000DF90CF900895EF92FF920F931F934EEC48
:100DA000E42E4BE0F42EC70160E040E00E94F238F0
:100DB00001E713E0C701B8010E94F245C701B8017D
:100DC0000E94F245C701B8010E94F245C701B8016F
:100DD0000E94F245C70160E040E00E94F2381F9196
:100DE0000F91FF90EF9008950F931F93DF93CF9390
:100DF000CDB7DEB72D970FB6F894DEBF0FBECDBFCF
:100E0000DE011196FC018DE001900D928150E1F719
:100E100009811A818EEC9BE060E042E00E94F2388A
:100E2000A091490CB0914A0CF80105C031968C9103
:100E3000981729F4119690819923C1F7DFC082E0B9
:100E40000930180729F48EEC9BE066E873E0DCC0FB
:100E500082E00C31180729F48EEC9BE06BE973E01B
:100E6000D3C082E00932180729F48EEC9BE060EBD6
:100E700073E0CAC082E00733180729F48EEC9BE0C8
:100E800065EC73E0C1C082E00434180729F48EECED
:100E90009BE06AED73E0B8C082E00235180729F4E0
:100EA0008EEC9BE06FEE73E0AFC082E00336180774
:100EB00029F48EEC9BE064E074E0A6C082E0053784
:100EC000180729F48EEC9BE069E174E09DC082E094
:100ED0000438180729F48EEC9BE06EE274E094C0AD
:100EE00082E00439180721F48EEC9BE0B8018CC035
:100EF00082E0093A180729F48EEC9BE063E474E081
:100F000083C082E0023B180729F48EEC9BE068E581
:100F100074E07AC082E00D3B180729F48EEC9BE068
:100F20006DE674E071C082E0073C180729F48EEC8E
:100F30009BE062E874E068C082E0093D180729F48C
:100F40008EEC9BE067E974E05FC082E0053E180725
:100F500029F48EEC9BE06CEA74E056C082E0003F1E
:100F6000180729F48EEC9BE061EC74E04DC082E040
:100F70000D3F180729F48EEC9BE066ED74E044C049
:100F800083E00B30180729F48EEC9BE06BEE74E0E5
:100F90003BC083E00931180729F48EEC9BE060E048
:100FA00075E032C083E00C32180729F48EEC9BE028
:100FB00065E175E029C083E00B33180729F48EEC56
:100FC0009BE06AE275E020C083E00A34180729F448
:100FD0008EEC9BE06FE375E017C083E009351807DE
:100FE00029F48EEC9BE064E575E00EC00E551340CD
:100FF00069F48EEC9BE069E675E006C00E94CB06C2
:101000008EEC9BE06EE775E00E94F2452D960FB6E0
:10101000F894DEBF0FBECDBFCF91DF911F910F912E
:1010200008950E94CB068EEC9BE060E041E00E94B8
:10103000F2388EEC9BE063E975E00E94F24589E4AA
:101040009CE09093600C80935F0C8CE59CE0909307
:10105000510C8093500C8091670C9091680C892BF7
:1010600041F48091540C9091550C9093680C8093AE
:10107000670C8CE59CE09093DB0C8093DA0C81ED9F
:101080009CE09093620C8093610C8091DC0C9091B9
:10109000DD0C892B41F48091670C9091680C909342
:1010A000DD0C8093DC0C81ED9CE090936A0D8093C5
:1010B000690D80E69DE09093D70C8093D60C8091CB
:1010C0006B0D90916C0D892B41F48091DC0C90910B
:1010D000DD0C90936C0D80936B0D80E69DE09093FA
:1010E000910D8093900D87E89DE09093660D80931D
:1010F000650D8091920D9091930D892B41F4809113
:101100006B0D90916C0D9093930D8093920D8CE5E7
:101110009CE090936D0C80936C0C89E69CE090931E
:10112000640C8093630C8091740C9091750C892BE6
:1011300041F48091670C9091680C9093750C8093AA
:10114000740C89E69CE09093800C80937F0C86E77A
:101150009CE090936F0C80936E0C8091810C909129
:10116000820C892B41F48091740C9091750C9093B2
:10117000820C8093810C86E79CE090938D0C809389
:101180008C0C83E89CE090937C0C80937B0C80918A
:101190008E0C90918F0C892B41F48091810C909151
:1011A000820C90938F0C80938E0C83E89CE090933C
:1011B0009A0C8093990C80E99CE09093890C809321
:1011C000880C80919B0C90919C0C892B41F4809110
:1011D0008E0C90918F0C90939C0C80939B0C80E9CB
:1011E0009CE09093A70C8093A60C8DE99CE09093D3
:1011F000960C8093950C8091A80C9091A90C892B4A
:1012000041F480919B0C90919C0C9093A90C80933D
:10121000A80C8DE99CE09093B40C8093B30C8AEAFF
:101220009CE09093A30C8093A20C8091B50C9091BC
:10123000B60C892B41F48091A80C9091A90C909345
:10124000B60C8093B50C8AEA9CE09093C10C809315
:10125000C00C87EB9CE09093B00C8093AF0C809116
:10126000C20C9091C30C892B41F48091B50C9091E4
:10127000B60C9093C30C8093C20C87EB9CE09093C8
:10128000CE0C8093CD0C84EC9CE09093BD0C8093AD
:10129000BC0C8091CF0C9091D00C892B41F48091A3
:1012A000C20C9091C30C9093D00C8093CF0C81ED25
:1012B0009CE09093E20C8093E10C8EED9CE0909387
:1012C000D90C8093D80C8091E90C9091EA0C892B71
:1012D00041F48091DC0C9091DD0C9093EA0C8093AA
:1012E000E90C8EED9CE09093F50C8093F40C8BEE62
:1012F0009CE09093E40C8093E30C8091F60C909129
:10130000F70C892B41F48091E90C9091EA0C9093B1
:10131000F70C8093F60C8BEE9CE09093020D80937B
:10132000010D88EF9CE09093F10C8093F00C80917C
:10133000030D9091040D892B41F48091F60C90914E
:10134000F70C9093040D8093030D88EF9CE090932D
:101350000F0D80930E0D85E09DE09093FE0C809321
:10136000FD0C8091100D9091110D892B41F480910D
:10137000030D9091040D9093110D8093100D85E055
:101380009DE090931C0D80931B0D82E19DE0909356
:101390000B0D80930A0D80911D0D90911E0D892BD0
:1013A00041F48091100D9091110D90931E0D80933A
:1013B0001D0D82E19DE09093290D8093280D8FE112
:1013C0009DE09093180D8093170D80912A0D9091B8
:1013D0002B0D892B41F480911D0D90911E0D909342
:1013E0002B0D80932A0D8FE19DE09093360D809315
:1013F000350D8CE29DE09093250D8093240D809116
:10140000370D9091380D892B41F480912A0D9091E0
:101410002B0D9093380D8093370D8CE29DE09093C7
:10142000430D8093420D89E39DE09093320D8093AC
:10143000310D8091440D9091450D892B41F480919F
:10144000370D9091380D9093450D8093440D89E3AD
:101450009DE09093500D80934F0D86E49DE0909316
:101460003F0D80933E0D8091510D9091520D892B2F
:1014700041F48091440D9091450D9093520D8093CD
:10148000510D86E49DE090935D0D80935C0D83E5A6
:101490009DE090934C0D80934B0D80915E0D90914B
:1014A0005F0D892B41F48091510D9091520D9093D5
:1014B0005F0D80935E0D80E69DE09093710D8093AB
:1014C000700D8DE69DE09093680D8093670D80917F
:1014D000780D9091790D892B41F480916B0D90914D
:1014E0006C0D9093790D8093780D8DE69DE090932F
:1014F000840D8093830D8AE79DE09093730D809314
:10150000720D8091850D9091860D892B41F480910B
:10151000780D9091790D9093860D8093850D87E8D5
:101520009DE09093980D8093970D84E99DE09093B2
:101530008F0D80938E0D80919F0D9091A00D892B22
:1015400041F48091920D9091930D9093A00D809312
:101550009F0D89E49CE0BC010E94310260E273E0CF
:1015600080E090E00E94E43C8EEC9BE060E043E091
:101570000E94F2388EEC9BE064EA75E00E94F2452E
:1015800064EF71E080E090E00E94E43C0E94CB06B2
:101590000895CF93DF930E94CB0680E191E16DEA3D
:1015A00075E00E94F2458EEC9BE060E043E00E9413
:1015B000F2388EEC9BE061EC75E00E94F245C0E0F1
:1015C000D0E080E191E163ED75E00E94F24568EEC4
:1015D00073E080E090E00E94E43C2196C530D105A4
:1015E00081F780E191E165ED75E00E94F54580E1CC
:1015F00091E16BED75E00E94F5458EEC9BE060E0BB
:1016000043E00E94F2388EEC9BE069EE75E00E94A8
:10161000F24562E370E080E090E00E94E43CDF91FC
:10162000CF9108950F93CF93DF93EC010E94CB06E7
:101630008EEC9BE060E040E00E94F2388EEC9BE094
:101640006BEF75E00E94F2458EEC9BE060E041E0BC
:101650000E94F238688179818EEC9BE00E94F2450D
:1016600068EB7BE080E090E00E94E43C89E49CE051
:10167000BC010E943102888199818E55934071F49A
:1016800080E191E16DE076E00E94F54585E090E033
:101690009093AA0D8093A90D0E94CB068881998111
:1016A0008D5F924079F58DE261E00E94FF3D8DE80B
:1016B0009EE00E949F1B8DE89EE064E04FEF2FEFBD
:1016C0000FEF0E94E51D80E191E164E376E004C044
:1016D00080E191E16AE476E00E94F54589EE9BE0C5
:1016E00060E676E00E94BD35882391F38DE260E0EC
:1016F0000E94FF3D85E090E09093AA0D8093A90D94
:101700000E94CB06888199818B50934071F58DE2C0
:1017100061E00E94FF3D8DE89EE00E949F1B8DE8E6
:101720009EE064E04FEF2FEF0FEF0E94E51D80E198
:1017300091E16DE676E00E94F54589EE9BE063E875
:1017400076E00E94543568EB7BE080E090E00E94F8
:10175000E43C8DE260E00E94FF3D85E090E09093E4
:10176000AA0D8093A90D0E94CB0688819981895189
:10177000934071F58DE261E00E94FF3D8DE89EE0AF
:101780000E949F1B8DE89EE064E04FEF2FEF0FEF6C
:101790000E94E51D80E191E160E976E00E94F54557
:1017A00089EE9BE06BEA76E00E94543568EB7BE0C3
:1017B00080E090E00E94E43C8DE260E00E94FF3D0A
:1017C00085E090E09093AA0D8093A90D0E94CB062E
:1017D000888199818D5B9240D1F483E090E0909371
:1017E000A60D8093A50D80E191E168EB76E00E9463
:1017F000F54568EE73E080E090E00E94E43C85E00F
:1018000090E09093AA0D8093A90D0E94CB06888149
:101810009981875C9240D1F484E090E09093A60D8A
:101820008093A50D80E191E163ED76E00E94F5459E
:1018300068EE73E080E090E00E94E43C85E090E098
:101840009093AA0D8093A90D0E94CB06DF91CF91B2
:101850000F9108950E94CB068EEC9BE060E041E082
:101860000E94F2388EEC9BE062EF76E00E94F24537
:1018700089EE9BE00E940A35882339F480E191E1EA
:1018800063E771E00E949D44FFCF80E191E166E64D
:1018900071E00E949D4489EE9BE062E042E00E947C
:1018A000133489EE9BE065E00E94313689EE9BE0BF
:1018B00060E676E00E94543560E273E080E090E0FC
:1018C0000E94E43C8EEC9BE060E043E00E94F23832
:1018D0008EEC9BE064EA75E00E94F24508950F9358
:1018E000DF93CF93CDB7DEB76B970FB6F894DEBF1B
:1018F0000FBECDBF0E94CB068EEC9BE060E041E0C6
:101900000E94F2388EEC9BE064E077E00E94F245A2
:1019100080E191E160E177E00E94F2458DE89EE090
:1019200065E34FEF2FEF0FEF0E94E51D882339F499
:1019300080E191E168E277E00E94F545FFCF80E128
:1019400091E164E477E00E94F545CE0101966DE8EF
:101950007EE046E557E023E10E94C01C8B819C811C
:101960009093310C8093300C8D819E81AF81B8852E
:101970008093320C9093330CA093340CB093350CBD
:1019800089859A85AB85BC858093360C9093370CFE
:10199000A093380CB093390CAAE3BCE0FE013D964D
:1019A0008DE001900D928150E1F78A8D9B8D90938F
:1019B000480C8093470CCE0101960E94561A8EE285
:1019C0009CE00E94981A882339F480E191E162E654
:1019D00077E00E94F545FFCF60E273E080E090E0A1
:1019E0000E94E43C8EEC9BE060E043E00E94F23811
:1019F0008EEC9BE064EA75E00E94F2456B960FB6B0
:101A0000F894DEBF0FBECDBFCF91DF910F91089547
:101A1000EF92FF920F931F9350E1E52E51E1F52EC7
:101A2000C7016CE777E00E94F2450EEC1BE0C801AD
:101A300064E144E020E00E9436390E94CB06C801F0
:101A400067E977E00E94F245C70164EA75E00E9409
:101A5000F5451F910F91FF90EF900895DF93CF937D
:101A60000F92CDB7DEB780E191E167EA77E00E949F
:101A7000F2450E94CB068EEC9BE060E041E00E94C4
:101A8000F2388EEC9BE064EC77E00E94F2458CEC3F
:101A90009BE00E945D338CEC9BE0BE016F5F7F4F4B
:101AA0000E94E830882399F080E191E166ED77E0CB
:101AB0000E94F24580E191E1698140E150E00E949D
:101AC0006E4580E191E169EE77E00E94F545109264
:101AD000AB0D80E191E16AEF77E00E94F5458CEC77
:101AE0009BE06091AB0D42E02CEA3DE00E940432A5
:101AF00080E191E168E078E00E94F5458CEC9BE0A4
:101B00000E941E3264E670E080E090E00E94E43CB7
:101B10008CEC9BE061E045E00E94C831882331F005
:101B200080E191E163E178E00E94F5458CEC9BE077
:101B30006CE271E040ED57E00E94A831882331F05B
:101B400080E191E169E378E00E94F54560E273E0AD
:101B500080E090E00E94E43C80E191E164EA75E07D
:101B60000E94F5458EEC9BE060E043E00E94F23875
:101B70008EEC9BE064EA75E00E94F2450F90CF91F5
:101B8000DF910895CF92DF92EF92FF920F931F9310
:101B900070E1C72E71E1D72EC60166E678E00E949B
:101BA000F2450E94CB066EECE62E6BE0F62EC701E6
:101BB00060E041E00E94F238C7016BE778E00E94E4
:101BC000F24585E361E00E944C3D86E161E00E94C0
:101BD0004C3D8EE160E00E944C3D8FE160E00E9450
:101BE0004C3D80E260E00E944C3D81E260E00E945A
:101BF0004C3D82E260E00E944C3D82E060E00E9449
:101C00004C3D82E160E00E944C3D86E060E00E9435
:101C10004C3D82E060E00E944C3D8CE060E00E9420
:101C20004C3D8DE261E00E944C3D85E361E00E9405
:101C30004C3D60E273E080E090E00E94E43C04EA06
:101C400015E0C601B8010E94F545C70160E043E018
:101C50000E94F238C701B8010E94F2451F910F910E
:101C6000FF90EF90DF90CF900895CF92DF92EF92A8
:101C7000FF920F931F93DF93CF93CDB7DEB7689793
:101C80000FB6F894DEBF0FBECDBF80E191E16DE8E5
:101C900078E00E94F2450E94CB068EEC9BE060E06B
:101CA00041E00E94F2388EEC9BE06DEA78E00E9401
:101CB000F2450E94B02F0E94B22F2B8B3C8B4D8B94
:101CC0005E8B6F8B788FDE011196FE01739686E036
:101CD00001900D928150E1F7E7E0CE2ED12CCC0E91
:101CE000DD1EC60162EC78E04EEC58E00E94BA2E90
:101CF000CE0101960E94562F7B018C01C6010E94E5
:101D0000562FE616F7060807190768F48E01035FD9
:101D10001F4FC80162EC78E04EEC58E00E94BA2EEA
:101D2000C8010E94343060E273E080E090E00E94DD
:101D3000E43C80E191E164EA75E00E94F5458EECB7
:101D40009BE060E043E00E94F2388EEC9BE064EAA6
:101D500075E00E94F24568960FB6F894DEBF0FBE9C
:101D6000CDBFCF91DF911F910F91FF90EF90DF904A
:101D7000CF9008950F931F93082F803414F00FE332
:101D800002C087FD00E080E191E167ED78E00E940C
:101D9000F245112707FD109580E191E1B8014AE075
:101DA00050E00E94D34583E19EE06BE470E00E9426
:101DB000BC1683E19EE0602F0E943E1783E19EE007
:101DC0000E94811790E0882309F491E0892F1F91E8
:101DD0000F91089580915C0B0E94BA0E882331F414
:101DE00080E191E16AEE78E00E94F5458091A10DD5
:101DF000813091F486E161E00E94FF3D60ED77E083
:101E000080E090E00E94E43C86E160E00E94FF3DBB
:101E10008DE260E00E94FF3D08950F931F93682FAD
:101E200003E11EE0C8010E94B216C8016FE60E94DD
:101E30003E17C8010E9481171F910F910895DF92EC
:101E4000EF92FF920F931F93382FF62EE42ED22E8F
:101E500003E11EE0C801632F0E94B216C80160E7CB
:101E60000E943E17C8016F2D0E943E17C8016E2DBB
:101E70000E943E17C8016D2D0E943E17C8010E94A6
:101E800081171F910F91FF90EF90DF900895DF92DF
:101E9000EF92FF920F931F93382FF62EE42ED22E3F
:101EA00003E11EE0C801632F0E94B216C80163E679
:101EB0000E943E17C8016F2D0E943E17C8016E2D6B
:101EC0000E943E17C8016D2D0E943E17C8010E9456
:101ED00081171F910F91FF90EF90DF9008950F935E
:101EE0001F93CF93DF9380E191E163E179E00E945A
:101EF000F5450E94CB068EEC9BE060E041E00E943D
:101F0000F2388EEC9BE069E379E00E94F24589E3C8
:101F100061E00E944C3D88E361E00E944C3D89E312
:101F200061E00E94FF3D88E360E00E94FF3D64E6BF
:101F300070E080E090E00E94E43C83E19EE00E943B
:101F400096170DE51BE0C0E0D0E080E191E16AE486
:101F500079E00E94F245219680E191E1BE014AE0DC
:101F600050E00E94D3458EEC9BE060E042E00E948E
:101F7000F2388EEC9BE06AE479E00E94F2458EEC48
:101F80009BE0BE014AE050E00E94C045F80180811C
:101F900062E140E020E00E941F0F60ED77E080E00A
:101FA00090E00E94E43CF80180810E940D0FF8014E
:101FB00081918F0160E040E020E00E94470FC8302F
:101FC000D10519F668EC70E080E090E00E94E43CF6
:101FD0008EEC9BE06FE479E00E94F24580E191E1B4
:101FE00069E579E00E94F545DF91CF911F910F914E
:101FF00008954F925F926F927F928F929F92AF92CD
:10200000BF92CF92DF92EF92FF920F931F93DF93D5
:10201000CF93CDB7DEB7CA54D0400FB6F894DEBF29
:102020000FBECDBF8091A90D9091AA0D843091056E
:1020300009F434C1853091053CF48230910581F07A
:10204000039709F044C607C18630910509F41EC202
:10205000863091050CF427C1079709F038C60BC3E9
:102060000E94B22FDE01AB5BBF4F2C93FE01EA5BF7
:10207000FF4F3083FE01E95BFF4F4083FE01E85BC9
:10208000FF4F5083FE01E75BFF4F6083FE01E65B7D
:10209000FF4F70839E01275F3F4FFD0186E0019057
:1020A000D9010D929D018150D1F7BE84CD84DC848D
:1020B000EB84FA8409858EEC9BE060E00E9429396C
:1020C00080E191E161EB79E00E94F24510E000537C
:1020D000184F80E191E1B8014AE050E00E9440458C
:1020E00080E191E16FE20E94754480E191E16F2D02
:1020F0004AE050E00E946E4580E191E16FE20E946B
:10210000754480E191E16E2D4AE050E00E946E45F9
:1021100080E191E160E20E94754480E191E16D2DE2
:102120004AE050E00E946E4580E191E16AE30E943E
:10213000754480E191E16C2D4AE050E00E946E45CB
:1021400080E191E16AE30E94754480E191E16B2DA9
:102150004AE050E00E946E458EEC9BE060E041E07A
:102160000E94F2388EEC9BE0B8014AE050E00E94F9
:1021700040458EEC9BE06FE20E9475448EEC9BE044
:102180006F2D4AE050E00E946E458EEC9BE06FE2BE
:102190000E9475448EEC9BE06E2D4AE050E00E9458
:1021A0006E458EEC9BE060E20E9475448EEC9BE0F5
:1021B0006D2D4AE050E00E946E458EEC9BE06AE394
:1021C0000E9475448EEC9BE06C2D4AE050E00E942A
:1021D0006E458EEC9BE06AE30E9475448EEC9BE0BA
:1021E0006B2D4AE050E00E946E458CEC9BE0BE01F6
:1021F0006D5F7F4FAE014F5F5F4F0E943931882383
:1022000009F180E191E168EC79E00E94F2456B818F
:102210007C8180E191E14AE050E00E94514540918B
:10222000AC0D5091AD0D2B813C8109811A818CEC54
:102230009BE06091AB0DB5E0EB2EF12CEC0EFD1E9A
:102240000E9423328B819C818C52914008F03FC5C3
:1022500086E090E038C580E191E161ED79E00E948F
:10226000F5458CEC9BE00E94883084E00E946E3A39
:102270000E94CB068EEC9BE061E00E9429398EEC37
:102280009BE060E040E00E94F2388EEC9BE06EE75D
:1022900075E00E94F24584E090E015C50E9491052A
:1022A0000E944F0214C580E191E162E07AE00E9451
:1022B000F5450E94B22FDE01AB5BBF4F2C93FE01B0
:1022C000EA5BFF4F3083FE01E95BFF4F4083FE0175
:1022D000E85BFF4F5083FE01E75BFF4F6083FE0129
:1022E000E65BFF4F70839E01275F3F4FFD0186E055
:1022F0000190D9010D929D018150D1F78DE89EE0AA
:102300000E949F1B8DE89EE065E34FEF2FEF0FEFDC
:102310000E94E51DCE010F966DE87EE046E557E090
:1023200023E10E94C01C89899A899093310C809383
:10233000300C8B899C89AD89BE898093320C909337
:10234000330CA093340CB093350C8F89988DA98DE4
:10235000BA8D8093360C9093370CA093380CB093C1
:10236000390CAAE3BCE0FE017B968DE001900D9252
:102370008150E1F788A599A59093480C8093470C6C
:10238000CE010F960E94561A698570E06053784F0F
:102390008EE29CE04AE050E00E9440458EE29CE0E4
:1023A0006FE20E9475448EE29CE06A854AE050E04C
:1023B0000E946E458EE29CE06FE20E9475448EE2C0
:1023C0009CE06B854AE050E00E946E458EE29CE006
:1023D00060E20E9475448EE29CE06C854AE050E029
:1023E0000E946E458EE29CE06AE30E9475448EE294
:1023F0009CE06D854AE050E00E946E458EE29CE0D4
:102400006AE30E9475448EE29CE06E854AE050E0EB
:102410000E946E458EE29CE065E27AE00E94F24501
:102420008EE29CE060E47AE00E94F2456091A50DA6
:102430007091A60D8EE29CE04AE050E00E94C045FB
:102440008EE29CE060E47AE00E94F2456091A70D84
:102450007091A80D8EE29CE04AE050E00E94D345C6
:102460008EE29CE00E94B71A8EE29CE00E94A51AC0
:102470008DE89EE00E949F1B84E068EC72E041E0E2
:1024800050E00E94F23982E090E01DC480E191E1C9
:1024900062E47AE00E94F5450E94B22FDE01AB5B58
:1024A000BF4F2C93FE01EA5BFF4F3083FE01E95BD7
:1024B000FF4F4083FE01E85BFF4F5083FE01E75B67
:1024C000FF4F6083FE01E65BFF4F70839E01275F35
:1024D0003F4FFD0186E00190D9010D929D01815091
:1024E000D1F78DE89EE00E949F1B8DE89EE065E39A
:1024F0004FEF2FEF0FEF0E94E51DCE018A966DE89A
:102500007EE046E557E023E10E94C01C8CA59DA516
:102510009093310C8093300C8EA59FA5A8A9B9A9E2
:102520008093320C9093330CA093340CB093350C01
:102530008AA99BA9ACA9BDA98093360C9093370CAE
:10254000A093380CB093390CAAE3BCE0FE01F696D8
:102550008DE001900D928150E1F7FE01ED5BFF4FA0
:10256000808191819093480C8093470CCE018A968C
:102570000E94561A698570E06053784F8EE29CE0A5
:102580004AE050E00E9440458EE29CE06FE20E94EB
:1025900075448EE29CE06A854AE050E00E946E45F8
:1025A0008EE29CE06FE20E9475448EE29CE06B85B7
:1025B0004AE050E00E946E458EE29CE060E20E949C
:1025C00075448EE29CE06C854AE050E00E946E45C6
:1025D0008EE29CE06AE30E9475448EE29CE06D8589
:1025E0004AE050E00E946E458EE29CE06AE30E9461
:1025F00075448EE29CE06E854AE050E00E946E4594
:102600008EE29CE06AE97AE00E94F2458EE29CE06C
:1026100065E27AE00E94F2458EE29CE060E47AE0B6
:102620000E94F2456091A50D7091A60D8EE29CE08E
:102630004AE050E00E94C0458EE29CE060E47AE00F
:102640000E94F2456091A70D7091A80D8EE29CE06A
:102650004AE050E00E94D3458EE29CE00E94B71A07
:102660008EE29CE00E94A51A8DE89EE00E949F1BCE
:1026700087E090E028C384E068EC72E041E050E03D
:102680000E94F23980E191E16FEB7AE00E94F5451A
:1026900060E070E080E090E023E130E040E050E076
:1026A0000E9431465B016C018091A50D9091A60DB1
:1026B00083309105D9F08130910531F4ADE0AA2E37
:1026C000B12CC12CD12C17C08230910579F0049720
:1026D00091F460E070E080E090E023E130E040E0E1
:1026E00050E00E9431465B016C0105C0F5E0AF2E61
:1026F000B12CC12CD12C60E070E080E090E02BE0A8
:1027000030E040E050E00E9431462B0164EF71E080
:1027100080E090E020ED37E040E050E00E9431465C
:102720003B014C018CE00E94323E8091A10D813032
:1027300049F560E070E080E090E022E330E040E0C6
:1027400050E00E9431466A307105E4F461E070E0C7
:1027500080E090E02CED35E040E050E00E94314612
:102760007B018C0186E161E00E94FF3D0027F7FCC0
:102770000095102FC801B7010E94E43C86E160E09B
:102780000E94FF3D86E00E94323E019709F083C01F
:1027900080916D0B882309F47BC010926D0B80E152
:1027A00091E16EED7AE00E94F54580E191E162EE03
:1027B0007AE00E94F2450E946A3C28EE33E040E055
:1027C00050E00E94C84980E191E1BA01A9012AE0E4
:1027D00030E00E94314580E191E166EF7AE00E94AD
:1027E000F54562E370E080E090E00E94E43C8EEC0E
:1027F0009BE061E00E9429390E94CB068EEC9BE0B1
:1028000060E042E00E94F2388EEC9BE06BEF7AE0F1
:102810000E94F2458091A30D813019F58DE261E0AF
:102820000E94FF3D8DE89EE00E949F1B8DE89EE088
:1028300064E04FEF2FEF0FEF0E94E51D80E191E183
:1028400064E376E004C080E191E16AE476E00E940E
:10285000F54589EE9BE060E676E00E94BD35882371
:1028600091F38091640B62E140E020E00E941F0F31
:1028700060ED77E080E090E00E94E43C8DE260E073
:102880000E94FF3D85E090E09093AA0D8093A90DF2
:1028900081E08093CC0D86E00E94323E892B09F0C6
:1028A000ADC08091CC0D882361F00E946A3C60939A
:1028B000C80D7093C90D8093CA0D9093CB0D1092E3
:1028C000CC0D80916D0B882309F098C00E946A3C62
:1028D0002091C80D3091C90D4091CA0D5091CB0D7A
:1028E000621B730B840B950B2091690B30916A0B63
:1028F00040916B0B50916C0B26173707480759070F
:1029000008F07CC081E080936D0B80E191E16DE087
:102910007BE00E94F2450E946A3C2091690B309155
:102920006A0B40916B0B50916C0B621B730B840B09
:10293000950B28EE33E040E050E00E94C84980E16A
:1029400091E1BA01A9012AE030E00E94314580E11D
:1029500091E166EF7AE00E94F54562E370E080E085
:1029600090E00E94E43C0E94CB068EEC9BE061E08C
:102970000E9429398EEC9BE060E041E00E94F23831
:102980008EEC9BE060E27BE00E94F2450E946A3C94
:102990002091690B30916A0B40916B0B50916C0B3D
:1029A000621B730B840B950B28EE33E040E050E084
:1029B0000E94C8498EEC9BE0BA01A9012AE030E0F0
:1029C0000E9431458EEC9BE060E042E00E94F238CC
:1029D0008091640B0E940D0F8091640B60E040E0D9
:1029E00020E00E94470F68EE73E080E090E00E94D4
:1029F000E43C8EEC9BE060E00E94293982E00E947A
:102A0000323E019709F08BC080916D0B882309F449
:102A100083C010926D0B80E191E16EED7AE00E942F
:102A2000F54580E191E162EE7AE00E94F2450E9474
:102A30006A3C28EE33E040E050E00E94C84980E163
:102A400091E1BA01A9012AE030E00E94314580E11C
:102A500091E166EF7AE00E94F54562E370E080E084
:102A600090E00E94E43C8EEC9BE061E00E942939FA
:102A70000E94CB068EEC9BE060E042E00E94F238C0
:102A80008EEC9BE061E37BE00E94F2458091A20D19
:102A9000813009F041C08091640B61E140E020E0A9
:102AA0000E941F0F8DE261E00E94FF3D8DE89EE0D5
:102AB0000E949F1B8DE89EE064E04FEF2FEF0FEF29
:102AC0000E94E51D80E191E164E376E004C080E1CD
:102AD00091E16AE476E00E94F54589EE9BE060E6CC
:102AE00076E00E94BD35882391F38DE260E00E947C
:102AF000FF3D85E090E09093AA0D8093A90D0E9480
:102B0000CB068091640B0E940D0F8091640B60E0F6
:102B100040E020E00E94470F81E08093CC0D82E0EE
:102B20000E94323E892B09F0A2C08091CC0D8823EF
:102B300061F00E946A3C6093C80D7093C90D809348
:102B4000CA0D9093CB0D1092CC0D80916D0B882304
:102B500009F08DC00E946A3C2091C80D3091C90DCA
:102B60004091CA0D5091CB0D621B730B840B950BDA
:102B70002091690B30916A0B40916B0B50916C0B5B
:102B8000261737074807590708F071C081E080937E
:102B90006D0B80E191E163E47BE00E94F2450E94CD
:102BA0006A3C2091690B30916A0B40916B0B5091FC
:102BB0006C0B621B730B840B950B28EE33E040E02B
:102BC00050E00E94C84980E191E1BA01A9012AE0E0
:102BD00030E00E94314580E191E166EF7AE00E94A9
:102BE000F54562E370E080E090E00E94E43C0E94E2
:102BF000CB068EEC9BE061E00E9429398EEC9BE0D5
:102C000060E041E00E94F2388EEC9BE060E27BE005
:102C10000E94F2450E946A3C2091690B30916A0B38
:102C200040916B0B50916C0B621B730B840B950BDB
:102C300028EE33E040E050E00E94C8498EEC9BE073
:102C4000BA01A9012AE030E00E9431458EEC9BE0F8
:102C500060E042E00E94F23868EE73E080E090E0CD
:102C60000E94E43C8EEC9BE060E00E9429398201E6
:102C7000035A144FF80180816A2D40E020E00E9441
:102C80001F0FC401B3010E94E43CD8018C910E9443
:102C90000D0FF801808160E040E020E00E94470FC6
:102CA0008CEC9BE0BE016F5F7F4FAE014D5F5F4FCD
:102CB0000E943931882359F089819A818D5291403F
:102CC00030F085E090E09093AA0D8093A90DC65B4B
:102CD000DF4F0FB6F894DEBF0FBECDBFCF91DF91AF
:102CE0001F910F91FF90EF90DF90CF90BF90AF902A
:102CF0009F908F907F906F905F904F90089580E1AC
:102D000091E140E05BE460E070E00E94D64181E048
:102D10008093A20D1092A30D8093A40D1092A10D8B
:102D20000E94080D0E94350E0E946F0F0E94C20D76
:102D30000E94C90A0E942E0D0E946F0C0E942A0C4C
:102D40000E9411080E94EA0E84E068EC72E041E003
:102D500050E00E94F23982E090E09093AA0D8093B7
:102D6000A90D089581E08093120E6093EF0D1092EB
:102D7000100E1092110E089581E08093120E609350
:102D8000EF0D1092100E1092110E08952091EE0D7D
:102D900030E08091ED0D281B3109C9010895409163
:102DA000ED0D8091EE0D481718F02FEF3FEF0AC0A0
:102DB000E42FF0E0E353F24F8081282F30E04F5FA3
:102DC0004093ED0DC9010895E091ED0D8091EE0D58
:102DD000E81718F0EFEFFFEF06C0F0E0E353F24F13
:102DE0008081E82FF0E0CF01089508951092160E2B
:102DF0001092150E88EE93E0A0E0B0E08093170EDD
:102E00009093180EA093190EB0931A0E8CE79BE0C6
:102E10009093140E8093130E0895CF92DF92EF9249
:102E2000FF920F931F93CF93DF937C016B018A0175
:102E30008091120E8823A1F0C0E0D0E00DC0D70130
:102E4000ED91FC91D601AC0FBD1F0190F081E02DFA
:102E5000C7016C9119952196C017D10780F304C062
:102E6000CB01642F0E943F18C801DF91CF911F91C1
:102E70000F91FF90EF90DF90CF900895DF93CF9365
:102E80000F92CDB7DEB7FC0169838091120E8823C3
:102E9000C9F08091110E803238F081E090E0938388
:102EA000828320E030E015C08091100EE82FF0E022
:102EB000E051F24F998190838F5F8093100E809341
:102EC000110E05C0CE01019661E00E943F1821E07D
:102ED00030E0C9010F90CF91DF9108950F93062F35
:102EE0008091EF0D60EF7DE04091110E21E00E9496
:102EF000EA171092100E1092110E1092120E0F91EE
:102F0000089561E00E946E170895413208F040E292
:102F1000862F6DEC7DE00E94A1171092ED0D80933D
:102F2000EE0D089521E00E94851708951092ED0D91
:102F30001092EE0D1092100E1092110E0E94EF19C9
:102F40000895382F413210F040E042C080911F0EAA
:102F50008823E1F791E090931F0E2093210E8FEFCD
:102F600080938C0E1092470E41504093480E4F5F55
:102F70009093200E8091200E330F832B8093200E90
:102F80008091220E813041F41092220E8091200E09
:102F90008093BB0085EC01C085EE8093BC008091DE
:102FA0001F0E8130E1F38091470E841710F4409199
:102FB000470E20E030E00AC0FB01E20FF31FD90109
:102FC000A95DB14F8C9180832F5F3F4F2417A0F3F1
:102FD000842F08950F931F93582F122F413210F012
:102FE00081E04AC080911F0E8823E1F782E0809340
:102FF0001F0E0093210E8FEF80938C0E1092470EC0
:103000004093480EA7E2BEE0FB0102C081918D9380
:103010008E2F861B8417D0F31092200E8091200EE5
:10302000550F852B8093200E8091220E813041F424
:103030001092220E8091200E8093BB0085EC01C07F
:1030400085EE8093BC00112321F080911F0E823009
:10305000E1F380918C0E8F3F11F480E00DC08091E0
:103060008C0E803211F482E007C080918C0E803388
:1030700011F084E001C083E01F910F910895482F63
:10308000613210F081E0089580911F0E843011F0BC
:1030900082E0089560936A0EA9E4BEE0842F9C014B
:1030A000F90102C081918D938E2F841B8617D0F376
:1030B00080E008951F920F920FB60F920BB60F92F9
:1030C00011242F933F934F935F936F937F938F932D
:1030D0009F93AF93BF93EF93FF938091B90090E0DC
:1030E000887F90708036910509F4F2C08136910591
:1030F000CCF58832910509F47BC089329105B4F48E
:103100008031910509F46FC0813191053CF400973D
:1031100009F447C1089709F04FC165C0883191058E
:1031200009F466C0809709F047C182C080349105D8
:1031300009F4A4C08134910544F48033910509F465
:1031400082C0C89709F038C189C08035910509F45B
:1031500089C08835910509F496C08834910509F035
:103160002BC1AEC08839910509F413C18939910585
:10317000ECF48837910509F4ABC0893791054CF41C
:103180008836910509F4A4C08037910509F014C16F
:103190009FC08838910509F4FCC08039910509F475
:1031A0009DC08038910509F007C198C0803B91050A
:1031B00009F4C6C0813B91054CF4803A910509F4AD
:1031C0009FC0883A910509F0F7C0BAC0803C9105CC
:1031D00009F4E3C0883C910509F4DFC0883B910500
:1031E00009F0EAC0C2C08091200E8093BB00CFC01E
:1031F0009091470E8091480E981768F49091470E71
:10320000E92FF0E0E95DF14F80818093BB009F5F83
:103210009093470EBCC08091210E882309F44BC0C7
:1032200085ED8093BC008091BC0084FDFCCFC2C0C2
:1032300080E280938C0E85ED8093BC008091BC0071
:1032400084FDFCCFB7C080E380938C0E85ED809326
:10325000BC008091BC0084FDFCCFACC088E38093AF
:103260008C0E9BC08091470E9091BB00E82FF0E040
:10327000E95DF14F90838F5F8093470E9091470EE9
:103280008091480E82C08091470E9091BB00E82F3C
:10329000F0E0E95DF14F90838F5F8093470E80915E
:1032A000210E882341F085ED8093BC008091BC0005
:1032B00084FDFCCF7FC081E08093220E84EA6EC043
:1032C00085ED8093BC008091BC0084FDFCCF72C072
:1032D00083E080931F0E10928B0E59C080918B0E4D
:1032E000803208F056C080918B0E9091BB00E82F81
:1032F000F0E0E559F14F90838F5F80938B0E47C0CC
:1033000080918B0E803230F4E0918B0EF0E0E55925
:10331000F14F108285ED8093BC008091BC0084FD4C
:10332000FCCF10921F0E60918B0EE091250EF09154
:10333000260E8BE69EE070E0199510928B0E2DC044
:1033400084E080931F0E1092690E10926A0EE09135
:10335000230EF091240E199580916A0E882329F48A
:1033600081E080936A0E1092490E9091690EE92FC8
:10337000F0E0E75BF14F80818093BB009F5F90930B
:10338000690E9091690E80916A0E981710F485EC81
:1033900001C085E88093BC000FC085EC8093BC0021
:1033A00009C010928C0E85ED8093BC008091BC000A
:1033B00084FDFCCF10921F0EFF91EF91BF91AF9152
:1033C0009F918F917F916F915F914F913F912F913D
:1033D0000F900BBE0F900FBE0F901F90189510927C
:1033E0001F0E81E08093210E1092220E84E161E095
:1033F0000E94FF3D85E161E00E94FF3DE9EBF0E0C6
:1034000080818E7F808380818D7F808388E480931C
:10341000B80085E48093BC000895882319F48CB526
:10342000806202C08CB58F7D8CBD08959CB5937F62
:10343000982B9CBD08952CB5382F33702C7F322BE0
:103440003CBD2DB590E095958795959587958170B4
:103450002E7F822B8DBD089585E361E00E94FF3DA4
:1034600085E361E00E944C3D8CB580618CBD8CB5DC
:1034700080648CBD84E361E00E944C3D83E361E0A5
:103480000E944C3D0895FC011382128288EE93E065
:10349000A0E0B0E084839583A683B7838CE89BE0AB
:1034A00091838083128E118E14860895FC018CE81E
:1034B0009BE0918380830895DF93CF930F92CDB7E4
:1034C000DEB7FC016983A081B18112962D913C91F8
:1034D0001397BE016F5F7F4F41E050E0F9011995EE
:1034E0000F90CF91DF910895DC015996ED91FC91F9
:1034F0005A97309719F420E030E018C023893489B6
:103500004589568982859385A485B585281B390B05
:103510004A0B5B0B2030B0E83B07B0E04B07B0E054
:103520005B0720F02FEF3FE740E050E0C90108952E
:10353000DC015996ED91FC915A97309711F480E097
:1035400008958581811181E00895CF93DF93EC0187
:10355000898D9A8D009741F00E944D23898D9A8D17
:103560000E94413F1A8E198EDF91CF910895FC0180
:10357000818D928D009711F00E9403230895FC0124
:10358000818D928D009719F420E030E003C00E94F5
:1035900024249C01C9010895DF93CF930F92CDB7E6
:1035A000DEB7FC01818D928D009749F0BE016F5FFF
:1035B0007F4F41E050E00E942424019719F02FEF43
:1035C0003FEF03C08981282F30E0C9010F90CF91D0
:1035D000DF910895EF92FF920F931F93DF93CF93A4
:1035E0000F92CDB7DEB77C01DC0159968D919C918D
:1035F0005A97009719F400E010E01FC0BE016F5FFA
:103600007F4F41E050E00E942424019719F00FEF12
:103610001FEF13C08981082F10E0D7015996ED9153
:10362000FC915A9742855385648575854150504079
:1036300060407040CF010E943D22C8010F90CF91A1
:10364000DF911F910F91FF90EF900895CF93DF933B
:10365000EC01E98DFA8D309761F013821282CF016F
:103660000E9469269C01E98DFA8D82819381892BC4
:1036700031F081E090E09B838A8320E030E0C90153
:10368000DF91CF910895EF92FF920F931F93CF9305
:10369000DF93EC01F62EE72E8A011B821A8288EE58
:1036A00093E0A0E0B0E08C839D83AE83BF838CE881
:1036B0009BE0998388838DE190E00E94A43E9A8FDD
:1036C000898F009791F0DC018F2D9E2D9C01F901CF
:1036D0008DE101900D928150E1F7CE010C96B80179
:1036E0004CE050E00E942202188EDF91CF911F9192
:1036F0000F91FF90EF9008951092920E1092930EFA
:103700001092960E1092980E82E090E0A0E0B0E049
:1037100080939A0E90939B0EA0939C0EB0939D0E57
:103720001092B10E1092BB0E1092BA0E8CE99BE073
:103730009093B90E8093B80E1092BD0E08958B969B
:103740000E944D2308952F923F924F925F926F9265
:103750007F928F929F92AF92BF92CF92DF92EF9221
:10376000FF920F931F93DF93CF93CDB7DEB7C7546C
:10377000D0400FB6F894DEBF0FBECDBF582E492EF5
:10378000FB013A01190185A596A5998B888B2CE937
:103790003BE03F872E8787A58A8B80A98B8B81A9E9
:1037A00092A9A3A9B4A98C8B9D8BAE8BBF8B85A945
:1037B00096A9A7A9B0AD888F998FAA8FBB8F81AD2D
:1037C00092ADA3ADB4AD8C8F9D8FAE8FBF8F85AD05
:1037D00088A3FE9681919191A191B19189A39AA319
:1037E000ABA3BCA381919191A191B1918DA39EA313
:1037F000AFA3B8A7808191819AA789A71EA61DA60D
:103800003CA72BA718AA7A018E01025F1F4F3BE24B
:10381000A32EB12CAC0EBD1E4E010894811C911C30
:1038200035C0D7018C918F3221F40894E11CF11C32
:103830002DC0422F4E194D3008F04CE0C42EDD242F
:10384000C401B701A6010E942202F401EC0DFD1D86
:103850001082C5010E944D23C501B801A40121E0D9
:103860000E949528882351F4E52DF42D13821282AD
:103870008CE99BE091838083158266C0EC0CFD1C73
:10388000C8010E944D23C50158018C01C7016FE298
:1038900070E00E9417029C01009719F6E618F708DD
:1038A000F101F182E082E52DF42DD80112968D917F
:1038B0009C911397938382838CE99BE0918380830F
:1038C00014968C911497848315968C911597858303
:1038D00016962D913D914D915C91199726833783D2
:1038E000408751871A962D913D914D915C911D977E
:1038F00022873387448755871E962D913D914D91A0
:103900005C91519726873787408B518B52968C91CB
:103910005297828B53962D913D914D915C91569784
:10392000238B348B458B568B57962D913D914D9122
:103930005C915A97278B308F418F528F5B968D9178
:103940009C915C97948F838F852D942DC95BDF4F5D
:103950000FB6F894DEBF0FBECDBFCF91DF911F91A0
:103960000F91FF90EF90DF90CF90BF90AF909F901E
:103970008F907F906F905F904F903F902F90089521
:103980009F92AF92BF92CF92DF92EF92FF920F93EE
:103990001F93DF93CF93CDB7DEB7C657D0400FB696
:1039A000F894DEBF0FBECDBFC82E992E8A01D22E4D
:1039B00043E0A42EB12CAC0EBD1EC501A8019E0192
:1039C0002F5F3F4F0E94A31BE980FA80E00EF11E9B
:1039D000F70180814CE95BE02885882309F03FC02E
:1039E0008D819E819BA38AA359A348A38F818CA319
:1039F0002DA389859A85AB85BC858EA39FA3A8A797
:103A0000B9A78D859E85AF85B8898AA79BA7ACA7E6
:103A1000BDA789899A89AB89BC898EA79FA7A8ABC6
:103A2000B9AB8D898AAB8E899F89A88DB98D8BABF7
:103A30009CABADABBEAB8A8D9B8DAC8DBD8D8FAB82
:103A400098AFA9AFBAAF8E8D9F8D9CAF8BAF8C2DE9
:103A5000992DBE01605E7F4F46E55BE09FC0FE0191
:103A6000FF96118210825EAF4DAFFE01EE5BFF4FFD
:103A700010822223A9F02250CE01CD96223048F4A4
:103A800068EB7EE0A7012D2D0E949528882381F404
:103A900007C0B501A7012D2D0E949528882329F480
:103AA0008C2D992D0E94431A7BC0C5010E944D2385
:103AB000F6E0DF2259F0FE01E05BFF4F40815181CB
:103AC00062817381CE01CD960E943D229E01265ACD
:103AD0003F4FFE01FF9680819181F901938382839C
:103AE0008CE99BE091838083FE01EF5BFF4F808137
:103AF000F9018483FE01EE5BFF4F8081F90185832C
:103B0000FE01ED5BFF4F80819181A281B381F901BC
:103B100086839783A087B187FE01E95BFF4F808191
:103B20009181A281B381F90182879387A487B587A8
:103B3000FE01E55BFF4F80819181A281B381F90194
:103B400086879787A08BB18BFE01E15BFF4F808159
:103B5000F901828BFE01E05BFF4F80819181A281A0
:103B6000B381F901838B948BA58BB68BFE01EC5A44
:103B7000FF4F80819181A281B381F901878B908F62
:103B8000A18FB28FFE01E85AFF4F80819181F90128
:103B9000948F838F8C2D992DB901A7010E94431B0F
:103BA0008C2D992DCA58DF4F0FB6F894DEBF0FBE8B
:103BB000CDBFCF91DF911F910F91FF90EF90DF90DC
:103BC000CF90BF90AF909F900895EF920F931F9367
:103BD000CF93DF93EC01362F542F722FE02E61E04C
:103BE000432F252F072F0E94D8208823D1F08E0144
:103BF000035F1F4FC801BE0141E00E94362A88239F
:103C000039F4C801BE0140E00E94362A882349F0F9
:103C1000CE018B96B8010E948325882319F081E09C
:103C200001C080E0DF91CF911F910F91EF90089537
:103C3000382F8091D70E8F3F31F43EBD0DB407FE73
:103C4000FDCF8EB50895F894A091D80EB091D90EFD
:103C50005091DA0E252F2095E091DB0EF091DC0ECD
:103C60004091DD0E642F609590E08C9182238C93BF
:103C700037FF03C08081842B02C08081862380832C
:103C80008C91852B8C939F5F983011F0330FEDCF83
:103C900000000000000000008C9128232C937894F1
:103CA00008958091D70E8F3F31F48EBD0DB407FE7D
:103CB000FDCF2EB530C0F894E091DB0EF091DC0E14
:103CC00080819091DD0E892B8083E091D80EF09158
:103CD000D90E6091DA0EA091DE0EB091DF0E8091C8
:103CE000E00E482F50E0762F709530E020E0808184
:103CF000862B8083220F8C9190E084239523892B3F
:103D000009F02160808187238083000000003F5FED
:103D1000383069F77894822F08950F931F93CF93CB
:103D2000DF938B010E946A3CEB010E94511E8F3F82
:103D300011F481E008C00E946A3C6C1B7D0B601787
:103D4000710798F380E0DF91CF911F910F91089553
:103D5000FC01673020F086E1858380E008956330C0
:103D6000B9F0643028F4613069F0623070F407C053
:103D70006530A1F0653078F06630A9F412C084E0B7
:103D800090E011C080E090E00EC085E090E00BC0B4
:103D900081E090E008C086E090E005C082E090E01D
:103DA00002C083E090E00E941B1A81E00895FC01AC
:103DB000848160E00E94FF3D0895FC01848161E000
:103DC0000E94FF3D0895CF92DF92EF92FF920F93F2
:103DD0001F93CF93DF937C016A01FC0184858823C4
:103DE00019F40FEF1FEF30C000E010E040E050E0AA
:103DF000212F332727FD3A95F601E40FF51F808127
:103E000090E0282739273070C901F4E0959587950F
:103E1000FA95E1F782279327102F00270827192703
:103E20009C01322F22273295307F0227132725E06D
:103E3000880F991F2A95E1F7082719274F5F5F4FD1
:103E4000F2E040305F07A1F6862F0E94181EC0E006
:103E5000D0E0F601EC0FFD1F80810E94181E219614
:103E600082E0C030D807A9F7812F992787FD9A955E
:103E70000E94181E802F0E94181E0E94511EF701DA
:103E800082878F71853011F481E007C081E1F701ED
:103E90008583C7010E94DD1E80E0DF91CF911F91D5
:103EA0000F91FF90EF90DF90CF9008950F931F93A5
:103EB000CF93DF93EC010E946A3C8B0109C00E9402
:103EC0006A3C601B710B6D52714010F08FE00AC0AC
:103ED0000E94511E8A878F3F91F38E3F11F481E03B
:103EE00006C08DE08D83CE010E94DD1E80E0DF9153
:103EF000CF911F910F910895CF93DF93EC018E81A5
:103F0000882319F40FC00E94511E8F819885019655
:103F100098878F83019782509240A8F3CE010E9428
:103F2000DD1E1E82DF91CF910895DF92EF92FF9206
:103F30000F931F93CF93DF93EC01D62E79018A0163
:103F40000E947C1FCE010E94D71ECE016CE271E060
:103F50000E948D1E8D2D80640E94181E812F99272E
:103F6000AA27BB270E94181EC801AA27BB270E94A8
:103F7000181EBB27A12F902F8F2D0E94181E8E2D4B
:103F80000E94181EDD2011F485E906C088E0D816CD
:103F900011F487E801C08FEF0E94181E10E00E9404
:103FA000511E8A8787FF02C01150C9F7DF91CF9158
:103FB0001F910F91FF90EF90DF900895CF92DF92C5
:103FC000EF92FF920F931F93CF93DF93EC017A014F
:103FD0008B016901411551056105710511F482E1FB
:103FE00033C08B85833039F039E0EE0CFF1C001FA5
:103FF000111F3A95D1F7CE0168E1A80197010E94FF
:10400000951F882311F084E01FC0CE016EEFA6013A
:104010000E94E31E8823C9F0CE0168E572E00E9489
:104020008D1E882311F485E10FC0CE016DE020E0E4
:1040300030E040E050E00E94951F882321F40E9468
:10404000511E882379F084E18D83CE010E94DD1E0C
:1040500080E0DF91CF911F910F91FF90EF90DF9063
:10406000CF900895CE010E94DD1E81E0F2CF6F92C5
:104070007F928F929F92AF92BF92CF92DF92EF92F8
:10408000FF920F931F93CF93DF93EC015A016B01C3
:10409000390148010115110509F46AC0C801820FF0
:1040A000931F8150924008F05EC08E81882371F08A
:1040B00088819981AA81BB81481759076A077B07C4
:1040C00029F48F8198856816790650F5A882B982FF
:1040D000CA82DB828B85833039F0E9E0AA0CBB1CF5
:1040E000CC1CDD1CEA95D1F7CE0161E1A60195015A
:1040F0000E94951F882319F083E08D8334C0CE0180
:104100000E94561F882379F118861F8281E08E83D2
:1041100007C00E94511E8F819885019698878F83D2
:104120008F81988586159705A0F300E010E008C000
:104130000E94511EF701E00FF11F80830F5F1F4F98
:1041400008151905A8F32F813885280D391D3887E2
:104150002F838985882319F02050324048F0CE0102
:104160000E947C1F05C0CE010E94DD1E80E001C0C0
:1041700081E0DF91CF911F910F91FF90EF90DF9041
:10418000CF90BF90AF909F908F907F906F90089549
:10419000EF92FF920F931F93790120E030E000E04F
:1041A00012E00E9437201F910F91FF90EF90089529
:1041B000BF92CF92DF92EF92FF920F931F93CF9314
:1041C000DF93EC01B62E1E2D1B8619861E821D82E2
:1041D0001C864C832093E10E0093E20EE092D70EF2
:1041E0000E946A3C6B018C8161E00E944C3DCE01D3
:1041F0000E94DD1E1F3F09F462C08091E20E60E064
:104200000E944C3D8091E10E61E00E944C3D809106
:10421000D70E61E00E944C3DE091D70E2E2F332740
:1042200027FD3095F901E95EFD4FE491F0E0EE0FD6
:10423000FF1FED51FE4F859194919093D90E80937D
:10424000D80E235A3D4FF90184918093DA0EE09104
:10425000E10E2E2F332727FD3095F901E95EFD4F42
:10426000E491F0E0EE0FFF1FED51FE4F8591949128
:104270009093DC0E8093DB0E235A3D4FF90184911D
:104280008093DD0EE091E20E2E2F332727FD30952F
:10429000F901E95EFD4FE491F0E0EE0FFF1FE350FE
:1042A000FE4F859194919093DF0E8093DE0E235AFA
:1042B0003D4FF90184918093E00E10E006C00E940A
:1042C0002C1A83E00E941B1AF8CF8FEF0E94181E51
:1042D0001F5F1A30D1F7CE010E94D71E09C00E947D
:1042E0006A3C6C197D09615D774010F081E05AC02D
:1042F000CE0160E020E030E040E050E00E94951FF9
:10430000182F8A87813059F7CE0168E02AEA31E018
:1043100040E050E00E94951F82FF02C01B870DC045
:1043200010E00E94511E8A871F5F1430D1F78A3A2D
:1043300011F082E037C082E08B878B85823021F0DC
:10434000EE24FF2487010FC0E12CF12C012DF0E4B5
:104350001F2F09C00E946A3C6C197D09615D77407E
:1043600010F088E01FC0CE0167E320E030E040E0BD
:1043700050E00E94951FCE0169E2A80197010E94BA
:10438000951F8A87882331F78B858230F1F4CE011F
:104390006AE320E030E040E050E00E94951F88236F
:1043A00039F086E08D83CE010E94DD1E80E01AC0C8
:1043B0000E94511E807C803C11F483E08B870E9418
:1043C000511E0E94511E0E94511ECE010E94DD1EF0
:1043D0008091D70E8F3F11F081E004C0CE016B2D8C
:1043E0000E94A81EDF91CF911F910F91FF90EF9037
:1043F000DF90CF90BF900895CF93DF93EC01DB0166
:1044000080E090E020E2FD01E80FF91F2083019693
:104410008B309105C1F757E040E021C02E3219F0F2
:104420008DEA91E007C05A3019F15AE048E017C010
:104430003217F1F0FC01019634913323C9F7541778
:10444000B8F02132A8F02F3798F4822F81568A31A4
:1044500008F42052FD01E40FF11D20834F5F2991E4
:104460002223E1F690E08C91803219F091E001C0B6
:1044700090E0892FDF91CF9108956F927F928F9274
:104480009F92AF92BF92CF92DF92EF92FF920F93E3
:104490001F93CF93DF93EC017A018B012D812223AF
:1044A00009F480C08B899C89AD89BE8984179507E2
:1044B000A607B70708F476C085C0E114F10401052A
:1044C000110549F41E821F82188619861A861B86DA
:1044D0001C861D8665C02A853B854C855D85EB8DD8
:1044E000FC8D858590E00996215030404040504039
:1044F00039014A01082E04C09694879477946794F2
:104500000A94D2F72F5F3F4F4F4F5F4F0894E10857
:10451000F108010911095701680104C0D694C79434
:10452000B794A7948A95D2F70894E11CF11C011D59
:10453000111DA614B704C804D90428F021153105AB
:104540004105510549F48F89988DA98DBA8D8E83C7
:104550009F83A887B98716C0A618B708C808D908C6
:1045600011C04E815F81688579858B8D9C8D94010A
:104570000E94172C0894A108B108C108D10888230B
:1045800031F410C086E0882E912C8C0E9D1EA11453
:10459000B104C104D10429F7EA86FB860C871D8784
:1045A00081E001C080E0DF91CF911F910F91FF90DA
:1045B000EF90DF90CF90BF90AF909F908F907F90C3
:1045C0006F900895223009F078CFE6CFCF93DF9334
:1045D000EC01462F6E857F85888999890E94FB2989
:1045E000882319F420E030E00AC08A89282F30E0BF
:1045F00095E0220F331F9A95E1F72B51314FC901F6
:10460000DF91CF9108950F931F93CF93DF938C0188
:10461000FC0185818823D9F1848187FF35C0C801D9
:1046200061E00E94E622EC01009789F1F8018581A2
:10463000823040F483899489A589B6898C8F9D8FB7
:10464000AE8FBF8FF8018789908D9B8F8A8F878966
:10465000908DA18DB28DCD01AA27BB279D8B8C8B10
:10466000E091E30EF091E40E309751F0BE016A5EE6
:104670007F4FCE0148961995888D998D9B8B8A8B9B
:10468000F80184818F7784830E949C2901C080E097
:10469000DF91CF911F910F910895CF93DF93EC019C
:1046A0000E940323882311F01D8281E0DF91CF91C6
:1046B00008956F927F928F929F92AF92BF92CF9206
:1046C000DF92EF92FF920F931F93DF93CF9300D06F
:1046D0000F92CDB7DEB77C015A016B01DC01159654
:1046E0008C911597813009F08FC014968C9181FFC1
:1046F0008BC09EC00097A105B10511F481E085C073
:10470000F7016284738484849584C701B601A5018E
:104710000E943D22882309F477C0D7015B968D91D2
:104720009C915C97A114B104C104D10489F45796FB
:104730004D915D916D917C915A970E948A2C8823AE
:1047400009F462C0F701178A108E118E128E3DC0D7
:10475000D70116964D915D916D917C9119979E01AF
:104760002F5F3F4F0E94172C882309F44DC0D701BB
:104770005B96ED91FC915C9749815A816B817C81BC
:104780008789803129F088EF9FEFAFEFBFE004C049
:1047900088EF9FEFA0E0B0E0481759076A077B0752
:1047A000A0F4CF010E948A2C882371F1F701468181
:1047B000578160857185838D948D0FEF1FEF2FEFEB
:1047C0003FE00E947B2B8823F9F0D7015396AD92EE
:1047D000BD92CD92DC92569714968C911497806876
:1047E00014968C93C7010E940323882369F0B601B5
:1047F000A5016A147B048C049D0410F4B401A30188
:10480000C7010E943D2201C080E00F900F900F90E1
:104810000F90CF91DF911F910F91FF90EF90DF905C
:10482000CF90BF90AF909F908F907F906F900895A2
:10483000F70183899489A589B68984179507A60706
:10484000B70708F057CFE0CF2F923F924F925F9279
:104850006F927F928F929F92AF92BF92CF92DF9290
:10486000EF92FF920F931F93CF93DF93EC012A01F6
:104870008D81882309F4C6C08C8180FFC3C0D8C055
:1048800025014E185F084B0176E0272E312C2C0EA7
:104890003D1E3201B1C02A853B854C855D856FEF99
:1048A000A62E61E0B62EA222B3228D8179018A0163
:1048B00099E016950795F794E7949A95D1F7EB8DC3
:1048C000FC8D823049F4428D538D648D758D4E0D73
:1048D0005F1D601F711F3FC0D480DA94DE20A114D9
:1048E000B104D9F4DD20C9F4211531054105510584
:1048F00049F48F89988DA98DBA8D8E839F83A8875F
:10490000B9870BC04E815F8168857985CF019101A0
:104910000E94172C882309F475C0EB8DFC8D4E8105
:104920005F816885798542505040604070400584C1
:1049300004C0440F551F661F771F0A94D2F786855F
:104940009785A089B189480F591F6A1F7B1F4D0D9C
:10495000511D611D711D80E092E08A199B09630160
:104960008615970508F46C018C8186FD06C080E0F1
:10497000C81682E0D80609F073C080916E0B909142
:104980006F0BA091700BB091710B481759076A0714
:104990007B0709F465C08091E5109091E6109501C0
:1049A000860174010E943720882361F18C0C9D1CC4
:1049B00012C095012B51314FA9014C0D5D1DD40141
:1049C000F90102C081918D93E417F507D9F7E21B35
:1049D000F30B8E0E9F1E960140E050E08A859B856A
:1049E000AC85BD85820F931FA41FB51F8A879B8747
:1049F000AC87BD876C187D086114710409F04BCF3A
:104A0000A20102C04FEF5FEFCA01DF91CF911F916A
:104A10000F91FF90EF90DF90CF90BF90AF909F905D
:104A20008F907F906F905F904F903F902F90089560
:104A3000AB88BC88CD88DE88EA84FB840C851D8524
:104A40009A0140E050E0D601C5018E199F09A00BE4
:104A5000B10B82179307A407B50708F411CF13CF42
:104A6000CB01BA0140E00E94FB29882309F0A1CFC5
:104A7000C9CFCF92DF92EF92FF920F931F93DF93F4
:104A8000CF930F92CDB7DEB76C01FC0185818230E8
:104A900070F0E284F38404851585C601BE016F5F62
:104AA0007F4F41E050E00E942424019769F020E00C
:104AB00030E0C9010F90CF91DF911F910F91FF90CE
:104AC000EF90DF90CF900895F60182859385A485BD
:104AD000B5854F96A11DB11D82879387A487B587A1
:104AE000F5E016950795F794E794FA95D1F78E2D92
:104AF0008F70282F30E0E5E0220F331FEA95E1F7B1
:104B00002B51314FD6CF0F931F93CF93DF93EC01EF
:104B10008B018D81882309F041C0FB018789803199
:104B2000B1F482E08D831F8A188E198E1A8E808DC3
:104B3000918DA0E0B0E045E0880F991FAA1FBB1F30
:104B40004A95D1F78B8B9C8BAD8BBE8B15C0803279
:104B500029F583E08D83FB01428D538D648D758D26
:104B60004F8B588F698F7A8F9E012D5E3F4FC80102
:104B70000E94E32C882391F01C8F0B8F81E08C83A3
:104B80001E821F82188619861A861B861C861D8621
:104B90001E861F86188A198A1A8A01C080E0DF9152
:104BA000CF911F910F9108951F93CF93DF93EC0145
:104BB000142FE62FF0E075E0EE0FFF1F7A95E1F776
:104BC000EB51F14F8385817121F0842F827409F0BC
:104BD00054C06A8B80916E0B90916F0BA091700BFB
:104BE000B091710B8E879F87A88BB98B848995892B
:104BF000A0E0B0E0BC0155274427828D938DA0E052
:104C0000B0E0482B592B6A2B7B2B4F8B588F698F29
:104C10007A8F838590E088719070009751F4848D2D
:104C2000958DA68DB78D8B8B9C8BAD8BBE8B81E0CC
:104C30000CC0409711F59E012D5E3F4F8B8D9C8DD2
:104C40000E94E32C8823C9F084E08D83812F8F702C
:104C50008C831E821F82188619861A861B861C86E4
:104C60001D8616FD02C081E009C0CE0140E050E083
:104C700060E070E00E94592301C080E0DF91CF9195
:104C80001F910895CF93DF93EC019C012A5F3F4F62
:104C90008B8D9C8D41E050E060E070E00E94522DD1
:104CA0008823A1F08F89988DA98DBA8D0097A105D1
:104CB000B10559F48E819F81A885B9858F8B988F16
:104CC000A98FBA8F8C8180688C8381E0DF91CF912E
:104CD00008952F923F924F925F927F928F929F9270
:104CE000AF92BF92CF92DF92EF92FF920F931F93FA
:104CF000DF93CF9300D000D0CDB7DEB76C01162F75
:104D0000072F5E834D83DC0115968C9115978130BA
:104D100009F070C114968C9181FF6CC18EC1F601AF
:104D2000438954896589768982859385A485B5856B
:104D300084179507A607B70731F0C6010E943D22E8
:104D4000882309F457C1812F902F9C0129012D80C0
:104D50003E8017C1D6015B96ED91FC915C97DA011C
:104D6000C90119E0B695A795979587951A95D1F73A
:104D700074807A9478227FEF872E71E0972E8222BA
:104D80009322772009F04EC08114910409F04AC0A3
:104D9000D60116964D915D916D917C9119974115B3
:104DA00051056105710581F457968D919D910D9086
:104DB000BC91A02D0097A105B10549F1F6018683AC
:104DC0009783A087B1872EC0CF019E012F5F3F4FF1
:104DD0000E94172C882309F414C129813A814B8140
:104DE0005C81D6015B96ED91FC915C97878980315F
:104DF00029F088EF9FEFAFEFBFE004C088EF9FEF8F
:104E0000A0E0B0E0281739074A075B0730F0C60179
:104E10000E944226882331F4EDC0F60126833783B1
:104E20004087518780E092E08819990951018215E5
:104E3000930508F45C01D6015B96ED91FC915C97BB
:104E40001696ED90FD900D911C9119978EEF9FEFA6
:104E5000AFEFBFEFE80EF91E0A1F1B1F058404C049
:104E6000EE0CFF1C001F111F0A94D2F78685978550
:104E7000A089B189E80EF91E0A1F1B1FE70CF11C5F
:104E8000011D111D90E0A91692E0B90651F580911F
:104E90006E0B90916F0BA091700BB091710B8E15F2
:104EA0009F05A007B10761F48FEF9FEFAFEFBFEF52
:104EB00080936E0B90936F0BA093700BB093710B5C
:104EC0008091E5109091E610B801A70192010E942F
:104ED000DE1F882309F48EC0A0E0B2E04A0E5B1EFC
:104EE0003EC08114910409F5F6012285338544857D
:104EF000558583899489A589B689281739074A0772
:104F00005B0798F00E949C29882309F473C0E09203
:104F10006E0BF0926F0B0093700B1093710B8091DE
:104F2000E71081608093E71008C0C801B70141E035
:104F30000E94FB29882309F45DC094012B51314F55
:104F4000A9014A0D5B1DD201F90102C08D91819327
:104F5000E417F507D9F7E21BF30B4E0E5F1E2A1874
:104F60003B08950140E050E0F60182859385A485D9
:104F7000B585820F931FA41FB51F82879387A487CF
:104F8000B587D6011A962D913D914D915C911D9753
:104F90002114310409F0DECE53968D919D910D9030
:104FA000BC91A02D82179307A407B50748F4F6011A
:104FB000238B348B458B568B84818068848311C00E
:104FC0008091E30E9091E40E892B59F08D819E81A2
:104FD000892B39F0D60114968C9114978068149619
:104FE0008C93F601848183FF0EC0C6010E940323C7
:104FF000882349F481E090E0D60113969C938E9328
:1050000012971E821D828D819E8126960FB6F8947E
:10501000DEBF0FBECDBFCF91DF911F910F91FF90EB
:10502000EF90DF90CF90BF90AF909F908F907F9048
:105030005F904F903F902F90089582FD70CE83CE69
:10504000DF93CF930F92CDB7DEB76983BE016F5F59
:105050007F4F41E050E00E9469260F90CF91DF9191
:105060000895DF92EF92FF920F931F93CF93DF93F8
:10507000EC010E944226882309F44EC0EB8DFC8D82
:10508000EE80FF80088519858EEF9FEFAFEFBFEFB1
:10509000E80EF91E0A1F1B1F058404C0EE0CFF1C3E
:1050A000001F111F0A94D2F786859785A089B189C0
:1050B000E80EF91E0A1F1B1FD4800894E108F108AE
:1050C000010911090BC0C801B7016D0D711D811DCA
:1050D000911D0E94D7298823F9F0DA94DD2099F7F1
:1050E000EB8DFC8D20E032E040E050E0058404C010
:1050F000220F331F441F551F0A94D2F78B899C89B6
:10510000AD89BE89820F931FA41FB51F8B8B9C8B0B
:10511000AD8BBE8B81E001C080E0DF91CF911F910C
:105120000F91FF90EF90DF9008956F927F928F9292
:105130009F92AF92BF92CF92DF92EF92FF920F9326
:105140001F93DF93CF93CDB7DEB72B970FB6F894AD
:10515000DEBF0FBECDBF5C016B01822EDC01159658
:105160008C91882309F0D2C0CA018E010F5F1F4FB6
:10517000B8010E94FC21882309F4C8C0F601838D80
:10518000948DD5015C969C938E935B9716821782C3
:1051900010861186D6011A961D921D921D921C92A0
:1051A0001D979924380141C0C6010E943925FC0190
:1051B000009709F4ABC085E016950795F794E7943E
:1051C0008A95D1F71E2D1F708081882311F0853EAE
:1051D000D1F4992091F4D50152961C9352972091C5
:1051E0006E0B30916F0B4091700B5091710B1E96AE
:1051F0002D933D934D935C9351978081882399F42F
:105200009924939421C0C301BF014BE050E00E9458
:105210000A02009751F4882D8073803309F476C018
:10522000C501612F6FC099249394F601E284F38441
:105230000485158583899489A589B689E816F906B8
:105240000A071B0708F4B0CF882D8271823109F05C
:105250005DC0992041F0C50161E00E94E6228C0109
:10526000009789F453C0D60115968C91823009F4C9
:105270004DC0C6010E943128882309F447C0F501BA
:10528000128A05EE1EE080E2D8011D928A95E9F7A8
:10529000D801FE0131968BE001900D928150E1F72B
:1052A000E091E30EF091E40E309739F0B801625FBF
:1052B0007F4FC8014096199509C081E298E2F80134
:1052C000918B808B80E098E097878687D8015096F5
:1052D0008D919C91519753969C938E93529759968A
:1052E0009C938E9358971E968D919C911F975796DD
:1052F0009C938E9356970E949C29882339F0C50170
:10530000F5016289482D0E94D42501C080E02B96CA
:105310000FB6F894DEBF0FBECDBFCF91DF911F91C6
:105320000F91FF90EF90DF90CF90BF90AF909F9044
:105330008F907F906F9008958091E710882399F166
:1053400040916E0B50916F0B6091700B7091710BCF
:105350008091E5109091E61025EE3EE00E94DE1F60
:10536000882319F14091E8105091E9106091EA10FA
:105370007091EB10411551056105710591F0809117
:10538000E5109091E61025EE3EE00E94DE1F882396
:1053900061F01092E8101092E9101092EA10109249
:1053A000EB101092E71081E0089580E00895EF92ED
:1053B000FF920F931F937B018C010E949C298823ED
:1053C000A9F0E5EEFEE0119280E1E53EF807D9F79D
:1053D000E0926E0BF0926F0B0093700B1093710BB9
:1053E0008091E71081608093E71081E01F910F9119
:1053F000FF90EF900895DF92EF92FF920F931F932B
:105400007B018C01D42E80916E0B90916F0BA0913B
:10541000700BB091710B8E159F05A007B107C1F0FD
:105420000E949C298823D9F08091E5109091E61084
:10543000B801A70125EE3EE00E94C820882379F03C
:10544000E0926E0BF0926F0B0093700B1093710B48
:105450008091E7108D298093E71081E001C080E002
:105460001F910F91FF90EF90DF9008958F929F9280
:10547000AF92BF92CF92DF92EF92FF920F931F9362
:10548000CF93DF936C01142F7093E6106093E510B7
:10549000442321F488249924540140C0453008F065
:1054A0001CC160E070E080E090E040E00E94FB29D9
:1054B000882309F412C1C12FD0E02197FE0174E0C6
:1054C000EE0FFF1F7A95E1F7EB51F14FE254FE4FDB
:1054D0008081EE5BF14090E08F779070892B09F02E
:1054E000FCC0E653FE4F80819181A281B381843656
:1054F0009105A105B10508F4F0C064E0CC0FDD1FF3
:105500006A95E1F7C555DF4E88809980AA80BB80F7
:1055100081149104A104B10409F4DFC0C501B401F0
:1055200040E00E94FB29882309F4D7C08091F00E47
:105530009091F10E8050924009F0CFC02091F50E6D
:10554000222309F4CAC08091F30E9091F40E892BA6
:1055500009F4C3C08091F20E882309F4BEC0F6019D
:10556000228B8091F20E8483158661E070E007C083
:105570004F5FF60145874150483008F0AEC0F60154
:105580004585848190E09B01042E02C0220F331FC9
:105590000A94E2F78217930759F72091FB0E309196
:1055A000FC0E2115310519F040E050E008C02091B3
:1055B000090F30910A0F40910B0F50910C0FF6011B
:1055C0002583368347835087E090F30EF090F40EE6
:1055D00000E010E0E80CF91C0A1D1B1DE38AF48AA8
:1055E000058B168B8091F60E9091F70E918F808F20
:1055F0006091F50E70E080E090E00E949D496E0D94
:105600007F1D801F911FF601628F738F848F958F8E
:105610002091F60E3091F70E55E0220F331F5A9568
:10562000E1F721503E4F232F3327269540E050E0ED
:10563000260F371F481F591F26873787408B518BEE
:105640008091F80E9091F90E009719F0A0E0B0E06B
:1056500008C08091050F9091060FA091070FB0919F
:10566000080F85017401E21AF30A040B150BA80157
:105670009701280F391F4A1F5B1FF601058404C0DC
:1056800056954795379527950A94D2F72187328703
:1056900043875487253FFFE03F07F0E04F07F0E0E6
:1056A0005F0710F48CE006C0255F3F4F404050403C
:1056B00028F480E1F601878B81E010C08091110F02
:1056C0009091120FA091130FB091140FF601828FD9
:1056D000938FA48FB58F80E2EECF80E0DF91CF91E2
:1056E0001F910F91FF90EF90DF90CF90BF90AF9000
:1056F0009F908F9008954F925F926F927F928F92BA
:105700009F92AF92BF92CF92DF92EF92FF920F9350
:105710001F93CF93DF93EC016A017B0128013901CC
:10572000423051056105710508F46FC089859A857D
:10573000AB85BC850196A11DB11D84179507A607F1
:10574000B70708F462C02B893C894D895E898F892F
:10575000803129F499278F2D7E2D6D2D09C0C70129
:10576000B60117E096958795779567951A95D1F7C5
:105770004B015C01820E931EA41EB51E80916E0B20
:1057800090916F0BA091700BB091710B88169906D8
:10579000AA06BB0639F0C501B40140E00E94FB290E
:1057A000882399F18F89803149F4F601F070EE0F6A
:1057B000FF1FEB51F14F518240820DC0F601EF7790
:1057C000F070EE0FFF1FEE0FFF1FEB51F14F408205
:1057D0005182628273828091E71081608093E7102A
:1057E0008A89823080F08D819E81AF81B885880E54
:1057F000991EAA1EBB1E8092E8109092E910A092FA
:10580000EA10B092EB1081E001C080E0DF91CF910F
:105810001F910F91FF90EF90DF90CF90BF90AF90CE
:105820009F908F907F906F905F904F900895CF9250
:10583000DF92EF92FF920F931F93CF93DF93EC01D0
:105840007A018B01690189859A85AB85BC850196B2
:10585000A11DB11D84179507A607B70708F450C00E
:105860002B893C894D895E898F89803129F499275C
:10587000812F702F6F2D09C0C801B701E7E0969501
:10588000879577956795EA95D1F7260F371F481FBB
:10589000591F80916E0B90916F0BA091700BB0917E
:1058A000710B281739074A075B0739F0CA01B9019C
:1058B00040E00E94FB29882319F18F89803159F437
:1058C000F701F070EE0FFF1FEB51F14F80819181D6
:1058D000A0E0B0E00EC0F701EF77F070EE0FFF1F11
:1058E000EE0FFF1FEB51F14F80819181A281B381B7
:1058F000BF70F60180839183A283B38381E001C0EE
:1059000080E0DF91CF911F910F91FF90EF90DF909A
:10591000CF900895AF92BF92CF92DF92EF92FF9215
:105920000F931F93DF93CF9300D00F92CDB7DEB7C5
:105930006C017A018B0182E090E0A0E0B0E0F6011A
:1059400080839183A283B3835E010894A11CB11C60
:10595000C601B801A70195010E94172C882319F1EF
:10596000C601B801A70100E010E020E030E00E948D
:105970007B2B8823C1F0E980FA800B811C81F60122
:105980008789803129F088EF9FEFAFEFBFE004C037
:1059900088EF9FEFA0E0B0E0E816F9060A071B07C2
:1059A000B8F281E001C080E00F900F900F900F904F
:1059B000CF91DF911F910F91FF90EF90DF90CF90EB
:1059C000BF90AF9008954F925F926F927F928F92A7
:1059D0009F92AF92BF92CF92DF92EF92FF920F937E
:1059E0001F93DF93CF9300D00F92CDB7DEB76C013A
:1059F00049835A836B837C833901EE24FF2487011A
:105A00002E010894411C511C812CA2E09A2EA12C3D
:105A1000B12C49815A816B817C81C60192010E941F
:105A2000172C882351F1D501C401F601058404C067
:105A3000880F991FAA1FBB1F0A94D2F7E80EF91E00
:105A40000A1F1B1F29813A814B815C818789803124
:105A500029F088EF9FEFAFEFBFE004C088EF9FEF22
:105A6000A0E0B0E0281739074A075B0790F2F3017E
:105A7000E082F1820283138381E00F900F900F90F8
:105A80000F90CF91DF911F910F91FF90EF90DF90DA
:105A9000CF90BF90AF909F908F907F906F905F90CE
:105AA0004F9008952F923F924F925F926F927F9204
:105AB0008F929F92AF92BF92CF92DF92EF92FF921E
:105AC0000F931F93DF93CF93CDB7DEB72F970FB60A
:105AD000F894DEBF0FBECDBF1C014A875B876C8781
