:100000000C947A010C944C3A0C947D3A0C94AE3AD0
:100010000C94DF3A0C94103B0C94413B0C94723BD3
:100020000C94A33B0C94A7010C94A7010C94A7017A
:100030000C94A7010C94A7010C94A7010C94A701A0
:100040000C94A7010C94A7010C94A7010C94A70190
:100050000C94A7010C9491350C94A7010C94D43BFB
:100060000C94A7010C948C3F0C94B8400C94A701FD
:100070000C94A7010C94A7010C94A7010C94A70160
:100080000C94A7010C94A7010C94A7010C94A70150
:100090000C94C83F0C94EC400C94A7010C940C18E1
:1000A0000C94A7010C94A7010C94A7010C94A70130
:1000B0000C94A7010C94A7010C94A7010C94A70120
:1000C0000C94A7010C94A7010C94A7010C94044074
:1000D0000C9420410C94A7010C9440400C94544182
:1000E0000C94A70107634236B79BD8A71A39685604
:1000F00018AEBAAB558C1D3CB7CC5763BD6DEDFD4A
:10010000753EF6177231BF000000803F0800000006
:10011000BE922449123EABAAAA2ABECDCCCC4C3EFC
:1001200000000080BEABAAAAAA3E00000000BF00EB
:100130000000803F0000000000084178D3BB4387E7
:10014000D1133D190E3CC3BD4282AD2B3E68EC82FB
:1001500076BED98FE1A93E4C80EFFFBE01C4FF7F80
:100160003F000000000056533130353320666F7574
:100170006E6400436F756C646E27742066696E64EC
:10018000205653313035332C20646F20796F752021
:10019000686176652074686520726967687420708C
:1001A000696E7320646566696E65643F007C3C3EE1
:1001B0005E2B3D3F2F5B5D3B2C2A225C001F1C1FEA
:1001C0001E1F1E1F1F1E1F1E1F00002100240027B0
:1001D000002A002D00300033000101000004010757
:1001E000010A0100002200250028002B002E00310A
:1001F00000340002010000050108010B010000208D
:10020000002300260029002C002F003200000100EE
:100210000003010601090105050505070508080891
:1002200008020202020A0A08080404040401010187
:10023000010101010103030303030303030407078F
:10024000070C0C0C0C0C0C0C0C020202020606062D
:1002500006060606060B0B0B0B0B0B0B0B01021015
:1002600020200808102040102040800201020108D0
:100270000402010102040810204080804020100880
:1002800004020180040201804020100804020108D9
:100290000402010102040810204080010204081039
:1002A0002040800000090A02080B0C0D0706030419
:1002B000010000000000000000000000000000003D
:1002C000000000000000000000000000000000111D
:1002D000100F0000000000000000000000000000FF
:1002E000000000000000000000008A05A8162E1B78
:1002F0009542830511241FBECFEFD1E2DEBFCDBFF3
:1003000000E00CBF1BE0A0E0B2E0E2E0F4E900E0B6
:100310000BBF02C007900D92A63AB107D9F71BBEDA
:1003200013E1A6EABBE001C01D92A437B107E1F7D3
:1003300012E0C2EFD2E004C02297FE010E94B94948
:10034000CA3ED107C9F70E94CB430C94F4490C94E0
:100350000000A0E0B0E0EFEAF1E00C94C549EC0148
:10036000A880B980CA80DB80A114B104C104D10483
:1003700041F484E2A82E89EDB82E8BE5C82E87E0E3
:10038000D82EC601B5012DE133EF41E050E00E94C7
:100390009C4927EA31E440E050E00E944F497B014C
:1003A0008C01C601B5012DE133EF41E050E00E9420
:1003B0009C49CA01B9012CEE34EF4FEF5FEF0E9468
:1003C0004F496E0D7F1D801F911F97FF04C0615024
:1003D000704080409048688379838A839B839B0127
:1003E000AC015F77B901CA01CDB7DEB7EAE00C9482
:1003F000E1490E94A901089582E39BE00E94A901BE
:1004000008956093320B7093330B8093340B909369
:10041000350B0895FB01DC0104C08D91019080191A
:1004200021F441505040C8F7881B990B0895FC01F6
:100430008191861721F08823D9F79927089531975C
:10044000CF010895FB01DC014150504048F001907C
:100450000D920020C9F701C01D9241505040E0F7B5
:1004600008950F931F93CF93DF938C01EB016115D8
:10047000710581F0DC011F96ED91FC91509730974A
:1004800031F0CE011D966D917C911E971995F80162
:10049000D687C587DF91CF911F910F910895DF9384
:1004A000CF93CDB7DEB72D970FB6F894DEBF0FBE52
:1004B000CDBFE091300CF091310C9E012F5F3F4F8A
:1004C000AF018DE0DA010D90AD01D9010D929D01D2
:1004D0008150C1F78091860D9091870D8F319105E4
:1004E00089F18032910524F44E9709F044C035C05B
:1004F0008032910519F18197F1F5A885B98510979A
:1005000059F0CE0101961C969C938E931B97A78160
:10051000B085109761F40FC02091340C3091350CE8
:100520002115310541F1CF01F901199524C01C961F
:10053000FC93EE931B976781708519C083E29CE062
:10054000BC0117C0A581B681109721F01C96FC93C1
:10055000EE931B97658176810AC0A185B2851097BD
:1005600021F01C96FC93EE931B976185728583E2C4
:100570009CE00E9431021092870D1092860D2D96FC
:100580000FB6F894DEBF0FBECDBFCF91DF910895B7
:1005900083E090E09093820D8093810D0895EF9217
:1005A0000F938130910509F09EC26F5F7F4F09F074
:1005B000A7C286EA9BE00E94393088EA9BE060E0AF
:1005C0000E94043783EC9BE069E04AE028E003E006
:1005D00034E0E32E0E94BD3588E09CE00E94F519CE
:1005E00080E092E09093240C8093230C1092250CD1
:1005F00010922D0C10922C0C10922B0C10922A0C95
:100600001092290C1092280C1092270C1092260C94
:1006100083E29CE09093310C8093300C84EF96E061
:100620009093330C8093320C82E19BE09093350CD5
:100630008093340C89E092E09093370C8093360CD1
:100640001092380C1092400C10923F0C10923E0CFD
:1006500010923D0C10923C0C10923B0C10923A0CF4
:100660001092390C8CE192E09093440C8093430CEF
:100670001092450C10924D0C10924C0C10924B0C99
:1006800010924A0C1092490C1092480C1092470C90
:100690001092460C89E292E09093510C8093500C9A
:1006A0001092520C10925A0C1092590C1092580C35
:1006B0001092570C1092560C1092550C1092540C2C
:1006C0001092530C87E392E090935E0C80935D0C44
:1006D00010925F0C1092670C1092660C1092650CD1
:1006E0001092640C1092630C1092620C1092610CC8
:1006F0001092600C84E492E090936B0C80936A0CEF
:1007000010926C0C1092740C1092730C1092720C6C
:100710001092710C1092700C10926F0C10926E0C63
:1007200010926D0C82E592E09093780C8093770C98
:100730001092790C1092810C1092800C10927F0C08
:1007400010927E0C10927D0C10927C0C10927B0CFF
:1007500010927A0C83E692E09093850C8093840C3F
:100760001092860C10928E0C10928D0C10928C0CA4
:1007700010928B0C10928A0C1092890C1092880C9B
:100780001092870C85E792E09093920C8093910CE5
:100790001092930C10929B0C10929A0C1092990C40
:1007A0001092980C1092970C1092960C1092950C37
:1007B0001092940C84E892E090939F0C80939E0C8E
:1007C0001092A00C1092A80C1092A70C1092A60CDC
:1007D0001092A50C1092A40C1092A30C1092A20CD3
:1007E0001092A10C84E992E09093AC0C8093AB0C36
:1007F0001092AD0C1092B50C1092B40C1092B30C78
:100800001092B20C1092B10C1092B00C1092AF0C6E
:100810001092AE0C89EA92E09093B90C8093B80CD8
:100820001092BA0C1092C20C1092C10C1092C00C13
:100830001092BF0C1092BE0C1092BD0C1092BC0C0A
:100840001092BB0C82EB92E09093C60C8093C50C87
:100850001092C70C1092CF0C1092CE0C1092CD0CAF
:100860001092CC0C1092CB0C1092CA0C1092C90CA6
:100870001092C80C8DEB92E09093D30C8093D20C25
:100880001092D40C1092DC0C1092DB0C1092DA0C4B
:100890001092D90C1092D80C1092D70C1092D60C42
:1008A0001092D50C87EC92E09093E00C8093DF0CD3
:1008B0001092E10C1092E90C1092E80C1092E70CE7
:1008C0001092E60C1092E50C1092E40C1092E30CDE
:1008D0001092E20C89ED92E09093ED0C8093EC0C79
:1008E0001092EE0C1092F60C1092F50C1092F40C83
:1008F0001092F30C1092F20C1092F10C1092F00C7A
:100900001092EF0C85EE92E09093FA0C8093F90C24
:100910001092FB0C1092030D1092020D1092010D1B
:100920001092000D1092FF0C1092FE0C1092FD0C14
:100930001092FC0C80EF92E09093070D8093060DCF
:100940001092080D1092100D10920F0D10920E0DB6
:1009500010920D0D10920C0D10920B0D10920A0DAD
:100960001092090D8DEF92E09093140D8093130D6A
:100970001092150D10921D0D10921C0D10921B0D52
:1009800010921A0D1092190D1092180D1092170D49
:100990001092160D8BE093E09093210D8093200D23
:1009A0001092220D10922A0D1092290D1092280DEE
:1009B0001092270D1092260D1092250D1092240DE5
:1009C0001092230D89E193E090932E0D80932D0DCD
:1009D00010922F0D1092370D1092360D1092350D8A
:1009E0001092340D1092330D1092320D1092310D81
:1009F0001092300D8CE293E090933B0D80933A0D72
:100A000010923C0D1092440D1092430D1092420D25
:100A10001092410D1092400D10923F0D10923E0D1C
:100A200010923D0D8BE393E09093480D8093470D1A
:100A30001092490D1092510D1092500D10924F0DC1
:100A400010924E0D10924D0D10924C0D10924B0DB8
:100A500010924A0D8AE493E09093550D8093540DC3
:100A60001092560D10925E0D10925D0D10925C0D5D
:100A700010925B0D10925A0D1092590D1092580D54
:100A80001092570D89E593E09093620D8093610D6C
:100A90001092630D10926B0D10926A0D1092690DF9
:100AA0001092680D1092670D1092660D1092650DF0
:100AB0001092640D8EE593E090936F0D80936E0D10
:100AC0001092700D1092780D1092770D1092760D95
:100AD0001092750D1092740D1092730D1092720D8C
:100AE0001092710D0DC0892B59F46F5F7F4F41F447
:100AF00088E09CE00E94081A8BEE9BE00E94081A96
:100B00000F91EF90089580E090E06FEF7FEF0E94EB
:100B1000CF02089581E090E06FEF7FEF0E94CF0257
:100B20000895CF92DF92EF92FF920F931F93CF938E
:100B3000DF9381E20E94E43DEC018091880D909169
:100B4000890DC817D90751F00E941C3C6093900D85
:100B50007093910D8093920D9093930D0E941C3C85
:100B60002091900D3091910D4091920D5091930DE7
:100B7000621B730B840B950B20913F0B3091400B44
:100B80004091410B5091420B2617370748075907F0
:100B900018F0CC24DD240BC00E941C3C6093900D07
:100BA0007093910D8093920D9093930D6E01D0935D
:100BB000890DC093880D80E20E94E43DEC01809194
:100BC0008A0D90918B0DC817D90751F00E941C3CDB
:100BD0006093940D7093950D8093960D9093970D5F
:100BE0000E941C3C2091940D3091950D4091960DE2
:100BF0005091970D621B730B840B950B20913F0B4B
:100C00003091400B4091410B5091420B2617370712
:100C10004807590718F0EE24FF240BC00E941C3C23
:100C20006093940D7093950D8093960D9093970D0E
:100C30007E01D0938B0DC0938A0D8FE10E94E43D1D
:100C4000EC0180918E0D90918F0DC817D90751F04E
:100C50000E941C3C60939C0D70939D0D80939E0D93
:100C600090939F0D0E941C3C20919C0D30919D0DF6
:100C700040919E0D50919F0D621B730B840B950B41
:100C800020913F0B3091400B4091410B5091420B12
:100C9000261737074807590718F000E010E00BC087
:100CA0000E941C3C60939C0D70939D0D80939E0D43
:100CB00090939F0D8E01D0938F0DC0938E0D8EE17A
:100CC0000E94E43DEC0180918C0D90918D0DC81730
:100CD000D90751F00E941C3C6093980D7093990DB8
:100CE00080939A0D90939B0D0E941C3C2091980D2F
:100CF0003091990D40919A0D50919B0D621B730B91
:100D0000840B950B20913F0B3091400B4091410B90
:100D10005091420B261737074807590718F080E013
:100D200090E00BC00E941C3C6093980D7093990D4D
:100D300080939A0D90939B0DCE01D0938D0DC0930F
:100D40008C0D21E0C216D10419F481E290E011C0AB
:100D500021E0E216F10419F480E290E00AC00130CB
:100D6000110519F48FE190E004C0019739F48EE188
:100D700090E09093870D8093860D04C01092870DAC
:100D80001092860DDF91CF911F910F91FF90EF9000
:100D9000DF90CF900895EF92FF920F931F9348EA50
:100DA000E42E4BE0F42EC70160E040E00E94A4383E
:100DB00001E713E0C701B8010E94A445C701B801CB
:100DC0000E94A445C701B8010E94A445C701B8010B
:100DD0000E94A445C70160E040E00E94A4381F9132
:100DE0000F91FF90EF9008950F931F93DF93CF9390
:100DF000CDB7DEB72D970FB6F894DEBF0FBECDBFCF
:100E0000DE011196FC018DE001900D928150E1F719
:100E100009811A8188EA9BE060E042E00E94A438E0
:100E2000A091230CB091240CF80105C031968C914F
:100E3000981729F4119690819923C1F7DFC082E0B9
:100E40000930180729F488EA9BE066E873E0DCC003
:100E500082E00C31180729F488EA9BE06BE973E023
:100E6000D3C082E00932180729F488EA9BE060EBDE
:100E700073E0CAC082E00733180729F488EA9BE0D0
:100E800065EC73E0C1C082E00434180729F488EAF5
:100E90009BE06AED73E0B8C082E00235180729F4E0
:100EA00088EA9BE06FEE73E0AFC082E0033618077C
:100EB00029F488EA9BE064E074E0A6C082E005378C
:100EC000180729F488EA9BE069E174E09DC082E09C
:100ED0000438180729F488EA9BE06EE274E094C0B5
:100EE00082E00439180721F488EA9BE0B8018CC03D
:100EF00082E0093A180729F488EA9BE063E474E089
:100F000083C082E0023B180729F488EA9BE068E589
:100F100074E07AC082E00D3B180729F488EA9BE070
:100F20006DE674E071C082E0073C180729F488EA96
:100F30009BE062E874E068C082E0093D180729F48C
:100F400088EA9BE067E974E05FC082E0053E18072D
:100F500029F488EA9BE06CEA74E056C082E0003F26
:100F6000180729F488EA9BE061EC74E04DC082E048
:100F70000D3F180729F488EA9BE066ED74E044C051
:100F800083E00B30180729F488EA9BE06BEE74E0ED
:100F90003BC083E00931180729F488EA9BE060E050
:100FA00075E032C083E00C32180729F488EA9BE030
:100FB00065E175E029C083E00B33180729F488EA5E
:100FC0009BE06AE275E020C083E00A34180729F448
:100FD00088EA9BE06FE375E017C083E009351807E6
:100FE00029F488EA9BE064E575E00EC00E551340D5
:100FF00069F488EA9BE069E675E006C00E94CB06CA
:1010000088EA9BE06EE775E00E94A4452D960FB636
:10101000F894DEBF0FBECDBFCF91DF911F910F912E
:1010200008950E94CB0688EA9BE060E041E00E94C0
:10103000A43888EA9BE063E975E00E94A44583E256
:101040009CE090933A0C8093390C86E39CE090935B
:101050002B0C80932A0C8091410C9091420C892B8F
:1010600041F480912E0C90912F0C9093420C809320
:10107000410C86E39CE09093B50C8093B40C8BEA12
:101080009CE090933C0C80933B0C8091B60C90912B
:10109000B70C892B41F48091410C9091420C9093B4
:1010A000B70C8093B60C8BEA9CE09093440D809330
:1010B000430D8AE39DE09093B10C8093B00C809136
:1010C000450D9091460D892B41F48091B60C90917D
:1010D000B70C9093460D8093450D8AE39DE0909365
:1010E0006B0D80936A0D81E69DE09093400D809397
:1010F0003F0D80916C0D90916D0D892B41F4809185
:10110000450D9091460D90936D0D80936C0D86E387
:101110009CE09093470C8093460C83E49CE0909372
:101120003E0C80933D0C80914E0C90914F0C892B7E
:1011300041F48091410C9091420C90934F0C80931C
:101140004E0C83E49CE090935A0C8093590C80E5FC
:101150009CE09093490C8093480C80915B0C90919B
:101160005C0C892B41F480914E0C90914F0C909324
:101170005C0C80935B0C80E59CE09093670C809303
:10118000660C8DE59CE09093560C8093550C8091F5
:10119000680C9091690C892B41F480915B0C9091C3
:1011A0005C0C9093690C8093680C8DE59CE09093A7
:1011B000740C8093730C8AE69CE09093630C80938C
:1011C000620C8091750C9091760C892B41F4809182
:1011D000680C9091690C9093760C8093750C8AE65C
:1011E0009CE09093810C8093800C87E79CE0909327
:1011F000700C80936F0C8091820C9091830C892BE2
:1012000041F48091750C9091760C9093830C8093AF
:10121000820C87E79CE090938E0C80938D0C84E881
:101220009CE090937D0C80937C0C80918F0C90912E
:10123000900C892B41F48091820C9091830C9093B7
:10124000900C80938F0C84E89CE090939B0C80938F
:101250009A0C81E99CE090938A0C8093890C809190
:101260009C0C90919D0C892B41F480918F0C909156
:10127000900C90939D0C80939C0C81E99CE0909342
:10128000A80C8093A70C8EE99CE09093970C809318
:10129000960C8091A90C9091AA0C892B41F4809115
:1012A0009C0C90919D0C9093AA0C8093A90C8BEAB6
:1012B0009CE09093BC0C8093BB0C88EB9CE09093DB
:1012C000B30C8093B20C8091C30C9091C40C892B09
:1012D00041F48091B60C9091B70C9093C40C80931C
:1012E000C30C88EB9CE09093CF0C8093CE0C85ECE4
:1012F0009CE09093BE0C8093BD0C8091D00C90919B
:10130000D10C892B41F48091C30C9091C40C909323
:10131000D10C8093D00C85EC9CE09093DC0C8093F6
:10132000DB0C82ED9CE09093CB0C8093CA0C8091F7
:10133000DD0C9091DE0C892B41F48091D00C9091C2
:10134000D10C9093DE0C8093DD0C82ED9CE09093A9
:10135000E90C8093E80C8FED9CE09093D80C80937F
:10136000D70C8091EA0C9091EB0C892B41F4809181
:10137000DD0C9091DE0C9093EB0C8093EA0C8FEDDA
:101380009CE09093F60C8093F50C8CEE9CE090938F
:10139000E50C8093E40C8091F70C9091F80C892B6C
:1013A00041F48091EA0C9091EB0C9093F80C8093AF
:1013B000F70C8CEE9CE09093030D8093020D89EF67
:1013C0009CE09093F20C8093F10C8091040D90912D
:1013D000050D892B41F48091F70C9091F80C9093B6
:1013E000050D8093040D89EF9CE09093100D809380
:1013F0000F0D86E09DE09093FF0C8093FE0C809192
:10140000110D9091120D892B41F48091040D909152
:10141000050D9093120D8093110D86E09DE0909341
:101420001D0D80931C0D83E19DE090930C0D809326
:101430000B0D80911E0D90911F0D892B41F4809111
:10144000110D9091120D90931F0D80931E0D83E14D
:101450009DE090932A0D8093290D80E29DE090936A
:10146000190D8093180D80912B0D90912C0D892BC7
:1014700041F480911E0D90911F0D90932C0D80933F
:101480002B0D80E29DE09093370D8093360D8DE219
:101490009DE09093260D8093250D8091380D9091BD
:1014A000390D892B41F480912B0D90912C0D909347
:1014B000390D8093380D8AE39DE090934B0D809316
:1014C0004A0D87E49DE09093420D8093410D8091F9
:1014D000520D9091530D892B41F48091450D9091BF
:1014E000460D9093530D8093520D87E49DE09093A9
:1014F0005E0D80935D0D84E59DE090934D0D80938E
:101500004C0D80915F0D9091600D892B41F480917D
:10151000520D9091530D9093600D80935F0D81E675
:101520009DE09093720D8093710D8EE69DE09093F7
:10153000690D8093680D8091790D90917A0D892BBA
:1015400041F480916C0D90916D0D90937A0D809384
:10155000790D83E29CE0BC010E94310260E273E0FD
:1015600080E090E00E94963C88EA9BE060E043E0E7
:101570000E94A43888EA9BE064EA75E00E94A445D2
:1015800064EF71E080E090E00E94963C0E94CB0600
:101590000895CF93DF930E94CB0688EE90E16DEA29
:1015A00075E00E94A44588EA9BE060E043E00E9469
:1015B000A43888EA9BE061EC75E00E94A445C0E095
:1015C000D0E088EE90E163ED75E00E94A44568EEFE
:1015D00073E080E090E00E94963C2196C530D105F2
:1015E00081F788EE90E165ED75E00E94A74588EEF1
:1015F00090E16BED75E00E94A74588EA9BE060E012
:1016000043E00E94A43888EA9BE069EE75E00E94FE
:10161000A44562E370E080E090E00E94963CDF9198
:10162000CF9108950F93CF93DF93EC010E94CB06E7
:1016300088EA9BE060E040E00E94A43888EA9BE0F2
:101640006BEF75E00E94A44588EA9BE060E041E012
:101650000E94A4386881798188EA9BE00E94A445B1
:1016600068EB7BE080E090E00E94963C83E29CE0A7
:10167000BC010E943102888199818E55934071F49A
:1016800088EE90E16DE076E00E94A74585E090E06D
:101690009093820D8093810D0E94CB068881998161
:1016A0008D5F924079F58DE261E00E94B13D85E663
:1016B0009EE00E94511B85E69EE064E04FEF2FEF15
:1016C0000FEF0E94971D88EE90E164E376E004C07E
:1016D00088EE90E16AE476E00E94A74583EC9BE007
:1016E00060E676E00E946F35882391F38DE260E03A
:1016F0000E94B13D85E090E09093820D8093810D32
:101700000E94CB06888199818B50934071F58DE2C0
:1017100061E00E94B13D85E69EE00E94511B85E696
:101720009EE064E04FEF2FEF0FEF0E94971D88EED1
:1017300090E16DE676E00E94A74583EC9BE063E8CC
:1017400076E00E94063568EB7BE080E090E00E9446
:10175000963C8DE260E00E94B13D85E090E0909380
:10176000820D8093810D0E94CB06888199818951D9
:10177000934071F58DE261E00E94B13D85E69EE007
:101780000E94511B85E69EE064E04FEF2FEF0FEFC4
:101790000E94971D88EE90E160E976E00E94A745DF
:1017A00083EC9BE06BEA76E00E94063568EB7BE019
:1017B00080E090E00E94963C8DE260E00E94B13DA6
:1017C00085E090E09093820D8093810D0E94CB067E
:1017D000888199818D5B9240D1F483E090E0909371
:1017E0007E0D80937D0D88EE90E168EB76E00E949F
:1017F000A74568EE73E080E090E00E94963C85E0AB
:1018000090E09093820D8093810D0E94CB06888199
:101810009981875C9240D1F484E090E090937E0DB2
:1018200080937D0D88EE90E163ED76E00E94A74500
:1018300068EE73E080E090E00E94963C85E090E0E6
:101840009093820D8093810D0E94CB06DF91CF9102
:101850000F9108950E94CB0688EA9BE060E041E08A
:101860000E94A43888EA9BE062EF76E00E94A445DB
:1018700083EC9BE00E94BC34882339F488EE90E12D
:1018800063E771E00E944F44FFCF88EE90E166E687
:1018900071E00E944F4483EC9BE062E042E00E94D2
:1018A000C53383EC9BE065E00E94E33583EC9BE06D
:1018B00060E676E00E94063560E273E080E090E04A
:1018C0000E94963C88EA9BE060E043E00E94A438D6
:1018D00088EA9BE064EA75E00E94A44508950F93AE
:1018E000DF93CF93CDB7DEB76B970FB6F894DEBF1B
:1018F0000FBECDBF0E94CB0688EA9BE060E041E0CE
:101900000E94A43888EA9BE064E077E00E94A44546
:1019100088EE90E160E177E00E94A44585E69EE0D4
:1019200065E34FEF2FEF0FEF0E94971D882339F4E7
:1019300088EE90E168E277E00E94A745FFCF88EE4D
:1019400090E164E477E00E94A745CE01019665E648
:101950007EE046E557E023E10E94721C8B819C816A
:1019600090930B0C80930A0C8D819E81AF81B8857A
:1019700080930C0C90930D0CA0930E0CB0930F0C55
:1019800089859A85AB85BC858093100C9093110C4A
:10199000A093120CB093130CA4E1BCE0FE013D96A1
:1019A0008DE001900D928150E1F78A8D9B8D90938F
:1019B000220C8093210CCE0101960E94081A88E027
:1019C0009CE00E944A1A882339F488EE90E162E68E
:1019D00077E00E94A745FFCF60E273E080E090E0EF
:1019E0000E94963C88EA9BE060E043E00E94A438B5
:1019F00088EA9BE064EA75E00E94A4456B960FB606
:101A0000F894DEBF0FBECDBFCF91DF910F91089547
:101A1000EF92FF920F931F9358EEE52E50E1F52EB3
:101A2000C7016CE777E00E94A44508EA1BE0C80103
:101A300064E144E020E00E94E8380E94CB06C8013F
:101A400067E977E00E94A445C70164EA75E00E9457
:101A5000A7451F910F91FF90EF900895DF93CF93CB
:101A60000F92CDB7DEB788EE90E167EA77E00E948B
:101A7000A4450E94CB0688EA9BE060E041E00E941A
:101A8000A43888EA9BE064EC77E00E94A44586EAEB
:101A90009BE00E940F3386EA9BE0BE016F5F7F4FA1
:101AA0000E949A30882399F088EE90E166ED77E005
:101AB0000E94A44588EE90E1698140E150E00E94D7
:101AC000204588EE90E169EE77E00E94A7451092EC
:101AD000830D88EE90E16AEF77E00E94A74586EAE1
:101AE0009BE06091830D42E024E83DE00E94B63126
:101AF00088EE90E168E078E00E94A74586EA9BE0E6
:101B00000E94D03164E670E080E090E00E94963C54
:101B100086EA9BE061E045E00E947A31882331F05B
:101B200088EE90E163E178E00E94A74586EA9BE0B9
:101B30006CE271E040ED57E00E945A31882331F0A9
:101B400088EE90E169E378E00E94A74560E273E0E7
:101B500080E090E00E94963C88EE90E164EA75E0B7
:101B60000E94A74588EA9BE060E043E00E94A43819
:101B700088EA9BE064EA75E00E94A4450F90CF914B
:101B8000DF910895CF92DF92EF92FF920F931F9310
:101B900078EEC72E70E1D72EC60166E678E00E9487
:101BA000A4450E94CB0668EAE62E6BE0F62EC7013C
:101BB00060E041E00E94A438C7016BE778E00E9432
:101BC000A44585E361E00E94FE3C86E161E00E945D
:101BD000FE3C8EE160E00E94FE3C8FE160E00E94EE
:101BE000FE3C80E260E00E94FE3C81E260E00E94F8
:101BF000FE3C82E260E00E94FE3C82E060E00E94E7
:101C0000FE3C82E160E00E94FE3C86E060E00E94D3
:101C1000FE3C82E060E00E94FE3C8CE060E00E94BE
:101C2000FE3C8DE261E00E94FE3C85E361E00E94A3
:101C3000FE3C60E273E080E090E00E94963C04EAA3
:101C400015E0C601B8010E94A745C70160E043E066
:101C50000E94A438C701B8010E94A4451F910F91AA
:101C6000FF90EF90DF90CF900895CF92DF92EF92A8
:101C7000FF920F931F93DF93CF93CDB7DEB7689793
:101C80000FB6F894DEBF0FBECDBF88EE90E16DE8D1
:101C900078E00E94A4450E94CB0688EA9BE060E0C1
:101CA00041E00E94A43888EA9BE06DEA78E00E9457
:101CB000A4450E94622F0E94642F2B8B3C8B4D8B7E
:101CC0005E8B6F8B788FDE011196FE01739686E036
:101CD00001900D928150E1F7E7E0CE2ED12CCC0E91
:101CE000DD1EC60162EC78E04EEC58E00E946C2EDE
:101CF000CE0101960E94082F7B018C01C6010E9433
:101D0000082FE616F7060807190768F48E01035F27
:101D10001F4FC80162EC78E04EEC58E00E946C2E38
:101D2000C8010E94E62F60E273E080E090E00E942C
:101D3000963C88EE90E164EA75E00E94A74588EA47
:101D40009BE060E043E00E94A43888EA9BE064EAFC
:101D500075E00E94A44568960FB6F894DEBF0FBEEA
:101D6000CDBFCF91DF911F910F91FF90EF90DF904A
:101D7000CF9008950F931F93082F803414F00FE332
:101D800002C087FD00E088EE90E167ED78E00E94F8
:101D9000A445112707FD109588EE90E1B8014AE0AF
:101DA00050E00E9485458BEE9DE06BE470E00E9460
:101DB0006E168BEE9DE0602F0E94F0168BEE9DE07C
:101DC0000E94331790E0882309F491E0892F1F9136
:101DD0000F9108958091360B0E94BA0E882331F43A
:101DE00088EE90E16AEE78E00E94A74580917B0D35
:101DF000813091F486E161E00E94B13D60ED77E0D1
:101E000080E090E00E94963C86E160E00E94B13D57
:101E10008DE260E00E94B13D08950F931F93682FFB
:101E20000BEE1DE0C8010E946416C8016FE60E9417
:101E3000F016C8010E9433171F910F910895DF9289
:101E4000EF92FF920F931F93382FF62EE42ED22E8F
:101E50000BEE1DE0C801632F0E946416C80160E705
:101E60000E94F016C8016F2D0E94F016C8016E2D59
:101E70000E94F016C8016D2D0E94F016C8010E9444
:101E800033171F910F91FF90EF90DF900895DF922D
:101E9000EF92FF920F931F93382FF62EE42ED22E3F
:101EA0000BEE1DE0C801632F0E946416C80163E6B3
:101EB0000E94F016C8016F2D0E94F016C8016E2D09
:101EC0000E94F016C8016D2D0E94F016C8010E94F4
:101ED00033171F910F91FF90EF90DF9008950F93AC
:101EE0001F93CF93DF9388EE90E163E179E00E9446
:101EF000A7450E94CB0688EA9BE060E041E00E9493
:101F0000A43888EA9BE069E379E00E94A44589E36C
:101F100061E00E94FE3C88E361E00E94FE3C89E3B0
:101F200061E00E94B13D88E360E00E94B13D64E65B
:101F300070E080E090E00E94963C8BEE9DE00E9475
:101F4000481707E31BE0C0E0D0E088EE90E16AE4C8
:101F500079E00E94A445219688EE90E1BE014AE016
:101F600050E00E94854588EA9BE060E042E00E94E4
:101F7000A43888EA9BE06AE479E00E94A44588EAF4
:101F80009BE0BE014AE050E00E947245F80180816A
:101F900062E140E020E00E941F0F60ED77E080E00A
:101FA00090E00E94963CF80180810E940D0FF8019C
:101FB00081918F0160E040E020E00E94470FC8302F
:101FC000D10519F668EC70E080E090E00E94963C44
:101FD00088EA9BE06FE479E00E94A44588EE90E1F6
:101FE00069E579E00E94A745DF91CF911F910F919C
:101FF00008954F925F926F927F928F929F92AF92CD
:10200000BF92CF92DF92EF92FF920F931F93DF93D5
:10201000CF93CDB7DEB7CA54D0400FB6F894DEBF29
:102020000FBECDBF8091810D9091820D84309105BE
:1020300009F434C1853091053CF48230910581F07A
:10204000039709F0FAC507C18630910509F41EC24D
:10205000863091050CF427C1079709F0EEC50BC334
:102060000E94642FDE01AB5BBF4F2C93FE01EA5B45
:10207000FF4F3083FE01E95BFF4F4083FE01E85BC9
:10208000FF4F5083FE01E75BFF4F6083FE01E65B7D
:10209000FF4F70839E01275F3F4FFD0186E0019057
:1020A000D9010D929D018150D1F7BE84CD84DC848D
:1020B000EB84FA84098588EA9BE060E00E94DB38C3
:1020C00088EE90E161EB79E00E94A44510E00053B6
:1020D000184F88EE90E1B8014AE050E00E94F244C7
:1020E00088EE90E16FE20E94274488EE90E16F2D28
:1020F0004AE050E00E94204588EE90E16FE20E94A5
:10210000274488EE90E16E2D4AE050E00E94204581
:1021100088EE90E160E20E94274488EE90E16D2D08
:102120004AE050E00E94204588EE90E16AE30E9478
:10213000274488EE90E16C2D4AE050E00E94204553
:1021400088EE90E16AE30E94274488EE90E16B2DCF
:102150004AE050E00E94204588EA9BE060E041E0D0
:102160000E94A43888EA9BE0B8014AE050E00E944F
:10217000F24488EA9BE06FE20E94274488EA9BE0F1
:102180006F2D4AE050E00E94204588EA9BE06FE214
:102190000E94274488EA9BE06E2D4AE050E00E94AE
:1021A000204588EA9BE060E20E94274488EA9BE0A1
:1021B0006D2D4AE050E00E94204588EA9BE06AE3EA
:1021C0000E94274488EA9BE06C2D4AE050E00E9480
:1021D000204588EA9BE06AE30E94274488EA9BE066
:1021E0006B2D4AE050E00E94204586EA9BE0BE014C
:1021F0006D5F7F4FAE014F5F5F4F0E94EB308823D2
:1022000009F188EE90E168EC79E00E94A4456B81C9
:102210007C8188EE90E14AE050E00E9403454091C5
:10222000840D5091850D2B813C8109811A8186EAAC
:102230009BE06091830DB5E0EB2EF12CEC0EFD1EC2
:102240000E94D5318B819C818C52914008F0F5C45D
:1022500086E090E0EEC488EE90E161ED79E00E94C6
:10226000A74586EA9BE00E943A3084E00E94203A2B
:102270000E94CB0688EA9BE061E00E94DB3888EA96
:102280009BE060E040E00E94A43888EA9BE06EE7B3
:1022900075E00E94A44584E090E0CBC40E949105C3
:1022A0000E944F02CAC488EE90E162E07AE00E9488
:1022B000A7450E94642FDE01AB5BBF4F2C93FE014C
:1022C000EA5BFF4F3083FE01E95BFF4F4083FE0175
:1022D000E85BFF4F5083FE01E75BFF4F6083FE0129
:1022E000E65BFF4F70839E01275F3F4FFD0186E055
:1022F0000190D9010D929D018150D1F785E69EE0B4
:102300000E94511B85E69EE065E34FEF2FEF0FEF34
:102310000E94971DCE010F9665E67EE046E557E0E8
:1023200023E10E94721C89899A8990930B0C8093F7
:102330000A0C8B899C89AD89BE8980930C0C909383
:102340000D0CA0930E0CB0930F0C8F89988DA98D56
:10235000BA8D8093100C9093110CA093120CB09333
:10236000130CA4E1BCE0FE017B968DE001900D9280
:102370008150E1F788A599A59093220C8093210CB8
:10238000CE010F960E94081A698570E06053784F5D
:1023900088E09CE04AE050E00E94F24488E09CE043
:1023A0006FE20E94274488E09CE06A854AE050E0A2
:1023B0000E94204588E09CE06FE20E94274488E06C
:1023C0009CE06B854AE050E00E94204588E09CE05C
:1023D00060E20E94274488E09CE06C854AE050E07F
:1023E0000E94204588E09CE06AE30E94274488E040
:1023F0009CE06D854AE050E00E94204588E09CE02A
:102400006AE30E94274488E09CE06E854AE050E041
:102410000E94204588E09CE065E27AE00E94A445A5
:1024200088E09CE060E47AE00E94A44560917D0D24
:1024300070917E0D88E09CE04AE050E00E94724579
:1024400088E09CE060E47AE00E94A44560917F0D02
:102450007091800D88E09CE04AE050E00E94854544
:1024600088E09CE00E94691A88E09CE00E94571A6C
:1024700085E69EE00E94511B84E068EC72E041E03A
:1024800050E00E94A43982E090E0D3C388EE90E14E
:1024900062E47AE00E94A7450E94642FDE01AB5BF4
:1024A000BF4F2C93FE01EA5BFF4F3083FE01E95BD7
:1024B000FF4F4083FE01E85BFF4F5083FE01E75B67
:1024C000FF4F6083FE01E65BFF4F70839E01275F35
:1024D0003F4FFD0186E00190D9010D929D01815091
:1024E000D1F785E69EE00E94511B85E69EE065E3FC
:1024F0004FEF2FEF0FEF0E94971DCE018A9665E6F2
:102500007EE046E557E023E10E94721C8CA59DA564
:1025100090930B0C80930A0C8EA59FA5A8A9B9A92E
:1025200080930C0C90930D0CA0930E0CB0930F0C99
:102530008AA99BA9ACA9BDA98093100C9093110CFA
:10254000A093120CB093130CA4E1BCE0FE01F6962C
:102550008DE001900D928150E1F7FE01ED5BFF4FA0
:10256000808191819093220C8093210CCE018A96D8
:102570000E94081A698570E06053784F88E09CE0FB
:102580004AE050E00E94F24488E09CE06FE20E9442
:10259000274488E09CE06A854AE050E00E9420459C
:1025A00088E09CE06FE20E94274488E09CE06B8515
:1025B0004AE050E00E94204588E09CE060E20E94F2
:1025C000274488E09CE06C854AE050E00E9420456A
:1025D00088E09CE06AE30E94274488E09CE06D85E7
:1025E0004AE050E00E94204588E09CE06AE30E94B7
:1025F000274488E09CE06E854AE050E00E94204538
:1026000088E09CE06AE97AE00E94A44588E09CE0CA
:1026100065E27AE00E94A44588E09CE060E47AE00C
:102620000E94A44560917D0D70917E0D88E09CE034
:102630004AE050E00E94724588E09CE060E47AE065
:102640000E94A44560917F0D7091800D88E09CE010
:102650004AE050E00E94854588E09CE00E94691AAB
:1026600088E09CE00E94571A85E69EE00E94511B7C
:1026700087E090E0DEC284E068EC72E041E050E088
:102680000E94A43988EE90E16FEB7AE00E94A745A2
:1026900060E070E080E090E023E130E040E050E076
:1026A0000E94E3455B016C0180917D0D90917E0D50
:1026B00083309105D9F08130910531F4ADE0AA2E37
:1026C000B12CC12CD12C17C08230910579F0049720
:1026D00091F460E070E080E090E023E130E040E0E1
:1026E00050E00E94E3455B016C0105C0F5E0AF2EB0
:1026F000B12CC12CD12C60E070E080E090E02BE0A8
:1027000030E040E050E00E94E3452B0164EF71E0CF
:1027100080E090E020ED37E040E050E00E94E345AB
:102720003B014C018CE00E94E43D80917B0D8130A7
:1027300049F560E070E080E090E022E330E040E0C6
:1027400050E00E94E3456A307105E4F461E070E016
:1027500080E090E02CED35E040E050E00E94E34561
:102760007B018C0186E161E00E94B13D0027F7FC0E
:102770000095102FC801B7010E94963C86E160E0E9
:102780000E94B13D86E00E94E43D019709F08BC0B4
:102790008091470B882309F483C01092470B88EE81
:1027A00090E16EED7AE00E94A74588EE90E162EE3E
:1027B0007AE00E94A4450E941C3C28EE33E040E0F1
:1027C00050E00E947A4988EE90E1BA01A9012AE01E
:1027D00030E00E94E34488EE90E166EF7AE00E94E8
:1027E000A74562E370E080E090E00E94963C88EAB2
:1027F0009BE061E00E94DB380E94CB0688EA9BE008
:1028000060E042E00E94A43888EA9BE06BEF7AE047
:102810000E94A44580917C0D813009F041C08091D7
:102820003E0B62E140E020E00E941F0F8DE261E07C
:102830000E94B13D85E69EE00E94511B85E69EE028
:1028400064E04FEF2FEF0FEF0E94971D88EE90E1AD
:1028500064E376E004C088EE90E16AE476E00E94EA
:10286000A74583EC9BE060E676E00E946F35882305
:1028700091F38DE260E00E94B13D85E090E090939D
:10288000820D8093810D0E94CB0680913E0B0E94A9
:102890000D0F80913E0B60E040E020E00E94470F6A
:1028A00081E08093A40D86E00E94E43D892B09F02D
:1028B000A2C08091A40D882361F00E941C3C60930B
:1028C000A00D7093A10D8093A20D9093A30D109273
:1028D000A40D8091470B882309F08DC00E941C3CF9
:1028E0002091A00D3091A10D4091A20D5091A30D0A
:1028F000621B730B840B950B2091430B3091440B9F
:102900004091450B5091460B26173707480759074A
:1029100008F071C081E08093470B88EE90E16DE094
:102920007BE00E94A4450E941C3C2091430B309107
:10293000440B4091450B5091460B621B730B840B6B
:10294000950B28EE33E040E050E00E947A4988EE93
:1029500090E1BA01A9012AE030E00E94E34488EE48
:1029600090E166EF7AE00E94A74562E370E080E0C4
:1029700090E00E94963C0E94CB0688EA9BE061E0D2
:102980000E94DB3888EA9BE060E041E00E94A438C6
:1029900088EA9BE06DE07BE00E94A4450E941C3C1D
:1029A0002091430B3091440B4091450B5091460BC5
:1029B000621B730B840B950B28EE33E040E050E074
:1029C0000E947A4988EA9BE0BA01A9012AE030E036
:1029D0000E94E34488EA9BE060E042E00E94A43861
:1029E00068EE73E080E090E00E94963C88EA9BE00D
:1029F00060E00E94DB3882E00E94E43D019709F02C
:102A000044C08091470B8823E9F11092470B88EE70
:102A100090E16EED7AE00E94A74588EE90E162EECB
:102A20007AE00E94A4450E941C3C28EE33E040E07E
:102A300050E00E947A4988EE90E1BA01A9012AE0AB
:102A400030E00E94E34488EE90E166EF7AE00E9475
:102A5000A74562E370E080E090E00E94963C88EA3F
:102A60009BE061E00E94DB380E94CB0688EA9BE095
:102A700060E042E00E94A43888EA9BE06EE17BE0DF
:102A80000E94A44581E08093A40D82E00E94E43D71
:102A9000892B09F0A2C08091A40D882361F00E94C7
:102AA0001C3C6093A00D7093A10D8093A20D909398
:102AB000A30D1092A40D8091470B882309F08DC0BF
:102AC0000E941C3C2091A00D3091A10D4091A20DBF
:102AD0005091A30D621B730B840B950B2091430B3C
:102AE0003091440B4091450B5091460B2617370708
:102AF0004807590708F071C081E08093470B88EEC2
:102B000090E16DE07BE00E94A4450E941C3C209176
:102B1000430B3091440B4091450B5091460B621B87
:102B2000730B840B950B28EE33E040E050E00E94DD
:102B30007A4988EE90E1BA01A9012AE030E00E94CA
:102B4000E34488EE90E166EF7AE00E94A74562E3F5
:102B500070E080E090E00E94963C0E94CB0688EAFC
:102B60009BE061E00E94DB3888EA9BE060E041E0A6
:102B70000E94A43888EA9BE06DE07BE00E94A445B7
:102B80000E941C3C2091430B3091440B4091450B1B
:102B90005091460B621B730B840B950B28EE33E0B0
:102BA00040E050E00E947A4988EA9BE0BA01A9011E
:102BB0002AE030E00E94E34488EA9BE060E042E0E3
:102BC0000E94A43868EE73E080E090E00E94963C9A
:102BD00088EA9BE060E00E94DB388201095C144FC8
:102BE000F80180816A2D40E020E00E941F0FC4019F
:102BF000B3010E94963CD8018C910E940D0FF80100
:102C0000808160E040E020E00E94470F86EA9BE080
:102C1000BE016F5F7F4FAE014D5F5F4F0E94EB3093
:102C2000882359F089819A818D52914030F085E056
:102C300090E09093820D8093810DC65BDF4F0FB6BD
:102C4000F894DEBF0FBECDBFCF91DF911F910F91E2
:102C5000FF90EF90DF90CF90BF90AF909F908F90BC
:102C60007F906F905F904F90089588EE90E140E0E4
:102C70005BE460E070E00E94884181E080937C0D1D
:102C800010927B0D0E94080D0E94350E0E946F0F5E
:102C90000E94C20D0E94C90A0E942E0D0E946F0C54
:102CA0000E942A0C0E9411080E94EA0E84E068EC3F
:102CB00072E041E050E00E94A43982E090E09093FD
:102CC000820D8093810D089581E08093EA0D6093D9
:102CD000C70D1092E80D1092E90D089581E08093E0
:102CE000EA0D6093C70D1092E80D1092E90D08955A
:102CF0002091C60D30E08091C50D281B3109C90116
:102D000008954091C50D8091C60D481718F02FEF1A
:102D10003FEF0AC0E42FF0E0EB55F24F8081282FFF
:102D200030E04F5F4093C50DC9010895E091C50D96
:102D30008091C60DE81718F0EFEFFFEF06C0F0E046
:102D4000EB55F24F8081E82FF0E0CF010895089510
:102D50001092EE0D1092ED0D88EE93E0A0E0B0E041
:102D60008093EF0D9093F00DA093F10DB093F20DC1
:102D700086E59BE09093EC0D8093EB0D0895CF9248
:102D8000DF92EF92FF920F931F93CF93DF937C011B
:102D90006B018A018091EA0D8823A1F0C0E0D0E0A8
:102DA0000DC0D701ED91FC91D601AC0FBD1F019074
:102DB000F081E02DC7016C9119952196C017D107BC
:102DC00080F304C0CB01642F0E94F117C801DF918A
:102DD000CF911F910F91FF90EF90DF90CF900895CA
:102DE000DF93CF930F92CDB7DEB7FC01698380915B
:102DF000EA0D8823C9F08091E90D803238F081E036
:102E000090E09383828320E030E015C08091E80D4C
:102E1000E82FF0E0E853F24F998190838F5F809321
:102E2000E80D8093E90D05C0CE01019661E00E9496
:102E3000F11721E030E0C9010F90CF91DF910895A3
:102E40000F93062F8091C70D68EC7DE04091E90D4E
:102E500021E00E949C171092E80D1092E90D10924B
:102E6000EA0D0F91089561E00E9420170895413204
:102E700008F040E2862F65EA7DE00E945317109229
:102E8000C50D8093C60D089521E00E94371708955F
:102E90001092C50D1092C60D1092E80D1092E90D1A
:102EA0000E94A1190895382F413210F040E042C02D
:102EB0008091F70D8823E1F791E09093F70D20932F
:102EC000F90D8FEF8093640E10921F0E41504093C6
:102ED000200E4F5F9093F80D8091F80D330F832BE8
:102EE0008093F80D8091FA0D813041F41092FA0D23
:102EF0008091F80D8093BB0085EC01C085EE809336
:102F0000BC008091F70D8130E1F380911F0E841792
:102F100010F440911F0E20E030E00AC0FB01E20FE8
:102F2000F31FD901A150B24F8C9180832F5F3F4F87
:102F30002417A0F3842F08950F931F93582F122F57
:102F4000413210F081E04AC08091F70D8823E1F70B
:102F500082E08093F70D0093F90D8FEF8093640E5C
:102F600010921F0E4093200EAFEFBDE0FB0102C098
:102F700081918D938E2F861B8417D0F31092F80DBC
:102F80008091F80D550F852B8093F80D8091FA0DE7
:102F9000813041F41092FA0D8091F80D8093BB00BE
:102FA00085EC01C085EE8093BC00112321F0809157
:102FB000F70D8230E1F38091640E8F3F11F480E0D1
:102FC0000DC08091640E803211F482E007C08091C0
:102FD000640E803311F084E001C083E01F910F91F3
:102FE0000895482F613210F081E008958091F70D27
:102FF000843011F082E008956093420EA1E2BEE0B9
:10300000842F9C01F90102C081918D938E2F841B26
:103010008617D0F380E008951F920F920FB60F929B
:103020000BB60F9211242F933F934F935F936F939F
:103030007F938F939F93AF93BF93EF93FF93809171
:10304000B90090E0887F90708036910509F4F2C055
:1030500081369105CCF58832910509F47BC089321F
:103060009105B4F48031910509F46FC08131910567
:103070003CF4009709F447C1089709F04FC165C0B7
:103080008831910509F466C0809709F047C182C074
:103090008034910509F4A4C08134910544F480334F
:1030A000910509F482C0C89709F038C189C08035FC
:1030B000910509F489C08835910509F496C08834D2
:1030C000910509F02BC1AEC08839910509F413C1EF
:1030D00089399105ECF48837910509F4ABC089373B
:1030E00091054CF48836910509F4A4C08037910508
:1030F00009F014C19FC08838910509F4FCC08039DB
:10310000910509F49DC08038910509F007C198C068
:10311000803B910509F4C6C0813B91054CF4803A8F
:10312000910509F49FC0883A910509F0F7C0BAC02B
:10313000803C910509F4E3C0883C910509F4DFC0A7
:10314000883B910509F0EAC0C2C08091F80D8093D8
:10315000BB00CFC090911F0E8091200E981768F48D
:1031600090911F0EE92FF0E0E150F24F80818093A3
:10317000BB009F5F90931F0EBCC08091F90D882308
:1031800009F44BC085ED8093BC008091BC0084FDA8
:10319000FCCFC2C080E28093640E85ED8093BC00BA
:1031A0008091BC0084FDFCCFB7C080E38093640EA7
:1031B00085ED8093BC008091BC0084FDFCCFACC049
:1031C00088E38093640E9BC080911F0E9091BB009A
:1031D000E82FF0E0E150F24F90838F5F80931F0E55
:1031E00090911F0E8091200E82C080911F0E9091B1
:1031F000BB00E82FF0E0E150F24F90838F5F8093A7
:103200001F0E8091F90D882341F085ED8093BC005D
:103210008091BC0084FDFCCF7FC081E08093FA0DDB
:1032200084EA6EC085ED8093BC008091BC0084FD73
:10323000FCCF72C083E08093F70D1092630E59C0EB
:103240008091630E803208F056C08091630E909199
:10325000BB00E82FF0E0ED5BF14F90838F5F809330
:10326000630E47C08091630E803230F4E091630EAC
:10327000F0E0ED5BF14F108285ED8093BC00809112
:10328000BC0084FDFCCF1092F70D6091630EE091BD
:10329000FD0DF091FE0D83E49EE070E01995109213
:1032A000630E2DC084E08093F70D1092410E1092B2
:1032B000420EE091FB0DF091FC0D19958091420EAC
:1032C000882329F481E08093420E1092210E909180
:1032D000410EE92FF0E0EF5DF14F80818093BB005C
:1032E0009F5F9093410E9091410E8091420E9817EE
:1032F00010F485EC01C085E88093BC000FC085EC1C
:103300008093BC0009C01092640E85ED8093BC00D0
:103310008091BC0084FDFCCF1092F70DFF91EF91DE
:10332000BF91AF919F918F917F916F915F914F91DD
:103330003F912F910F900BBE0F900FBE0F901F90DB
:1033400018951092F70D81E08093F90D1092FA0D07
:1033500084E161E00E94B13D85E161E00E94B13D00
:10336000E9EBF0E080818E7F808380818D7F808398
:1033700088E48093B80085E48093BC000895882396
:1033800019F48CB5806202C08CB58F7D8CBD089518
:103390009CB5937F982B9CBD08952CB5382F337026
:1033A0002C7F322B3CBD2DB590E09595879595955A
:1033B000879581702E7F822B8DBD089585E361E016
:1033C0000E94B13D85E361E00E94FE3C8CB58061C6
:1033D0008CBD8CB580648CBD84E361E00E94FE3CB2
:1033E00083E361E00E94FE3C0895FC011382128297
:1033F00088EE93E0A0E0B0E084839583A683B78352
:1034000086E69BE091838083128E118E1486089548
:10341000FC0186E69BE0918380830895DF93CF9340
:103420000F92CDB7DEB7FC016983A081B1811296FE
:103430002D913C911397BE016F5F7F4F41E050E0AB
:10344000F90119950F90CF91DF910895DC015996FC
:10345000ED91FC915A97309719F420E030E018C0B4
:10346000238934894589568982859385A485B585C4
:10347000281B390B4A0B5B0B2030B0E83B07B0E050
:103480004B07B0E05B0720F02FEF3FE740E050E054
:10349000C9010895DC015996ED91FC915A97309736
:1034A00011F480E008958581811181E00895CF9322
:1034B000DF93EC01898D9A8D009741F00E94FF22E5
:1034C000898D9A8D0E94F33E1A8E198EDF91CF91CD
:1034D0000895FC01818D928D009711F00E94B52214
:1034E0000895FC01818D928D009719F420E030E061
:1034F00003C00E94D6239C01C9010895DF93CF9396
:103500000F92CDB7DEB7FC01818D928D009749F007
:10351000BE016F5F7F4F41E050E00E94D6230197CC
:1035200019F02FEF3FEF03C08981282F30E0C90148
:103530000F90CF91DF910895EF92FF920F931F9319
:10354000DF93CF930F92CDB7DEB77C01DC015996A4
:103550008D919C915A97009719F400E010E01FC0DC
:10356000BE016F5F7F4F41E050E00E94D62301977C
:1035700019F00FEF1FEF13C08981082F10E0D7015A
:103580005996ED91FC915A974285538564857585CE
:103590004150504060407040CF010E94EF21C8016F
:1035A0000F90CF91DF911F910F91FF90EF900895B1
:1035B000CF93DF93EC01E98DFA8D309761F01382A0
:1035C0001282CF010E941B269C01E98DFA8D828117
:1035D0009381892B31F081E090E09B838A8320E006
:1035E00030E0C901DF91CF910895EF92FF920F93E0
:1035F0001F93CF93DF93EC01F62EE72E8A011B82F7
:103600001A8288EE93E0A0E0B0E08C839D83AE83C5
:10361000BF8386E69BE0998388838DE190E00E94DA
:10362000563E9A8F898F009791F0DC018F2D9E2D49
:103630009C01F9018DE101900D928150E1F7CE01DD
:103640000C96B8014CE050E00E942202188EDF91E7
:10365000CF911F910F91FF90EF90089510926A0EF5
:1036600010926B0E10926E0E1092700E82E090E02F
:10367000A0E0B0E08093720E9093730EA093740E4E
:10368000B093750E1092890E1092930E1092920EB6
:1036900086E79BE09093910E8093900E1092950E8A
:1036A00008958B960E94FF2208952F923F924F9289
:1036B0005F926F927F928F929F92AF92BF92CF92C2
:1036C000DF92EF92FF920F931F93DF93CF93CDB7CB
:1036D000DEB7C754D0400FB6F894DEBF0FBECDBFE3
:1036E000582E492EFB013A01190185A596A5998B03
:1036F000888B26E73BE03F872E8787A58A8B80A9AA
:103700008B8B81A992A9A3A9B4A98C8B9D8BAE8B1D
:10371000BF8B85A996A9A7A9B0AD888F998FAA8FCD
:10372000BB8F81AD92ADA3ADB4AD8C8F9D8FAE8FAD
:10373000BF8F85AD88A3FE9681919191A191B191A2
:1037400089A39AA3ABA3BCA381919191A191B191BB
:103750008DA39EA3AFA3B8A7808191819AA789A7C3
:103760001EA61DA63CA72BA718AA7A018E01025FF0
:103770001F4F3BE2A32EB12CAC0EBD1E4E01089490
:10378000811C911C35C0D7018C918F3221F4089493
:10379000E11CF11C2DC0422F4E194D3008F04CE0B9
:1037A000C42EDD24C401B701A6010E942202F40147
:1037B000EC0DFD1D1082C5010E94FF22C501B8015C
:1037C000A40121E00E944728882351F4E52DF42D1F
:1037D0001382128286E79BE091838083158266C004
:1037E000EC0CFD1CC8010E94FF22C50158018C0190
:1037F000C7016FE270E00E9417029C01009719F662
:10380000E618F708F101F182E082E52DF42DD801E8
:1038100012968D919C9113979383828386E79BE008
:103820009183808314968C911497848315968C9140
:103830001597858316962D913D914D915C91199721
:1038400026833783408751871A962D913D914D915C
:103850005C911D9722873387448755871E962D914B
:103860003D914D915C91519726873787408B518BC5
:1038700052968C915297828B53962D913D914D91FA
:103880005C915697238B348B458B568B57962D9195
:103890003D914D915C915A97278B308F418F528F7C
:1038A0005B968D919C915C97948F838F852D942D41
:1038B000C95BDF4F0FB6F894DEBF0FBECDBFCF910F
:1038C000DF911F910F91FF90EF90DF90CF90BF900D
:1038D000AF909F908F907F906F905F904F903F90B0
:1038E0002F9008959F92AF92BF92CF92DF92EF9266
:1038F000FF920F931F93DF93CF93CDB7DEB7C657D9
:10390000D0400FB6F894DEBF0FBECDBFC82E992EA3
:103910008A01D22E43E0A42EB12CAC0EBD1EC501EF
:10392000A8019E012F5F3F4F0E94551BE980FA803E
:10393000E00EF11EF701808146E75BE028858823D1
:1039400009F03FC08D819E819BA38AA359A348A300
:103950008F818CA32DA389859A85AB85BC858EA389
:103960009FA3A8A7B9A78D859E85AF85B8898AA78B
:103970009BA7ACA7BDA789899A89AB89BC898EA76B
:103980009FA7A8ABB9AB8D898AAB8E899F89A88D7B
:10399000B98D8BAB9CABADABBEAB8A8D9B8DAC8D2B
:1039A000BD8D8FAB98AFA9AFBAAF8E8D9F8D9CAFF9
:1039B0008BAF8C2D992DBE01605E7F4F40E35BE0A5
:1039C0009FC0FE01FF96118210825EAF4DAFFE01D7
:1039D000EE5BFF4F10822223A9F02250CE01CD963C
:1039E000223048F460E97EE0A7012D2D0E9447288F
:1039F000882381F407C0B501A7012D2D0E94472817
:103A0000882329F48C2D992D0E94F5197BC0C501BE
:103A10000E94FF22F6E0DF2259F0FE01E05BFF4F3B
:103A20004081518162817381CE01CD960E94EF2148
:103A30009E01265A3F4FFE01FF9680819181F90138
:103A40009383828386E79BE091838083FE01EF5B13
:103A5000FF4F8081F9018483FE01EE5BFF4F80817F
:103A6000F9018583FE01ED5BFF4F80819181A28189
:103A7000B381F90186839783A087B187FE01E95B53
:103A8000FF4F80819181A281B381F9018287938761
:103A9000A487B587FE01E55BFF4F80819181A281FC
:103AA000B381F90186879787A08BB18BFE01E15B1B
:103AB000FF4F8081F901828BFE01E05BFF4F808127
:103AC0009181A281B381F901838B948BA58BB68BF5
:103AD000FE01EC5AFF4F80819181A281B381F901EF
:103AE000878B908FA18FB28FFE01E85AFF4F8081A4
:103AF0009181F901948F838F8C2D992DB901A701A4
:103B00000E94F51A8C2D992DCA58DF4F0FB6F894E4
:103B1000DEBF0FBECDBFCF91DF911F910F91FF9000
:103B2000EF90DF90CF90BF90AF909F900895EF926D
:103B30000F931F93CF93DF93EC01362F542F722FE7
:103B4000E02E61E0432F252F072F0E948A20882333
:103B5000D1F08E01035F1F4FC801BE0141E00E94FA
:103B6000E829882339F4C801BE0140E00E94E82911
:103B7000882349F0CE018B96B8010E943525882311
:103B800019F081E001C080E0DF91CF911F910F918A
:103B9000EF900895382F8091AF0E8F3F31F43EBDE6
:103BA0000DB407FEFDCF8EB50895F894A091B00E28
:103BB000B091B10E5091B20E252F2095E091B30E29
:103BC000F091B40E4091B50E642F609590E08C9109
:103BD00082238C9337FF03C08081842B02C08081B5
:103BE000862380838C91852B8C939F5F983011F076
:103BF000330FEDCF00000000000000008C9128235F
:103C00002C93789408958091AF0E8F3F31F48EBD40
:103C10000DB407FEFDCF2EB530C0F894E091B30E81
:103C2000F091B40E80819091B50E892B8083E09144
:103C3000B00EF091B10E6091B20EA091B60EB0919F
:103C4000B70E8091B80E482F50E0762F709530E077
:103C500020E08081862B8083220F8C9190E084234A
:103C60009523892B09F021608081872380830000C0
:103C700000003F5F383069F77894822F08950F93E2
:103C80001F93CF93DF938B010E941C3CEB010E949A
:103C9000031E8F3F11F481E008C00E941C3C6C1B86
:103CA0007D0B6017710798F380E0DF91CF911F9132
:103CB0000F910895FC01673020F086E1858380E054
:103CC00008956330B9F0643028F4613069F06230EF
:103CD00070F407C06530A1F0653078F06630A9F463
:103CE00012C084E090E011C080E090E00EC085E05A
:103CF00090E00BC081E090E008C086E090E005C055
:103D000082E090E002C083E090E00E94CD1981E063
:103D10000895FC01848160E00E94B13D0895FC019A
:103D2000848161E00E94B13D0895CF92DF92EF92CD
:103D3000FF920F931F93CF93DF937C016A01FC01E5
:103D40008485882319F40FEF1FEF30C000E010E0E6
:103D500040E050E0212F332727FD3A95F601E40F8C
:103D6000F51F808190E0282739273070C901F4E0E1
:103D700095958795FA95E1F782279327102F0027CD
:103D8000082719279C01322F22273295307F0227DE
:103D9000132725E0880F991F2A95E1F7082719278F
:103DA0004F5F5F4FF2E040305F07A1F6862F0E9421
:103DB000CA1DC0E0D0E0F601EC0FFD1F80810E941B
:103DC000CA1D219682E0C030D807A9F7812F992714
:103DD00087FD9A950E94CA1D802F0E94CA1D0E94CD
:103DE000031EF70182878F71853011F481E007C0CF
:103DF00081E1F7018583C7010E948F1E80E0DF917A
:103E0000CF911F910F91FF90EF90DF90CF90089589
:103E10000F931F93CF93DF93EC010E941C3C8B0107
:103E200009C00E941C3C601B710B6D52714010F068
:103E30008FE00AC00E94031E8A878F3F91F38E3F56
:103E400011F481E006C08DE08D83CE010E948F1EAB
:103E500080E0DF91CF911F910F910895CF93DF9371
:103E6000EC018E81882319F40FC00E94031E8F81FC
:103E70009885019698878F83019782509240A8F386
:103E8000CE010E948F1E1E82DF91CF910895DF9296
:103E9000EF92FF920F931F93CF93DF93EC01D62EF7
:103EA00079018A010E942E1FCE010E94891ECE0137
:103EB0006CE271E00E943F1E8D2D80640E94CA1D3D
:103EC000812F9927AA27BB270E94CA1DC801AA27AC
:103ED000BB270E94CA1DBB27A12F902F8F2D0E94A8
:103EE000CA1D8E2D0E94CA1DDD2011F485E906C071
:103EF00088E0D81611F487E801C08FEF0E94CA1D30
:103F000010E00E94031E8A8787FF02C01150C9F784
:103F1000DF91CF911F910F91FF90EF90DF90089567
:103F2000CF92DF92EF92FF920F931F93CF93DF9385
:103F3000EC017A018B01690141155105610571059B
:103F400011F482E133C08B85833039F039E0EE0C17
:103F5000FF1C001F111F3A95D1F7CE0168E1A8019F
:103F600097010E94471F882311F084E01FC0CE01F3
:103F70006EEFA6010E94951E8823C9F0CE0168E568
:103F800072E00E943F1E882311F485E10FC0CE012C
:103F90006DE020E030E040E050E00E94471F8823C1
:103FA00021F40E94031E882379F084E18D83CE01E1
:103FB0000E948F1E80E0DF91CF911F910F91FF90A3
:103FC000EF90DF90CF900895CE010E948F1E81E088
:103FD000F2CF6F927F928F929F92AF92BF92CF92C9
:103FE000DF92EF92FF920F931F93CF93DF93EC0139
:103FF0005A016B01390148010115110509F46AC024
:10400000C801820F931F8150924008F05EC08E81DC
:10401000882371F088819981AA81BB81481759074B
:104020006A077B0729F48F8198856816790650F511
:10403000A882B982CA82DB828B85833039F0E9E0BD
:10404000AA0CBB1CCC1CDD1CEA95D1F7CE0161E1AA
:10405000A60195010E94471F882319F083E08D83F4
:1040600034C0CE010E94081F882379F118861F8270
:1040700081E08E8307C00E94031E8F819885019680
:1040800098878F838F81988586159705A0F300E028
:1040900010E008C00E94031EF701E00FF11F8083AB
:1040A0000F5F1F4F08151905A8F32F813885280DBC
:1040B000391D38872F838985882319F02050324095
:1040C00048F0CE010E942E1F05C0CE010E948F1E17
:1040D00080E001C081E0DF91CF911F910F91FF90AF
:1040E000EF90DF90CF90BF90AF909F908F907F9098
:1040F0006F900895EF92FF920F931F93790120E044
:1041000030E000E012E00E94E91F1F910F91FF9044
:10411000EF900895BF92CF92DF92EF92FF920F93AC
:104120001F93CF93DF93EC01B62E1E2D1B861986AD
:104130001E821D821C864C832093B90E0093BA0EFA
:10414000E092AF0E0E941C3C6B018C8161E00E94EA
:10415000FE3CCE010E948F1E1F3F09F462C0809179
:10416000BA0E60E00E94FE3C8091B90E61E00E94B0
:10417000FE3C8091AF0E61E00E94FE3CE091AF0EEC
:104180002E2F332727FD3095F901E95EFD4FE4918D
:10419000F0E0EE0FFF1FED51FE4F8591949190934B
:1041A000B10E8093B00E235A3D4FF9018491809354
:1041B000B20EE091B90E2E2F332727FD3095F9016D
:1041C000E95EFD4FE491F0E0EE0FFF1FED51FE4F71
:1041D000859194919093B40E8093B30E235A3D4FE2
:1041E000F90184918093B50EE091BA0E2E2F3327FA
:1041F00027FD3095F901E95EFD4FE491F0E0EE0F07
:10420000FF1FE350FE4F859194919093B70E8093DA
:10421000B60E235A3D4FF90184918093B80E10E0F9
:1042200006C00E94DE1983E00E94CD19F8CF8FEFFF
:104230000E94CA1D1F5F1A30D1F7CE010E94891E4D
:1042400009C00E941C3C6C197D09615D774010F02B
:1042500081E05AC0CE0160E020E030E040E050E074
:104260000E94471F182F8A87813059F7CE0168E0D6
:104270002AEA31E040E050E00E94471F82FF02C07E
:104280001B870DC010E00E94031E8A871F5F143039
:10429000D1F78A3A11F082E037C082E08B878B85B4
:1042A000823021F0EE24FF2487010FC0E12CF12C95
:1042B000012DF0E41F2F09C00E941C3C6C197D09E0
:1042C000615D774010F088E01FC0CE0167E320E019
:1042D00030E040E050E00E94471FCE0169E2A801B3
:1042E00097010E94471F8A87882331F78B85823088
:1042F000F1F4CE016AE320E030E040E050E00E94BB
:10430000471F882339F086E08D83CE010E948F1EDF
:1043100080E01AC00E94031E807C803C11F483E080
:104320008B870E94031E0E94031E0E94031ECE0163
:104330000E948F1E8091AF0E8F3F11F081E004C06C
:10434000CE016B2D0E945A1EDF91CF911F910F91CC
:10435000FF90EF90DF90CF90BF900895CF93DF93C1
:10436000EC01DB0180E090E020E2FD01E80FF91FA5
:10437000208301968B309105C1F757E040E021C0C2
:104380002E3219F08DEA91E007C05A3019F15AE047
:1043900048E017C03217F1F0FC0101963491332345
:1043A000C9F75417B8F02132A8F02F3798F4822FAC
:1043B00081568A3108F42052FD01E40FF11D20835B
:1043C0004F5F29912223E1F690E08C91803219F021
:1043D00091E001C090E0892FDF91CF9108956F9215
:1043E0007F928F929F92AF92BF92CF92DF92EF9285
:1043F000FF920F931F93CF93DF93EC017A018B0110
:104400002D81222309F480C08B899C89AD89BE89C6
:1044100084179507A607B70708F476C085C0E1148E
:10442000F1040105110549F41E821F8218861986C0
:104430001A861B861C861D8665C02A853B854C8591
:104440005D85EB8DFC8D858590E00996215030408F
:104450004040504039014A01082E04C09694879488
:10446000779467940A94D2F72F5F3F4F4F4F5F4F77
:104470000894E108F108010911095701680104C015
:10448000D694C794B794A7948A95D2F70894E11C60
:10449000F11C011D111DA614B704C804D90428F08D
:1044A000211531054105510549F48F89988DA98D54
:1044B000BA8D8E839F83A887B98716C0A618B708C0
:1044C000C808D90811C04E815F81688579858B8DB8
:1044D0009C8D94010E94C92B0894A108B108C108C1
:1044E000D108882331F410C086E0882E912C8C0EE0
:1044F0009D1EA114B104C104D10429F7EA86FB86EC
:104500000C871D8781E001C080E0DF91CF911F9172
:104510000F91FF90EF90DF90CF90BF90AF909F9062
:104520008F907F906F900895223009F078CFE6CF7A
:10453000CF93DF93EC01462F6E857F85888999891B
:104540000E94AD29882319F420E030E00AC08A894E
:10455000282F30E095E0220F331F9A95E1F723547E
:10456000314FC901DF91CF9108950F931F93CF93DE
:10457000DF938C01FC0185818823D9F1848187FF39
:1045800035C0C80161E00E949822EC01009789F1D2
:10459000F8018581823040F483899489A589B689A0
:1045A0008C8F9D8FAE8FBF8FF8018789908D9B8FE9
:1045B0008A8F8789908DA18DB28DCD01AA27BB27C7
:1045C0009D8B8C8BE091BB0EF091BC0E309751F01F
:1045D000BE016A5E7F4FCE0148961995888D998DF0
:1045E0009B8B8A8BF80184818F7784830E944E296C
:1045F00001C080E0DF91CF911F910F910895CF937B
:10460000DF93EC010E94B522882311F01D8281E026
:10461000DF91CF9108956F927F928F929F92AF9288
:10462000BF92CF92DF92EF92FF920F931F93DF938F
:10463000CF9300D00F92CDB7DEB77C015A016B014A
:10464000DC0115968C911597813009F08FC0149676
:104650008C9181FF8BC09EC00097A105B10511F41C
:1046600081E085C0F7016284738484849584C701E6
:10467000B601A5010E94EF21882309F477C0D70174
:104680005B968D919C915C97A114B104C104D104F7
:1046900089F457964D915D916D917C915A970E9446
:1046A0003C2C882309F462C0F701178A108E118E02
:1046B000128E3DC0D70116964D915D916D917C9102
:1046C00019979E012F5F3F4F0E94C92B882309F441
:1046D0004DC0D7015B96ED91FC915C9749815A8161
:1046E0006B817C818789803129F088EF9FEFAFEF64
:1046F000BFE004C088EF9FEFA0E0B0E04817590783
:104700006A077B07A0F4CF010E943C2C882371F13B
:10471000F7014681578160857185838D948D0FEFF8
:104720001FEF2FEF3FE00E942D2B8823F9F0D701D8
:104730005396AD92BD92CD92DC92569714968C9181
:104740001497806814968C93C7010E94B522882321
:1047500069F0B601A5016A147B048C049D0410F471
:10476000B401A301C7010E94EF2101C080E00F90B6
:104770000F900F900F90CF91DF911F910F91FF90AD
:10478000EF90DF90CF90BF90AF909F908F907F90F1
:104790006F900895F70183899489A589B689841754
:1047A0009507A607B70708F057CFE0CF2F923F92A3
:1047B0004F925F926F927F928F929F92AF92BF9231
:1047C000CF92DF92EF92FF920F931F93CF93DF93DD
:1047D000EC012A018D81882309F4C6C08C8180FFF9
:1047E000C3C0D8C025014E185F084B0176E0272EC4
:1047F000312C2C0E3D1E3201B1C02A853B854C85E3
:104800005D856FEFA62E61E0B62EA222B3228D81C8
:1048100079018A0199E016950795F794E7949A959E
:10482000D1F7EB8DFC8D823049F4428D538D648D30
:10483000758D4E0D5F1D601F711F3FC0D480DA94CF
:10484000DE20A114B104D9F4DD20C9F4211531050D
:104850004105510549F48F89988DA98DBA8D8E83B4
:104860009F83A887B9870BC04E815F816885798552
:10487000CF0191010E94C92B882309F475C0EB8DEB
:10488000FC8D4E815F816885798542505040604043
:104890007040058404C0440F551F661F771F0A949B
:1048A000D2F786859785A089B189480F591F6A1F5D
:1048B0007B1F4D0D511D611D711D80E092E08A1915
:1048C0009B0963018615970508F46C018C8186FDB0
:1048D00006C080E0C81682E0D80609F073C0809157
:1048E000480B9091490BA0914A0BB0914B0B481784
:1048F00059076A077B0709F465C08091BD10909144
:10490000BE109501860174010E94E91F882361F1A0
:104910008C0C9D1C12C095012354314FA9014C0DE4
:104920005D1DD401F90102C081918D93E417F50753
:10493000D9F7E21BF30B8E0E9F1E960140E050E06C
:104940008A859B85AC85BD85820F931FA41FB51FEB
:104950008A879B87AC87BD876C187D0861147104BA
:1049600009F04BCFA20102C04FEF5FEFCA01DF9108
:10497000CF911F910F91FF90EF90DF90CF90BF905C
:10498000AF909F908F907F906F905F904F903F90EF
:104990002F900895AB88BC88CD88DE88EA84FB849C
:1049A0000C851D859A0140E050E0D601C5018E19A5
:1049B0009F09A00BB10B82179307A407B50708F452
:1049C00011CF13CFCB01BA0140E00E94AD2988235B
:1049D00009F0A1CFC9CFCF92DF92EF92FF920F9350
:1049E0001F93DF93CF930F92CDB7DEB76C01FC011D
:1049F0008581823070F0E284F38404851585C601D8
:104A0000BE016F5F7F4F41E050E00E94D6230197C7
:104A100069F020E030E0C9010F90CF91DF911F9144
:104A20000F91FF90EF90DF90CF900895F60182856F
:104A30009385A485B5854F96A11DB11D8287938767
:104A4000A487B587F5E016950795F794E794FA954E
:104A5000D1F78E2D8F70282F30E0E5E0220F331F25
:104A6000EA95E1F72354314FD6CF0F931F93CF939D
:104A7000DF93EC018B018D81882309F041C0FB019C
:104A800087898031B1F482E08D831F8A188E198E58
:104A90001A8E808D918DA0E0B0E045E0880F991FBF
:104AA000AA1FBB1F4A95D1F78B8B9C8BAD8BBE8BFE
:104AB00015C0803229F583E08D83FB01428D538D33
:104AC000648D758D4F8B588F698F7A8F9E012D5E07
:104AD0003F4FC8010E94952C882391F01C8F0B8FAB
:104AE00081E08C831E821F82188619861A861B8697
:104AF0001C861D861E861F86188A198A1A8A01C07E
:104B000080E0DF91CF911F910F9108951F93CF9374
:104B1000DF93EC01142FE62FF0E075E0EE0FFF1F9E
:104B20007A95E1F7E354F14F8385817121F0842F69
:104B3000827409F054C06A8B8091480B9091490BA4
:104B4000A0914A0BB0914B0B8E879F87A88BB98B96
:104B500084899589A0E0B0E0BC0155274427828D67
:104B6000938DA0E0B0E0482B592B6A2B7B2B4F8B09
:104B7000588F698F7A8F838590E088719070009745
:104B800051F4848D958DA68DB78D8B8B9C8BAD8BC1
:104B9000BE8B81E00CC0409711F59E012D5E3F4F0A
:104BA0008B8D9C8D0E94952C8823C9F084E08D8389
:104BB000812F8F708C831E821F82188619861A8619
:104BC0001B861C861D8616FD02C081E009C0CE0131
:104BD00040E050E060E070E00E940B2301C080E004
:104BE000DF91CF911F910895CF93DF93EC019C014A
:104BF0002A5F3F4F8B8D9C8D41E050E060E070E07C
:104C00000E94042D8823A1F08F89988DA98DBA8DDB
:104C10000097A105B10559F48E819F81A885B985BA
:104C20008F8B988FA98FBA8F8C8180688C8381E05D
:104C3000DF91CF9108952F923F924F925F927F9292
:104C40008F929F92AF92BF92CF92DF92EF92FF929C
:104C50000F931F93DF93CF9300D000D0CDB7DEB773
:104C60006C01162F072F5E834D83DC0115968C9106
:104C70001597813009F070C114968C9181FF6CC139
:104C80008EC1F60143895489658976898285938529
:104C9000A485B58584179507A607B70731F0C60127
:104CA0000E94EF21882309F457C1812F902F9C0186
:104CB00029012D803E8017C1D6015B96ED91FC91B4
:104CC0005C97DA01C90119E0B695A7959795879584
:104CD0001A95D1F774807A9478227FEF872E71E04D
:104CE000972E82229322772009F04EC081149104DE
:104CF00009F04AC0D60116964D915D916D917C9157
:104D00001997411551056105710581F457968D91EB
:104D10009D910D90BC91A02D0097A105B10549F181
:104D2000F60186839783A087B1872EC0CF019E01AD
:104D30002F5F3F4F0E94C92B882309F414C129819A
:104D40003A814B815C81D6015B96ED91FC915C9739
:104D50008789803129F088EF9FEFAFEFBFE004C073
:104D600088EF9FEFA0E0B0E0281739074A075B07FC
:104D700030F0C6010E94F425882331F4EDC0F6011D
:104D8000268337834087518780E092E0881999090C
:104D900051018215930508F45C01D6015B96ED91F3
:104DA000FC915C971696ED90FD900D911C911997D2
:104DB0008EEF9FEFAFEFBFEFE80EF91E0A1F1B1F2C
:104DC000058404C0EE0CFF1C001F111F0A94D2F7CB
:104DD00086859785A089B189E80EF91E0A1F1B1FD9
:104DE000E70CF11C011D111D90E0A91692E0B90617
:104DF00051F58091480B9091490BA0914A0BB091CD
:104E00004B0B8E159F05A007B10761F48FEF9FEF45
:104E1000AFEFBFEF8093480B9093490BA0934A0BE1
:104E2000B0934B0B8091BD109091BE10B801A701BB
:104E300092010E94901F882309F48EC0A0E0B2E086
:104E40004A0E5B1E3EC08114910409F5F6012285CD
:104E500033854485558583899489A589B689281722
:104E600039074A075B0798F00E944E29882309F406
:104E700073C0E092480BF092490B00934A0B1093D9
:104E80004B0B8091BF1081608093BF1008C0C80198
:104E9000B70141E00E94AD29882309F45DC0940167
:104EA0002354314FA9014A0D5B1DD201F90102C003
:104EB0008D918193E417F507D9F7E21BF30B4E0EA2
:104EC0005F1E2A183B08950140E050E0F6018285FC
:104ED0009385A485B585820F931FA41FB51F828774
:104EE0009387A487B587D6011A962D913D914D9150
:104EF0005C911D972114310409F0DECE53968D91FB
:104F00009D910D90BC91A02D82179307A407B50722
:104F100048F4F601238B348B458B568B8481806853
:104F2000848311C08091BB0E9091BC0E892B59F0E7
:104F30008D819E81892B39F0D60114968C9114971E
:104F4000806814968C93F601848183FF0EC0C6019D
:104F50000E94B522882349F481E090E0D60113969F
:104F60009C938E9312971E821D828D819E81269620
:104F70000FB6F894DEBF0FBECDBFCF91DF911F916A
:104F80000F91FF90EF90DF90CF90BF90AF909F90E8
:104F90008F907F905F904F903F902F90089582FD6B
:104FA00070CE83CEDF93CF930F92CDB7DEB76983F8
:104FB000BE016F5F7F4F41E050E00E941B260F90C3
:104FC000CF91DF910895DF92EF92FF920F931F939D
:104FD000CF93DF93EC010E94F425882309F44EC09F
:104FE000EB8DFC8DEE80FF80088519858EEF9FEF9D
:104FF000AFEFBFEFE80EF91E0A1F1B1F058404C0A8
:10500000EE0CFF1C001F111F0A94D2F786859785AE
:10501000A089B189E80EF91E0A1F1B1FD4800894CD
:10502000E108F108010911090BC0C801B7016D0DB4
:10503000711D811D911D0E9489298823F9F0DA9440
:10504000DD2099F7EB8DFC8D20E032E040E050E070
:10505000058404C0220F331F441F551F0A94D2F742
:105060008B899C89AD89BE89820F931FA41FB51FB0
:105070008B8B9C8BAD8BBE8B81E001C080E0DF9180
:10508000CF911F910F91FF90EF90DF9008956F9255
:105090007F928F929F92AF92BF92CF92DF92EF92C8
:1050A000FF920F931F93DF93CF93CDB7DEB72B976C
:1050B0000FB6F894DEBF0FBECDBF5C016B01822E30
:1050C000DC0115968C91882309F0D2C0CA018E01AB
:1050D0000F5F1F4FB8010E94AE21882309F4C8C09A
:1050E000F601838D948DD5015C969C938E935B978E
:1050F0001682178210861186D6011A961D921D926D
:105100001D921C921D979924380141C0C6010E942E
:10511000EB24FC01009709F4ABC085E016950795D8
:10512000F794E7948A95D1F71E2D1F70808188230C
:1051300011F0853ED1F4992091F4D50152961C933B
:1051400052972091480B3091490B40914A0B509156
:105150004B0B1E962D933D934D935C9351978081FD
:10516000882399F49924939421C0C301BF014BE093
:1051700050E00E940A02009751F4882D807380331A
:1051800009F476C0C501612F6FC099249394F6018C
:10519000E284F3840485158583899489A589B68979
:1051A000E816F9060A071B0708F4B0CF882D8271AC
:1051B000823109F05DC0992041F0C50161E00E9493
:1051C00098228C01009789F453C0D60115968C91D2
:1051D000823009F44DC0C6010E94E327882309F4F8
:1051E00047C0F501128A0DEB1EE080E2D8011D9246
:1051F0008A95E9F7D801FE0131968BE001900D9276
:105200008150E1F7E091BB0EF091BC0E309739F080
:10521000B801625F7F4FC8014096199509C081E2CD
:1052200098E2F801918B808B80E098E097878687E1
:10523000D80150968D919C91519753969C938E9343
:10524000529759969C938E9358971E968D919C9148
:105250001F9757969C938E9356970E944E298823AA
:1052600039F0C501F5016289482D0E94862501C0EB
:1052700080E02B960FB6F894DEBF0FBECDBFCF9166
:10528000DF911F910F91FF90EF90DF90CF90BF9033
:10529000AF909F908F907F906F9008958091BF10F6
:1052A000882399F14091480B5091490B60914A0B2A
:1052B00070914B0B8091BD109091BE102DEB3EE094
:1052C0000E94901F882319F14091C0105091C11085
:1052D0006091C2107091C3104115510561057105AF
:1052E00091F08091BD109091BE102DEB3EE00E9498
:1052F000901F882361F01092C0101092C11010927C
:10530000C2101092C3101092BF1081E0089580E087
:105310000895EF92FF920F931F937B018C010E94DF
:105320004E298823A9F0EDEBFEE0119280E1ED3BE0
:10533000F807D9F7E092480BF092490B00934A0B1B
:1053400010934B0B8091BF1081608093BF1081E060
:105350001F910F91FF90EF900895DF92EF92FF92CF
:105360000F931F937B018C01D42E8091480B909159
:10537000490BA0914A0BB0914B0B8E159F05A007CE
:10538000B107C1F00E944E298823D9F08091BD1049
:105390009091BE10B801A7012DEB3EE00E947A204B
:1053A000882379F0E092480BF092490B00934A0B66
:1053B00010934B0B8091BF108D298093BF1081E01B
:1053C00001C080E01F910F91FF90EF90DF90089552
:1053D0008F929F92AF92BF92CF92DF92EF92FF9205
:1053E0000F931F93CF93DF936C01142F7093BE1014
:1053F0006093BD10442321F488249924540140C0B3
:10540000453008F01CC160E070E080E090E040E0D2
:105410000E94AD29882309F412C1C12FD0E0219741
:10542000FE0174E0EE0FFF1F7A95E1F7E354F14FB0
:10543000E254FE4F8081EE5BF14090E08F779070F8
:10544000892B09F0FCC0E653FE4F80819181A28137
:10545000B38184369105A105B10508F4F0C064E07C
:10546000CC0FDD1F6A95E1F7CD57DF4E888099801C
:10547000AA80BB8081149104A104B10409F4DFC0A7
:10548000C501B40140E00E94AD29882309F4D7C0CA
:105490008091C80E9091C90E8050924009F0CFC003
:1054A0002091CD0E222309F4CAC08091CB0E909199
:1054B000CC0E892B09F4C3C08091CA0E882309F44D
:1054C000BEC0F601228B8091CA0E8483158661E0EE
:1054D00070E007C04F5FF60145874150483008F043
:1054E000AEC0F6014585848190E09B01042E02C088
:1054F000220F331F0A94E2F78217930759F720917E
:10550000D30E3091D40E2115310519F040E050E052
:1055100008C02091E10E3091E20E4091E30E5091CF
:10552000E40EF6012583368347835087E090CB0E47
:10553000F090CC0E00E010E0E80CF91C0A1D1B1DD9
:10554000E38AF48A058B168B8091CE0E9091CF0E54
:10555000918F808F6091CD0E70E080E090E00E948E
:105560004F496E0D7F1D801F911FF601628F738F53
:10557000848F958F2091CE0E3091CF0E55E0220F63
:10558000331F5A95E1F721503E4F232F332726959D
:1055900040E050E0260F371F481F591F26873787E6
:1055A000408B518B8091D00E9091D10E009719F0C5
:1055B000A0E0B0E008C08091DD0E9091DE0EA091D9
:1055C000DF0EB091E00E85017401E21AF30A040BBC
:1055D000150BA8019701280F391F4A1F5B1FF60101
:1055E000058404C056954795379527950A94D2F7B8
:1055F0002187328743875487253FFFE03F07F0E04C
:105600004F07F0E05F0710F48CE006C0255F3F4FC6
:105610004040504028F480E1F601878B81E010C0C3
:105620008091E90E9091EA0EA091EB0EB091EC0EF4
:10563000F601828F938FA48FB58F80E2EECF80E04A
:10564000DF91CF911F910F91FF90EF90DF90CF905E
:10565000BF90AF909F908F9008954F925F926F92FE
:105660007F928F929F92AF92BF92CF92DF92EF92F2
:10567000FF920F931F93CF93DF93EC016A017B019D
:1056800028013901423051056105710508F46FC0E8
:1056900089859A85AB85BC850196A11DB11D8417AE
:1056A0009507A607B70708F462C02B893C894D8986
:1056B0005E898F89803129F499278F2D7E2D6D2D5C
:1056C00009C0C701B60117E096958795779567954C
:1056D0001A95D1F74B015C01820E931EA41EB51ED4
:1056E0008091480B9091490BA0914A0BB0914B0BC4
:1056F00088169906AA06BB0639F0C501B40140E038
:105700000E94AD29882399F18F89803149F4F601EF
:10571000F070EE0FFF1FE354F14F518240820DC035
:10572000F601EF77F070EE0FFF1FEE0FFF1FE3544F
:10573000F14F40825182628273828091BF108160FA
:105740008093BF108A89823080F08D819E81AF81E5
:10575000B885880E991EAA1EBB1E8092C01090921A
:10576000C110A092C210B092C31081E001C080E0CD
:10577000DF91CF911F910F91FF90EF90DF90CF902D
:10578000BF90AF909F908F907F906F905F904F9061
:105790000895CF92DF92EF92FF920F931F93CF93D2
:1057A000DF93EC017A018B01690189859A85AB85CC
:1057B000BC850196A11DB11D84179507A607B707E3
:1057C00008F450C02B893C894D895E898F898031CE
:1057D00029F49927812F702F6F2D09C0C801B701B7
:1057E000E7E09695879577956795EA95D1F7260F27
:1057F000371F481F591F8091480B9091490BA0916A
:105800004A0BB0914B0B281739074A075B0739F051
:10581000CA01B90140E00E94AD29882319F18F899E
:10582000803159F4F701F070EE0FFF1FE354F14F90
:1058300080819181A0E0B0E00EC0F701EF77F070B9
:10584000EE0FFF1FEE0FFF1FE354F14F8081918198
:10585000A281B381BF70F60180839183A283B38359
:1058600081E001C080E0DF91CF911F910F91FF9007
:10587000EF90DF90CF900895AF92BF92CF92DF92DA
:10588000EF92FF920F931F93DF93CF9300D00F926D
:10589000CDB7DEB76C017A018B0182E090E0A0E029
:1058A000B0E0F60180839183A283B3835E01089404
:1058B000A11CB11CC601B801A70195010E94C92B0A
:1058C000882319F1C601B801A70100E010E020E02B
:1058D00030E00E942D2B8823C1F0E980FA800B81F3
:1058E0001C81F6018789803129F088EF9FEFAFEFA7
:1058F000BFE004C088EF9FEFA0E0B0E0E816F90633
:105900000A071B07B8F281E001C080E00F900F90FA
:105910000F900F90CF91DF911F910F91FF90EF901B
:10592000DF90CF90BF90AF9008954F925F926F92AB
:105930007F928F929F92AF92BF92CF92DF92EF921F
:10594000FF920F931F93DF93CF9300D00F92CDB7A9
:10595000DEB76C0149835A836B837C833901EE2463
:10596000FF2487012E010894411C511C812CA2E0C8
:105970009A2EA12CB12C49815A816B817C81C60160
:1059800092010E94C92B882351F1D501C401F6016F
:10599000058404C0880F991FAA1FBB1F0A94D2F761
:1059A000E80EF91E0A1F1B1F29813A814B815C8179
:1059B0008789803129F088EF9FEFAFEFBFE004C007
:1059C00088EF9FEFA0E0B0E0281739074A075B0790
:1059D00090F2F301E082F1820283138381E00F9061
:1059E0000F900F900F90CF91DF911F910F91FF902B
:1059F000EF90DF90CF90BF90AF909F908F907F906F
:105A00006F905F904F9008952F923F924F925F92C8
:105A10006F927F928F929F92AF92BF92CF92DF92BE
:105A2000EF92FF920F931F93DF93CF93CDB7DEB723
:105A30002F970FB6F894DEBF0FBECDBF1C014A876B
:105A40005B876C877D873F872E87D9010D911D91DC
:105A50002D913C91011511052105310549F04801B1
:105A600059010894811C911CA11CB11C198610C0FD
:105A7000FC0180809180A280B38019868A859B85F5
:105A8000AC85BD850197A105B10511F491E0998719
:105A9000D10119968D919D910D90BC91A02D0196EB
:105AA000A11DB11D8D839E83AF83B88775016401ED
:105AB0004424552432018E010F5F1F4FF10181856F
:105AC0009285A385B485481659066A067B0608F0B8
:105AD00090C08D819E81AF81B8858C159D05AE05E6
