:100000000C947A010C9416380C9447380C94783878
:100010000C94A9380C94DA380C940B390C943C39B4
:100020000C946D390C94A7010C94A7010C94A701B2
:100030000C94A7010C94A7010C94A7010C94A701A0
:100040000C94A7010C94A7010C94A7010C94A70190
:100050000C94A7010C945B330C94A7010C949E396B
:100060000C94A7010C94563D0C94823E0C94A7016D
:100070000C94A7010C94A7010C94A7010C94A70160
:100080000C94A7010C94A7010C94A7010C94A70150
:100090000C94923D0C94B63E0C94A7010C94D6158A
:1000A0000C94A7010C94A7010C94A7010C94A70130
:1000B0000C94A7010C94A7010C94A7010C94A70120
:1000C0000C94A7010C94A7010C94A7010C94CE3DAD
:1000D0000C94EA3E0C94A7010C940A3E0C941E3F2B
:1000E0000C94A70107634236B79BD8A71A39685604
:1000F00018AEBAAB558C1D3CB7CC5763BD6DEDFD4A
:10010000753EF6177231BF000000803F0800000006
:10011000BE922449123EABAAAA2ABECDCCCC4C3EFC
:1001200000000080BEABAAAAAA3E00000000BF00EB
:100130000000803F0000000000084178D3BB4387E7
:10014000D1133D190E3CC3BD4282AD2B3E68EC82FB
:1001500076BED98FE1A93E4C80EFFFBE01C4FF7F80
:100160003F000000000056533130353320666F7574
:100170006E6400436F756C646E27742066696E64EC
:10018000205653313035332C20646F20796F752021
:10019000686176652074686520726967687420708C
:1001A000696E7320646566696E65643F007C3C3EE1
:1001B0005E2B3D3F2F5B5D3B2C2A225C001F1C1FEA
:1001C0001E1F1E1F1F1E1F1E1F00002100240027B0
:1001D000002A002D00300033000101000004010757
:1001E000010A0100002200250028002B002E00310A
:1001F00000340002010000050108010B010000208D
:10020000002300260029002C002F003200000100EE
:100210000003010601090105050505070508080891
:1002200008020202020A0A08080404040401010187
:10023000010101010103030303030303030407078F
:10024000070C0C0C0C0C0C0C0C020202020606062D
:1002500006060606060B0B0B0B0B0B0B0B01021015
:1002600020200808102040102040800201020108D0
:100270000402010102040810204080804020100880
:1002800004020180040201804020100804020108D9
:100290000402010102040810204080010204081039
:1002A0002040800000090A02080B0C0D0706030419
:1002B000010000000000000000000000000000003D
:1002C000000000000000000000000000000000111D
:1002D000100F0000000000000000000000000000FF
:1002E000000000000000000000008A057214F818E9
:1002F0005F40830511241FBECFEFD1E2DEBFCDBF2B
:1003000000E00CBF1BE0A0E0B2E0E6E9FFE800E09F
:100310000BBF02C007900D92A035B107D9F71BBEE5
:1003200013E1A0E5BBE001C01D92A731B107E1F7E1
:1003300012E0C2EFD2E004C02297FE010E94834780
:10034000CA3ED107C9F70E9495410C94BE470C9450
:100350000000A0E0B0E0EFEAF1E00C948F47EC0180
:10036000A880B980CA80DB80A114B104C104D10483
:1003700041F484E2A82E89EDB82E8BE5C82E87E0E3
:10038000D82EC601B5012DE133EF41E050E00E94C7
:10039000664727EA31E440E050E00E9419477B01BC
:1003A0008C01C601B5012DE133EF41E050E00E9420
:1003B0006647CA01B9012CEE34EF4FEF5FEF0E94A0
:1003C00019476E0D7F1D801F911F97FF04C061505C
:1003D000704080409048688379838A839B839B0127
:1003E000AC015F77B901CA01CDB7DEB7EAE00C9482
:1003F000AB470E94A901089580EE9AE00E94A901EE
:1004000008956093E00A7093E10A8093E20A909362
:10041000E30A0895FB01DC0104C08D91019080196D
:1004200021F441505040C8F7881B990B0895FC01F6
:100430008191861721F08823D9F79927089531975C
:10044000CF010895FB01DC014150504048F001907C
:100450000D920020C9F701C01D9241505040E0F7B5
:1004600008950F931F93CF93DF938C01EB016115D8
:10047000710581F0DC011F96ED91FC91509730974A
:1004800031F0CE011D966D917C911E971995F80162
:10049000D687C587DF91CF911F910F910895DF9384
:1004A000CF93CDB7DEB72D970FB6F894DEBF0FBE52
:1004B000CDBFE091DA0BF091DB0B9E012F5F3F4F38
:1004C000AF018DE0DA010D90AD01D9010D929D01D2
:1004D0008150C1F780912E0D90912F0D8F31910594
:1004E00089F18032910524F44E9709F044C035C05B
:1004F0008032910519F18197F1F5A885B98510979A
:1005000059F0CE0101961C969C938E931B97A78160
:10051000B085109761F40FC02091DE0B3091DF0B96
:100520002115310541F1CF01F901199524C01C961F
:10053000FC93EE931B976781708519C08DEC9BE04F
:10054000BC0117C0A581B681109721F01C96FC93C1
:10055000EE931B97658176810AC0A185B2851097BD
:1005600021F01C96FC93EE931B97618572858DECB0
:100570009BE00E94310210922F0D10922E0D2D96AD
:100580000FB6F894DEBF0FBECDBFCF91DF910895B7
:1005900083E090E090932A0D8093290D0895EF92C7
:1005A0000F938130910509F09EC26F5F7F4F09F074
:1005B000A7C280E59BE00E94032E82E59BE060E0FD
:1005C0000E94CE348DE69BE069E04AE028E003E03B
:1005D00034E0E32E0E94873382EB9BE00E94BF173A
:1005E00080E092E09093CE0B8093CD0B1092CF0BD6
:1005F0001092D70B1092D60B1092D50B1092D40BF1
:100600001092D30B1092D20B1092D10B1092D00BF0
:100610008DEC9BE09093DB0B8093DA0B84EF96E0FC
:100620009093DD0B8093DC0B82E19BE09093DF0BDA
:100630008093DE0B89E092E09093E10B8093E00BD6
:100640001092E20B1092EA0B1092E90B1092E80B59
:100650001092E70B1092E60B1092E50B1092E40B50
:100660001092E30B8CE192E09093EE0B8093ED0BF4
:100670001092EF0B1092F70B1092F60B1092F50BF5
:100680001092F40B1092F30B1092F20B1092F10BEC
:100690001092F00B89E292E09093FB0B8093FA0B9F
:1006A0001092FC0B1092040C1092030C1092020C8E
:1006B0001092010C1092000C1092FF0B1092FE0B86
:1006C0001092FD0B87E392E09093080C8093070C47
:1006D0001092090C1092110C1092100C10920F0C29
:1006E00010920E0C10920D0C10920C0C10920B0C20
:1006F00010920A0C84E492E09093150C8093140CF1
:100700001092160C10921E0C10921D0C10921C0CC4
:1007100010921B0C10921A0C1092190C1092180CBB
:100720001092170C82E592E09093220C8093210C9A
:100730001092230C10922B0C10922A0C1092290C60
:100740001092280C1092270C1092260C1092250C57
:100750001092240C83E692E090932F0C80932E0C41
:100760001092300C1092380C1092370C1092360CFC
:100770001092350C1092340C1092330C1092320CF3
:100780001092310C85E792E090933C0C80933B0CE7
:1007900010923D0C1092450C1092440C1092430C98
:1007A0001092420C1092410C1092400C10923F0C8F
:1007B00010923E0C84E892E09093490C8093480C90
:1007C00010924A0C1092520C1092510C1092500C34
:1007D00010924F0C10924E0C10924D0C10924C0C2B
:1007E00010924B0C84E992E09093560C8093550C38
:1007F0001092570C10925F0C10925E0C10925D0CD0
:1008000010925C0C10925B0C10925A0C1092590CC6
:100810001092580C89EA92E09093630C8093620CDA
:100820001092640C10926C0C10926B0C10926A0C6B
:100830001092690C1092680C1092670C1092660C62
:100840001092650C82EB92E09093700C80936F0C89
:100850001092710C1092790C1092780C1092770C07
:100860001092760C1092750C1092740C1092730CFE
:100870001092720C8DEB92E090937D0C80937C0C27
:1008800010927E0C1092860C1092850C1092840CA3
:100890001092830C1092820C1092810C1092800C9A
:1008A00010927F0C87EC92E090938A0C8093890CD5
:1008B00010928B0C1092930C1092920C1092910C3F
:1008C0001092900C10928F0C10928E0C10928D0C36
:1008D00010928C0C89ED92E09093970C8093960C7B
:1008E0001092980C1092A00C10929F0C10929E0CDB
:1008F00010929D0C10929C0C10929B0C10929A0CD2
:100900001092990C85EE92E09093A40C8093A30C26
:100910001092A50C1092AD0C1092AC0C1092AB0C76
:100920001092AA0C1092A90C1092A80C1092A70C6D
:100930001092A60C80EF92E09093B10C8093B00CD3
:100940001092B20C1092BA0C1092B90C1092B80C12
:100950001092B70C1092B60C1092B50C1092B40C09
:100960001092B30C8DEF92E09093BE0C8093BD0C6F
:100970001092BF0C1092C70C1092C60C1092C50CAE
:100980001092C40C1092C30C1092C20C1092C10CA5
:100990001092C00C8BE093E09093CB0C8093CA0C28
:1009A0001092CC0C1092D40C1092D30C1092D20C4A
:1009B0001092D10C1092D00C1092CF0C1092CE0C41
:1009C0001092CD0C89E193E09093D80C8093D70CD2
:1009D0001092D90C1092E10C1092E00C1092DF0CE6
:1009E0001092DE0C1092DD0C1092DC0C1092DB0CDD
:1009F0001092DA0C8CE293E09093E50C8093E40C77
:100A00001092E60C1092EE0C1092ED0C1092EC0C81
:100A10001092EB0C1092EA0C1092E90C1092E80C78
:100A20001092E70C8BE393E09093F20C8093F10C1F
:100A30001092F30C1092FB0C1092FA0C1092F90C1D
:100A40001092F80C1092F70C1092F60C1092F50C14
:100A50001092F40C8AE493E09093FF0C8093FE0CC8
:100A60001092000D1092080D1092070D1092060DB5
:100A70001092050D1092040D1092030D1092020DAC
:100A80001092010D89E593E090930C0D80930B0D6E
:100A900010920D0D1092150D1092140D1092130D51
:100AA0001092120D1092110D1092100D10920F0D48
:100AB00010920E0D8EE593E09093190D8093180D12
:100AC00010921A0D1092220D1092210D1092200DED
:100AD00010921F0D10921E0D10921D0D10921C0DE4
:100AE00010921B0D0DC0892B59F46F5F7F4F41F49D
:100AF00082EB9BE00E94D21785E99BE00E94D2170F
:100B00000F91EF90089580E090E06FEF7FEF0E94EB
:100B1000CF02089581E090E06FEF7FEF0E94CF0257
:100B20000895CF92DF92EF92FF920F931F93CF938E
:100B3000DF9381E20E94AE3BEC018091300D9091F9
:100B4000310DC817D90751F00E94E6396093380D6E
:100B50007093390D80933A0D90933B0D0E94E639C6
:100B60002091380D3091390D40913A0D50913B0D47
:100B7000621B730B840B950B2091ED0A3091EE0AEA
:100B80004091EF0A5091F00A261737074807590796
:100B900018F0CC24DD240BC00E94E6396093380D98
:100BA0007093390D80933A0D90933B0D6E01D09365
:100BB000310DC093300D80E20E94AE3BEC0180917C
:100BC000320D9091330DC817D90751F00E94E639C4
:100BD00060933C0D70933D0D80933E0D90933F0DBF
:100BE0000E94E63920913C0D30913D0D40913E0D23
:100BF00050913F0D621B730B840B950B2091ED0AF6
:100C00003091EE0A4091EF0A5091F00A261737070B
:100C10004807590718F0EE24FF240BC00E94E6395C
:100C200060933C0D70933D0D80933E0D90933F0D6E
:100C30007E01D093330DC093320D8FE10E94AE3B05
:100C4000EC018091360D9091370DC817D90751F0FE
:100C50000E94E6396093440D7093450D8093460DD4
:100C60009093470D0E94E6392091440D3091450D37
:100C70004091460D5091470D621B730B840B950BF1
:100C80002091ED0A3091EE0A4091EF0A5091F00A5E
:100C9000261737074807590718F000E010E00BC087
:100CA0000E94E6396093440D7093450D8093460D84
:100CB0009093470D8E01D093370DC093360D8EE182
:100CC0000E94AE3BEC018091340D9091350DC81718
:100CD000D90751F00E94E6396093400D7093410DA1
:100CE0008093420D9093430D0E94E6392091400D70
:100CF0003091410D4091420D5091430D621B730B99
:100D0000840B950B2091ED0A3091EE0A4091EF0A89
:100D10005091F00A261737074807590718F080E066
:100D200090E00BC00E94E6396093400D7093410D36
:100D30008093420D9093430DCE01D093350DC09317
:100D4000340D21E0C216D10419F481E290E011C003
:100D500021E0E216F10419F480E290E00AC00130CB
:100D6000110519F48FE190E004C0019739F48EE188
:100D700090E090932F0D80932E0D04C010922F0DB4
:100D800010922E0DDF91CF911F910F91FF90EF9058
:100D9000DF90CF900895EF92FF920F931F9342E55B
:100DA000E42E4BE0F42EC70160E040E00E946E3676
:100DB00001E713E0C701B8010E946E43C701B80103
:100DC0000E946E43C701B8010E946E43C701B8017B
:100DD0000E946E43C70160E040E00E946E361F91A2
:100DE0000F91FF90EF9008950F931F93DF93CF9390
:100DF000CDB7DEB72D970FB6F894DEBF0FBECDBFCF
:100E0000DE011196FC018DE001900D928150E1F719
:100E100009811A8182E59BE060E042E00E946E3623
:100E2000A091CD0BB091CE0BF80105C031968C91FD
:100E3000981729F4119690819923C1F7DFC082E0B9
:100E40000930180729F482E59BE066E873E0DCC00E
:100E500082E00C31180729F482E59BE06BE973E02E
:100E6000D3C082E00932180729F482E59BE060EBE9
:100E700073E0CAC082E00733180729F482E59BE0DB
:100E800065EC73E0C1C082E00434180729F482E500
:100E90009BE06AED73E0B8C082E00235180729F4E0
:100EA00082E59BE06FEE73E0AFC082E00336180787
:100EB00029F482E59BE064E074E0A6C082E0053797
:100EC000180729F482E59BE069E174E09DC082E0A7
:100ED0000438180729F482E59BE06EE274E094C0C0
:100EE00082E00439180721F482E59BE0B8018CC048
:100EF00082E0093A180729F482E59BE063E474E094
:100F000083C082E0023B180729F482E59BE068E594
:100F100074E07AC082E00D3B180729F482E59BE07B
:100F20006DE674E071C082E0073C180729F482E5A1
:100F30009BE062E874E068C082E0093D180729F48C
:100F400082E59BE067E974E05FC082E0053E180738
:100F500029F482E59BE06CEA74E056C082E0003F31
:100F6000180729F482E59BE061EC74E04DC082E053
:100F70000D3F180729F482E59BE066ED74E044C05C
:100F800083E00B30180729F482E59BE06BEE74E0F8
:100F90003BC083E00931180729F482E59BE060E05B
:100FA00075E032C083E00C32180729F482E59BE03B
:100FB00065E175E029C083E00B33180729F482E569
:100FC0009BE06AE275E020C083E00A34180729F448
:100FD00082E59BE06FE375E017C083E009351807F1
:100FE00029F482E59BE064E575E00EC00E551340E0
:100FF00069F482E59BE069E675E006C00E94CB06D5
:1010000082E59BE06EE775E00E946E432D960FB679
:10101000F894DEBF0FBECDBFCF91DF911F910F912E
:1010200008950E94CB0682E59BE060E041E00E94CB
:101030006E3682E59BE063E975E00E946E438DECBD
:101040009BE09093E40B8093E30B80EE9BE0909306
:10105000D50B8093D40B8091EB0B9091EC0B892BEB
:1010600041F48091D80B9091D90B9093EC0B809325
:10107000EB0B80EE9BE090935F0C80935E0C85E51C
:101080009CE09093E60B8093E50B8091600C90912F
:10109000610C892B41F48091EB0B9091EC0B9093B8
:1010A000610C8093600C85E59CE09093EE0C80933E
:1010B000ED0C84EE9CE090935B0C80935A0C809135
:1010C000EF0C9091F00C892B41F48091600C909181
:1010D000610C9093F00C8093EF0C84EE9CE0909365
:1010E000150D8093140D8BE09DE09093EA0C809396
:1010F000E90C8091160D9091170D892B41F4809188
:10110000EF0C9091F00C9093170D8093160D80EEDC
:101110009BE09093F10B8093F00B8DEE9BE090930E
:10112000E80B8093E70B8091F80B9091F90B892BDA
:1011300041F48091EB0B9091EC0B9093F90B809321
:10114000F80B8DEE9BE09093040C8093030C8AEFD8
:101150009BE09093F30B8093F20B8091050C9091A0
:10116000060C892B41F48091F80B9091F90B909328
:10117000060C8093050C8AEF9BE09093110C8093F2
:10118000100C87E09CE09093000C8093FF0B809103
:10119000120C9091130C892B41F48091050C9091C5
:1011A000060C9093130C8093120C87E09CE09093B4
:1011B0001E0C80931D0C84E19CE090930D0C809399
:1011C0000C0C80911F0C9091200C892B41F4809184
:1011D000120C9091130C9093200C80931F0C84E1BF
:1011E0009CE090932B0C80932A0C81E29CE09093DE
:1011F0001A0C8093190C80912C0C90912D0C892B3A
:1012000041F480911F0C9091200C90932D0C8093B1
:101210002C0C81E29CE09093380C8093370C8EE28A
:101220009CE09093270C8093260C8091390C909130
:101230003A0C892B41F480912C0C90912D0C9093B9
:101240003A0C8093390C8EE29CE09093450C80938D
:10125000440C8BE39CE09093340C8093330C80918E
:10126000460C9091470C892B41F48091390C909158
:101270003A0C9093470C8093460C8BE39CE0909340
:10128000520C8093510C88E49CE09093410C809325
:10129000400C8091530C9091540C892B41F4809117
:1012A000460C9091470C9093540C8093530C85E519
:1012B0009CE09093660C8093650C82E69CE0909392
:1012C0005D0C80935C0C80916D0C90916E0C892B61
:1012D00041F48091600C9091610C90936E0C80931E
:1012E0006D0C82E69CE09093790C8093780C8FE6ED
:1012F0009CE09093680C8093670C80917A0C90919D
:101300007B0C892B41F480916D0C90916E0C909325
:101310007B0C80937A0C8FE69CE09093860C8093F4
:10132000850C8CE79CE09093750C8093740C8091F5
:10133000870C9091880C892B41F480917A0C9091C4
:101340007B0C9093880C8093870C8CE79CE09093A7
:10135000930C8093920C89E89CE09093820C80938C
:10136000810C8091940C9091950C892B41F4809183
:10137000870C9091880C9093950C8093940C89E83D
:101380009CE09093A00C80939F0C86E99CE0909346
:101390008F0C80938E0C8091A10C9091A20C892BC4
:1013A00041F48091940C9091950C9093A20C8093B1
:1013B000A10C86E99CE09093AD0C8093AC0C83EA81
:1013C0009CE090939C0C80939B0C8091AE0C909130
:1013D000AF0C892B41F48091A10C9091A20C9093B9
:1013E000AF0C8093AE0C83EA9CE09093BA0C809390
:1013F000B90C80EB9CE09093A90C8093A80C809191
:10140000BB0C9091BC0C892B41F48091AE0C909157
:10141000AF0C9093BC0C8093BB0C80EB9CE0909342
:10142000C70C8093C60C8DEB9CE09093B60C809318
:10143000B50C8091C80C9091C90C892B41F4809116
:10144000BB0C9091BC0C9093C90C8093C80C8DEB95
:101450009CE09093D40C8093D30C8AEC9CE0909306
:10146000C30C8093C20C8091D50C9091D60C892B23
:1014700041F48091C80C9091C90C9093D60C809344
:10148000D50C8AEC9CE09093E10C8093E00C87ED06
:101490009CE09093D00C8093CF0C8091E20C9091C3
:1014A000E30C892B41F48091D50C9091D60C90934C
:1014B000E30C8093E20C84EE9CE09093F50C809317
:1014C000F40C81EF9CE09093EC0C8093EB0C8091FA
:1014D000FC0C9091FD0C892B41F48091EF0C9091C4
:1014E000F00C9093FD0C8093FC0C81EF9CE09093AA
:1014F000080D8093070D8EEF9CE09093F70C80937E
:10150000F60C8091090D90910A0D892B41F4809180
:10151000FC0C9091FD0C90930A0D8093090D8BE0CB
:101520009DE090931C0D80931B0D88E19DE09093AE
:10153000130D8093120D8091230D9091240D892B12
:1015400041F48091160D9091170D9093240D809386
:10155000230D8DEC9BE0BC010E94310260E273E040
:1015600080E090E00E94603A82E59BE060E043E02A
:101570000E946E3682E59BE064EA75E00E946E434D
:1015800064EF71E080E090E00E94603A0E94CB0638
:101590000895CF93DF930E94CB068BE890E16DEA2C
:1015A00075E00E946E4382E59BE060E043E00E94AC
:1015B0006E3682E59BE061EC75E00E946E43C0E010
:1015C000D0E08BE890E163ED75E00E946E4368EE39
:1015D00073E080E090E00E94603A2196C530D1052A
:1015E00081F78BE890E165ED75E00E9471438BE82F
:1015F00090E16BED75E00E94714382E59BE060E055
:1016000043E00E946E3682E59BE069EE75E00E9441
:101610006E4362E370E080E090E00E94603ADF9108
:10162000CF9108950F93CF93DF93EC010E94CB06E7
:1016300082E59BE060E040E00E946E3682E59BE040
:101640006BEF75E00E946E4382E59BE060E041E055
:101650000E946E366881798182E59BE00E946E432C
:1016600068EB7BE080E090E00E94603A8DEC9BE0CC
:10167000BC010E943102888199818E55934071F49A
:101680008BE890E16DE076E00E94714385E090E0A8
:1016900090932A0D8093290D0E94CB068881998111
:1016A0008D5F924079F58DE261E00E947B3B88E09E
:1016B0009EE00E941B1988E09EE064E04FEF2FEF50
:1016C0000FEF0E94611B8BE890E164E376E004C0B9
:1016D0008BE890E16AE476E00E9471438DE69BE03E
:1016E00060E676E00E943933882391F38DE260E072
:1016F0000E947B3B85E090E090932A0D8093290D1A
:101700000E94CB06888199818B50934071F58DE2C0
:1017100061E00E947B3B88E09EE00E941B1988E00C
:101720009EE064E04FEF2FEF0FEF0E94611B8BE80C
:1017300090E16DE676E00E9471438DE69BE063E800
:1017400076E00E94D03268EB7BE080E090E00E947F
:10175000603A8DE260E00E947B3B85E090E09093F0
:101760002A0D8093290D0E94CB0688819981895189
:10177000934071F58DE261E00E947B3B88E09EE042
:101780000E941B1988E09EE064E04FEF2FEF0FEFFF
:101790000E94611B8BE890E160E976E00E94714352
:1017A0008DE69BE06BEA76E00E94D03268EB7BE04E
:1017B00080E090E00E94603A8DE260E00E947B3B16
:1017C00085E090E090932A0D8093290D0E94CB062E
:1017D000888199818D5B9240D1F483E090E0909371
:1017E000260D8093250D8BE890E168EB76E00E9452
:1017F000714368EE73E080E090E00E94603A85E01B
:1018000090E090932A0D8093290D0E94CB06888149
:101810009981875C9240D1F484E090E09093260D0A
:101820008093250D8BE890E163ED76E00E94714393
:1018300068EE73E080E090E00E94603A85E090E01E
:1018400090932A0D8093290D0E94CB06DF91CF91B2
:101850000F9108950E94CB0682E59BE060E041E095
:101860000E946E3682E59BE062EF76E00E946E4356
:101870008DE69BE00E948632882339F48BE890E164
:1018800063E771E00E941942FFCF8BE890E166E6C2
:1018900071E00E9419428DE69BE062E042E00E9406
:1018A0008F318DE69BE065E00E94AD338DE69BE0D5
:1018B00060E676E00E94D03260E273E080E090E083
:1018C0000E94603A82E59BE060E043E00E946E3651
:1018D00082E59BE064EA75E00E946E4308950F93F1
:1018E000DF93CF93CDB7DEB76B970FB6F894DEBF1B
:1018F0000FBECDBF0E94CB0682E59BE060E041E0D9
:101900000E946E3682E59BE064E077E00E946E43C1
:101910008BE890E160E177E00E946E4388E09EE012
:1019200065E34FEF2FEF0FEF0E94611B882339F41F
:101930008BE890E168E277E00E947143FFCF8BE88B
:1019400090E164E477E00E947143CE01019668E083
:101950007EE046E557E023E10E943C1A8B819C81A2
:101960009093B50B8093B40B8D819E81AF81B88528
:101970008093B60B9093B70BA093B80BB093B90BB1
:1019800089859A85AB85BC858093BA0B9093BB0BF8
:10199000A093BC0BB093BD0BAEEBBBE0FE013D963C
:1019A0008DE001900D928150E1F78A8D9B8D90938F
:1019B000CC0B8093CB0BCE0101960E94D21782EB09
:1019C0009BE00E941418882339F48BE890E162E6CA
:1019D00077E00E947143FFCF60E273E080E090E027
:1019E0000E94603A82E59BE060E043E00E946E3630
:1019F00082E59BE064EA75E00E946E436B960FB649
:101A0000F894DEBF0FBECDBFCF91DF910F91089547
:101A1000EF92FF920F931F935BE8E52E50E1F52EB6
:101A2000C7016CE777E00E946E4302E51BE0C80146
:101A300064E144E020E00E94B2360E94CB06C80177
:101A400067E977E00E946E43C70164EA75E00E948F
:101A500071431F910F91FF90EF900895DF93CF9303
:101A60000F92CDB7DEB78BE890E167EA77E00E948E
:101A70006E430E94CB0682E59BE060E041E00E945D
:101A80006E3682E59BE064EC77E00E946E4380E571
:101A90009BE00E94D93080E59BE0BE016F5F7F4FE5
:101AA0000E94642E882399F08BE890E166ED77E040
:101AB0000E946E438BE890E1698140E150E00E9412
:101AC000EA428BE890E169EE77E00E947143109260
:101AD0002B0D8BE890E16AEF77E00E94714380E57F
:101AE0009BE060912B0D42E02CE23DE00E94802FB4
:101AF0008BE890E168E078E00E94714380E59BE02C
:101B00000E949A2F64E670E080E090E00E94603AC4
:101B100080E59BE061E045E00E94442F882331F09E
:101B20008BE890E163E178E00E94714380E59BE0FF
:101B30006CE271E040ED57E00E94242F882331F0E1
:101B40008BE890E169E378E00E94714360E273E022
:101B500080E090E00E94603A8BE890E164EA75E0F2
:101B60000E94714382E59BE060E043E00E946E3694
:101B700082E59BE064EA75E00E946E430F90CF918E
:101B8000DF910895CF92DF92EF92FF920F931F9310
:101B90007BE8C72E70E1D72EC60166E678E00E948A
:101BA0006E430E94CB0662E5E62E6BE0F62EC7017F
:101BB00060E041E00E946E36C7016BE778E00E946A
:101BC0006E4385E361E00E94C83A86E161E00E94CD
:101BD000C83A8EE160E00E94C83A8FE160E00E945E
:101BE000C83A80E260E00E94C83A81E260E00E9468
:101BF000C83A82E260E00E94C83A82E060E00E9457
:101C0000C83A82E160E00E94C83A88E261E00E943E
:101C1000C83A89E261E00E94C83A8CE060E00E9424
:101C2000C83A8DE261E00E94C83A85E361E00E9413
:101C3000C83A60E273E080E090E00E94603A04EA13
:101C400015E0C601B8010E947143C70160E043E09E
:101C50000E946E36C701B8010E946E431F910F911A
:101C6000FF90EF90DF90CF900895CF92DF92EF92A8
:101C7000FF920F931F93DF93CF93CDB7DEB7689793
:101C80000FB6F894DEBF0FBECDBF8BE890E16DE8D4
:101C900078E00E946E430E94CB0682E59BE060E004
:101CA00041E00E946E3682E59BE06DEA78E00E949A
:101CB0006E430E942C2D0E942E2D2B8B3C8B4D8B26
:101CC0005E8B6F8B788FDE011196FE01739686E036
:101CD00001900D928150E1F7E7E0CE2ED12CCC0E91
:101CE000DD1EC60162EC78E04EEC58E00E94362C16
:101CF000CE0101960E94D22C7B018C01C6010E946C
:101D0000D22CE616F7060807190768F48E01035F60
:101D10001F4FC80162EC78E04EEC58E00E94362C70
:101D2000C8010E94B02D60E273E080E090E00E9464
:101D3000603A8BE890E164EA75E00E94714382E5C5
:101D40009BE060E043E00E946E3682E59BE064EA3F
:101D500075E00E946E4368960FB6F894DEBF0FBE22
:101D6000CDBFCF91DF911F910F91FF90EF90DF904A
:101D7000CF9008950F931F93082F803414F00FE332
:101D800002C087FD00E08BE890E167ED78E00E94FB
:101D90006E43112707FD10958BE890E1B8014AE0EA
:101DA00050E00E944F438EE89DE06BE470E00E949B
:101DB00038148EE89DE0602F0E94BA148EE89DE0F2
:101DC0000E94FD1490E0882309F491E0892F1F916F
:101DD0000F9108958091E40A0E94BA0E882331F48D
:101DE0008BE890E16AEE78E00E94714386E161E061
:101DF0000E947B3B60ED77E080E090E00E94603ADB
:101E000086E160E00E947B3B8DE260E00E947B3BCC
:101E100008950F931F93682F0EE81DE0C8010E94DC
:101E20002E14C8016FE60E94BA14C8010E94FD1466
:101E30001F910F910895DF92EF92FF920F931F93DE
:101E4000382FF62EE42ED22E0EE81DE0C801632FA7
:101E50000E942E14C80160E70E94BA14C8016F2DB9
:101E60000E94BA14C8016E2D0E94BA14C8016D2DCB
:101E70000E94BA14C8010E94FD141F910F91FF9097
:101E8000EF90DF900895DF92EF92FF920F931F93F0
:101E9000382FF62EE42ED22E0EE81DE0C801632F57
:101EA0000E942E14C80163E60E94BA14C8016F2D67
:101EB0000E94BA14C8016E2D0E94BA14C8016D2D7B
:101EC0000E94BA14C8010E94FD141F910F91FF9047
:101ED000EF90DF9008950F931F93CF93DF938BE8DC
:101EE00090E163E179E00E9471430E94CB0682E5B4
:101EF0009BE060E041E00E946E3682E59BE069E392
:101F000079E00E946E4389E361E00E94C83A88E369
:101F100061E00E94C83A89E361E00E947B3B88E36C
:101F200060E00E947B3B64E670E080E090E00E940D
:101F3000603A8EE89DE00E94121505EE1AE0C0E0BE
:101F4000D0E08BE890E16AE479E00E946E4321964C
:101F50008BE890E1BE014AE050E00E944F4382E5E9
:101F60009BE060E042E00E946E3682E59BE06AE41E
:101F700079E00E946E4382E59BE0BE014AE050E0BA
:101F80000E943C43F801808162E140E020E00E9431
:101F90001B0F60ED77E080E090E00E94603AF8016E
:101FA00080810E94090FF80181918F0160E040E07B
:101FB00020E00E94430FC830D10519F668EC70E0AC
:101FC00080E090E00E94603A82E59BE06FE479E077
:101FD0000E946E438BE890E169E579E00E947143CD
:101FE000DF91CF911F910F9108954F925F926F9261
:101FF0007F928F929F92AF92BF92CF92DF92EF9299
:10200000FF920F931F93DF93CF93CDB7DEB7CA54E0
:10201000D0400FB6F894DEBF0FBECDBF8091290D22
:1020200090912A0D8430910509F434C185309105D1
:102030003CF48230910581F0039709F0CDC307C1CC
:102040008630910509F41EC2863091050CF427C133
:10205000079709F0C1C30BC30E942E2DDE01AB5BB5
:10206000BF4F2C93FE01EA5BFF4F3083FE01E95B1B
:10207000FF4F4083FE01E85BFF4F5083FE01E75BAB
:10208000FF4F6083FE01E65BFF4F70839E01275F79
:102090003F4FFD0186E00190D9010D929D018150D5
:1020A000D1F7BE84CD84DC84EB84FA84098582E593
:1020B0009BE060E00E94A5368BE890E161EB79E05F
:1020C0000E946E4310E00053184F8BE890E1B80176
:1020D0004AE050E00E94BC428BE890E16FE20E942F
:1020E000F1418BE890E16F2D4AE050E00E94EA4216
:1020F0008BE890E16FE20E94F1418BE890E16E2D58
:102100004AE050E00E94EA428BE890E160E20E94DF
:10211000F1418BE890E16D2D4AE050E00E94EA42E7
:102120008BE890E16AE30E94F1418BE890E16C2D2D
:102130004AE050E00E94EA428BE890E16AE30E94A4
:10214000F1418BE890E16B2D4AE050E00E94EA42B9
:1021500082E59BE060E041E00E946E3682E59BE014
:10216000B8014AE050E00E94BC4282E59BE06FE289
:102170000E94F14182E59BE06F2D4AE050E00E9411
:10218000EA4282E59BE06FE20E94F14182E59BE03A
:102190006E2D4AE050E00E94EA4282E59BE060E258
:1021A0000E94F14182E59BE06D2D4AE050E00E94E3
:1021B000EA4282E59BE06AE30E94F14182E59BE00E
:1021C0006C2D4AE050E00E94EA4282E59BE06AE31F
:1021D0000E94F14182E59BE06B2D4AE050E00E94B5
:1021E000EA4280E59BE0BE016D5F7F4FAE014F5F2D
:1021F0005F4F0E94B52E882309F18BE890E168ECCF
:1022000079E00E946E436B817C818BE890E14AE02B
:1022100050E00E94CD4240912C0D50912D0D2B810C
:102220003C8109811A8180E59BE060912B0DB5E02E
:10223000EB2EF12CEC0EFD1E0E949F2F8B819C81BA
:102240008C52914008F0C8C286E090E0C1C28BE891
:1022500090E161ED79E00E94714380E59BE00E948E
:10226000042E84E00E94EA370E94CB0682E59BE0C0
:1022700061E00E94A53682E59BE060E040E00E94BC
:102280006E3682E59BE06EE775E00E946E4384E067
:1022900090E09EC20E9491050E944F029DC28BE871
:1022A00090E162E07AE00E9471430E942E2DDE01EF
:1022B000AB5BBF4F2C93FE01EA5BFF4F3083FE0107
:1022C000E95BFF4F4083FE01E85BFF4F5083FE0157
:1022D000E75BFF4F6083FE01E65BFF4F70839E016B
:1022E000275F3F4FFD0186E00190D9010D929D01CE
:1022F0008150D1F788E09EE00E941B1988E09EE0A3
:1023000065E34FEF2FEF0FEF0E94611BCE010F9699
:1023100068E07EE046E557E023E10E943C1A8989A7
:102320009A899093B50B8093B40B8B899C89AD8966
:10233000BE898093B60B9093B70BA093B80BB09364
:10234000B90B8F89988DA98DBA8D8093BA0B909314
:10235000BB0BA093BC0BB093BD0BAEEBBBE0FE017F
:102360007B968DE001900D928150E1F788A599A5AB
:102370009093CC0B8093CB0BCE010F960E94D2177B
:10238000698570E06053784F82EB9BE04AE050E053
:102390000E94BC4282EB9BE06FE20E94F14182EB23
:1023A0009BE06A854AE050E00E94EA4282EB9BE0B3
:1023B0006FE20E94F14182EB9BE06B854AE050E0C6
:1023C0000E94EA4282EB9BE060E20E94F14182EBD4
:1023D0009BE06C854AE050E00E94EA4282EB9BE081
:1023E0006AE30E94F14182EB9BE06D854AE050E098
:1023F0000E94EA4282EB9BE06AE30E94F14182EB99
:102400009BE06E854AE050E00E94EA4282EB9BE04E
:1024100065E27AE00E946E4382EB9BE060E47AE042
:102420000E946E436091250D7091260D82EB9BE01A
:102430004AE050E00E943C4382EB9BE060E47AE09B
:102440000E946E436091270D7091280D82EB9BE0F6
:102450004AE050E00E944F4382EB9BE00E94331819
:1024600082EB9BE00E94211888E09EE00E941B19ED
:1024700084E068EC72E041E050E00E946E3782E058
:1024800090E0A6C18BE890E162E47AE00E9471439B
:102490000E942E2DDE01AB5BBF4F2C93FE01EA5B49
:1024A000FF4F3083FE01E95BFF4F4083FE01E85B95
:1024B000FF4F5083FE01E75BFF4F6083FE01E65B49
:1024C000FF4F70839E01275F3F4FFD0186E0019023
:1024D000D9010D929D018150D1F788E09EE00E94C4
:1024E0001B1988E09EE065E34FEF2FEF0FEF0E948E
:1024F000611BCE018A9668E07EE046E557E023E165
:102500000E943C1A8CA59DA59093B50B8093B40BAB
:102510008EA59FA5A8A9B9A98093B60B9093B70BD8
:10252000A093B80BB093B90B8AA99BA9ACA9BDA97C
:102530008093BA0B9093BB0BA093BC0BB093BD0BD5
:10254000AEEBBBE0FE01F6968DE001900D9281505E
:10255000E1F7FE01ED5BFF4F808191819093CC0B01
:102560008093CB0BCE018A960E94D217698570E0CA
:102570006053784F82EB9BE04AE050E00E94BC42FF
:1025800082EB9BE06FE20E94F14182EB9BE06A8567
:102590004AE050E00E94EA4282EB9BE06FE20E9438
:1025A000F14182EB9BE06B854AE050E00E94EA42F9
:1025B00082EB9BE060E20E94F14182EB9BE06C8544
:1025C0004AE050E00E94EA4282EB9BE06AE30E940C
:1025D000F14182EB9BE06D854AE050E00E94EA42C7
:1025E00082EB9BE06AE30E94F14182EB9BE06E8507
:1025F0004AE050E00E94EA4282EB9BE06AE97AE01E
:102600000E946E4382EB9BE065E27AE00E946E439B
:1026100082EB9BE060E47AE00E946E436091250DBE
:102620007091260D82EB9BE04AE050E00E943C4313
:1026300082EB9BE060E47AE00E946E436091270D9C
:102640007091280D82EB9BE04AE050E00E944F43DE
:1026500082EB9BE00E94331882EB9BE00E942118E2
:1026600088E09EE00E941B1987E090E0B1C084E002
:1026700068EC72E041E050E00E946E378BE890E138
:102680006FEB7AE00E94714360E070E080E090E0E0
:1026900023E130E040E050E00E94AD435B016C017B
:1026A0008091250D9091260D83309105D9F08130D0
:1026B000910531F4ADE0AA2EB12CC12CD12C17C05C
:1026C0008230910579F0049791F460E070E080E049
:1026D00090E023E130E040E050E00E94AD435B0138
:1026E0006C0105C0F5E0AF2EB12CC12CD12C60E0FF
:1026F00070E080E090E02BE030E040E050E00E94AD
:10270000AD432B0164EF71E080E090E020ED37E015
:1027100040E050E00E94AD433B014C018CE00E9440
:10272000AE3B019749F560E070E080E090E022E385
:1027300030E040E050E00E94AD436A307105E4F4BF
:1027400061E070E080E090E02CED35E040E050E0AA
:102750000E94AD437B018C0186E161E00E947B3BDE
:102760000027F7FC0095102FC801B7010E94603ABE
:1027700086E160E00E947B3B82010B51154FF8011E
:1027800080816A2D40E020E00E941B0FC401B3014C
:102790000E94603AD8018C910E94090FF801808153
:1027A00060E040E020E00E94430F80E59BE0BE0136
:1027B0006F5F7F4FAE014D5F5F4F0E94B52E882344
:1027C00059F089819A818D52914030F085E090E0F6
:1027D00090932A0D8093290DC65BDF4F0FB6F894B6
:1027E000DEBF0FBECDBFCF91DF911F910F91FF9044
:1027F000EF90DF90CF90BF90AF909F908F907F90A1
:102800006F905F904F9008958BE890E140E05BE41B
:1028100060E070E00E94523F0E94080D0E94350E59
:102820000E946B0F0E94C20D0E94C90A0E942E0DC9
:102830000E946F0C0E942A0C0E9411080E94EA0E4E
:1028400084E068EC72E041E050E00E946E3782E084
:1028500090E090932A0D8093290D089581E0809354
:102860008D0D60936A0D10928B0D10928C0D089552
:1028700081E080938D0D60936A0D10928B0D109204
:102880008C0D08952091690D30E08091680D281B12
:102890003109C90108954091680D8091690D48176B
:1028A00018F02FEF3FEF0AC0E42FF0E0E85BF24FA3
:1028B0008081282F30E04F5F4093680DC901089553
:1028C000E091680D8091690DE81718F0EFEFFFEFC8
:1028D00006C0F0E0E85BF24F8081E82FF0E0CF0126
:1028E000089508951092910D1092900D88EE93E046
:1028F000A0E0B0E08093920D9093930DA093940D7F
:10290000B093950D8FEF9AE090938F0D80938E0D7D
:102910000895CF92DF92EF92FF920F931F93CF9380
:10292000DF937C016B018A0180918D0D8823A1F0DA
:10293000C0E0D0E00DC0D701ED91FC91D601AC0F05
:10294000BD1F0190F081E02DC7016C911995219672
:10295000C017D10780F304C0CB01642F0E94BB15C0
:10296000C801DF91CF911F910F91FF90EF90DF9001
:10297000CF900895DF93CF930F92CDB7DEB7FC01D0
:10298000698380918D0D8823C9F080918C0D8032F0
:1029900038F081E090E09383828320E030E015C03E
:1029A00080918B0DE82FF0E0E559F24F99819083EB
:1029B0008F5F80938B0D80938C0D05C0CE010196A7
:1029C00061E00E94BB1521E030E0C9010F90CF917A
:1029D000DF9108950F93062F80916A0D6BE67DE0DD
:1029E00040918C0D21E00E94661510928B0D109283
:1029F0008C0D10928D0D0F91089561E00E94EA14E4
:102A00000895413208F040E2862F68E47DE00E949C
:102A10001D151092680D8093690D089521E00E94A4
:102A2000011508951092680D1092690D10928B0D8A
:102A300010928C0D0E946B170895382F413210F0C0
:102A400040E042C080919A0D8823E1F791E0909395
:102A50009A0D20939C0D8FEF8093070E1092C20D5C
:102A600041504093C30D4F5F90939B0D80919B0D00
:102A7000330F832B80939B0D80919D0D813041F40A
:102A800010929D0D80919B0D8093BB0085EC01C041
:102A900085EE8093BC0080919A0D8130E1F38091A6
:102AA000C20D841710F44091C20D20E030E00AC03E
:102AB000FB01E20FF31FD901AE55B24F8C91808319
:102AC0002F5F3F4F2417A0F3842F08950F931F9378
:102AD000582F122F413210F081E04AC080919A0D98
:102AE0008823E1F782E080939A0D00939C0D8FEF8D
:102AF0008093070E1092C20D4093C30DA2EABDE071
:102B0000FB0102C081918D938E2F861B8417D0F319
:102B100010929B0D80919B0D550F852B80939B0DE3
:102B200080919D0D813041F410929D0D80919B0DFF
:102B30008093BB0085EC01C085EE8093BC0011231F
:102B400021F080919A0D8230E1F38091070E8F3F42
:102B500011F480E00DC08091070E803211F482E004
:102B600007C08091070E803311F084E001C083E03C
:102B70001F910F910895482F613210F081E0089560
:102B800080919A0D843011F082E008956093E50DF4
:102B9000A4ECBDE0842F9C01F90102C081918D93CA
:102BA0008E2F841B8617D0F380E008951F920F921A
:102BB0000FB60F920BB60F9211242F933F934F93A2
:102BC0005F936F937F938F939F93AF93BF93EF9395
:102BD000FF938091B90090E0887F907080369105D6
:102BE00009F4F2C081369105CCF58832910509F4DB
:102BF0007BC089329105B4F48031910509F46FC02E
:102C0000813191053CF4009709F447C1089709F018
:102C10004FC165C08831910509F466C0809709F0FD
:102C200047C182C08034910509F4A4C08134910564
:102C300044F48033910509F482C0C89709F038C183
:102C400089C08035910509F489C08835910509F45A
:102C500096C08834910509F02BC1AEC08839910522
:102C600009F413C189399105ECF48837910509F409
:102C7000ABC0893791054CF48836910509F4A4C09E
:102C80008037910509F014C19FC08838910509F477
:102C9000FCC08039910509F49DC08038910509F088
:102CA00007C198C0803B910509F4C6C0813B9105DE
:102CB0004CF4803A910509F49FC0883A910509F0D7
:102CC000F7C0BAC0803C910509F4E3C0883C910587
:102CD00009F4DFC0883B910509F0EAC0C2C08091C9
:102CE0009B0D8093BB00CFC09091C20D8091C30D0E
:102CF000981768F49091C20DE92FF0E0EE55F24F6D
:102D000080818093BB009F5F9093C20DBCC0809177
:102D10009C0D882309F44BC085ED8093BC00809105
:102D2000BC0084FDFCCFC2C080E28093070E85ED1D
:102D30008093BC008091BC0084FDFCCFB7C080E3D1
:102D40008093070E85ED8093BC008091BC0084FDCC
:102D5000FCCFACC088E38093070E9BC08091C20D6E
:102D60009091BB00E82FF0E0EE55F24F90838F5F1B
:102D70008093C20D9091C20D8091C30D82C080914D
:102D8000C20D9091BB00E82FF0E0EE55F24F90831A
:102D90008F5F8093C20D80919C0D882341F085ED5B
:102DA0008093BC008091BC0084FDFCCF7FC081E09B
:102DB00080939D0D84EA6EC085ED8093BC00809168
:102DC000BC0084FDFCCF72C083E080939A0D10920A
:102DD000060E59C08091060E803208F056C08091D0
:102DE000060E9091BB00E82FF0E0EA51F24F90837D
:102DF0008F5F8093060E47C08091060E803230F4BC
:102E0000E091060EF0E0EA51F24F108285ED8093DA
:102E1000BC008091BC0084FDFCCF10929A0D6091A3
:102E2000060EE091A00DF091A10D86EE9DE070E000
:102E300019951092060E2DC084E080939A0D109281
:102E4000E40D1092E50DE0919E0DF0919F0D199506
:102E50008091E50D882329F481E08093E50D10929F
:102E6000C40D9091E40DE92FF0E0EC53F24F808116
:102E70008093BB009F5F9093E40D9091E40D80914F
:102E8000E50D981710F485EC01C085E88093BC002F
:102E90000FC085EC8093BC0009C01092070E85ED31
:102EA0008093BC008091BC0084FDFCCF10929A0DF1
:102EB000FF91EF91BF91AF919F918F917F916F9112
:102EC0005F914F913F912F910F900BBE0F900FBECE
:102ED0000F901F90189510929A0D81E080939C0D91
:102EE00010929D0D84E161E00E947B3B85E161E0F1
:102EF0000E947B3BE9EBF0E080818E7F80838081C4
:102F00008D7F808388E48093B80085E48093BC0043
:102F10000895882319F48CB5806202C08CB58F7D2A
:102F20008CBD08959CB5937F982B9CBD08952CB5BE
:102F3000382F33702C7F322B3CBD2DB590E095950A
:102F400087959595879581702E7F822B8DBD0895ED
:102F500085E361E00E947B3B85E361E00E94C83A23
:102F60008CB580618CBD8CB580648CBD84E361E0E0
:102F70000E94C83A83E361E00E94C83A0895FC01C8
:102F80001382128288EE93E0A0E0B0E08483958300
:102F9000A683B7838FE09BE091838083128E118E8E
:102FA00014860895FC018FE09BE09183808308954F
:102FB000DF93CF930F92CDB7DEB7FC016983A08179
:102FC000B18112962D913C911397BE016F5F7F4F97
:102FD00041E050E0F90119950F90CF91DF910895EC
:102FE000DC015996ED91FC915A97309719F420E045
:102FF00030E018C0238934894589568982859385B4
:10300000A485B585281B390B4A0B5B0B2030B0E833
:103010003B07B0E04B07B0E05B0720F02FEF3FE746
:1030200040E050E0C9010895DC015996ED91FC9112
:103030005A97309711F480E008958581811181E0DD
:103040000895CF93DF93EC01898D9A8D009741F01D
:103050000E94C920898D9A8D0E94BD3C1A8E198EBE
:10306000DF91CF910895FC01818D928D009711F031
:103070000E947F200895FC01818D928D009719F4A4
:1030800020E030E003C00E94A0219C01C901089506
:10309000DF93CF930F92CDB7DEB7FC01818D928D78
:1030A000009749F0BE016F5F7F4F41E050E00E9402
:1030B000A021019719F02FEF3FEF03C08981282F3E
:1030C00030E0C9010F90CF91DF910895EF92FF9208
:1030D0000F931F93DF93CF930F92CDB7DEB77C0191
:1030E000DC0159968D919C915A97009719F400E054
:1030F00010E01FC0BE016F5F7F4F41E050E00E94B3
:10310000A021019719F00FEF1FEF13C08981082F3D
:1031100010E0D7015996ED91FC915A97428553855D
:10312000648575854150504060407040CF010E94D9
:10313000B91FC8010F90CF91DF911F910F91FF90A0
:10314000EF900895CF93DF93EC01E98DFA8D3097DE
:1031500061F013821282CF010E94E5239C01E98D68
:10316000FA8D82819381892B31F081E090E09B83FD
:103170008A8320E030E0C901DF91CF910895EF927A
:10318000FF920F931F93CF93DF93EC01F62EE72E60
:103190008A011B821A8288EE93E0A0E0B0E08C8363
:1031A0009D83AE83BF838FE09BE0998388838DE10D
:1031B00090E00E94203C9A8F898F009791F0DC016B
:1031C0008F2D9E2D9C01F9018DE101900D92815072
:1031D000E1F7CE010C96B8014CE050E00E942202CB
:1031E000188EDF91CF911F910F91FF90EF9008956E
:1031F00010920D0E10920E0E1092110E1092130ED0
:1032000082E090E0A0E0B0E08093150E9093160E5F
:10321000A093170EB093180E10922C0E1092360E2B
:103220001092350E8FE19BE09093340E8093330E15
:103230001092380E08958B960E94C92008952F92FF
:103240003F924F925F926F927F928F929F92AF9236
:10325000BF92CF92DF92EF92FF920F931F93DF9373
:10326000CF93CDB7DEB7C754D0400FB6F894DEBFCA
:103270000FBECDBF582E492EFB013A01190185A57D
:1032800096A5998B888B2FE13BE03F872E8787A5FA
:103290008A8B80A98B8B81A992A9A3A9B4A98C8BB5
:1032A0009D8BAE8BBF8B85A996A9A7A9B0AD888F42
:1032B000998FAA8FBB8F81AD92ADA3ADB4AD8C8F2A
:1032C0009D8FAE8FBF8F85AD88A3FE968191919122
:1032D000A191B19189A39AA3ABA3BCA38191919130
:1032E000A191B1918DA39EA3AFA3B8A78081918135
:1032F0009AA789A71EA61DA63CA72BA718AA7A01E4
:103300008E01025F1F4F3BE2A32EB12CAC0EBD1EFF
:103310004E010894811C911C35C0D7018C918F32CD
:1033200021F40894E11CF11C2DC0422F4E194D30A0
:1033300008F04CE0C42EDD24C401B701A6010E94B0
:103340002202F401EC0DFD1D1082C5010E94C9206E
:10335000C501B801A40121E00E941126882351F47F
:10336000E52DF42D138212828FE19BE091838083FF
:10337000158266C0EC0CFD1CC8010E94C920C50165
:1033800058018C01C7016FE270E00E9417029C0196
:10339000009719F6E618F708F101F182E082E52DB1
:1033A000F42DD80112968D919C911397938382836B
:1033B0008FE19BE09183808314968C911497848392
:1033C00015968C911597858316962D913D914D916B
:1033D0005C91199726833783408751871A962D91E0
:1033E0003D914D915C911D97228733874487558786
:1033F0001E962D913D914D915C915197268737876F
:10340000408B518B52968C915297828B53962D9173
:103410003D914D915C915697238B348B458B568B08
:1034200057962D913D914D915C915A97278B308FF6
:10343000418F528F5B968D919C915C97948F838F77
:10344000852D942DC95BDF4F0FB6F894DEBF0FBEFC
:10345000CDBFCF91DF911F910F91FF90EF90DF9043
:10346000CF90BF90AF909F908F907F906F905F9024
:103470004F903F902F9008959F92AF92BF92CF921E
:10348000DF92EF92FF920F931F93DF93CF93CDB70D
:10349000DEB7C657D0400FB6F894DEBF0FBECDBF23
:1034A000C82E992E8A01D22E43E0A42EB12CAC0E48
:1034B000BD1EC501A8019E012F5F3F4F0E941F192D
:1034C000E980FA80E00EF11EF70180814FE15BE0B8
:1034D0002885882309F03FC08D819E819BA38AA304
:1034E00059A348A38F818CA32DA389859A85AB8589
:1034F000BC858EA39FA3A8A7B9A78D859E85AF8500
:10350000B8898AA79BA7ACA7BDA789899A89AB89E7
:10351000BC898EA79FA7A8ABB9AB8D898AAB8E89D2
:103520009F89A88DB98D8BAB9CABADABBEAB8A8DA3
:103530009B8DAC8DBD8D8FAB98AFA9AFBAAF8E8D83
:103540009F8D9CAF8BAF8C2D992DBE01605E7F4F00
:103550004EED5AE09FC0FE01FF96118210825EAFD1
:103560004DAFFE01EE5BFF4F10822223A9F02250E7
:10357000CE01CD96223048F463E37EE0A7012D2DE5
:103580000E941126882381F407C0B501A7012D2DC3
:103590000E941126882329F48C2D992D0E94BF1793
:1035A0007BC0C5010E94C920F6E0DF2259F0FE0170
:1035B000E05BFF4F4081518162817381CE01CD96E6
:1035C0000E94B91F9E01265A3F4FFE01FF9680813F
:1035D0009181F901938382838FE19BE091838083C2
:1035E000FE01EF5BFF4F8081F9018483FE01EE5BFA
:1035F000FF4F8081F9018583FE01ED5BFF4F8081E4
:103600009181A281B381F90186839783A087B187D5
:10361000FE01E95BFF4F80819181A281B381F901B5
:1036200082879387A487B587FE01E55BFF4F808182
:103630009181A281B381F90186879787A08BB18B95
:10364000FE01E15BFF4F8081F901828BFE01E05BAF
:10365000FF4F80819181A281B381F901838B948B8B
:10366000A58BB68BFE01EC5AFF4F80819181A28120
:10367000B381F901878B908FA18FB28FFE01E85A39
:10368000FF4F80819181F901948F838F8C2D992D2B
:10369000B901A7010E94BF188C2D992DCA58DF4F80
:1036A0000FB6F894DEBF0FBECDBFCF91DF911F9153
:1036B0000F91FF90EF90DF90CF90BF90AF909F90D1
:1036C0000895EF920F931F93CF93DF93EC01362F62
:1036D000542F722FE02E61E0432F252F072F0E94D9
:1036E000541E8823D1F08E01035F1F4FC801BE0115
:1036F00041E00E94B227882339F4C801BE0140E0AE
:103700000E94B227882349F0CE018B96B8010E940F
:10371000FF22882319F081E001C080E0DF91CF9182
:103720001F910F91EF900895382F8091520E8F3F87
:1037300031F43EBD0DB407FEFDCF8EB50895F8946B
:10374000A091530EB091540E5091550E252F2095F7
:10375000E091560EF091570E4091580E642F6095EF
:1037600090E08C9182238C9337FF03C08081842B5F
:1037700002C08081862380838C91852B8C939F5FF0
:10378000983011F0330FEDCF000000000000000072
:103790008C9128232C93789408958091520E8F3F1A
:1037A00031F48EBD0DB407FEFDCF2EB530C0F894B8
:1037B000E091560EF091570E80819091580E892B12
:1037C0008083E091530EF091540E6091550EA091BC
:1037D000590EB0915A0E80915B0E482F50E0762F13
:1037E000709530E020E08081862B8083220F8C91C1
:1037F00090E084239523892B09F021608081872321
:103800008083000000003F5F383069F77894822F92
:1038100008950F931F93CF93DF938B010E94E63996
:10382000EB010E94CD1B8F3F11F481E008C00E9484
:10383000E6396C1B7D0B6017710798F380E0DF9110
:10384000CF911F910F910895FC01673020F086E120
:10385000858380E008956330B9F0643028F46130E6
:1038600069F0623070F407C06530A1F0653078F01F
:103870006630A9F412C084E090E011C080E090E0CE
:103880000EC085E090E00BC081E090E008C086E0CB
:1038900090E005C082E090E002C083E090E00E94EA
:1038A000971781E00895FC01848160E00E947B3BD2
:1038B0000895FC01848161E00E947B3B0895CF92D2
:1038C000DF92EF92FF920F931F93CF93DF937C01D0
:1038D0006A01FC018485882319F40FEF1FEF30C0C3
:1038E00000E010E040E050E0212F332727FD3A951B
:1038F000F601E40FF51F808190E02827392730700A
:10390000C901F4E095958795FA95E1F78227932709
:10391000102F0027082719279C01322F22273295C4
:10392000307F0227132725E0880F991F2A95E1F79A
:10393000082719274F5F5F4FF2E040305F07A1F67D
:10394000862F0E94941BC0E0D0E0F601EC0FFD1F13
:1039500080810E94941B219682E0C030D807A9F78D
:10396000812F992787FD9A950E94941B802F0E9492
:10397000941B0E94CD1BF70182878F71853011F453
:1039800081E007C081E1F7018583C7010E94591CCE
:1039900080E0DF91CF911F910F91FF90EF90DF902A
:1039A000CF9008950F931F93CF93DF93EC010E9464
:1039B000E6398B0109C00E94E639601B710B6D521C
:1039C000714010F08FE00AC00E94CD1B8A878F3FA4
:1039D00091F38E3F11F481E006C08DE08D83CE011E
:1039E0000E94591C80E0DF91CF911F910F910895A3
:1039F000CF93DF93EC018E81882319F40FC00E94CE
:103A0000CD1B8F819885019698878F83019782506F
:103A10009240A8F3CE010E94591C1E82DF91CF91E3
:103A20000895DF92EF92FF920F931F93CF93DF934E
:103A3000EC01D62E79018A010E94F81CCE010E9469
:103A4000531CCE016CE271E00E94091C8D2D806434
:103A50000E94941B812F9927AA27BB270E94941BA1
:103A6000C801AA27BB270E94941BBB27A12F902F18
:103A70008F2D0E94941B8E2D0E94941BDD2011F42B
:103A800085E906C088E0D81611F487E801C08FEFF9
:103A90000E94941B10E00E94CD1B8A8787FF02C002
:103AA0001150C9F7DF91CF911F910F91FF90EF90C7
:103AB000DF900895CF92DF92EF92FF920F931F93C2
:103AC000CF93DF93EC017A018B0169014115510518
:103AD0006105710511F482E133C08B85833039F0C3
:103AE00039E0EE0CFF1C001F111F3A95D1F7CE01F3
:103AF00068E1A80197010E94111D882311F084E05C
:103B00001FC0CE016EEFA6010E945F1C8823C9F082
:103B1000CE0168E572E00E94091C882311F485E15A
:103B20000FC0CE016DE020E030E040E050E00E94A8
:103B3000111D882321F40E94CD1B882379F084E194
:103B40008D83CE010E94591C80E0DF91CF911F919F
:103B50000F91FF90EF90DF90CF900895CE010E94DB
:103B6000591C81E0F2CF6F927F928F929F92AF9219
:103B7000BF92CF92DF92EF92FF920F931F93CF935A
:103B8000DF93EC015A016B01390148010115110560
:103B900009F46AC0C801820F931F8150924008F057
:103BA0005EC08E81882371F088819981AA81BB8152
:103BB000481759076A077B0729F48F81988568168B
:103BC000790650F5A882B982CA82DB828B85833060
:103BD00039F0E9E0AA0CBB1CCC1CDD1CEA95D1F73E
:103BE000CE0161E1A60195010E94111D882319F003
:103BF00083E08D8334C0CE010E94D21C882379F1EA
:103C000018861F8281E08E8307C00E94CD1B8F81A2
:103C10009885019698878F838F819885861597055B
:103C2000A0F300E010E008C00E94CD1BF701E00FF8
:103C3000F11F80830F5F1F4F08151905A8F32F810F
:103C40003885280D391D38872F838985882319F0F9
:103C50002050324048F0CE010E94F81C05C0CE0131
:103C60000E94591C80E001C081E0DF91CF911F913B
:103C70000F91FF90EF90DF90CF90BF90AF909F900B
:103C80008F907F906F900895EF92FF920F931F9304
:103C9000790120E030E000E012E00E94B31D1F91A6
:103CA0000F91FF90EF900895BF92CF92DF92EF9225
:103CB000FF920F931F93CF93DF93EC01B62E1E2D2F
:103CC0001B8619861E821D821C864C8320935C0EE7
:103CD00000935D0EE092520E0E94E6396B018C81DA
:103CE00061E00E94C83ACE010E94591C1F3F09F4AE
:103CF00062C080915D0E60E00E94C83A80915C0EC7
:103D000061E00E94C83A8091520E61E00E94C83A78
:103D1000E091520E2E2F332727FD3095F901E95EF1
:103D2000FD4FE491F0E0EE0FFF1FED51FE4F859146
:103D300094919093540E8093530E235A3D4FF90162
:103D400084918093550EE0915C0E2E2F332727FD32
:103D50003095F901E95EFD4FE491F0E0EE0FFF1FB1
:103D6000ED51FE4F859194919093570E8093560E8E
:103D7000235A3D4FF90184918093580EE0915D0ED6
:103D80002E2F332727FD3095F901E95EFD4FE49191
:103D9000F0E0EE0FFF1FE350FE4F8591949190935A
:103DA0005A0E8093590E235A3D4FF9018491809306
:103DB0005B0E10E006C00E94A81783E00E949717D0
:103DC000F8CF8FEF0E94941B1F5F1A30D1F7CE01FE
:103DD0000E94531C09C00E94E6396C197D09615D7F
:103DE000774010F081E05AC0CE0160E020E030E082
:103DF00040E050E00E94111D182F8A87813059F74A
:103E0000CE0168E02AEA31E040E050E00E94111D56
:103E100082FF02C01B870DC010E00E94CD1B8A8765
:103E20001F5F1430D1F78A3A11F082E037C082E088
:103E30008B878B85823021F0EE24FF2487010FC011
:103E4000E12CF12C012DF0E41F2F09C00E94E6396E
:103E50006C197D09615D774010F088E01FC0CE01CC
:103E600067E320E030E040E050E00E94111DCE0109
:103E700069E2A80197010E94111D8A87882331F702
:103E80008B858230F1F4CE016AE320E030E040E03F
:103E900050E00E94111D882339F086E08D83CE0109
:103EA0000E94591C80E01AC00E94CD1B807C803C7F
:103EB00011F483E08B870E94CD1B0E94CD1B0E94D2
:103EC000CD1BCE010E94591C8091520E8F3F11F0E4
:103ED00081E004C0CE016B2D0E94241CDF91CF91A4
:103EE0001F910F91FF90EF90DF90CF90BF900895BA
:103EF000CF93DF93EC01DB0180E090E020E2FD0155
:103F0000E80FF91F208301968B309105C1F757E028
:103F100040E021C02E3219F08DEA91E007C05A30FE
:103F200019F15AE048E017C03217F1F0FC01019690
:103F300034913323C9F75417B8F02132A8F02F3742
:103F400098F4822F81568A3108F42052FD01E40F43
:103F5000F11D20834F5F29912223E1F690E08C919F
:103F6000803219F091E001C090E0892FDF91CF916C
:103F700008956F927F928F929F92AF92BF92CF924D
:103F8000DF92EF92FF920F931F93CF93DF93EC0199
:103F90007A018B012D81222309F480C08B899C89B1
:103FA000AD89BE8984179507A607B70708F476C0C0
:103FB00085C0E114F1040105110549F41E821F8238
:103FC000188619861A861B861C861D8665C02A855A
:103FD0003B854C855D85EB8DFC8D858590E0099654
:103FE000215030404040504039014A01082E04C061
:103FF00096948794779467940A94D2F72F5F3F4FF3
:104000004F4F5F4F0894E108F1080109110957016A
:10401000680104C0D694C794B794A7948A95D2F740
:104020000894E11CF11C011D111DA614B704C8045D
:10403000D90428F0211531054105510549F48F892E
:10404000988DA98DBA8D8E839F83A887B98716C056
:10405000A618B708C808D90811C04E815F816885C5
:1040600079858B8D9C8D94010E9493290894A108D9
:10407000B108C108D108882331F410C086E0882E29
:10408000912C8C0E9D1EA114B104C104D10429F7FA
:10409000EA86FB860C871D8781E001C080E0DF9106
:1040A000CF911F910F91FF90EF90DF90CF90BF9035
:1040B000AF909F908F907F906F900895223009F07D
:1040C00078CFE6CFCF93DF93EC01462F6E857F85C7
:1040D000888999890E947727882319F420E030E0A5
:1040E0000AC08A89282F30E095E0220F331F9A9565
:1040F000E1F7205A314FC901DF91CF9108950F9315
:104100001F93CF93DF938C01FC0185818823D9F124
:10411000848187FF35C0C80161E00E946220EC0104
:10412000009789F1F8018581823040F48389948970
:10413000A589B6898C8F9D8FAE8FBF8FF801878937
:10414000908D9B8F8A8F8789908DA18DB28DCD01A7
:10415000AA27BB279D8B8C8BE0915E0EF0915F0EA2
:10416000309751F0BE016A5E7F4FCE014896199597
:10417000888D998D9B8B8A8BF80184818F778483BE
:104180000E94182701C080E0DF91CF911F910F910D
:104190000895CF93DF93EC010E947F20882311F0D4
:1041A0001D8281E0DF91CF9108956F927F928F926F
:1041B0009F92AF92BF92CF92DF92EF92FF920F93B6
:1041C0001F93DF93CF9300D00F92CDB7DEB77C0162
:1041D0005A016B01DC0115968C911597813009F01D
:1041E0008FC014968C9181FF8BC09EC00097A10553
:1041F000B10511F481E085C0F70162847384848481
:104200009584C701B601A5010E94B91F882309F44E
:1042100077C0D7015B968D919C915C97A114B104F6
:10422000C104D10489F457964D915D916D917C91B3
:104230005A970E94062A882309F462C0F701178A58
:10424000108E118E128E3DC0D70116964D915D9144
:104250006D917C9119979E012F5F3F4F0E9493298A
:10426000882309F44DC0D7015B96ED91FC915C97D2
:1042700049815A816B817C818789803129F088EF5F
:104280009FEFAFEFBFE004C088EF9FEFA0E0B0E08A
:10429000481759076A077B07A0F4CF010E94062A36
:1042A000882371F1F7014681578160857185838D7F
:1042B000948D0FEF1FEF2FEF3FE00E94F728882328
:1042C000F9F0D7015396AD92BD92CD92DC925697FC
:1042D00014968C911497806814968C93C7010E9451
:1042E0007F20882369F0B601A5016A147B048C0441
:1042F0009D0410F4B401A301C7010E94B91F01C0BD
:1043000080E00F900F900F900F90CF91DF911F9151
:104310000F91FF90EF90DF90CF90BF90AF909F9064
:104320008F907F906F900895F70183899489A58974
:10433000B68984179507A607B70708F057CFE0CFCF
:104340002F923F924F925F926F927F928F929F92A5
:10435000AF92BF92CF92DF92EF92FF920F931F9393
:10436000CF93DF93EC012A018D81882309F4C6C025
:104370008C8180FFC3C0D8C025014E185F084B0157
:1043800076E0272E312C2C0E3D1E3201B1C02A853D
:104390003B854C855D856FEFA62E61E0B62EA2228F
:1043A000B3228D8179018A0199E016950795F794DA
:1043B000E7949A95D1F7EB8DFC8D823049F4428DCC
:1043C000538D648D758D4E0D5F1D601F711F3FC035
:1043D000D480DA94DE20A114B104D9F4DD20C9F42C
:1043E000211531054105510549F48F89988DA98D15
:1043F000BA8D8E839F83A887B9870BC04E815F815A
:1044000068857985CF0191010E949329882309F459
:1044100075C0EB8DFC8D4E815F816885798542503A
:10442000504060407040058404C0440F551F661F13
:10443000771F0A94D2F786859785A089B189480F9E
:10444000591F6A1F7B1F4D0D511D611D711D80E09D
:1044500092E08A199B0963018615970508F46C019F
:104460008C8186FD06C080E0C81682E0D80609F07F
:1044700073C08091F10A9091F20AA091F30AB09171
:10448000F40A481759076A077B0709F465C0809149
:104490006010909161109501860174010E94B31D16
:1044A000882361F18C0C9D1C12C09501205A314F5C
:1044B000A9014C0D5D1DD401F90102C081918D93BC
:1044C000E417F507D9F7E21BF30B8E0E9F1E96013A
:1044D00040E050E08A859B85AC85BD85820F931FA7
:1044E000A41FB51F8A879B87AC87BD876C187D0882
:1044F0006114710409F04BCFA20102C04FEF5FEFCE
:10450000CA01DF91CF911F910F91FF90EF90DF9043
:10451000CF90BF90AF909F908F907F906F905F9063
:104520004F903F902F900895AB88BC88CD88DE884F
:10453000EA84FB840C851D859A0140E050E0D60199
:10454000C5018E199F09A00BB10B82179307A40711
:10455000B50708F411CF13CFCB01BA0140E00E9498
:104560007727882309F0A1CFC9CFCF92DF92EF92AE
:10457000FF920F931F93DF93CF930F92CDB7DEB7C8
:104580006C01FC018581823070F0E284F384048543
:104590001585C601BE016F5F7F4F41E050E00E946C
:1045A000A021019769F020E030E0C9010F90CF9180
:1045B000DF911F910F91FF90EF90DF90CF900895C2
:1045C000F60182859385A485B5854F96A11DB11D01
:1045D00082879387A487B587F5E016950795F794AA
:1045E000E794FA95D1F78E2D8F70282F30E0E5E013
:1045F000220F331FEA95E1F7205A314FD6CF0F93A0
:104600001F93CF93DF93EC018B018D81882309F0F9
:1046100041C0FB0187898031B1F482E08D831F8A1C
:10462000188E198E1A8E808D918DA0E0B0E045E035
:10463000880F991FAA1FBB1F4A95D1F78B8B9C8BA4
:10464000AD8BBE8B15C0803229F583E08D83FB01D5
:10465000428D538D648D758D4F8B588F698F7A8FF6
:104660009E012D5E3F4FC8010E945F2A882391F072
:104670001C8F0B8F81E08C831E821F821886198607
:104680001A861B861C861D861E861F86188A198A16
:104690001A8A01C080E0DF91CF911F910F91089598
:1046A0001F93CF93DF93EC01142FE62FF0E075E01A
:1046B000EE0FFF1F7A95E1F7E05AF14F8385817184
:1046C00021F0842F827409F054C06A8B8091F10A22
:1046D0009091F20AA091F30AB091F40A8E879F8715
:1046E000A88BB98B84899589A0E0B0E0BC015527DF
:1046F0004427828D938DA0E0B0E0482B592B6A2B84
:104700007B2B4F8B588F698F7A8F838590E08871D0
:104710009070009751F4848D958DA68DB78D8B8BFD
:104720009C8BAD8BBE8B81E00CC0409711F59E0138
:104730002D5E3F4F8B8D9C8D0E945F2A8823C9F090
:1047400084E08D83812F8F708C831E821F82188658
:1047500019861A861B861C861D8616FD02C081E0FE
:1047600009C0CE0140E050E060E070E00E94D5203A
:1047700001C080E0DF91CF911F910895CF93DF9327
:10478000EC019C012A5F3F4F8B8D9C8D41E050E0F6
:1047900060E070E00E94CE2A8823A1F08F89988D76
:1047A000A98DBA8D0097A105B10559F48E819F811D
:1047B000A885B9858F8B988FA98FBA8F8C818068D7
:1047C0008C8381E0DF91CF9108952F923F924F9299
:1047D0005F927F928F929F92AF92BF92CF92DF9221
:1047E000EF92FF920F931F93DF93CF9300D000D0EF
:1047F000CDB7DEB76C01162F072F5E834D83DC012A
:1048000015968C911597813009F070C114968C9192
:1048100081FF6CC18EC1F60143895489658976890F
:1048200082859385A485B58584179507A607B70764
:1048300031F0C6010E94B91F882309F457C1812FA6
:10484000902F9C0129012D803E8017C1D6015B96D7
:10485000ED91FC915C97DA01C90119E0B695A79535
:10486000979587951A95D1F774807A9478227FEF7F
:10487000872E71E0972E82229322772009F04EC076
:104880008114910409F04AC0D60116964D915D91AC
:104890006D917C911997411551056105710581F460
:1048A00057968D919D910D90BC91A02D0097A105DB
:1048B000B10549F1F60186839783A087B1872EC0A1
:1048C000CF019E012F5F3F4F0E949329882309F457
:1048D00014C129813A814B815C81D6015B96ED91AF
:1048E000FC915C978789803129F088EF9FEFAFEFCB
:1048F000BFE004C088EF9FEFA0E0B0E028173907C1
:104900004A075B0730F0C6010E94BE23882331F4BA
:10491000EDC0F601268337834087518780E092E01F
:104920008819990951018215930508F45C01D60193
:104930005B96ED91FC915C971696ED90FD900D9134
:104940001C9119978EEF9FEFAFEFBFEFE80EF91EA6
:104950000A1F1B1F058404C0EE0CFF1C001F111F43
:104960000A94D2F786859785A089B189E80EF91E49
:104970000A1F1B1FE70CF11C011D111D90E0A91659
:1049800092E0B90651F58091F10A9091F20AA09156
:10499000F30AB091F40A8E159F05A007B10761F4E0
:1049A0008FEF9FEFAFEFBFEF8093F10A9093F20A82
:1049B000A093F30AB093F40A809160109091611073
:1049C000B801A70192010E945A1D882309F48EC0E4
:1049D000A0E0B2E04A0E5B1E3EC08114910409F5CE
:1049E000F601228533854485558583899489A58977
:1049F000B689281739074A075B0798F00E941827DD
:104A0000882309F473C0E092F10AF092F20A00934D
:104A1000F30A1093F40A809162108160809362100F
:104A200008C0C801B70141E00E947727882309F434
:104A30005DC09401205A314FA9014A0D5B1DD2017E
:104A4000F90102C08D918193E417F507D9F7E21BB4
:104A5000F30B4E0E5F1E2A183B08950140E050E014
:104A6000F60182859385A485B585820F931FA41FC7
:104A7000B51F82879387A487B587D6011A962D9193
:104A80003D914D915C911D972114310409F0DECECA
:104A900053968D919D910D90BC91A02D82179307F7
:104AA000A407B50748F4F601238B348B458B568B4E
:104AB00084818068848311C080915E0E90915F0E26
:104AC000892B59F08D819E81892B39F0D60114965E
:104AD0008C911497806814968C93F601848183FFDF
:104AE0000EC0C6010E947F20882349F481E090E037
:104AF000D60113969C938E9312971E821D828D81F0
:104B00009E8126960FB6F894DEBF0FBECDBFCF9123
:104B1000DF911F910F91FF90EF90DF90CF90BF90AA
:104B2000AF909F908F907F905F904F903F902F908D
:104B3000089582FD70CE83CEDF93CF930F92CDB7D1
:104B4000DEB76983BE016F5F7F4F41E050E00E9496
:104B5000E5230F90CF91DF910895DF92EF92FF92BE
:104B60000F931F93CF93DF93EC010E94BE23882302
:104B700009F44EC0EB8DFC8DEE80FF800885198511
:104B80008EEF9FEFAFEFBFEFE80EF91E0A1F1B1F5E
:104B9000058404C0EE0CFF1C001F111F0A94D2F7FD
:104BA00086859785A089B189E80EF91E0A1F1B1F0B
:104BB000D4800894E108F108010911090BC0C8016B
:104BC000B7016D0D711D811D911D0E945327882312
:104BD000F9F0DA94DD2099F7EB8DFC8D20E032E0DE
:104BE00040E050E0058404C0220F331F441F551FCE
:104BF0000A94D2F78B899C89AD89BE89820F931F55
:104C0000A41FB51F8B8B9C8BAD8BBE8B81E001C02D
:104C100080E0DF91CF911F910F91FF90EF90DF9097
:104C200008956F927F928F929F92AF92BF92CF9290
:104C3000DF92EF92FF920F931F93DF93CF93CDB745
:104C4000DEB72B970FB6F894DEBF0FBECDBF5C0169
:104C50006B01822EDC0115968C91882309F0D2C05D
:104C6000CA018E010F5F1F4FB8010E94781F882371
:104C700009F4C8C0F601838D948DD5015C969C9390
:104C80008E935B971682178210861186D6011A962C
:104C90001D921D921D921C921D979924380141C0AE
:104CA000C6010E94B522FC01009709F4ABC085E063
:104CB00016950795F794E7948A95D1F71E2D1F70E6
:104CC0008081882311F0853ED1F4992091F4D5019B
:104CD00052961C9352972091F10A3091F20A40911A
:104CE000F30A5091F40A1E962D933D934D935C93D5
:104CF00051978081882399F49924939421C0C3010A
:104D0000BF014BE050E00E940A02009751F4882D49
:104D10008073803309F476C0C501612F6FC0992478
:104D20009394F601E284F38404851585838994893C
:104D3000A589B689E816F9060A071B0708F4B0CF5B
:104D4000882D8271823109F05DC0992041F0C50142
:104D500061E00E9462208C01009789F453C0D60163
:104D600015968C91823009F44DC0C6010E94AD2584
:104D7000882309F447C0F501128A00E61EE080E2AC
:104D8000D8011D928A95E9F7D801FE0131968BE092
:104D900001900D928150E1F7E0915E0EF0915F0E6F
:104DA000309739F0B801625F7F4FC801409619957E
:104DB00009C081E298E2F801918B808B80E098E055
:104DC00097878687D80150968D919C9151975396DD
:104DD0009C938E93529759969C938E9358971E96B8
:104DE0008D919C911F9757969C938E9356970E94F6
:104DF0001827882339F0C501F5016289482D0E94E2
:104E0000502301C080E02B960FB6F894DEBF0FBE92
:104E1000CDBFCF91DF911F910F91FF90EF90DF9069
:104E2000CF90BF90AF909F908F907F906F9008959C
:104E300080916210882399F14091F10A5091F20A11
:104E40006091F30A7091F40A809160109091611062
:104E500020E63EE00E945A1D882319F1409163101C
:104E60005091641060916510709166104115510564
:104E70006105710591F0809160109091611020E6BC
:104E80003EE00E945A1D882361F010926310109238
:104E9000641010926510109266101092621081E0FA
:104EA000089580E00895EF92FF920F931F937B0186
:104EB0008C010E9418278823A9F0E0E6FEE01192F9
:104EC00080E1E036F807D9F7E092F10AF092F20AB1
:104ED0000093F30A1093F40A80916210816080932A
:104EE000621081E01F910F91FF90EF900895DF9283
:104EF000EF92FF920F931F937B018C01D42E809130
:104F0000F10A9091F20AA091F30AB091F40A8E1579
:104F10009F05A007B107C1F00E9418278823D9F088
:104F20008091601090916110B801A70120E63EE0E9
:104F30000E94441E882379F0E092F10AF092F20A6E
:104F40000093F30A1093F40A809162108D298093E4
:104F5000621081E001C080E01F910F91FF90EF90FF
:104F6000DF9008958F929F92AF92BF92CF92DF927F
:104F7000EF92FF920F931F93CF93DF936C01142F47
:104F80007093611060936010442321F48824992465
:104F9000540140C0453008F01CC160E070E080E082
:104FA00090E040E00E947727882309F412C1C12FC6
:104FB000D0E02197FE0174E0EE0FFF1F7A95E1F734
:104FC000E05AF14FE254FE4F8081EE5BF14090E0F9
:104FD0008F779070892B09F0FCC0E653FE4F8081DB
:104FE0009181A281B38184369105A105B10508F4B0
:104FF000F0C064E0CC0FDD1F6A95E1F7CA5DDF4EBB
:1050000088809980AA80BB8081149104A104B10496
:1050100009F4DFC0C501B40140E00E94772788236E
:1050200009F4D7C080916B0E90916C0E8050924025
:1050300009F0CFC02091700E222309F4CAC08091DC
:105040006E0E90916F0E892B09F4C3C080916D0E86
:10505000882309F4BEC0F601228B80916D0E8483F3
:10506000158661E070E007C04F5FF601458741504B
:10507000483008F0AEC0F6014585848190E09B0180
:10508000042E02C0220F331F0A94E2F782179307FF
:1050900059F72091760E3091770E2115310519F0D0
:1050A00040E050E008C02091840E3091850E409180
:1050B000860E5091870EF6012583368347835087ED
:1050C000E0906E0EF0906F0E00E010E0E80CF91C1E
:1050D0000A1D1B1DE38AF48A058B168B8091710EC5
:1050E0009091720E918F808F6091700E70E080E0D1
:1050F00090E00E9419476E0D7F1D801F911FF601E1
:10510000628F738F848F958F2091710E3091720E04
:1051100055E0220F331F5A95E1F721503E4F232FC0
:105120003327269540E050E0260F371F481F591FB0
:1051300026873787408B518B8091730E9091740E28
:10514000009719F0A0E0B0E008C08091800E909127
:10515000810EA091820EB091830E85017401E21A36
:10516000F30A040B150BA8019701280F391F4A1FDA
:105170005B1FF601058404C0569547953795279522
:105180000A94D2F72187328743875487253FFFE06F
:105190003F07F0E04F07F0E05F0710F48CE006C037
:1051A000255F3F4F4040504028F480E1F601878B57
:1051B00081E010C080918C0E90918D0EA0918E0E8A
:1051C000B0918F0EF601828F938FA48FB58F80E2FE
:1051D000EECF80E0DF91CF911F910F91FF90EF9084
:1051E000DF90CF90BF90AF909F908F9008954F9297
:1051F0005F926F927F928F929F92AF92BF92CF9267
:10520000DF92EF92FF920F931F93CF93DF93EC0106
:105210006A017B01280139014230510561057105A0
:1052200008F46FC089859A85AB85BC850196A11D60
:10523000B11D84179507A607B70708F462C02B892C
:105240003C894D895E898F89803129F499278F2D7A
:105250007E2D6D2D09C0C701B60117E09695879583
:10526000779567951A95D1F74B015C01820E931ED5
:10527000A41EB51E8091F10A9091F20AA091F30A42
:10528000B091F40A88169906AA06BB0639F0C50142
:10529000B40140E00E947727882399F18F898031FB
:1052A00049F4F601F070EE0FFF1FE05AF14F518202
:1052B00040820DC0F601EF77F070EE0FFF1FEE0F8A
:1052C000FF1FE05AF14F40825182628273828091C7
:1052D00062108160809362108A89823080F08D81B3
:1052E0009E81AF81B885880E991EAA1EBB1E809232
:1052F000631090926410A0926510B092661081E0E5
:1053000001C080E0DF91CF911F910F91FF90EF904E
:10531000DF90CF90BF90AF909F908F907F906F90D5
:105320005F904F900895CF92DF92EF92FF920F938C
:105330001F93CF93DF93EC017A018B01690189857B
:105340009A85AB85BC850196A11DB11D8417950773
:10535000A607B70708F450C02B893C894D895E89A0
:105360008F89803129F49927812F702F6F2D09C0E3
:10537000C801B701E7E09695879577956795EA9517
:10538000D1F7260F371F481F591F8091F10A9091BE
:10539000F20AA091F30AB091F40A281739074A07D4
:1053A0005B0739F0CA01B90140E00E9477278823E2
:1053B00019F18F89803159F4F701F070EE0FFF1F5A
:1053C000E05AF14F80819181A0E0B0E00EC0F7017A
:1053D000EF77F070EE0FFF1FEE0FFF1FE05AF14F57
:1053E00080819181A281B381BF70F6018083918316
:1053F000A283B38381E001C080E0DF91CF911F9150
:105400000F91FF90EF90DF90CF900895AF92BF92F1
:10541000CF92DF92EF92FF920F931F93DF93CF9380
:1054200000D00F92CDB7DEB76C017A018B0182E01C
:1054300090E0A0E0B0E0F60180839183A283B38383
:105440005E010894A11CB11CC601B801A701950119
:105450000E949329882319F1C601B801A70100E031
:1054600010E020E030E00E94F7288823C1F0E980B6
:10547000FA800B811C81F6018789803129F088EF41
:105480009FEFAFEFBFE004C088EF9FEFA0E0B0E078
:10549000E816F9060A071B07B8F281E001C080E0B0
:1054A0000F900F900F900F90CF91DF911F910F9160
:1054B000FF90EF90DF90CF90BF90AF9008954F9204
:1054C0005F926F927F928F929F92AF92BF92CF9294
:1054D000DF92EF92FF920F931F93DF93CF9300D051
:1054E0000F92CDB7DEB76C0149835A836B837C83FF
:1054F0003901EE24FF2487012E010894411C511C20
:10550000812CA2E09A2EA12CB12C49815A816B8169
:105510007C81C60192010E949329882351F1D50113
:10552000C401F601058404C0880F991FAA1FBB1F80
:105530000A94D2F7E80EF91E0A1F1B1F29813A812F
:105540004B815C818789803129F088EF9FEFAFEF35
:10555000BFE004C088EF9FEFA0E0B0E02817390754
:105560004A075B0790F2F301E082F1820283138322
:1055700081E00F900F900F900F90CF91DF911F91CE
:105580000F91FF90EF90DF90CF90BF90AF909F90E2
:105590008F907F906F905F904F9008952F923F92E1
:1055A0004F925F926F927F928F929F92AF92BF9233
:1055B000CF92DF92EF92FF920F931F93DF93CF93DF
:1055C000CDB7DEB72F970FB6F894DEBF0FBECDBFB5
:1055D0001C014A875B876C877D873F872E87D901AF
:1055E0000D911D912D913C9101151105210531055C
:1055F00049F0480159010894811C911CA11CB11C5F
:10560000198610C0FC0180809180A280B380198629
:105610008A859B85AC85BD850197A105B10511F4EF
:1056200091E09987D10119968D919D910D90BC9132
:10563000A02D0196A11DB11D8D839E83AF83B887D8
:10564000750164014424552432018E010F5F1F4F00
:10565000F10181859285A385B485481659066A06AD
:105660007B0608F090C08D819E81AF81B8858C1536
:105670009D05AE05BF0550F482E0882E912CA12C2B
:10568000B12CB2E0CB2ED12CE12CF12CC101B70111
:10569000A60198010E949329882309F474C0898186
:1056A0009A81AB81BC81A70196012F5F3F4F4F4F7D
:1056B0005F4F0097A105B10519F049015A010DC0CE
:1056C000281939094A095B098A859B85AC85BD85FE
:1056D000281739074A075B0759F00894411C511CE9
:1056E000611C711C0894C11CD11CE11CF11CB0CFC1
:1056F000C101A601B7010FEF1FEF2FEF3FE00E949E
:10570000F728882399F43FC02601370108944108FF
:10571000510861087108C101B301A2019701860116
:105720000E94F728882379F1730162018C149D048B
:10573000AE04BF0448F3AE85BF854D915D916D9178
:105740007C91411551056105710539F0C101950143
:1057500084010E94F7288823B1F0EE85FF858082BE
:105760009182A282B382F985FF2359F00894811CAB
:10577000911CA11CB11CD1018D929D92AD92BC9245
:10578000139781E001C080E02F960FB6F894DEBF3A
:105790000FBECDBFCF91DF911F910F91FF90EF9082
:1057A000DF90CF90BF90AF909F908F907F906F9041
:1057B0005F904F903F902F900895DC0187E0A03DCF
:1057C000B80710F0A05DB74050E02DEB31E091E05C
:1057D00007C0F9018491480F511D9F5F2F5F3F4F14
:1057E0009617B8F3633038F0CD0183709070892B31
:1057F00011F44F5F5F4F8DE691E0A89F9001A99F44
:10580000300DB89F300D1124215030401396B695BD
:10581000A795B695A7952A0F3B1F240F351FC901E1
:105820000895CF92EF920F93FC0187E0603D7807D7
:1058300010F0605D774060834D3008F04CE04183AC
:10584000203208F02FE12283083108F007E10383BA
:105850008E2D8D3308F08CE384838C2D8D3308F0EE
:105860008CE385830F91EF90CF900895CF93DF93D2
:10587000FC01DB01EB01299619968C911997805355
:105880008A3008F080E0298120533AE0839FC001EC
:105890001124280F20838C918A34A9F08B343CF496
:1058A0008434D9F18634F9F08134C9F51EC08E34C0
:1058B00091F18F341CF48D3491F520C08F3449F16F
:1058C000833569F524C011968C911197813611F4B6
:1058D00081E024C012968C9112978E3611F486E0E6
:1058E0001DC087E01BC082E019C012968C911297F0
:1058F000823711F088E012C084E010C012968C91BB
:105900001297823711F085E009C083E007C089E073
:1059100005C0318304C08BE001C08CE08183ED01C0
:10592000249614966C9160536A3008F060E02981E7
:1059300020538AE0689FC0011124280F2283DA01D6
:105940009C9190539A3008F090E0EA01298120530D
:105950008AE0989FC0011124280F2383DA0113964F
:105960009B8190539A3008F090E011962C9120532F
:105970008AE0989FC0011124280F2483DA0116962B
:10598000EA014E8140534A3008F040E011962C91D4
:1059900020538AE0489FC0011124280F2583DF91FE
:1059A000CF9108950F931F938C01FC01808190E0AB
:1059B000618142810E94DD2BA0E0B0E0BC01CD01FD
:1059C00028E130E040E050E00E941947F8012381CF
:1059D000620F711D811D911D2CE330E040E050E00D
:1059E0000E941947F8012481620F711D811D911DCC
:1059F0002CE330E040E050E00E9419479B01AC01ED
:105A0000F8018581280F311D411D511D20583C4B47
:105A10004249574CB901CA011F910F910895282F8F
:105A200030E094E0359527959A95E1F74AEF5FEFDE
:105A3000B901649F9001659F300D749F300D112452
:105A4000820F0895282F6AE00E94384796E0899FC8
:105A5000C0011124820F089581E00895AF92BF9292
:105A6000CF92EF92FF920F931F93DF93CF93CDB717
:105A7000DEB72C970FB6F894DEBF0FBECDBF8EE811
:105A80009DE068E670E00E9438148EE89DE060E0DA
:105A90000E94BA148EE89DE00E94FD148EE89DE0FD
:105AA00068E670E047E050E00E940E158EE89DE049
:105AB0000E944B148F770E940F2DC82E8EE89DE018
:105AC0000E944B140E940F2DE82E8EE89DE00E944C
:105AD0004B140E940F2D082F8EE89DE00E944B145E
