:100000000C947A010C94C7380C94F8380C94293964
:100010000C945A390C948B390C94BC390C94ED39EE
:100020000C941E3A0C94A7010C94A7010C94A70100
:100030000C94A7010C94A7010C94A7010C94A701A0
:100040000C94A7010C94A7010C94A7010C94A70190
:100050000C94A7010C940C340C94A7010C944F3A07
:100060000C94A7010C94073E0C94333F0C94A70109
:100070000C94A7010C94A7010C94A7010C94A70160
:100080000C94A7010C94A7010C94A7010C94A70150
:100090000C94433E0C94673F0C94A7010C94871674
:1000A0000C94A7010C94A7010C94A7010C94A70130
:1000B0000C94A7010C94A7010C94A7010C94A70120
:1000C0000C94A7010C94A7010C94A7010C947F3EFB
:1000D0000C949B3F0C94A7010C94BB3E0C94CF3F17
:1000E0000C94A70107634236B79BD8A71A39685604
:1000F00018AEBAAB558C1D3CB7CC5763BD6DEDFD4A
:10010000753EF6177231BF000000803F0800000006
:10011000BE922449123EABAAAA2ABECDCCCC4C3EFC
:1001200000000080BEABAAAAAA3E00000000BF00EB
:100130000000803F0000000000084178D3BB4387E7
:10014000D1133D190E3CC3BD4282AD2B3E68EC82FB
:1001500076BED98FE1A93E4C80EFFFBE01C4FF7F80
:100160003F000000000056533130353320666F7574
:100170006E6400436F756C646E27742066696E64EC
:10018000205653313035332C20646F20796F752021
:10019000686176652074686520726967687420708C
:1001A000696E7320646566696E65643F007C3C3EE1
:1001B0005E2B3D3F2F5B5D3B2C2A225C001F1C1FEA
:1001C0001E1F1E1F1F1E1F1E1F00002100240027B0
:1001D000002A002D00300033000101000004010757
:1001E000010A0100002200250028002B002E00310A
:1001F00000340002010000050108010B010000208D
:10020000002300260029002C002F003200000100EE
:100210000003010601090105050505070508080891
:1002200008020202020A0A08080404040401010187
:10023000010101010103030303030303030407078F
:10024000070C0C0C0C0C0C0C0C020202020606062D
:1002500006060606060B0B0B0B0B0B0B0B01021015
:1002600020200808102040102040800201020108D0
:100270000402010102040810204080804020100880
:1002800004020180040201804020100804020108D9
:100290000402010102040810204080010204081039
:1002A0002040800000090A02080B0C0D0706030419
:1002B000010000000000000000000000000000003D
:1002C000000000000000000000000000000000111D
:1002D000100F0000000000000000000000000000FF
:1002E000000000000000000000008A052315A91985
:1002F0001041830511241FBECFEFD1E2DEBFCDBF79
:1003000000E00CBF1BE0A0E0B2E0E8EFF0E900E0A5
:100310000BBF02C007900D92A439B107D9F71BBEDD
:1003200013E1A4E9BBE001C01D92A036B107E1F7DB
:1003300012E0C2EFD2E004C02297FE010E943448CE
:10034000CA3ED107C9F70E9446420C946F480C94EC
:100350000000A0E0B0E0EFEAF1E00C944048EC01CE
:10036000A880B980CA80DB80A114B104C104D10483
:1003700041F484E2A82E89EDB82E8BE5C82E87E0E3
:10038000D82EC601B5012DE133EF41E050E00E94C7
:10039000174827EA31E440E050E00E94CA477B0159
:1003A0008C01C601B5012DE133EF41E050E00E9420
:1003B0001748CA01B9012CEE34EF4FEF5FEF0E94EE
:1003C000CA476E0D7F1D801F911F97FF04C06150AB
:1003D000704080409048688379838A839B839B0127
:1003E000AC015F77B901CA01CDB7DEB7EAE00C9482
:1003F0005C480E94A90108958FE19BE00E94A90139
:10040000089560931F0B7093200B8093210B9093A2
:10041000220B0895FB01DC0104C08D91019080192D
:1004200021F441505040C8F7881B990B0895FC01F6
:100430008191861721F08823D9F79927089531975C
:10044000CF010895FB01DC014150504048F001907C
:100450000D920020C9F701C01D9241505040E0F7B5
:1004600008950F931F93CF93DF938C01EB016115D8
:10047000710581F0DC011F96ED91FC91509730974A
:1004800031F0CE011D966D917C911E971995F80162
:10049000D687C587DF91CF911F910F910895DF9384
:1004A000CF93CDB7DEB72D970FB6F894DEBF0FBE52
:1004B000CDBFE0911E0CF0911F0C9E012F5F3F4FAE
:1004C000AF018DE0DA010D90AD01D9010D929D01D2
:1004D0008150C1F78091720D9091730D8F3191050C
:1004E00089F18032910524F44E9709F044C035C05B
:1004F0008032910519F18197F1F5A885B98510979A
:1005000059F0CE0101961C969C938E931B97A78160
:10051000B085109761F40FC02091220C3091230C0C
:100520002115310541F1CF01F901199524C01C961F
:10053000FC93EE931B976781708519C081E19CE065
:10054000BC0117C0A581B681109721F01C96FC93C1
:10055000EE931B97658176810AC0A185B2851097BD
:1005600021F01C96FC93EE931B976185728581E1C7
:100570009CE00E9431021092730D1092720D2D9624
:100580000FB6F894DEBF0FBECDBFCF91DF910895B7
:1005900083E090E090936E0D80936D0D0895EF923F
:1005A0000F938130910509F09EC26F5F7F4F09F074
:1005B000A7C284E99BE00E94B42E86E99BE060E03C
:1005C0000E947F3581EB9BE069E04AE028E003E090
:1005D00034E0E32E0E94383486EF9BE00E947018CE
:1005E00080E092E09093120C8093110C1092130C07
:1005F00010921B0C10921A0C1092190C1092180CDD
:100600001092170C1092160C1092150C1092140CDC
:1006100081E19CE090931F0C80931E0C84EF96E088
:100620009093210C8093200C82E19BE09093230C0B
:100630008093220C89E092E09093250C8093240C07
:100640001092260C10922E0C10922D0C10922C0C45
:1006500010922B0C10922A0C1092290C1092280C3C
:100660001092270C8CE192E09093320C8093310C25
:100670001092330C10923B0C10923A0C1092390CE1
:100680001092380C1092370C1092360C1092350CD8
:100690001092340C89E292E090933F0C80933E0CD0
:1006A0001092400C1092480C1092470C1092460C7D
:1006B0001092450C1092440C1092430C1092420C74
:1006C0001092410C87E392E090934C0C80934B0C7A
:1006D00010924D0C1092550C1092540C1092530C19
:1006E0001092520C1092510C1092500C10924F0C10
:1006F00010924E0C84E492E09093590C8093580C25
:1007000010925A0C1092620C1092610C1092600CB4
:1007100010925F0C10925E0C10925D0C10925C0CAB
:1007200010925B0C82E592E09093660C8093650CCE
:100730001092670C10926F0C10926E0C10926D0C50
:1007400010926C0C10926B0C10926A0C1092690C47
:100750001092680C83E692E09093730C8093720C75
:100760001092740C10927C0C10927B0C10927A0CEC
:100770001092790C1092780C1092770C1092760CE3
:100780001092750C85E792E09093800C80937F0C1B
:100790001092810C1092890C1092880C1092870C88
:1007A0001092860C1092850C1092840C1092830C7F
:1007B0001092820C84E892E090938D0C80938C0CC4
:1007C00010928E0C1092960C1092950C1092940C24
:1007D0001092930C1092920C1092910C1092900C1B
:1007E00010928F0C84E992E090939A0C8093990C6C
:1007F00010929B0C1092A30C1092A20C1092A10CC0
:100800001092A00C10929F0C10929E0C10929D0CB6
:1008100010929C0C89EA92E09093A70C8093A60C0E
:100820001092A80C1092B00C1092AF0C1092AE0C5B
:100830001092AD0C1092AC0C1092AB0C1092AA0C52
:100840001092A90C82EB92E09093B40C8093B30CBD
:100850001092B50C1092BD0C1092BC0C1092BB0CF7
:100860001092BA0C1092B90C1092B80C1092B70CEE
:100870001092B60C8DEB92E09093C10C8093C00C5B
:100880001092C20C1092CA0C1092C90C1092C80C93
:100890001092C70C1092C60C1092C50C1092C40C8A
:1008A0001092C30C87EC92E09093CE0C8093CD0C09
:1008B0001092CF0C1092D70C1092D60C1092D50C2F
:1008C0001092D40C1092D30C1092D20C1092D10C26
:1008D0001092D00C89ED92E09093DB0C8093DA0CAF
:1008E0001092DC0C1092E40C1092E30C1092E20CCB
:1008F0001092E10C1092E00C1092DF0C1092DE0CC2
:100900001092DD0C85EE92E09093E80C8093E70C5A
:100910001092E90C1092F10C1092F00C1092EF0C66
:100920001092EE0C1092ED0C1092EC0C1092EB0C5D
:100930001092EA0C80EF92E09093F50C8093F40C07
:100940001092F60C1092FE0C1092FD0C1092FC0C02
:100950001092FB0C1092FA0C1092F90C1092F80CF9
:100960001092F70C8DEF92E09093020D8093010DA1
:100970001092030D10920B0D10920A0D1092090D9A
:100980001092080D1092070D1092060D1092050D91
:100990001092040D8BE093E090930F0D80930E0D59
:1009A0001092100D1092180D1092170D1092160D36
:1009B0001092150D1092140D1092130D1092120D2D
:1009C0001092110D89E193E090931C0D80931B0D03
:1009D00010921D0D1092250D1092240D1092230DD2
:1009E0001092220D1092210D1092200D10921F0DC9
:1009F00010921E0D8CE293E09093290D8093280DA8
:100A000010922A0D1092320D1092310D1092300D6D
:100A100010922F0D10922E0D10922D0D10922C0D64
:100A200010922B0D8BE393E09093360D8093350D50
:100A30001092370D10923F0D10923E0D10923D0D09
:100A400010923C0D10923B0D10923A0D1092390D00
:100A50001092380D8AE493E09093430D8093420DF9
:100A60001092440D10924C0D10924B0D10924A0DA5
:100A70001092490D1092480D1092470D1092460D9C
:100A80001092450D89E593E09093500D80934F0DA2
:100A90001092510D1092590D1092580D1092570D41
:100AA0001092560D1092550D1092540D1092530D38
:100AB0001092520D8EE593E090935D0D80935C0D46
:100AC00010925E0D1092660D1092650D1092640DDD
:100AD0001092630D1092620D1092610D1092600DD4
:100AE00010925F0D0DC0892B59F46F5F7F4F41F459
:100AF00086EF9BE00E94831889ED9BE00E9483189B
:100B00000F91EF90089580E090E06FEF7FEF0E94EB
:100B1000CF02089581E090E06FEF7FEF0E94CF0257
:100B20000895CF92DF92EF92FF920F931F93CF938E
:100B3000DF9381E20E945F3CEC018091740D909103
:100B4000750DC817D90751F00E94973A60937C0D34
:100B500070937D0D80937E0D90937F0D0E94973A48
:100B600020917C0D30917D0D40917E0D50917F0D37
:100B7000621B730B840B950B20912C0B30912D0B6A
:100B800040912E0B50912F0B261737074807590716
:100B900018F0CC24DD240BC00E94973A60937C0DA2
:100BA00070937D0D80937E0D90937F0D6E01D09399
:100BB000750DC093740D80E20E945F3CEC01809142
:100BC000760D9091770DC817D90751F00E94973A8A
:100BD0006093800D7093810D8093820D9093830DAF
:100BE0000E94973A2091800D3091810D4091820DA5
:100BF0005091830D621B730B840B950B20912C0B72
:100C000030912D0B40912E0B50912F0B261737074B
:100C10004807590718F0EE24FF240BC00E94973AAA
:100C20006093800D7093810D8093820D9093830D5E
:100C30007E01D093770DC093760D8FE10E945F3CCB
:100C4000EC0180917A0D90917B0DC817D90751F076
:100C50000E94973A6093880D7093890D80938A0D56
:100C600090938B0D0E94973A2091880D3091890DB9
:100C700040918A0D50918B0D621B730B840B950B69
:100C800020912C0B30912D0B40912E0B50912F0B5E
:100C9000261737074807590718F000E010E00BC087
:100CA0000E94973A6093880D7093890D80938A0D06
:100CB00090938B0D8E01D0937B0DC0937A0D8EE1B6
:100CC0000E945F3CEC018091780D9091790DC817DE
:100CD000D90751F00E94973A6093840D7093850D67
:100CE0008093860D9093870D0E94973A2091840DF2
:100CF0003091850D4091860D5091870D621B730BCD
:100D0000840B950B20912C0B30912D0B40912E0BC9
:100D100050912F0B261737074807590718F080E026
:100D200090E00BC00E94973A6093840D7093850DFC
:100D30008093860D9093870DCE01D093790DC0934B
:100D4000780D21E0C216D10419F481E290E011C0BF
:100D500021E0E216F10419F480E290E00AC00130CB
:100D6000110519F48FE190E004C0019739F48EE188
:100D700090E09093730D8093720D04C01092730DE8
:100D80001092720DDF91CF911F910F91FF90EF9014
:100D9000DF90CF900895EF92FF920F931F9346E953
:100DA000E42E4BE0F42EC70160E040E00E941F37C4
:100DB00001E713E0C701B8010E941F44C701B80151
:100DC0000E941F44C701B8010E941F44C701B80117
:100DD0000E941F44C70160E040E00E941F371F913E
:100DE0000F91FF90EF9008950F931F93DF93CF9390
:100DF000CDB7DEB72D970FB6F894DEBF0FBECDBFCF
:100E0000DE011196FC018DE001900D928150E1F719
:100E100009811A8186E99BE060E042E00E941F3769
:100E2000A091110CB091120CF80105C031968C9173
:100E3000981729F4119690819923C1F7DFC082E0B9
:100E40000930180729F486E99BE066E873E0DCC006
:100E500082E00C31180729F486E99BE06BE973E026
:100E6000D3C082E00932180729F486E99BE060EBE1
:100E700073E0CAC082E00733180729F486E99BE0D3
:100E800065EC73E0C1C082E00434180729F486E9F8
:100E90009BE06AED73E0B8C082E00235180729F4E0
:100EA00086E99BE06FEE73E0AFC082E0033618077F
:100EB00029F486E99BE064E074E0A6C082E005378F
:100EC000180729F486E99BE069E174E09DC082E09F
:100ED0000438180729F486E99BE06EE274E094C0B8
:100EE00082E00439180721F486E99BE0B8018CC040
:100EF00082E0093A180729F486E99BE063E474E08C
:100F000083C082E0023B180729F486E99BE068E58C
:100F100074E07AC082E00D3B180729F486E99BE073
:100F20006DE674E071C082E0073C180729F486E999
:100F30009BE062E874E068C082E0093D180729F48C
:100F400086E99BE067E974E05FC082E0053E180730
:100F500029F486E99BE06CEA74E056C082E0003F29
:100F6000180729F486E99BE061EC74E04DC082E04B
:100F70000D3F180729F486E99BE066ED74E044C054
:100F800083E00B30180729F486E99BE06BEE74E0F0
:100F90003BC083E00931180729F486E99BE060E053
:100FA00075E032C083E00C32180729F486E99BE033
:100FB00065E175E029C083E00B33180729F486E961
:100FC0009BE06AE275E020C083E00A34180729F448
:100FD00086E99BE06FE375E017C083E009351807E9
:100FE00029F486E99BE064E575E00EC00E551340D8
:100FF00069F486E99BE069E675E006C00E94CB06CD
:1010000086E99BE06EE775E00E941F442D960FB6BF
:10101000F894DEBF0FBECDBFCF91DF911F910F912E
:1010200008950E94CB0686E99BE060E041E00E94C3
:101030001F3786E99BE063E975E00E941F4481E168
:101040009CE09093280C8093270C84E29CE0909382
:10105000190C8093180C80912F0C9091300C892BD7
:1010600041F480911C0C90911D0C9093300C809356
:101070002F0C84E29CE09093A30C8093A20C89E94E
:101080009CE090932A0C8093290C8091A40C909161
:10109000A50C892B41F480912F0C9091300C9093EA
:1010A000A50C8093A40C89E99CE09093320D809369
:1010B000310D88E29DE090939F0C80939E0C80916F
:1010C000330D9091340D892B41F48091A40C9091B3
:1010D000A50C9093340D8093330D88E29DE090939E
:1010E000590D8093580D8FE49DE090932E0D8093C1
:1010F0002D0D80915A0D90915B0D892B41F48091BB
:10110000330D9091340D90935B0D80935A0D84E2D2
:101110009CE09093350C8093340C81E39CE0909399
:101120002C0C80932B0C80913C0C90913D0C892BC6
:1011300041F480912F0C9091300C90933D0C809352
:101140003C0C81E39CE09093480C8093470C8EE329
:101150009CE09093370C8093360C8091490C9091D1
:101160004A0C892B41F480913C0C90913D0C90935A
:101170004A0C8093490C8EE39CE09093550C80932D
:10118000540C8BE49CE09093440C8093430C80912E
:10119000560C9091570C892B41F48091490C9091F9
:1011A0004A0C9093570C8093560C8BE49CE09093E0
:1011B000620C8093610C88E59CE09093510C8093C5
:1011C000500C8091630C9091640C892B41F48091B8
:1011D000560C9091570C9093640C8093630C88E5A7
:1011E0009CE090936F0C80936E0C85E69CE090934E
:1011F0005E0C80935D0C8091700C9091710C892B2A
:1012000041F48091630C9091640C9093710C8093E5
:10121000700C85E69CE090937C0C80937B0C82E7BD
:101220009CE090936B0C80936A0C80917D0C909164
:101230007E0C892B41F48091700C9091710C9093ED
:101240007E0C80937D0C82E79CE09093890C8093C8
:10125000880C8FE79CE09093780C8093770C8091BA
:101260008A0C90918B0C892B41F480917D0C90918C
:101270007E0C90938B0C80938A0C8FE79CE090936C
:10128000960C8093950C8CE89CE09093850C809351
:10129000840C8091970C9091980C892B41F480914B
:1012A0008A0C90918B0C9093980C8093970C89E901
:1012B0009CE09093AA0C8093A90C86EA9CE0909302
:1012C000A10C8093A00C8091B10C9091B20C892B51
:1012D00041F48091A40C9091A50C9093B20C809352
:1012E000B10C86EA9CE09093BD0C8093BC0C83EB20
:1012F0009CE09093AC0C8093AB0C8091BE0C9091D1
:10130000BF0C892B41F48091B10C9091B20C909359
:10131000BF0C8093BE0C83EB9CE09093CA0C80932F
:10132000C90C80EC9CE09093B90C8093B80C809130
:10133000CB0C9091CC0C892B41F48091BE0C9091F8
:10134000BF0C9093CC0C8093CB0C80EC9CE09093E2
:10135000D70C8093D60C8DEC9CE09093C60C8093B8
:10136000C50C8091D80C9091D90C892B41F48091B7
:10137000CB0C9091CC0C9093D90C8093D80C8DEC25
:101380009CE09093E40C8093E30C8AED9CE09093B6
:10139000D30C8093D20C8091E50C9091E60C892BB4
:1013A00041F48091D80C9091D90C9093E60C8093E5
:1013B000E50C8AED9CE09093F10C8093F00C87EEA5
:1013C0009CE09093E00C8093DF0C8091F20C909164
:1013D000F30C892B41F48091E50C9091E60C9093ED
:1013E000F30C8093F20C87EE9CE09093FE0C8093BC
:1013F000FD0C84EF9CE09093ED0C8093EC0C8091BD
:10140000FF0C9091000D892B41F48091F20C90918A
:10141000F30C9093000D8093FF0C84EF9CE090936D
:101420000B0D80930A0D81E09DE09093FA0C809360
:10143000F90C80910C0D90910D0D892B41F4809148
:10144000FF0C9091000D90930D0D80930C0D81E099
:101450009DE09093180D8093170D8EE09DE0909382
:10146000070D8093060D8091190D90911A0D892B0F
:1014700041F480910C0D90910D0D90931A0D809375
:10148000190D8EE09DE09093250D8093240D8BE146
:101490009DE09093140D8093130D8091260D9091F3
:1014A000270D892B41F48091190D90911A0D90937D
:1014B000270D8093260D88E29DE09093390D80934F
:1014C000380D85E39DE09093300D80932F0D809132
:1014D000400D9091410D892B41F48091330D9091F5
:1014E000340D9093410D8093400D85E39DE09093E2
:1014F0004C0D80934B0D82E49DE090933B0D8093C7
:101500003A0D80914D0D90914E0D892B41F48091B3
:10151000400D9091410D90934E0D80934D0D8FE4B1
:101520009DE09093600D80935F0D8CE59DE090931E
:10153000570D8093560D8091670D9091680D892B02
:1015400041F480915A0D90915B0D9093680D8093BA
:10155000670D81E19CE0BC010E94310260E273E012
:1015600080E090E00E94113B86E99BE060E043E070
:101570000E941F3786E99BE064EA75E00E941F44E1
:1015800064EF71E080E090E00E94113B0E94CB0686
:101590000895CF93DF930E94CB0684ED90E16DEA2E
:1015A00075E00E941F4486E99BE060E043E00E94F2
:1015B0001F3786E99BE061EC75E00E941F44C0E0A4
:1015C000D0E084ED90E163ED75E00E941F4468EE89
:1015D00073E080E090E00E94113B2196C530D10578
:1015E00081F784ED90E165ED75E00E94224484ED81
:1015F00090E16BED75E00E94224486E99BE060E09B
:1016000043E00E941F3786E99BE069EE75E00E9487
:101610001F4462E370E080E090E00E94113BDF91A4
:10162000CF9108950F93CF93DF93EC010E94CB06E7
:1016300086E99BE060E040E00E941F3786E99BE07E
:101640006BEF75E00E941F4486E99BE060E041E09B
:101650000E941F376881798186E99BE00E941F44C0
:1016600068EB7BE080E090E00E94113B81E19CE030
:10167000BC010E943102888199818E55934071F49A
:1016800084ED90E16DE076E00E94224485E090E0F8
:1016900090936E0D80936D0D0E94CB068881998189
:1016A0008D5F924079F58DE261E00E942C3C81E5EE
:1016B0009EE00E94CC1981E59EE064E04FEF2FEFA1
:1016C0000FEF0E94121C84ED90E164E376E004C009
:1016D00084ED90E16AE476E00E94224481EB9BE095
:1016E00060E676E00E94EA33882391F38DE260E0C1
:1016F0000E942C3C85E090E090936E0D80936D0DE0
:101700000E94CB06888199818B50934071F58DE2C0
:1017100061E00E942C3C81E59EE00E94CC1981E5AD
:101720009EE064E04FEF2FEF0FEF0E94121C84ED5C
:1017300090E16DE676E00E94224481EB9BE063E855
:1017400076E00E94813368EB7BE080E090E00E94CD
:10175000113B8DE260E00E942C3C85E090E090938C
:101760006E0D80936D0D0E94CB0688819981895101
:10177000934071F58DE261E00E942C3C81E59EE092
:101780000E94CC1981E59EE064E04FEF2FEF0FEF50
:101790000E94121C84ED90E160E976E00E942244F0
:1017A00081EB9BE06BEA76E00E94813368EB7BE0A3
:1017B00080E090E00E94113B8DE260E00E942C3CB2
:1017C00085E090E090936E0D80936D0D0E94CB06A6
:1017D000888199818D5B9240D1F483E090E0909371
:1017E0006A0D8093690D84ED90E168EB76E00E94CC
:1017F000224468EE73E080E090E00E94113B85E0B7
:1018000090E090936E0D80936D0D0E94CB068881C1
:101810009981875C9240D1F484E090E090936A0DC6
:101820008093690D84ED90E163ED76E00E9422449F
:1018300068EE73E080E090E00E94113B85E090E06C
:1018400090936E0D80936D0D0E94CB06DF91CF912A
:101850000F9108950E94CB0686E99BE060E041E08D
:101860000E941F3786E99BE062EF76E00E941F44EA
:1018700081EB9BE00E943733882339F484ED90E1BB
:1018800063E771E00E94CA42FFCF84ED90E166E613
:1018900071E00E94CA4281EB9BE062E042E00E945C
:1018A000403281EB9BE065E00E945E3481EB9BE07F
:1018B00060E676E00E94813360E273E080E090E0D1
:1018C0000E94113B86E99BE060E043E00E941F37E5
:1018D00086E99BE064EA75E00E941F4408950F9337
:1018E000DF93CF93CDB7DEB76B970FB6F894DEBF1B
:1018F0000FBECDBF0E94CB0686E99BE060E041E0D1
:101900000E941F3786E99BE064E077E00E941F4455
:1019100084ED90E160E177E00E941F4481E59EE064
:1019200065E34FEF2FEF0FEF0E94121C882339F46D
:1019300084ED90E168E277E00E942244FFCF84EDDD
:1019400090E164E477E00E942244CE01019661E5D3
:101950007EE046E557E023E10E94ED1A8B819C81F1
:101960009093F90B8093F80B8D819E81AF81B885A0
:101970008093FA0B9093FB0BA093FC0BB093FD0BA1
:1019800089859A85AB85BC858093FE0B9093FF0B70
:10199000A093000CB093010CA2E0BCE0FE013D96C8
:1019A0008DE001900D928150E1F78A8D9B8D90938F
:1019B000100C80930F0CCE0101960E94831886EFC5
:1019C0009BE00E94C518882339F484ED90E162E61B
:1019D00077E00E942244FFCF60E273E080E090E075
:1019E0000E94113B86E99BE060E043E00E941F37C4
:1019F00086E99BE064EA75E00E941F446B960FB68F
:101A0000F894DEBF0FBECDBFCF91DF910F91089547
:101A1000EF92FF920F931F9354EDE52E50E1F52EB8
:101A2000C7016CE777E00E941F4406E91BE0C8018C
:101A300064E144E020E00E9463370E94CB06C801C5
:101A400067E977E00E941F44C70164EA75E00E94DD
:101A500022441F910F91FF90EF900895DF93CF9351
:101A60000F92CDB7DEB784ED90E167EA77E00E9490
:101A70001F440E94CB0686E99BE060E041E00E94A3
:101A80001F3786E99BE064EC77E00E941F4484E9FD
:101A90009BE00E948A3184E99BE0BE016F5F7F4F2B
:101AA0000E94152F882399F084ED90E166ED77E090
:101AB0000E941F4484ED90E1698140E150E00E9462
:101AC0009B4384ED90E169EE77E00E9422441092FE
:101AD0006F0D84ED90E16AEF77E00E94224484E983
:101AE0009BE060916F0D42E020E73DE00E943130C5
:101AF00084ED90E168E078E00E94224484E99BE074
:101B00000E944B3064E670E080E090E00E94113B60
:101B100084E99BE061E045E00E94F52F882331F0E5
:101B200084ED90E163E178E00E94224484E99BE047
:101B30006CE271E040ED57E00E94D52F882331F030
:101B400084ED90E169E378E00E94224460E273E072
:101B500080E090E00E94113B84ED90E164EA75E042
:101B60000E94224486E99BE060E043E00E941F3728
:101B700086E99BE064EA75E00E941F440F90CF91D4
:101B8000DF910895CF92DF92EF92FF920F931F9310
:101B900074EDC72E70E1D72EC60166E678E00E948C
:101BA0001F440E94CB0666E9E62E6BE0F62EC701C5
:101BB00060E041E00E941F37C7016BE778E00E94B8
:101BC0001F4485E361E00E94793B86E161E00E9469
:101BD000793B8EE160E00E94793B8FE160E00E94FA
:101BE000793B80E260E00E94793B81E260E00E9404
:101BF000793B82E260E00E94793B82E060E00E94F3
:101C0000793B82E160E00E94793B88E261E00E94DA
:101C1000793B89E261E00E94793B8CE060E00E94C0
:101C2000793B8DE261E00E94793B85E361E00E94AF
:101C3000793B60E273E080E090E00E94113B04EAAF
:101C400015E0C601B8010E942244C70160E043E0EC
:101C50000E941F37C701B8010E941F441F910F91B6
:101C6000FF90EF90DF90CF900895CF92DF92EF92A8
:101C7000FF920F931F93DF93CF93CDB7DEB7689793
:101C80000FB6F894DEBF0FBECDBF84ED90E16DE8D6
:101C900078E00E941F440E94CB0686E99BE060E04A
:101CA00041E00E941F3786E99BE06DEA78E00E94E0
:101CB0001F440E94DD2D0E94DF2D2B8B3C8B4D8B12
:101CC0005E8B6F8B788FDE011196FE01739686E036
:101CD00001900D928150E1F7E7E0CE2ED12CCC0E91
:101CE000DD1EC60162EC78E04EEC58E00E94E72C65
:101CF000CE0101960E94832D7B018C01C6010E94BA
:101D0000832DE616F7060807190768F48E01035FAE
:101D10001F4FC80162EC78E04EEC58E00E94E72CBF
:101D2000C8010E94612E60E273E080E090E00E94B2
:101D3000113B84ED90E164EA75E00E94224486E95B
:101D40009BE060E043E00E941F3786E99BE064EA85
:101D500075E00E941F4468960FB6F894DEBF0FBE70
:101D6000CDBFCF91DF911F910F91FF90EF90DF904A
:101D7000CF9008950F931F93082F803414F00FE332
:101D800002C087FD00E084ED90E167ED78E00E94FD
:101D90001F44112707FD109584ED90E1B8014AE03A
:101DA00050E00E94004487ED9DE06BE470E00E94EB
:101DB000E91487ED9DE0602F0E946B1587ED9DE093
:101DC0000E94AE1590E0882309F491E0892F1F91BD
:101DD0000F9108958091230B0E94BA0E882331F44D
:101DE00084ED90E16AEE78E00E94224486E161E0B1
:101DF0000E942C3C60ED77E080E090E00E94113B77
:101E000086E160E00E942C3C8DE260E00E942C3C68
:101E100008950F931F93682F07ED1DE0C8010E94DE
:101E2000DF14C8016FE60E946B15C8010E94AE1551
:101E30001F910F910895DF92EF92FF920F931F93DE
:101E4000382FF62EE42ED22E07ED1DE0C801632FA9
:101E50000E94DF14C80160E70E946B15C8016F2D56
:101E60000E946B15C8016E2D0E946B15C8016D2D67
:101E70000E946B15C8010E94AE151F910F91FF9033
:101E8000EF90DF900895DF92EF92FF920F931F93F0
:101E9000382FF62EE42ED22E07ED1DE0C801632F59
:101EA0000E94DF14C80163E60E946B15C8016F2D04
:101EB0000E946B15C8016E2D0E946B15C8016D2D17
:101EC0000E946B15C8010E94AE151F910F91FF90E3
:101ED000EF90DF9008950F931F93CF93DF9384EDDE
:101EE00090E163E179E00E9422440E94CB0686E9FA
:101EF0009BE060E041E00E941F3786E99BE069E3D8
:101F000079E00E941F4489E361E00E94793B88E305
:101F100061E00E94793B89E361E00E942C3C88E308
:101F200060E00E942C3C64E670E080E090E00E945B
:101F3000113B87ED9DE00E94C31504E21BE0C0E069
:101F4000D0E084ED90E16AE479E00E941F4421969C
:101F500084ED90E1BE014AE050E00E94004486E931
:101F60009BE060E042E00E941F3786E99BE06AE464
:101F700079E00E941F4486E99BE0BE014AE050E000
:101F80000E94ED43F801808162E140E020E00E9480
:101F90001B0F60ED77E080E090E00E94113BF801BC
:101FA00080810E94090FF80181918F0160E040E07B
:101FB00020E00E94430FC830D10519F668EC70E0AC
:101FC00080E090E00E94113B86E99BE06FE479E0BD
:101FD0000E941F4484ED90E169E579E00E9422446B
:101FE000DF91CF911F910F9108954F925F926F9261
:101FF0007F928F929F92AF92BF92CF92DF92EF9299
:10200000FF920F931F93DF93CF93CDB7DEB7CA54E0
:10201000D0400FB6F894DEBF0FBECDBF80916D0DDE
:1020200090916E0D8430910509F434C1853091058D
:102030003CF48230910581F0039709F07EC407C11A
:102040008630910509F41EC2863091050CF427C133
:10205000079709F072C40BC30E94DF2DDE01AB5B52
:10206000BF4F2C93FE01EA5BFF4F3083FE01E95B1B
:10207000FF4F4083FE01E85BFF4F5083FE01E75BAB
:10208000FF4F6083FE01E65BFF4F70839E01275F79
:102090003F4FFD0186E00190D9010D929D018150D5
:1020A000D1F7BE84CD84DC84EB84FA84098586E98B
:1020B0009BE060E00E94563784ED90E161EB79E0AF
:1020C0000E941F4410E00053184F84ED90E1B801C6
:1020D0004AE050E00E946D4384ED90E16FE20E947F
:1020E000A24284ED90E16F2D4AE050E00E949B43B4
:1020F00084ED90E16FE20E94A24284ED90E16E2DAA
:102100004AE050E00E949B4384ED90E160E20E942F
:10211000A24284ED90E16D2D4AE050E00E949B4385
:1021200084ED90E16AE30E94A24284ED90E16C2D7F
:102130004AE050E00E949B4384ED90E16AE30E94F4
:10214000A24284ED90E16B2D4AE050E00E949B4357
:1021500086E99BE060E041E00E941F3786E99BE052
:10216000B8014AE050E00E946D4386E99BE06FE2CF
:102170000E94A24286E99BE06F2D4AE050E00E9457
:102180009B4386E99BE06FE20E94A24286E99BE0C6
:102190006E2D4AE050E00E949B4386E99BE060E29E
:1021A0000E94A24286E99BE06D2D4AE050E00E9429
:1021B0009B4386E99BE06AE30E94A24286E99BE09A
:1021C0006C2D4AE050E00E949B4386E99BE06AE365
:1021D0000E94A24286E99BE06B2D4AE050E00E94FB
:1021E0009B4384E99BE0BE016D5F7F4FAE014F5F73
:1021F0005F4F0E94662F882309F184ED90E168EC1F
:1022000079E00E941F446B817C8184ED90E14AE07B
:1022100050E00E947E434091700D5091710D2B81D2
:102220003C8109811A8184E99BE060916F0DB5E0E2
:10223000EB2EF12CEC0EFD1E0E9450308B819C8108
:102240008C52914008F079C386E090E072C384ED2F
:1022500090E161ED79E00E94224484E99BE00E94D4
:10226000B52E84E00E949B380E94CB0686E99BE055
:1022700061E00E94563786E99BE060E040E00E9402
:102280001F3786E99BE06EE775E00E941F4484E0FB
:1022900090E04FC30E9491050E944F024EC384ED0F
:1022A00090E162E07AE00E9422440E94DF2DDE018C
:1022B000AB5BBF4F2C93FE01EA5BFF4F3083FE0107
:1022C000E95BFF4F4083FE01E85BFF4F5083FE0157
:1022D000E75BFF4F6083FE01E65BFF4F70839E016B
:1022E000275F3F4FFD0186E00190D9010D929D01CE
:1022F0008150D1F781E59EE00E94CC1981E59EE0F6
:1023000065E34FEF2FEF0FEF0E94121CCE010F96E7
:1023100061E57EE046E557E023E10E94ED1A8989F8
:102320009A899093F90B8093F80B8B899C89AD89DE
:10233000BE898093FA0B9093FB0BA093FC0BB09398
:10234000FD0B8F89988DA98DBA8D8093FE0B90938C
:10235000FF0BA093000CB093010CA2E0BCE0FE01C7
:102360007B968DE001900D928150E1F788A599A5AB
:102370009093100C80930F0CCE010F960E9483183F
:10238000698570E06053784F86EF9BE04AE050E04B
:102390000E946D4386EF9BE06FE20E94A24286EFAF
:1023A0009BE06A854AE050E00E949B4386EF9BE0F9
:1023B0006FE20E94A24286EF9BE06B854AE050E00C
:1023C0000E949B4386EF9BE060E20E94A24286EF60
:1023D0009BE06C854AE050E00E949B4386EF9BE0C7
:1023E0006AE30E94A24286EF9BE06D854AE050E0DE
:1023F0000E949B4386EF9BE06AE30E94A24286EF25
:102400009BE06E854AE050E00E949B4386EF9BE094
:1024100065E27AE00E941F4486EF9BE060E47AE088
:102420000E941F446091690D70916A0D86EF9BE0D8
:102430004AE050E00E94ED4386EF9BE060E47AE0E2
:102440000E941F4460916B0D70916C0D86EF9BE0B4
:102450004AE050E00E94004486EF9BE00E94E418AE
:1024600086EF9BE00E94D21881E59EE00E94CC1985
:1024700084E068EC72E041E050E00E941F3882E0A6
:1024800090E057C284ED90E162E47AE00E94224439
:102490000E94DF2DDE01AB5BBF4F2C93FE01EA5B98
:1024A000FF4F3083FE01E95BFF4F4083FE01E85B95
:1024B000FF4F5083FE01E75BFF4F6083FE01E65B49
:1024C000FF4F70839E01275F3F4FFD0186E0019023
:1024D000D9010D929D018150D1F781E59EE00E94C6
:1024E000CC1981E59EE065E34FEF2FEF0FEF0E94DF
:1024F000121CCE018A9661E57EE046E557E023E1B5
:102500000E94ED1A8CA59DA59093F90B8093F80B72
:102510008EA59FA5A8A9B9A98093FA0B9093FB0B50
:10252000A093FC0BB093FD0B8AA99BA9ACA9BDA9F4
:102530008093FE0B9093FF0BA093000CB093010CC3
:10254000A2E0BCE0FE01F6968DE001900D92815074
:10255000E1F7FE01ED5BFF4F808191819093100CBC
:1025600080930F0CCE018A960E948318698570E0D3
:102570006053784F86EF9BE04AE050E00E946D4345
:1025800086EF9BE06FE20E94A24286EF9BE06A85A5
:102590004AE050E00E949B4386EF9BE06FE20E947E
:1025A000A24286EF9BE06B854AE050E00E949B438D
:1025B00086EF9BE060E20E94A24286EF9BE06C8582
:1025C0004AE050E00E949B4386EF9BE06AE30E9452
:1025D000A24286EF9BE06D854AE050E00E949B435B
:1025E00086EF9BE06AE30E94A24286EF9BE06E8545
:1025F0004AE050E00E949B4386EF9BE06AE97AE064
:102600000E941F4486EF9BE065E27AE00E941F442F
:1026100086EF9BE060E47AE00E941F446091690DC0
:1026200070916A0D86EF9BE04AE050E00E94ED4316
:1026300086EF9BE060E47AE00E941F4460916B0D9E
:1026400070916C0D86EF9BE04AE050E00E940044E0
:1026500086EF9BE00E94E41886EF9BE00E94D21870
:1026600081E59EE00E94CC1987E090E062C184E0A1
:1026700068EC72E041E050E00E941F3884ED90E188
:102680006FEB7AE00E94224460E070E080E090E02E
:1026900023E130E040E050E00E945E445B016C01C9
:1026A0008091690D90916A0D83309105D9F0813048
:1026B000910531F4ADE0AA2EB12CC12CD12C17C05C
:1026C0008230910579F0049791F460E070E080E049
:1026D00090E023E130E040E050E00E945E445B0186
:1026E0006C0105C0F5E0AF2EB12CC12CD12C60E0FF
:1026F00070E080E090E02BE030E040E050E00E94AD
:102700005E442B0164EF71E080E090E020ED37E063
:1027100040E050E00E945E443B014C018CE00E948E
:102720005F3C019749F560E070E080E090E022E3D3
:1027300030E040E050E00E945E446A307105E4F40D
:1027400061E070E080E090E02CED35E040E050E0AA
:102750000E945E447B018C0186E161E00E942C3C7A
:102760000027F7FC0095102FC801B7010E94113B0C
:1027700086E160E00E942C3C88E20E945F3C019769
:1027800009F044C08091340B8823E9F11092340B96
:1027900084ED90E16EED7AE00E94224484ED90E1B8
:1027A00062EE7AE00E941F440E94973A28EE33E0DE
:1027B00040E050E00E94F54784ED90E1BA01A901A4
:1027C0002AE030E00E945E4384ED90E166EF7AE01B
:1027D0000E94224462E370E080E090E00E94113B9E
:1027E00086E99BE061E00E9456370E94CB0686E9AD
:1027F0009BE060E042E00E941F3786E99BE06BEFC0
:102800007AE00E941F4481E08093900D88E20E944C
:102810005F3C892B09F061C08091900D882361F0A5
:102820000E94973A60938C0D70938D0D80938E0D5E
:1028300090938F0D1092900D8091340B882309F0A6
:102840004CC00E94973A20918C0D30918D0D409193
:102850008E0D50918F0D621B730B840B950B209185
:10286000300B3091310B4091320B5091330B2617C6
:1028700037074807590788F581E08093340B84EDCA
:1028800090E16CE07BE00E941F440E94973A209107
:10289000300B3091310B4091320B5091330B621B56
:1028A000730B840B950B28EE33E040E050E00E9460
:1028B000F54784ED90E1BA01A9012AE030E00E94D9
:1028C0005E4384ED90E166EF7AE00E94224462E389
:1028D00070E080E090E00E94113B82010C5D144F9B
:1028E000F80180816A2D40E020E00E941B0FC401A6
:1028F000B3010E94113BD8018C910E94090FF8018D
:10290000808160E040E020E00E94430F84E99BE08A
:10291000BE016F5F7F4FAE014D5F5F4F0E94662F1C
:10292000882359F089819A818D52914030F085E059
:1029300090E090936E0D80936D0DC65BDF4F0FB6E8
:10294000F894DEBF0FBECDBFCF91DF911F910F91E5
:10295000FF90EF90DF90CF90BF90AF909F908F90BF
:102960007F906F905F904F90089584ED90E140E0EC
:102970005BE460E070E00E9403400E94080D0E944A
:10298000350E0E946B0F0E94C20D0E94C90A0E9460
:102990002E0D0E946F0C0E942A0C0E9411080E94AA
:1029A000EA0E84E068EC72E041E050E00E941F38DB
:1029B00082E090E090936E0D80936D0D089581E01C
:1029C0008093D60D6093B30D1092D40D1092D50D57
:1029D000089581E08093D60D6093B30D1092D40DCD
:1029E0001092D50D08952091B20D30E08091B10D77
:1029F000281B3109C90108954091B10D8091B20D94
:102A0000481718F02FEF3FEF0AC0E42FF0E0EF5621
:102A1000F24F8081282F30E04F5F4093B10DC90104
:102A20000895E091B10D8091B20DE81718F0EFEF25
:102A3000FFEF06C0F0E0EF56F24F8081E82FF0E0A4
:102A4000CF01089508951092DA0D1092D90D88EEF5
:102A500093E0A0E0B0E08093DB0D9093DC0DA093B9
:102A6000DD0DB093DE0D83E49BE09093D80D809351
:102A7000D70D0895CF92DF92EF92FF920F931F939D
:102A8000CF93DF937C016B018A018091D60D88235F
:102A9000A1F0C0E0D0E00DC0D701ED91FC91D601CE
:102AA000AC0FBD1F0190F081E02DC7016C9119950D
:102AB0002196C017D10780F304C0CB01642F0E9478
:102AC0006C16C801DF91CF911F910F91FF90EF908D
:102AD000DF90CF900895DF93CF930F92CDB7DEB7FD
:102AE000FC0169838091D60D8823C9F08091D50DB2
:102AF000803238F081E090E09383828320E030E000
:102B000015C08091D40DE82FF0E0EC54F24F99817C
:102B100090838F5F8093D40D8093D50D05C0CE0137
:102B2000019661E00E946C1621E030E0C9010F902F
:102B3000CF91DF9108950F93062F8091B30D64EB31
:102B40007DE04091D50D21E00E9417161092D40D22
:102B50001092D50D1092D60D0F91089561E00E944C
:102B60009B150895413208F040E2862F61E97DE02F
:102B70000E94CE151092B10D8093B20D089521E000
:102B80000E94B21508951092B10D1092B20D1092DC
:102B9000D40D1092D50D0E941C180895382F413283
:102BA00010F040E042C08091E30D8823E1F791E00E
:102BB0009093E30D2093E50D8FEF8093500E1092CC
:102BC0000B0E415040930C0E4F5F9093E40D80919B
:102BD000E40D330F832B8093E40D8091E60D81305B
:102BE00041F41092E60D8091E40D8093BB0085ECDA
:102BF00001C085EE8093BC008091E30D8130E1F34C
:102C000080910B0E841710F440910B0E20E030E001
:102C10000AC0FB01E20FF31FD901A551B24F8C91FD
:102C200080832F5F3F4F2417A0F3842F08950F93C5
:102C30001F93582F122F413210F081E04AC080912B
:102C4000E30D8823E1F782E08093E30D0093E50D27
:102C50008FEF8093500E10920B0E40930C0EABEE44
:102C6000BDE0FB0102C081918D938E2F861B8417DE
:102C7000D0F31092E40D8091E40D550F852B8093D5
:102C8000E40D8091E60D813041F41092E60D8091C3
:102C9000E40D8093BB0085EC01C085EE8093BC0001
:102CA000112321F08091E30D8230E1F38091500EE9
:102CB0008F3F11F480E00DC08091500E803211F4EE
:102CC00082E007C08091500E803311F084E001C093
:102CD00083E01F910F910895482F613210F081E039
:102CE00008958091E30D843011F082E0089560939F
:102CF0002E0EADE0BEE0842F9C01F90102C081914F
:102D00008D938E2F841B8617D0F380E008951F9239
:102D10000F920FB60F920BB60F9211242F933F9381
:102D20004F935F936F937F938F939F93AF93BF93D3
:102D3000EF93FF938091B90090E0887F9070803688
:102D4000910509F4F2C081369105CCF588329105E0
:102D500009F47BC089329105B4F48031910509F4FE
:102D60006FC0813191053CF4009709F447C1089781
:102D700009F04FC165C08831910509F466C080979C
:102D800009F047C182C08034910509F4A4C08134A0
:102D9000910544F48033910509F482C0C89709F085
:102DA00038C189C08035910509F489C088359105FD
:102DB00009F496C08834910509F02BC1AEC088395A
:102DC000910509F413C189399105ECF4883791050F
:102DD00009F4ABC0893791054CF48836910509F4A4
:102DE000A4C08037910509F014C19FC088389105AF
:102DF00009F4FCC08039910509F49DC08038910523
:102E000009F007C198C0803B910509F4C6C0813B19
:102E100091054CF4803A910509F49FC0883A9105D8
:102E200009F0F7C0BAC0803C910509F4E3C0883CC2
:102E3000910509F4DFC0883B910509F0EAC0C2C0E2
:102E40008091E40D8093BB00CFC090910B0E8091D8
:102E50000C0E981768F490910B0EE92FF0E0E551F5
:102E6000F24F80818093BB009F5F90930B0EBCC09C
:102E70008091E50D882309F44BC085ED8093BC005B
:102E80008091BC0084FDFCCFC2C080E28093500ED4
:102E900085ED8093BC008091BC0084FDFCCFB7C061
:102EA00080E38093500E85ED8093BC008091BC0040
:102EB00084FDFCCFACC088E38093500E9BC0809112
:102EC0000B0E9091BB00E82FF0E0E551F24F90839C
:102ED0008F5F80930B0E90910B0E80910C0E82C031
:102EE00080910B0E9091BB00E82FF0E0E551F24F7E
:102EF00090838F5F80930B0E8091E50D882341F0C6
:102F000085ED8093BC008091BC0084FDFCCF7FC028
:102F100081E08093E60D84EA6EC085ED8093BC006D
:102F20008091BC0084FDFCCF72C083E08093E30DF0
:102F300010924F0E59C080914F0E803208F056C04B
:102F400080914F0E9091BB00E82FF0E0E15DF14FD2
:102F500090838F5F80934F0E47C080914F0E8032D9
:102F600030F4E0914F0EF0E0E15DF14F108285ED1D
:102F70008093BC008091BC0084FDFCCF1092E30DD7
:102F800060914F0EE091E90DF091EA0D8FE29EE025
:102F900070E0199510924F0E2DC084E08093E30DE0
:102FA00010922D0E10922E0EE091E70DF091E80D8B
:102FB000199580912E0E882329F481E080932E0E9E
:102FC00010920D0E90912D0EE92FF0E0E35FF14F7E
:102FD00080818093BB009F5F90932D0E90912D0E6A
:102FE00080912E0E981710F485EC01C085E880932F
:102FF000BC000FC085EC8093BC0009C01092500E3D
:1030000085ED8093BC008091BC0084FDFCCF1092C4
:10301000E30DFF91EF91BF91AF919F918F917F91C0
:103020006F915F914F913F912F910F900BBE0F9039
:103030000FBE0F901F9018951092E30D81E08093C2
:10304000E50D1092E60D84E161E00E942C3C85E1E3
:1030500061E00E942C3CE9EBF0E080818E7F808370
:1030600080818D7F808388E48093B80085E480939D
:10307000BC000895882319F48CB5806202C08CB519
:103080008F7D8CBD08959CB5937F982B9CBD089532
:103090002CB5382F33702C7F322B3CBD2DB590E0F2
:1030A000959587959595879581702E7F822B8DBDFF
:1030B000089585E361E00E942C3C85E361E00E9475
:1030C000793B8CB580618CBD8CB580648CBD84E30C
:1030D00061E00E94793B83E361E00E94793B0895BF
:1030E000FC011382128288EE93E0A0E0B0E08483BA
:1030F0009583A683B78383E59BE091838083128EBB
:10310000118E14860895FC0183E59BE091838083F2
:103110000895DF93CF930F92CDB7DEB7FC0169839B
:10312000A081B18112962D913C911397BE016F5FE2
:103130007F4F41E050E0F90119950F90CF91DF9159
:103140000895DC015996ED91FC915A97309719F446
:1031500020E030E018C0238934894589568982856A
:103160009385A485B585281B390B4A0B5B0B203052
:10317000B0E83B07B0E04B07B0E05B0720F02FEF73
:103180003FE740E050E0C9010895DC015996ED9118
:10319000FC915A97309711F480E008958581811150
:1031A00081E00895CF93DF93EC01898D9A8D00978C
:1031B00041F00E947A21898D9A8D0E946E3D1A8E6F
:1031C000198EDF91CF910895FC01818D928D00972A
:1031D00011F00E9430210895FC01818D928D00979D
:1031E00019F420E030E003C00E9451229C01C90183
:1031F0000895DF93CF930F92CDB7DEB7FC01818D99
:10320000928D009749F0BE016F5F7F4F41E050E023
:103210000E945122019719F02FEF3FEF03C08981DF
:10322000282F30E0C9010F90CF91DF910895EF92E0
:10323000FF920F931F93DF93CF930F92CDB7DEB71B
:103240007C01DC0159968D919C915A97009719F455
:1032500000E010E01FC0BE016F5F7F4F41E050E013
:103260000E945122019719F00FEF1FEF13C08981BF
:10327000082F10E0D7015996ED91FC915A9742859D
:103280005385648575854150504060407040CF0142
:103290000E946A20C8010F90CF91DF911F910F917A
:1032A000FF90EF900895CF93DF93EC01E98DFA8DB5
:1032B000309761F013821282CF010E9496249C0104
:1032C000E98DFA8D82819381892B31F081E090E044
:1032D0009B838A8320E030E0C901DF91CF9108957C
:1032E000EF92FF920F931F93CF93DF93EC01F62E93
:1032F000E72E8A011B821A8288EE93E0A0E0B0E0FC
:103300008C839D83AE83BF8383E59BE09983888311
:103310008DE190E00E94D13C9A8F898F009791F0C7
:10332000DC018F2D9E2D9C01F9018DE101900D9204
:103330008150E1F7CE010C96B8014CE050E00E94BC
:103340002202188EDF91CF911F910F91FF90EF9085
:1033500008951092560E1092570E10925A0E109217
:103360005C0E82E090E0A0E0B0E080935E0E90936F
:103370005F0EA093600EB093610E1092750E1092C6
:103380007F0E10927E0E83E69BE090937D0E8093DD
:103390007C0E1092810E08958B960E947A210895DA
:1033A0002F923F924F925F926F927F928F929F9255
:1033B000AF92BF92CF92DF92EF92FF920F931F9343
:1033C000DF93CF93CDB7DEB7C754D0400FB6F89494
:1033D000DEBF0FBECDBF582E492EFB013A011901A9
:1033E00085A596A5998B888B23E63BE03F872E87A2
:1033F00087A58A8B80A98B8B81A992A9A3A9B4A93F
:103400008C8B9D8BAE8BBF8B85A996A9A7A9B0ADE0
:10341000888F998FAA8FBB8F81AD92ADA3ADB4ADCC
:103420008C8F9D8FAE8FBF8F85AD88A3FE968191C7
:103430009191A191B19189A39AA3ABA3BCA38191CE
:103440009191A191B1918DA39EA3AFA3B8A78081C3
:1034500091819AA789A71EA61DA63CA72BA718AAEB
:103460007A018E01025F1F4F3BE2A32EB12CAC0EFE
:10347000BD1E4E010894811C911C35C0D7018C9152
:103480008F3221F40894E11CF11C2DC0422F4E19FB
:103490004D3008F04CE0C42EDD24C401B701A60174
:1034A0000E942202F401EC0DFD1D1082C5010E9454
:1034B0007A21C501B801A40121E00E94C226882317
:1034C00051F4E52DF42D1382128283E69BE0918363
:1034D0008083158266C0EC0CFD1CC8010E947A2115
:1034E000C50158018C01C7016FE270E00E9417020C
:1034F0009C01009719F6E618F708F101F182E082C5
:10350000E52DF42DD80112968D919C9113979383FC
:10351000828383E69BE09183808314968C91149739
:10352000848315968C911597858316962D913D91E0
:103530004D915C91199726833783408751871A965E
:103540002D913D914D915C911D9722873387448742
:1035500055871E962D913D914D915C9151972687EF
:103560003787408B518B52968C915297828B539612
:103570002D913D914D915C915697238B348B458BCA
:10358000568B57962D913D914D915C915A97278B73
:10359000308F418F528F5B968D919C915C97948F69
:1035A000838F852D942DC95BDF4F0FB6F894DEBF56
:1035B0000FBECDBFCF91DF911F910F91FF90EF9084
:1035C000DF90CF90BF90AF909F908F907F906F9043
:1035D0005F904F903F902F9008959F92AF92BF922F
:1035E000CF92DF92EF92FF920F931F93DF93CF93CF
:1035F000CDB7DEB7C657D0400FB6F894DEBF0FBECA
:10360000CDBFC82E992E8A01D22E43E0A42EB12C14
:10361000AC0EBD1EC501A8019E012F5F3F4F0E9449
:10362000D019E980FA80E00EF11EF701808143E6AF
:103630005BE02885882309F03FC08D819E819BA394
:103640008AA359A348A38F818CA32DA389859A852A
:10365000AB85BC858EA39FA3A8A7B9A78D859E85A2
:10366000AF85B8898AA79BA7ACA7BDA789899A8986
:10367000AB89BC898EA79FA7A8ABB9AB8D898AAB54
:103680008E899F89A88DB98D8BAB9CABADABBEAB42
:103690008A8D9B8DAC8DBD8D8FAB98AFA9AFBAAF26
:1036A0008E8D9F8D9CAF8BAF8C2D992DBE01605E52
:1036B0007F4F4DE15BE09FC0FE01FF9611821082BB
:1036C0005EAF4DAFFE01EE5BFF4F10822223A9F0EB
:1036D0002250CE01CD96223048F46CE77EE0A7015F
:1036E0002D2D0E94C226882381F407C0B501A701B1
:1036F0002D2D0E94C226882329F48C2D992D0E94FD
:1037000070187BC0C5010E947A21F6E0DF2259F0D3
:10371000FE01E05BFF4F4081518162817381CE01E8
:10372000CD960E946A209E01265A3F4FFE01FF96C9
:1037300080819181F9019383828383E69BE0918369
:103740008083FE01EF5BFF4F8081F9018483FE01DE
:10375000EE5BFF4F8081F9018583FE01ED5BFF4F3A
:1037600080819181A281B381F90186839783A087AB
:10377000B187FE01E95BFF4F80819181A281B38116
:10378000F90182879387A487B587FE01E55BFF4F28
:1037900080819181A281B381F90186879787A08B6F
:1037A000B18BFE01E15BFF4F8081F901828BFE014D
:1037B000E05BFF4F80819181A281B381F901838B0E
:1037C000948BA58BB68BFE01EC5AFF4F80819181C3
:1037D000A281B381F901878B908FA18FB28FFE01F7
:1037E000E85AFF4F80819181F901948F838F8C2D4E
:1037F000992DB901A7010E9470198C2D992DCA58D5
:10380000DF4F0FB6F894DEBF0FBECDBFCF91DF9173
:103810001F910F91FF90EF90DF90CF90BF90AF90EE
:103820009F900895EF920F931F93CF93DF93EC0136
:10383000362F542F722FE02E61E0432F252F072FB4
:103840000E94051F8823D1F08E01035F1F4FC8011E
:10385000BE0141E00E946328882339F4C801BE01FB
:1038600040E00E946328882349F0CE018B96B8017E
:103870000E94B023882319F081E001C080E0DF912D
:10388000CF911F910F91EF900895382F80919B0E4B
:103890008F3F31F43EBD0DB407FEFDCF8EB50895C8
:1038A000F894A0919C0EB0919D0E50919E0E252FE4
:1038B0002095E0919F0EF091A00E4091A10E642FF3
:1038C000609590E08C9182238C9337FF03C08081B8
:1038D000842B02C08081862380838C91852B8C93DE
:1038E0009F5F983011F0330FEDCF00000000000013
:1038F00000008C9128232C937894089580919B0E3E
:103900008F3F31F48EBD0DB407FEFDCF2EB530C014
:10391000F894E0919F0EF091A00E80819091A10EFD
:10392000892B8083E0919C0EF0919D0E60919E0EFC
:10393000A091A20EB091A30E8091A40E482F50E04A
:10394000762F709530E020E08081862B8083220FD7
:103950008C9190E084239523892B09F0216080814C
:1039600087238083000000003F5F383069F7789438
:10397000822F08950F931F93CF93DF938B010E94A3
:10398000973AEB010E947E1C8F3F11F481E008C042
:103990000E94973A6C1B7D0B6017710798F380E0CB
:1039A000DF91CF911F910F910895FC01673020F0B6
:1039B00086E1858380E008956330B9F0643028F4AF
:1039C000613069F0623070F407C06530A1F0653095
:1039D00078F06630A9F412C084E090E011C080E075
:1039E00090E00EC085E090E00BC081E090E008C060
:1039F00086E090E005C082E090E002C083E090E0C5
:103A00000E94481881E00895FC01848160E00E94D2
:103A10002C3C0895FC01848161E00E942C3C0895B7
:103A2000CF92DF92EF92FF920F931F93CF93DF938A
:103A30007C016A01FC018485882319F40FEF1FEFD4
:103A400030C000E010E040E050E0212F332727FD98
:103A50003A95F601E40FF51F808190E02827392779
:103A60003070C901F4E095958795FA95E1F78227C2
:103A70009327102F0027082719279C01322F222770
:103A80003295307F0227132725E0880F991F2A954A
:103A9000E1F7082719274F5F5F4FF2E040305F07DB
:103AA000A1F6862F0E94451CC0E0D0E0F601EC0F85
:103AB000FD1F80810E94451C219682E0C030D807FE
:103AC000A9F7812F992787FD9A950E94451C802F81
:103AD0000E94451C0E947E1CF70182878F718530F1
:103AE00011F481E007C081E1F7018583C7010E94DD
:103AF0000A1D80E0DF91CF911F910F91FF90EF9011
:103B0000DF90CF9008950F931F93CF93DF93EC0135
:103B10000E94973A8B0109C00E94973A601B710B73
:103B20006D52714010F08FE00AC00E947E1C8A879F
:103B30008F3F91F38E3F11F481E006C08DE08D83BD
:103B4000CE010E940A1D80E0DF91CF911F910F915D
:103B50000895CF93DF93EC018E81882319F40FC071
:103B60000E947E1C8F819885019698878F8301978C
:103B700082509240A8F3CE010E940A1D1E82DF915E
:103B8000CF910895DF92EF92FF920F931F93CF93FF
:103B9000DF93EC01D62E79018A010E94A91DCE0186
:103BA0000E94041DCE016CE271E00E94BA1C8D2DB2
:103BB00080640E94451C812F9927AA27BB270E9459
:103BC000451CC801AA27BB270E94451CBB27A12F63
:103BD000902F8F2D0E94451C8E2D0E94451CDD20AC
:103BE00011F485E906C088E0D81611F487E801C011
:103BF0008FEF0E94451C10E00E947E1C8A8787FF81
:103C000002C01150C9F7DF91CF911F910F91FF9022
:103C1000EF90DF900895CF92DF92EF92FF920F9393
:103C20001F93CF93DF93EC017A018B01690141155A
:103C300051056105710511F482E133C08B85833034
:103C400039F039E0EE0CFF1C001F111F3A95D1F737
:103C5000CE0168E1A80197010E94C21D882311F0DE
:103C600084E01FC0CE016EEFA6010E94101D8823C4
:103C7000C9F0CE0168E572E00E94BA1C882311F4F5
:103C800085E10FC0CE016DE020E030E040E050E083
:103C90000E94C21D882321F40E947E1C882379F093
:103CA00084E18D83CE010E940A1D80E0DF91CF91D7
:103CB0001F910F91FF90EF90DF90CF900895CE016C
:103CC0000E940A1D81E0F2CF6F927F928F929F92A5
:103CD000AF92BF92CF92DF92EF92FF920F931F931A
:103CE000CF93DF93EC015A016B01390148010115B3
:103CF000110509F46AC0C801820F931F81509240D8
:103D000008F05EC08E81882371F088819981AA8134
:103D1000BB81481759076A077B0729F48F8198856B
:103D20006816790650F5A882B982CA82DB828B8533
:103D3000833039F0E9E0AA0CBB1CCC1CDD1CEA95F1
:103D4000D1F7CE0161E1A60195010E94C21D882331
:103D500019F083E08D8334C0CE010E94831D882337
:103D600079F118861F8281E08E8307C00E947E1C35
:103D70008F819885019698878F838F819885861586
:103D80009705A0F300E010E008C00E947E1CF70138
:103D9000E00FF11F80830F5F1F4F08151905A8F36F
:103DA0002F813885280D391D38872F8389858823F1
:103DB00019F02050324048F0CE010E94A91D05C0E4
:103DC000CE010E940A1D80E001C081E0DF91CF9109
:103DD0001F910F91FF90EF90DF90CF90BF90AF9029
:103DE0009F908F907F906F900895EF92FF920F9326
:103DF0001F93790120E030E000E012E00E94641E91
:103E00001F910F91FF90EF900895BF92CF92DF9294
:103E1000EF92FF920F931F93CF93DF93EC01B62E97
:103E20001E2D1B8619861E821D821C864C832093A4
:103E3000A50E0093A60EE0929B0E0E94973A6B018E
:103E40008C8161E00E94793BCE010E940A1D1F3FD8
:103E500009F462C08091A60E60E00E94793B8091D7
:103E6000A50E61E00E94793B80919B0E61E00E946B
:103E7000793BE0919B0E2E2F332727FD3095F901DA
:103E8000E95EFD4FE491F0E0EE0FFF1FED51FE4FB4
:103E90008591949190939D0E80939C0E235A3D4F53
:103EA000F901849180939E0EE091A50E2E2F332769
:103EB00027FD3095F901E95EFD4FE491F0E0EE0F4A
:103EC000FF1FED51FE4F859194919093A00E80932A
:103ED0009F0E235A3D4FF90184918093A10EE091EA
:103EE000A60E2E2F332727FD3095F901E95EFD4FF1
:103EF000E491F0E0EE0FFF1FE350FE4F85919491A7
:103F00009093A30E8093A20E235A3D4FF901849102
:103F10008093A40E10E006C00E94591883E00E940E
:103F20004818F8CF8FEF0E94451C1F5F1A30D1F759
:103F3000CE010E94041D09C00E94973A6C197D09A8
:103F4000615D774010F081E05AC0CE0160E020E072
:103F500030E040E050E00E94C21D182F8A87813077
:103F600059F7CE0168E02AEA31E040E050E00E94D3
:103F7000C21D82FF02C01B870DC010E00E947E1C84
:103F80008A871F5F1430D1F78A3A11F082E037C078
:103F900082E08B878B85823021F0EE24FF2487011D
:103FA0000FC0E12CF12C012DF0E41F2F09C00E945D
:103FB000973A6C197D09615D774010F088E01FC069
:103FC000CE0167E320E030E040E050E00E94C21DF7
:103FD000CE0169E2A80197010E94C21D8A87882349
:103FE00031F78B858230F1F4CE016AE320E030E0D6
:103FF00040E050E00E94C21D882339F086E08D83A6
:10400000CE010E940A1D80E01AC00E947E1C807CA6
:10401000803C11F483E08B870E947E1C0E947E1CF2
:104020000E947E1CCE010E940A1D80919B0E8F3F34
:1040300011F081E004C0CE016B2D0E94D51CDF91F0
:10404000CF911F910F91FF90EF90DF90CF90BF9095
:104050000895CF93DF93EC01DB0180E090E020E254
:10406000FD01E80FF91F208301968B309105C1F700
:1040700057E040E021C02E3219F08DEA91E007C0F0
:104080005A3019F15AE048E017C03217F1F0FC013C
:10409000019634913323C9F75417B8F02132A8F0B0
:1040A0002F3798F4822F81568A3108F42052FD016F
:1040B000E40FF11D20834F5F29912223E1F690E068
:1040C0008C91803219F091E001C090E0892FDF914E
:1040D000CF9108956F927F928F929F92AF92BF92ED
:1040E000CF92DF92EF92FF920F931F93CF93DF93C4
:1040F000EC017A018B012D81222309F480C08B8988
:104100009C89AD89BE8984179507A607B70708F46F
:1041100076C085C0E114F1040105110549F41E8241
:104120001F82188619861A861B861C861D8665C006
:104130002A853B854C855D85EB8DFC8D858590E0E2
:104140000996215030404040504039014A01082E24
:1041500004C096948794779467940A94D2F72F5F5B
:104160003F4F4F4F5F4F0894E108F10801091109D3
:104170005701680104C0D694C794B794A7948A9550
:10418000D2F70894E11CF11C011D111DA614B704FF
:10419000C804D90428F0211531054105510549F419
:1041A0008F89988DA98DBA8D8E839F83A887B987B3
:1041B00016C0A618B708C808D90811C04E815F817B
:1041C000688579858B8D9C8D94010E94442A089482
:1041D000A108B108C108D108882331F410C086E0D5
:1041E000882E912C8C0E9D1EA114B104C104D10403
:1041F00029F7EA86FB860C871D8781E001C080E0F5
:10420000DF91CF911F910F91FF90EF90DF90CF90B2
:10421000BF90AF909F908F907F906F9008952230C5
:1042200009F078CFE6CFCF93DF93EC01462F6E8570
:104230007F85888999890E942828882319F420E09D
:1042400030E00AC08A89282F30E095E0220F331F22
:104250009A95E1F72755314FC901DF91CF91089524
:104260000F931F93CF93DF938C01FC0185818823EB
:10427000D9F1848187FF35C0C80161E00E94132114
:10428000EC01009789F1F8018581823040F483893F
:104290009489A589B6898C8F9D8FAE8FBF8FF801C9
:1042A0008789908D9B8F8A8F8789908DA18DB28D04
:1042B000CD01AA27BB279D8B8C8BE091A70EF09197
:1042C000A80E309751F0BE016A5E7F4FCE0148962E
:1042D0001995888D998D9B8B8A8BF80184818F77B6
:1042E00084830E94C92701C080E0DF91CF911F9194
:1042F0000F910895CF93DF93EC010E943021882322
:1043000011F01D8281E0DF91CF9108956F927F922D
:104310008F929F92AF92BF92CF92DF92EF92FF92D5
:104320000F931F93DF93CF9300D00F92CDB7DEB7DB
:104330007C015A016B01DC0115968C911597813037
:1043400009F08FC014968C9181FF8BC09EC000979E
:10435000A105B10511F481E085C0F7016284738481
:1043600084849584C701B601A5010E946A20882330
:1043700009F477C0D7015B968D919C915C97A1144D
:10438000B104C104D10489F457964D915D916D91AA
:104390007C915A970E94B72A882309F462C0F701DA
:1043A000178A108E118E128E3DC0D70116964D9130
:1043B0005D916D917C9119979E012F5F3F4F0E94F7
:1043C000442A882309F44DC0D7015B96ED91FC91F6
:1043D0005C9749815A816B817C818789803129F082
:1043E00088EF9FEFAFEFBFE004C088EF9FEFA0E042
:1043F000B0E0481759076A077B07A0F4CF010E9475
:10440000B72A882371F1F70146815781608571854C
:10441000838D948D0FEF1FEF2FEF3FE00E94A829AF
:104420008823F9F0D7015396AD92BD92CD92DC92DC
:10443000569714968C911497806814968C93C701A4
:104440000E943021882369F0B601A5016A147B041B
:104450008C049D0410F4B401A301C7010E946A20DA
:1044600001C080E00F900F900F900F90CF91DF91DF
:104470001F910F91FF90EF90DF90CF90BF90AF9082
:104480009F908F907F906F900895F7018389948912
:10449000A589B68984179507A607B70708F057CFEF
:1044A000E0CF2F923F924F925F926F927F928F92C6
:1044B0009F92AF92BF92CF92DF92EF92FF920F93B3
:1044C0001F93CF93DF93EC012A018D81882309F498
:1044D000C6C08C8180FFC3C0D8C025014E185F08BC
:1044E0004B0176E0272E312C2C0E3D1E3201B1C03F
:1044F0002A853B854C855D856FEFA62E61E0B62E43
:10450000A222B3228D8179018A0199E0169507953F
:10451000F794E7949A95D1F7EB8DFC8D823049F4AE
:10452000428D538D648D758D4E0D5F1D601F711F03
:104530003FC0D480DA94DE20A114B104D9F4DD2088
:10454000C9F4211531054105510549F48F89988D2C
:10455000A98DBA8D8E839F83A887B9870BC04E81A2
:104560005F8168857985CF0191010E94442A882363
:1045700009F475C0EB8DFC8D4E815F81688579856E
:104580004250504060407040058404C0440F551FA5
:10459000661F771F0A94D2F786859785A089B1890F
:1045A000480F591F6A1F7B1F4D0D511D611D711D45
:1045B00080E092E08A199B0963018615970508F44B
:1045C0006C018C8186FD06C080E0C81682E0D806AA
:1045D00009F073C08091350B9091360BA091370B89
:1045E000B091380B481759076A077B0709F465C073
:1045F0008091A9109091AA109501860174010E94E2
:10460000641E882361F18C0C9D1C12C095012755F6
:10461000314FA9014C0D5D1DD401F90102C08191FA
:104620008D93E417F507D9F7E21BF30B8E0E9F1E4F
:10463000960140E050E08A859B85AC85BD85820F60
:10464000931FA41FB51F8A879B87AC87BD876C18F3
:104650007D086114710409F04BCFA20102C04FEF35
:104660005FEFCA01DF91CF911F910F91FF90EF9003
:10467000DF90CF90BF90AF909F908F907F906F9082
:104680005F904F903F902F900895AB88BC88CD8865
:10469000DE88EA84FB840C851D859A0140E050E0A9
:1046A000D601C5018E199F09A00BB10B8217930784
:1046B000A407B50708F411CF13CFCB01BA0140E02E
:1046C0000E942828882309F0A1CFC9CFCF92DF927A
:1046D000EF92FF920F931F93DF93CF930F92CDB77B
:1046E000DEB76C01FC018581823070F0E284F384D6
:1046F00004851585C601BE016F5F7F4F41E050E024
:104700000E945122019769F020E030E0C9010F902A
:10471000CF91DF911F910F91FF90EF90DF90CF909D
:104720000895F60182859385A485B5854F96A11DD0
:10473000B11D82879387A487B587F5E01695079505
:10474000F794E794FA95D1F78E2D8F70282F30E0EB
:10475000E5E0220F331FEA95E1F72755314FD6CF19
:104760000F931F93CF93DF93EC018B018D818823EF
:1047700009F041C0FB0187898031B1F482E08D836B
:104780001F8A188E198E1A8E808D918DA0E0B0E050
:1047900045E0880F991FAA1FBB1F4A95D1F78B8B45
:1047A0009C8BAD8BBE8B15C0803229F583E08D8349
:1047B000FB01428D538D648D758D4F8B588F698FA2
:1047C0007A8F9E012D5E3F4FC8010E94102B8823D7
:1047D00091F01C8F0B8F81E08C831E821F821886C4
:1047E00019861A861B861C861D861E861F86188AB9
:1047F000198A1A8A01C080E0DF91CF911F910F9131
:1048000008951F93CF93DF93EC01142FE62FF0E070
:1048100075E0EE0FFF1F7A95E1F7E755F14F8385BD
:10482000817121F0842F827409F054C06A8B8091C9
:10483000350B9091360BA091370BB091380B8E87CA
:104840009F87A88BB98B84899589A0E0B0E0BC01D3
:1048500055274427828D938DA0E0B0E0482B592B3B
:104860006A2B7B2B4F8B588F698F7A8F838590E0D3
:1048700088719070009751F4848D958DA68DB78DB9
:104880008B8B9C8BAD8BBE8B81E00CC0409711F560
:104890009E012D5E3F4F8B8D9C8D0E94102B882397
:1048A000C9F084E08D83812F8F708C831E821F82DC
:1048B000188619861A861B861C861D8616FD02C060
:1048C00081E009C0CE0140E050E060E070E00E946D
:1048D000862101C080E0DF91CF911F910895CF9391
:1048E000DF93EC019C012A5F3F4F8B8D9C8D41E053
:1048F00050E060E070E00E947F2B8823A1F08F8958
:10490000988DA98DBA8D0097A105B10559F48E81B6
:104910009F81A885B9858F8B988FA98FBA8F8C813D
:1049200080688C8381E0DF91CF9108952F923F9230
:104930004F925F927F928F929F92AF92BF92CF924F
:10494000DF92EF92FF920F931F93DF93CF9300D0EC
:1049500000D0CDB7DEB76C01162F072F5E834D83D5
:10496000DC0115968C911597813009F070C1149671
:104970008C9181FF6CC18EC1F60143895489658990
:10498000768982859385A485B58584179507A607C2
:10499000B70731F0C6010E946A20882309F457C185
:1049A000812F902F9C0129012D803E8017C1D601B7
:1049B0005B96ED91FC915C97DA01C90119E0B6951F
:1049C000A795979587951A95D1F774807A94782250
:1049D0007FEF872E71E0972E82229322772009F0B5
:1049E0004EC08114910409F04AC0D60116964D912B
:1049F0005D916D917C911997411551056105710586
:104A000081F457968D919D910D90BC91A02D0097AA
:104A1000A105B10549F1F60186839783A087B18787
:104A20002EC0CF019E012F5F3F4F0E94442A882352
:104A300009F414C129813A814B815C81D6015B96CE
:104A4000ED91FC915C978789803129F088EF9FEF89
:104A5000AFEFBFE004C088EF9FEFA0E0B0E0281701
:104A600039074A075B0730F0C6010E946F2488238C
:104A700031F4EDC0F601268337834087518780E00B
:104A800092E08819990951018215930508F45C0197
:104A9000D6015B96ED91FC915C971696ED90FD909A
:104AA0000D911C9119978EEF9FEFAFEFBFEFE80EBE
:104AB000F91E0A1F1B1F058404C0EE0CFF1C001FFB
:104AC000111F0A94D2F786859785A089B189E80ECF
:104AD000F91E0A1F1B1FE70CF11C011D111D90E0A0
:104AE000A91692E0B90651F58091350B9091360BDD
:104AF000A091370BB091380B8E159F05A007B10719
:104B000061F48FEF9FEFAFEFBFEF8093350B909382
:104B1000360BA093370BB093380B8091A91090916E
:104B2000AA10B801A70192010E940B1E882309F464
:104B30008EC0A0E0B2E04A0E5B1E3EC0811491041C
:104B400009F5F60122853385448555858389948945
:104B5000A589B689281739074A075B0798F00E948C
:104B6000C927882309F473C0E092350BF092360B05
:104B70000093370B1093380B8091AB1081608093BA
:104B8000AB1008C0C801B70141E00E942828882363
:104B900009F45DC094012755314FA9014A0D5B1DF1
:104BA000D201F90102C08D918193E417F507D9F77D
:104BB000E21BF30B4E0E5F1E2A183B08950140E0E6
:104BC00050E0F60182859385A485B585820F931FF9
:104BD000A41FB51F82879387A487B587D6011A962D
:104BE0002D913D914D915C911D972114310409F057
:104BF000DECE53968D919D910D90BC91A02D821784
:104C00009307A407B50748F4F601238B348B458B33
:104C1000568B84818068848311C08091A70E909107
:104C2000A80E892B59F08D819E81892B39F0D601F0
:104C300014968C911497806814968C93F601848155
:104C400083FF0EC0C6010E943021882349F481E011
:104C500090E0D60113969C938E9312971E821D822C
:104C60008D819E8126960FB6F894DEBF0FBECDBF14
:104C7000CF91DF911F910F91FF90EF90DF90CF9038
:104C8000BF90AF909F908F907F905F904F903F909C
:104C90002F90089582FD70CE83CEDF93CF930F9235
:104CA000CDB7DEB76983BE016F5F7F4F41E050E053
:104CB0000E9496240F90CF91DF910895DF92EF929A
:104CC000FF920F931F93CF93DF93EC010E946F2409
:104CD000882309F44EC0EB8DFC8DEE80FF800885A3
:104CE00019858EEF9FEFAFEFBFEFE80EF91E0A1F99
:104CF0001B1F058404C0EE0CFF1C001F111F0A942B
:104D0000D2F786859785A089B189E80EF91E0A1F1A
:104D10001B1FD4800894E108F108010911090BC098
:104D2000C801B7016D0D711D811D911D0E940428E0
:104D30008823F9F0DA94DD2099F7EB8DFC8D20E0E3
:104D400032E040E050E0058404C0220F331F441FCE
:104D5000551F0A94D2F78B899C89AD89BE89820F31
:104D6000931FA41FB51F8B8B9C8BAD8BBE8B81E0DB
:104D700001C080E0DF91CF911F910F91FF90EF90E4
:104D8000DF9008956F927F928F929F92AF92BF9221
:104D9000CF92DF92EF92FF920F931F93DF93CF9307
:104DA000CDB7DEB72B970FB6F894DEBF0FBECDBFE1
:104DB0005C016B01822EDC0115968C91882309F031
:104DC000D2C0CA018E010F5F1F4FB8010E94292077
:104DD000882309F4C8C0F601838D948DD5015C96B3
:104DE0009C938E935B971682178210861186D6014C
:104DF0001A961D921D921D921C921D97992438019E
:104E000041C0C6010E946623FC01009709F4ABC0B3
:104E100085E016950795F794E7948A95D1F71E2DAE
:104E20001F708081882311F0853ED1F4992091F480
:104E3000D50152961C9352972091350B3091360B29
:104E40004091370B5091380B1E962D933D934D9307
:104E50005C9351978081882399F49924939421C07D
:104E6000C301BF014BE050E00E940A02009751F4D9
:104E7000882D8073803309F476C0C501612F6FC01F
:104E800099249394F601E284F3840485158583893B
:104E90009489A589B689E816F9060A071B0708F45C
:104EA000B0CF882D8271823109F05DC0992041F028
:104EB000C50161E00E9413218C01009789F453C061
:104EC000D60115968C91823009F44DC0C6010E941E
:104ED0005E26882309F447C0F501128A09EA1EE01C
:104EE00080E2D8011D928A95E9F7D801FE0131963A
:104EF0008BE001900D928150E1F7E091A70EF091C7
:104F0000A80E309739F0B801625F7F4FC801409614
:104F1000199509C081E298E2F801918B808B80E0BD
:104F200098E097878687D80150968D919C915197EC
:104F300053969C938E93529759969C938E93589721
:104F40001E968D919C911F9757969C938E93569782
:104F50000E94C927882339F0C501F5016289482DCF
:104F60000E94012401C080E02B960FB6F894DEBFAA
:104F70000FBECDBFCF91DF911F910F91FF90EF90AA
:104F8000DF90CF90BF90AF909F908F907F906F9069
:104F900008958091AB10882399F14091350B509181
:104FA000360B6091370B7091380B8091A91090915E
:104FB000AA1029EA3EE00E940B1E882319F14091B5
:104FC000AC105091AD106091AE107091AF104115C2
:104FD00051056105710591F08091A9109091AA1079
:104FE00029EA3EE00E940B1E882361F01092AC106B
:104FF0001092AD101092AE101092AF101092AB1034
:1050000081E0089580E00895EF92FF920F931F933F
:105010007B018C010E94C9278823A9F0E9EAFEE000
:10502000119280E1E93AF807D9F7E092350BF09256
:10503000360B0093370B1093380B8091AB108160C7
:105040008093AB1081E01F910F91FF90EF90089536
:10505000DF92EF92FF920F931F937B018C01D42E6E
:105060008091350B9091360BA091370BB091380B96
:105070008E159F05A007B107C1F00E94C92788239C
:10508000D9F08091A9109091AA10B801A70129EA3E
:105090003EE00E94F51E882379F0E092350BF092F5
:1050A000360B0093370B1093380B8091AB108D2982
:1050B0008093AB1081E001C080E01F910F91FF90C1
:1050C000EF90DF9008958F929F92AF92BF92CF9210
:1050D000DF92EF92FF920F931F93CF93DF936C01B8
:1050E000142F7093AA106093A910442321F48824EC
:1050F0009924540140C0453008F01CC160E070E0C4
:1051000080E090E040E00E942828882309F412C142
:10511000C12FD0E02197FE0174E0EE0FFF1F7A95BA
:10512000E1F7E755F14FE254FE4F8081EE5BF1402D
:1051300090E08F779070892B09F0FCC0E653FE4F0A
:1051400080819181A281B38184369105A105B10549
:1051500008F4F0C064E0CC0FDD1F6A95E1F7C15997
:10516000DF4E88809980AA80BB8081149104A104BD
:10517000B10409F4DFC0C501B40140E00E94282851
:10518000882309F4D7C08091B40E9091B50E805059
:10519000924009F0CFC02091B90E222309F4CAC071
:1051A0008091B70E9091B80E892B09F4C3C08091FD
:1051B000B60E882309F4BEC0F601228B8091B60E8C
:1051C0008483158661E070E007C04F5FF601458774
:1051D0004150483008F0AEC0F6014585848190E02A
:1051E0009B01042E02C0220F331F0A94E2F782179C
:1051F000930759F72091BF0E3091C00E211531054C
:1052000019F040E050E008C02091CD0E3091CE0E54
:105210004091CF0E5091D00EF601258336834783FF
:105220005087E090B70EF090B80E00E010E0E80C68
:10523000F91C0A1D1B1DE38AF48A058B168B8091CD
:10524000BA0E9091BB0E918F808F6091B90E70E075
:1052500080E090E00E94CA476E0D7F1D801F911F65
:10526000F601628F738F848F958F2091BA0E3091E3
:10527000BB0E55E0220F331F5A95E1F721503E4FE8
:10528000232F3327269540E050E0260F371F481F75
:10529000591F26873787408B518B8091BC0E909188
:1052A000BD0E009719F0A0E0B0E008C08091C90ED3
:1052B0009091CA0EA091CB0EB091CC0E85017401D5
:1052C000E21AF30A040B150BA8019701280F391FE6
:1052D0004A1F5B1FF601058404C056954795379514
:1052E00027950A94D2F72187328743875487253F31
:1052F000FFE03F07F0E04F07F0E05F0710F48CE0BD
:1053000006C0255F3F4F4040504028F480E1F60141
:10531000878B81E010C08091D50E9091D60EA09120
:10532000D70EB091D80EF601828F938FA48FB58FD0
:1053300080E2EECF80E0DF91CF911F910F91FF903F
:10534000EF90DF90CF90BF90AF909F908F90089597
:105350004F925F926F927F928F929F92AF92BF9285
:10536000CF92DF92EF92FF920F931F93CF93DF9331
:10537000EC016A017B0128013901423051056105C8
:10538000710508F46FC089859A85AB85BC85019647
:10539000A11DB11D84179507A607B70708F462C0C1
:1053A0002B893C894D895E898F89803129F4992721
:1053B0008F2D7E2D6D2D09C0C701B60117E0969582
:1053C0008795779567951A95D1F74B015C01820E09
:1053D000931EA41EB51E8091350B9091360BA091A3
:1053E000370BB091380B88169906AA06BB0639F020
:1053F000C501B40140E00E942828882399F18F89D3
:10540000803149F4F601F070EE0FFF1FE755F14FC0
:10541000518240820DC0F601EF77F070EE0FFF1F52
:10542000EE0FFF1FE755F14F408251826282738277
:105430008091AB1081608093AB108A89823080F0BC
:105440008D819E81AF81B885880E991EAA1EBB1ED4
:105450008092AC109092AD10A092AE10B092AF10AE
:1054600081E001C080E0DF91CF911F910F91FF900B
:10547000EF90DF90CF90BF90AF909F908F907F90F4
:105480006F905F904F900895CF92DF92EF92FF92CE
:105490000F931F93CF93DF93EC017A018B01690186
:1054A00089859A85AB85BC850196A11DB11D8417A0
:1054B0009507A607B70708F450C02B893C894D898A
:1054C0005E898F89803129F49927812F702F6F2D64
:1054D00009C0C801B701E7E096958795779567956C
:1054E000EA95D1F7260F371F481F591F8091350BBA
:1054F0009091360BA091370BB091380B28173907D4
:105500004A075B0739F0CA01B90140E00E94282828
:10551000882319F18F89803159F4F701F070EE0F6B
:10552000FF1FE755F14F80819181A0E0B0E00EC0F0
:10553000F701EF77F070EE0FFF1FEE0FFF1FE7553B
:10554000F14F80819181A281B381BF70F601808388
:105550009183A283B38381E001C080E0DF91CF918A
:105560001F910F91FF90EF90DF90CF900895AF9231
:10557000BF92CF92DF92EF92FF920F931F93DF9330
:10558000CF9300D00F92CDB7DEB76C017A018B01BB
:1055900082E090E0A0E0B0E0F60180839183A283F6
:1055A000B3835E010894A11CB11CC601B801A70118
:1055B00095010E94442A882319F1C601B801A70168
:1055C00000E010E020E030E00E94A8298823C1F02C
:1055D000E980FA800B811C81F6018789803129F0EE
:1055E00088EF9FEFAFEFBFE004C088EF9FEFA0E030
:1055F000B0E0E816F9060A071B07B8F281E001C01F
:1056000080E00F900F900F900F90CF91DF911F913E
:105610000F91FF90EF90DF90CF90BF90AF900895E3
:105620004F925F926F927F928F929F92AF92BF92B2
:10563000CF92DF92EF92FF920F931F93DF93CF935E
:1056400000D00F92CDB7DEB76C0149835A836B83CC
:105650007C833901EE24FF2487012E010894411C2C
:10566000511C812CA2E09A2EA12CB12C49815A8187
:105670006B817C81C60192010E94442A882351F1EA
:10568000D501C401F601058404C0880F991FAA1F23
:10569000BB1F0A94D2F7E80EF91E0A1F1B1F2981AF
:1056A0003A814B815C818789803129F088EF9FEFB7
:1056B000AFEFBFE004C088EF9FEFA0E0B0E0281795
:1056C00039074A075B0790F2F301E082F182028317
:1056D000138381E00F900F900F900F90CF91DF9187
:1056E0001F910F91FF90EF90DF90CF90BF90AF9000
:1056F0009F908F907F906F905F904F9008952F9222
:105700003F924F925F926F927F928F929F92AF9251
:10571000BF92CF92DF92EF92FF920F931F93DF938E
:10572000CF93CDB7DEB72F970FB6F894DEBF0FBE7D
:10573000CDBF1C014A875B876C877D873F872E879B
:10574000D9010D911D912D913C9101151105210556
:10575000310549F0480159010894811C911CA11C94
:10576000B11C198610C0FC0180809180A280B3809A
:1057700019868A859B85AC85BD850197A105B105F4
:1057800011F491E09987D10119968D919D910D9019
:10579000BC91A02D0196A11DB11D8D839E83AF8369
:1057A000B887750164014424552432018E010F5FCE
:1057B0001F4FF10181859285A385B485481659064E
:1057C0006A067B0608F090C08D819E81AF81B88506
:1057D0008C159D05AE05BF0550F482E0882E912CF6
:1057E000A12CB12CB2E0CB2ED12CE12CF12CC1019B
:1057F000B701A60198010E94442A882309F474C0C5
:1058000089819A81AB81BC81A70196012F5F3F4FAF
:105810004F4F5F4F0097A105B10519F049015A019B
:105820000DC0281939094A095B098A859B85AC8511
:10583000BD85281739074A075B0759F00894411CB2
:10584000511C611C711C0894C11CD11CE11CF11C71
:10585000B0CFC101A601B7010FEF1FEF2FEF3FE05F
:105860000E94A829882399F43FC026013701089493
:105870004108510861087108C101B301A2019701F3
:1058800086010E94A829882379F1730162018C1492
:105890009D04AE04BF0448F3AE85BF854D915D9174
:1058A0006D917C91411551056105710539F0C1017A
:1058B000950184010E94A8298823B1F0EE85FF8517
:1058C00080829182A282B382F985FF2359F00894E5
:1058D000811C911CA11CB11CD1018D929D92AD9295
:1058E000BC92139781E001C080E02F960FB6F89428
:1058F000DEBF0FBECDBFCF91DF911F910F91FF9003
:10590000EF90DF90CF90BF90AF909F908F907F905F
:105910006F905F904F903F902F900895DC0187E04B
:10592000A03DB80710F0A05DB74050E02DEB31E08E
:1059300091E007C0F9018491480F511D9F5F2F5FCF
:105940003F4F9617B8F3633038F0CD0183709070F5
:10595000892B11F44F5F5F4F8DE691E0A89F900176
:10596000A99F300DB89F300D11242150304013965F
:10597000B695A795B695A7952A0F3B1F240F351FFF
:10598000C9010895CF92EF920F93FC0187E0603D2B
:10599000780710F0605D774060834D3008F04CE090
:1059A0004183203208F02FE12283083108F007E11B
:1059B00003838E2D8D3308F08CE384838C2D8D33FF
:1059C00008F08CE385830F91EF90CF900895CF93EB
:1059D000DF93FC01DB01EB01299619968C91199755
:1059E00080538A3008F080E0298120533AE0839F79
:1059F000C0011124280F20838C918A34A9F08B34A4
:105A00003CF48434D9F18634F9F08134C9F51EC0F0
:105A10008E3491F18F341CF48D3491F520C08F3485
:105A200049F1833569F524C011968C91119781361F
:105A300011F481E024C012968C9112978E3611F4E5
:105A400086E01DC087E01BC082E019C012968C91D1
:105A50001297823711F088E012C084E010C01296CD
:105A60008C911297823711F085E009C083E007C05E
:105A700089E005C0318304C08BE001C08CE08183E4
:105A8000ED01249614966C9160536A3008F060E042
:105A9000298120538AE0689FC0011124280F2283A6
:105AA000DA019C9190539A3008F090E0EA01298144
:105AB00020538AE0989FC0011124280F2383DA0124
:105AC00013969B8190539A3008F090E011962C9198
:105AD00020538AE0989FC0011124280F2483DA0103
